{
  "contractName": "Knitts",
  "abi": [
    {
      "inputs": [],
      "name": "addModerator",
      "outputs": [],
      "stateMutability": "payable",
      "type": "function",
      "payable": true
    },
    {
      "inputs": [],
      "name": "depositMore",
      "outputs": [],
      "stateMutability": "payable",
      "type": "function",
      "payable": true
    },
    {
      "inputs": [
        {
          "internalType": "uint256",
          "name": "_entryFee",
          "type": "uint256"
        },
        {
          "internalType": "uint256",
          "name": "_numPlayers",
          "type": "uint256"
        },
        {
          "internalType": "uint256",
          "name": "_duration",
          "type": "uint256"
        }
      ],
      "name": "createLeague",
      "outputs": [
        {
          "internalType": "address[]",
          "name": "",
          "type": "address[]"
        }
      ],
      "stateMutability": "nonpayable",
      "type": "function"
    },
    {
      "inputs": [
        {
          "internalType": "address",
          "name": "_moderator",
          "type": "address"
        }
      ],
      "name": "getBalance",
      "outputs": [
        {
          "internalType": "uint256",
          "name": "",
          "type": "uint256"
        }
      ],
      "stateMutability": "view",
      "type": "function",
      "constant": true
    },
    {
      "inputs": [],
      "name": "getDetails",
      "outputs": [
        {
          "internalType": "address[]",
          "name": "",
          "type": "address[]"
        },
        {
          "internalType": "address[]",
          "name": "",
          "type": "address[]"
        }
      ],
      "stateMutability": "view",
      "type": "function",
      "constant": true
    },
    {
      "inputs": [
        {
          "internalType": "address",
          "name": "_moderator",
          "type": "address"
        }
      ],
      "name": "removeModerator",
      "outputs": [],
      "stateMutability": "nonpayable",
      "type": "function"
    }
  ],
  "bytecode": "0x60806040527379e6234ff4e7db556f916febce9e52a68d0b88796000806101000a81548173ffffffffffffffffffffffffffffffffffffffff021916908373ffffffffffffffffffffffffffffffffffffffff1602179055506103e860055534801561006a57600080fd5b5061283c8061007a6000396000f3fe6080604052600436106200005c5760003560e01c8063601731801462000061578063869d785f146200006d578063d8213d30146200009b578063e9ff6f5c14620000a7578063f8b2cb4f14620000eb578063fbbf93a0146200012f575b600080fd5b6200006b62000160565b005b3480156200007a57600080fd5b5062000099600480360381019062000093919062000717565b62000200565b005b620000a56200025b565b005b348015620000b457600080fd5b50620000d36004803603810190620000cd919062000743565b620003a2565b604051620000e2919062000963565b60405180910390f35b348015620000f857600080fd5b5062000117600480360381019062000111919062000717565b6200056f565b60405162000126919062000a28565b60405180910390f35b3480156200013c57600080fd5b5062000147620005b8565b6040516200015792919062000987565b60405180910390f35b60003411620001a6576040517f08c379a00000000000000000000000000000000000000000000000000000000081526004016200019d90620009c2565b60405180910390fd5b34600360003373ffffffffffffffffffffffffffffffffffffffff1673ffffffffffffffffffffffffffffffffffffffff1681526020019081526020016000206000828254620001f7919062000a8f565b92505081905550565b6000600260008373ffffffffffffffffffffffffffffffffffffffff1673ffffffffffffffffffffffffffffffffffffffff16815260200190815260200160002060006101000a81548160ff02191690831515021790555050565b60003411620002a1576040517f08c379a00000000000000000000000000000000000000000000000000000000081526004016200029890620009e4565b60405180910390fd5b6001339080600181540180825580915050600190039060005260206000200160009091909190916101000a81548173ffffffffffffffffffffffffffffffffffffffff021916908373ffffffffffffffffffffffffffffffffffffffff16021790555034600360003373ffffffffffffffffffffffffffffffffffffffff1673ffffffffffffffffffffffffffffffffffffffff168152602001908152602001600020819055506001600260003373ffffffffffffffffffffffffffffffffffffffff1673ffffffffffffffffffffffffffffffffffffffff16815260200190815260200160002060006101000a81548160ff021916908315150217905550565b6060600360003373ffffffffffffffffffffffffffffffffffffffff1673ffffffffffffffffffffffffffffffffffffffff168152602001908152602001600020548385620003f2919062000aec565b111562000436576040517f08c379a00000000000000000000000000000000000000000000000000000000081526004016200042d9062000a06565b60405180910390fd5b6000338585856040516200044a90620006db565b62000459949392919062000916565b604051809103906000f08015801562000476573d6000803e3d6000fd5b5090506004819080600181540180825580915050600190039060005260206000200160009091909190916101000a81548173ffffffffffffffffffffffffffffffffffffffff021916908373ffffffffffffffffffffffffffffffffffffffff16021790555060048054806020026020016040519081016040528092919081815260200182805480156200056057602002820191906000526020600020905b8160009054906101000a900473ffffffffffffffffffffffffffffffffffffffff1673ffffffffffffffffffffffffffffffffffffffff168152602001906001019080831162000515575b50505050509150509392505050565b6000600360008373ffffffffffffffffffffffffffffffffffffffff1673ffffffffffffffffffffffffffffffffffffffff168152602001908152602001600020549050919050565b60608060016004818054806020026020016040519081016040528092919081815260200182805480156200064257602002820191906000526020600020905b8160009054906101000a900473ffffffffffffffffffffffffffffffffffffffff1673ffffffffffffffffffffffffffffffffffffffff1681526020019060010190808311620005f7575b5050505050915080805480602002602001604051908101604052809291908181526020018280548015620006cc57602002820191906000526020600020905b8160009054906101000a900473ffffffffffffffffffffffffffffffffffffffff1673ffffffffffffffffffffffffffffffffffffffff168152602001906001019080831162000681575b50505050509050915091509091565b611c188062000bef83390190565b600081359050620006fa8162000bba565b92915050565b600081359050620007118162000bd4565b92915050565b6000602082840312156200072a57600080fd5b60006200073a84828501620006e9565b91505092915050565b6000806000606084860312156200075957600080fd5b6000620007698682870162000700565b93505060206200077c8682870162000700565b92505060406200078f8682870162000700565b9150509250925092565b6000620007a78383620007b3565b60208301905092915050565b620007be8162000b4d565b82525050565b620007cf8162000b4d565b82525050565b6000620007e28262000a55565b620007ee818562000a6d565b9350620007fb8362000a45565b8060005b838110156200083257815162000816888262000799565b9750620008238362000a60565b925050600181019050620007ff565b5085935050505092915050565b60006200084e601f8362000a7e565b91507f596f75206e65656420746f206465706f73697420736f6d6520616d6f756e74006000830152602082019050919050565b600062000890601e8362000a7e565b91507f596f752073686f756c64206465706f73697420736f6d6520616d6f756e7400006000830152602082019050919050565b6000620008d260148362000a7e565b91507f496e73756666696369656e74206465706f7369740000000000000000000000006000830152602082019050919050565b620009108162000b81565b82525050565b60006080820190506200092d6000830187620007c4565b6200093c602083018662000905565b6200094b604083018562000905565b6200095a606083018462000905565b95945050505050565b600060208201905081810360008301526200097f8184620007d5565b905092915050565b60006040820190508181036000830152620009a38185620007d5565b90508181036020830152620009b98184620007d5565b90509392505050565b60006020820190508181036000830152620009dd816200083f565b9050919050565b60006020820190508181036000830152620009ff8162000881565b9050919050565b6000602082019050818103600083015262000a2181620008c3565b9050919050565b600060208201905062000a3f600083018462000905565b92915050565b6000819050602082019050919050565b600081519050919050565b6000602082019050919050565b600082825260208201905092915050565b600082825260208201905092915050565b600062000a9c8262000b81565b915062000aa98362000b81565b9250827fffffffffffffffffffffffffffffffffffffffffffffffffffffffffffffffff0382111562000ae15762000ae062000b8b565b5b828201905092915050565b600062000af98262000b81565b915062000b068362000b81565b9250817fffffffffffffffffffffffffffffffffffffffffffffffffffffffffffffffff048311821515161562000b425762000b4162000b8b565b5b828202905092915050565b600062000b5a8262000b61565b9050919050565b600073ffffffffffffffffffffffffffffffffffffffff82169050919050565b6000819050919050565b7f4e487b7100000000000000000000000000000000000000000000000000000000600052601160045260246000fd5b62000bc58162000b4d565b811462000bd157600080fd5b50565b62000bdf8162000b81565b811462000beb57600080fd5b5056fe60806040523480156200001157600080fd5b5060405162001c1838038062001c1883398181016040528101906200003791906200015e565b826001819055508160028190555083600560006101000a81548173ffffffffffffffffffffffffffffffffffffffff021916908373ffffffffffffffffffffffffffffffffffffffff1602179055508060068190555060006003819055506000600760006101000a81548160ff0219169083151502179055506000600760016101000a81548160ff0219169083151502179055506000600760026101000a81548160ff021916908315150217905550836000806101000a81548173ffffffffffffffffffffffffffffffffffffffff021916908373ffffffffffffffffffffffffffffffffffffffff160217905550505050506200023c565b600081519050620001418162000208565b92915050565b600081519050620001588162000222565b92915050565b600080600080608085870312156200017557600080fd5b6000620001858782880162000130565b9450506020620001988782880162000147565b9350506040620001ab8782880162000147565b9250506060620001be8782880162000147565b91505092959194509250565b6000620001d782620001de565b9050919050565b600073ffffffffffffffffffffffffffffffffffffffff82169050919050565b6000819050919050565b6200021381620001ca565b81146200021f57600080fd5b50565b6200022d81620001fe565b81146200023957600080fd5b50565b6119cc806200024c6000396000f3fe60806040526004361061007b5760003560e01c8063c3b7a80f1161004e578063c3b7a80f14610134578063d235407b1461014b578063e4fc6b6d14610189578063fbbf93a0146101a05761007b565b806324fd7918146100805780632afcf480146100ab57806341aaf46d146100c7578063677342ce146100f7575b600080fd5b34801561008c57600080fd5b506100956101d0565b6040516100a291906113fc565b60405180910390f35b6100c560048036038101906100c09190610f13565b610288565b005b6100e160048036038101906100dc9190610ed2565b61041d565b6040516100ee91906114fe565b60405180910390f35b34801561010357600080fd5b5061011e60048036038101906101199190610f13565b61053e565b60405161012b91906114fe565b60405180910390f35b34801561014057600080fd5b506101496105b7565b005b34801561015757600080fd5b50610172600480360381019061016d9190610f13565b610664565b60405161018092919061136b565b60405180910390f35b34801561019557600080fd5b5061019e6107ca565b005b3480156101ac57600080fd5b506101b561085a565b6040516101c79695949392919061139b565b60405180910390f35b606060008054906101000a900473ffffffffffffffffffffffffffffffffffffffff1673ffffffffffffffffffffffffffffffffffffffff163373ffffffffffffffffffffffffffffffffffffffff1614610260576040517f08c379a00000000000000000000000000000000000000000000000000000000081526004016102579061147e565b60405180910390fd5b6001600760016101000a81548160ff0219169083151502179055506102836108d0565b905090565b60035481106102cc576040517f08c379a00000000000000000000000000000000000000000000000000000000081526004016102c3906114de565b60405180910390fd5b60006009600083815260200190815260200160002060020160003373ffffffffffffffffffffffffffffffffffffffff1673ffffffffffffffffffffffffffffffffffffffff1681526020019081526020016000205414156103a05760096000828152602001908152602001600020600301339080600181540180825580915050600190039060005260206000200160009091909190916101000a81548173ffffffffffffffffffffffffffffffffffffffff021916908373ffffffffffffffffffffffffffffffffffffffff1602179055505b64e8d4a51000346103b191906116ee565b6009600083815260200190815260200160002060020160003373ffffffffffffffffffffffffffffffffffffffff1673ffffffffffffffffffffffffffffffffffffffff16815260200190815260200160002060008282546104139190611698565b9250508190555050565b6000600154341015610464576040517f08c379a000000000000000000000000000000000000000000000000000000000815260040161045b906114be565b60405180910390fd5b600254600354106104aa576040517f08c379a00000000000000000000000000000000000000000000000000000000081526004016104a19061145e565b60405180910390fd5b600060096000600360008154809291906104c390611869565b9190505581526020019081526020016000209050338160000160006101000a81548173ffffffffffffffffffffffffffffffffffffffff021916908373ffffffffffffffffffffffffffffffffffffffff16021790555082816001019080519060200190610532929190610b17565b50600354915050919050565b60008060019050600083905060008290505b818310156105ac57600283836105669190611779565b61057091906116ee565b8361057b9190611698565b905084818261058a919061171f565b10610597578091506105a7565b6001816105a49190611698565b92505b610550565b819350505050919050565b600560009054906101000a900473ffffffffffffffffffffffffffffffffffffffff1673ffffffffffffffffffffffffffffffffffffffff163373ffffffffffffffffffffffffffffffffffffffff1614610647576040517f08c379a000000000000000000000000000000000000000000000000000000000815260040161063e9061141e565b60405180910390fd5b6001600760006101000a81548160ff021916908315150217905550565b600060606009600084815260200190815260200160002060000160009054906101000a900473ffffffffffffffffffffffffffffffffffffffff166009600085815260200190815260200160002060010180805480602002602001604051908101604052809291908181526020016000905b828210156107bb5783829060005260206000209060140201601480602002604051908101604052809291906000905b828210156107a857838201805461071b90611837565b80601f016020809104026020016040519081016040528092919081815260200182805461074790611837565b80156107945780601f1061076957610100808354040283529160200191610794565b820191906000526020600020905b81548152906001019060200180831161077757829003601f168201915b505050505081526020019060010190610705565b50505050815260200190600101906106d6565b50505050905091509150915091565b60008054906101000a900473ffffffffffffffffffffffffffffffffffffffff1673ffffffffffffffffffffffffffffffffffffffff163373ffffffffffffffffffffffffffffffffffffffff1614610858576040517f08c379a000000000000000000000000000000000000000000000000000000000815260040161084f9061143e565b60405180910390fd5b565b600080600080600080600560009054906101000a900473ffffffffffffffffffffffffffffffffffffffff16600154600254600760009054906101000a900460ff16600760019054906101000a900460ff16600760029054906101000a900460ff16955095509550955095509550909192939495565b60606001600760016101000a81548160ff021916908315150217905561092b576040517f08c379a00000000000000000000000000000000000000000000000000000000081526004016109229061149e565b60405180910390fd5b60608060089080519060200190610943929190610b75565b5060005b600354811015610abf576000805b6009600084815260200190815260200160002060030180549050811015610a705760006009600085815260200190815260200160002060030182815481106109c6577f4e487b7100000000000000000000000000000000000000000000000000000000600052603260045260246000fd5b9060005260206000200160009054906101000a900473ffffffffffffffffffffffffffffffffffffffff169050610a4f6009600086815260200190815260200160002060020160008373ffffffffffffffffffffffffffffffffffffffff1673ffffffffffffffffffffffffffffffffffffffff1681526020019081526020016000205461053e565b83610a5a9190611698565b9250508080610a6890611869565b915050610955565b5060008182610a7f919061171f565b9050600881908060018154018082558091505060019003906000526020600020016000909190919091505550508080610ab790611869565b915050610947565b506008805480602002602001604051908101604052809291908181526020018280548015610b0c57602002820191906000526020600020905b815481526020019060010190808311610af8575b505050505091505090565b828054828255906000526020600020906014028101928215610b64579160200282015b82811115610b6357825182906014610b53929190610bc2565b5091602001919060140190610b3a565b5b509050610b719190610c15565b5090565b828054828255906000526020600020908101928215610bb1579160200282015b82811115610bb0578251825591602001919060010190610b95565b5b509050610bbe9190610c39565b5090565b8260148101928215610c04579160200282015b82811115610c03578251829080519060200190610bf3929190610c56565b5091602001919060010190610bd5565b5b509050610c119190610cdc565b5090565b5b80821115610c355760008181610c2c9190610d00565b50601401610c16565b5090565b5b80821115610c52576000816000905550600101610c3a565b5090565b828054610c6290611837565b90600052602060002090601f016020900481019282610c845760008555610ccb565b82601f10610c9d57805160ff1916838001178555610ccb565b82800160010185558215610ccb579182015b82811115610cca578251825591602001919060010190610caf565b5b509050610cd89190610c39565b5090565b5b80821115610cfc5760008181610cf39190610d13565b50600101610cdd565b5090565b508060140190610d109190610cdc565b50565b508054610d1f90611837565b6000825580601f10610d315750610d50565b601f016020900490600052602060002090810190610d4f9190610c39565b5b50565b6000610d66610d618461154a565b611519565b9050808382526020820190508260005b85811015610da65781358501610d8c8882610e6c565b845260208401935060208301925050600181019050610d76565b5050509392505050565b6000610dc3610dbe84611576565b611519565b9050808260005b85811015610dfa5781358501610de08882610e93565b845260208401935060208301925050600181019050610dca565b5050509392505050565b6000610e17610e128461159c565b611519565b905082815260208101848484011115610e2f57600080fd5b610e3a8482856117f5565b509392505050565b600082601f830112610e5357600080fd5b8135610e63848260208601610d53565b91505092915050565b600082601f830112610e7d57600080fd5b6014610e8a848285610db0565b91505092915050565b600082601f830112610ea457600080fd5b8135610eb4848260208601610e04565b91505092915050565b600081359050610ecc8161197f565b92915050565b600060208284031215610ee457600080fd5b600082013567ffffffffffffffff811115610efe57600080fd5b610f0a84828501610e42565b91505092915050565b600060208284031215610f2557600080fd5b6000610f3384828501610ebd565b91505092915050565b6000610f488383611000565b905092915050565b6000610f5c83836110e2565b905092915050565b6000610f70838361134d565b60208301905092915050565b610f85816117ad565b82525050565b6000610f96826115f6565b610fa08185611649565b935083602082028501610fb2856115cc565b8060005b85811015610fee5784840389528151610fcf8582610f3c565b9450610fda83611622565b925060208a01995050600181019050610fb6565b50829750879550505050505092915050565b600061100b82611601565b611015818561165a565b935083602082028501611027856115dc565b8060005b8581101561106357848403895281516110448582610f50565b945061104f8361162f565b925060208a0199505060018101905061102b565b50829750879550505050505092915050565b60006110808261160c565b61108a8185611665565b9350611095836115e6565b8060005b838110156110c65781516110ad8882610f64565b97506110b88361163c565b925050600181019050611099565b5085935050505092915050565b6110dc816117bf565b82525050565b60006110ed82611617565b6110f78185611676565b9350611107818560208601611804565b6111108161196e565b840191505092915050565b6000611128602383611687565b91507f6f6e6c79206d6f64657261746f722063616e20737461727420746865206c656160008301527f67756500000000000000000000000000000000000000000000000000000000006020830152604082019050919050565b600061118e602783611687565b91507f6f6e6c79206f7267616e697a6174696f6e2063616e206469737472696275746560008301527f207072697a6573000000000000000000000000000000000000000000000000006020830152604082019050919050565b60006111f4601583611687565b91507f4d6178696d756d206c696d6974207265616368656400000000000000000000006000830152602082019050919050565b6000611234602483611687565b91507f6f6e6c79206f7267616e697a6174696f6e2063616e20656e6420746865206c6560008301527f61677565000000000000000000000000000000000000000000000000000000006020830152604082019050919050565b600061129a601683611687565b91507f7468652067616d6520686173206e6f7420656e646564000000000000000000006000830152602082019050919050565b60006112da601683611687565b91507f496e73756666696369656e7420656e74727920666565000000000000000000006000830152602082019050919050565b600061131a601283611687565b91507f496e76616c69642070726f6a65637420696400000000000000000000000000006000830152602082019050919050565b611356816117eb565b82525050565b611365816117eb565b82525050565b60006040820190506113806000830185610f7c565b81810360208301526113928184610f8b565b90509392505050565b600060c0820190506113b06000830189610f7c565b6113bd602083018861135c565b6113ca604083018761135c565b6113d760608301866110d3565b6113e460808301856110d3565b6113f160a08301846110d3565b979650505050505050565b600060208201905081810360008301526114168184611075565b905092915050565b600060208201905081810360008301526114378161111b565b9050919050565b6000602082019050818103600083015261145781611181565b9050919050565b60006020820190508181036000830152611477816111e7565b9050919050565b6000602082019050818103600083015261149781611227565b9050919050565b600060208201905081810360008301526114b78161128d565b9050919050565b600060208201905081810360008301526114d7816112cd565b9050919050565b600060208201905081810360008301526114f78161130d565b9050919050565b6000602082019050611513600083018461135c565b92915050565b6000604051905081810181811067ffffffffffffffff821117156115405761153f61193f565b5b8060405250919050565b600067ffffffffffffffff8211156115655761156461193f565b5b602082029050602081019050919050565b600067ffffffffffffffff8211156115915761159061193f565b5b602082029050919050565b600067ffffffffffffffff8211156115b7576115b661193f565b5b601f19601f8301169050602081019050919050565b6000819050602082019050919050565b6000819050919050565b6000819050602082019050919050565b600081519050919050565b600060149050919050565b600081519050919050565b600081519050919050565b6000602082019050919050565b6000602082019050919050565b6000602082019050919050565b600082825260208201905092915050565b600081905092915050565b600082825260208201905092915050565b600082825260208201905092915050565b600082825260208201905092915050565b60006116a3826117eb565b91506116ae836117eb565b9250827fffffffffffffffffffffffffffffffffffffffffffffffffffffffffffffffff038211156116e3576116e26118b2565b5b828201905092915050565b60006116f9826117eb565b9150611704836117eb565b925082611714576117136118e1565b5b828204905092915050565b600061172a826117eb565b9150611735836117eb565b9250817fffffffffffffffffffffffffffffffffffffffffffffffffffffffffffffffff048311821515161561176e5761176d6118b2565b5b828202905092915050565b6000611784826117eb565b915061178f836117eb565b9250828210156117a2576117a16118b2565b5b828203905092915050565b60006117b8826117cb565b9050919050565b60008115159050919050565b600073ffffffffffffffffffffffffffffffffffffffff82169050919050565b6000819050919050565b82818337600083830152505050565b60005b83811015611822578082015181840152602081019050611807565b83811115611831576000848401525b50505050565b6000600282049050600182168061184f57607f821691505b6020821081141561186357611862611910565b5b50919050565b6000611874826117eb565b91507fffffffffffffffffffffffffffffffffffffffffffffffffffffffffffffffff8214156118a7576118a66118b2565b5b600182019050919050565b7f4e487b7100000000000000000000000000000000000000000000000000000000600052601160045260246000fd5b7f4e487b7100000000000000000000000000000000000000000000000000000000600052601260045260246000fd5b7f4e487b7100000000000000000000000000000000000000000000000000000000600052602260045260246000fd5b7f4e487b7100000000000000000000000000000000000000000000000000000000600052604160045260246000fd5b6000601f19601f8301169050919050565b611988816117eb565b811461199357600080fd5b5056fea26469706673582212204607228b68bf38070b67cfb01f5b5e9366911fc712c7ae13f247f61f279f363364736f6c63430008000033a2646970667358221220d86cf5ed81af384091fd03b44d7166eb479692a4f8746bb401141723900f427b64736f6c63430008000033",
  "immutableReferences": {},
  "source": "// SPDX-License-Identifier: MIT\r\npragma solidity >=0.8.0;\r\n\r\ncontract Knitts{\r\n    //organization address here\r\n    address organization = 0x79e6234Ff4E7DB556F916FeBcE9e52a68D0B8879;\r\n    address[] moderators;//change this to mapping mapping(address=>bool)\r\n    mapping(address=>bool) valid;\r\n    mapping(address => uint) deposits;\r\n    address[] Leagues;\r\n    uint maxDescLength = 1000;\r\n    function addModerator() public payable{\r\n        require(msg.value > 0, \"You should deposit some amount\");\r\n        moderators.push(msg.sender);\r\n        deposits[msg.sender] = msg.value;\r\n        valid[msg.sender]=true;\r\n    }\r\n\r\n    function depositMore() public payable{\r\n        require(msg.value > 0, \"You need to deposit some amount\");\r\n        deposits[msg.sender] += msg.value;\r\n    }\r\n\r\n    function createLeague(uint _entryFee, uint _numPlayers, uint _duration) public returns(address[] memory){\r\n        require(_entryFee * _numPlayers <= deposits[msg.sender], \"Insufficient deposit\");\r\n        League newLeague = new League(msg.sender, _entryFee, _numPlayers, _duration);\r\n        Leagues.push(address(newLeague));\r\n        return Leagues;\r\n    }\r\n\r\n    function getBalance(address _moderator) public view returns (uint){\r\n        return deposits[_moderator];\r\n    }\r\n\r\n    function getDetails() public view returns (address [] memory, address [] memory){\r\n        return (moderators, Leagues);\r\n    }\r\n    \r\n\r\n    function removeModerator(address _moderator) public {\r\n        valid[_moderator] = false;\r\n    }\r\n}\r\n\r\ncontract League{\r\n    \r\n    address organization;\r\n    uint entryFee;\r\n    uint maxParticipants;\r\n    uint numProjects;\r\n    address [] participants;\r\n    address moderator;\r\n    uint duration;\r\n    bool started;\r\n    bool ended;\r\n    bool distributed;\r\n    uint [] points;\r\n    struct project{\r\n        address owner;\r\n        bytes[20][] description;\r\n        mapping(address => uint)investments;\r\n        address[] investors;\r\n    }\r\n\r\n    mapping(uint => project) projects;\r\n\r\n    constructor(address _moderator, uint _entryFee, uint _maxParticipants, uint _duration){\r\n        entryFee = _entryFee;\r\n        maxParticipants = _maxParticipants;\r\n        moderator = _moderator;\r\n        duration = _duration;\r\n        numProjects = 0;\r\n        started=false;\r\n        ended=false;\r\n        distributed=false;\r\n        //organization = 0x79e6234Ff4E7DB556F916FeBcE9e52a68D0B8879; //for public net\r\n        organization = _moderator; // for local testing\r\n    }\r\n\r\n    function submitIdea(bytes[20][] memory description) public payable returns(uint){\r\n        require(msg.value >= entryFee, \"Insufficient entry fee\");\r\n        require(numProjects < maxParticipants, \"Maximum limit reached\");\r\n        project storage p = projects[numProjects++];\r\n        p.owner = msg.sender;\r\n        p.description = description;\r\n        return numProjects;\r\n    }\r\n\r\n    function invest(uint projectId) public payable{\r\n        require(projectId < numProjects, \"Invalid project id\");\r\n        if(projects[projectId].investments[msg.sender] == 0){\r\n            projects[projectId].investors.push(msg.sender);\r\n        }\r\n\r\n        projects[projectId].investments[msg.sender] += msg.value/1e12;\r\n        \r\n    }\r\n\r\n    function startLeague() public{\r\n        require(msg.sender == moderator, \"only moderator can start the league\");\r\n        started=true;\r\n    }\r\n\r\n    function endLeague() public returns(uint[] memory){\r\n        require(msg.sender == organization, \"only organization can end the league\");\r\n        ended=true;\r\n        return getPoints();\r\n    }\r\n\r\n    function getPoints() private returns(uint[] memory){\r\n        require(ended = true, \"the game has not ended\");\r\n        uint [] memory empty_points;\r\n        points = empty_points;\r\n        // require(msg.sender == organization, \"only organization get the points\");\r\n        // write quadratic funding code here\r\n        for(uint i=0; i < numProjects; i++){\r\n            uint sum = 0;\r\n            for(uint j=0; j<projects[i].investors.length; j++){\r\n                address investor = projects[i].investors[j];\r\n                sum += sqrt(projects[i].investments[investor]);\r\n            }\r\n            uint point = sum * sum;\r\n            points.push(point);\r\n        }\r\n        return points;\r\n    }\r\n\r\n    function distribute() public view{\r\n        require(msg.sender == organization, \"only organization can distribute prizes\");\r\n        //write the quadratic function\r\n    }\r\n\r\n    function getDetails() public view returns(\r\n        address,//moderator\r\n        uint,//entry fee\r\n        uint,//maxParticipants\r\n        bool, //started\r\n        bool, //ended\r\n        bool //distributed\r\n    ){\r\n        return (moderator, entryFee, maxParticipants, started, ended, distributed);\r\n    }\r\n\r\n    function submissionDetails(uint projectId) public view returns(\r\n        address, // project owner\r\n        bytes[20][] memory // description\r\n    )  {\r\n        return (projects[projectId].owner, projects[projectId].description);\r\n    }\r\n\r\n    function sqrt(uint num) public pure returns(uint){\r\n        uint start = 1;\r\n        uint end = num;\r\n        uint mid = start;\r\n        while(start < end){\r\n            mid = start + (end - start)/2;\r\n            if(mid * mid >= num){\r\n                end = mid;\r\n            }else{\r\n                start = mid+1;\r\n            }\r\n        }\r\n        return end;\r\n    }\r\n}",
  "sourcePath": "E:\\projects\\knitts\\back-end\\contracts\\League.sol",
  "compiler": {
    "name": "solc",
    "version": "0.8.0+commit.c7dfd78e.Emscripten.clang"
  },
  "schemaVersion": "3.4.3",
  "updatedAt": "2021-09-26T09:54:07.025Z",
  "networkType": "ethereum",
  "devdoc": {
    "kind": "dev",
    "methods": {},
    "version": 1
  },
  "userdoc": {
    "kind": "user",
    "methods": {},
    "version": 1
  }
}