{
  "contractName": "Knitts",
  "abi": [
    {
      "inputs": [
        {
          "internalType": "uint256",
          "name": "",
          "type": "uint256"
        }
      ],
      "name": "Leagues",
      "outputs": [
        {
          "internalType": "address",
          "name": "",
          "type": "address"
        }
      ],
      "stateMutability": "view",
      "type": "function",
      "constant": true
    },
    {
      "inputs": [
        {
          "internalType": "address",
          "name": "",
          "type": "address"
        }
      ],
      "name": "idToUser",
      "outputs": [
        {
          "internalType": "address",
          "name": "",
          "type": "address"
        }
      ],
      "stateMutability": "view",
      "type": "function",
      "constant": true
    },
    {
      "inputs": [],
      "name": "numLeagues",
      "outputs": [
        {
          "internalType": "uint256",
          "name": "",
          "type": "uint256"
        }
      ],
      "stateMutability": "view",
      "type": "function",
      "constant": true
    },
    {
      "inputs": [],
      "name": "organization",
      "outputs": [
        {
          "internalType": "address",
          "name": "",
          "type": "address"
        }
      ],
      "stateMutability": "view",
      "type": "function",
      "constant": true
    },
    {
      "inputs": [
        {
          "internalType": "uint256",
          "name": "_entryFee",
          "type": "uint256"
        },
        {
          "internalType": "uint256",
          "name": "_numPlayers",
          "type": "uint256"
        },
        {
          "internalType": "uint256",
          "name": "_duration",
          "type": "uint256"
        }
      ],
      "name": "createLeague",
      "outputs": [
        {
          "internalType": "address[]",
          "name": "",
          "type": "address[]"
        }
      ],
      "stateMutability": "payable",
      "type": "function",
      "payable": true
    },
    {
      "inputs": [
        {
          "internalType": "address",
          "name": "id",
          "type": "address"
        },
        {
          "internalType": "address",
          "name": "userContract",
          "type": "address"
        }
      ],
      "name": "register",
      "outputs": [],
      "stateMutability": "nonpayable",
      "type": "function"
    }
  ],
  "bytecode": "0x60806040527379e6234ff4e7db556f916febce9e52a68d0b88796000806101000a81548173ffffffffffffffffffffffffffffffffffffffff021916908373ffffffffffffffffffffffffffffffffffffffff160217905550600060025534801561006957600080fd5b506131cd806100796000396000f3fe6080604052600436106200005c5760003560e01c806319fe7a83146200006157806323bd4d7a14620000a5578063aa67735414620000d5578063e075634b1462000103578063e623cc9f1462000133578063e9ff6f5c1462000177575b600080fd5b3480156200006e57600080fd5b506200008d6004803603810190620000879190620004d0565b620001ad565b6040516200009c919062000609565b60405180910390f35b348015620000b257600080fd5b50620000bd620001ed565b604051620000cc919062000609565b60405180910390f35b348015620000e257600080fd5b50620001016004803603810190620000fb91906200048f565b62000211565b005b3480156200011057600080fd5b506200011b62000293565b6040516200012a9190620006b7565b60405180910390f35b3480156200014057600080fd5b506200015f600480360381019062000159919062000463565b62000299565b6040516200016e919062000609565b60405180910390f35b6200019560048036038101906200018f9190620004fc565b620002cc565b604051620001a4919062000693565b60405180910390f35b60018181548110620001be57600080fd5b906000526020600020016000915054906101000a900473ffffffffffffffffffffffffffffffffffffffff1681565b60008054906101000a900473ffffffffffffffffffffffffffffffffffffffff1681565b80600360008473ffffffffffffffffffffffffffffffffffffffff1673ffffffffffffffffffffffffffffffffffffffff16815260200190815260200160002060006101000a81548173ffffffffffffffffffffffffffffffffffffffff021916908373ffffffffffffffffffffffffffffffffffffffff1602179055505050565b60025481565b60036020528060005260406000206000915054906101000a900473ffffffffffffffffffffffffffffffffffffffff1681565b60606000333486868630604051620002e49062000427565b620002f59695949392919062000626565b604051809103906000f08015801562000312573d6000803e3d6000fd5b5090506001600260008282546200032a91906200070d565b925050819055506001819080600181540180825580915050600190039060005260206000200160009091909190916101000a81548173ffffffffffffffffffffffffffffffffffffffff021916908373ffffffffffffffffffffffffffffffffffffffff16021790555060018054806020026020016040519081016040528092919081815260200182805480156200041857602002820191906000526020600020905b8160009054906101000a900473ffffffffffffffffffffffffffffffffffffffff1673ffffffffffffffffffffffffffffffffffffffff1681526020019060010190808311620003cd575b50505050509150509392505050565b61298c806200080c83390190565b6000813590506200044681620007d7565b92915050565b6000813590506200045d81620007f1565b92915050565b6000602082840312156200047657600080fd5b6000620004868482850162000435565b91505092915050565b60008060408385031215620004a357600080fd5b6000620004b38582860162000435565b9250506020620004c68582860162000435565b9150509250929050565b600060208284031215620004e357600080fd5b6000620004f3848285016200044c565b91505092915050565b6000806000606084860312156200051257600080fd5b600062000522868287016200044c565b935050602062000535868287016200044c565b925050604062000548868287016200044c565b9150509250925092565b60006200056083836200056c565b60208301905092915050565b62000577816200076a565b82525050565b62000588816200076a565b82525050565b60006200059b82620006e4565b620005a78185620006fc565b9350620005b483620006d4565b8060005b83811015620005eb578151620005cf888262000552565b9750620005dc83620006ef565b925050600181019050620005b8565b5085935050505092915050565b62000603816200079e565b82525050565b60006020820190506200062060008301846200057d565b92915050565b600060c0820190506200063d60008301896200057d565b6200064c6020830188620005f8565b6200065b6040830187620005f8565b6200066a6060830186620005f8565b620006796080830185620005f8565b6200068860a08301846200057d565b979650505050505050565b60006020820190508181036000830152620006af81846200058e565b905092915050565b6000602082019050620006ce6000830184620005f8565b92915050565b6000819050602082019050919050565b600081519050919050565b6000602082019050919050565b600082825260208201905092915050565b60006200071a826200079e565b915062000727836200079e565b9250827fffffffffffffffffffffffffffffffffffffffffffffffffffffffffffffffff038211156200075f576200075e620007a8565b5b828201905092915050565b600062000777826200077e565b9050919050565b600073ffffffffffffffffffffffffffffffffffffffff82169050919050565b6000819050919050565b7f4e487b7100000000000000000000000000000000000000000000000000000000600052601160045260246000fd5b620007e2816200076a565b8114620007ee57600080fd5b50565b620007fc816200079e565b81146200080857600080fd5b5056fe608060405260006007556000600960006101000a81548160ff0219169083151502179055506000600960016101000a81548160ff0219169083151502179055506000600960026101000a81548160ff0219169083151502179055503480156200006757600080fd5b506040516200298c3803806200298c83398181016040528101906200008d9190620001a5565b836002819055508260038190555085600460006101000a81548173ffffffffffffffffffffffffffffffffffffffff021916908373ffffffffffffffffffffffffffffffffffffffff16021790555081600581905550856000806101000a81548173ffffffffffffffffffffffffffffffffffffffff021916908373ffffffffffffffffffffffffffffffffffffffff16021790555080600160006101000a81548173ffffffffffffffffffffffffffffffffffffffff021916908373ffffffffffffffffffffffffffffffffffffffff16021790555084600681905550505050505050620002ad565b600081519050620001888162000279565b92915050565b6000815190506200019f8162000293565b92915050565b60008060008060008060c08789031215620001bf57600080fd5b6000620001cf89828a0162000177565b9650506020620001e289828a016200018e565b9550506040620001f589828a016200018e565b94505060606200020889828a016200018e565b93505060806200021b89828a016200018e565b92505060a06200022e89828a0162000177565b9150509295509295509295565b600062000248826200024f565b9050919050565b600073ffffffffffffffffffffffffffffffffffffffff82169050919050565b6000819050919050565b62000284816200023b565b81146200029057600080fd5b50565b6200029e816200026f565b8114620002aa57600080fd5b50565b6126cf80620002bd6000396000f3fe6080604052600436106101095760003560e01c806335c1d34911610095578063a19eb3c611610064578063a19eb3c614610357578063c3b7a80f14610382578063d0e30db014610399578063d235407b146103c4578063f84b903e1461040757610109565b806335c1d3491461028757806338743904146102c45780635a067baa146102ef5780639799b4e71461031a57610109565b80632185ce83116100dc5780632185ce83146101ba57806323bd4d7a146101ea57806324924bf71461021557806324fd7918146102405780632afcf4801461026b57610109565b8063072ea61c1461010e5780630fb5a6b41461013957806312fa6feb146101645780631f2698ab1461018f575b600080fd5b34801561011a57600080fd5b50610123610432565b6040516101309190612159565b60405180910390f35b34801561014557600080fd5b5061014e610438565b60405161015b9190612159565b60405180910390f35b34801561017057600080fd5b5061017961043e565b6040516101869190611f8d565b60405180910390f35b34801561019b57600080fd5b506101a4610451565b6040516101b19190611f8d565b60405180910390f35b6101d460048036038101906101cf919061183f565b610464565b6040516101e19190612159565b60405180910390f35b3480156101f657600080fd5b506101ff6105d3565b60405161020c9190611f2e565b60405180910390f35b34801561022157600080fd5b5061022a6105f7565b6040516102379190612159565b60405180910390f35b34801561024c57600080fd5b506102556105fd565b6040516102629190611f6b565b60405180910390f35b61028560048036038101906102809190611902565b610a9a565b005b34801561029357600080fd5b506102ae60048036038101906102a99190611902565b610bf8565b6040516102bb9190611f2e565b60405180910390f35b3480156102d057600080fd5b506102d9610c37565b6040516102e69190611f2e565b60405180910390f35b3480156102fb57600080fd5b50610304610c5d565b6040516103119190612159565b60405180910390f35b34801561032657600080fd5b50610341600480360381019061033c9190611902565b610c63565b60405161034e9190612159565b60405180910390f35b34801561036357600080fd5b5061036c610c87565b6040516103799190611f2e565b60405180910390f35b34801561038e57600080fd5b50610397610cad565b005b3480156103a557600080fd5b506103ae610d58565b6040516103bb9190612159565b60405180910390f35b3480156103d057600080fd5b506103eb60048036038101906103e69190611902565b610d5e565b6040516103fe9796959493929190611fa8565b60405180910390f35b34801561041357600080fd5b5061041c61108d565b6040516104299190611f8d565b60405180910390f35b60025481565b60055481565b600960019054906101000a900460ff1681565b600960009054906101000a900460ff1681565b60006002543410156104ab576040517f08c379a00000000000000000000000000000000000000000000000000000000081526004016104a29061211e565b60405180910390fd5b600354600754106104f1576040517f08c379a00000000000000000000000000000000000000000000000000000000081526004016104e8906120be565b60405180910390fd5b6000600b60006007600081548092919061050a90612555565b919050558152602001908152602001600020905085816000019080519060200190610536929190611343565b508481600101908051906020019061054f929190611343565b5083816002019080519060200190610568929190611343565b50338160030160006101000a81548173ffffffffffffffffffffffffffffffffffffffff021916908373ffffffffffffffffffffffffffffffffffffffff160217905550828160040190805190602001906105c49291906113c9565b50600754915050949350505050565b60008054906101000a900473ffffffffffffffffffffffffffffffffffffffff1681565b60035481565b606060008054906101000a900473ffffffffffffffffffffffffffffffffffffffff1673ffffffffffffffffffffffffffffffffffffffff163373ffffffffffffffffffffffffffffffffffffffff161461068d576040517f08c379a0000000000000000000000000000000000000000000000000000000008152600401610684906120de565b60405180910390fd5b6001600960016101000a81548160ff021916908315150217905550600460009054906101000a900473ffffffffffffffffffffffffffffffffffffffff1673ffffffffffffffffffffffffffffffffffffffff166108fc6006549081150290604051600060405180830381858888f19350505050158015610712573d6000803e3d6000fd5b5061071b6110a0565b600a9080519060200190610730929190611427565b506000600a80548060200260200160405190810160405280929190818152602001828054801561077f57602002820191906000526020600020905b81548152602001906001019080831161076b575b505050505073__MyMathlib_____________________________630194db8e90916040518263ffffffff1660e01b81526004016107bc9190611f49565b60206040518083038186803b1580156107d457600080fd5b505af41580156107e8573d6000803e3d6000fd5b505050506040513d601f19601f8201168201806040525081019061080c919061192b565b905060006007548261081e919061240e565b905060005b600754811015610a41576000600160009054906101000a900473ffffffffffffffffffffffffffffffffffffffff16905060008173ffffffffffffffffffffffffffffffffffffffff1663e623cc9f600b600086815260200190815260200160002060030160009054906101000a900473ffffffffffffffffffffffffffffffffffffffff166040518263ffffffff1660e01b81526004016108c59190611f2e565b60206040518083038186803b1580156108dd57600080fd5b505afa1580156108f1573d6000803e3d6000fd5b505050506040513d601f19601f820116820180604052508101906109159190611816565b905060008190508073ffffffffffffffffffffffffffffffffffffffff1663fbf7de84600b6000878152602001908152602001600020600001600b6000888152602001908152602001600020600101600b6000898152602001908152602001600020600201600b60008a8152602001908152602001600020600401600a8a815481106109ca577f4e487b7100000000000000000000000000000000000000000000000000000000600052603260045260246000fd5b90600052602060002001548b306040518863ffffffff1660e01b81526004016109f99796959493929190612033565b600060405180830381600087803b158015610a1357600080fd5b505af1158015610a27573d6000803e3d6000fd5b505050505050508080610a3990612555565b915050610823565b50600a805480602002602001604051908101604052809291908181526020018280548015610a8e57602002820191906000526020600020905b815481526020019060010190808311610a7a575b50505050509250505090565b6000600b6000838152602001908152602001600020905060008160050160003373ffffffffffffffffffffffffffffffffffffffff1673ffffffffffffffffffffffffffffffffffffffff168152602001908152602001600020541415610b615780600601339080600181540180825580915050600190039060005260206000200160009091909190916101000a81548173ffffffffffffffffffffffffffffffffffffffff021916908373ffffffffffffffffffffffffffffffffffffffff1602179055505b64e8d4a5100034610b72919061240e565b816007016000828254610b8591906123b8565b9250508190555064e8d4a5100034610b9d919061240e565b8160050160003373ffffffffffffffffffffffffffffffffffffffff1673ffffffffffffffffffffffffffffffffffffffff1681526020019081526020016000206000828254610bed91906123b8565b925050819055505050565b60088181548110610c0857600080fd5b906000526020600020016000915054906101000a900473ffffffffffffffffffffffffffffffffffffffff1681565b600460009054906101000a900473ffffffffffffffffffffffffffffffffffffffff1681565b60075481565b600a8181548110610c7357600080fd5b906000526020600020016000915090505481565b600160009054906101000a900473ffffffffffffffffffffffffffffffffffffffff1681565b60008054906101000a900473ffffffffffffffffffffffffffffffffffffffff1673ffffffffffffffffffffffffffffffffffffffff163373ffffffffffffffffffffffffffffffffffffffff1614610d3b576040517f08c379a0000000000000000000000000000000000000000000000000000000008152600401610d32906120de565b60405180910390fd5b6001600960006101000a81548160ff021916908315150217905550565b60065481565b6060806060600060606000806000600b60008a815260200190815260200160002090508060000181600101826002018360030160009054906101000a900473ffffffffffffffffffffffffffffffffffffffff168460040185600601805490508660070154868054610dcf90612523565b80601f0160208091040260200160405190810160405280929190818152602001828054610dfb90612523565b8015610e485780601f10610e1d57610100808354040283529160200191610e48565b820191906000526020600020905b815481529060010190602001808311610e2b57829003601f168201915b50505050509650858054610e5b90612523565b80601f0160208091040260200160405190810160405280929190818152602001828054610e8790612523565b8015610ed45780601f10610ea957610100808354040283529160200191610ed4565b820191906000526020600020905b815481529060010190602001808311610eb757829003601f168201915b50505050509550848054610ee790612523565b80601f0160208091040260200160405190810160405280929190818152602001828054610f1390612523565b8015610f605780601f10610f3557610100808354040283529160200191610f60565b820191906000526020600020905b815481529060010190602001808311610f4357829003601f168201915b5050505050945082805480602002602001604051908101604052809291908181526020016000905b8282101561106d5783829060005260206000209060140201601480602002604051908101604052809291906000905b8282101561105a578382018054610fcd90612523565b80601f0160208091040260200160405190810160405280929190818152602001828054610ff990612523565b80156110465780601f1061101b57610100808354040283529160200191611046565b820191906000526020600020905b81548152906001019060200180831161102957829003601f168201915b505050505081526020019060010190610fb7565b5050505081526020019060010190610f88565b505050509250975097509750975097509750975050919395979092949650565b600960029054906101000a900460ff1681565b60606001600960016101000a81548160ff02191690831515021790556110fb576040517f08c379a00000000000000000000000000000000000000000000000000000000081526004016110f2906120fe565b60405180910390fd5b606080600a9080519060200190611113929190611427565b5060005b6007548110156112eb57600080600b6000848152602001908152602001600020905060005b81600601805490508110156112a1576000826006018281548110611189577f4e487b7100000000000000000000000000000000000000000000000000000000600052603260045260246000fd5b9060005260206000200160009054906101000a900473ffffffffffffffffffffffffffffffffffffffff1690508260050160008273ffffffffffffffffffffffffffffffffffffffff1673ffffffffffffffffffffffffffffffffffffffff1681526020019081526020016000205473__MyMathlib_____________________________63677342ce90916040518263ffffffff1660e01b8152600401611230919061213e565b60206040518083038186803b15801561124857600080fd5b505af415801561125c573d6000803e3d6000fd5b505050506040513d601f19601f82011682018060405250810190611280919061192b565b8461128b91906123b8565b935050808061129990612555565b91505061113c565b50600a82836112b0919061243f565b9080600181540180825580915050600190039060005260206000200160009091909190915055505080806112e390612555565b915050611117565b50600a80548060200260200160405190810160405280929190818152602001828054801561133857602002820191906000526020600020905b815481526020019060010190808311611324575b505050505091505090565b82805461134f90612523565b90600052602060002090601f01602090048101928261137157600085556113b8565b82601f1061138a57805160ff19168380011785556113b8565b828001600101855582156113b8579182015b828111156113b757825182559160200191906001019061139c565b5b5090506113c59190611474565b5090565b828054828255906000526020600020906014028101928215611416579160200282015b8281111561141557825182906014611405929190611491565b50916020019190601401906113ec565b5b50905061142391906114e4565b5090565b828054828255906000526020600020908101928215611463579160200282015b82811115611462578251825591602001919060010190611447565b5b5090506114709190611474565b5090565b5b8082111561148d576000816000905550600101611475565b5090565b82601481019282156114d3579160200282015b828111156114d25782518290805190602001906114c2929190611508565b50916020019190600101906114a4565b5b5090506114e0919061158e565b5090565b5b8082111561150457600081816114fb91906115b2565b506014016114e5565b5090565b82805461151490612523565b90600052602060002090601f016020900481019282611536576000855561157d565b82601f1061154f57805160ff191683800117855561157d565b8280016001018555821561157d579182015b8281111561157c578251825591602001919060010190611561565b5b50905061158a9190611474565b5090565b5b808211156115ae57600081816115a591906115c5565b5060010161158f565b5090565b5080601401906115c2919061158e565b50565b5080546115d190612523565b6000825580601f106115e35750611602565b601f0160209004906000526020600020908101906116019190611474565b5b50565b6000611618611613846121a5565b612174565b9050808382526020820190508260005b85811015611658578135850161163e8882611771565b845260208401935060208301925050600181019050611628565b5050509392505050565b6000611675611670846121d1565b612174565b9050808260005b858110156116ac57813585016116928882611798565b84526020840193506020830192505060018101905061167c565b5050509392505050565b60006116c96116c4846121f7565b612174565b9050828152602081018484840111156116e157600080fd5b6116ec8482856124e1565b509392505050565b600061170761170284612227565b612174565b90508281526020810184848401111561171f57600080fd5b61172a8482856124e1565b509392505050565b6000815190506117418161266b565b92915050565b600082601f83011261175857600080fd5b8135611768848260208601611605565b91505092915050565b600082601f83011261178257600080fd5b601461178f848285611662565b91505092915050565b600082601f8301126117a957600080fd5b81356117b98482602086016116b6565b91505092915050565b600082601f8301126117d357600080fd5b81356117e38482602086016116f4565b91505092915050565b6000813590506117fb81612682565b92915050565b60008151905061181081612682565b92915050565b60006020828403121561182857600080fd5b600061183684828501611732565b91505092915050565b6000806000806080858703121561185557600080fd5b600085013567ffffffffffffffff81111561186f57600080fd5b61187b878288016117c2565b945050602085013567ffffffffffffffff81111561189857600080fd5b6118a4878288016117c2565b935050604085013567ffffffffffffffff8111156118c157600080fd5b6118cd878288016117c2565b925050606085013567ffffffffffffffff8111156118ea57600080fd5b6118f687828801611747565b91505092959194509250565b60006020828403121561191457600080fd5b6000611922848285016117ec565b91505092915050565b60006020828403121561193d57600080fd5b600061194b84828501611801565b91505092915050565b60006119608383611acc565b905092915050565b60006119748383611b41565b905092915050565b60006119888383611c80565b905092915050565b600061199c8383611cb9565b905092915050565b60006119b08383611ef2565b60208301905092915050565b60006119c88383611f1f565b60208301905092915050565b6119dd81612499565b82525050565b60006119ee826122ca565b6119f88185612358565b935083602082028501611a0a85612257565b8060005b85811015611a465784840389528151611a278582611954565b9450611a3283612317565b925060208a01995050600181019050611a0e565b50829750879550505050505092915050565b6000611a63826122d5565b611a6d8185612358565b935083602082028501611a7f85612267565b8060005b85811015611aba57848403895281611a9b8582611968565b9450611aa683612324565b925060208a01995050600181019050611a83565b50829750879550505050505092915050565b6000611ad7826122e0565b611ae18185612369565b935083602082028501611af38561227c565b8060005b85811015611b2f5784840389528151611b10858261197c565b9450611b1b83612331565b925060208a01995050600181019050611af7565b50829750879550505050505092915050565b6000611b4c826122eb565b611b568185612369565b935083602082028501611b6885612286565b8060005b85811015611ba357848403895281611b848582611990565b9450611b8f8361233e565b925060208a01995050600181019050611b6c565b50829750879550505050505092915050565b6000611bc0826122f6565b611bca8185612374565b9350611bd583612290565b8060005b83811015611c06578151611bed88826119a4565b9750611bf88361234b565b925050600181019050611bd9565b5085935050505092915050565b6000611c1e826122f6565b611c288185612385565b9350611c3383612290565b8060005b83811015611c64578151611c4b88826119bc565b9750611c568361234b565b925050600181019050611c37565b5085935050505092915050565b611c7a816124ab565b82525050565b6000611c8b82612301565b611c958185612396565b9350611ca58185602086016124f0565b611cae8161265a565b840191505092915050565b60008154611cc681612523565b611cd08186612396565b94506001821660008114611ceb5760018114611cfd57611d30565b60ff1983168652602086019350611d30565b611d06856122a0565b60005b83811015611d2857815481890152600182019150602081019050611d09565b808801955050505b50505092915050565b6000611d448261230c565b611d4e81856123a7565b9350611d5e8185602086016124f0565b611d678161265a565b840191505092915050565b60008154611d7f81612523565b611d8981866123a7565b94506001821660008114611da45760018114611db657611de9565b60ff1983168652602086019350611de9565b611dbf856122b5565b60005b83811015611de157815481890152600182019150602081019050611dc2565b808801955050505b50505092915050565b6000611dff6015836123a7565b91507f4d6178696d756d206c696d6974207265616368656400000000000000000000006000830152602082019050919050565b6000611e3f6008836123a7565b91507f6f6e6c79206f72670000000000000000000000000000000000000000000000006000830152602082019050919050565b6000611e7f6016836123a7565b91507f7468652067616d6520686173206e6f7420656e646564000000000000000000006000830152602082019050919050565b6000611ebf6016836123a7565b91507f496e73756666696369656e7420656e74727920666565000000000000000000006000830152602082019050919050565b611efb816124d7565b82525050565b611f0a816124d7565b82525050565b611f19816124d7565b82525050565b611f28816124d7565b82525050565b6000602082019050611f4360008301846119d4565b92915050565b60006020820190508181036000830152611f638184611c13565b905092915050565b60006020820190508181036000830152611f858184611bb5565b905092915050565b6000602082019050611fa26000830184611c71565b92915050565b600060e0820190508181036000830152611fc2818a611d39565b90508181036020830152611fd68189611d39565b90508181036040830152611fea8188611d39565b9050611ff960608301876119d4565b818103608083015261200b81866119e3565b905061201a60a0830185611f01565b61202760c0830184611f01565b98975050505050505050565b600060e082019050818103600083015261204d818a611d72565b905081810360208301526120618189611d72565b905081810360408301526120758188611d72565b905081810360608301526120898187611a58565b90506120986080830186611f01565b6120a560a0830185611f01565b6120b260c08301846119d4565b98975050505050505050565b600060208201905081810360008301526120d781611df2565b9050919050565b600060208201905081810360008301526120f781611e32565b9050919050565b6000602082019050818103600083015261211781611e72565b9050919050565b6000602082019050818103600083015261213781611eb2565b9050919050565b60006020820190506121536000830184611f10565b92915050565b600060208201905061216e6000830184611f01565b92915050565b6000604051905081810181811067ffffffffffffffff8211171561219b5761219a61262b565b5b8060405250919050565b600067ffffffffffffffff8211156121c0576121bf61262b565b5b602082029050602081019050919050565b600067ffffffffffffffff8211156121ec576121eb61262b565b5b602082029050919050565b600067ffffffffffffffff8211156122125761221161262b565b5b601f19601f8301169050602081019050919050565b600067ffffffffffffffff8211156122425761224161262b565b5b601f19601f8301169050602081019050919050565b6000819050602082019050919050565b60008190508160005260206000209050919050565b6000819050919050565b6000819050919050565b6000819050602082019050919050565b60008190508160005260206000209050919050565b60008190508160005260206000209050919050565b600081519050919050565b600081549050919050565b600060149050919050565b600060149050919050565b600081519050919050565b600081519050919050565b600081519050919050565b6000602082019050919050565b6000601482019050919050565b6000602082019050919050565b6000600182019050919050565b6000602082019050919050565b600082825260208201905092915050565b600081905092915050565b600082825260208201905092915050565b600082825260208201905092915050565b600082825260208201905092915050565b600082825260208201905092915050565b60006123c3826124d7565b91506123ce836124d7565b9250827fffffffffffffffffffffffffffffffffffffffffffffffffffffffffffffffff038211156124035761240261259e565b5b828201905092915050565b6000612419826124d7565b9150612424836124d7565b925082612434576124336125cd565b5b828204905092915050565b600061244a826124d7565b9150612455836124d7565b9250817fffffffffffffffffffffffffffffffffffffffffffffffffffffffffffffffff048311821515161561248e5761248d61259e565b5b828202905092915050565b60006124a4826124b7565b9050919050565b60008115159050919050565b600073ffffffffffffffffffffffffffffffffffffffff82169050919050565b6000819050919050565b82818337600083830152505050565b60005b8381101561250e5780820151818401526020810190506124f3565b8381111561251d576000848401525b50505050565b6000600282049050600182168061253b57607f821691505b6020821081141561254f5761254e6125fc565b5b50919050565b6000612560826124d7565b91507fffffffffffffffffffffffffffffffffffffffffffffffffffffffffffffffff8214156125935761259261259e565b5b600182019050919050565b7f4e487b7100000000000000000000000000000000000000000000000000000000600052601160045260246000fd5b7f4e487b7100000000000000000000000000000000000000000000000000000000600052601260045260246000fd5b7f4e487b7100000000000000000000000000000000000000000000000000000000600052602260045260246000fd5b7f4e487b7100000000000000000000000000000000000000000000000000000000600052604160045260246000fd5b6000601f19601f8301169050919050565b61267481612499565b811461267f57600080fd5b50565b61268b816124d7565b811461269657600080fd5b5056fea26469706673582212204f4e78dd083b3cb9592b6229621e3b1e7e24acbbba22df8f1956fb060019359864736f6c63430008000033a264697066735822122064757c9e84f6e9f78c87d7b5ee44fa0b072a80bd175c41abf03ec40d08fc896664736f6c63430008000033",
  "immutableReferences": {},
  "source": "// SPDX-License-Identifier: MIT\r\npragma solidity >=0.8.0;\r\n\r\nimport \"@openzeppelin/contracts/token/ERC721/extensions/ERC721URIStorage.sol\"; \r\nimport \"@openzeppelin/contracts/access/Ownable.sol\";\r\nimport \"@openzeppelin/contracts/utils/Counters.sol\";\r\n\r\n\r\nlibrary MyMathlib{\r\n    function sqrt(uint num) public pure returns(uint){\r\n        uint start = 1;\r\n        uint end = num;\r\n        uint mid = start;\r\n        while(start < end){\r\n            mid = start + (end - start)/2;\r\n            if(mid * mid >= num){\r\n                end = mid;\r\n            }else{\r\n                start = mid+1;\r\n            }\r\n        }\r\n        return end;\r\n    }\r\n\r\n    function sum(uint[] memory arr) public pure returns (uint){\r\n        uint buf = 0;\r\n        for(uint i=0; i<arr.length; i++){\r\n            buf += arr[i];\r\n        }\r\n        return buf;\r\n    }\r\n}\r\n\r\n\r\ncontract Knitts{\r\n    address public organization = 0x79e6234Ff4E7DB556F916FeBcE9e52a68D0B8879;\r\n    address[] public Leagues;\r\n    uint public numLeagues=0;\r\n  \tmapping(address => address) public idToUser; \r\n\r\n    function createLeague(uint _entryFee, uint _numPlayers, uint _duration) public payable returns (address[] memory){\r\n        League newLeague = new League(msg.sender, msg.value, _entryFee, _numPlayers, _duration, address(this));\r\n        numLeagues += 1;\r\n        Leagues.push(address(newLeague));\r\n        return Leagues;\r\n    }\r\n\r\n\r\n    function register(address id, address userContract) public {\r\n        idToUser[id] = userContract;\r\n    }\r\n}\r\n\r\ncontract League{\r\n    using  MyMathlib for *;\r\n\r\n    //constant variables\r\n    address public organization;\r\n    address public knittsAddress;\r\n\r\n    //parameters\r\n    uint public entryFee;\r\n    uint public maxParticipants;\r\n    address public moderator;\r\n    uint public duration;\r\n    uint public deposit;\r\n\r\n    //contract variables\r\n    uint public numProjects=0;\r\n    address [] public participants;\r\n    bool public started=false;\r\n    bool public ended=false;\r\n    bool public distributed=false;\r\n    uint [] public points;\r\n    \r\n\r\n    struct project{\r\n\r\n        //parameters\r\n        string title;\r\n        string url;\r\n        string image;\r\n        address owner;\r\n        bytes[20][] description;\r\n\r\n        //variables\r\n        mapping(address => uint)investments;\r\n        address[] investors;\r\n        uint total_fund;\r\n    }\r\n\t\t\r\n    mapping(uint => project) projects;\r\n\r\n    constructor(address _moderator, uint _deposit, uint _entryFee, uint _maxParticipants, uint _duration, address _knittsAddress){\r\n        entryFee = _entryFee;\r\n        maxParticipants = _maxParticipants;\r\n        moderator = _moderator;\r\n        duration = _duration;\r\n        organization = _moderator; // for local testing\r\n        knittsAddress = _knittsAddress;\r\n        deposit = _deposit;\r\n    }\r\n\r\n    function submitIdea(string memory title, string memory url, string memory image, bytes[20][] memory description) external payable returns(uint){\r\n        require(msg.value >= entryFee, \"Insufficient entry fee\");\r\n        require(numProjects < maxParticipants, \"Maximum limit reached\");\r\n        project storage p = projects[numProjects++];\r\n        p.title = title;\r\n        p.url = url;\r\n        p.image = image;\r\n        p.owner = msg.sender;\r\n        p.description = description;\r\n        return numProjects;\r\n    }\r\n\r\n    function invest(uint projectId) external payable{\r\n        project storage p = projects[projectId];\r\n        if(p.investments[msg.sender] == 0){\r\n            p.investors.push(msg.sender);\r\n        }\r\n        p.total_fund += msg.value/1e12;\r\n        p.investments[msg.sender] += msg.value/1e12;\r\n        \r\n    }\r\n\r\n    function startLeague() external {\r\n        require(msg.sender == organization, \"only org\");\r\n        started=true;\r\n    }\r\n\r\n    function endLeague() external returns(uint[] memory){\r\n        require(msg.sender == organization, \"only org\");\r\n        ended=true;\r\n        payable(moderator).transfer(deposit);\r\n        points = getPoints();\r\n        // getPoints();\r\n      \tuint total_points = points.sum();\r\n        uint averagePoints = total_points / numProjects;\r\n      \r\n      \tfor(uint i=0;i<numProjects; i++) {\r\n            Knitts _knitts = Knitts(knittsAddress);\r\n            address _userId = _knitts.idToUser(projects[i].owner);\r\n            User _user = User(_userId);\r\n            _user.addProject(projects[i].title, projects[i].url, projects[i].image, projects[i].description, points[i] , averagePoints, address(this) );\r\n        } \r\n        // distribute(total_points);\r\n        return points;\r\n    }\r\n\r\n\r\n    function submissionDetails(uint projectId) external view returns(\r\n        string memory,\r\n        string memory,\r\n        string memory,\r\n        address, \r\n        bytes[20][] memory,\r\n        uint,\r\n        uint\r\n    )  {\r\n        project storage p  = projects[projectId];\r\n        return (p.title, p.url, p.image, p.owner, p.description,p.investors.length,p.total_fund);\r\n    }\r\n\r\n\r\n    function getPoints() internal returns(uint[] memory){\r\n        require(ended = true, \"the game has not ended\");\r\n        uint [] memory empty_points;\r\n        points = empty_points;\r\n        for(uint i=0; i < numProjects; i++){\r\n            uint buf = 0;\r\n            project storage p = projects[i];\r\n            for(uint j=0; j< p.investors.length; j++){\r\n                address inv = p.investors[j];\r\n                buf += (p.investments[inv]).sqrt();\r\n            }\r\n            points.push(buf * buf);\r\n        }\r\n        return points;\r\n    }\r\n\r\n    function distribute(uint total_points) internal {\r\n        require(msg.sender == organization, \"only organization\");\r\n        uint total_balance = address(this).balance;\r\n        \r\n        for(uint i=0; i<numProjects; i++){\r\n            project storage p  =  projects[i];\r\n            \r\n            payable(p.owner).transfer( (3*points[i]*total_balance)/(10*total_points) );\r\n\r\n            for(uint j=0; j<p.investors.length; j++){\r\n                address investor = p.investors[j];\r\n                Knitts _knitts = Knitts(knittsAddress);\r\n                address _userId = _knitts.idToUser(p.investors[j]);\r\n                User _user = User(_userId);\r\n                _user.split{value:(6 * points[i] * total_balance * p.investments[investor]) / (10 * total_points * p.total_fund)}();\r\n            }\r\n        }\r\n\r\n        payable(moderator).transfer(address(this).balance);\r\n\r\n    }\r\n\r\n    \r\n}\r\n\r\n\r\ncontract User {\r\n\r\n    //parameters\r\n    string public name;\r\n  \taddress public id; //metamask address of corresponding user\r\n\r\n    //contract variables\r\n  \tuint public numProjects=0;\r\n    address[] public NFTs_created;\r\n    uint public pending_nfts = 0;\r\n\r\n\r\n    constructor( address _id, string memory _name ) {\r\n        name = _name;\r\n        id = _id;\r\n    }\r\n\r\n    struct project{\r\n        string title;\r\n        string url;\r\n        string image;\r\n        bytes[20][] description;\r\n        uint point;\r\n        uint average_point;\r\n        address submittedOn;\r\n    }\r\n\r\n    project[20] public projects;\r\n    \r\n    function addProject(string memory _title, string memory _url, string memory _image, bytes[20][] memory _description, uint _point, uint _average_point, address _submittedOn) external {\r\n        projects[numProjects++] = project({title:_title, url:_url, image:_image, description:_description, point:_point, average_point:_average_point, submittedOn:_submittedOn});\r\n    }\r\n    \r\n\r\n    function createNFT(uint _bronze, uint price) external returns(address [] memory){\r\n        require(_bronze <= 10, \"You can create only 10 bronzes\");\r\n        require(pending_nfts == 0, \"There are pending nfts still\");\r\n        require(msg.sender == id, \"wrong user account\");\r\n\r\n        for(uint i=0; i<_bronze; i++){\r\n            NFT new_nft = new NFT(id, \"Bronze\", \"B\", id, 'https://s3.envato.com/files/235568921/preview.jpg', 1, price);\r\n            NFTs_created.push(address(new_nft));\r\n        }\r\n\r\n        pending_nfts = _bronze;\r\n        return NFTs_created;\r\n    }\r\n\r\n    function split() external payable {\r\n        uint value = (msg.value * 95) / 100;\r\n        if(pending_nfts > 0){\r\n            for(uint i=0; i<NFTs_created.length; i++){\r\n                NFT nft = NFT(NFTs_created[i]);\r\n                payable(nft.ownerOf(1)).transfer((value)/10);\r\n            }\r\n            scratchNFTs();\r\n        }\r\n        \r\n        payable(id).transfer(address(this).balance);\r\n    }\r\n\r\n    function scratchNFTs() internal returns(uint){\r\n        uint rem = 0;\r\n        for(uint i=0; i<NFTs_created.length; i++){\r\n            NFT new_nft =  NFT(NFTs_created[i]);\r\n            rem = new_nft.scratchCard();\r\n        }\r\n        if(rem == 0){\r\n            pending_nfts = 0;\r\n            address [] memory temp;\r\n            NFTs_created = temp;\r\n        }\r\n        return rem;\r\n    }\r\n  \r\n}\r\n\r\ncontract NFT is ERC721URIStorage, Ownable{\r\n    using Counters for Counters.Counter;\r\n    Counters.Counter private _tokenIds;\r\n    address public nft_creator;\r\n    uint public leaguesMore;\r\n    uint public price;\r\n    uint public newItemId;\r\n    constructor(address _creator, string memory _name, string memory _symbol, address _player, string memory _tokenURI, uint _leaguesMore, uint _price) ERC721(_name, _symbol){\r\n        nft_creator = _creator;\r\n        leaguesMore = _leaguesMore;\r\n        _tokenIds.increment();\r\n        newItemId = _tokenIds.current();\r\n        _mint(_player, newItemId);\r\n        _setTokenURI(newItemId, _tokenURI);\r\n        _approve(address(this), newItemId);\r\n        price = _price;\r\n    }\r\n\r\n    function scratchCard() public returns (uint){\r\n        require(leaguesMore > 0, \"expired\");\r\n        leaguesMore -= 1;\r\n        if(leaguesMore == 0){\r\n            _burn(1);\r\n        }\r\n        return leaguesMore;\r\n    }\r\n\r\n    function updatePrice(uint _price) external onlyOwner {\r\n        price = _price;\r\n    }\r\n\r\n    function buy() external payable {\r\n        require(msg.value >= price, \"costs more\");\r\n        address old_owner = ownerOf(newItemId);\r\n        _transfer(old_owner, address(this), newItemId);\r\n        _approve(msg.sender, newItemId);\r\n        payable(old_owner).transfer(address(this).balance);\r\n    } \r\n\r\n}\r\n\r\n",
  "sourcePath": "D:/blockchain/back-end/contracts/League.sol",
  "compiler": {
    "name": "solc",
    "version": "0.8.0+commit.c7dfd78e.Emscripten.clang"
  },
  "schemaVersion": "3.3.4",
  "updatedAt": "2021-10-09T20:15:58.495Z",
  "networkType": "ethereum",
  "devdoc": {
    "kind": "dev",
    "methods": {},
    "version": 1
  },
  "userdoc": {
    "kind": "user",
    "methods": {},
    "version": 1
  }
}