{
  "contractName": "Knitts",
  "abi": [
    {
      "inputs": [
        {
          "internalType": "uint256",
          "name": "",
          "type": "uint256"
        }
      ],
      "name": "Leagues",
      "outputs": [
        {
          "internalType": "address",
          "name": "",
          "type": "address"
        }
      ],
      "stateMutability": "view",
      "type": "function"
    },
    {
      "inputs": [
        {
          "internalType": "address",
          "name": "",
          "type": "address"
        }
      ],
      "name": "idToUser",
      "outputs": [
        {
          "internalType": "address",
          "name": "",
          "type": "address"
        }
      ],
      "stateMutability": "view",
      "type": "function"
    },
    {
      "inputs": [],
      "name": "numLeagues",
      "outputs": [
        {
          "internalType": "uint256",
          "name": "",
          "type": "uint256"
        }
      ],
      "stateMutability": "view",
      "type": "function"
    },
    {
      "inputs": [],
      "name": "organization",
      "outputs": [
        {
          "internalType": "address",
          "name": "",
          "type": "address"
        }
      ],
      "stateMutability": "view",
      "type": "function"
    },
    {
      "inputs": [
        {
          "internalType": "uint256",
          "name": "_entryFee",
          "type": "uint256"
        },
        {
          "internalType": "uint256",
          "name": "_numPlayers",
          "type": "uint256"
        },
        {
          "internalType": "uint256",
          "name": "_duration",
          "type": "uint256"
        }
      ],
      "name": "createLeague",
      "outputs": [
        {
          "internalType": "address[]",
          "name": "",
          "type": "address[]"
        }
      ],
      "stateMutability": "payable",
      "type": "function"
    },
    {
      "inputs": [
        {
          "internalType": "address",
          "name": "id",
          "type": "address"
        },
        {
          "internalType": "address",
          "name": "userContract",
          "type": "address"
        }
      ],
      "name": "register",
      "outputs": [],
      "stateMutability": "nonpayable",
      "type": "function"
    }
  ],
  "bytecode": "0x60806040527379e6234ff4e7db556f916febce9e52a68d0b88796000806101000a81548173ffffffffffffffffffffffffffffffffffffffff021916908373ffffffffffffffffffffffffffffffffffffffff160217905550600060025534801561006957600080fd5b50613932806100796000396000f3fe6080604052600436106200005c5760003560e01c806319fe7a83146200006157806323bd4d7a14620000a5578063aa67735414620000d5578063e075634b1462000103578063e623cc9f1462000133578063e9ff6f5c1462000177575b600080fd5b3480156200006e57600080fd5b506200008d600480360381019062000087919062000522565b620001ad565b6040516200009c91906200069d565b60405180910390f35b348015620000b257600080fd5b50620000bd620001ed565b604051620000cc91906200069d565b60405180910390f35b348015620000e257600080fd5b50620001016004803603810190620000fb9190620004e1565b62000211565b005b3480156200011057600080fd5b506200011b62000293565b6040516200012a91906200076d565b60405180910390f35b3480156200014057600080fd5b506200015f6004803603810190620001599190620004b5565b62000299565b6040516200016e91906200069d565b60405180910390f35b6200019560048036038101906200018f91906200054e565b620002cc565b604051620001a4919062000727565b60405180910390f35b60018181548110620001be57600080fd5b906000526020600020016000915054906101000a900473ffffffffffffffffffffffffffffffffffffffff1681565b60008054906101000a900473ffffffffffffffffffffffffffffffffffffffff1681565b80600360008473ffffffffffffffffffffffffffffffffffffffff1673ffffffffffffffffffffffffffffffffffffffff16815260200190815260200160002060006101000a81548173ffffffffffffffffffffffffffffffffffffffff021916908373ffffffffffffffffffffffffffffffffffffffff1602179055505050565b60025481565b60036020528060005260406000206000915054906101000a900473ffffffffffffffffffffffffffffffffffffffff1681565b60608284620002dc919062000831565b341162000320576040517f08c379a000000000000000000000000000000000000000000000000000000000815260040162000317906200074b565b60405180910390fd5b6000333486868630604051620003369062000479565b6200034796959493929190620006ba565b604051809103906000f08015801562000364573d6000803e3d6000fd5b5090506001600260008282546200037c9190620007d4565b925050819055506001819080600181540180825580915050600190039060005260206000200160009091909190916101000a81548173ffffffffffffffffffffffffffffffffffffffff021916908373ffffffffffffffffffffffffffffffffffffffff16021790555060018054806020026020016040519081016040528092919081815260200182805480156200046a57602002820191906000526020600020905b8160009054906101000a900473ffffffffffffffffffffffffffffffffffffffff1673ffffffffffffffffffffffffffffffffffffffff16815260200190600101908083116200041f575b50505050509150509392505050565b612fc9806200093483390190565b6000813590506200049881620008ff565b92915050565b600081359050620004af8162000919565b92915050565b600060208284031215620004c857600080fd5b6000620004d88482850162000487565b91505092915050565b60008060408385031215620004f557600080fd5b6000620005058582860162000487565b9250506020620005188582860162000487565b9150509250929050565b6000602082840312156200053557600080fd5b600062000545848285016200049e565b91505092915050565b6000806000606084860312156200056457600080fd5b600062000574868287016200049e565b935050602062000587868287016200049e565b92505060406200059a868287016200049e565b9150509250925092565b6000620005b28383620005be565b60208301905092915050565b620005c98162000892565b82525050565b620005da8162000892565b82525050565b6000620005ed826200079a565b620005f98185620007b2565b935062000606836200078a565b8060005b838110156200063d578151620006218882620005a4565b97506200062e83620007a5565b9250506001810190506200060a565b5085935050505092915050565b600062000659601283620007c3565b91507f6e6f7420656e6f756768206465706f73697400000000000000000000000000006000830152602082019050919050565b6200069781620008c6565b82525050565b6000602082019050620006b46000830184620005cf565b92915050565b600060c082019050620006d16000830189620005cf565b620006e060208301886200068c565b620006ef60408301876200068c565b620006fe60608301866200068c565b6200070d60808301856200068c565b6200071c60a0830184620005cf565b979650505050505050565b60006020820190508181036000830152620007438184620005e0565b905092915050565b6000602082019050818103600083015262000766816200064a565b9050919050565b60006020820190506200078460008301846200068c565b92915050565b6000819050602082019050919050565b600081519050919050565b6000602082019050919050565b600082825260208201905092915050565b600082825260208201905092915050565b6000620007e182620008c6565b9150620007ee83620008c6565b9250827fffffffffffffffffffffffffffffffffffffffffffffffffffffffffffffffff03821115620008265762000825620008d0565b5b828201905092915050565b60006200083e82620008c6565b91506200084b83620008c6565b9250817fffffffffffffffffffffffffffffffffffffffffffffffffffffffffffffffff0483118215151615620008875762000886620008d0565b5b828202905092915050565b60006200089f82620008a6565b9050919050565b600073ffffffffffffffffffffffffffffffffffffffff82169050919050565b6000819050919050565b7f4e487b7100000000000000000000000000000000000000000000000000000000600052601160045260246000fd5b6200090a8162000892565b81146200091657600080fd5b50565b6200092481620008c6565b81146200093057600080fd5b5056fe608060405260006007556000600960006101000a81548160ff0219169083151502179055506000600960016101000a81548160ff0219169083151502179055506000600960026101000a81548160ff0219169083151502179055506000600b553480156200006c57600080fd5b5060405162002fc938038062002fc98339818101604052810190620000929190620001aa565b836002819055508260038190555085600460006101000a81548173ffffffffffffffffffffffffffffffffffffffff021916908373ffffffffffffffffffffffffffffffffffffffff16021790555081600581905550856000806101000a81548173ffffffffffffffffffffffffffffffffffffffff021916908373ffffffffffffffffffffffffffffffffffffffff16021790555080600160006101000a81548173ffffffffffffffffffffffffffffffffffffffff021916908373ffffffffffffffffffffffffffffffffffffffff16021790555084600681905550505050505050620002b2565b6000815190506200018d816200027e565b92915050565b600081519050620001a48162000298565b92915050565b60008060008060008060c08789031215620001c457600080fd5b6000620001d489828a016200017c565b9650506020620001e789828a0162000193565b9550506040620001fa89828a0162000193565b94505060606200020d89828a0162000193565b93505060806200022089828a0162000193565b92505060a06200023389828a016200017c565b9150509295509295509295565b60006200024d8262000254565b9050919050565b600073ffffffffffffffffffffffffffffffffffffffff82169050919050565b6000819050919050565b620002898162000240565b81146200029557600080fd5b50565b620002a38162000274565b8114620002af57600080fd5b50565b612d0780620002c26000396000f3fe60806040526004361061012a5760003560e01c806335c1d349116100ab5780639799b4e71161006f5780639799b4e7146103de578063a19eb3c61461041b578063c3b7a80f14610446578063d0e30db01461045d578063d235407b14610488578063f84b903e146104cb5761012a565b806335c1d349146102e557806338743904146103225780635a067baa1461034d578063677342ce1461037857806391c05b0b146103b55761012a565b80632185ce83116100f25780632185ce831461021857806323bd4d7a1461024857806324924bf71461027357806324fd79181461029e5780632afcf480146102c95761012a565b80630194db8e1461012f578063072ea61c1461016c5780630fb5a6b41461019757806312fa6feb146101c25780631f2698ab146101ed575b600080fd5b34801561013b57600080fd5b5061015660048036038101906101519190611e81565b6104f6565b6040516101639190612742565b60405180910390f35b34801561017857600080fd5b50610181610574565b60405161018e9190612742565b60405180910390f35b3480156101a357600080fd5b506101ac61057a565b6040516101b99190612742565b60405180910390f35b3480156101ce57600080fd5b506101d7610580565b6040516101e49190612571565b60405180910390f35b3480156101f957600080fd5b50610202610593565b60405161020f9190612571565b60405180910390f35b610232600480360381019061022d9190611ec2565b6105a6565b60405161023f9190612742565b60405180910390f35b34801561025457600080fd5b5061025d610715565b60405161026a9190612534565b60405180910390f35b34801561027f57600080fd5b50610288610739565b6040516102959190612742565b60405180910390f35b3480156102aa57600080fd5b506102b361073f565b6040516102c0919061254f565b60405180910390f35b6102e360048036038101906102de9190611f85565b610b6a565b005b3480156102f157600080fd5b5061030c60048036038101906103079190611f85565b610cc8565b6040516103199190612534565b60405180910390f35b34801561032e57600080fd5b50610337610d07565b6040516103449190612534565b60405180910390f35b34801561035957600080fd5b50610362610d2d565b60405161036f9190612742565b60405180910390f35b34801561038457600080fd5b5061039f600480360381019061039a9190611f85565b610d33565b6040516103ac9190612742565b60405180910390f35b3480156103c157600080fd5b506103dc60048036038101906103d79190611f85565b610dac565b005b3480156103ea57600080fd5b5061040560048036038101906104009190611f85565b6112a4565b6040516104129190612742565b60405180910390f35b34801561042757600080fd5b506104306112c8565b60405161043d9190612534565b60405180910390f35b34801561045257600080fd5b5061045b6112ee565b005b34801561046957600080fd5b50610472611399565b60405161047f9190612742565b60405180910390f35b34801561049457600080fd5b506104af60048036038101906104aa9190611f85565b61139f565b6040516104c2979695949392919061258c565b60405180910390f35b3480156104d757600080fd5b506104e06116ce565b6040516104ed9190612571565b60405180910390f35b6000806000905060005b835181101561056a57838181518110610542577f4e487b7100000000000000000000000000000000000000000000000000000000600052603260045260246000fd5b60200260200101518261055591906129bc565b9150808061056290612b8d565b915050610500565b5080915050919050565b60025481565b60055481565b600960019054906101000a900460ff1681565b600960009054906101000a900460ff1681565b60006002543410156105ed576040517f08c379a00000000000000000000000000000000000000000000000000000000081526004016105e490612722565b60405180910390fd5b60035460075410610633576040517f08c379a000000000000000000000000000000000000000000000000000000000815260040161062a906126c2565b60405180910390fd5b6000600c60006007600081548092919061064c90612b8d565b919050558152602001908152602001600020905085816000019080519060200190610678929190611904565b5084816001019080519060200190610691929190611904565b50838160020190805190602001906106aa929190611904565b50338160030160006101000a81548173ffffffffffffffffffffffffffffffffffffffff021916908373ffffffffffffffffffffffffffffffffffffffff1602179055508281600401908051906020019061070692919061198a565b50600754915050949350505050565b60008054906101000a900473ffffffffffffffffffffffffffffffffffffffff1681565b60035481565b606060008054906101000a900473ffffffffffffffffffffffffffffffffffffffff1673ffffffffffffffffffffffffffffffffffffffff163373ffffffffffffffffffffffffffffffffffffffff16146107cf576040517f08c379a00000000000000000000000000000000000000000000000000000000081526004016107c6906126e2565b60405180910390fd5b6001600960016101000a81548160ff021916908315150217905550600460009054906101000a900473ffffffffffffffffffffffffffffffffffffffff1673ffffffffffffffffffffffffffffffffffffffff166108fc6006549081150290604051600060405180830381858888f19350505050158015610854573d6000803e3d6000fd5b5061085d6116e1565b600a90805190602001906108729291906119e8565b506108cc600a8054806020026020016040519081016040528092919081815260200182805480156108c257602002820191906000526020600020905b8154815260200190600101908083116108ae575b50505050506104f6565b600b819055506000600754600b546108e49190612a12565b905060005b600754811015610b07576000600160009054906101000a900473ffffffffffffffffffffffffffffffffffffffff16905060008173ffffffffffffffffffffffffffffffffffffffff1663e623cc9f600c600086815260200190815260200160002060030160009054906101000a900473ffffffffffffffffffffffffffffffffffffffff166040518263ffffffff1660e01b815260040161098b9190612534565b60206040518083038186803b1580156109a357600080fd5b505afa1580156109b7573d6000803e3d6000fd5b505050506040513d601f19601f820116820180604052508101906109db9190611e58565b905060008190508073ffffffffffffffffffffffffffffffffffffffff1663fbf7de84600c6000878152602001908152602001600020600001600c6000888152602001908152602001600020600101600c6000898152602001908152602001600020600201600c60008a8152602001908152602001600020600401600a8a81548110610a90577f4e487b7100000000000000000000000000000000000000000000000000000000600052603260045260246000fd5b90600052602060002001548b306040518863ffffffff1660e01b8152600401610abf9796959493929190612617565b600060405180830381600087803b158015610ad957600080fd5b505af1158015610aed573d6000803e3d6000fd5b505050505050508080610aff90612b8d565b9150506108e9565b50610b13600b54610dac565b600a805480602002602001604051908101604052809291908181526020018280548015610b5f57602002820191906000526020600020905b815481526020019060010190808311610b4b575b505050505091505090565b6000600c6000838152602001908152602001600020905060008160050160003373ffffffffffffffffffffffffffffffffffffffff1673ffffffffffffffffffffffffffffffffffffffff168152602001908152602001600020541415610c315780600601339080600181540180825580915050600190039060005260206000200160009091909190916101000a81548173ffffffffffffffffffffffffffffffffffffffff021916908373ffffffffffffffffffffffffffffffffffffffff1602179055505b64e8d4a5100034610c429190612a12565b816007016000828254610c5591906129bc565b9250508190555064e8d4a5100034610c6d9190612a12565b8160050160003373ffffffffffffffffffffffffffffffffffffffff1673ffffffffffffffffffffffffffffffffffffffff1681526020019081526020016000206000828254610cbd91906129bc565b925050819055505050565b60088181548110610cd857600080fd5b906000526020600020016000915054906101000a900473ffffffffffffffffffffffffffffffffffffffff1681565b600460009054906101000a900473ffffffffffffffffffffffffffffffffffffffff1681565b60075481565b60008060019050600083905060008290505b81831015610da15760028383610d5b9190612a9d565b610d659190612a12565b83610d7091906129bc565b9050848182610d7f9190612a43565b10610d8c57809150610d9c565b600181610d9991906129bc565b92505b610d45565b819350505050919050565b60008054906101000a900473ffffffffffffffffffffffffffffffffffffffff1673ffffffffffffffffffffffffffffffffffffffff163373ffffffffffffffffffffffffffffffffffffffff1614610e3a576040517f08c379a0000000000000000000000000000000000000000000000000000000008152600401610e31906126a2565b60405180910390fd5b600047905060005b600754811015611236576000600c600083815260200190815260200160002090508060030160009054906101000a900473ffffffffffffffffffffffffffffffffffffffff1673ffffffffffffffffffffffffffffffffffffffff166108fc85600a610eae9190612a43565b85600a8681548110610ee9577f4e487b7100000000000000000000000000000000000000000000000000000000600052603260045260246000fd5b90600052602060002001546003610f009190612a43565b610f0a9190612a43565b610f149190612a12565b9081150290604051600060405180830381858888f19350505050158015610f3f573d6000803e3d6000fd5b5060005b8160060180549050811015611221576000826006018281548110610f90577f4e487b7100000000000000000000000000000000000000000000000000000000600052603260045260246000fd5b9060005260206000200160009054906101000a900473ffffffffffffffffffffffffffffffffffffffff1690506000600160009054906101000a900473ffffffffffffffffffffffffffffffffffffffff16905060008173ffffffffffffffffffffffffffffffffffffffff1663e623cc9f86600601868154811061103e577f4e487b7100000000000000000000000000000000000000000000000000000000600052603260045260246000fd5b9060005260206000200160009054906101000a900473ffffffffffffffffffffffffffffffffffffffff166040518263ffffffff1660e01b81526004016110859190612534565b60206040518083038186803b15801561109d57600080fd5b505afa1580156110b1573d6000803e3d6000fd5b505050506040513d601f19601f820116820180604052508101906110d59190611e58565b905060008190508073ffffffffffffffffffffffffffffffffffffffff1663f765417687600701548b600a61110a9190612a43565b6111149190612a43565b8860050160008873ffffffffffffffffffffffffffffffffffffffff1673ffffffffffffffffffffffffffffffffffffffff168152602001908152602001600020548b600a8c81548110611191577f4e487b7100000000000000000000000000000000000000000000000000000000600052603260045260246000fd5b906000526020600020015460016111a89190612a43565b6111b29190612a43565b6111bc9190612a43565b6111c69190612a12565b6040518263ffffffff1660e01b81526004016000604051808303818588803b1580156111f157600080fd5b505af1158015611205573d6000803e3d6000fd5b505050505050505050808061121990612b8d565b915050610f43565b5050808061122e90612b8d565b915050610e42565b50600460009054906101000a900473ffffffffffffffffffffffffffffffffffffffff1673ffffffffffffffffffffffffffffffffffffffff166108fc479081150290604051600060405180830381858888f1935050505015801561129f573d6000803e3d6000fd5b505050565b600a81815481106112b457600080fd5b906000526020600020016000915090505481565b600160009054906101000a900473ffffffffffffffffffffffffffffffffffffffff1681565b60008054906101000a900473ffffffffffffffffffffffffffffffffffffffff1673ffffffffffffffffffffffffffffffffffffffff163373ffffffffffffffffffffffffffffffffffffffff161461137c576040517f08c379a0000000000000000000000000000000000000000000000000000000008152600401611373906126e2565b60405180910390fd5b6001600960006101000a81548160ff021916908315150217905550565b60065481565b6060806060600060606000806000600c60008a815260200190815260200160002090508060000181600101826002018360030160009054906101000a900473ffffffffffffffffffffffffffffffffffffffff16846004018560060180549050866007015486805461141090612b5b565b80601f016020809104026020016040519081016040528092919081815260200182805461143c90612b5b565b80156114895780601f1061145e57610100808354040283529160200191611489565b820191906000526020600020905b81548152906001019060200180831161146c57829003601f168201915b5050505050965085805461149c90612b5b565b80601f01602080910402602001604051908101604052809291908181526020018280546114c890612b5b565b80156115155780601f106114ea57610100808354040283529160200191611515565b820191906000526020600020905b8154815290600101906020018083116114f857829003601f168201915b5050505050955084805461152890612b5b565b80601f016020809104026020016040519081016040528092919081815260200182805461155490612b5b565b80156115a15780601f10611576576101008083540402835291602001916115a1565b820191906000526020600020905b81548152906001019060200180831161158457829003601f168201915b5050505050945082805480602002602001604051908101604052809291908181526020016000905b828210156116ae5783829060005260206000209060140201601480602002604051908101604052809291906000905b8282101561169b57838201805461160e90612b5b565b80601f016020809104026020016040519081016040528092919081815260200182805461163a90612b5b565b80156116875780601f1061165c57610100808354040283529160200191611687565b820191906000526020600020905b81548152906001019060200180831161166a57829003601f168201915b5050505050815260200190600101906115f8565b50505050815260200190600101906115c9565b505050509250975097509750975097509750975050919395979092949650565b600960029054906101000a900460ff1681565b60606001600960016101000a81548160ff021916908315150217905561173c576040517f08c379a000000000000000000000000000000000000000000000000000000000815260040161173390612702565b60405180910390fd5b606080600a90805190602001906117549291906119e8565b5060005b6007548110156118ac57600080600c6000848152602001908152602001600020905060005b81600601805490508110156118625760008260060182815481106117ca577f4e487b7100000000000000000000000000000000000000000000000000000000600052603260045260246000fd5b9060005260206000200160009054906101000a900473ffffffffffffffffffffffffffffffffffffffff1690506118418360050160008373ffffffffffffffffffffffffffffffffffffffff1673ffffffffffffffffffffffffffffffffffffffff16815260200190815260200160002054610d33565b8461184c91906129bc565b935050808061185a90612b8d565b91505061177d565b50600a82836118719190612a43565b9080600181540180825580915050600190039060005260206000200160009091909190915055505080806118a490612b8d565b915050611758565b50600a8054806020026020016040519081016040528092919081815260200182805480156118f957602002820191906000526020600020905b8154815260200190600101908083116118e5575b505050505091505090565b82805461191090612b5b565b90600052602060002090601f0160209004810192826119325760008555611979565b82601f1061194b57805160ff1916838001178555611979565b82800160010185558215611979579182015b8281111561197857825182559160200191906001019061195d565b5b5090506119869190611a35565b5090565b8280548282559060005260206000209060140281019282156119d7579160200282015b828111156119d6578251829060146119c6929190611a52565b50916020019190601401906119ad565b5b5090506119e49190611aa5565b5090565b828054828255906000526020600020908101928215611a24579160200282015b82811115611a23578251825591602001919060010190611a08565b5b509050611a319190611a35565b5090565b5b80821115611a4e576000816000905550600101611a36565b5090565b8260148101928215611a94579160200282015b82811115611a93578251829080519060200190611a83929190611ac9565b5091602001919060010190611a65565b5b509050611aa19190611b4f565b5090565b5b80821115611ac55760008181611abc9190611b73565b50601401611aa6565b5090565b828054611ad590612b5b565b90600052602060002090601f016020900481019282611af75760008555611b3e565b82601f10611b1057805160ff1916838001178555611b3e565b82800160010185558215611b3e579182015b82811115611b3d578251825591602001919060010190611b22565b5b509050611b4b9190611a35565b5090565b5b80821115611b6f5760008181611b669190611b86565b50600101611b50565b5090565b508060140190611b839190611b4f565b50565b508054611b9290612b5b565b6000825580601f10611ba45750611bc3565b601f016020900490600052602060002090810190611bc29190611a35565b5b50565b6000611bd9611bd48461278e565b61275d565b9050808382526020820190508260005b85811015611c195781358501611bff8882611d9e565b845260208401935060208301925050600181019050611be9565b5050509392505050565b6000611c36611c31846127ba565b61275d565b9050808260005b85811015611c6d5781358501611c538882611def565b845260208401935060208301925050600181019050611c3d565b5050509392505050565b6000611c8a611c85846127e0565b61275d565b90508083825260208201905082856020860282011115611ca957600080fd5b60005b85811015611cd95781611cbf8882611e43565b845260208401935060208301925050600181019050611cac565b5050509392505050565b6000611cf6611cf18461280c565b61275d565b905082815260208101848484011115611d0e57600080fd5b611d19848285612b19565b509392505050565b6000611d34611d2f8461283c565b61275d565b905082815260208101848484011115611d4c57600080fd5b611d57848285612b19565b509392505050565b600081519050611d6e81612ca3565b92915050565b600082601f830112611d8557600080fd5b8135611d95848260208601611bc6565b91505092915050565b600082601f830112611daf57600080fd5b6014611dbc848285611c23565b91505092915050565b600082601f830112611dd657600080fd5b8135611de6848260208601611c77565b91505092915050565b600082601f830112611e0057600080fd5b8135611e10848260208601611ce3565b91505092915050565b600082601f830112611e2a57600080fd5b8135611e3a848260208601611d21565b91505092915050565b600081359050611e5281612cba565b92915050565b600060208284031215611e6a57600080fd5b6000611e7884828501611d5f565b91505092915050565b600060208284031215611e9357600080fd5b600082013567ffffffffffffffff811115611ead57600080fd5b611eb984828501611dc5565b91505092915050565b60008060008060808587031215611ed857600080fd5b600085013567ffffffffffffffff811115611ef257600080fd5b611efe87828801611e19565b945050602085013567ffffffffffffffff811115611f1b57600080fd5b611f2787828801611e19565b935050604085013567ffffffffffffffff811115611f4457600080fd5b611f5087828801611e19565b925050606085013567ffffffffffffffff811115611f6d57600080fd5b611f7987828801611d74565b91505092959194509250565b600060208284031215611f9757600080fd5b6000611fa584828501611e43565b91505092915050565b6000611fba838361210e565b905092915050565b6000611fce8383612183565b905092915050565b6000611fe28383612264565b905092915050565b6000611ff6838361229d565b905092915050565b600061200a8383612516565b60208301905092915050565b61201f81612ad1565b82525050565b6000612030826128df565b61203a818561296d565b93508360208202850161204c8561286c565b8060005b8581101561208857848403895281516120698582611fae565b94506120748361292c565b925060208a01995050600181019050612050565b50829750879550505050505092915050565b60006120a5826128ea565b6120af818561296d565b9350836020820285016120c18561287c565b8060005b858110156120fc578484038952816120dd8582611fc2565b94506120e883612939565b925060208a019950506001810190506120c5565b50829750879550505050505092915050565b6000612119826128f5565b612123818561297e565b93508360208202850161213585612891565b8060005b8581101561217157848403895281516121528582611fd6565b945061215d83612946565b925060208a01995050600181019050612139565b50829750879550505050505092915050565b600061218e82612900565b612198818561297e565b9350836020820285016121aa8561289b565b8060005b858110156121e5578484038952816121c68582611fea565b94506121d183612953565b925060208a019950506001810190506121ae565b50829750879550505050505092915050565b60006122028261290b565b61220c8185612989565b9350612217836128a5565b8060005b8381101561224857815161222f8882611ffe565b975061223a83612960565b92505060018101905061221b565b5085935050505092915050565b61225e81612ae3565b82525050565b600061226f82612916565b612279818561299a565b9350612289818560208601612b28565b61229281612c92565b840191505092915050565b600081546122aa81612b5b565b6122b4818661299a565b945060018216600081146122cf57600181146122e157612314565b60ff1983168652602086019350612314565b6122ea856128b5565b60005b8381101561230c578154818901526001820191506020810190506122ed565b808801955050505b50505092915050565b600061232882612921565b61233281856129ab565b9350612342818560208601612b28565b61234b81612c92565b840191505092915050565b6000815461236381612b5b565b61236d81866129ab565b94506001821660008114612388576001811461239a576123cd565b60ff19831686526020860193506123cd565b6123a3856128ca565b60005b838110156123c5578154818901526001820191506020810190506123a6565b808801955050505b50505092915050565b60006123e36011836129ab565b91507f6f6e6c79206f7267616e697a6174696f6e0000000000000000000000000000006000830152602082019050919050565b60006124236015836129ab565b91507f4d6178696d756d206c696d6974207265616368656400000000000000000000006000830152602082019050919050565b60006124636008836129ab565b91507f6f6e6c79206f72670000000000000000000000000000000000000000000000006000830152602082019050919050565b60006124a36016836129ab565b91507f7468652067616d6520686173206e6f7420656e646564000000000000000000006000830152602082019050919050565b60006124e36016836129ab565b91507f496e73756666696369656e7420656e74727920666565000000000000000000006000830152602082019050919050565b61251f81612b0f565b82525050565b61252e81612b0f565b82525050565b60006020820190506125496000830184612016565b92915050565b6000602082019050818103600083015261256981846121f7565b905092915050565b60006020820190506125866000830184612255565b92915050565b600060e08201905081810360008301526125a6818a61231d565b905081810360208301526125ba818961231d565b905081810360408301526125ce818861231d565b90506125dd6060830187612016565b81810360808301526125ef8186612025565b90506125fe60a0830185612525565b61260b60c0830184612525565b98975050505050505050565b600060e0820190508181036000830152612631818a612356565b905081810360208301526126458189612356565b905081810360408301526126598188612356565b9050818103606083015261266d818761209a565b905061267c6080830186612525565b61268960a0830185612525565b61269660c0830184612016565b98975050505050505050565b600060208201905081810360008301526126bb816123d6565b9050919050565b600060208201905081810360008301526126db81612416565b9050919050565b600060208201905081810360008301526126fb81612456565b9050919050565b6000602082019050818103600083015261271b81612496565b9050919050565b6000602082019050818103600083015261273b816124d6565b9050919050565b60006020820190506127576000830184612525565b92915050565b6000604051905081810181811067ffffffffffffffff8211171561278457612783612c63565b5b8060405250919050565b600067ffffffffffffffff8211156127a9576127a8612c63565b5b602082029050602081019050919050565b600067ffffffffffffffff8211156127d5576127d4612c63565b5b602082029050919050565b600067ffffffffffffffff8211156127fb576127fa612c63565b5b602082029050602081019050919050565b600067ffffffffffffffff82111561282757612826612c63565b5b601f19601f8301169050602081019050919050565b600067ffffffffffffffff82111561285757612856612c63565b5b601f19601f8301169050602081019050919050565b6000819050602082019050919050565b60008190508160005260206000209050919050565b6000819050919050565b6000819050919050565b6000819050602082019050919050565b60008190508160005260206000209050919050565b60008190508160005260206000209050919050565b600081519050919050565b600081549050919050565b600060149050919050565b600060149050919050565b600081519050919050565b600081519050919050565b600081519050919050565b6000602082019050919050565b6000601482019050919050565b6000602082019050919050565b6000600182019050919050565b6000602082019050919050565b600082825260208201905092915050565b600081905092915050565b600082825260208201905092915050565b600082825260208201905092915050565b600082825260208201905092915050565b60006129c782612b0f565b91506129d283612b0f565b9250827fffffffffffffffffffffffffffffffffffffffffffffffffffffffffffffffff03821115612a0757612a06612bd6565b5b828201905092915050565b6000612a1d82612b0f565b9150612a2883612b0f565b925082612a3857612a37612c05565b5b828204905092915050565b6000612a4e82612b0f565b9150612a5983612b0f565b9250817fffffffffffffffffffffffffffffffffffffffffffffffffffffffffffffffff0483118215151615612a9257612a91612bd6565b5b828202905092915050565b6000612aa882612b0f565b9150612ab383612b0f565b925082821015612ac657612ac5612bd6565b5b828203905092915050565b6000612adc82612aef565b9050919050565b60008115159050919050565b600073ffffffffffffffffffffffffffffffffffffffff82169050919050565b6000819050919050565b82818337600083830152505050565b60005b83811015612b46578082015181840152602081019050612b2b565b83811115612b55576000848401525b50505050565b60006002820490506001821680612b7357607f821691505b60208210811415612b8757612b86612c34565b5b50919050565b6000612b9882612b0f565b91507fffffffffffffffffffffffffffffffffffffffffffffffffffffffffffffffff821415612bcb57612bca612bd6565b5b600182019050919050565b7f4e487b7100000000000000000000000000000000000000000000000000000000600052601160045260246000fd5b7f4e487b7100000000000000000000000000000000000000000000000000000000600052601260045260246000fd5b7f4e487b7100000000000000000000000000000000000000000000000000000000600052602260045260246000fd5b7f4e487b7100000000000000000000000000000000000000000000000000000000600052604160045260246000fd5b6000601f19601f8301169050919050565b612cac81612ad1565b8114612cb757600080fd5b50565b612cc381612b0f565b8114612cce57600080fd5b5056fea2646970667358221220cf6dff2f7603ce9cfbb02af488354ab53ce86df23ac9fd77052ce3afc85b8b7464736f6c63430008000033a2646970667358221220758d59345f9dcff1c1da5618adc1e0a607b8dcf1e1075488b080f69dab311a6764736f6c63430008000033",
  "immutableReferences": {},
  "source": "// SPDX-License-Identifier: MIT\r\npragma solidity >=0.8.0;\r\n\r\nimport \"@openzeppelin/contracts/token/ERC721/extensions/ERC721URIStorage.sol\"; \r\nimport \"@openzeppelin/contracts/access/Ownable.sol\";\r\nimport \"@openzeppelin/contracts/utils/Counters.sol\";\r\n\r\n\r\n// library MyMathlib{\r\n    \r\n// }\r\n\r\n\r\ncontract Knitts{\r\n    address public organization = 0x79e6234Ff4E7DB556F916FeBcE9e52a68D0B8879;\r\n    address[] public Leagues;\r\n    uint public numLeagues=0;\r\n  \tmapping(address => address) public idToUser; \r\n\r\n    function createLeague(uint _entryFee, uint _numPlayers, uint _duration) public payable returns (address[] memory){\r\n        require(msg.value > _entryFee * _numPlayers, 'not enough deposit');\r\n        League newLeague = new League(msg.sender, msg.value, _entryFee, _numPlayers, _duration, address(this));\r\n        numLeagues += 1;\r\n        Leagues.push(address(newLeague));\r\n        return Leagues;\r\n    }\r\n\r\n\r\n    function register(address id, address userContract) public {\r\n        idToUser[id] = userContract;\r\n    }\r\n}\r\n\r\ncontract League{\r\n    // using  MyMathlib for *;\r\n\r\n    //constant variables\r\n    address public organization;\r\n    address public knittsAddress;\r\n\r\n    //parameters\r\n    uint public entryFee;\r\n    uint public maxParticipants;\r\n    address public moderator;\r\n    uint public duration;\r\n    uint public deposit;\r\n\r\n    //contract variables\r\n    uint public numProjects=0;\r\n    address [] public participants;\r\n    bool public started=false;\r\n    bool public ended=false;\r\n    bool public distributed=false;\r\n    uint [] public points;\r\n    uint total_points=0;\r\n    \r\n\r\n    struct project{\r\n\r\n        //parameters\r\n        string title;\r\n        string url;\r\n        string image;\r\n        address owner;\r\n        bytes[20][] description;\r\n\r\n        //variables\r\n        mapping(address => uint)investments;\r\n        address[] investors;\r\n        uint total_fund;\r\n    }\r\n\t\t\r\n    mapping(uint => project) projects;\r\n\r\n    constructor(address _moderator, uint _deposit, uint _entryFee, uint _maxParticipants, uint _duration, address _knittsAddress){\r\n        entryFee = _entryFee;\r\n        maxParticipants = _maxParticipants;\r\n        moderator = _moderator;\r\n        duration = _duration;\r\n        organization = _moderator; // for local testing\r\n        knittsAddress = _knittsAddress;\r\n        deposit = _deposit;\r\n    }\r\n\r\n    function submitIdea(string memory title, string memory url, string memory image, bytes[20][] memory description) external payable returns(uint){\r\n        require(msg.value >= entryFee, \"Insufficient entry fee\");\r\n        require(numProjects < maxParticipants, \"Maximum limit reached\");\r\n        project storage p = projects[numProjects++];\r\n        p.title = title;\r\n        p.url = url;\r\n        p.image = image;\r\n        p.owner = msg.sender;\r\n        p.description = description;\r\n        return numProjects;\r\n    }\r\n\r\n    function invest(uint projectId) external payable{\r\n        project storage p = projects[projectId];\r\n        if(p.investments[msg.sender] == 0){\r\n            p.investors.push(msg.sender);\r\n        }\r\n        p.total_fund += msg.value/1e12;\r\n        p.investments[msg.sender] += msg.value/1e12;\r\n        \r\n    }\r\n\r\n    function startLeague() external {\r\n        require(msg.sender == organization, \"only org\");\r\n        started=true;\r\n    }\r\n\r\n    function endLeague() external returns(uint[] memory){\r\n        require(msg.sender == organization, \"only org\");\r\n        ended=true;\r\n        payable(moderator).transfer(deposit);\r\n        points = getPoints();\r\n        // getPoints();\r\n      \ttotal_points = sum(points);\r\n      \t// uint total_points = points.sum();\r\n        uint averagePoints = total_points / numProjects;\r\n      \r\n      \tfor(uint i=0;i<numProjects; i++) {\r\n            Knitts _knitts = Knitts(knittsAddress);\r\n            address _userId = _knitts.idToUser(projects[i].owner);\r\n            User _user = User(_userId);\r\n            _user.addProject(projects[i].title, projects[i].url, projects[i].image, projects[i].description, points[i] , averagePoints, address(this) );\r\n        } \r\n        distribute(total_points);\r\n        return points;\r\n    }\r\n\r\n\r\n    function submissionDetails(uint projectId) external view returns(\r\n        string memory,\r\n        string memory,\r\n        string memory,\r\n        address, \r\n        bytes[20][] memory,\r\n        uint,\r\n        uint\r\n    )  {\r\n        project storage p  = projects[projectId];\r\n        return (p.title, p.url, p.image, p.owner, p.description,p.investors.length,p.total_fund);\r\n    }\r\n\r\n\r\n    function getPoints() internal returns(uint[] memory){\r\n        require(ended = true, \"the game has not ended\");\r\n        uint [] memory empty_points;\r\n        points = empty_points;\r\n        for(uint i=0; i < numProjects; i++){\r\n            uint buf = 0;\r\n            project storage p = projects[i];\r\n            for(uint j=0; j< p.investors.length; j++){\r\n                address inv = p.investors[j];\r\n                buf += sqrt(p.investments[inv]);\r\n            }\r\n            points.push(buf * buf);\r\n        }\r\n        return points;\r\n    }\r\n\r\n    function distribute(uint total_points) public {\r\n        require(msg.sender == organization, \"only organization\");\r\n        uint total_balance = address(this).balance;\r\n        \r\n        for(uint i=0; i<numProjects; i++){\r\n            project storage p  =  projects[i];\r\n            \r\n            payable(p.owner).transfer( (3*points[i]*total_balance)/(10*total_points) );\r\n\r\n            for(uint j=0; j<p.investors.length; j++){\r\n                address investor = p.investors[j];\r\n                Knitts _knitts = Knitts(knittsAddress);\r\n                address _userId = _knitts.idToUser(p.investors[j]);\r\n                User _user = User(_userId);\r\n                _user.split{value:(1 * points[i] * total_balance * p.investments[investor]) / (10 * total_points * p.total_fund)}();\r\n            }\r\n        }\r\n\r\n        payable(moderator).transfer(address(this).balance);\r\n\r\n    }\r\n\r\n\r\n    function sqrt(uint num) public pure returns(uint){\r\n        uint start = 1;\r\n        uint end = num;\r\n        uint mid = start;\r\n        while(start < end){\r\n            mid = start + (end - start)/2;\r\n            if(mid * mid >= num){\r\n                end = mid;\r\n            }else{\r\n                start = mid+1;\r\n            }\r\n        }\r\n        return end;\r\n    }\r\n\r\n    function sum(uint[] memory arr) public pure returns (uint){\r\n        uint buf = 0;\r\n        for(uint i=0; i<arr.length; i++){\r\n            buf += arr[i];\r\n        }\r\n        return buf;\r\n    }\r\n\r\n    \r\n}\r\n\r\n\r\ncontract User {\r\n\r\n    //parameters\r\n    string public name;\r\n  \taddress public id; //metamask address of corresponding user\r\n\r\n    //contract variables\r\n  \tuint public numProjects=0;\r\n    address[] public NFTs_created;\r\n    uint public pending_nfts = 0;\r\n\r\n\r\n    constructor( address _id, string memory _name ) {\r\n        name = _name;\r\n        id = _id;\r\n    }\r\n\r\n    struct project{\r\n        string title;\r\n        string url;\r\n        string image;\r\n        bytes[20][] description;\r\n        uint point;\r\n        uint average_point;\r\n        address submittedOn;\r\n    }\r\n\r\n    project[20] public projects;\r\n    \r\n    function addProject(string memory _title, string memory _url, string memory _image, bytes[20][] memory _description, uint _point, uint _average_point, address _submittedOn) external {\r\n        projects[numProjects++] = project({title:_title, url:_url, image:_image, description:_description, point:_point, average_point:_average_point, submittedOn:_submittedOn});\r\n    }\r\n    \r\n\r\n    function createNFT(uint _bronze, uint price) external returns(address [] memory){\r\n        require(_bronze <= 10, \"You can create only 10 bronzes\");\r\n        require(pending_nfts == 0, \"There are pending nfts still\");\r\n        require(msg.sender == id, \"wrong user account\");\r\n\r\n        for(uint i=0; i<_bronze; i++){\r\n            NFT new_nft = new NFT(id, \"Bronze\", \"B\", id, 'https://s3.envato.com/files/235568921/preview.jpg', 1, price);\r\n            NFTs_created.push(address(new_nft));\r\n        }\r\n\r\n        pending_nfts = _bronze;\r\n        return NFTs_created;\r\n    }\r\n\r\n    function split() external payable {\r\n        uint value = (msg.value * 1) / 100;\r\n        if(pending_nfts > 0){\r\n            for(uint i=0; i<NFTs_created.length; i++){\r\n                NFT nft = NFT(NFTs_created[i]);\r\n                payable(nft.ownerOf(1)).transfer((value)/10);\r\n            }\r\n            scratchNFTs();\r\n        }\r\n        \r\n        payable(id).transfer(address(this).balance);\r\n    }\r\n\r\n    function scratchNFTs() internal returns(uint){\r\n        uint rem = 0;\r\n        for(uint i=0; i<NFTs_created.length; i++){\r\n            NFT new_nft =  NFT(NFTs_created[i]);\r\n            rem = new_nft.scratchCard();\r\n        }\r\n        if(rem == 0){\r\n            pending_nfts = 0;\r\n            address [] memory temp;\r\n            NFTs_created = temp;\r\n        }\r\n        return rem;\r\n    }\r\n  \r\n}\r\n\r\ncontract NFT is ERC721URIStorage, Ownable{\r\n    using Counters for Counters.Counter;\r\n    Counters.Counter private _tokenIds;\r\n    address public nft_creator;\r\n    uint public leaguesMore;\r\n    uint public price;\r\n    uint public newItemId;\r\n    constructor(address _creator, string memory _name, string memory _symbol, address _player, string memory _tokenURI, uint _leaguesMore, uint _price) ERC721(_name, _symbol){\r\n        nft_creator = _creator;\r\n        leaguesMore = _leaguesMore;\r\n        _tokenIds.increment();\r\n        newItemId = _tokenIds.current();\r\n        _mint(_player, newItemId);\r\n        _setTokenURI(newItemId, _tokenURI);\r\n        _approve(address(this), newItemId);\r\n        price = _price;\r\n    }\r\n\r\n    function scratchCard() public returns (uint){\r\n        require(leaguesMore > 0, \"expired\");\r\n        leaguesMore -= 1;\r\n        if(leaguesMore == 0){\r\n            _burn(1);\r\n        }\r\n        return leaguesMore;\r\n    }\r\n\r\n    function updatePrice(uint _price) external onlyOwner {\r\n        price = _price;\r\n    }\r\n\r\n    function buy() external payable {\r\n        require(msg.value >= price, \"costs more\");\r\n        address old_owner = ownerOf(newItemId);\r\n        _transfer(old_owner, address(this), newItemId);\r\n        _approve(msg.sender, newItemId);\r\n        payable(old_owner).transfer(address(this).balance);\r\n    } \r\n\r\n}\r\n\r\n",
  "sourcePath": "E:\\projects\\knitts\\back-end\\contracts\\League.sol",
  "compiler": {
    "name": "solc",
    "version": "0.8.0+commit.c7dfd78e.Emscripten.clang"
  },
  "schemaVersion": "3.4.3",
  "updatedAt": "2021-10-10T15:13:40.591Z",
  "devdoc": {
    "kind": "dev",
    "methods": {},
    "version": 1
  },
  "userdoc": {
    "kind": "user",
    "methods": {},
    "version": 1
  }
}