{
  "contractName": "Knitts",
  "abi": [
    {
      "inputs": [
        {
          "internalType": "uint256",
          "name": "",
          "type": "uint256"
        }
      ],
      "name": "Leagues",
      "outputs": [
        {
          "internalType": "address",
          "name": "",
          "type": "address"
        }
      ],
      "stateMutability": "view",
      "type": "function",
      "constant": true
    },
    {
      "inputs": [],
      "name": "depositMore",
      "outputs": [],
      "stateMutability": "payable",
      "type": "function",
      "payable": true
    },
    {
      "inputs": [
        {
          "internalType": "uint256",
          "name": "_entryFee",
          "type": "uint256"
        },
        {
          "internalType": "uint256",
          "name": "_numPlayers",
          "type": "uint256"
        },
        {
          "internalType": "uint256",
          "name": "_duration",
          "type": "uint256"
        }
      ],
      "name": "createLeague",
      "outputs": [
        {
          "internalType": "address[]",
          "name": "",
          "type": "address[]"
        }
      ],
      "stateMutability": "nonpayable",
      "type": "function"
    },
    {
      "inputs": [
        {
          "internalType": "address",
          "name": "_moderator",
          "type": "address"
        }
      ],
      "name": "getBalance",
      "outputs": [
        {
          "internalType": "uint256",
          "name": "",
          "type": "uint256"
        }
      ],
      "stateMutability": "view",
      "type": "function",
      "constant": true
    },
    {
      "inputs": [
        {
          "internalType": "address",
          "name": "_id",
          "type": "address"
        }
      ],
      "name": "getUserContractAddress",
      "outputs": [
        {
          "internalType": "address",
          "name": "",
          "type": "address"
        }
      ],
      "stateMutability": "view",
      "type": "function",
      "constant": true
    }
  ],
  "bytecode": "0x60806040527379e6234ff4e7db556f916febce9e52a68d0b88796000806101000a81548173ffffffffffffffffffffffffffffffffffffffff021916908373ffffffffffffffffffffffffffffffffffffffff16021790555034801561006457600080fd5b506134eb806100746000396000f3fe608060405260043610620000505760003560e01c806319fe7a831462000055578063601731801462000099578063a6e497b614620000a5578063e9ff6f5c14620000e9578063f8b2cb4f146200012d575b600080fd5b3480156200006257600080fd5b506200008160048036038101906200007b91906200053a565b62000171565b604051620000909190620006f7565b60405180910390f35b620000a3620001b1565b005b348015620000b257600080fd5b50620000d16004803603810190620000cb91906200050e565b62000251565b604051620000e09190620006f7565b60405180910390f35b348015620000f657600080fd5b506200011560048036038101906200010f919062000566565b620002ba565b60405162000124919062000771565b60405180910390f35b3480156200013a57600080fd5b506200015960048036038101906200015391906200050e565b62000489565b604051620001689190620007d9565b60405180910390f35b600281815481106200018257600080fd5b906000526020600020016000915054906101000a900473ffffffffffffffffffffffffffffffffffffffff1681565b60003411620001f7576040517f08c379a0000000000000000000000000000000000000000000000000000000008152600401620001ee9062000795565b60405180910390fd5b34600160003373ffffffffffffffffffffffffffffffffffffffff1673ffffffffffffffffffffffffffffffffffffffff168152602001908152602001600020600082825462000248919062000840565b92505081905550565b6000600460008373ffffffffffffffffffffffffffffffffffffffff1673ffffffffffffffffffffffffffffffffffffffff16815260200190815260200160002060009054906101000a900473ffffffffffffffffffffffffffffffffffffffff169050919050565b6060600160003373ffffffffffffffffffffffffffffffffffffffff1673ffffffffffffffffffffffffffffffffffffffff1681526020019081526020016000205483856200030a91906200089d565b11156200034e576040517f08c379a00000000000000000000000000000000000000000000000000000000081526004016200034590620007b7565b60405180910390fd5b600033858585306040516200036390620004d2565b6200037395949392919062000714565b604051809103906000f08015801562000390573d6000803e3d6000fd5b5090506002819080600181540180825580915050600190039060005260206000200160009091909190916101000a81548173ffffffffffffffffffffffffffffffffffffffff021916908373ffffffffffffffffffffffffffffffffffffffff16021790555060028054806020026020016040519081016040528092919081815260200182805480156200047a57602002820191906000526020600020905b8160009054906101000a900473ffffffffffffffffffffffffffffffffffffffff1673ffffffffffffffffffffffffffffffffffffffff16815260200190600101908083116200042f575b50505050509150509392505050565b6000600160008373ffffffffffffffffffffffffffffffffffffffff1673ffffffffffffffffffffffffffffffffffffffff168152602001908152602001600020549050919050565b612b1680620009a083390190565b600081359050620004f1816200096b565b92915050565b600081359050620005088162000985565b92915050565b6000602082840312156200052157600080fd5b60006200053184828501620004e0565b91505092915050565b6000602082840312156200054d57600080fd5b60006200055d84828501620004f7565b91505092915050565b6000806000606084860312156200057c57600080fd5b60006200058c86828701620004f7565b93505060206200059f86828701620004f7565b9250506040620005b286828701620004f7565b9150509250925092565b6000620005ca8383620005d6565b60208301905092915050565b620005e181620008fe565b82525050565b620005f281620008fe565b82525050565b6000620006058262000806565b6200061181856200081e565b93506200061e83620007f6565b8060005b8381101562000655578151620006398882620005bc565b9750620006468362000811565b92505060018101905062000622565b5085935050505092915050565b600062000671601f836200082f565b91507f596f75206e65656420746f206465706f73697420736f6d6520616d6f756e74006000830152602082019050919050565b6000620006b36014836200082f565b91507f496e73756666696369656e74206465706f7369740000000000000000000000006000830152602082019050919050565b620006f18162000932565b82525050565b60006020820190506200070e6000830184620005e7565b92915050565b600060a0820190506200072b6000830188620005e7565b6200073a6020830187620006e6565b620007496040830186620006e6565b620007586060830185620006e6565b620007676080830184620005e7565b9695505050505050565b600060208201905081810360008301526200078d8184620005f8565b905092915050565b60006020820190508181036000830152620007b08162000662565b9050919050565b60006020820190508181036000830152620007d281620006a4565b9050919050565b6000602082019050620007f06000830184620006e6565b92915050565b6000819050602082019050919050565b600081519050919050565b6000602082019050919050565b600082825260208201905092915050565b600082825260208201905092915050565b60006200084d8262000932565b91506200085a8362000932565b9250827fffffffffffffffffffffffffffffffffffffffffffffffffffffffffffffffff038211156200089257620008916200093c565b5b828201905092915050565b6000620008aa8262000932565b9150620008b78362000932565b9250817fffffffffffffffffffffffffffffffffffffffffffffffffffffffffffffffff0483118215151615620008f357620008f26200093c565b5b828202905092915050565b60006200090b8262000912565b9050919050565b600073ffffffffffffffffffffffffffffffffffffffff82169050919050565b6000819050919050565b7f4e487b7100000000000000000000000000000000000000000000000000000000600052601160045260246000fd5b6200097681620008fe565b81146200098257600080fd5b50565b620009908162000932565b81146200099c57600080fd5b5056fe608060405260006008553480156200001657600080fd5b5060405162002b1638038062002b1683398181016040528101906200003c9190620001a5565b836001819055508260028190555084600560006101000a81548173ffffffffffffffffffffffffffffffffffffffff021916908373ffffffffffffffffffffffffffffffffffffffff1602179055508160068190555060006003819055506000600760006101000a81548160ff0219169083151502179055506000600760016101000a81548160ff0219169083151502179055506000600760026101000a81548160ff021916908315150217905550846000806101000a81548173ffffffffffffffffffffffffffffffffffffffff021916908373ffffffffffffffffffffffffffffffffffffffff16021790555080600a60006101000a81548173ffffffffffffffffffffffffffffffffffffffff021916908373ffffffffffffffffffffffffffffffffffffffff160217905550505050505062000299565b600081519050620001888162000265565b92915050565b6000815190506200019f816200027f565b92915050565b600080600080600060a08688031215620001be57600080fd5b6000620001ce8882890162000177565b9550506020620001e1888289016200018e565b9450506040620001f4888289016200018e565b935050606062000207888289016200018e565b92505060806200021a8882890162000177565b9150509295509295909350565b600062000234826200023b565b9050919050565b600073ffffffffffffffffffffffffffffffffffffffff82169050919050565b6000819050919050565b620002708162000227565b81146200027c57600080fd5b50565b6200028a816200025b565b81146200029657600080fd5b50565b61286d80620002a96000396000f3fe6080604052600436106101145760003560e01c80632afcf480116100a0578063a19eb3c611610064578063a19eb3c61461038d578063c3b7a80f146103b8578063d235407b146103cf578063e4fc6b6d1461040d578063f84b903e1461042457610114565b80632afcf480146102a157806335c1d349146102bd57806338743904146102fa5780635a067baa146103255780639799b4e71461035057610114565b80632185ce83116100e75780632185ce83146101c557806323bd4d7a146101f557806324924bf71461022057806324fd79181461024b57806325d5eafa1461027657610114565b8063072ea61c146101195780630fb5a6b41461014457806312fa6feb1461016f5780631f2698ab1461019a575b600080fd5b34801561012557600080fd5b5061012e61044f565b60405161013b91906122df565b60405180910390f35b34801561015057600080fd5b50610159610455565b60405161016691906122df565b60405180910390f35b34801561017b57600080fd5b5061018461045b565b6040516101919190612199565b60405180910390f35b3480156101a657600080fd5b506101af61046e565b6040516101bc9190612199565b60405180910390f35b6101df60048036038101906101da9190611af3565b610481565b6040516101ec91906122df565b60405180910390f35b34801561020157600080fd5b5061020a6105f0565b604051610217919061212c565b60405180910390f35b34801561022c57600080fd5b50610235610614565b60405161024291906122df565b60405180910390f35b34801561025757600080fd5b5061026061061a565b60405161026d9190612177565b60405180910390f35b34801561028257600080fd5b5061028b6109ba565b60405161029891906122df565b60405180910390f35b6102bb60048036038101906102b69190611bb6565b6109c0565b005b3480156102c957600080fd5b506102e460048036038101906102df9190611bb6565b610b1e565b6040516102f1919061212c565b60405180910390f35b34801561030657600080fd5b5061030f610b5d565b60405161031c919061212c565b60405180910390f35b34801561033157600080fd5b5061033a610b83565b60405161034791906122df565b60405180910390f35b34801561035c57600080fd5b5061037760048036038101906103729190611bb6565b610b89565b60405161038491906122df565b60405180910390f35b34801561039957600080fd5b506103a2610bad565b6040516103af919061212c565b60405180910390f35b3480156103c457600080fd5b506103cd610bd3565b005b3480156103db57600080fd5b506103f660048036038101906103f19190611bb6565b610c7e565b604051610404929190612147565b60405180910390f35b34801561041957600080fd5b50610422610de4565b005b34801561043057600080fd5b506104396112df565b6040516104469190612199565b60405180910390f35b60015481565b60065481565b600760019054906101000a900460ff1681565b600760009054906101000a900460ff1681565b60006001543410156104c8576040517f08c379a00000000000000000000000000000000000000000000000000000000081526004016104bf906122bf565b60405180910390fd5b6002546003541061050e576040517f08c379a00000000000000000000000000000000000000000000000000000000081526004016105059061227f565b60405180910390fd5b6000600b600060036000815480929190610527906126f3565b91905055815260200190815260200160002090508581600001908051906020019061055392919061160c565b508481600101908051906020019061056c92919061160c565b508381600201908051906020019061058592919061160c565b50338160030160006101000a81548173ffffffffffffffffffffffffffffffffffffffff021916908373ffffffffffffffffffffffffffffffffffffffff160217905550828160040190805190602001906105e1929190611692565b50600354915050949350505050565b60008054906101000a900473ffffffffffffffffffffffffffffffffffffffff1681565b60025481565b606060008054906101000a900473ffffffffffffffffffffffffffffffffffffffff1673ffffffffffffffffffffffffffffffffffffffff163373ffffffffffffffffffffffffffffffffffffffff16146106aa576040517f08c379a00000000000000000000000000000000000000000000000000000000081526004016106a19061223f565b60405180910390fd5b6001600760016101000a81548160ff0219169083151502179055506106cd6112f2565b50610727600980548060200260200160405190810160405280929190818152602001828054801561071d57602002820191906000526020600020905b815481526020019060010190808311610709575b5050505050611515565b600881905550600060035460085461073f9190612578565b905060005b600354811015610962576000600a60009054906101000a900473ffffffffffffffffffffffffffffffffffffffff16905060008173ffffffffffffffffffffffffffffffffffffffff1663a6e497b6600b600086815260200190815260200160002060030160009054906101000a900473ffffffffffffffffffffffffffffffffffffffff166040518263ffffffff1660e01b81526004016107e6919061212c565b60206040518083038186803b1580156107fe57600080fd5b505afa158015610812573d6000803e3d6000fd5b505050506040513d601f19601f820116820180604052508101906108369190611aca565b905060008190508073ffffffffffffffffffffffffffffffffffffffff1663fbf7de84600b6000878152602001908152602001600020600001600b6000888152602001908152602001600020600101600b6000898152602001908152602001600020600201600b60008a815260200190815260200160002060040160098a815481106108eb577f4e487b7100000000000000000000000000000000000000000000000000000000600052603260045260246000fd5b90600052602060002001548b306040518863ffffffff1660e01b815260040161091a97969594939291906121b4565b600060405180830381600087803b15801561093457600080fd5b505af1158015610948573d6000803e3d6000fd5b50505050505050808061095a906126f3565b915050610744565b5060098054806020026020016040519081016040528092919081815260200182805480156109af57602002820191906000526020600020905b81548152602001906001019080831161099b575b505050505091505090565b60085481565b6000600b6000838152602001908152602001600020905060008160050160003373ffffffffffffffffffffffffffffffffffffffff1673ffffffffffffffffffffffffffffffffffffffff168152602001908152602001600020541415610a875780600601339080600181540180825580915050600190039060005260206000200160009091909190916101000a81548173ffffffffffffffffffffffffffffffffffffffff021916908373ffffffffffffffffffffffffffffffffffffffff1602179055505b64e8d4a5100034610a989190612578565b816007016000828254610aab9190612522565b9250508190555064e8d4a5100034610ac39190612578565b8160050160003373ffffffffffffffffffffffffffffffffffffffff1673ffffffffffffffffffffffffffffffffffffffff1681526020019081526020016000206000828254610b139190612522565b925050819055505050565b60048181548110610b2e57600080fd5b906000526020600020016000915054906101000a900473ffffffffffffffffffffffffffffffffffffffff1681565b600560009054906101000a900473ffffffffffffffffffffffffffffffffffffffff1681565b60035481565b60098181548110610b9957600080fd5b906000526020600020016000915090505481565b600a60009054906101000a900473ffffffffffffffffffffffffffffffffffffffff1681565b60008054906101000a900473ffffffffffffffffffffffffffffffffffffffff1673ffffffffffffffffffffffffffffffffffffffff163373ffffffffffffffffffffffffffffffffffffffff1614610c61576040517f08c379a0000000000000000000000000000000000000000000000000000000008152600401610c589061225f565b60405180910390fd5b6001600760006101000a81548160ff021916908315150217905550565b60006060600b600084815260200190815260200160002060030160009054906101000a900473ffffffffffffffffffffffffffffffffffffffff16600b600085815260200190815260200160002060040180805480602002602001604051908101604052809291908181526020016000905b82821015610dd55783829060005260206000209060140201601480602002604051908101604052809291906000905b82821015610dc2578382018054610d35906126c1565b80601f0160208091040260200160405190810160405280929190818152602001828054610d61906126c1565b8015610dae5780601f10610d8357610100808354040283529160200191610dae565b820191906000526020600020905b815481529060010190602001808311610d9157829003601f168201915b505050505081526020019060010190610d1f565b5050505081526020019060010190610cf0565b50505050905091509150915091565b60008054906101000a900473ffffffffffffffffffffffffffffffffffffffff1673ffffffffffffffffffffffffffffffffffffffff163373ffffffffffffffffffffffffffffffffffffffff1614610e72576040517f08c379a0000000000000000000000000000000000000000000000000000000008152600401610e699061223f565b60405180910390fd5b600047905060005b600354811015611272576000600b600083815260200190815260200160002090508060030160009054906101000a900473ffffffffffffffffffffffffffffffffffffffff1673ffffffffffffffffffffffffffffffffffffffff166108fc600854600a610ee891906125a9565b8560098681548110610f23577f4e487b7100000000000000000000000000000000000000000000000000000000600052603260045260246000fd5b90600052602060002001546003610f3a91906125a9565b610f4491906125a9565b610f4e9190612578565b9081150290604051600060405180830381858888f19350505050158015610f79573d6000803e3d6000fd5b5060005b816006018054905081101561125d576000826006018281548110610fca577f4e487b7100000000000000000000000000000000000000000000000000000000600052603260045260246000fd5b9060005260206000200160009054906101000a900473ffffffffffffffffffffffffffffffffffffffff1690506000600a60009054906101000a900473ffffffffffffffffffffffffffffffffffffffff16905060008173ffffffffffffffffffffffffffffffffffffffff1663a6e497b6866006018681548110611078577f4e487b7100000000000000000000000000000000000000000000000000000000600052603260045260246000fd5b9060005260206000200160009054906101000a900473ffffffffffffffffffffffffffffffffffffffff166040518263ffffffff1660e01b81526004016110bf919061212c565b60206040518083038186803b1580156110d757600080fd5b505afa1580156110eb573d6000803e3d6000fd5b505050506040513d601f19601f8201168201806040525081019061110f9190611aca565b905060008190508073ffffffffffffffffffffffffffffffffffffffff1663f76541768760070154600854600a61114691906125a9565b61115091906125a9565b8860050160008873ffffffffffffffffffffffffffffffffffffffff1673ffffffffffffffffffffffffffffffffffffffff168152602001908152602001600020548b60098c815481106111cd577f4e487b7100000000000000000000000000000000000000000000000000000000600052603260045260246000fd5b906000526020600020015460066111e491906125a9565b6111ee91906125a9565b6111f891906125a9565b6112029190612578565b6040518263ffffffff1660e01b81526004016000604051808303818588803b15801561122d57600080fd5b505af1158015611241573d6000803e3d6000fd5b5050505050505050508080611255906126f3565b915050610f7d565b5050808061126a906126f3565b915050610e7a565b50600560009054906101000a900473ffffffffffffffffffffffffffffffffffffffff1673ffffffffffffffffffffffffffffffffffffffff166108fc479081150290604051600060405180830381858888f193505050501580156112db573d6000803e3d6000fd5b5050565b600760029054906101000a900460ff1681565b60606001600760016101000a81548160ff021916908315150217905561134d576040517f08c379a00000000000000000000000000000000000000000000000000000000081526004016113449061229f565b60405180910390fd5b606080600990805190602001906113659291906116f0565b5060005b6003548110156114bd57600080600b6000848152602001908152602001600020905060005b81600601805490508110156114735760008260060182815481106113db577f4e487b7100000000000000000000000000000000000000000000000000000000600052603260045260246000fd5b9060005260206000200160009054906101000a900473ffffffffffffffffffffffffffffffffffffffff1690506114528360050160008373ffffffffffffffffffffffffffffffffffffffff1673ffffffffffffffffffffffffffffffffffffffff16815260200190815260200160002054611593565b8461145d9190612522565b935050808061146b906126f3565b91505061138e565b506009828361148291906125a9565b9080600181540180825580915050600190039060005260206000200160009091909190915055505080806114b5906126f3565b915050611369565b50600980548060200260200160405190810160405280929190818152602001828054801561150a57602002820191906000526020600020905b8154815260200190600101908083116114f6575b505050505091505090565b6000806000905060005b835181101561158957838181518110611561577f4e487b7100000000000000000000000000000000000000000000000000000000600052603260045260246000fd5b6020026020010151826115749190612522565b91508080611581906126f3565b91505061151f565b5080915050919050565b60008060019050600083905060008290505b8183101561160157600283836115bb9190612603565b6115c59190612578565b836115d09190612522565b90508481826115df91906125a9565b106115ec578091506115fc565b6001816115f99190612522565b92505b6115a5565b819350505050919050565b828054611618906126c1565b90600052602060002090601f01602090048101928261163a5760008555611681565b82601f1061165357805160ff1916838001178555611681565b82800160010185558215611681579182015b82811115611680578251825591602001919060010190611665565b5b50905061168e919061173d565b5090565b8280548282559060005260206000209060140281019282156116df579160200282015b828111156116de578251829060146116ce92919061175a565b50916020019190601401906116b5565b5b5090506116ec91906117ad565b5090565b82805482825590600052602060002090810192821561172c579160200282015b8281111561172b578251825591602001919060010190611710565b5b509050611739919061173d565b5090565b5b8082111561175657600081600090555060010161173e565b5090565b826014810192821561179c579160200282015b8281111561179b57825182908051906020019061178b9291906117d1565b509160200191906001019061176d565b5b5090506117a99190611857565b5090565b5b808211156117cd57600081816117c4919061187b565b506014016117ae565b5090565b8280546117dd906126c1565b90600052602060002090601f0160209004810192826117ff5760008555611846565b82601f1061181857805160ff1916838001178555611846565b82800160010185558215611846579182015b8281111561184557825182559160200191906001019061182a565b5b509050611853919061173d565b5090565b5b80821115611877576000818161186e919061188e565b50600101611858565b5090565b50806014019061188b9190611857565b50565b50805461189a906126c1565b6000825580601f106118ac57506118cb565b601f0160209004906000526020600020908101906118ca919061173d565b5b50565b60006118e16118dc8461232b565b6122fa565b9050808382526020820190508260005b8581101561192157813585016119078882611a3a565b8452602084019350602083019250506001810190506118f1565b5050509392505050565b600061193e61193984612357565b6122fa565b9050808260005b85811015611975578135850161195b8882611a61565b845260208401935060208301925050600181019050611945565b5050509392505050565b600061199261198d8461237d565b6122fa565b9050828152602081018484840111156119aa57600080fd5b6119b584828561267f565b509392505050565b60006119d06119cb846123ad565b6122fa565b9050828152602081018484840111156119e857600080fd5b6119f384828561267f565b509392505050565b600081519050611a0a81612809565b92915050565b600082601f830112611a2157600080fd5b8135611a318482602086016118ce565b91505092915050565b600082601f830112611a4b57600080fd5b6014611a5884828561192b565b91505092915050565b600082601f830112611a7257600080fd5b8135611a8284826020860161197f565b91505092915050565b600082601f830112611a9c57600080fd5b8135611aac8482602086016119bd565b91505092915050565b600081359050611ac481612820565b92915050565b600060208284031215611adc57600080fd5b6000611aea848285016119fb565b91505092915050565b60008060008060808587031215611b0957600080fd5b600085013567ffffffffffffffff811115611b2357600080fd5b611b2f87828801611a8b565b945050602085013567ffffffffffffffff811115611b4c57600080fd5b611b5887828801611a8b565b935050604085013567ffffffffffffffff811115611b7557600080fd5b611b8187828801611a8b565b925050606085013567ffffffffffffffff811115611b9e57600080fd5b611baa87828801611a10565b91505092959194509250565b600060208284031215611bc857600080fd5b6000611bd684828501611ab5565b91505092915050565b6000611beb8383611d3f565b905092915050565b6000611bff8383611db4565b905092915050565b6000611c138383611e95565b905092915050565b6000611c278383611ece565b905092915050565b6000611c3b838361210e565b60208301905092915050565b611c5081612637565b82525050565b6000611c6182612450565b611c6b81856124d3565b935083602082028501611c7d856123dd565b8060005b85811015611cb95784840389528151611c9a8582611bdf565b9450611ca583612492565b925060208a01995050600181019050611c81565b50829750879550505050505092915050565b6000611cd68261245b565b611ce081856124d3565b935083602082028501611cf2856123ed565b8060005b85811015611d2d57848403895281611d0e8582611bf3565b9450611d198361249f565b925060208a01995050600181019050611cf6565b50829750879550505050505092915050565b6000611d4a82612466565b611d5481856124e4565b935083602082028501611d6685612402565b8060005b85811015611da25784840389528151611d838582611c07565b9450611d8e836124ac565b925060208a01995050600181019050611d6a565b50829750879550505050505092915050565b6000611dbf82612471565b611dc981856124e4565b935083602082028501611ddb8561240c565b8060005b85811015611e1657848403895281611df78582611c1b565b9450611e02836124b9565b925060208a01995050600181019050611ddf565b50829750879550505050505092915050565b6000611e338261247c565b611e3d81856124ef565b9350611e4883612416565b8060005b83811015611e79578151611e608882611c2f565b9750611e6b836124c6565b925050600181019050611e4c565b5085935050505092915050565b611e8f81612649565b82525050565b6000611ea082612487565b611eaa8185612500565b9350611eba81856020860161268e565b611ec3816127f8565b840191505092915050565b60008154611edb816126c1565b611ee58186612500565b94506001821660008114611f005760018114611f1257611f45565b60ff1983168652602086019350611f45565b611f1b85612426565b60005b83811015611f3d57815481890152600182019150602081019050611f1e565b808801955050505b50505092915050565b60008154611f5b816126c1565b611f658186612511565b94506001821660008114611f805760018114611f9257611fc5565b60ff1983168652602086019350611fc5565b611f9b8561243b565b60005b83811015611fbd57815481890152600182019150602081019050611f9e565b808801955050505b50505092915050565b6000611fdb601183612511565b91507f6f6e6c79206f7267616e697a6174696f6e0000000000000000000000000000006000830152602082019050919050565b600061201b600e83612511565b91507f6f6e6c79206d6f64657261746f720000000000000000000000000000000000006000830152602082019050919050565b600061205b601583612511565b91507f4d6178696d756d206c696d6974207265616368656400000000000000000000006000830152602082019050919050565b600061209b601683612511565b91507f7468652067616d6520686173206e6f7420656e646564000000000000000000006000830152602082019050919050565b60006120db601683612511565b91507f496e73756666696369656e7420656e74727920666565000000000000000000006000830152602082019050919050565b61211781612675565b82525050565b61212681612675565b82525050565b60006020820190506121416000830184611c47565b92915050565b600060408201905061215c6000830185611c47565b818103602083015261216e8184611c56565b90509392505050565b600060208201905081810360008301526121918184611e28565b905092915050565b60006020820190506121ae6000830184611e86565b92915050565b600060e08201905081810360008301526121ce818a611f4e565b905081810360208301526121e28189611f4e565b905081810360408301526121f68188611f4e565b9050818103606083015261220a8187611ccb565b9050612219608083018661211d565b61222660a083018561211d565b61223360c0830184611c47565b98975050505050505050565b6000602082019050818103600083015261225881611fce565b9050919050565b600060208201905081810360008301526122788161200e565b9050919050565b600060208201905081810360008301526122988161204e565b9050919050565b600060208201905081810360008301526122b88161208e565b9050919050565b600060208201905081810360008301526122d8816120ce565b9050919050565b60006020820190506122f4600083018461211d565b92915050565b6000604051905081810181811067ffffffffffffffff82111715612321576123206127c9565b5b8060405250919050565b600067ffffffffffffffff821115612346576123456127c9565b5b602082029050602081019050919050565b600067ffffffffffffffff821115612372576123716127c9565b5b602082029050919050565b600067ffffffffffffffff821115612398576123976127c9565b5b601f19601f8301169050602081019050919050565b600067ffffffffffffffff8211156123c8576123c76127c9565b5b601f19601f8301169050602081019050919050565b6000819050602082019050919050565b60008190508160005260206000209050919050565b6000819050919050565b6000819050919050565b6000819050602082019050919050565b60008190508160005260206000209050919050565b60008190508160005260206000209050919050565b600081519050919050565b600081549050919050565b600060149050919050565b600060149050919050565b600081519050919050565b600081519050919050565b6000602082019050919050565b6000601482019050919050565b6000602082019050919050565b6000600182019050919050565b6000602082019050919050565b600082825260208201905092915050565b600081905092915050565b600082825260208201905092915050565b600082825260208201905092915050565b600082825260208201905092915050565b600061252d82612675565b915061253883612675565b9250827fffffffffffffffffffffffffffffffffffffffffffffffffffffffffffffffff0382111561256d5761256c61273c565b5b828201905092915050565b600061258382612675565b915061258e83612675565b92508261259e5761259d61276b565b5b828204905092915050565b60006125b482612675565b91506125bf83612675565b9250817fffffffffffffffffffffffffffffffffffffffffffffffffffffffffffffffff04831182151516156125f8576125f761273c565b5b828202905092915050565b600061260e82612675565b915061261983612675565b92508282101561262c5761262b61273c565b5b828203905092915050565b600061264282612655565b9050919050565b60008115159050919050565b600073ffffffffffffffffffffffffffffffffffffffff82169050919050565b6000819050919050565b82818337600083830152505050565b60005b838110156126ac578082015181840152602081019050612691565b838111156126bb576000848401525b50505050565b600060028204905060018216806126d957607f821691505b602082108114156126ed576126ec61279a565b5b50919050565b60006126fe82612675565b91507fffffffffffffffffffffffffffffffffffffffffffffffffffffffffffffffff8214156127315761273061273c565b5b600182019050919050565b7f4e487b7100000000000000000000000000000000000000000000000000000000600052601160045260246000fd5b7f4e487b7100000000000000000000000000000000000000000000000000000000600052601260045260246000fd5b7f4e487b7100000000000000000000000000000000000000000000000000000000600052602260045260246000fd5b7f4e487b7100000000000000000000000000000000000000000000000000000000600052604160045260246000fd5b6000601f19601f8301169050919050565b61281281612637565b811461281d57600080fd5b50565b61282981612675565b811461283457600080fd5b5056fea2646970667358221220df6df81e39ca431202335a4bf7f0fab344429815bfdde1821396e1e5990262d464736f6c63430008000033a2646970667358221220729f13425d03fd529acf9071226328b6ef3286630aa4529216bde53348cf273064736f6c63430008000033",
  "immutableReferences": {},
  "source": "// SPDX-License-Identifier: MIT\r\npragma solidity >=0.8.0;\r\n\r\nimport \"@openzeppelin/contracts/token/ERC721/extensions/ERC721URIStorage.sol\"; \r\nimport \"@openzeppelin/contracts/access/Ownable.sol\";\r\nimport \"@openzeppelin/contracts/utils/Counters.sol\";\r\n\r\n\r\nlibrary MyMathlib{\r\n    function sqrt(uint num) internal pure returns(uint){\r\n        uint start = 1;\r\n        uint end = num;\r\n        uint mid = start;\r\n        while(start < end){\r\n            mid = start + (end - start)/2;\r\n            if(mid * mid >= num){\r\n                end = mid;\r\n            }else{\r\n                start = mid+1;\r\n            }\r\n        }\r\n        return end;\r\n    }\r\n\r\n    function sum(uint[] memory arr) internal pure returns (uint){\r\n        uint buf = 0;\r\n        for(uint i=0; i<arr.length; i++){\r\n            buf += arr[i];\r\n        }\r\n        return buf;\r\n    }\r\n}\r\n\r\n\r\ncontract Knitts{\r\n    // using  MyMathlib for *;\r\n    //organization address here\r\n    address organization = 0x79e6234Ff4E7DB556F916FeBcE9e52a68D0B8879;\r\n    mapping(address => uint) deposits;\r\n    address[] public Leagues;\r\n  \taddress[] Users;\r\n  \tmapping(address => address) idToUser; \r\n  \t\r\n    function depositMore() public payable{\r\n        require(msg.value > 0, \"You need to deposit some amount\");\r\n        deposits[msg.sender] += msg.value;\r\n    }\r\n\r\n    function createLeague(uint _entryFee, uint _numPlayers, uint _duration) public returns(address[] memory){\r\n        require(_entryFee * _numPlayers <= deposits[msg.sender], \"Insufficient deposit\");\r\n        League newLeague = new League(msg.sender, _entryFee, _numPlayers, _duration, address(this));\r\n        Leagues.push(address(newLeague));\r\n        return Leagues;\r\n    }\r\n\r\n    function getBalance(address _moderator) public view returns (uint){\r\n        return deposits[_moderator];\r\n    }\r\n\r\n  \r\n  \tfunction getUserContractAddress(address _id) public view returns(address) {\r\n        return idToUser[_id];\r\n    }\r\n}\r\n\r\ncontract League{\r\n    using  MyMathlib for *;\r\n    address public organization;\r\n    uint public entryFee;\r\n    uint public maxParticipants;\r\n    uint public numProjects;\r\n    address [] public participants;\r\n    address public moderator;\r\n    uint public duration;\r\n    bool public started;\r\n    bool public ended;\r\n    bool public distributed;\r\n  \tuint public total_points=0;\r\n    uint [] public points;\r\n    address public knittsAddress;\r\n\r\n    struct project{\r\n        string title;\r\n        string url;\r\n        string image;\r\n        address owner;\r\n        bytes[20][] description;\r\n        mapping(address => uint)investments;\r\n        address[] investors;\r\n        uint total_fund;\r\n    }\r\n\t\t\r\n    mapping(uint => project) projects;\r\n\r\n    constructor(address _moderator, uint _entryFee, uint _maxParticipants, uint _duration, address _knittsAddress){\r\n        entryFee = _entryFee;\r\n        maxParticipants = _maxParticipants;\r\n        moderator = _moderator;\r\n        duration = _duration;\r\n        numProjects = 0;\r\n        started=false;\r\n        ended=false;\r\n        distributed=false;\r\n        organization = _moderator; // for local testing\r\n        knittsAddress = _knittsAddress;\r\n    }\r\n\r\n    function submitIdea(string memory title, string memory url, string memory image, bytes[20][] memory description) external payable returns(uint){\r\n        require(msg.value >= entryFee, \"Insufficient entry fee\");\r\n        require(numProjects < maxParticipants, \"Maximum limit reached\");\r\n        project storage p = projects[numProjects++];\r\n        p.title = title;\r\n        p.url = url;\r\n        p.image = image;\r\n        p.owner = msg.sender;\r\n        p.description = description;\r\n        return numProjects;\r\n    }\r\n\r\n    function invest(uint projectId) external payable{\r\n        project storage p = projects[projectId];\r\n        if(p.investments[msg.sender] == 0){\r\n            p.investors.push(msg.sender);\r\n        }\r\n        p.total_fund += msg.value/1e12;\r\n        p.investments[msg.sender] += msg.value/1e12;\r\n        \r\n    }\r\n\r\n    function startLeague() external {\r\n        require(msg.sender == organization, \"only moderator\");\r\n        started=true;\r\n    }\r\n\r\n    function endLeague() external returns(uint[] memory){\r\n        require(msg.sender == organization, \"only organization\");\r\n        ended=true;\r\n        getPoints();\r\n      \ttotal_points = points.sum();\r\n        uint averagePoints = total_points / numProjects;\r\n      \r\n      \tfor(uint i=0;i<numProjects; i++) {\r\n            Knitts _knitts = Knitts(knittsAddress);\r\n            address _userId = _knitts.getUserContractAddress(projects[i].owner);\r\n            User _user = User(_userId);\r\n            _user.addProject(projects[i].title, projects[i].url, projects[i].image, projects[i].description, points[i] , averagePoints, address(this) );\r\n        } \r\n\r\n        return points;\r\n    }\r\n\r\n    function getPoints() internal returns(uint[] memory){\r\n        require(ended = true, \"the game has not ended\");\r\n        uint [] memory empty_points;\r\n        points = empty_points;\r\n        for(uint i=0; i < numProjects; i++){\r\n            uint buf = 0;\r\n            project storage p = projects[i];\r\n            for(uint j=0; j< p.investors.length; j++){\r\n                address inv = p.investors[j];\r\n                buf += (p.investments[inv]).sqrt();\r\n            }\r\n            points.push(buf * buf);\r\n        }\r\n        \r\n        return points;\r\n    }\r\n\r\n    function distribute() external {\r\n        require(msg.sender == organization, \"only organization\");\r\n        uint total_balance = address(this).balance;\r\n        \r\n        for(uint i=0; i<numProjects; i++){\r\n            project storage p  =  projects[i];\r\n            \r\n            payable(p.owner).transfer( (3*points[i]*total_balance)/(10*total_points) );\r\n\r\n            for(uint j=0; j<p.investors.length; j++){\r\n                address investor = p.investors[j];\r\n                Knitts _knitts = Knitts(knittsAddress);\r\n                address _userId = _knitts.getUserContractAddress(p.investors[j]);\r\n                User _user = User(_userId);\r\n                _user.split{value:(6 * points[i] * total_balance * p.investments[investor]) / (10 * total_points * p.total_fund)}();\r\n            }\r\n        }\r\n\r\n        payable(moderator).transfer(address(this).balance);\r\n\r\n    }\r\n\r\n    function submissionDetails(uint projectId) external view returns(\r\n        address, // project owner\r\n        bytes[20][] memory // description\r\n    )  {\r\n        return (projects[projectId].owner, projects[projectId].description);\r\n    }\r\n\r\n    \r\n}\r\n\r\n\r\ncontract User {\r\n    string name;\r\n  \taddress id; //metamask address of corresponding user\r\n  \tuint numProjects=0;\r\n    address[] public NFTs_created;\r\n    bool public pending_nfts = false;\r\n    constructor( address _id, string memory _name ) {\r\n        name = _name;\r\n        id = _id;\r\n    }\r\n\r\n    struct project{\r\n        string title;\r\n        string url;\r\n        string image;\r\n            bytes[20][] description;\r\n            uint point;\r\n            uint average_point;\r\n            address submittedOn;\r\n    }\r\n\r\n        project[20] public projects;\r\n    \r\n    function addProject(string memory title, string memory url, string memory image, bytes[20][] memory description, uint point, uint average_point, address submittedOn) public {\r\n        project storage p = projects[numProjects++];\r\n        p.title = title;\r\n        p.url = url;\r\n        p.image = image;\r\n        p.description = description;\r\n        p.point = point;\r\n        p.average_point = average_point;\r\n        p.submittedOn = submittedOn;\r\n    }\r\n    \r\n\r\n    function createNFT(uint _bronze) public returns(address [] memory){\r\n        require(_bronze <= 10, \"You can create only 10 bronzes\");\r\n        require(pending_nfts == false, \"There are pending nfts still\");\r\n        require(msg.sender == id, \"wrong user account\");\r\n        for(uint i=0; i<_bronze; i++){\r\n            NFT new_nft = new NFT(\"Bronze\", \"B\", id, 'https://s3.envato.com/files/235568921/preview.jpg', 1);\r\n            NFTs_created.push(address(new_nft));\r\n        }\r\n        return NFTs_created;\r\n    }\r\n\r\n    function split() external payable {\r\n        uint value = (msg.value * 95) / 100;\r\n        scratchNFTs();\r\n        for(uint i=0; i<NFTs_created.length; i++){\r\n            NFT nft = NFT(NFTs_created[i]);\r\n            payable(nft.ownerOf(1)).transfer((value * (NFTs_created.length))/10);\r\n        }\r\n        payable(id).transfer(address(this).balance);\r\n    }\r\n\r\n    function scratchNFTs() internal returns(uint){\r\n        uint rem = 0;\r\n        for(uint i=0; i<NFTs_created.length; i++){\r\n            NFT new_nft =  NFT(NFTs_created[i]);\r\n            rem = new_nft.scratchCard();\r\n        }\r\n        if(rem == 0){\r\n            pending_nfts = false;\r\n            address [] memory temp;\r\n            NFTs_created = temp;\r\n        }\r\n        return rem;\r\n    }\r\n  \r\n}\r\n\r\ncontract NFT is ERC721URIStorage, Ownable{\r\n    using Counters for Counters.Counter;\r\n    Counters.Counter private _tokenIds;\r\n    address nft_creator;\r\n    address nft_owner;\r\n    uint leaguesMore;\r\n    constructor(string memory _name, string memory _symbol, address _player, string memory _tokenURI, uint _leaguesMore) ERC721(_name, _symbol){\r\n        nft_creator = msg.sender;\r\n        nft_owner = msg.sender;\r\n        leaguesMore = _leaguesMore;\r\n        _tokenIds.increment();\r\n        uint256 newItemId = _tokenIds.current();\r\n        _mint(_player, newItemId);\r\n        _setTokenURI(newItemId, _tokenURI);\r\n    }\r\n\r\n    function scratchCard() public returns (uint){\r\n        require(leaguesMore > 0, \"expired\");\r\n        leaguesMore -= 1;\r\n        if(leaguesMore == 0){\r\n            _burn(1);\r\n        }\r\n        return leaguesMore;\r\n    }\r\n    \r\n\r\n}\r\n\r\n",
  "sourcePath": "E:\\projects\\knitts\\back-end\\contracts\\League.sol",
  "compiler": {
    "name": "solc",
    "version": "0.8.0+commit.c7dfd78e.Emscripten.clang"
  },
  "schemaVersion": "3.4.3",
  "updatedAt": "2021-09-30T16:33:14.170Z",
  "networkType": "ethereum",
  "devdoc": {
    "kind": "dev",
    "methods": {},
    "version": 1
  },
  "userdoc": {
    "kind": "user",
    "methods": {},
    "version": 1
  }
}