{
  "contractName": "Knitts",
  "abi": [
    {
      "inputs": [
        {
          "internalType": "uint256",
          "name": "",
          "type": "uint256"
        }
      ],
      "name": "Leagues",
      "outputs": [
        {
          "internalType": "address",
          "name": "",
          "type": "address"
        }
      ],
      "stateMutability": "view",
      "type": "function",
      "constant": true
    },
    {
      "inputs": [],
      "name": "depositMore",
      "outputs": [],
      "stateMutability": "payable",
      "type": "function",
      "payable": true
    },
    {
      "inputs": [
        {
          "internalType": "uint256",
          "name": "_entryFee",
          "type": "uint256"
        },
        {
          "internalType": "uint256",
          "name": "_numPlayers",
          "type": "uint256"
        },
        {
          "internalType": "uint256",
          "name": "_duration",
          "type": "uint256"
        }
      ],
      "name": "createLeague",
      "outputs": [
        {
          "internalType": "address[]",
          "name": "",
          "type": "address[]"
        }
      ],
      "stateMutability": "nonpayable",
      "type": "function"
    },
    {
      "inputs": [
        {
          "internalType": "address",
          "name": "_moderator",
          "type": "address"
        }
      ],
      "name": "getBalance",
      "outputs": [
        {
          "internalType": "uint256",
          "name": "",
          "type": "uint256"
        }
      ],
      "stateMutability": "view",
      "type": "function",
      "constant": true
    },
    {
      "inputs": [
        {
          "internalType": "address",
          "name": "_id",
          "type": "address"
        }
      ],
      "name": "getUserContractAddress",
      "outputs": [
        {
          "internalType": "address",
          "name": "",
          "type": "address"
        }
      ],
      "stateMutability": "view",
      "type": "function",
      "constant": true
    },
    {
      "inputs": [
        {
          "internalType": "address",
          "name": "id",
          "type": "address"
        },
        {
          "internalType": "address",
          "name": "userContract",
          "type": "address"
        }
      ],
      "name": "register",
      "outputs": [],
      "stateMutability": "nonpayable",
      "type": "function"
    }
  ],
  "bytecode": "0x60806040527379e6234ff4e7db556f916febce9e52a68d0b88796000806101000a81548173ffffffffffffffffffffffffffffffffffffffff021916908373ffffffffffffffffffffffffffffffffffffffff16021790555034801561006457600080fd5b506136dd806100746000396000f3fe6080604052600436106200005c5760003560e01c806319fe7a8314620000615780636017318014620000a5578063a6e497b614620000b1578063aa67735414620000f5578063e9ff6f5c1462000123578063f8b2cb4f1462000167575b600080fd5b3480156200006e57600080fd5b506200008d600480360381019062000087919062000637565b620001ab565b6040516200009c9190620007f4565b60405180910390f35b620000af620001eb565b005b348015620000be57600080fd5b50620000dd6004803603810190620000d79190620005ca565b6200028b565b604051620000ec9190620007f4565b60405180910390f35b3480156200010257600080fd5b506200012160048036038101906200011b9190620005f6565b620002f4565b005b3480156200013057600080fd5b506200014f600480360381019062000149919062000663565b62000376565b6040516200015e91906200086e565b60405180910390f35b3480156200017457600080fd5b506200019360048036038101906200018d9190620005ca565b62000545565b604051620001a29190620008d6565b60405180910390f35b60028181548110620001bc57600080fd5b906000526020600020016000915054906101000a900473ffffffffffffffffffffffffffffffffffffffff1681565b6000341162000231576040517f08c379a0000000000000000000000000000000000000000000000000000000008152600401620002289062000892565b60405180910390fd5b34600160003373ffffffffffffffffffffffffffffffffffffffff1673ffffffffffffffffffffffffffffffffffffffff16815260200190815260200160002060008282546200028291906200093d565b92505081905550565b6000600460008373ffffffffffffffffffffffffffffffffffffffff1673ffffffffffffffffffffffffffffffffffffffff16815260200190815260200160002060009054906101000a900473ffffffffffffffffffffffffffffffffffffffff169050919050565b80600460008473ffffffffffffffffffffffffffffffffffffffff1673ffffffffffffffffffffffffffffffffffffffff16815260200190815260200160002060006101000a81548173ffffffffffffffffffffffffffffffffffffffff021916908373ffffffffffffffffffffffffffffffffffffffff1602179055505050565b6060600160003373ffffffffffffffffffffffffffffffffffffffff1673ffffffffffffffffffffffffffffffffffffffff168152602001908152602001600020548385620003c691906200099a565b11156200040a576040517f08c379a00000000000000000000000000000000000000000000000000000000081526004016200040190620008b4565b60405180910390fd5b600033858585306040516200041f906200058e565b6200042f95949392919062000811565b604051809103906000f0801580156200044c573d6000803e3d6000fd5b5090506002819080600181540180825580915050600190039060005260206000200160009091909190916101000a81548173ffffffffffffffffffffffffffffffffffffffff021916908373ffffffffffffffffffffffffffffffffffffffff16021790555060028054806020026020016040519081016040528092919081815260200182805480156200053657602002820191906000526020600020905b8160009054906101000a900473ffffffffffffffffffffffffffffffffffffffff1673ffffffffffffffffffffffffffffffffffffffff1681526020019060010190808311620004eb575b50505050509150509392505050565b6000600160008373ffffffffffffffffffffffffffffffffffffffff1673ffffffffffffffffffffffffffffffffffffffff168152602001908152602001600020549050919050565b612c0b8062000a9d83390190565b600081359050620005ad8162000a68565b92915050565b600081359050620005c48162000a82565b92915050565b600060208284031215620005dd57600080fd5b6000620005ed848285016200059c565b91505092915050565b600080604083850312156200060a57600080fd5b60006200061a858286016200059c565b92505060206200062d858286016200059c565b9150509250929050565b6000602082840312156200064a57600080fd5b60006200065a84828501620005b3565b91505092915050565b6000806000606084860312156200067957600080fd5b60006200068986828701620005b3565b93505060206200069c86828701620005b3565b9250506040620006af86828701620005b3565b9150509250925092565b6000620006c78383620006d3565b60208301905092915050565b620006de81620009fb565b82525050565b620006ef81620009fb565b82525050565b6000620007028262000903565b6200070e81856200091b565b93506200071b83620008f3565b8060005b8381101562000752578151620007368882620006b9565b975062000743836200090e565b9250506001810190506200071f565b5085935050505092915050565b60006200076e601f836200092c565b91507f596f75206e65656420746f206465706f73697420736f6d6520616d6f756e74006000830152602082019050919050565b6000620007b06014836200092c565b91507f496e73756666696369656e74206465706f7369740000000000000000000000006000830152602082019050919050565b620007ee8162000a2f565b82525050565b60006020820190506200080b6000830184620006e4565b92915050565b600060a082019050620008286000830188620006e4565b620008376020830187620007e3565b620008466040830186620007e3565b620008556060830185620007e3565b620008646080830184620006e4565b9695505050505050565b600060208201905081810360008301526200088a8184620006f5565b905092915050565b60006020820190508181036000830152620008ad816200075f565b9050919050565b60006020820190508181036000830152620008cf81620007a1565b9050919050565b6000602082019050620008ed6000830184620007e3565b92915050565b6000819050602082019050919050565b600081519050919050565b6000602082019050919050565b600082825260208201905092915050565b600082825260208201905092915050565b60006200094a8262000a2f565b9150620009578362000a2f565b9250827fffffffffffffffffffffffffffffffffffffffffffffffffffffffffffffffff038211156200098f576200098e62000a39565b5b828201905092915050565b6000620009a78262000a2f565b9150620009b48362000a2f565b9250817fffffffffffffffffffffffffffffffffffffffffffffffffffffffffffffffff0483118215151615620009f057620009ef62000a39565b5b828202905092915050565b600062000a088262000a0f565b9050919050565b600073ffffffffffffffffffffffffffffffffffffffff82169050919050565b6000819050919050565b7f4e487b7100000000000000000000000000000000000000000000000000000000600052601160045260246000fd5b62000a7381620009fb565b811462000a7f57600080fd5b50565b62000a8d8162000a2f565b811462000a9957600080fd5b5056fe608060405260006008553480156200001657600080fd5b5060405162002c0b38038062002c0b83398181016040528101906200003c9190620001a5565b836001819055508260028190555084600560006101000a81548173ffffffffffffffffffffffffffffffffffffffff021916908373ffffffffffffffffffffffffffffffffffffffff1602179055508160068190555060006003819055506000600760006101000a81548160ff0219169083151502179055506000600760016101000a81548160ff0219169083151502179055506000600760026101000a81548160ff021916908315150217905550846000806101000a81548173ffffffffffffffffffffffffffffffffffffffff021916908373ffffffffffffffffffffffffffffffffffffffff16021790555080600a60006101000a81548173ffffffffffffffffffffffffffffffffffffffff021916908373ffffffffffffffffffffffffffffffffffffffff160217905550505050505062000299565b600081519050620001888162000265565b92915050565b6000815190506200019f816200027f565b92915050565b600080600080600060a08688031215620001be57600080fd5b6000620001ce8882890162000177565b9550506020620001e1888289016200018e565b9450506040620001f4888289016200018e565b935050606062000207888289016200018e565b92505060806200021a8882890162000177565b9150509295509295909350565b600062000234826200023b565b9050919050565b600073ffffffffffffffffffffffffffffffffffffffff82169050919050565b6000819050919050565b620002708162000227565b81146200027c57600080fd5b50565b6200028a816200025b565b81146200029657600080fd5b50565b61296280620002a96000396000f3fe6080604052600436106101145760003560e01c80632afcf480116100a0578063a19eb3c611610064578063a19eb3c61461038d578063c3b7a80f146103b8578063d235407b146103cf578063e4fc6b6d1461040d578063f84b903e1461042457610114565b80632afcf480146102a157806335c1d349146102bd57806338743904146102fa5780635a067baa146103255780639799b4e71461035057610114565b80632185ce83116100e75780632185ce83146101c557806323bd4d7a146101f557806324924bf71461022057806324fd79181461024b57806325d5eafa1461027657610114565b8063072ea61c146101195780630fb5a6b41461014457806312fa6feb1461016f5780631f2698ab1461019a575b600080fd5b34801561012557600080fd5b5061012e61044f565b60405161013b91906123f7565b60405180910390f35b34801561015057600080fd5b50610159610455565b60405161016691906123f7565b60405180910390f35b34801561017b57600080fd5b5061018461045b565b6040516101919190612296565b60405180910390f35b3480156101a657600080fd5b506101af61046e565b6040516101bc9190612296565b60405180910390f35b6101df60048036038101906101da9190611b11565b610481565b6040516101ec91906123f7565b60405180910390f35b34801561020157600080fd5b5061020a6105f0565b6040516102179190612207565b60405180910390f35b34801561022c57600080fd5b50610235610614565b60405161024291906123f7565b60405180910390f35b34801561025757600080fd5b5061026061061a565b60405161026d9190612274565b60405180910390f35b34801561028257600080fd5b5061028b610a3a565b60405161029891906123f7565b60405180910390f35b6102bb60048036038101906102b69190611bd4565b610a40565b005b3480156102c957600080fd5b506102e460048036038101906102df9190611bd4565b610b9e565b6040516102f19190612207565b60405180910390f35b34801561030657600080fd5b5061030f610bdd565b60405161031c9190612207565b60405180910390f35b34801561033157600080fd5b5061033a610c03565b60405161034791906123f7565b60405180910390f35b34801561035c57600080fd5b5061037760048036038101906103729190611bd4565b610c09565b60405161038491906123f7565b60405180910390f35b34801561039957600080fd5b506103a2610c2d565b6040516103af9190612207565b60405180910390f35b3480156103c457600080fd5b506103cd610c53565b005b3480156103db57600080fd5b506103f660048036038101906103f19190611bd4565b610cfe565b604051610404929190612222565b60405180910390f35b34801561041957600080fd5b50610422610e64565b005b34801561043057600080fd5b5061043961135f565b6040516104469190612296565b60405180910390f35b60015481565b60065481565b600760019054906101000a900460ff1681565b600760009054906101000a900460ff1681565b60006001543410156104c8576040517f08c379a00000000000000000000000000000000000000000000000000000000081526004016104bf906123bc565b60405180910390fd5b6002546003541061050e576040517f08c379a00000000000000000000000000000000000000000000000000000000081526004016105059061237c565b60405180910390fd5b6000600b600060036000815480929190610527906127e8565b919050558152602001908152602001600020905085816000019080519060200190610553929190611615565b508481600101908051906020019061056c929190611615565b5083816002019080519060200190610585929190611615565b50338160030160006101000a81548173ffffffffffffffffffffffffffffffffffffffff021916908373ffffffffffffffffffffffffffffffffffffffff160217905550828160040190805190602001906105e192919061169b565b50600354915050949350505050565b60008054906101000a900473ffffffffffffffffffffffffffffffffffffffff1681565b60025481565b606060008054906101000a900473ffffffffffffffffffffffffffffffffffffffff1673ffffffffffffffffffffffffffffffffffffffff163373ffffffffffffffffffffffffffffffffffffffff16146106aa576040517f08c379a00000000000000000000000000000000000000000000000000000000081526004016106a19061233c565b60405180910390fd5b6001600760016101000a81548160ff0219169083151502179055506106cd611372565b50600980548060200260200160405190810160405280929190818152602001828054801561071a57602002820191906000526020600020905b815481526020019060010190808311610706575b505050505073__MyMathlib_____________________________630194db8e90916040518263ffffffff1660e01b81526004016107579190612252565b60206040518083038186803b15801561076f57600080fd5b505af4158015610783573d6000803e3d6000fd5b505050506040513d601f19601f820116820180604052508101906107a79190611bfd565b60088190555060006003546008546107bf91906126a1565b905060005b6003548110156109e2576000600a60009054906101000a900473ffffffffffffffffffffffffffffffffffffffff16905060008173ffffffffffffffffffffffffffffffffffffffff1663a6e497b6600b600086815260200190815260200160002060030160009054906101000a900473ffffffffffffffffffffffffffffffffffffffff166040518263ffffffff1660e01b81526004016108669190612207565b60206040518083038186803b15801561087e57600080fd5b505afa158015610892573d6000803e3d6000fd5b505050506040513d601f19601f820116820180604052508101906108b69190611ae8565b905060008190508073ffffffffffffffffffffffffffffffffffffffff1663fbf7de84600b6000878152602001908152602001600020600001600b6000888152602001908152602001600020600101600b6000898152602001908152602001600020600201600b60008a815260200190815260200160002060040160098a8154811061096b577f4e487b7100000000000000000000000000000000000000000000000000000000600052603260045260246000fd5b90600052602060002001548b306040518863ffffffff1660e01b815260040161099a97969594939291906122b1565b600060405180830381600087803b1580156109b457600080fd5b505af11580156109c8573d6000803e3d6000fd5b5050505050505080806109da906127e8565b9150506107c4565b506009805480602002602001604051908101604052809291908181526020018280548015610a2f57602002820191906000526020600020905b815481526020019060010190808311610a1b575b505050505091505090565b60085481565b6000600b6000838152602001908152602001600020905060008160050160003373ffffffffffffffffffffffffffffffffffffffff1673ffffffffffffffffffffffffffffffffffffffff168152602001908152602001600020541415610b075780600601339080600181540180825580915050600190039060005260206000200160009091909190916101000a81548173ffffffffffffffffffffffffffffffffffffffff021916908373ffffffffffffffffffffffffffffffffffffffff1602179055505b64e8d4a5100034610b1891906126a1565b816007016000828254610b2b919061264b565b9250508190555064e8d4a5100034610b4391906126a1565b8160050160003373ffffffffffffffffffffffffffffffffffffffff1673ffffffffffffffffffffffffffffffffffffffff1681526020019081526020016000206000828254610b93919061264b565b925050819055505050565b60048181548110610bae57600080fd5b906000526020600020016000915054906101000a900473ffffffffffffffffffffffffffffffffffffffff1681565b600560009054906101000a900473ffffffffffffffffffffffffffffffffffffffff1681565b60035481565b60098181548110610c1957600080fd5b906000526020600020016000915090505481565b600a60009054906101000a900473ffffffffffffffffffffffffffffffffffffffff1681565b60008054906101000a900473ffffffffffffffffffffffffffffffffffffffff1673ffffffffffffffffffffffffffffffffffffffff163373ffffffffffffffffffffffffffffffffffffffff1614610ce1576040517f08c379a0000000000000000000000000000000000000000000000000000000008152600401610cd89061235c565b60405180910390fd5b6001600760006101000a81548160ff021916908315150217905550565b60006060600b600084815260200190815260200160002060030160009054906101000a900473ffffffffffffffffffffffffffffffffffffffff16600b600085815260200190815260200160002060040180805480602002602001604051908101604052809291908181526020016000905b82821015610e555783829060005260206000209060140201601480602002604051908101604052809291906000905b82821015610e42578382018054610db5906127b6565b80601f0160208091040260200160405190810160405280929190818152602001828054610de1906127b6565b8015610e2e5780601f10610e0357610100808354040283529160200191610e2e565b820191906000526020600020905b815481529060010190602001808311610e1157829003601f168201915b505050505081526020019060010190610d9f565b5050505081526020019060010190610d70565b50505050905091509150915091565b60008054906101000a900473ffffffffffffffffffffffffffffffffffffffff1673ffffffffffffffffffffffffffffffffffffffff163373ffffffffffffffffffffffffffffffffffffffff1614610ef2576040517f08c379a0000000000000000000000000000000000000000000000000000000008152600401610ee99061233c565b60405180910390fd5b600047905060005b6003548110156112f2576000600b600083815260200190815260200160002090508060030160009054906101000a900473ffffffffffffffffffffffffffffffffffffffff1673ffffffffffffffffffffffffffffffffffffffff166108fc600854600a610f6891906126d2565b8560098681548110610fa3577f4e487b7100000000000000000000000000000000000000000000000000000000600052603260045260246000fd5b90600052602060002001546003610fba91906126d2565b610fc491906126d2565b610fce91906126a1565b9081150290604051600060405180830381858888f19350505050158015610ff9573d6000803e3d6000fd5b5060005b81600601805490508110156112dd57600082600601828154811061104a577f4e487b7100000000000000000000000000000000000000000000000000000000600052603260045260246000fd5b9060005260206000200160009054906101000a900473ffffffffffffffffffffffffffffffffffffffff1690506000600a60009054906101000a900473ffffffffffffffffffffffffffffffffffffffff16905060008173ffffffffffffffffffffffffffffffffffffffff1663a6e497b68660060186815481106110f8577f4e487b7100000000000000000000000000000000000000000000000000000000600052603260045260246000fd5b9060005260206000200160009054906101000a900473ffffffffffffffffffffffffffffffffffffffff166040518263ffffffff1660e01b815260040161113f9190612207565b60206040518083038186803b15801561115757600080fd5b505afa15801561116b573d6000803e3d6000fd5b505050506040513d601f19601f8201168201806040525081019061118f9190611ae8565b905060008190508073ffffffffffffffffffffffffffffffffffffffff1663f76541768760070154600854600a6111c691906126d2565b6111d091906126d2565b8860050160008873ffffffffffffffffffffffffffffffffffffffff1673ffffffffffffffffffffffffffffffffffffffff168152602001908152602001600020548b60098c8154811061124d577f4e487b7100000000000000000000000000000000000000000000000000000000600052603260045260246000fd5b9060005260206000200154600661126491906126d2565b61126e91906126d2565b61127891906126d2565b61128291906126a1565b6040518263ffffffff1660e01b81526004016000604051808303818588803b1580156112ad57600080fd5b505af11580156112c1573d6000803e3d6000fd5b50505050505050505080806112d5906127e8565b915050610ffd565b505080806112ea906127e8565b915050610efa565b50600560009054906101000a900473ffffffffffffffffffffffffffffffffffffffff1673ffffffffffffffffffffffffffffffffffffffff166108fc479081150290604051600060405180830381858888f1935050505015801561135b573d6000803e3d6000fd5b5050565b600760029054906101000a900460ff1681565b60606001600760016101000a81548160ff02191690831515021790556113cd576040517f08c379a00000000000000000000000000000000000000000000000000000000081526004016113c49061239c565b60405180910390fd5b606080600990805190602001906113e59291906116f9565b5060005b6003548110156115bd57600080600b6000848152602001908152602001600020905060005b816006018054905081101561157357600082600601828154811061145b577f4e487b7100000000000000000000000000000000000000000000000000000000600052603260045260246000fd5b9060005260206000200160009054906101000a900473ffffffffffffffffffffffffffffffffffffffff1690508260050160008273ffffffffffffffffffffffffffffffffffffffff1673ffffffffffffffffffffffffffffffffffffffff1681526020019081526020016000205473__MyMathlib_____________________________63677342ce90916040518263ffffffff1660e01b815260040161150291906123dc565b60206040518083038186803b15801561151a57600080fd5b505af415801561152e573d6000803e3d6000fd5b505050506040513d601f19601f820116820180604052508101906115529190611bfd565b8461155d919061264b565b935050808061156b906127e8565b91505061140e565b506009828361158291906126d2565b9080600181540180825580915050600190039060005260206000200160009091909190915055505080806115b5906127e8565b9150506113e9565b50600980548060200260200160405190810160405280929190818152602001828054801561160a57602002820191906000526020600020905b8154815260200190600101908083116115f6575b505050505091505090565b828054611621906127b6565b90600052602060002090601f016020900481019282611643576000855561168a565b82601f1061165c57805160ff191683800117855561168a565b8280016001018555821561168a579182015b8281111561168957825182559160200191906001019061166e565b5b5090506116979190611746565b5090565b8280548282559060005260206000209060140281019282156116e8579160200282015b828111156116e7578251829060146116d7929190611763565b50916020019190601401906116be565b5b5090506116f591906117b6565b5090565b828054828255906000526020600020908101928215611735579160200282015b82811115611734578251825591602001919060010190611719565b5b5090506117429190611746565b5090565b5b8082111561175f576000816000905550600101611747565b5090565b82601481019282156117a5579160200282015b828111156117a45782518290805190602001906117949291906117da565b5091602001919060010190611776565b5b5090506117b29190611860565b5090565b5b808211156117d657600081816117cd9190611884565b506014016117b7565b5090565b8280546117e6906127b6565b90600052602060002090601f016020900481019282611808576000855561184f565b82601f1061182157805160ff191683800117855561184f565b8280016001018555821561184f579182015b8281111561184e578251825591602001919060010190611833565b5b50905061185c9190611746565b5090565b5b8082111561188057600081816118779190611897565b50600101611861565b5090565b5080601401906118949190611860565b50565b5080546118a3906127b6565b6000825580601f106118b557506118d4565b601f0160209004906000526020600020908101906118d39190611746565b5b50565b60006118ea6118e584612443565b612412565b9050808382526020820190508260005b8581101561192a57813585016119108882611a43565b8452602084019350602083019250506001810190506118fa565b5050509392505050565b60006119476119428461246f565b612412565b9050808260005b8581101561197e57813585016119648882611a6a565b84526020840193506020830192505060018101905061194e565b5050509392505050565b600061199b61199684612495565b612412565b9050828152602081018484840111156119b357600080fd5b6119be848285612774565b509392505050565b60006119d96119d4846124c5565b612412565b9050828152602081018484840111156119f157600080fd5b6119fc848285612774565b509392505050565b600081519050611a13816128fe565b92915050565b600082601f830112611a2a57600080fd5b8135611a3a8482602086016118d7565b91505092915050565b600082601f830112611a5457600080fd5b6014611a61848285611934565b91505092915050565b600082601f830112611a7b57600080fd5b8135611a8b848260208601611988565b91505092915050565b600082601f830112611aa557600080fd5b8135611ab58482602086016119c6565b91505092915050565b600081359050611acd81612915565b92915050565b600081519050611ae281612915565b92915050565b600060208284031215611afa57600080fd5b6000611b0884828501611a04565b91505092915050565b60008060008060808587031215611b2757600080fd5b600085013567ffffffffffffffff811115611b4157600080fd5b611b4d87828801611a94565b945050602085013567ffffffffffffffff811115611b6a57600080fd5b611b7687828801611a94565b935050604085013567ffffffffffffffff811115611b9357600080fd5b611b9f87828801611a94565b925050606085013567ffffffffffffffff811115611bbc57600080fd5b611bc887828801611a19565b91505092959194509250565b600060208284031215611be657600080fd5b6000611bf484828501611abe565b91505092915050565b600060208284031215611c0f57600080fd5b6000611c1d84828501611ad3565b91505092915050565b6000611c328383611d9e565b905092915050565b6000611c468383611e13565b905092915050565b6000611c5a8383611f52565b905092915050565b6000611c6e8383611f8b565b905092915050565b6000611c8283836121cb565b60208301905092915050565b6000611c9a83836121f8565b60208301905092915050565b611caf8161272c565b82525050565b6000611cc082612568565b611cca81856125eb565b935083602082028501611cdc856124f5565b8060005b85811015611d185784840389528151611cf98582611c26565b9450611d04836125aa565b925060208a01995050600181019050611ce0565b50829750879550505050505092915050565b6000611d3582612573565b611d3f81856125eb565b935083602082028501611d5185612505565b8060005b85811015611d8c57848403895281611d6d8582611c3a565b9450611d78836125b7565b925060208a01995050600181019050611d55565b50829750879550505050505092915050565b6000611da98261257e565b611db381856125fc565b935083602082028501611dc58561251a565b8060005b85811015611e015784840389528151611de28582611c4e565b9450611ded836125c4565b925060208a01995050600181019050611dc9565b50829750879550505050505092915050565b6000611e1e82612589565b611e2881856125fc565b935083602082028501611e3a85612524565b8060005b85811015611e7557848403895281611e568582611c62565b9450611e61836125d1565b925060208a01995050600181019050611e3e565b50829750879550505050505092915050565b6000611e9282612594565b611e9c8185612607565b9350611ea78361252e565b8060005b83811015611ed8578151611ebf8882611c76565b9750611eca836125de565b925050600181019050611eab565b5085935050505092915050565b6000611ef082612594565b611efa8185612618565b9350611f058361252e565b8060005b83811015611f36578151611f1d8882611c8e565b9750611f28836125de565b925050600181019050611f09565b5085935050505092915050565b611f4c8161273e565b82525050565b6000611f5d8261259f565b611f678185612629565b9350611f77818560208601612783565b611f80816128ed565b840191505092915050565b60008154611f98816127b6565b611fa28186612629565b94506001821660008114611fbd5760018114611fcf57612002565b60ff1983168652602086019350612002565b611fd88561253e565b60005b83811015611ffa57815481890152600182019150602081019050611fdb565b808801955050505b50505092915050565b60008154612018816127b6565b612022818661263a565b9450600182166000811461203d576001811461204f57612082565b60ff1983168652602086019350612082565b61205885612553565b60005b8381101561207a5781548189015260018201915060208101905061205b565b808801955050505b50505092915050565b600061209860118361263a565b91507f6f6e6c79206f7267616e697a6174696f6e0000000000000000000000000000006000830152602082019050919050565b60006120d8600e8361263a565b91507f6f6e6c79206d6f64657261746f720000000000000000000000000000000000006000830152602082019050919050565b600061211860158361263a565b91507f4d6178696d756d206c696d6974207265616368656400000000000000000000006000830152602082019050919050565b600061215860168361263a565b91507f7468652067616d6520686173206e6f7420656e646564000000000000000000006000830152602082019050919050565b600061219860168361263a565b91507f496e73756666696369656e7420656e74727920666565000000000000000000006000830152602082019050919050565b6121d48161276a565b82525050565b6121e38161276a565b82525050565b6121f28161276a565b82525050565b6122018161276a565b82525050565b600060208201905061221c6000830184611ca6565b92915050565b60006040820190506122376000830185611ca6565b81810360208301526122498184611cb5565b90509392505050565b6000602082019050818103600083015261226c8184611ee5565b905092915050565b6000602082019050818103600083015261228e8184611e87565b905092915050565b60006020820190506122ab6000830184611f43565b92915050565b600060e08201905081810360008301526122cb818a61200b565b905081810360208301526122df818961200b565b905081810360408301526122f3818861200b565b905081810360608301526123078187611d2a565b905061231660808301866121da565b61232360a08301856121da565b61233060c0830184611ca6565b98975050505050505050565b600060208201905081810360008301526123558161208b565b9050919050565b60006020820190508181036000830152612375816120cb565b9050919050565b600060208201905081810360008301526123958161210b565b9050919050565b600060208201905081810360008301526123b58161214b565b9050919050565b600060208201905081810360008301526123d58161218b565b9050919050565b60006020820190506123f160008301846121e9565b92915050565b600060208201905061240c60008301846121da565b92915050565b6000604051905081810181811067ffffffffffffffff82111715612439576124386128be565b5b8060405250919050565b600067ffffffffffffffff82111561245e5761245d6128be565b5b602082029050602081019050919050565b600067ffffffffffffffff82111561248a576124896128be565b5b602082029050919050565b600067ffffffffffffffff8211156124b0576124af6128be565b5b601f19601f8301169050602081019050919050565b600067ffffffffffffffff8211156124e0576124df6128be565b5b601f19601f8301169050602081019050919050565b6000819050602082019050919050565b60008190508160005260206000209050919050565b6000819050919050565b6000819050919050565b6000819050602082019050919050565b60008190508160005260206000209050919050565b60008190508160005260206000209050919050565b600081519050919050565b600081549050919050565b600060149050919050565b600060149050919050565b600081519050919050565b600081519050919050565b6000602082019050919050565b6000601482019050919050565b6000602082019050919050565b6000600182019050919050565b6000602082019050919050565b600082825260208201905092915050565b600081905092915050565b600082825260208201905092915050565b600082825260208201905092915050565b600082825260208201905092915050565b600082825260208201905092915050565b60006126568261276a565b91506126618361276a565b9250827fffffffffffffffffffffffffffffffffffffffffffffffffffffffffffffffff0382111561269657612695612831565b5b828201905092915050565b60006126ac8261276a565b91506126b78361276a565b9250826126c7576126c6612860565b5b828204905092915050565b60006126dd8261276a565b91506126e88361276a565b9250817fffffffffffffffffffffffffffffffffffffffffffffffffffffffffffffffff048311821515161561272157612720612831565b5b828202905092915050565b60006127378261274a565b9050919050565b60008115159050919050565b600073ffffffffffffffffffffffffffffffffffffffff82169050919050565b6000819050919050565b82818337600083830152505050565b60005b838110156127a1578082015181840152602081019050612786565b838111156127b0576000848401525b50505050565b600060028204905060018216806127ce57607f821691505b602082108114156127e2576127e161288f565b5b50919050565b60006127f38261276a565b91507fffffffffffffffffffffffffffffffffffffffffffffffffffffffffffffffff82141561282657612825612831565b5b600182019050919050565b7f4e487b7100000000000000000000000000000000000000000000000000000000600052601160045260246000fd5b7f4e487b7100000000000000000000000000000000000000000000000000000000600052601260045260246000fd5b7f4e487b7100000000000000000000000000000000000000000000000000000000600052602260045260246000fd5b7f4e487b7100000000000000000000000000000000000000000000000000000000600052604160045260246000fd5b6000601f19601f8301169050919050565b6129078161272c565b811461291257600080fd5b50565b61291e8161276a565b811461292957600080fd5b5056fea264697066735822122070dca21e4235ec1fbeaeb044b5a8d7f86e47b77855aedadd507a9c3ecd764af264736f6c63430008000033a264697066735822122080b795a2ac5bb881fe51872440cc1273d57f4e2c0880e09950785ddc4a130f5164736f6c63430008000033",
  "immutableReferences": {},
  "source": "// SPDX-License-Identifier: MIT\r\npragma solidity >=0.8.0;\r\n\r\nimport \"@openzeppelin/contracts/token/ERC721/extensions/ERC721URIStorage.sol\"; \r\nimport \"@openzeppelin/contracts/access/Ownable.sol\";\r\nimport \"@openzeppelin/contracts/utils/Counters.sol\";\r\n\r\n\r\nlibrary MyMathlib{\r\n    function sqrt(uint num) public pure returns(uint){\r\n        uint start = 1;\r\n        uint end = num;\r\n        uint mid = start;\r\n        while(start < end){\r\n            mid = start + (end - start)/2;\r\n            if(mid * mid >= num){\r\n                end = mid;\r\n            }else{\r\n                start = mid+1;\r\n            }\r\n        }\r\n        return end;\r\n    }\r\n\r\n    function sum(uint[] memory arr) public pure returns (uint){\r\n        uint buf = 0;\r\n        for(uint i=0; i<arr.length; i++){\r\n            buf += arr[i];\r\n        }\r\n        return buf;\r\n    }\r\n}\r\n\r\n\r\ncontract Knitts{\r\n    // using  MyMathlib for *;\r\n    //organization address here\r\n    address organization = 0x79e6234Ff4E7DB556F916FeBcE9e52a68D0B8879;\r\n    mapping(address => uint) deposits;\r\n    address[] public Leagues;\r\n  \taddress[] Users;\r\n  \tmapping(address => address) idToUser; \r\n  \t\r\n    function depositMore() public payable{\r\n        require(msg.value > 0, \"You need to deposit some amount\");\r\n        deposits[msg.sender] += msg.value;\r\n    }\r\n\r\n    function createLeague(uint _entryFee, uint _numPlayers, uint _duration) public returns(address[] memory){\r\n        require(_entryFee * _numPlayers <= deposits[msg.sender], \"Insufficient deposit\");\r\n        League newLeague = new League(msg.sender, _entryFee, _numPlayers, _duration, address(this));\r\n        Leagues.push(address(newLeague));\r\n        return Leagues;\r\n    }\r\n\r\n    function getBalance(address _moderator) public view returns (uint){\r\n        return deposits[_moderator];\r\n    }\r\n\r\n  \r\n  \tfunction getUserContractAddress(address _id) public view returns(address) {\r\n        return idToUser[_id];\r\n    }\r\n\r\n    function register(address id, address userContract) public {\r\n        idToUser[id] = userContract;\r\n    }\r\n}\r\n\r\ncontract League{\r\n    using  MyMathlib for *;\r\n    address public organization;\r\n    uint public entryFee;\r\n    uint public maxParticipants;\r\n    uint public numProjects;\r\n    address [] public participants;\r\n    address public moderator;\r\n    uint public duration;\r\n    bool public started;\r\n    bool public ended;\r\n    bool public distributed;\r\n  \tuint public total_points=0;\r\n    uint [] public points;\r\n    address public knittsAddress;\r\n\r\n    struct project{\r\n        string title;\r\n        string url;\r\n        string image;\r\n        address owner;\r\n        bytes[20][] description;\r\n        mapping(address => uint)investments;\r\n        address[] investors;\r\n        uint total_fund;\r\n    }\r\n\t\t\r\n    mapping(uint => project) projects;\r\n\r\n    constructor(address _moderator, uint _entryFee, uint _maxParticipants, uint _duration, address _knittsAddress){\r\n        entryFee = _entryFee;\r\n        maxParticipants = _maxParticipants;\r\n        moderator = _moderator;\r\n        duration = _duration;\r\n        numProjects = 0;\r\n        started=false;\r\n        ended=false;\r\n        distributed=false;\r\n        organization = _moderator; // for local testing\r\n        knittsAddress = _knittsAddress;\r\n    }\r\n\r\n    function submitIdea(string memory title, string memory url, string memory image, bytes[20][] memory description) external payable returns(uint){\r\n        require(msg.value >= entryFee, \"Insufficient entry fee\");\r\n        require(numProjects < maxParticipants, \"Maximum limit reached\");\r\n        project storage p = projects[numProjects++];\r\n        p.title = title;\r\n        p.url = url;\r\n        p.image = image;\r\n        p.owner = msg.sender;\r\n        p.description = description;\r\n        return numProjects;\r\n    }\r\n\r\n    function invest(uint projectId) external payable{\r\n        project storage p = projects[projectId];\r\n        if(p.investments[msg.sender] == 0){\r\n            p.investors.push(msg.sender);\r\n        }\r\n        p.total_fund += msg.value/1e12;\r\n        p.investments[msg.sender] += msg.value/1e12;\r\n        \r\n    }\r\n\r\n    function startLeague() external {\r\n        require(msg.sender == organization, \"only moderator\");\r\n        started=true;\r\n    }\r\n\r\n    function endLeague() external returns(uint[] memory){\r\n        require(msg.sender == organization, \"only organization\");\r\n        ended=true;\r\n        getPoints();\r\n      \ttotal_points = points.sum();\r\n        uint averagePoints = total_points / numProjects;\r\n      \r\n      \tfor(uint i=0;i<numProjects; i++) {\r\n            Knitts _knitts = Knitts(knittsAddress);\r\n            address _userId = _knitts.getUserContractAddress(projects[i].owner);\r\n            User _user = User(_userId);\r\n            _user.addProject(projects[i].title, projects[i].url, projects[i].image, projects[i].description, points[i] , averagePoints, address(this) );\r\n        } \r\n\r\n        return points;\r\n    }\r\n\r\n    function getPoints() internal returns(uint[] memory){\r\n        require(ended = true, \"the game has not ended\");\r\n        uint [] memory empty_points;\r\n        points = empty_points;\r\n        for(uint i=0; i < numProjects; i++){\r\n            uint buf = 0;\r\n            project storage p = projects[i];\r\n            for(uint j=0; j< p.investors.length; j++){\r\n                address inv = p.investors[j];\r\n                buf += (p.investments[inv]).sqrt();\r\n            }\r\n            points.push(buf * buf);\r\n        }\r\n        \r\n        return points;\r\n    }\r\n\r\n    function distribute() external {\r\n        require(msg.sender == organization, \"only organization\");\r\n        uint total_balance = address(this).balance;\r\n        \r\n        for(uint i=0; i<numProjects; i++){\r\n            project storage p  =  projects[i];\r\n            \r\n            payable(p.owner).transfer( (3*points[i]*total_balance)/(10*total_points) );\r\n\r\n            for(uint j=0; j<p.investors.length; j++){\r\n                address investor = p.investors[j];\r\n                Knitts _knitts = Knitts(knittsAddress);\r\n                address _userId = _knitts.getUserContractAddress(p.investors[j]);\r\n                User _user = User(_userId);\r\n                _user.split{value:(6 * points[i] * total_balance * p.investments[investor]) / (10 * total_points * p.total_fund)}();\r\n            }\r\n        }\r\n\r\n        payable(moderator).transfer(address(this).balance);\r\n\r\n    }\r\n\r\n    function submissionDetails(uint projectId) external view returns(\r\n        address, // project owner\r\n        bytes[20][] memory // description\r\n    )  {\r\n        return (projects[projectId].owner, projects[projectId].description);\r\n    }\r\n\r\n    \r\n}\r\n\r\n\r\ncontract User {\r\n    string name;\r\n  \taddress id; //metamask address of corresponding user\r\n  \tuint numProjects=0;\r\n    address[] public NFTs_created;\r\n    bool public pending_nfts = false;\r\n    constructor( address _id, string memory _name ) {\r\n        name = _name;\r\n        id = _id;\r\n    }\r\n\r\n    struct project{\r\n        string title;\r\n        string url;\r\n        string image;\r\n            bytes[20][] description;\r\n            uint point;\r\n            uint average_point;\r\n            address submittedOn;\r\n    }\r\n\r\n        project[20] public projects;\r\n    \r\n    function addProject(string memory title, string memory url, string memory image, bytes[20][] memory description, uint point, uint average_point, address submittedOn) public {\r\n        project storage p = projects[numProjects++];\r\n        p.title = title;\r\n        p.url = url;\r\n        p.image = image;\r\n        p.description = description;\r\n        p.point = point;\r\n        p.average_point = average_point;\r\n        p.submittedOn = submittedOn;\r\n    }\r\n    \r\n\r\n    function createNFT(uint _bronze) public returns(address [] memory){\r\n        require(_bronze <= 10, \"You can create only 10 bronzes\");\r\n        require(pending_nfts == false, \"There are pending nfts still\");\r\n        require(msg.sender == id, \"wrong user account\");\r\n        for(uint i=0; i<_bronze; i++){\r\n            NFT new_nft = new NFT(id, \"Bronze\", \"B\", id, 'https://s3.envato.com/files/235568921/preview.jpg', 1);\r\n            NFTs_created.push(address(new_nft));\r\n        }\r\n        pending_nfts = true;\r\n        return NFTs_created;\r\n    }\r\n\r\n    function split() public payable {\r\n        uint value = (msg.value * 95) / 100;\r\n        if(pending_nfts){\r\n            for(uint i=0; i<NFTs_created.length; i++){\r\n                NFT nft = NFT(NFTs_created[i]);\r\n                payable(nft.ownerOf(1)).transfer((value)/10);\r\n            }\r\n            scratchNFTs();\r\n        }\r\n        \r\n        payable(id).transfer(address(this).balance);\r\n    }\r\n\r\n    function scratchNFTs() internal returns(uint){\r\n        uint rem = 0;\r\n        for(uint i=0; i<NFTs_created.length; i++){\r\n            NFT new_nft =  NFT(NFTs_created[i]);\r\n            rem = new_nft.scratchCard();\r\n        }\r\n        if(rem == 0){\r\n            pending_nfts = false;\r\n            address [] memory temp;\r\n            NFTs_created = temp;\r\n        }\r\n        return rem;\r\n    }\r\n  \r\n}\r\n\r\ncontract NFT is ERC721URIStorage, Ownable{\r\n    using Counters for Counters.Counter;\r\n    Counters.Counter private _tokenIds;\r\n    address nft_creator;\r\n    address nft_owner;\r\n    uint leaguesMore;\r\n    constructor(address _creator, string memory _name, string memory _symbol, address _player, string memory _tokenURI, uint _leaguesMore) ERC721(_name, _symbol){\r\n        nft_creator = _creator;\r\n        nft_owner = _creator;\r\n        leaguesMore = _leaguesMore;\r\n        _tokenIds.increment();\r\n        uint256 newItemId = _tokenIds.current();\r\n        _mint(_player, newItemId);\r\n        _setTokenURI(newItemId, _tokenURI);\r\n    }\r\n\r\n    function scratchCard() public returns (uint){\r\n        require(leaguesMore > 0, \"expired\");\r\n        leaguesMore -= 1;\r\n        if(leaguesMore == 0){\r\n            _burn(1);\r\n        }\r\n        return leaguesMore;\r\n    }\r\n    \r\n\r\n}\r\n\r\n",
  "sourcePath": "E:\\projects\\knitts\\back-end\\contracts\\League.sol",
  "compiler": {
    "name": "solc",
    "version": "0.8.0+commit.c7dfd78e.Emscripten.clang"
  },
  "schemaVersion": "3.4.3",
  "updatedAt": "2021-09-30T18:40:43.658Z",
  "networkType": "ethereum",
  "devdoc": {
    "kind": "dev",
    "methods": {},
    "version": 1
  },
  "userdoc": {
    "kind": "user",
    "methods": {},
    "version": 1
  }
}