{
  "contractName": "Knitts",
  "abi": [
    {
      "inputs": [],
      "name": "addModerator",
      "outputs": [],
      "stateMutability": "payable",
      "type": "function",
      "payable": true
    },
    {
      "inputs": [],
      "name": "depositMore",
      "outputs": [],
      "stateMutability": "payable",
      "type": "function",
      "payable": true
    },
    {
      "inputs": [
        {
          "internalType": "uint256",
          "name": "_entryFee",
          "type": "uint256"
        },
        {
          "internalType": "uint256",
          "name": "_numPlayers",
          "type": "uint256"
        },
        {
          "internalType": "uint256",
          "name": "_duration",
          "type": "uint256"
        }
      ],
      "name": "createLeague",
      "outputs": [
        {
          "internalType": "address[]",
          "name": "",
          "type": "address[]"
        }
      ],
      "stateMutability": "nonpayable",
      "type": "function"
    },
    {
      "inputs": [
        {
          "internalType": "address",
          "name": "_moderator",
          "type": "address"
        }
      ],
      "name": "getBalance",
      "outputs": [
        {
          "internalType": "uint256",
          "name": "",
          "type": "uint256"
        }
      ],
      "stateMutability": "view",
      "type": "function",
      "constant": true
    },
    {
      "inputs": [],
      "name": "getDetails",
      "outputs": [
        {
          "internalType": "address[]",
          "name": "",
          "type": "address[]"
        },
        {
          "internalType": "address[]",
          "name": "",
          "type": "address[]"
        }
      ],
      "stateMutability": "view",
      "type": "function",
      "constant": true
    },
    {
      "inputs": [
        {
          "internalType": "address",
          "name": "_moderator",
          "type": "address"
        }
      ],
      "name": "removeModerator",
      "outputs": [],
      "stateMutability": "nonpayable",
      "type": "function"
    },
    {
      "inputs": [
        {
          "internalType": "string",
          "name": "_name",
          "type": "string"
        }
      ],
      "name": "register",
      "outputs": [
        {
          "internalType": "address",
          "name": "",
          "type": "address"
        }
      ],
      "stateMutability": "nonpayable",
      "type": "function"
    },
    {
      "inputs": [
        {
          "internalType": "address",
          "name": "_id",
          "type": "address"
        }
      ],
      "name": "getUserContractAddress",
      "outputs": [
        {
          "internalType": "address",
          "name": "",
          "type": "address"
        }
      ],
      "stateMutability": "view",
      "type": "function",
      "constant": true
    }
  ],
  "bytecode": "0x60806040527379e6234ff4e7db556f916febce9e52a68d0b88796000806101000a81548173ffffffffffffffffffffffffffffffffffffffff021916908373ffffffffffffffffffffffffffffffffffffffff1602179055506103e860065534801561006a57600080fd5b50614e118061007a6000396000f3fe608060405260043610620000865760003560e01c8063e9ff6f5c1162000055578063e9ff6f5c1462000115578063f2c298be1462000159578063f8b2cb4f146200019d578063fbbf93a014620001e15762000086565b806360173180146200008b578063869d785f1462000097578063a6e497b614620000c5578063d8213d301462000109575b600080fd5b6200009562000212565b005b348015620000a457600080fd5b50620000c36004803603810190620000bd919062000a69565b620002b2565b005b348015620000d257600080fd5b50620000f16004803603810190620000eb919062000a69565b6200030d565b60405162000100919062000d30565b60405180910390f35b620001136200040c565b005b3480156200012257600080fd5b506200014160048036038101906200013b919062000ada565b62000553565b60405162000150919062000dde565b60405180910390f35b3480156200016657600080fd5b506200018560048036038101906200017f919062000a95565b62000722565b60405162000194919062000d30565b60405180910390f35b348015620001aa57600080fd5b50620001c96004803603810190620001c3919062000a69565b62000841565b604051620001d8919062000ec5565b60405180910390f35b348015620001ee57600080fd5b50620001f96200088a565b6040516200020992919062000e02565b60405180910390f35b6000341162000258576040517f08c379a00000000000000000000000000000000000000000000000000000000081526004016200024f9062000e5f565b60405180910390fd5b34600360003373ffffffffffffffffffffffffffffffffffffffff1673ffffffffffffffffffffffffffffffffffffffff1681526020019081526020016000206000828254620002a9919062000f9e565b92505081905550565b6000600260008373ffffffffffffffffffffffffffffffffffffffff1673ffffffffffffffffffffffffffffffffffffffff16815260200190815260200160002060006101000a81548160ff02191690831515021790555050565b600060011515600860008473ffffffffffffffffffffffffffffffffffffffff1673ffffffffffffffffffffffffffffffffffffffff16815260200190815260200160002060009054906101000a900460ff16151514620003a5576040517f08c379a00000000000000000000000000000000000000000000000000000000081526004016200039c9062000e3d565b60405180910390fd5b600760008373ffffffffffffffffffffffffffffffffffffffff1673ffffffffffffffffffffffffffffffffffffffff16815260200190815260200160002060009054906101000a900473ffffffffffffffffffffffffffffffffffffffff169050919050565b6000341162000452576040517f08c379a0000000000000000000000000000000000000000000000000000000008152600401620004499062000e81565b60405180910390fd5b6001339080600181540180825580915050600190039060005260206000200160009091909190916101000a81548173ffffffffffffffffffffffffffffffffffffffff021916908373ffffffffffffffffffffffffffffffffffffffff16021790555034600360003373ffffffffffffffffffffffffffffffffffffffff1673ffffffffffffffffffffffffffffffffffffffff168152602001908152602001600020819055506001600260003373ffffffffffffffffffffffffffffffffffffffff1673ffffffffffffffffffffffffffffffffffffffff16815260200190815260200160002060006101000a81548160ff021916908315150217905550565b6060600360003373ffffffffffffffffffffffffffffffffffffffff1673ffffffffffffffffffffffffffffffffffffffff168152602001908152602001600020548385620005a3919062000ffb565b1115620005e7576040517f08c379a0000000000000000000000000000000000000000000000000000000008152600401620005de9062000ea3565b60405180910390fd5b60003385858530604051620005fc90620009ad565b6200060c95949392919062000d81565b604051809103906000f08015801562000629573d6000803e3d6000fd5b5090506004819080600181540180825580915050600190039060005260206000200160009091909190916101000a81548173ffffffffffffffffffffffffffffffffffffffff021916908373ffffffffffffffffffffffffffffffffffffffff16021790555060048054806020026020016040519081016040528092919081815260200182805480156200071357602002820191906000526020600020905b8160009054906101000a900473ffffffffffffffffffffffffffffffffffffffff1673ffffffffffffffffffffffffffffffffffffffff1681526020019060010190808311620006c8575b50505050509150509392505050565b60008033836040516200073590620009bb565b6200074292919062000d4d565b604051809103906000f0801580156200075f573d6000803e3d6000fd5b5090506001600860003373ffffffffffffffffffffffffffffffffffffffff1673ffffffffffffffffffffffffffffffffffffffff16815260200190815260200160002060006101000a81548160ff02191690831515021790555080600760003373ffffffffffffffffffffffffffffffffffffffff1673ffffffffffffffffffffffffffffffffffffffff16815260200190815260200160002060006101000a81548173ffffffffffffffffffffffffffffffffffffffff021916908373ffffffffffffffffffffffffffffffffffffffff16021790555080915050919050565b6000600360008373ffffffffffffffffffffffffffffffffffffffff1673ffffffffffffffffffffffffffffffffffffffff168152602001908152602001600020549050919050565b60608060016004818054806020026020016040519081016040528092919081815260200182805480156200091457602002820191906000526020600020905b8160009054906101000a900473ffffffffffffffffffffffffffffffffffffffff1673ffffffffffffffffffffffffffffffffffffffff1681526020019060010190808311620008c9575b50505050509150808054806020026020016040519081016040528092919081815260200182805480156200099e57602002820191906000526020600020905b8160009054906101000a900473ffffffffffffffffffffffffffffffffffffffff1673ffffffffffffffffffffffffffffffffffffffff168152602001906001019080831162000953575b50505050509050915091509091565b6127e8806200118383390190565b611471806200396b83390190565b6000620009e0620009da8462000f16565b62000ee2565b905082815260208101848484011115620009f957600080fd5b62000a068482856200109a565b509392505050565b60008135905062000a1f816200114e565b92915050565b600082601f83011262000a3757600080fd5b813562000a49848260208601620009c9565b91505092915050565b60008135905062000a638162001168565b92915050565b60006020828403121562000a7c57600080fd5b600062000a8c8482850162000a0e565b91505092915050565b60006020828403121562000aa857600080fd5b600082013567ffffffffffffffff81111562000ac357600080fd5b62000ad18482850162000a25565b91505092915050565b60008060006060848603121562000af057600080fd5b600062000b008682870162000a52565b935050602062000b138682870162000a52565b925050604062000b268682870162000a52565b9150509250925092565b600062000b3e838362000b4a565b60208301905092915050565b62000b55816200105c565b82525050565b62000b66816200105c565b82525050565b600062000b798262000f59565b62000b85818562000f7c565b935062000b928362000f49565b8060005b8381101562000bc957815162000bad888262000b30565b975062000bba8362000f6f565b92505060018101905062000b96565b5085935050505092915050565b600062000be38262000f64565b62000bef818562000f8d565b935062000c01818560208601620010a9565b62000c0c816200113d565b840191505092915050565b600062000c2660158362000f8d565b91507f54686520757365722073686f756c6420657869737400000000000000000000006000830152602082019050919050565b600062000c68601f8362000f8d565b91507f596f75206e65656420746f206465706f73697420736f6d6520616d6f756e74006000830152602082019050919050565b600062000caa601e8362000f8d565b91507f596f752073686f756c64206465706f73697420736f6d6520616d6f756e7400006000830152602082019050919050565b600062000cec60148362000f8d565b91507f496e73756666696369656e74206465706f7369740000000000000000000000006000830152602082019050919050565b62000d2a8162001090565b82525050565b600060208201905062000d47600083018462000b5b565b92915050565b600060408201905062000d64600083018562000b5b565b818103602083015262000d78818462000bd6565b90509392505050565b600060a08201905062000d98600083018862000b5b565b62000da7602083018762000d1f565b62000db6604083018662000d1f565b62000dc5606083018562000d1f565b62000dd4608083018462000b5b565b9695505050505050565b6000602082019050818103600083015262000dfa818462000b6c565b905092915050565b6000604082019050818103600083015262000e1e818562000b6c565b9050818103602083015262000e34818462000b6c565b90509392505050565b6000602082019050818103600083015262000e588162000c17565b9050919050565b6000602082019050818103600083015262000e7a8162000c59565b9050919050565b6000602082019050818103600083015262000e9c8162000c9b565b9050919050565b6000602082019050818103600083015262000ebe8162000cdd565b9050919050565b600060208201905062000edc600083018462000d1f565b92915050565b6000604051905081810181811067ffffffffffffffff8211171562000f0c5762000f0b6200110e565b5b8060405250919050565b600067ffffffffffffffff82111562000f345762000f336200110e565b5b601f19601f8301169050602081019050919050565b6000819050602082019050919050565b600081519050919050565b600081519050919050565b6000602082019050919050565b600082825260208201905092915050565b600082825260208201905092915050565b600062000fab8262001090565b915062000fb88362001090565b9250827fffffffffffffffffffffffffffffffffffffffffffffffffffffffffffffffff0382111562000ff05762000fef620010df565b5b828201905092915050565b6000620010088262001090565b9150620010158362001090565b9250817fffffffffffffffffffffffffffffffffffffffffffffffffffffffffffffffff0483118215151615620010515762001050620010df565b5b828202905092915050565b6000620010698262001070565b9050919050565b600073ffffffffffffffffffffffffffffffffffffffff82169050919050565b6000819050919050565b82818337600083830152505050565b60005b83811015620010c9578082015181840152602081019050620010ac565b83811115620010d9576000848401525b50505050565b7f4e487b7100000000000000000000000000000000000000000000000000000000600052601160045260246000fd5b7f4e487b7100000000000000000000000000000000000000000000000000000000600052604160045260246000fd5b6000601f19601f8301169050919050565b62001159816200105c565b81146200116557600080fd5b50565b620011738162001090565b81146200117f57600080fd5b5056fe608060405260006008553480156200001657600080fd5b50604051620027e8380380620027e883398181016040528101906200003c9190620001a5565b836001819055508260028190555084600560006101000a81548173ffffffffffffffffffffffffffffffffffffffff021916908373ffffffffffffffffffffffffffffffffffffffff1602179055508160068190555060006003819055506000600760006101000a81548160ff0219169083151502179055506000600760016101000a81548160ff0219169083151502179055506000600760026101000a81548160ff021916908315150217905550846000806101000a81548173ffffffffffffffffffffffffffffffffffffffff021916908373ffffffffffffffffffffffffffffffffffffffff16021790555080600a60006101000a81548173ffffffffffffffffffffffffffffffffffffffff021916908373ffffffffffffffffffffffffffffffffffffffff160217905550505050505062000299565b600081519050620001888162000265565b92915050565b6000815190506200019f816200027f565b92915050565b600080600080600060a08688031215620001be57600080fd5b6000620001ce8882890162000177565b9550506020620001e1888289016200018e565b9450506040620001f4888289016200018e565b935050606062000207888289016200018e565b92505060806200021a8882890162000177565b9150509295509295909350565b600062000234826200023b565b9050919050565b600073ffffffffffffffffffffffffffffffffffffffff82169050919050565b6000819050919050565b620002708162000227565b81146200027c57600080fd5b50565b6200028a816200025b565b81146200029657600080fd5b50565b61253f80620002a96000396000f3fe60806040526004361061007b5760003560e01c8063c3b7a80f1161004e578063c3b7a80f14610134578063d235407b1461014b578063e4fc6b6d14610189578063fbbf93a0146101a05761007b565b806324fd7918146100805780632afcf480146100ab578063677342ce146100c7578063972e922314610104575b600080fd5b34801561008c57600080fd5b506100956101d0565b6040516100a29190611e39565b60405180910390f35b6100c560048036038101906100c09190611725565b610578565b005b3480156100d357600080fd5b506100ee60048036038101906100e99190611725565b61074a565b6040516100fb9190611fb1565b60405180910390f35b61011e6004803603810190610119919061168e565b6107c3565b60405161012b9190611fb1565b60405180910390f35b34801561014057600080fd5b50610149610918565b005b34801561015757600080fd5b50610172600480360381019061016d9190611725565b6109c5565b604051610180929190611da8565b60405180910390f35b34801561019557600080fd5b5061019e610b2b565b005b3480156101ac57600080fd5b506101b5610eea565b6040516101c796959493929190611dd8565b60405180910390f35b606060008054906101000a900473ffffffffffffffffffffffffffffffffffffffff1673ffffffffffffffffffffffffffffffffffffffff163373ffffffffffffffffffffffffffffffffffffffff1614610260576040517f08c379a000000000000000000000000000000000000000000000000000000000815260040161025790611f31565b60405180910390fd5b6001600760016101000a81548160ff021916908315150217905550610283610f60565b5060005b60035481101561030157600981815481106102cb577f4e487b7100000000000000000000000000000000000000000000000000000000600052603260045260246000fd5b9060005260206000200154600860008282546102e791906121f4565b9250508190555080806102f9906123c5565b915050610287565b506000600354600854610314919061224a565b905060005b600354811015610520576000600a60009054906101000a900473ffffffffffffffffffffffffffffffffffffffff16905060008173ffffffffffffffffffffffffffffffffffffffff1663a6e497b6600b600086815260200190815260200160002060020160009054906101000a900473ffffffffffffffffffffffffffffffffffffffff166040518263ffffffff1660e01b81526004016103bb9190611d8d565b60206040518083038186803b1580156103d357600080fd5b505afa1580156103e7573d6000803e3d6000fd5b505050506040513d601f19601f8201168201806040525081019061040b9190611665565b905060008190508073ffffffffffffffffffffffffffffffffffffffff166350038c9c600b6000878152602001908152602001600020600001600b6000888152602001908152602001600020600101600b6000898152602001908152602001600020600301600989815481106104aa577f4e487b7100000000000000000000000000000000000000000000000000000000600052603260045260246000fd5b90600052602060002001548a306040518763ffffffff1660e01b81526004016104d896959493929190611e5b565b600060405180830381600087803b1580156104f257600080fd5b505af1158015610506573d6000803e3d6000fd5b505050505050508080610518906123c5565b915050610319565b50600980548060200260200160405190810160405280929190818152602001828054801561056d57602002820191906000526020600020905b815481526020019060010190808311610559575b505050505091505090565b60035481106105bc576040517f08c379a00000000000000000000000000000000000000000000000000000000081526004016105b390611f91565b60405180910390fd5b6000600b600083815260200190815260200160002060040160003373ffffffffffffffffffffffffffffffffffffffff1673ffffffffffffffffffffffffffffffffffffffff16815260200190815260200160002054141561069057600b6000828152602001908152602001600020600501339080600181540180825580915050600190039060005260206000200160009091909190916101000a81548173ffffffffffffffffffffffffffffffffffffffff021916908373ffffffffffffffffffffffffffffffffffffffff1602179055505b64e8d4a51000346106a1919061224a565b600b600083815260200190815260200160002060060160008282546106c691906121f4565b9250508190555064e8d4a51000346106de919061224a565b600b600083815260200190815260200160002060040160003373ffffffffffffffffffffffffffffffffffffffff1673ffffffffffffffffffffffffffffffffffffffff168152602001908152602001600020600082825461074091906121f4565b9250508190555050565b60008060019050600083905060008290505b818310156107b8576002838361077291906122d5565b61077c919061224a565b8361078791906121f4565b9050848182610796919061227b565b106107a3578091506107b3565b6001816107b091906121f4565b92505b61075c565b819350505050919050565b600060015434101561080a576040517f08c379a000000000000000000000000000000000000000000000000000000000815260040161080190611f71565b60405180910390fd5b60025460035410610850576040517f08c379a000000000000000000000000000000000000000000000000000000000815260040161084790611f11565b60405180910390fd5b6000600b600060036000815480929190610869906123c5565b9190505581526020019081526020016000209050848160000190805190602001906108959291906111a7565b50838160010190805190602001906108ae9291906111a7565b50338160020160006101000a81548173ffffffffffffffffffffffffffffffffffffffff021916908373ffffffffffffffffffffffffffffffffffffffff1602179055508281600301908051906020019061090a92919061122d565b506003549150509392505050565b600560009054906101000a900473ffffffffffffffffffffffffffffffffffffffff1673ffffffffffffffffffffffffffffffffffffffff163373ffffffffffffffffffffffffffffffffffffffff16146109a8576040517f08c379a000000000000000000000000000000000000000000000000000000000815260040161099f90611ed1565b60405180910390fd5b6001600760006101000a81548160ff021916908315150217905550565b60006060600b600084815260200190815260200160002060020160009054906101000a900473ffffffffffffffffffffffffffffffffffffffff16600b600085815260200190815260200160002060030180805480602002602001604051908101604052809291908181526020016000905b82821015610b1c5783829060005260206000209060140201601480602002604051908101604052809291906000905b82821015610b09578382018054610a7c90612393565b80601f0160208091040260200160405190810160405280929190818152602001828054610aa890612393565b8015610af55780601f10610aca57610100808354040283529160200191610af5565b820191906000526020600020905b815481529060010190602001808311610ad857829003601f168201915b505050505081526020019060010190610a66565b5050505081526020019060010190610a37565b50505050905091509150915091565b60008054906101000a900473ffffffffffffffffffffffffffffffffffffffff1673ffffffffffffffffffffffffffffffffffffffff163373ffffffffffffffffffffffffffffffffffffffff1614610bb9576040517f08c379a0000000000000000000000000000000000000000000000000000000008152600401610bb090611ef1565b60405180910390fd5b600047905060005b600354811015610e7d576000600b600083815260200190815260200160002090508060020160009054906101000a900473ffffffffffffffffffffffffffffffffffffffff1673ffffffffffffffffffffffffffffffffffffffff166108fc600854600a610c2f919061227b565b8560098681548110610c6a577f4e487b7100000000000000000000000000000000000000000000000000000000600052603260045260246000fd5b90600052602060002001546003610c81919061227b565b610c8b919061227b565b610c95919061224a565b9081150290604051600060405180830381858888f19350505050158015610cc0573d6000803e3d6000fd5b5060005b8160050180549050811015610e68576000826005018281548110610d11577f4e487b7100000000000000000000000000000000000000000000000000000000600052603260045260246000fd5b9060005260206000200160009054906101000a900473ffffffffffffffffffffffffffffffffffffffff1690508073ffffffffffffffffffffffffffffffffffffffff166108fc8460060154600854600a610d6c919061227b565b610d76919061227b565b8560040160008573ffffffffffffffffffffffffffffffffffffffff1673ffffffffffffffffffffffffffffffffffffffff168152602001908152602001600020548860098981548110610df3577f4e487b7100000000000000000000000000000000000000000000000000000000600052603260045260246000fd5b90600052602060002001546006610e0a919061227b565b610e14919061227b565b610e1e919061227b565b610e28919061224a565b9081150290604051600060405180830381858888f19350505050158015610e53573d6000803e3d6000fd5b50508080610e60906123c5565b915050610cc4565b50508080610e75906123c5565b915050610bc1565b50600560009054906101000a900473ffffffffffffffffffffffffffffffffffffffff1673ffffffffffffffffffffffffffffffffffffffff166108fc479081150290604051600060405180830381858888f19350505050158015610ee6573d6000803e3d6000fd5b5050565b600080600080600080600560009054906101000a900473ffffffffffffffffffffffffffffffffffffffff16600154600254600760009054906101000a900460ff16600760019054906101000a900460ff16600760029054906101000a900460ff16955095509550955095509550909192939495565b60606001600760016101000a81548160ff0219169083151502179055610fbb576040517f08c379a0000000000000000000000000000000000000000000000000000000008152600401610fb290611f51565b60405180910390fd5b60608060099080519060200190610fd392919061128b565b5060005b60035481101561114f576000805b600b600084815260200190815260200160002060050180549050811015611100576000600b60008581526020019081526020016000206005018281548110611056577f4e487b7100000000000000000000000000000000000000000000000000000000600052603260045260246000fd5b9060005260206000200160009054906101000a900473ffffffffffffffffffffffffffffffffffffffff1690506110df600b600086815260200190815260200160002060040160008373ffffffffffffffffffffffffffffffffffffffff1673ffffffffffffffffffffffffffffffffffffffff1681526020019081526020016000205461074a565b836110ea91906121f4565b92505080806110f8906123c5565b915050610fe5565b506000818261110f919061227b565b9050600981908060018154018082558091505060019003906000526020600020016000909190919091505550508080611147906123c5565b915050610fd7565b50600980548060200260200160405190810160405280929190818152602001828054801561119c57602002820191906000526020600020905b815481526020019060010190808311611188575b505050505091505090565b8280546111b390612393565b90600052602060002090601f0160209004810192826111d5576000855561121c565b82601f106111ee57805160ff191683800117855561121c565b8280016001018555821561121c579182015b8281111561121b578251825591602001919060010190611200565b5b50905061122991906112d8565b5090565b82805482825590600052602060002090601402810192821561127a579160200282015b82811115611279578251829060146112699291906112f5565b5091602001919060140190611250565b5b5090506112879190611348565b5090565b8280548282559060005260206000209081019282156112c7579160200282015b828111156112c65782518255916020019190600101906112ab565b5b5090506112d491906112d8565b5090565b5b808211156112f15760008160009055506001016112d9565b5090565b8260148101928215611337579160200282015b8281111561133657825182908051906020019061132692919061136c565b5091602001919060010190611308565b5b50905061134491906113f2565b5090565b5b80821115611368576000818161135f9190611416565b50601401611349565b5090565b82805461137890612393565b90600052602060002090601f01602090048101928261139a57600085556113e1565b82601f106113b357805160ff19168380011785556113e1565b828001600101855582156113e1579182015b828111156113e05782518255916020019190600101906113c5565b5b5090506113ee91906112d8565b5090565b5b8082111561141257600081816114099190611429565b506001016113f3565b5090565b50806014019061142691906113f2565b50565b50805461143590612393565b6000825580601f106114475750611466565b601f01602090049060005260206000209081019061146591906112d8565b5b50565b600061147c61147784611ffd565b611fcc565b9050808382526020820190508260005b858110156114bc57813585016114a288826115d5565b84526020840193506020830192505060018101905061148c565b5050509392505050565b60006114d96114d484612029565b611fcc565b9050808260005b8581101561151057813585016114f688826115fc565b8452602084019350602083019250506001810190506114e0565b5050509392505050565b600061152d6115288461204f565b611fcc565b90508281526020810184848401111561154557600080fd5b611550848285612351565b509392505050565b600061156b6115668461207f565b611fcc565b90508281526020810184848401111561158357600080fd5b61158e848285612351565b509392505050565b6000815190506115a5816124db565b92915050565b600082601f8301126115bc57600080fd5b81356115cc848260208601611469565b91505092915050565b600082601f8301126115e657600080fd5b60146115f38482856114c6565b91505092915050565b600082601f83011261160d57600080fd5b813561161d84826020860161151a565b91505092915050565b600082601f83011261163757600080fd5b8135611647848260208601611558565b91505092915050565b60008135905061165f816124f2565b92915050565b60006020828403121561167757600080fd5b600061168584828501611596565b91505092915050565b6000806000606084860312156116a357600080fd5b600084013567ffffffffffffffff8111156116bd57600080fd5b6116c986828701611626565b935050602084013567ffffffffffffffff8111156116e657600080fd5b6116f286828701611626565b925050604084013567ffffffffffffffff81111561170f57600080fd5b61171b868287016115ab565b9150509250925092565b60006020828403121561173757600080fd5b600061174584828501611650565b91505092915050565b600061175a83836118ae565b905092915050565b600061176e8383611923565b905092915050565b60006117828383611a04565b905092915050565b60006117968383611a3d565b905092915050565b60006117aa8383611d6f565b60208301905092915050565b6117bf81612309565b82525050565b60006117d082612122565b6117da81856121a5565b9350836020820285016117ec856120af565b8060005b858110156118285784840389528151611809858261174e565b945061181483612164565b925060208a019950506001810190506117f0565b50829750879550505050505092915050565b60006118458261212d565b61184f81856121a5565b935083602082028501611861856120bf565b8060005b8581101561189c5784840389528161187d8582611762565b945061188883612171565b925060208a01995050600181019050611865565b50829750879550505050505092915050565b60006118b982612138565b6118c381856121b6565b9350836020820285016118d5856120d4565b8060005b8581101561191157848403895281516118f28582611776565b94506118fd8361217e565b925060208a019950506001810190506118d9565b50829750879550505050505092915050565b600061192e82612143565b61193881856121b6565b93508360208202850161194a856120de565b8060005b8581101561198557848403895281611966858261178a565b94506119718361218b565b925060208a0199505060018101905061194e565b50829750879550505050505092915050565b60006119a28261214e565b6119ac81856121c1565b93506119b7836120e8565b8060005b838110156119e85781516119cf888261179e565b97506119da83612198565b9250506001810190506119bb565b5085935050505092915050565b6119fe8161231b565b82525050565b6000611a0f82612159565b611a1981856121d2565b9350611a29818560208601612360565b611a32816124ca565b840191505092915050565b60008154611a4a81612393565b611a5481866121d2565b94506001821660008114611a6f5760018114611a8157611ab4565b60ff1983168652602086019350611ab4565b611a8a856120f8565b60005b83811015611aac57815481890152600182019150602081019050611a8d565b808801955050505b50505092915050565b60008154611aca81612393565b611ad481866121e3565b94506001821660008114611aef5760018114611b0157611b34565b60ff1983168652602086019350611b34565b611b0a8561210d565b60005b83811015611b2c57815481890152600182019150602081019050611b0d565b808801955050505b50505092915050565b6000611b4a6023836121e3565b91507f6f6e6c79206d6f64657261746f722063616e20737461727420746865206c656160008301527f67756500000000000000000000000000000000000000000000000000000000006020830152604082019050919050565b6000611bb06027836121e3565b91507f6f6e6c79206f7267616e697a6174696f6e2063616e206469737472696275746560008301527f207072697a6573000000000000000000000000000000000000000000000000006020830152604082019050919050565b6000611c166015836121e3565b91507f4d6178696d756d206c696d6974207265616368656400000000000000000000006000830152602082019050919050565b6000611c566024836121e3565b91507f6f6e6c79206f7267616e697a6174696f6e2063616e20656e6420746865206c6560008301527f61677565000000000000000000000000000000000000000000000000000000006020830152604082019050919050565b6000611cbc6016836121e3565b91507f7468652067616d6520686173206e6f7420656e646564000000000000000000006000830152602082019050919050565b6000611cfc6016836121e3565b91507f496e73756666696369656e7420656e74727920666565000000000000000000006000830152602082019050919050565b6000611d3c6012836121e3565b91507f496e76616c69642070726f6a65637420696400000000000000000000000000006000830152602082019050919050565b611d7881612347565b82525050565b611d8781612347565b82525050565b6000602082019050611da260008301846117b6565b92915050565b6000604082019050611dbd60008301856117b6565b8181036020830152611dcf81846117c5565b90509392505050565b600060c082019050611ded60008301896117b6565b611dfa6020830188611d7e565b611e076040830187611d7e565b611e1460608301866119f5565b611e2160808301856119f5565b611e2e60a08301846119f5565b979650505050505050565b60006020820190508181036000830152611e538184611997565b905092915050565b600060c0820190508181036000830152611e758189611abd565b90508181036020830152611e898188611abd565b90508181036040830152611e9d818761183a565b9050611eac6060830186611d7e565b611eb96080830185611d7e565b611ec660a08301846117b6565b979650505050505050565b60006020820190508181036000830152611eea81611b3d565b9050919050565b60006020820190508181036000830152611f0a81611ba3565b9050919050565b60006020820190508181036000830152611f2a81611c09565b9050919050565b60006020820190508181036000830152611f4a81611c49565b9050919050565b60006020820190508181036000830152611f6a81611caf565b9050919050565b60006020820190508181036000830152611f8a81611cef565b9050919050565b60006020820190508181036000830152611faa81611d2f565b9050919050565b6000602082019050611fc66000830184611d7e565b92915050565b6000604051905081810181811067ffffffffffffffff82111715611ff357611ff261249b565b5b8060405250919050565b600067ffffffffffffffff8211156120185761201761249b565b5b602082029050602081019050919050565b600067ffffffffffffffff8211156120445761204361249b565b5b602082029050919050565b600067ffffffffffffffff82111561206a5761206961249b565b5b601f19601f8301169050602081019050919050565b600067ffffffffffffffff82111561209a5761209961249b565b5b601f19601f8301169050602081019050919050565b6000819050602082019050919050565b60008190508160005260206000209050919050565b6000819050919050565b6000819050919050565b6000819050602082019050919050565b60008190508160005260206000209050919050565b60008190508160005260206000209050919050565b600081519050919050565b600081549050919050565b600060149050919050565b600060149050919050565b600081519050919050565b600081519050919050565b6000602082019050919050565b6000601482019050919050565b6000602082019050919050565b6000600182019050919050565b6000602082019050919050565b600082825260208201905092915050565b600081905092915050565b600082825260208201905092915050565b600082825260208201905092915050565b600082825260208201905092915050565b60006121ff82612347565b915061220a83612347565b9250827fffffffffffffffffffffffffffffffffffffffffffffffffffffffffffffffff0382111561223f5761223e61240e565b5b828201905092915050565b600061225582612347565b915061226083612347565b9250826122705761226f61243d565b5b828204905092915050565b600061228682612347565b915061229183612347565b9250817fffffffffffffffffffffffffffffffffffffffffffffffffffffffffffffffff04831182151516156122ca576122c961240e565b5b828202905092915050565b60006122e082612347565b91506122eb83612347565b9250828210156122fe576122fd61240e565b5b828203905092915050565b600061231482612327565b9050919050565b60008115159050919050565b600073ffffffffffffffffffffffffffffffffffffffff82169050919050565b6000819050919050565b82818337600083830152505050565b60005b8381101561237e578082015181840152602081019050612363565b8381111561238d576000848401525b50505050565b600060028204905060018216806123ab57607f821691505b602082108114156123bf576123be61246c565b5b50919050565b60006123d082612347565b91507fffffffffffffffffffffffffffffffffffffffffffffffffffffffffffffffff8214156124035761240261240e565b5b600182019050919050565b7f4e487b7100000000000000000000000000000000000000000000000000000000600052601160045260246000fd5b7f4e487b7100000000000000000000000000000000000000000000000000000000600052601260045260246000fd5b7f4e487b7100000000000000000000000000000000000000000000000000000000600052602260045260246000fd5b7f4e487b7100000000000000000000000000000000000000000000000000000000600052604160045260246000fd5b6000601f19601f8301169050919050565b6124e481612309565b81146124ef57600080fd5b50565b6124fb81612347565b811461250657600080fd5b5056fea26469706673582212205c4896e93859a0635e86d766a08ae0718c1542855c356e12c3051e3c1f2809ef64736f6c63430008000033608060405260006002553480156200001657600080fd5b50604051620014713803806200147183398181016040528101906200003c9190620001d7565b8060009080519060200190620000549291906200009e565b5081600160006101000a81548173ffffffffffffffffffffffffffffffffffffffff021916908373ffffffffffffffffffffffffffffffffffffffff1602179055505050620003b0565b828054620000ac9062000302565b90600052602060002090601f016020900481019282620000d057600085556200011c565b82601f10620000eb57805160ff19168380011785556200011c565b828001600101855582156200011c579182015b828111156200011b578251825591602001919060010190620000fe565b5b5090506200012b91906200012f565b5090565b5b808211156200014a57600081600090555060010162000130565b5090565b6000620001656200015f8462000265565b62000231565b9050828152602081018484840111156200017e57600080fd5b6200018b848285620002cc565b509392505050565b600081519050620001a48162000396565b92915050565b600082601f830112620001bc57600080fd5b8151620001ce8482602086016200014e565b91505092915050565b60008060408385031215620001eb57600080fd5b6000620001fb8582860162000193565b925050602083015167ffffffffffffffff8111156200021957600080fd5b6200022785828601620001aa565b9150509250929050565b6000604051905081810181811067ffffffffffffffff821117156200025b576200025a62000367565b5b8060405250919050565b600067ffffffffffffffff82111562000283576200028262000367565b5b601f19601f8301169050602081019050919050565b6000620002a582620002ac565b9050919050565b600073ffffffffffffffffffffffffffffffffffffffff82169050919050565b60005b83811015620002ec578082015181840152602081019050620002cf565b83811115620002fc576000848401525b50505050565b600060028204905060018216806200031b57607f821691505b6020821081141562000332576200033162000338565b5b50919050565b7f4e487b7100000000000000000000000000000000000000000000000000000000600052602260045260246000fd5b7f4e487b7100000000000000000000000000000000000000000000000000000000600052604160045260246000fd5b620003a18162000298565b8114620003ad57600080fd5b50565b6110b180620003c06000396000f3fe608060405234801561001057600080fd5b50600436106100365760003560e01c806350038c9c1461003b578063fbbf93a014610057575b600080fd5b61005560048036038101906100509190610953565b610075565b005b61005f610176565b60405161006c9190610ce6565b60405180910390f35b600060036002600081548092919061008c90610f66565b91905055601481106100c7577f4e487b7100000000000000000000000000000000000000000000000000000000600052603260045260246000fd5b600602019050868160000190805190602001906100e5929190610468565b50858160010190805190602001906100fe929190610468565b50848160020190805190602001906101179291906104ee565b50838160030181905550828160040181905550818160050160006101000a81548173ffffffffffffffffffffffffffffffffffffffff021916908373ffffffffffffffffffffffffffffffffffffffff16021790555050505050505050565b61017e61054c565b6003601480602002604051908101604052809291906000905b8282101561045f578382600602016040518060c00160405290816000820180546101c090610f34565b80601f01602080910402602001604051908101604052809291908181526020018280546101ec90610f34565b80156102395780601f1061020e57610100808354040283529160200191610239565b820191906000526020600020905b81548152906001019060200180831161021c57829003601f168201915b5050505050815260200160018201805461025290610f34565b80601f016020809104026020016040519081016040528092919081815260200182805461027e90610f34565b80156102cb5780601f106102a0576101008083540402835291602001916102cb565b820191906000526020600020905b8154815290600101906020018083116102ae57829003601f168201915b5050505050815260200160028201805480602002602001604051908101604052809291908181526020016000905b828210156103de5783829060005260206000209060140201601480602002604051908101604052809291906000905b828210156103cb57838201805461033e90610f34565b80601f016020809104026020016040519081016040528092919081815260200182805461036a90610f34565b80156103b75780601f1061038c576101008083540402835291602001916103b7565b820191906000526020600020905b81548152906001019060200180831161039a57829003601f168201915b505050505081526020019060010190610328565b50505050815260200190600101906102f9565b50505050815260200160038201548152602001600482015481526020016005820160009054906101000a900473ffffffffffffffffffffffffffffffffffffffff1673ffffffffffffffffffffffffffffffffffffffff1673ffffffffffffffffffffffffffffffffffffffff168152505081526020019060010190610197565b50505050905090565b82805461047490610f34565b90600052602060002090601f01602090048101928261049657600085556104dd565b82601f106104af57805160ff19168380011785556104dd565b828001600101855582156104dd579182015b828111156104dc5782518255916020019190600101906104c1565b5b5090506104ea919061057a565b5090565b82805482825590600052602060002090601402810192821561053b579160200282015b8281111561053a5782518290601461052a929190610597565b5091602001919060140190610511565b5b50905061054891906105ea565b5090565b6040518061028001604052806014905b61056461060e565b81526020019060019003908161055c5790505090565b5b8082111561059357600081600090555060010161057b565b5090565b82601481019282156105d9579160200282015b828111156105d85782518290805190602001906105c892919061065a565b50916020019190600101906105aa565b5b5090506105e691906106e0565b5090565b5b8082111561060a57600081816106019190610704565b506014016105eb565b5090565b6040518060c001604052806060815260200160608152602001606081526020016000815260200160008152602001600073ffffffffffffffffffffffffffffffffffffffff1681525090565b82805461066690610f34565b90600052602060002090601f01602090048101928261068857600085556106cf565b82601f106106a157805160ff19168380011785556106cf565b828001600101855582156106cf579182015b828111156106ce5782518255916020019190600101906106b3565b5b5090506106dc919061057a565b5090565b5b8082111561070057600081816106f79190610717565b506001016106e1565b5090565b50806014019061071491906106e0565b50565b50805461072390610f34565b6000825580601f106107355750610754565b601f016020900490600052602060002090810190610753919061057a565b5b50565b600061076a61076584610d39565b610d08565b9050808382526020820190508260005b858110156107aa578135850161079088826108c3565b84526020840193506020830192505060018101905061077a565b5050509392505050565b60006107c76107c284610d65565b610d08565b9050808260005b858110156107fe57813585016107e488826108ea565b8452602084019350602083019250506001810190506107ce565b5050509392505050565b600061081b61081684610d8b565b610d08565b90508281526020810184848401111561083357600080fd5b61083e848285610ef2565b509392505050565b600061085961085484610dbb565b610d08565b90508281526020810184848401111561087157600080fd5b61087c848285610ef2565b509392505050565b6000813590506108938161104d565b92915050565b600082601f8301126108aa57600080fd5b81356108ba848260208601610757565b91505092915050565b600082601f8301126108d457600080fd5b60146108e18482856107b4565b91505092915050565b600082601f8301126108fb57600080fd5b813561090b848260208601610808565b91505092915050565b600082601f83011261092557600080fd5b8135610935848260208601610846565b91505092915050565b60008135905061094d81611064565b92915050565b60008060008060008060c0878903121561096c57600080fd5b600087013567ffffffffffffffff81111561098657600080fd5b61099289828a01610914565b965050602087013567ffffffffffffffff8111156109af57600080fd5b6109bb89828a01610914565b955050604087013567ffffffffffffffff8111156109d857600080fd5b6109e489828a01610899565b94505060606109f589828a0161093e565b9350506080610a0689828a0161093e565b92505060a0610a1789828a01610884565b9150509295509295509295565b6000610a308383610ae4565b905092915050565b6000610a448383610bce565b905092915050565b6000610a588383610c40565b905092915050565b610a6981610eb6565b82525050565b6000610a7a82610e0f565b610a848185610e6d565b935083602082028501610a9685610deb565b8060005b85811015610ad25784840389528151610ab38582610a24565b9450610abe83610e46565b925060208a01995050600181019050610a9a565b50829750879550505050505092915050565b6000610aef82610e1a565b610af98185610e7e565b935083602082028501610b0b85610dfb565b8060005b85811015610b475784840389528151610b288582610a38565b9450610b3383610e53565b925060208a01995050600181019050610b0f565b50829750879550505050505092915050565b6000610b6482610e25565b610b6e8185610e89565b935083602082028501610b8085610e05565b8060005b85811015610bbc5784840389528151610b9d8582610a4c565b9450610ba883610e60565b925060208a01995050600181019050610b84565b50829750879550505050505092915050565b6000610bd982610e30565b610be38185610e94565b9350610bf3818560208601610f01565b610bfc8161103c565b840191505092915050565b6000610c1282610e3b565b610c1c8185610ea5565b9350610c2c818560208601610f01565b610c358161103c565b840191505092915050565b600060c0830160008301518482036000860152610c5d8282610c07565b91505060208301518482036020860152610c778282610c07565b91505060408301518482036040860152610c918282610a6f565b9150506060830151610ca66060860182610cd7565b506080830151610cb96080860182610cd7565b5060a0830151610ccc60a0860182610a60565b508091505092915050565b610ce081610ee8565b82525050565b60006020820190508181036000830152610d008184610b59565b905092915050565b6000604051905081810181811067ffffffffffffffff82111715610d2f57610d2e61100d565b5b8060405250919050565b600067ffffffffffffffff821115610d5457610d5361100d565b5b602082029050602081019050919050565b600067ffffffffffffffff821115610d8057610d7f61100d565b5b602082029050919050565b600067ffffffffffffffff821115610da657610da561100d565b5b601f19601f8301169050602081019050919050565b600067ffffffffffffffff821115610dd657610dd561100d565b5b601f19601f8301169050602081019050919050565b6000819050602082019050919050565b6000819050919050565b6000819050919050565b600081519050919050565b600060149050919050565b600060149050919050565b600081519050919050565b600081519050919050565b6000602082019050919050565b6000602082019050919050565b6000602082019050919050565b600082825260208201905092915050565b600081905092915050565b600081905092915050565b600082825260208201905092915050565b600082825260208201905092915050565b6000610ec182610ec8565b9050919050565b600073ffffffffffffffffffffffffffffffffffffffff82169050919050565b6000819050919050565b82818337600083830152505050565b60005b83811015610f1f578082015181840152602081019050610f04565b83811115610f2e576000848401525b50505050565b60006002820490506001821680610f4c57607f821691505b60208210811415610f6057610f5f610fde565b5b50919050565b6000610f7182610ee8565b91507fffffffffffffffffffffffffffffffffffffffffffffffffffffffffffffffff821415610fa457610fa3610faf565b5b600182019050919050565b7f4e487b7100000000000000000000000000000000000000000000000000000000600052601160045260246000fd5b7f4e487b7100000000000000000000000000000000000000000000000000000000600052602260045260246000fd5b7f4e487b7100000000000000000000000000000000000000000000000000000000600052604160045260246000fd5b6000601f19601f8301169050919050565b61105681610eb6565b811461106157600080fd5b50565b61106d81610ee8565b811461107857600080fd5b5056fea2646970667358221220597011c75f71c63da23fed93f81bd64261061419449f6bfa2e87e8c3aedb2b1364736f6c63430008000033a2646970667358221220d08ba03591ba108cdd73979fa04db7eded76fe66fdbc2c1a2080e2e4a57e782964736f6c63430008000033",
  "immutableReferences": {},
  "source": "// SPDX-License-Identifier: MIT\r\npragma solidity >=0.8.0;\r\n\r\ncontract Knitts{\r\n    //organization address here\r\n    address organization = 0x79e6234Ff4E7DB556F916FeBcE9e52a68D0B8879;\r\n    address[] moderators;//change this to mapping mapping(address=>bool)\r\n    mapping(address=>bool) valid;\r\n    mapping(address => uint) deposits;\r\n    address[] Leagues;\r\n  \taddress[] Users;\r\n    uint maxDescLength = 1000;\r\n  \tmapping(address => address) idToUser; \r\n  \tmapping(address => bool) userExists;\r\n  \t\r\n    function addModerator() public payable{\r\n        require(msg.value > 0, \"You should deposit some amount\");\r\n        moderators.push(msg.sender);\r\n        deposits[msg.sender] = msg.value;\r\n        valid[msg.sender]=true;\r\n    }\r\n\r\n    function depositMore() public payable{\r\n        require(msg.value > 0, \"You need to deposit some amount\");\r\n        deposits[msg.sender] += msg.value;\r\n    }\r\n\r\n    function createLeague(uint _entryFee, uint _numPlayers, uint _duration) public returns(address[] memory){\r\n        require(_entryFee * _numPlayers <= deposits[msg.sender], \"Insufficient deposit\");\r\n        League newLeague = new League(msg.sender, _entryFee, _numPlayers, _duration, address(this));\r\n        Leagues.push(address(newLeague));\r\n        return Leagues;\r\n    }\r\n\r\n    function getBalance(address _moderator) public view returns (uint){\r\n        return deposits[_moderator];\r\n    }\r\n\r\n    function getDetails() public view returns (address [] memory, address [] memory){\r\n        return (moderators, Leagues);\r\n    }\r\n\r\n    function removeModerator(address _moderator) public {\r\n        valid[_moderator] = false;\r\n    }\r\n  \r\n  \tfunction register(string memory _name) public returns (address) {\r\n        User newUser = new User(msg.sender, _name);\r\n        userExists[msg.sender] = true;\r\n        idToUser[msg.sender] = address(newUser);\r\n        return address(newUser);\r\n    }\r\n  \r\n  \tfunction getUserContractAddress(address _id) public view returns(address) {\r\n        require(userExists[_id] == true,\"The user should exist\");\r\n        return idToUser[_id];\r\n    }\r\n}\r\n\r\ncontract League{\r\n    \r\n    address organization;\r\n    uint entryFee;\r\n    uint maxParticipants;\r\n    uint numProjects;\r\n    address [] participants;\r\n    address moderator;\r\n    uint duration;\r\n    bool started;\r\n    bool ended;\r\n    bool distributed;\r\n  \tuint total_points=0;\r\n    uint [] points;\r\n    address knittsAddress;\r\n\r\n    struct project{\r\n        string title;\r\n        string url;\r\n        address owner;\r\n        bytes[20][] description;\r\n        mapping(address => uint)investments;\r\n        address[] investors;\r\n        uint total_fund;\r\n    }\r\n\t\t\r\n    mapping(uint => project) projects;\r\n\r\n    constructor(address _moderator, uint _entryFee, uint _maxParticipants, uint _duration, address _knittsAddress){\r\n        entryFee = _entryFee;\r\n        maxParticipants = _maxParticipants;\r\n        moderator = _moderator;\r\n        duration = _duration;\r\n        numProjects = 0;\r\n        started=false;\r\n        ended=false;\r\n        distributed=false;\r\n        //organization = 0x79e6234Ff4E7DB556F916FeBcE9e52a68D0B8879; //for public net\r\n        organization = _moderator; // for local testing\r\n        knittsAddress = _knittsAddress;\r\n    }\r\n\r\n    function submitIdea(string memory title, string memory url, bytes[20][] memory description) public payable returns(uint){\r\n        require(msg.value >= entryFee, \"Insufficient entry fee\");\r\n        require(numProjects < maxParticipants, \"Maximum limit reached\");\r\n        project storage p = projects[numProjects++];\r\n        p.title = title;\r\n        p.url = url;\r\n        p.owner = msg.sender;\r\n        p.description = description;\r\n        return numProjects;\r\n    }\r\n\r\n    function invest(uint projectId) public payable{\r\n        require(projectId < numProjects, \"Invalid project id\");\r\n        if(projects[projectId].investments[msg.sender] == 0){\r\n            projects[projectId].investors.push(msg.sender);\r\n        }\r\n        projects[projectId].total_fund += msg.value/1e12;\r\n        projects[projectId].investments[msg.sender] += msg.value/1e12;\r\n        \r\n    }\r\n\r\n    function startLeague() public{\r\n        require(msg.sender == moderator, \"only moderator can start the league\");\r\n        started=true;\r\n    }\r\n\r\n    function endLeague() public returns(uint[] memory){\r\n        require(msg.sender == organization, \"only organization can end the league\");\r\n        ended=true;\r\n        getPoints();\r\n      \t\r\n      \tfor(uint i=0; i<numProjects; i++){\r\n            total_points += points[i];\r\n        }\r\n\r\n        uint averagePoints = total_points / numProjects;\r\n      \r\n      \tfor(uint i=0;i<numProjects; i++) {\r\n            Knitts _knitts = Knitts(knittsAddress);\r\n            address _userId = _knitts.getUserContractAddress(projects[i].owner);\r\n            User _user = User(_userId);\r\n            _user.addProject(projects[i].title, projects[i].url, projects[i].description, points[i] , averagePoints, address(this) );\r\n        } \r\n\r\n        return points;\r\n    }\r\n\r\n    function getPoints() private returns(uint[] memory){\r\n        require(ended = true, \"the game has not ended\");\r\n        uint [] memory empty_points;\r\n        points = empty_points;\r\n        // require(msg.sender == organization, \"only organization get the points\");\r\n        // write quadratic funding code here\r\n        for(uint i=0; i < numProjects; i++){\r\n            uint sum = 0;\r\n            for(uint j=0; j<projects[i].investors.length; j++){\r\n                address investor = projects[i].investors[j];\r\n                sum += sqrt(projects[i].investments[investor]);\r\n            }\r\n            uint point = sum * sum;\r\n            points.push(point);\r\n        }\r\n      \t\r\n        \r\n        return points;\r\n    }\r\n\r\n    function distribute() public {\r\n        require(msg.sender == organization, \"only organization can distribute prizes\");\r\n        uint total_balance = address(this).balance;\r\n        \r\n        for(uint i=0; i<numProjects; i++){\r\n            project storage p  =  projects[i];\r\n            \r\n            payable(p.owner).transfer( (3*points[i]*total_balance)/(10*total_points) );\r\n\r\n            for(uint j=0; j<p.investors.length; j++){\r\n                address investor = p.investors[j];\r\n                payable(investor).transfer( (6 * points[i] * total_balance * p.investments[investor]) / (10 * total_points * p.total_fund) );\r\n            }\r\n        }\r\n\r\n        payable(moderator).transfer(address(this).balance);\r\n\r\n    }\r\n\r\n    function getDetails() public view returns(\r\n        address,//moderator\r\n        uint,//entry fee\r\n        uint,//maxParticipants\r\n        bool, //started\r\n        bool, //ended\r\n        bool //distributed\r\n    ){\r\n        return (moderator, entryFee, maxParticipants, started, ended, distributed);\r\n    }\r\n\r\n    function submissionDetails(uint projectId) public view returns(\r\n        address, // project owner\r\n        bytes[20][] memory // description\r\n    )  {\r\n        return (projects[projectId].owner, projects[projectId].description);\r\n    }\r\n\r\n    function sqrt(uint num) public pure returns(uint){\r\n        uint start = 1;\r\n        uint end = num;\r\n        uint mid = start;\r\n        while(start < end){\r\n            mid = start + (end - start)/2;\r\n            if(mid * mid >= num){\r\n                end = mid;\r\n            }else{\r\n                start = mid+1;\r\n            }\r\n        }\r\n        return end;\r\n    }\r\n}\r\n\r\n\r\ncontract User {\r\n    string name;\r\n  \taddress id; //metamask address of corresponding user\r\n  \tuint numProjects=0;\r\n  \r\n  constructor( address _id, string memory _name ) {\r\n  \tname = _name;\r\n    id = _id;\r\n  }\r\n  \r\n  \r\n  struct project{\r\n      string title;\r\n      string url;\r\n        bytes[20][] description;\r\n        // uint total_fund;\r\n        uint point;\r\n        uint average_point;\r\n        address submittedOn;\r\n  }\r\n\t// mapping(uint => project) projects;\r\n\r\n    project[20] projects;\r\n  \r\n  function addProject(string memory title, string memory url, bytes[20][] memory description, uint point, uint average_point, address submittedOn) public {\r\n    project storage p = projects[numProjects++];\r\n    p.title = title;\r\n    p.url = url;\r\n    p.description = description;\r\n    p.point = point;\r\n    p.average_point = average_point;\r\n    p.submittedOn = submittedOn;\r\n  }\r\n  \r\n  function getDetails() public view returns (project[20] memory){\r\n    \treturn projects;\r\n  }\r\n  \r\n}\r\n\r\n\r\n\r\n\r\n\r\n\r\n\r\n\r\n\r\n\r\n\r\n\r\n\r\n\r\n\r\n\r\n",
  "sourcePath": "E:\\projects\\knitts\\back-end\\contracts\\League.sol",
  "compiler": {
    "name": "solc",
    "version": "0.8.0+commit.c7dfd78e.Emscripten.clang"
  },
  "schemaVersion": "3.4.3",
  "updatedAt": "2021-09-30T05:42:12.866Z",
  "networkType": "ethereum",
  "devdoc": {
    "kind": "dev",
    "methods": {},
    "version": 1
  },
  "userdoc": {
    "kind": "user",
    "methods": {},
    "version": 1
  }
}