{
  "contractName": "Knitts",
  "abi": [
    {
      "inputs": [],
      "name": "addModerator",
      "outputs": [],
      "stateMutability": "payable",
      "type": "function"
    },
    {
      "inputs": [],
      "name": "depositMore",
      "outputs": [],
      "stateMutability": "payable",
      "type": "function"
    },
    {
      "inputs": [
        {
          "internalType": "uint256",
          "name": "_entryFee",
          "type": "uint256"
        },
        {
          "internalType": "uint256",
          "name": "_numPlayers",
          "type": "uint256"
        },
        {
          "internalType": "uint256",
          "name": "_duration",
          "type": "uint256"
        }
      ],
      "name": "createLeague",
      "outputs": [
        {
          "internalType": "address[]",
          "name": "",
          "type": "address[]"
        }
      ],
      "stateMutability": "nonpayable",
      "type": "function"
    },
    {
      "inputs": [
        {
          "internalType": "address",
          "name": "_moderator",
          "type": "address"
        }
      ],
      "name": "getBalance",
      "outputs": [
        {
          "internalType": "uint256",
          "name": "",
          "type": "uint256"
        }
      ],
      "stateMutability": "view",
      "type": "function"
    },
    {
      "inputs": [],
      "name": "getDetails",
      "outputs": [
        {
          "internalType": "address[]",
          "name": "",
          "type": "address[]"
        },
        {
          "internalType": "address[]",
          "name": "",
          "type": "address[]"
        }
      ],
      "stateMutability": "view",
      "type": "function"
    },
    {
      "inputs": [
        {
          "internalType": "address",
          "name": "_moderator",
          "type": "address"
        }
      ],
      "name": "removeModerator",
      "outputs": [],
      "stateMutability": "nonpayable",
      "type": "function"
    },
    {
      "inputs": [
        {
          "internalType": "string",
          "name": "_name",
          "type": "string"
        }
      ],
      "name": "register",
      "outputs": [
        {
          "internalType": "address",
          "name": "",
          "type": "address"
        }
      ],
      "stateMutability": "nonpayable",
      "type": "function"
    },
    {
      "inputs": [
        {
          "internalType": "address",
          "name": "_id",
          "type": "address"
        }
      ],
      "name": "getUserContractAddress",
      "outputs": [
        {
          "internalType": "address",
          "name": "",
          "type": "address"
        }
      ],
      "stateMutability": "view",
      "type": "function"
    }
  ],
  "bytecode": "0x60806040527379e6234ff4e7db556f916febce9e52a68d0b88796000806101000a81548173ffffffffffffffffffffffffffffffffffffffff021916908373ffffffffffffffffffffffffffffffffffffffff1602179055506103e860065534801561006a57600080fd5b50616d078061007a6000396000f3fe608060405260043610620000865760003560e01c8063e9ff6f5c1162000055578063e9ff6f5c1462000115578063f2c298be1462000159578063f8b2cb4f146200019d578063fbbf93a014620001e15762000086565b806360173180146200008b578063869d785f1462000097578063a6e497b614620000c5578063d8213d301462000109575b600080fd5b6200009562000212565b005b348015620000a457600080fd5b50620000c36004803603810190620000bd919062000a8b565b620002b2565b005b348015620000d257600080fd5b50620000f16004803603810190620000eb919062000a8b565b6200030d565b60405162000100919062000d52565b60405180910390f35b620001136200040c565b005b3480156200012257600080fd5b506200014160048036038101906200013b919062000afc565b62000553565b60405162000150919062000e10565b60405180910390f35b3480156200016657600080fd5b506200018560048036038101906200017f919062000ab7565b62000722565b60405162000194919062000d52565b60405180910390f35b348015620001aa57600080fd5b50620001c96004803603810190620001c3919062000a8b565b62000863565b604051620001d8919062000ef7565b60405180910390f35b348015620001ee57600080fd5b50620001f9620008ac565b6040516200020992919062000e34565b60405180910390f35b6000341162000258576040517f08c379a00000000000000000000000000000000000000000000000000000000081526004016200024f9062000e91565b60405180910390fd5b34600360003373ffffffffffffffffffffffffffffffffffffffff1673ffffffffffffffffffffffffffffffffffffffff1681526020019081526020016000206000828254620002a9919062000fd0565b92505081905550565b6000600260008373ffffffffffffffffffffffffffffffffffffffff1673ffffffffffffffffffffffffffffffffffffffff16815260200190815260200160002060006101000a81548160ff02191690831515021790555050565b600060011515600860008473ffffffffffffffffffffffffffffffffffffffff1673ffffffffffffffffffffffffffffffffffffffff16815260200190815260200160002060009054906101000a900460ff16151514620003a5576040517f08c379a00000000000000000000000000000000000000000000000000000000081526004016200039c9062000e6f565b60405180910390fd5b600760008373ffffffffffffffffffffffffffffffffffffffff1673ffffffffffffffffffffffffffffffffffffffff16815260200190815260200160002060009054906101000a900473ffffffffffffffffffffffffffffffffffffffff169050919050565b6000341162000452576040517f08c379a0000000000000000000000000000000000000000000000000000000008152600401620004499062000eb3565b60405180910390fd5b6001339080600181540180825580915050600190039060005260206000200160009091909190916101000a81548173ffffffffffffffffffffffffffffffffffffffff021916908373ffffffffffffffffffffffffffffffffffffffff16021790555034600360003373ffffffffffffffffffffffffffffffffffffffff1673ffffffffffffffffffffffffffffffffffffffff168152602001908152602001600020819055506001600260003373ffffffffffffffffffffffffffffffffffffffff1673ffffffffffffffffffffffffffffffffffffffff16815260200190815260200160002060006101000a81548160ff021916908315150217905550565b6060600360003373ffffffffffffffffffffffffffffffffffffffff1673ffffffffffffffffffffffffffffffffffffffff168152602001908152602001600020548385620005a391906200102d565b1115620005e7576040517f08c379a0000000000000000000000000000000000000000000000000000000008152600401620005de9062000ed5565b60405180910390fd5b60003385858530604051620005fc90620009cf565b6200060c95949392919062000db3565b604051809103906000f08015801562000629573d6000803e3d6000fd5b5090506004819080600181540180825580915050600190039060005260206000200160009091909190916101000a81548173ffffffffffffffffffffffffffffffffffffffff021916908373ffffffffffffffffffffffffffffffffffffffff16021790555060048054806020026020016040519081016040528092919081815260200182805480156200071357602002820191906000526020600020905b8160009054906101000a900473ffffffffffffffffffffffffffffffffffffffff1673ffffffffffffffffffffffffffffffffffffffff1681526020019060010190808311620006c8575b50505050509150509392505050565b600080338360008054906101000a900473ffffffffffffffffffffffffffffffffffffffff166040516200075690620009dd565b620007649392919062000d6f565b604051809103906000f08015801562000781573d6000803e3d6000fd5b5090506001600860003373ffffffffffffffffffffffffffffffffffffffff1673ffffffffffffffffffffffffffffffffffffffff16815260200190815260200160002060006101000a81548160ff02191690831515021790555080600760003373ffffffffffffffffffffffffffffffffffffffff1673ffffffffffffffffffffffffffffffffffffffff16815260200190815260200160002060006101000a81548173ffffffffffffffffffffffffffffffffffffffff021916908373ffffffffffffffffffffffffffffffffffffffff16021790555080915050919050565b6000600360008373ffffffffffffffffffffffffffffffffffffffff1673ffffffffffffffffffffffffffffffffffffffff168152602001908152602001600020549050919050565b60608060016004818054806020026020016040519081016040528092919081815260200182805480156200093657602002820191906000526020600020905b8160009054906101000a900473ffffffffffffffffffffffffffffffffffffffff1673ffffffffffffffffffffffffffffffffffffffff1681526020019060010190808311620008eb575b5050505050915080805480602002602001604051908101604052809291908181526020018280548015620009c057602002820191906000526020600020905b8160009054906101000a900473ffffffffffffffffffffffffffffffffffffffff1673ffffffffffffffffffffffffffffffffffffffff168152602001906001019080831162000975575b50505050509050915091509091565b612d9780620011b583390190565b612d868062003f4c83390190565b600062000a02620009fc8462000f48565b62000f14565b90508281526020810184848401111562000a1b57600080fd5b62000a28848285620010cc565b509392505050565b60008135905062000a418162001180565b92915050565b600082601f83011262000a5957600080fd5b813562000a6b848260208601620009eb565b91505092915050565b60008135905062000a85816200119a565b92915050565b60006020828403121562000a9e57600080fd5b600062000aae8482850162000a30565b91505092915050565b60006020828403121562000aca57600080fd5b600082013567ffffffffffffffff81111562000ae557600080fd5b62000af38482850162000a47565b91505092915050565b60008060006060848603121562000b1257600080fd5b600062000b228682870162000a74565b935050602062000b358682870162000a74565b925050604062000b488682870162000a74565b9150509250925092565b600062000b60838362000b6c565b60208301905092915050565b62000b77816200108e565b82525050565b62000b88816200108e565b82525050565b600062000b9b8262000f8b565b62000ba7818562000fae565b935062000bb48362000f7b565b8060005b8381101562000beb57815162000bcf888262000b52565b975062000bdc8362000fa1565b92505060018101905062000bb8565b5085935050505092915050565b600062000c058262000f96565b62000c11818562000fbf565b935062000c23818560208601620010db565b62000c2e816200116f565b840191505092915050565b600062000c4860158362000fbf565b91507f54686520757365722073686f756c6420657869737400000000000000000000006000830152602082019050919050565b600062000c8a601f8362000fbf565b91507f596f75206e65656420746f206465706f73697420736f6d6520616d6f756e74006000830152602082019050919050565b600062000ccc601e8362000fbf565b91507f596f752073686f756c64206465706f73697420736f6d6520616d6f756e7400006000830152602082019050919050565b600062000d0e60148362000fbf565b91507f496e73756666696369656e74206465706f7369740000000000000000000000006000830152602082019050919050565b62000d4c81620010c2565b82525050565b600060208201905062000d69600083018462000b7d565b92915050565b600060608201905062000d86600083018662000b7d565b818103602083015262000d9a818562000bf8565b905062000dab604083018462000b7d565b949350505050565b600060a08201905062000dca600083018862000b7d565b62000dd9602083018762000d41565b62000de8604083018662000d41565b62000df7606083018562000d41565b62000e06608083018462000b7d565b9695505050505050565b6000602082019050818103600083015262000e2c818462000b8e565b905092915050565b6000604082019050818103600083015262000e50818562000b8e565b9050818103602083015262000e66818462000b8e565b90509392505050565b6000602082019050818103600083015262000e8a8162000c39565b9050919050565b6000602082019050818103600083015262000eac8162000c7b565b9050919050565b6000602082019050818103600083015262000ece8162000cbd565b9050919050565b6000602082019050818103600083015262000ef08162000cff565b9050919050565b600060208201905062000f0e600083018462000d41565b92915050565b6000604051905081810181811067ffffffffffffffff8211171562000f3e5762000f3d62001140565b5b8060405250919050565b600067ffffffffffffffff82111562000f665762000f6562001140565b5b601f19601f8301169050602081019050919050565b6000819050602082019050919050565b600081519050919050565b600081519050919050565b6000602082019050919050565b600082825260208201905092915050565b600082825260208201905092915050565b600062000fdd82620010c2565b915062000fea83620010c2565b9250827fffffffffffffffffffffffffffffffffffffffffffffffffffffffffffffffff0382111562001022576200102162001111565b5b828201905092915050565b60006200103a82620010c2565b91506200104783620010c2565b9250817fffffffffffffffffffffffffffffffffffffffffffffffffffffffffffffffff048311821515161562001083576200108262001111565b5b828202905092915050565b60006200109b82620010a2565b9050919050565b600073ffffffffffffffffffffffffffffffffffffffff82169050919050565b6000819050919050565b82818337600083830152505050565b60005b83811015620010fb578082015181840152602081019050620010de565b838111156200110b576000848401525b50505050565b7f4e487b7100000000000000000000000000000000000000000000000000000000600052601160045260246000fd5b7f4e487b7100000000000000000000000000000000000000000000000000000000600052604160045260246000fd5b6000601f19601f8301169050919050565b6200118b816200108e565b81146200119757600080fd5b50565b620011a581620010c2565b8114620011b157600080fd5b5056fe608060405260006008553480156200001657600080fd5b5060405162002d9738038062002d9783398181016040528101906200003c9190620001a5565b836001819055508260028190555084600560006101000a81548173ffffffffffffffffffffffffffffffffffffffff021916908373ffffffffffffffffffffffffffffffffffffffff1602179055508160068190555060006003819055506000600760006101000a81548160ff0219169083151502179055506000600760016101000a81548160ff0219169083151502179055506000600760026101000a81548160ff021916908315150217905550846000806101000a81548173ffffffffffffffffffffffffffffffffffffffff021916908373ffffffffffffffffffffffffffffffffffffffff16021790555080600a60006101000a81548173ffffffffffffffffffffffffffffffffffffffff021916908373ffffffffffffffffffffffffffffffffffffffff160217905550505050505062000299565b600081519050620001888162000265565b92915050565b6000815190506200019f816200027f565b92915050565b600080600080600060a08688031215620001be57600080fd5b6000620001ce8882890162000177565b9550506020620001e1888289016200018e565b9450506040620001f4888289016200018e565b935050606062000207888289016200018e565b92505060806200021a8882890162000177565b9150509295509295909350565b600062000234826200023b565b9050919050565b600073ffffffffffffffffffffffffffffffffffffffff82169050919050565b6000819050919050565b620002708162000227565b81146200027c57600080fd5b50565b6200028a816200025b565b81146200029657600080fd5b50565b612aee80620002a96000396000f3fe60806040526004361061007b5760003560e01c8063c3b7a80f1161004e578063c3b7a80f14610134578063d235407b1461014b578063e4fc6b6d14610189578063fbbf93a0146101a05761007b565b806324fd7918146100805780632afcf480146100ab578063677342ce146100c7578063972e922314610104575b600080fd5b34801561008c57600080fd5b506100956101d0565b6040516100a291906123bc565b60405180910390f35b6100c560048036038101906100c09190611c7f565b610578565b005b3480156100d357600080fd5b506100ee60048036038101906100e99190611c7f565b61074a565b6040516100fb9190612534565b60405180910390f35b61011e60048036038101906101199190611be8565b6107c3565b60405161012b9190612534565b60405180910390f35b34801561014057600080fd5b50610149610918565b005b34801561015757600080fd5b50610172600480360381019061016d9190611c7f565b6109c5565b60405161018092919061232b565b60405180910390f35b34801561019557600080fd5b5061019e610b2b565b005b3480156101ac57600080fd5b506101b5611358565b6040516101c79695949392919061235b565b60405180910390f35b606060008054906101000a900473ffffffffffffffffffffffffffffffffffffffff1673ffffffffffffffffffffffffffffffffffffffff163373ffffffffffffffffffffffffffffffffffffffff1614610260576040517f08c379a0000000000000000000000000000000000000000000000000000000008152600401610257906124b4565b60405180910390fd5b6001600760016101000a81548160ff0219169083151502179055506102836113ce565b5060005b60035481101561030157600981815481106102cb577f4e487b7100000000000000000000000000000000000000000000000000000000600052603260045260246000fd5b9060005260206000200154600860008282546102e791906127a3565b9250508190555080806102f990612974565b915050610287565b50600060035460085461031491906127f9565b905060005b600354811015610520576000600a60009054906101000a900473ffffffffffffffffffffffffffffffffffffffff16905060008173ffffffffffffffffffffffffffffffffffffffff1663a6e497b6600b600086815260200190815260200160002060020160009054906101000a900473ffffffffffffffffffffffffffffffffffffffff166040518263ffffffff1660e01b81526004016103bb9190612310565b60206040518083038186803b1580156103d357600080fd5b505afa1580156103e7573d6000803e3d6000fd5b505050506040513d601f19601f8201168201806040525081019061040b9190611b7e565b905060008190508073ffffffffffffffffffffffffffffffffffffffff166350038c9c600b6000878152602001908152602001600020600001600b6000888152602001908152602001600020600101600b6000898152602001908152602001600020600301600989815481106104aa577f4e487b7100000000000000000000000000000000000000000000000000000000600052603260045260246000fd5b90600052602060002001548a306040518763ffffffff1660e01b81526004016104d8969594939291906123de565b600060405180830381600087803b1580156104f257600080fd5b505af1158015610506573d6000803e3d6000fd5b50505050505050808061051890612974565b915050610319565b50600980548060200260200160405190810160405280929190818152602001828054801561056d57602002820191906000526020600020905b815481526020019060010190808311610559575b505050505091505090565b60035481106105bc576040517f08c379a00000000000000000000000000000000000000000000000000000000081526004016105b390612514565b60405180910390fd5b6000600b600083815260200190815260200160002060040160003373ffffffffffffffffffffffffffffffffffffffff1673ffffffffffffffffffffffffffffffffffffffff16815260200190815260200160002054141561069057600b6000828152602001908152602001600020600501339080600181540180825580915050600190039060005260206000200160009091909190916101000a81548173ffffffffffffffffffffffffffffffffffffffff021916908373ffffffffffffffffffffffffffffffffffffffff1602179055505b64e8d4a51000346106a191906127f9565b600b600083815260200190815260200160002060060160008282546106c691906127a3565b9250508190555064e8d4a51000346106de91906127f9565b600b600083815260200190815260200160002060040160003373ffffffffffffffffffffffffffffffffffffffff1673ffffffffffffffffffffffffffffffffffffffff168152602001908152602001600020600082825461074091906127a3565b9250508190555050565b60008060019050600083905060008290505b818310156107b857600283836107729190612884565b61077c91906127f9565b8361078791906127a3565b9050848182610796919061282a565b106107a3578091506107b3565b6001816107b091906127a3565b92505b61075c565b819350505050919050565b600060015434101561080a576040517f08c379a0000000000000000000000000000000000000000000000000000000008152600401610801906124f4565b60405180910390fd5b60025460035410610850576040517f08c379a000000000000000000000000000000000000000000000000000000000815260040161084790612494565b60405180910390fd5b6000600b60006003600081548092919061086990612974565b919050558152602001908152602001600020905084816000019080519060200190610895929190611615565b50838160010190805190602001906108ae929190611615565b50338160020160006101000a81548173ffffffffffffffffffffffffffffffffffffffff021916908373ffffffffffffffffffffffffffffffffffffffff1602179055508281600301908051906020019061090a92919061169b565b506003549150509392505050565b600560009054906101000a900473ffffffffffffffffffffffffffffffffffffffff1673ffffffffffffffffffffffffffffffffffffffff163373ffffffffffffffffffffffffffffffffffffffff16146109a8576040517f08c379a000000000000000000000000000000000000000000000000000000000815260040161099f90612454565b60405180910390fd5b6001600760006101000a81548160ff021916908315150217905550565b60006060600b600084815260200190815260200160002060020160009054906101000a900473ffffffffffffffffffffffffffffffffffffffff16600b600085815260200190815260200160002060030180805480602002602001604051908101604052809291908181526020016000905b82821015610b1c5783829060005260206000209060140201601480602002604051908101604052809291906000905b82821015610b09578382018054610a7c90612942565b80601f0160208091040260200160405190810160405280929190818152602001828054610aa890612942565b8015610af55780601f10610aca57610100808354040283529160200191610af5565b820191906000526020600020905b815481529060010190602001808311610ad857829003601f168201915b505050505081526020019060010190610a66565b5050505081526020019060010190610a37565b50505050905091509150915091565b60008054906101000a900473ffffffffffffffffffffffffffffffffffffffff1673ffffffffffffffffffffffffffffffffffffffff163373ffffffffffffffffffffffffffffffffffffffff1614610bb9576040517f08c379a0000000000000000000000000000000000000000000000000000000008152600401610bb090612474565b60405180910390fd5b600047905060005b6003548110156112eb576000600b600083815260200190815260200160002090508060020160009054906101000a900473ffffffffffffffffffffffffffffffffffffffff1673ffffffffffffffffffffffffffffffffffffffff166108fc600854600a610c2f919061282a565b8560098681548110610c6a577f4e487b7100000000000000000000000000000000000000000000000000000000600052603260045260246000fd5b90600052602060002001546003610c81919061282a565b610c8b919061282a565b610c9591906127f9565b9081150290604051600060405180830381858888f19350505050158015610cc0573d6000803e3d6000fd5b5060005b81600501805490508110156112d6576000826005018281548110610d11577f4e487b7100000000000000000000000000000000000000000000000000000000600052603260045260246000fd5b9060005260206000200160009054906101000a900473ffffffffffffffffffffffffffffffffffffffff1690506000600a60009054906101000a900473ffffffffffffffffffffffffffffffffffffffff16905060008173ffffffffffffffffffffffffffffffffffffffff1663a6e497b6846040518263ffffffff1660e01b8152600401610da09190612310565b60206040518083038186803b158015610db857600080fd5b505afa158015610dcc573d6000803e3d6000fd5b505050506040513d601f19601f82011682018060405250810190610df09190611b7e565b9050600081905060008173ffffffffffffffffffffffffffffffffffffffff1663227212f26040518163ffffffff1660e01b815260040160006040518083038186803b158015610e3f57600080fd5b505afa158015610e53573d6000803e3d6000fd5b505050506040513d6000823e3d601f19601f82011682018060405250810190610e7c9190611ba7565b9050600081511415610fa95760008760060154600854600a610e9e919061282a565b610ea8919061282a565b8860040160008873ffffffffffffffffffffffffffffffffffffffff1673ffffffffffffffffffffffffffffffffffffffff168152602001908152602001600020548b60098c81548110610f25577f4e487b7100000000000000000000000000000000000000000000000000000000600052603260045260246000fd5b90600052602060002001546006610f3c919061282a565b610f46919061282a565b610f50919061282a565b610f5a91906127f9565b90508573ffffffffffffffffffffffffffffffffffffffff166108fc829081150290604051600060405180830381858888f19350505050158015610fa2573d6000803e3d6000fd5b50506112be565b60005b81518110156112bc576000828281518110610ff0577f4e487b7100000000000000000000000000000000000000000000000000000000600052603260045260246000fd5b60200260200101519050600060648a60060154600854600a611012919061282a565b61101c919061282a565b611026919061282a565b8273ffffffffffffffffffffffffffffffffffffffff1663c78ad77f6040518163ffffffff1660e01b815260040160206040518083038186803b15801561106c57600080fd5b505afa158015611080573d6000803e3d6000fd5b505050506040513d601f19601f820116820180604052508101906110a49190611ca8565b8b60040160008b73ffffffffffffffffffffffffffffffffffffffff1673ffffffffffffffffffffffffffffffffffffffff168152602001908152602001600020548e60098f81548110611121577f4e487b7100000000000000000000000000000000000000000000000000000000600052603260045260246000fd5b90600052602060002001546006611138919061282a565b611142919061282a565b61114c919061282a565b611156919061282a565b61116091906127f9565b90508173ffffffffffffffffffffffffffffffffffffffff16638da5cb5b6040518163ffffffff1660e01b815260040160206040518083038186803b1580156111a857600080fd5b505afa1580156111bc573d6000803e3d6000fd5b505050506040513d601f19601f820116820180604052508101906111e09190611b7e565b73ffffffffffffffffffffffffffffffffffffffff166108fc829081150290604051600060405180830381858888f19350505050158015611225573d6000803e3d6000fd5b508173ffffffffffffffffffffffffffffffffffffffff1663d05ad2b46040518163ffffffff1660e01b8152600401602060405180830381600087803b15801561126e57600080fd5b505af1158015611282573d6000803e3d6000fd5b505050506040513d601f19601f820116820180604052508101906112a69190611ca8565b50505080806112b490612974565b915050610fac565b505b505050505080806112ce90612974565b915050610cc4565b505080806112e390612974565b915050610bc1565b50600560009054906101000a900473ffffffffffffffffffffffffffffffffffffffff1673ffffffffffffffffffffffffffffffffffffffff166108fc479081150290604051600060405180830381858888f19350505050158015611354573d6000803e3d6000fd5b5050565b600080600080600080600560009054906101000a900473ffffffffffffffffffffffffffffffffffffffff16600154600254600760009054906101000a900460ff16600760019054906101000a900460ff16600760029054906101000a900460ff16955095509550955095509550909192939495565b60606001600760016101000a81548160ff0219169083151502179055611429576040517f08c379a0000000000000000000000000000000000000000000000000000000008152600401611420906124d4565b60405180910390fd5b606080600990805190602001906114419291906116f9565b5060005b6003548110156115bd576000805b600b60008481526020019081526020016000206005018054905081101561156e576000600b600085815260200190815260200160002060050182815481106114c4577f4e487b7100000000000000000000000000000000000000000000000000000000600052603260045260246000fd5b9060005260206000200160009054906101000a900473ffffffffffffffffffffffffffffffffffffffff16905061154d600b600086815260200190815260200160002060040160008373ffffffffffffffffffffffffffffffffffffffff1673ffffffffffffffffffffffffffffffffffffffff1681526020019081526020016000205461074a565b8361155891906127a3565b925050808061156690612974565b915050611453565b506000818261157d919061282a565b90506009819080600181540180825580915050600190039060005260206000200160009091909190915055505080806115b590612974565b915050611445565b50600980548060200260200160405190810160405280929190818152602001828054801561160a57602002820191906000526020600020905b8154815260200190600101908083116115f6575b505050505091505090565b82805461162190612942565b90600052602060002090601f016020900481019282611643576000855561168a565b82601f1061165c57805160ff191683800117855561168a565b8280016001018555821561168a579182015b8281111561168957825182559160200191906001019061166e565b5b5090506116979190611746565b5090565b8280548282559060005260206000209060140281019282156116e8579160200282015b828111156116e7578251829060146116d7929190611763565b50916020019190601401906116be565b5b5090506116f591906117b6565b5090565b828054828255906000526020600020908101928215611735579160200282015b82811115611734578251825591602001919060010190611719565b5b5090506117429190611746565b5090565b5b8082111561175f576000816000905550600101611747565b5090565b82601481019282156117a5579160200282015b828111156117a45782518290805190602001906117949291906117da565b5091602001919060010190611776565b5b5090506117b29190611860565b5090565b5b808211156117d657600081816117cd9190611884565b506014016117b7565b5090565b8280546117e690612942565b90600052602060002090601f016020900481019282611808576000855561184f565b82601f1061182157805160ff191683800117855561184f565b8280016001018555821561184f579182015b8281111561184e578251825591602001919060010190611833565b5b50905061185c9190611746565b5090565b5b8082111561188057600081816118779190611897565b50600101611861565b5090565b5080601401906118949190611860565b50565b5080546118a390612942565b6000825580601f106118b557506118d4565b601f0160209004906000526020600020908101906118d39190611746565b5b50565b60006118ea6118e584612580565b61254f565b9050808382526020820190508285602086028201111561190957600080fd5b60005b85811015611939578161191f8882611a70565b84526020840193506020830192505060018101905061190c565b5050509392505050565b6000611956611951846125ac565b61254f565b9050808382526020820190508260005b85811015611996578135850161197c8882611ad9565b845260208401935060208301925050600181019050611966565b5050509392505050565b60006119b36119ae846125d8565b61254f565b9050808260005b858110156119ea57813585016119d08882611b00565b8452602084019350602083019250506001810190506119ba565b5050509392505050565b6000611a07611a02846125fe565b61254f565b905082815260208101848484011115611a1f57600080fd5b611a2a848285612900565b509392505050565b6000611a45611a408461262e565b61254f565b905082815260208101848484011115611a5d57600080fd5b611a68848285612900565b509392505050565b600081519050611a7f81612a8a565b92915050565b600082601f830112611a9657600080fd5b8151611aa68482602086016118d7565b91505092915050565b600082601f830112611ac057600080fd5b8135611ad0848260208601611943565b91505092915050565b600082601f830112611aea57600080fd5b6014611af78482856119a0565b91505092915050565b600082601f830112611b1157600080fd5b8135611b218482602086016119f4565b91505092915050565b600082601f830112611b3b57600080fd5b8135611b4b848260208601611a32565b91505092915050565b600081359050611b6381612aa1565b92915050565b600081519050611b7881612aa1565b92915050565b600060208284031215611b9057600080fd5b6000611b9e84828501611a70565b91505092915050565b600060208284031215611bb957600080fd5b600082015167ffffffffffffffff811115611bd357600080fd5b611bdf84828501611a85565b91505092915050565b600080600060608486031215611bfd57600080fd5b600084013567ffffffffffffffff811115611c1757600080fd5b611c2386828701611b2a565b935050602084013567ffffffffffffffff811115611c4057600080fd5b611c4c86828701611b2a565b925050604084013567ffffffffffffffff811115611c6957600080fd5b611c7586828701611aaf565b9150509250925092565b600060208284031215611c9157600080fd5b6000611c9f84828501611b54565b91505092915050565b600060208284031215611cba57600080fd5b6000611cc884828501611b69565b91505092915050565b6000611cdd8383611e31565b905092915050565b6000611cf18383611ea6565b905092915050565b6000611d058383611f87565b905092915050565b6000611d198383611fc0565b905092915050565b6000611d2d83836122f2565b60208301905092915050565b611d42816128b8565b82525050565b6000611d53826126d1565b611d5d8185612754565b935083602082028501611d6f8561265e565b8060005b85811015611dab5784840389528151611d8c8582611cd1565b9450611d9783612713565b925060208a01995050600181019050611d73565b50829750879550505050505092915050565b6000611dc8826126dc565b611dd28185612754565b935083602082028501611de48561266e565b8060005b85811015611e1f57848403895281611e008582611ce5565b9450611e0b83612720565b925060208a01995050600181019050611de8565b50829750879550505050505092915050565b6000611e3c826126e7565b611e468185612765565b935083602082028501611e5885612683565b8060005b85811015611e945784840389528151611e758582611cf9565b9450611e808361272d565b925060208a01995050600181019050611e5c565b50829750879550505050505092915050565b6000611eb1826126f2565b611ebb8185612765565b935083602082028501611ecd8561268d565b8060005b85811015611f0857848403895281611ee98582611d0d565b9450611ef48361273a565b925060208a01995050600181019050611ed1565b50829750879550505050505092915050565b6000611f25826126fd565b611f2f8185612770565b9350611f3a83612697565b8060005b83811015611f6b578151611f528882611d21565b9750611f5d83612747565b925050600181019050611f3e565b5085935050505092915050565b611f81816128ca565b82525050565b6000611f9282612708565b611f9c8185612781565b9350611fac81856020860161290f565b611fb581612a79565b840191505092915050565b60008154611fcd81612942565b611fd78186612781565b94506001821660008114611ff2576001811461200457612037565b60ff1983168652602086019350612037565b61200d856126a7565b60005b8381101561202f57815481890152600182019150602081019050612010565b808801955050505b50505092915050565b6000815461204d81612942565b6120578186612792565b945060018216600081146120725760018114612084576120b7565b60ff19831686526020860193506120b7565b61208d856126bc565b60005b838110156120af57815481890152600182019150602081019050612090565b808801955050505b50505092915050565b60006120cd602383612792565b91507f6f6e6c79206d6f64657261746f722063616e20737461727420746865206c656160008301527f67756500000000000000000000000000000000000000000000000000000000006020830152604082019050919050565b6000612133602783612792565b91507f6f6e6c79206f7267616e697a6174696f6e2063616e206469737472696275746560008301527f207072697a6573000000000000000000000000000000000000000000000000006020830152604082019050919050565b6000612199601583612792565b91507f4d6178696d756d206c696d6974207265616368656400000000000000000000006000830152602082019050919050565b60006121d9602483612792565b91507f6f6e6c79206f7267616e697a6174696f6e2063616e20656e6420746865206c6560008301527f61677565000000000000000000000000000000000000000000000000000000006020830152604082019050919050565b600061223f601683612792565b91507f7468652067616d6520686173206e6f7420656e646564000000000000000000006000830152602082019050919050565b600061227f601683612792565b91507f496e73756666696369656e7420656e74727920666565000000000000000000006000830152602082019050919050565b60006122bf601283612792565b91507f496e76616c69642070726f6a65637420696400000000000000000000000000006000830152602082019050919050565b6122fb816128f6565b82525050565b61230a816128f6565b82525050565b60006020820190506123256000830184611d39565b92915050565b60006040820190506123406000830185611d39565b81810360208301526123528184611d48565b90509392505050565b600060c0820190506123706000830189611d39565b61237d6020830188612301565b61238a6040830187612301565b6123976060830186611f78565b6123a46080830185611f78565b6123b160a0830184611f78565b979650505050505050565b600060208201905081810360008301526123d68184611f1a565b905092915050565b600060c08201905081810360008301526123f88189612040565b9050818103602083015261240c8188612040565b905081810360408301526124208187611dbd565b905061242f6060830186612301565b61243c6080830185612301565b61244960a0830184611d39565b979650505050505050565b6000602082019050818103600083015261246d816120c0565b9050919050565b6000602082019050818103600083015261248d81612126565b9050919050565b600060208201905081810360008301526124ad8161218c565b9050919050565b600060208201905081810360008301526124cd816121cc565b9050919050565b600060208201905081810360008301526124ed81612232565b9050919050565b6000602082019050818103600083015261250d81612272565b9050919050565b6000602082019050818103600083015261252d816122b2565b9050919050565b60006020820190506125496000830184612301565b92915050565b6000604051905081810181811067ffffffffffffffff8211171561257657612575612a4a565b5b8060405250919050565b600067ffffffffffffffff82111561259b5761259a612a4a565b5b602082029050602081019050919050565b600067ffffffffffffffff8211156125c7576125c6612a4a565b5b602082029050602081019050919050565b600067ffffffffffffffff8211156125f3576125f2612a4a565b5b602082029050919050565b600067ffffffffffffffff82111561261957612618612a4a565b5b601f19601f8301169050602081019050919050565b600067ffffffffffffffff82111561264957612648612a4a565b5b601f19601f8301169050602081019050919050565b6000819050602082019050919050565b60008190508160005260206000209050919050565b6000819050919050565b6000819050919050565b6000819050602082019050919050565b60008190508160005260206000209050919050565b60008190508160005260206000209050919050565b600081519050919050565b600081549050919050565b600060149050919050565b600060149050919050565b600081519050919050565b600081519050919050565b6000602082019050919050565b6000601482019050919050565b6000602082019050919050565b6000600182019050919050565b6000602082019050919050565b600082825260208201905092915050565b600081905092915050565b600082825260208201905092915050565b600082825260208201905092915050565b600082825260208201905092915050565b60006127ae826128f6565b91506127b9836128f6565b9250827fffffffffffffffffffffffffffffffffffffffffffffffffffffffffffffffff038211156127ee576127ed6129bd565b5b828201905092915050565b6000612804826128f6565b915061280f836128f6565b92508261281f5761281e6129ec565b5b828204905092915050565b6000612835826128f6565b9150612840836128f6565b9250817fffffffffffffffffffffffffffffffffffffffffffffffffffffffffffffffff0483118215151615612879576128786129bd565b5b828202905092915050565b600061288f826128f6565b915061289a836128f6565b9250828210156128ad576128ac6129bd565b5b828203905092915050565b60006128c3826128d6565b9050919050565b60008115159050919050565b600073ffffffffffffffffffffffffffffffffffffffff82169050919050565b6000819050919050565b82818337600083830152505050565b60005b8381101561292d578082015181840152602081019050612912565b8381111561293c576000848401525b50505050565b6000600282049050600182168061295a57607f821691505b6020821081141561296e5761296d612a1b565b5b50919050565b600061297f826128f6565b91507fffffffffffffffffffffffffffffffffffffffffffffffffffffffffffffffff8214156129b2576129b16129bd565b5b600182019050919050565b7f4e487b7100000000000000000000000000000000000000000000000000000000600052601160045260246000fd5b7f4e487b7100000000000000000000000000000000000000000000000000000000600052601260045260246000fd5b7f4e487b7100000000000000000000000000000000000000000000000000000000600052602260045260246000fd5b7f4e487b7100000000000000000000000000000000000000000000000000000000600052604160045260246000fd5b6000601f19601f8301169050919050565b612a93816128b8565b8114612a9e57600080fd5b50565b612aaa816128f6565b8114612ab557600080fd5b5056fea2646970667358221220a2fde1e74b187120df1eb893b947e2551c45d9599f55f9b05e49c33f246616cd64736f6c634300080000336080604052600060025560006004553480156200001b57600080fd5b5060405162002d8638038062002d8683398181016040528101906200004191906200021e565b816000908051906020019062000059929190620000e5565b5082600160006101000a81548173ffffffffffffffffffffffffffffffffffffffff021916908373ffffffffffffffffffffffffffffffffffffffff16021790555080600560006101000a81548173ffffffffffffffffffffffffffffffffffffffff021916908373ffffffffffffffffffffffffffffffffffffffff1602179055505050506200040c565b828054620000f3906200035e565b90600052602060002090601f01602090048101928262000117576000855562000163565b82601f106200013257805160ff191683800117855562000163565b8280016001018555821562000163579182015b828111156200016257825182559160200191906001019062000145565b5b50905062000172919062000176565b5090565b5b808211156200019157600081600090555060010162000177565b5090565b6000620001ac620001a684620002c1565b6200028d565b905082815260208101848484011115620001c557600080fd5b620001d284828562000328565b509392505050565b600081519050620001eb81620003f2565b92915050565b600082601f8301126200020357600080fd5b81516200021584826020860162000195565b91505092915050565b6000806000606084860312156200023457600080fd5b60006200024486828701620001da565b935050602084015167ffffffffffffffff8111156200026257600080fd5b6200027086828701620001f1565b92505060406200028386828701620001da565b9150509250925092565b6000604051905081810181811067ffffffffffffffff82111715620002b757620002b6620003c3565b5b8060405250919050565b600067ffffffffffffffff821115620002df57620002de620003c3565b5b601f19601f8301169050602081019050919050565b6000620003018262000308565b9050919050565b600073ffffffffffffffffffffffffffffffffffffffff82169050919050565b60005b83811015620003485780820151818401526020810190506200032b565b8381111562000358576000848401525b50505050565b600060028204905060018216806200037757607f821691505b602082108114156200038e576200038d62000394565b5b50919050565b7f4e487b7100000000000000000000000000000000000000000000000000000000600052602260045260246000fd5b7f4e487b7100000000000000000000000000000000000000000000000000000000600052604160045260246000fd5b620003fd81620002f4565b81146200040957600080fd5b50565b61296a806200041c6000396000f3fe60806040523480156200001157600080fd5b50600436106200005e5760003560e01c8063227212f214620000635780632b8bd334146200008557806350038c9c14620000a5578063c48283ff14620000c5578063fbbf93a014620000fb575b600080fd5b6200006d6200011d565b6040516200007c9190620017dc565b60405180910390f35b620000a360048036038101906200009d9190620011a6565b620001ad565b005b620000c36004803603810190620000bd9190620010c5565b620003cf565b005b620000e36004803603810190620000dd9190620011fc565b620004d9565b604051620000f29190620017dc565b60405180910390f35b62000105620007ad565b60405162000114919062001800565b60405180910390f35b60606007805480602002602001604051908101604052809291908181526020018280548015620001a357602002820191906000526020600020905b8160009054906101000a900473ffffffffffffffffffffffffffffffffffffffff1673ffffffffffffffffffffffffffffffffffffffff168152602001906001019080831162000158575b5050505050905090565b60011515600660003373ffffffffffffffffffffffffffffffffffffffff1673ffffffffffffffffffffffffffffffffffffffff16815260200190815260200160002060009054906101000a900460ff1615151462000243576040517f08c379a00000000000000000000000000000000000000000000000000000000081526004016200023a9062001846565b60405180910390fd5b8115620002c1576064836003546200025c919062001ad5565b1115620002a0576040517f08c379a000000000000000000000000000000000000000000000000000000000815260040162000297906200188a565b60405180910390fd5b8260036000828254620002b4919062001ad5565b9250508190555062000325565b82600354101562000309576040517f08c379a00000000000000000000000000000000000000000000000000000000081526004016200030090620018ac565b60405180910390fd5b82600360008282546200031d919062001bcb565b925050819055505b8015620003ca576000600660003373ffffffffffffffffffffffffffffffffffffffff1673ffffffffffffffffffffffffffffffffffffffff16815260200190815260200160002060006101000a81548160ff02191690831515021790555060016004600082825462000399919062001bcb565b9250508190555060006004541415620003c95760608060079080519060200190620003c692919062000abf565b50505b5b505050565b6000600860026000815480929190620003e89062001ccb565b919050556014811062000424577f4e487b7100000000000000000000000000000000000000000000000000000000600052603260045260246000fd5b600602019050868160000190805190602001906200044492919062000b4e565b50858160010190805190602001906200045f92919062000b4e565b50848160020190805190602001906200047a92919062000bdf565b50838160030181905550828160040181905550818160050160006101000a81548173ffffffffffffffffffffffffffffffffffffffff021916908373ffffffffffffffffffffffffffffffffffffffff16021790555050505050505050565b60606000836064620004ec919062001b32565b905060648185620004fe919062001b6a565b141562000542576040517f08c379a0000000000000000000000000000000000000000000000000000000008152600401620005399062001824565b60405180910390fd5b6000600454116200058a576040517f08c379a0000000000000000000000000000000000000000000000000000000008152600401620005819062001868565b60405180910390fd5b600160009054906101000a900473ffffffffffffffffffffffffffffffffffffffff1673ffffffffffffffffffffffffffffffffffffffff163373ffffffffffffffffffffffffffffffffffffffff1614620005e557600080fd5b60005b848110156200071a576000600560009054906101000a900473ffffffffffffffffffffffffffffffffffffffff163030600160009054906101000a900473ffffffffffffffffffffffffffffffffffffffff16600160009054906101000a900473ffffffffffffffffffffffffffffffffffffffff16878a6040516200066e9062000c44565b6200068097969594939291906200175f565b604051809103906000f0801580156200069d573d6000803e3d6000fd5b5090506007819080600181540180825580915050600190039060005260206000200160009091909190916101000a81548173ffffffffffffffffffffffffffffffffffffffff021916908373ffffffffffffffffffffffffffffffffffffffff160217905550508080620007119062001ccb565b915050620005e8565b5060078054806020026020016040519081016040528092919081815260200182805480156200079f57602002820191906000526020600020905b8160009054906101000a900473ffffffffffffffffffffffffffffffffffffffff1673ffffffffffffffffffffffffffffffffffffffff168152602001906001019080831162000754575b505050505091505092915050565b620007b762000c52565b6008601480602002604051908101604052809291906000905b8282101562000ab6578382600602016040518060c0016040529081600082018054620007fc9062001c95565b80601f01602080910402602001604051908101604052809291908181526020018280546200082a9062001c95565b80156200087b5780601f106200084f576101008083540402835291602001916200087b565b820191906000526020600020905b8154815290600101906020018083116200085d57829003601f168201915b50505050508152602001600182018054620008969062001c95565b80601f0160208091040260200160405190810160405280929190818152602001828054620008c49062001c95565b8015620009155780601f10620008e95761010080835404028352916020019162000915565b820191906000526020600020905b815481529060010190602001808311620008f757829003601f168201915b5050505050815260200160028201805480602002602001604051908101604052809291908181526020016000905b8282101562000a345783829060005260206000209060140201601480602002604051908101604052809291906000905b8282101562000a205783820180546200098c9062001c95565b80601f0160208091040260200160405190810160405280929190818152602001828054620009ba9062001c95565b801562000a0b5780601f10620009df5761010080835404028352916020019162000a0b565b820191906000526020600020905b815481529060010190602001808311620009ed57829003601f168201915b50505050508152602001906001019062000973565b505050508152602001906001019062000943565b50505050815260200160038201548152602001600482015481526020016005820160009054906101000a900473ffffffffffffffffffffffffffffffffffffffff1673ffffffffffffffffffffffffffffffffffffffff1673ffffffffffffffffffffffffffffffffffffffff168152505081526020019060010190620007d0565b50505050905090565b82805482825590600052602060002090810192821562000b3b579160200282015b8281111562000b3a5782518260006101000a81548173ffffffffffffffffffffffffffffffffffffffff021916908373ffffffffffffffffffffffffffffffffffffffff1602179055509160200191906001019062000ae0565b5b50905062000b4a919062000c83565b5090565b82805462000b5c9062001c95565b90600052602060002090601f01602090048101928262000b80576000855562000bcc565b82601f1062000b9b57805160ff191683800117855562000bcc565b8280016001018555821562000bcc579182015b8281111562000bcb57825182559160200191906001019062000bae565b5b50905062000bdb919062000c83565b5090565b82805482825590600052602060002090601402810192821562000c31579160200282015b8281111562000c305782518290601462000c1f92919062000ca2565b509160200191906014019062000c03565b5b50905062000c40919062000cfc565b5090565b610b008062001e3583390190565b6040518061028001604052806014905b62000c6c62000d24565b81526020019060019003908162000c625790505090565b5b8082111562000c9e57600081600090555060010162000c84565b5090565b826014810192821562000ce9579160200282015b8281111562000ce857825182908051906020019062000cd792919062000d70565b509160200191906001019062000cb6565b5b50905062000cf8919062000e01565b5090565b5b8082111562000d20576000818162000d16919062000e29565b5060140162000cfd565b5090565b6040518060c001604052806060815260200160608152602001606081526020016000815260200160008152602001600073ffffffffffffffffffffffffffffffffffffffff1681525090565b82805462000d7e9062001c95565b90600052602060002090601f01602090048101928262000da2576000855562000dee565b82601f1062000dbd57805160ff191683800117855562000dee565b8280016001018555821562000dee579182015b8281111562000ded57825182559160200191906001019062000dd0565b5b50905062000dfd919062000c83565b5090565b5b8082111562000e25576000818162000e1b919062000e3e565b5060010162000e02565b5090565b50806014019062000e3b919062000e01565b50565b50805462000e4c9062001c95565b6000825580601f1062000e60575062000e81565b601f01602090049060005260206000209081019062000e80919062000c83565b5b50565b600062000e9b62000e958462001902565b620018ce565b9050808382526020820190508260005b8581101562000edf578135850162000ec4888262001013565b84526020840193506020830192505060018101905062000eab565b5050509392505050565b600062000f0062000efa8462001931565b620018ce565b9050808260005b8581101562000f3b578135850162000f20888262001054565b84526020840193506020830192505060018101905062000f07565b5050509392505050565b600062000f5c62000f56846200195a565b620018ce565b90508281526020810184848401111562000f7557600080fd5b62000f8284828562001c50565b509392505050565b600062000fa162000f9b846200198d565b620018ce565b90508281526020810184848401111562000fba57600080fd5b62000fc784828562001c50565b509392505050565b60008135905062000fe08162001de6565b92915050565b600082601f83011262000ff857600080fd5b81356200100a84826020860162000e84565b91505092915050565b600082601f8301126200102557600080fd5b60146200103484828562000ee9565b91505092915050565b6000813590506200104e8162001e00565b92915050565b600082601f8301126200106657600080fd5b81356200107884826020860162000f45565b91505092915050565b600082601f8301126200109357600080fd5b8135620010a584826020860162000f8a565b91505092915050565b600081359050620010bf8162001e1a565b92915050565b60008060008060008060c08789031215620010df57600080fd5b600087013567ffffffffffffffff811115620010fa57600080fd5b6200110889828a0162001081565b965050602087013567ffffffffffffffff8111156200112657600080fd5b6200113489828a0162001081565b955050604087013567ffffffffffffffff8111156200115257600080fd5b6200116089828a0162000fe6565b94505060606200117389828a01620010ae565b93505060806200118689828a01620010ae565b92505060a06200119989828a0162000fcf565b9150509295509295509295565b600080600060608486031215620011bc57600080fd5b6000620011cc86828701620010ae565b9350506020620011df868287016200103d565b9250506040620011f2868287016200103d565b9150509250925092565b600080604083850312156200121057600080fd5b60006200122085828601620010ae565b92505060206200123385828601620010ae565b9150509250929050565b60006200124b838362001299565b60208301905092915050565b6000620012658383620013a6565b905092915050565b60006200127b8383620014a8565b905092915050565b60006200129183836200169a565b905092915050565b620012a48162001c06565b82525050565b620012b58162001c06565b82525050565b6000620012c882620019f4565b620012d4818562001a6a565b9350620012e183620019c0565b8060005b8381101562001318578151620012fc88826200123d565b9750620013098362001a36565b925050600181019050620012e5565b5085935050505092915050565b60006200133282620019ff565b6200133e818562001a7b565b9350836020820285016200135285620019d0565b8060005b8581101562001394578484038952815162001372858262001257565b94506200137f8362001a43565b925060208a0199505060018101905062001356565b50829750879550505050505092915050565b6000620013b38262001a0a565b620013bf818562001a8c565b935083602082028501620013d385620019e0565b8060005b85811015620014155784840389528151620013f385826200126d565b9450620014008362001a50565b925060208a01995050600181019050620013d7565b50829750879550505050505092915050565b6000620014348262001a15565b62001440818562001a97565b9350836020820285016200145485620019ea565b8060005b8581101562001496578484038952815162001474858262001283565b9450620014818362001a5d565b925060208a0199505060018101905062001458565b50829750879550505050505092915050565b6000620014b58262001a20565b620014c1818562001aa2565b9350620014d381856020860162001c5f565b620014de8162001dd5565b840191505092915050565b6000620014f68262001a2b565b62001502818562001ab3565b93506200151481856020860162001c5f565b6200151f8162001dd5565b840191505092915050565b60006200153960228362001ac4565b91507f7368617265732063616e206f6e6c79206265206120666163746f72206f66203160008301527f30300000000000000000000000000000000000000000000000000000000000006020830152604082019050919050565b6000620015a1600d8362001ac4565b91507f4e6f742076616c6964204e4654000000000000000000000000000000000000006000830152602082019050919050565b6000620015e360208362001ac4565b91507f596f75206861766520756e736f6c64206d696e746564204e465473206c6566746000830152602082019050919050565b60006200162560178362001ac4565b91507f4d6178696d756d2070726f706f7274696f6e20736f6c640000000000000000006000830152602082019050919050565b60006200166760158362001ac4565b91507f4e6f7420656e6f7567682070726f706f7274696f6e00000000000000000000006000830152602082019050919050565b600060c0830160008301518482036000860152620016b98282620014e9565b91505060208301518482036020860152620016d58282620014e9565b91505060408301518482036040860152620016f1828262001325565b91505060608301516200170860608601826200173d565b5060808301516200171d60808601826200173d565b5060a08301516200173260a086018262001299565b508091505092915050565b620017488162001c46565b82525050565b620017598162001c46565b82525050565b600060e08201905062001776600083018a620012aa565b620017856020830189620012aa565b620017946040830188620012aa565b620017a36060830187620012aa565b620017b26080830186620012aa565b620017c160a08301856200174e565b620017d060c08301846200174e565b98975050505050505050565b60006020820190508181036000830152620017f88184620012bb565b905092915050565b600060208201905081810360008301526200181c818462001427565b905092915050565b600060208201905081810360008301526200183f816200152a565b9050919050565b60006020820190508181036000830152620018618162001592565b9050919050565b600060208201905081810360008301526200188381620015d4565b9050919050565b60006020820190508181036000830152620018a58162001616565b9050919050565b60006020820190508181036000830152620018c78162001658565b9050919050565b6000604051905081810181811067ffffffffffffffff82111715620018f857620018f762001da6565b5b8060405250919050565b600067ffffffffffffffff82111562001920576200191f62001da6565b5b602082029050602081019050919050565b600067ffffffffffffffff8211156200194f576200194e62001da6565b5b602082029050919050565b600067ffffffffffffffff82111562001978576200197762001da6565b5b601f19601f8301169050602081019050919050565b600067ffffffffffffffff821115620019ab57620019aa62001da6565b5b601f19601f8301169050602081019050919050565b6000819050602082019050919050565b6000819050602082019050919050565b6000819050919050565b6000819050919050565b600081519050919050565b600081519050919050565b600060149050919050565b600060149050919050565b600081519050919050565b600081519050919050565b6000602082019050919050565b6000602082019050919050565b6000602082019050919050565b6000602082019050919050565b600082825260208201905092915050565b600082825260208201905092915050565b600081905092915050565b600081905092915050565b600082825260208201905092915050565b600082825260208201905092915050565b600082825260208201905092915050565b600062001ae28262001c46565b915062001aef8362001c46565b9250827fffffffffffffffffffffffffffffffffffffffffffffffffffffffffffffffff0382111562001b275762001b2662001d19565b5b828201905092915050565b600062001b3f8262001c46565b915062001b4c8362001c46565b92508262001b5f5762001b5e62001d48565b5b828204905092915050565b600062001b778262001c46565b915062001b848362001c46565b9250817fffffffffffffffffffffffffffffffffffffffffffffffffffffffffffffffff048311821515161562001bc05762001bbf62001d19565b5b828202905092915050565b600062001bd88262001c46565b915062001be58362001c46565b92508282101562001bfb5762001bfa62001d19565b5b828203905092915050565b600062001c138262001c26565b9050919050565b60008115159050919050565b600073ffffffffffffffffffffffffffffffffffffffff82169050919050565b6000819050919050565b82818337600083830152505050565b60005b8381101562001c7f57808201518184015260208101905062001c62565b8381111562001c8f576000848401525b50505050565b6000600282049050600182168062001cae57607f821691505b6020821081141562001cc55762001cc462001d77565b5b50919050565b600062001cd88262001c46565b91507fffffffffffffffffffffffffffffffffffffffffffffffffffffffffffffffff82141562001d0e5762001d0d62001d19565b5b600182019050919050565b7f4e487b7100000000000000000000000000000000000000000000000000000000600052601160045260246000fd5b7f4e487b7100000000000000000000000000000000000000000000000000000000600052601260045260246000fd5b7f4e487b7100000000000000000000000000000000000000000000000000000000600052602260045260246000fd5b7f4e487b7100000000000000000000000000000000000000000000000000000000600052604160045260246000fd5b6000601f19601f8301169050919050565b62001df18162001c06565b811462001dfd57600080fd5b50565b62001e0b8162001c1a565b811462001e1757600080fd5b50565b62001e258162001c46565b811462001e3157600080fd5b5056fe608060405234801561001057600080fd5b5060405162000b0038038062000b00833981810160405281019061003491906101d7565b866000806101000a81548173ffffffffffffffffffffffffffffffffffffffff021916908373ffffffffffffffffffffffffffffffffffffffff16021790555083600160006101000a81548173ffffffffffffffffffffffffffffffffffffffff021916908373ffffffffffffffffffffffffffffffffffffffff16021790555082600260006101000a81548173ffffffffffffffffffffffffffffffffffffffff021916908373ffffffffffffffffffffffffffffffffffffffff16021790555081600381905550806004819055506000600560006101000a81548160ff02191690831515021790555085600560016101000a81548173ffffffffffffffffffffffffffffffffffffffff021916908373ffffffffffffffffffffffffffffffffffffffff16021790555084600660006101000a81548173ffffffffffffffffffffffffffffffffffffffff021916908373ffffffffffffffffffffffffffffffffffffffff160217905550505050505050506102df565b6000815190506101bc816102b1565b92915050565b6000815190506101d1816102c8565b92915050565b600080600080600080600060e0888a0312156101f257600080fd5b60006102008a828b016101ad565b97505060206102118a828b016101ad565b96505060406102228a828b016101ad565b95505060606102338a828b016101ad565b94505060806102448a828b016101ad565b93505060a06102558a828b016101c2565b92505060c06102668a828b016101c2565b91505092959891949750929550565b600061028082610287565b9050919050565b600073ffffffffffffffffffffffffffffffffffffffff82169050919050565b6000819050919050565b6102ba81610275565b81146102c557600080fd5b50565b6102d1816102a7565b81146102dc57600080fd5b50565b61081180620002ef6000396000f3fe608060405234801561001057600080fd5b506004361061009e5760003560e01c80638da5cb5b116100665780638da5cb5b14610139578063c78ad77f14610157578063d05ad2b414610175578063eacaec2d14610193578063fbbf93a0146101b15761009e565b8063204de7a6146100a357806323bd4d7a146100c157806345653a6d146100df5780634c2067c7146100fd5780638c1867fe1461011b575b600080fd5b6100ab6101d3565b6040516100b89190610604565b60405180910390f35b6100c96101f9565b6040516100d69190610604565b60405180910390f35b6100e761021d565b6040516100f49190610604565b60405180910390f35b610105610243565b6040516101129190610672565b60405180910390f35b610123610256565b6040516101309190610604565b60405180910390f35b61014161027c565b60405161014e9190610604565b60405180910390f35b61015f6102a2565b60405161016c91906106cd565b60405180910390f35b61017d6102a8565b60405161018a91906106cd565b60405180910390f35b61019b6104b6565b6040516101a891906106cd565b60405180910390f35b6101b96104bc565b6040516101ca95949392919061061f565b60405180910390f35b600560019054906101000a900473ffffffffffffffffffffffffffffffffffffffff1681565b60008054906101000a900473ffffffffffffffffffffffffffffffffffffffff1681565b600160009054906101000a900473ffffffffffffffffffffffffffffffffffffffff1681565b600560009054906101000a900460ff1681565b600660009054906101000a900473ffffffffffffffffffffffffffffffffffffffff1681565b600260009054906101000a900473ffffffffffffffffffffffffffffffffffffffff1681565b60035481565b6000801515600560009054906101000a900460ff161515146102ff576040517f08c379a00000000000000000000000000000000000000000000000000000000081526004016102f6906106ad565b60405180910390fd5b600060045411610344576040517f08c379a000000000000000000000000000000000000000000000000000000000815260040161033b9061068d565b60405180910390fd5b60016004546103539190610730565b60048190555060006004541415610418576001600560006101000a81548160ff021916908315150217905550600560019054906101000a900473ffffffffffffffffffffffffffffffffffffffff1673ffffffffffffffffffffffffffffffffffffffff16632b8bd3346003546001806040518463ffffffff1660e01b81526004016103e1939291906106e8565b600060405180830381600087803b1580156103fb57600080fd5b505af115801561040f573d6000803e3d6000fd5b505050506104ae565b600560019054906101000a900473ffffffffffffffffffffffffffffffffffffffff1673ffffffffffffffffffffffffffffffffffffffff16632b8bd334600354600160006040518463ffffffff1660e01b815260040161047b939291906106e8565b600060405180830381600087803b15801561049557600080fd5b505af11580156104a9573d6000803e3d6000fd5b505050505b600354905090565b60045481565b6000806000806000600160009054906101000a900473ffffffffffffffffffffffffffffffffffffffff16600260009054906101000a900473ffffffffffffffffffffffffffffffffffffffff16600354600454600560009054906101000a900460ff16945094509450945094509091929394565b61053a81610764565b82525050565b61054981610776565b82525050565b600061055c602c8361071f565b91507f546865206d6178696d756d206e756d626572206f662067616d6573206861732060008301527f6265656e207265616368656400000000000000000000000000000000000000006020830152604082019050919050565b60006105c260148361071f565b91507f54686520636172642068617320657870697265640000000000000000000000006000830152602082019050919050565b6105fe816107a2565b82525050565b60006020820190506106196000830184610531565b92915050565b600060a0820190506106346000830188610531565b6106416020830187610531565b61064e60408301866105f5565b61065b60608301856105f5565b6106686080830184610540565b9695505050505050565b60006020820190506106876000830184610540565b92915050565b600060208201905081810360008301526106a68161054f565b9050919050565b600060208201905081810360008301526106c6816105b5565b9050919050565b60006020820190506106e260008301846105f5565b92915050565b60006060820190506106fd60008301866105f5565b61070a6020830185610540565b6107176040830184610540565b949350505050565b600082825260208201905092915050565b600061073b826107a2565b9150610746836107a2565b925082821015610759576107586107ac565b5b828203905092915050565b600061076f82610782565b9050919050565b60008115159050919050565b600073ffffffffffffffffffffffffffffffffffffffff82169050919050565b6000819050919050565b7f4e487b7100000000000000000000000000000000000000000000000000000000600052601160045260246000fdfea2646970667358221220ba0dd0c3221c1361ea65f0a64a90aaab3ebd715a9d8947d4e918f9e56544bb2264736f6c63430008000033a2646970667358221220a49a7aa07ad28e656a03ffca20a78a766a2e4da82027680532166af1e93d0fd964736f6c63430008000033a2646970667358221220936a967240bc23c19a8a06048bb0f75fa2a6aa1ef01e93a953d0945b9f6e782a64736f6c63430008000033",
  "immutableReferences": {},
  "source": "// SPDX-License-Identifier: MIT\r\npragma solidity >=0.8.0;\r\n\r\ncontract Knitts{\r\n    //organization address here\r\n    address organization = 0x79e6234Ff4E7DB556F916FeBcE9e52a68D0B8879;\r\n    address[] moderators;//change this to mapping mapping(address=>bool)\r\n    mapping(address=>bool) valid;\r\n    mapping(address => uint) deposits;\r\n    address[] Leagues;\r\n  \taddress[] Users;\r\n    uint maxDescLength = 1000;\r\n  \tmapping(address => address) idToUser; \r\n  \tmapping(address => bool) userExists;\r\n    function addModerator() public payable{\r\n        require(msg.value > 0, \"You should deposit some amount\");\r\n        moderators.push(msg.sender);\r\n        deposits[msg.sender] = msg.value;\r\n        valid[msg.sender]=true;\r\n    }\r\n\r\n    function depositMore() public payable{\r\n        require(msg.value > 0, \"You need to deposit some amount\");\r\n        deposits[msg.sender] += msg.value;\r\n    }\r\n\r\n    function createLeague(uint _entryFee, uint _numPlayers, uint _duration) public returns(address[] memory){\r\n        require(_entryFee * _numPlayers <= deposits[msg.sender], \"Insufficient deposit\");\r\n        League newLeague = new League(msg.sender, _entryFee, _numPlayers, _duration, address(this));\r\n        Leagues.push(address(newLeague));\r\n        return Leagues;\r\n    }\r\n\r\n    function getBalance(address _moderator) public view returns (uint){\r\n        return deposits[_moderator];\r\n    }\r\n\r\n    function getDetails() public view returns (address [] memory, address [] memory){\r\n        return (moderators, Leagues);\r\n    }\r\n\r\n    function removeModerator(address _moderator) public {\r\n        valid[_moderator] = false;\r\n    }\r\n  \r\n  \tfunction register(string memory _name) public returns (address) {\r\n        User newUser = new User(msg.sender, _name, organization);\r\n        userExists[msg.sender] = true;\r\n        idToUser[msg.sender] = address(newUser);\r\n        return address(newUser);\r\n    }\r\n  \r\n  \tfunction getUserContractAddress(address _id) public view returns(address) {\r\n        require(userExists[_id] == true,\"The user should exist\");\r\n        return idToUser[_id];\r\n    }\r\n}\r\n\r\ncontract League{\r\n    \r\n    address organization;\r\n    uint entryFee;\r\n    uint maxParticipants;\r\n    uint numProjects;\r\n    address [] participants;\r\n    address moderator;\r\n    uint duration;\r\n    bool started;\r\n    bool ended;\r\n    bool distributed;\r\n  \tuint total_points=0;\r\n    uint [] points;\r\n    address knittsAddress;\r\n\r\n    struct project{\r\n        string title;\r\n        string url;\r\n        address owner;\r\n        bytes[20][] description;\r\n        mapping(address => uint)investments;\r\n        address[] investors;\r\n        uint total_fund;\r\n    }\r\n\t\t\r\n    mapping(uint => project) projects;\r\n\r\n    constructor(address _moderator, uint _entryFee, uint _maxParticipants, uint _duration, address _knittsAddress){\r\n        entryFee = _entryFee;\r\n        maxParticipants = _maxParticipants;\r\n        moderator = _moderator;\r\n        duration = _duration;\r\n        numProjects = 0;\r\n        started=false;\r\n        ended=false;\r\n        distributed=false;\r\n        //organization = 0x79e6234Ff4E7DB556F916FeBcE9e52a68D0B8879; //for public net\r\n        organization = _moderator; // for local testing\r\n        knittsAddress = _knittsAddress;\r\n    }\r\n\r\n    function submitIdea(string memory title, string memory url, bytes[20][] memory description) public payable returns(uint){\r\n        require(msg.value >= entryFee, \"Insufficient entry fee\");\r\n        require(numProjects < maxParticipants, \"Maximum limit reached\");\r\n        project storage p = projects[numProjects++];\r\n        p.title = title;\r\n        p.url = url;\r\n        p.owner = msg.sender;\r\n        p.description = description;\r\n        return numProjects;\r\n    }\r\n\r\n    function invest(uint projectId) public payable{\r\n        require(projectId < numProjects, \"Invalid project id\");\r\n        if(projects[projectId].investments[msg.sender] == 0){\r\n            projects[projectId].investors.push(msg.sender);\r\n        }\r\n        projects[projectId].total_fund += msg.value/1e12;\r\n        projects[projectId].investments[msg.sender] += msg.value/1e12;\r\n        \r\n    }\r\n\r\n    function startLeague() public{\r\n        require(msg.sender == moderator, \"only moderator can start the league\");\r\n        started=true;\r\n    }\r\n\r\n    function endLeague() public returns(uint[] memory){\r\n        require(msg.sender == organization, \"only organization can end the league\");\r\n        ended=true;\r\n        getPoints();\r\n      \t\r\n      \tfor(uint i=0; i<numProjects; i++){\r\n            total_points += points[i];\r\n        }\r\n\r\n        uint averagePoints = total_points / numProjects;\r\n      \r\n      \tfor(uint i=0;i<numProjects; i++) {\r\n            Knitts _knitts = Knitts(knittsAddress);\r\n            address _userId = _knitts.getUserContractAddress(projects[i].owner);\r\n            User _user = User(_userId);\r\n            _user.addProject(projects[i].title, projects[i].url, projects[i].description, points[i] , averagePoints, address(this) );\r\n        } \r\n\r\n        return points;\r\n    }\r\n\r\n    function getPoints() private returns(uint[] memory){\r\n        require(ended = true, \"the game has not ended\");\r\n        uint [] memory empty_points;\r\n        points = empty_points;\r\n        // require(msg.sender == organization, \"only organization get the points\");\r\n        // write quadratic funding code here\r\n        for(uint i=0; i < numProjects; i++){\r\n            uint sum = 0;\r\n            for(uint j=0; j<projects[i].investors.length; j++){\r\n                address investor = projects[i].investors[j];\r\n                sum += sqrt(projects[i].investments[investor]);\r\n            }\r\n            uint point = sum * sum;\r\n            points.push(point);\r\n        }\r\n      \t\r\n        \r\n        return points;\r\n    }\r\n\r\n    function distribute() public {\r\n        require(msg.sender == organization, \"only organization can distribute prizes\");\r\n        uint total_balance = address(this).balance;\r\n        \r\n        for(uint i=0; i<numProjects; i++){\r\n            project storage p  =  projects[i];\r\n            \r\n            payable(p.owner).transfer( (3*points[i]*total_balance)/(10*total_points) );\r\n\r\n            for(uint j=0; j<p.investors.length; j++){\r\n                address investor = p.investors[j];\r\n                 Knitts _knitts = Knitts(knittsAddress);\r\n                address _userId = _knitts.getUserContractAddress(investor);\r\n                User _user = User(_userId);\r\n                address [] memory NFTs = _user.getNFTs();\r\n                \r\n                if(NFTs.length == 0){\r\n                    uint value = (6 * points[i] * total_balance * p.investments[investor]) / (10 * total_points * p.total_fund);\r\n                    payable(investor).transfer( value );\r\n                }\r\n                else{\r\n                    for(uint k = 0; k < NFTs.length; k++){\r\n                        NFT nft = NFT(NFTs[k]);\r\n                        uint value = (6 * points[i] * total_balance * p.investments[investor] * nft.percentage()) / (10 * total_points * p.total_fund * 100);\r\n                        payable(nft.owner()).transfer(value);\r\n                        nft.strikeNFT();\r\n                    }\r\n                }\r\n                \r\n            }\r\n        }\r\n\r\n        payable(moderator).transfer(address(this).balance);\r\n\r\n    }\r\n\r\n    function getDetails() public view returns(\r\n        address,//moderator\r\n        uint,//entry fee\r\n        uint,//maxParticipants\r\n        bool, //started\r\n        bool, //ended\r\n        bool //distributed\r\n    ){\r\n        return (moderator, entryFee, maxParticipants, started, ended, distributed);\r\n    }\r\n\r\n    function submissionDetails(uint projectId) public view returns(\r\n        address, // project owner\r\n        bytes[20][] memory // description\r\n    )  {\r\n        return (projects[projectId].owner, projects[projectId].description);\r\n    }\r\n\r\n    function sqrt(uint num) public pure returns(uint){\r\n        uint start = 1;\r\n        uint end = num;\r\n        uint mid = start;\r\n        while(start < end){\r\n            mid = start + (end - start)/2;\r\n            if(mid * mid >= num){\r\n                end = mid;\r\n            }else{\r\n                start = mid+1;\r\n            }\r\n        }\r\n        return end;\r\n    }\r\n}\r\n\r\n\r\ncontract User {\r\n  string name;\r\n  address id; //metamask address of corresponding user\r\n  uint numProjects=0;\r\n  uint percentageNFTSold;\r\n  uint NFTsPending = 0;\r\n  address organization;\r\n  mapping(address=>bool) validNFT;\r\n\r\n  address[] NFTs;\r\n  constructor( address _id, string memory _name, address _organization ) {\r\n  \tname = _name;\r\n    id = _id;\r\n    organization = _organization;\r\n  }\r\n  \r\n  \r\n  struct project{\r\n      string title;\r\n      string url;\r\n        bytes[20][] description;\r\n        uint point;\r\n        uint average_point;\r\n        address submittedOn;\r\n  }\r\n\t// mapping(uint => project) projects;\r\n\r\n    project[20] projects;\r\n  \r\n  function addProject(string memory title, string memory url, bytes[20][] memory description, uint point, uint average_point, address submittedOn) public {\r\n    project storage p = projects[numProjects++];\r\n    p.title = title;\r\n    p.url = url;\r\n    p.description = description;\r\n    p.point = point;\r\n    p.average_point = average_point;\r\n    p.submittedOn = submittedOn;\r\n  }\r\n\r\n  function updateNFT(uint value, bool increase, bool deactivate) public {\r\n      require(validNFT[msg.sender] == true, \"Not valid NFT\");\r\n      if(increase){\r\n          require(percentageNFTSold + value <= 100, \"Maximum proportion sold\");\r\n          percentageNFTSold += value;\r\n      }else{\r\n          require(percentageNFTSold >= value, \"Not enough proportion\");\r\n          percentageNFTSold -= value;\r\n      }\r\n      if(deactivate){\r\n          validNFT[msg.sender] = false;\r\n          NFTsPending-=1;\r\n          if(NFTsPending ==0){\r\n            address [] memory NFTsUtil;\r\n            NFTs = NFTsUtil;\r\n          }\r\n          \r\n      }\r\n  }\r\n\r\n  function mintNFT(uint shares, uint numLeagues) public returns (address[] memory){\r\n      uint percentageEachShare = 100/shares;\r\n      require(shares * percentageEachShare != 100, \"shares can only be a factor of 100\");\r\n      require(NFTsPending > 0, \"You have unsold minted NFTs left\");\r\n      require(msg.sender == id);\r\n      for(uint i=0; i<shares; i++){\r\n          NFT newNFT = new NFT(organization, address(this), address(this), id, id, percentageEachShare, numLeagues);\r\n          NFTs.push(address(newNFT));\r\n      }\r\n      return NFTs;\r\n  }\r\n\r\n  function getNFTs() public view returns (address[] memory){\r\n      return NFTs;\r\n  }\r\n  \r\n  function getDetails() public view returns (project[20] memory){\r\n    \treturn projects;\r\n  }\r\n  \r\n}\r\n\r\n\r\ncontract NFT{\r\n    address public organization;\r\n    address public creater;\r\n    address public owner;\r\n    uint public percentage;\r\n    uint public gamesRemaining;\r\n    bool public expired;\r\n    address public createrContractId;\r\n    address public ownerContractId;\r\n\r\n    constructor(address _organization, address _createrContractId, address _ownerContractId, address _creater, address _owner, uint _percentage, uint _gamesRemaining){\r\n        organization = _organization;\r\n        creater = _creater;\r\n        owner = _owner;\r\n        percentage = _percentage;\r\n        gamesRemaining = _gamesRemaining;\r\n        expired = false;\r\n        createrContractId = _createrContractId;\r\n        ownerContractId = _ownerContractId;\r\n    }\r\n\r\n    function getDetails() public view returns(address, address, uint, uint, bool){\r\n        return (creater, owner, percentage, gamesRemaining, expired);\r\n    }\r\n\r\n    function strikeNFT() public returns (uint){\r\n        // require(msg.sender == organization, \"only organization can strikeNFT\");\r\n        require(expired == false, \"The card has expired\");\r\n        require(gamesRemaining > 0, \"The maximum number of games has been reached\");\r\n        gamesRemaining = gamesRemaining-1;\r\n        if(gamesRemaining == 0){\r\n            expired = true;\r\n            User(createrContractId).updateNFT(percentage, true, true);\r\n        }else{\r\n            User(createrContractId).updateNFT(percentage, true, false);\r\n        }\r\n        return percentage;\r\n    }\r\n\r\n    \r\n\r\n}\r\n\r\n\r\n\r\n\r\n\r\n\r\n\r\n\r\n\r\n\r\n\r\n\r\n\r\n\r\n",
  "sourcePath": "E:\\projects\\knitts\\back-end\\contracts\\League.sol",
  "compiler": {
    "name": "solc",
    "version": "0.8.0+commit.c7dfd78e.Emscripten.clang"
  },
  "schemaVersion": "3.4.3",
  "updatedAt": "2021-09-30T07:05:08.582Z",
  "devdoc": {
    "kind": "dev",
    "methods": {},
    "version": 1
  },
  "userdoc": {
    "kind": "user",
    "methods": {},
    "version": 1
  }
}