{
  "contractName": "Knitts",
  "abi": [
    {
      "inputs": [
        {
          "internalType": "uint256",
          "name": "",
          "type": "uint256"
        }
      ],
      "name": "Leagues",
      "outputs": [
        {
          "internalType": "address",
          "name": "",
          "type": "address"
        }
      ],
      "stateMutability": "view",
      "type": "function",
      "constant": true
    },
    {
      "inputs": [],
      "name": "depositMore",
      "outputs": [],
      "stateMutability": "payable",
      "type": "function",
      "payable": true
    },
    {
      "inputs": [
        {
          "internalType": "uint256",
          "name": "_entryFee",
          "type": "uint256"
        },
        {
          "internalType": "uint256",
          "name": "_numPlayers",
          "type": "uint256"
        },
        {
          "internalType": "uint256",
          "name": "_duration",
          "type": "uint256"
        }
      ],
      "name": "createLeague",
      "outputs": [
        {
          "internalType": "address[]",
          "name": "",
          "type": "address[]"
        }
      ],
      "stateMutability": "nonpayable",
      "type": "function"
    },
    {
      "inputs": [
        {
          "internalType": "address",
          "name": "_moderator",
          "type": "address"
        }
      ],
      "name": "getBalance",
      "outputs": [
        {
          "internalType": "uint256",
          "name": "",
          "type": "uint256"
        }
      ],
      "stateMutability": "view",
      "type": "function",
      "constant": true
    },
    {
      "inputs": [
        {
          "internalType": "address",
          "name": "_id",
          "type": "address"
        }
      ],
      "name": "getUserContractAddress",
      "outputs": [
        {
          "internalType": "address",
          "name": "",
          "type": "address"
        }
      ],
      "stateMutability": "view",
      "type": "function",
      "constant": true
    }
  ],
  "bytecode": "0x60806040527379e6234ff4e7db556f916febce9e52a68d0b88796000806101000a81548173ffffffffffffffffffffffffffffffffffffffff021916908373ffffffffffffffffffffffffffffffffffffffff1602179055506103e860045534801561006a57600080fd5b506133528061007a6000396000f3fe608060405260043610620000505760003560e01c806319fe7a831462000055578063601731801462000099578063a6e497b614620000a5578063e9ff6f5c14620000e9578063f8b2cb4f146200012d575b600080fd5b3480156200006257600080fd5b506200008160048036038101906200007b91906200053a565b62000171565b604051620000909190620006f7565b60405180910390f35b620000a3620001b1565b005b348015620000b257600080fd5b50620000d16004803603810190620000cb91906200050e565b62000251565b604051620000e09190620006f7565b60405180910390f35b348015620000f657600080fd5b506200011560048036038101906200010f919062000566565b620002ba565b60405162000124919062000771565b60405180910390f35b3480156200013a57600080fd5b506200015960048036038101906200015391906200050e565b62000489565b604051620001689190620007d9565b60405180910390f35b600281815481106200018257600080fd5b906000526020600020016000915054906101000a900473ffffffffffffffffffffffffffffffffffffffff1681565b60003411620001f7576040517f08c379a0000000000000000000000000000000000000000000000000000000008152600401620001ee9062000795565b60405180910390fd5b34600160003373ffffffffffffffffffffffffffffffffffffffff1673ffffffffffffffffffffffffffffffffffffffff168152602001908152602001600020600082825462000248919062000840565b92505081905550565b6000600560008373ffffffffffffffffffffffffffffffffffffffff1673ffffffffffffffffffffffffffffffffffffffff16815260200190815260200160002060009054906101000a900473ffffffffffffffffffffffffffffffffffffffff169050919050565b6060600160003373ffffffffffffffffffffffffffffffffffffffff1673ffffffffffffffffffffffffffffffffffffffff1681526020019081526020016000205483856200030a91906200089d565b11156200034e576040517f08c379a00000000000000000000000000000000000000000000000000000000081526004016200034590620007b7565b60405180910390fd5b600033858585306040516200036390620004d2565b6200037395949392919062000714565b604051809103906000f08015801562000390573d6000803e3d6000fd5b5090506002819080600181540180825580915050600190039060005260206000200160009091909190916101000a81548173ffffffffffffffffffffffffffffffffffffffff021916908373ffffffffffffffffffffffffffffffffffffffff16021790555060028054806020026020016040519081016040528092919081815260200182805480156200047a57602002820191906000526020600020905b8160009054906101000a900473ffffffffffffffffffffffffffffffffffffffff1673ffffffffffffffffffffffffffffffffffffffff16815260200190600101908083116200042f575b50505050509150509392505050565b6000600160008373ffffffffffffffffffffffffffffffffffffffff1673ffffffffffffffffffffffffffffffffffffffff168152602001908152602001600020549050919050565b61297d80620009a083390190565b600081359050620004f1816200096b565b92915050565b600081359050620005088162000985565b92915050565b6000602082840312156200052157600080fd5b60006200053184828501620004e0565b91505092915050565b6000602082840312156200054d57600080fd5b60006200055d84828501620004f7565b91505092915050565b6000806000606084860312156200057c57600080fd5b60006200058c86828701620004f7565b93505060206200059f86828701620004f7565b9250506040620005b286828701620004f7565b9150509250925092565b6000620005ca8383620005d6565b60208301905092915050565b620005e181620008fe565b82525050565b620005f281620008fe565b82525050565b6000620006058262000806565b6200061181856200081e565b93506200061e83620007f6565b8060005b8381101562000655578151620006398882620005bc565b9750620006468362000811565b92505060018101905062000622565b5085935050505092915050565b600062000671601f836200082f565b91507f596f75206e65656420746f206465706f73697420736f6d6520616d6f756e74006000830152602082019050919050565b6000620006b36014836200082f565b91507f496e73756666696369656e74206465706f7369740000000000000000000000006000830152602082019050919050565b620006f18162000932565b82525050565b60006020820190506200070e6000830184620005e7565b92915050565b600060a0820190506200072b6000830188620005e7565b6200073a6020830187620006e6565b620007496040830186620006e6565b620007586060830185620006e6565b620007676080830184620005e7565b9695505050505050565b600060208201905081810360008301526200078d8184620005f8565b905092915050565b60006020820190508181036000830152620007b08162000662565b9050919050565b60006020820190508181036000830152620007d281620006a4565b9050919050565b6000602082019050620007f06000830184620006e6565b92915050565b6000819050602082019050919050565b600081519050919050565b6000602082019050919050565b600082825260208201905092915050565b600082825260208201905092915050565b60006200084d8262000932565b91506200085a8362000932565b9250827fffffffffffffffffffffffffffffffffffffffffffffffffffffffffffffffff038211156200089257620008916200093c565b5b828201905092915050565b6000620008aa8262000932565b9150620008b78362000932565b9250817fffffffffffffffffffffffffffffffffffffffffffffffffffffffffffffffff0483118215151615620008f357620008f26200093c565b5b828202905092915050565b60006200090b8262000912565b9050919050565b600073ffffffffffffffffffffffffffffffffffffffff82169050919050565b6000819050919050565b7f4e487b7100000000000000000000000000000000000000000000000000000000600052601160045260246000fd5b6200097681620008fe565b81146200098257600080fd5b50565b620009908162000932565b81146200099c57600080fd5b5056fe608060405260006008553480156200001657600080fd5b506040516200297d3803806200297d83398181016040528101906200003c9190620001a5565b836001819055508260028190555084600560006101000a81548173ffffffffffffffffffffffffffffffffffffffff021916908373ffffffffffffffffffffffffffffffffffffffff1602179055508160068190555060006003819055506000600760006101000a81548160ff0219169083151502179055506000600760016101000a81548160ff0219169083151502179055506000600760026101000a81548160ff021916908315150217905550846000806101000a81548173ffffffffffffffffffffffffffffffffffffffff021916908373ffffffffffffffffffffffffffffffffffffffff16021790555080600a60006101000a81548173ffffffffffffffffffffffffffffffffffffffff021916908373ffffffffffffffffffffffffffffffffffffffff160217905550505050505062000299565b600081519050620001888162000265565b92915050565b6000815190506200019f816200027f565b92915050565b600080600080600060a08688031215620001be57600080fd5b6000620001ce8882890162000177565b9550506020620001e1888289016200018e565b9450506040620001f4888289016200018e565b935050606062000207888289016200018e565b92505060806200021a8882890162000177565b9150509295509295909350565b600062000234826200023b565b9050919050565b600073ffffffffffffffffffffffffffffffffffffffff82169050919050565b6000819050919050565b620002708162000227565b81146200027c57600080fd5b50565b6200028a816200025b565b81146200029657600080fd5b50565b6126d480620002a96000396000f3fe6080604052600436106101145760003560e01c80632afcf480116100a0578063a19eb3c611610064578063a19eb3c61461038d578063c3b7a80f146103b8578063d235407b146103cf578063e4fc6b6d1461040d578063f84b903e1461042457610114565b80632afcf480146102a157806335c1d349146102bd57806338743904146102fa5780635a067baa146103255780639799b4e71461035057610114565b80632185ce83116100e75780632185ce83146101c557806323bd4d7a146101f557806324924bf71461022057806324fd79181461024b57806325d5eafa1461027657610114565b8063072ea61c146101195780630fb5a6b41461014457806312fa6feb1461016f5780631f2698ab1461019a575b600080fd5b34801561012557600080fd5b5061012e61044f565b60405161013b9190612146565b60405180910390f35b34801561015057600080fd5b50610159610455565b6040516101669190612146565b60405180910390f35b34801561017b57600080fd5b5061018461045b565b6040516101919190612000565b60405180910390f35b3480156101a657600080fd5b506101af61046e565b6040516101bc9190612000565b60405180910390f35b6101df60048036038101906101da919061195a565b610481565b6040516101ec9190612146565b60405180910390f35b34801561020157600080fd5b5061020a6105f0565b6040516102179190611f93565b60405180910390f35b34801561022c57600080fd5b50610235610614565b6040516102429190612146565b60405180910390f35b34801561025757600080fd5b5061026061061a565b60405161026d9190611fde565b60405180910390f35b34801561028257600080fd5b5061028b6109d9565b6040516102989190612146565b60405180910390f35b6102bb60048036038101906102b69190611a1d565b6109df565b005b3480156102c957600080fd5b506102e460048036038101906102df9190611a1d565b610b3d565b6040516102f19190611f93565b60405180910390f35b34801561030657600080fd5b5061030f610b7c565b60405161031c9190611f93565b60405180910390f35b34801561033157600080fd5b5061033a610ba2565b6040516103479190612146565b60405180910390f35b34801561035c57600080fd5b5061037760048036038101906103729190611a1d565b610ba8565b6040516103849190612146565b60405180910390f35b34801561039957600080fd5b506103a2610bcc565b6040516103af9190611f93565b60405180910390f35b3480156103c457600080fd5b506103cd610bf2565b005b3480156103db57600080fd5b506103f660048036038101906103f19190611a1d565b610c9f565b604051610404929190611fae565b60405180910390f35b34801561041957600080fd5b50610422610e05565b005b34801561043057600080fd5b506104396111c4565b6040516104469190612000565b60405180910390f35b60015481565b60065481565b600760019054906101000a900460ff1681565b600760009054906101000a900460ff1681565b60006001543410156104c8576040517f08c379a00000000000000000000000000000000000000000000000000000000081526004016104bf90612126565b60405180910390fd5b6002546003541061050e576040517f08c379a0000000000000000000000000000000000000000000000000000000008152600401610505906120e6565b60405180910390fd5b6000600b6000600360008154809291906105279061255a565b919050558152602001908152602001600020905085816000019080519060200190610553929190611473565b508481600101908051906020019061056c929190611473565b5083816002019080519060200190610585929190611473565b50338160030160006101000a81548173ffffffffffffffffffffffffffffffffffffffff021916908373ffffffffffffffffffffffffffffffffffffffff160217905550828160040190805190602001906105e19291906114f9565b50600354915050949350505050565b60008054906101000a900473ffffffffffffffffffffffffffffffffffffffff1681565b60025481565b606060008054906101000a900473ffffffffffffffffffffffffffffffffffffffff1673ffffffffffffffffffffffffffffffffffffffff163373ffffffffffffffffffffffffffffffffffffffff16146106aa576040517f08c379a00000000000000000000000000000000000000000000000000000000081526004016106a1906120a6565b60405180910390fd5b6001600760016101000a81548160ff0219169083151502179055506106cd6111d7565b5060005b60035481101561074b5760098181548110610715577f4e487b7100000000000000000000000000000000000000000000000000000000600052603260045260246000fd5b9060005260206000200154600860008282546107319190612389565b9250508190555080806107439061255a565b9150506106d1565b50600060035460085461075e91906123df565b905060005b600354811015610981576000600a60009054906101000a900473ffffffffffffffffffffffffffffffffffffffff16905060008173ffffffffffffffffffffffffffffffffffffffff1663a6e497b6600b600086815260200190815260200160002060030160009054906101000a900473ffffffffffffffffffffffffffffffffffffffff166040518263ffffffff1660e01b81526004016108059190611f93565b60206040518083038186803b15801561081d57600080fd5b505afa158015610831573d6000803e3d6000fd5b505050506040513d601f19601f820116820180604052508101906108559190611931565b905060008190508073ffffffffffffffffffffffffffffffffffffffff1663fbf7de84600b6000878152602001908152602001600020600001600b6000888152602001908152602001600020600101600b6000898152602001908152602001600020600201600b60008a815260200190815260200160002060040160098a8154811061090a577f4e487b7100000000000000000000000000000000000000000000000000000000600052603260045260246000fd5b90600052602060002001548b306040518863ffffffff1660e01b8152600401610939979695949392919061201b565b600060405180830381600087803b15801561095357600080fd5b505af1158015610967573d6000803e3d6000fd5b5050505050505080806109799061255a565b915050610763565b5060098054806020026020016040519081016040528092919081815260200182805480156109ce57602002820191906000526020600020905b8154815260200190600101908083116109ba575b505050505091505090565b60085481565b6000600b6000838152602001908152602001600020905060008160050160003373ffffffffffffffffffffffffffffffffffffffff1673ffffffffffffffffffffffffffffffffffffffff168152602001908152602001600020541415610aa65780600601339080600181540180825580915050600190039060005260206000200160009091909190916101000a81548173ffffffffffffffffffffffffffffffffffffffff021916908373ffffffffffffffffffffffffffffffffffffffff1602179055505b64e8d4a5100034610ab791906123df565b816007016000828254610aca9190612389565b9250508190555064e8d4a5100034610ae291906123df565b8160050160003373ffffffffffffffffffffffffffffffffffffffff1673ffffffffffffffffffffffffffffffffffffffff1681526020019081526020016000206000828254610b329190612389565b925050819055505050565b60048181548110610b4d57600080fd5b906000526020600020016000915054906101000a900473ffffffffffffffffffffffffffffffffffffffff1681565b600560009054906101000a900473ffffffffffffffffffffffffffffffffffffffff1681565b60035481565b60098181548110610bb857600080fd5b906000526020600020016000915090505481565b600a60009054906101000a900473ffffffffffffffffffffffffffffffffffffffff1681565b600560009054906101000a900473ffffffffffffffffffffffffffffffffffffffff1673ffffffffffffffffffffffffffffffffffffffff163373ffffffffffffffffffffffffffffffffffffffff1614610c82576040517f08c379a0000000000000000000000000000000000000000000000000000000008152600401610c79906120c6565b60405180910390fd5b6001600760006101000a81548160ff021916908315150217905550565b60006060600b600084815260200190815260200160002060030160009054906101000a900473ffffffffffffffffffffffffffffffffffffffff16600b600085815260200190815260200160002060040180805480602002602001604051908101604052809291908181526020016000905b82821015610df65783829060005260206000209060140201601480602002604051908101604052809291906000905b82821015610de3578382018054610d5690612528565b80601f0160208091040260200160405190810160405280929190818152602001828054610d8290612528565b8015610dcf5780601f10610da457610100808354040283529160200191610dcf565b820191906000526020600020905b815481529060010190602001808311610db257829003601f168201915b505050505081526020019060010190610d40565b5050505081526020019060010190610d11565b50505050905091509150915091565b60008054906101000a900473ffffffffffffffffffffffffffffffffffffffff1673ffffffffffffffffffffffffffffffffffffffff163373ffffffffffffffffffffffffffffffffffffffff1614610e93576040517f08c379a0000000000000000000000000000000000000000000000000000000008152600401610e8a906120a6565b60405180910390fd5b600047905060005b600354811015611157576000600b600083815260200190815260200160002090508060030160009054906101000a900473ffffffffffffffffffffffffffffffffffffffff1673ffffffffffffffffffffffffffffffffffffffff166108fc600854600a610f099190612410565b8560098681548110610f44577f4e487b7100000000000000000000000000000000000000000000000000000000600052603260045260246000fd5b90600052602060002001546003610f5b9190612410565b610f659190612410565b610f6f91906123df565b9081150290604051600060405180830381858888f19350505050158015610f9a573d6000803e3d6000fd5b5060005b8160060180549050811015611142576000826006018281548110610feb577f4e487b7100000000000000000000000000000000000000000000000000000000600052603260045260246000fd5b9060005260206000200160009054906101000a900473ffffffffffffffffffffffffffffffffffffffff1690508073ffffffffffffffffffffffffffffffffffffffff166108fc8460070154600854600a6110469190612410565b6110509190612410565b8560050160008573ffffffffffffffffffffffffffffffffffffffff1673ffffffffffffffffffffffffffffffffffffffff1681526020019081526020016000205488600989815481106110cd577f4e487b7100000000000000000000000000000000000000000000000000000000600052603260045260246000fd5b906000526020600020015460066110e49190612410565b6110ee9190612410565b6110f89190612410565b61110291906123df565b9081150290604051600060405180830381858888f1935050505015801561112d573d6000803e3d6000fd5b5050808061113a9061255a565b915050610f9e565b5050808061114f9061255a565b915050610e9b565b50600560009054906101000a900473ffffffffffffffffffffffffffffffffffffffff1673ffffffffffffffffffffffffffffffffffffffff166108fc479081150290604051600060405180830381858888f193505050501580156111c0573d6000803e3d6000fd5b5050565b600760029054906101000a900460ff1681565b60606001600760016101000a81548160ff0219169083151502179055611232576040517f08c379a000000000000000000000000000000000000000000000000000000000815260040161122990612106565b60405180910390fd5b6060806009908051906020019061124a929190611557565b5060005b6003548110156113a257600080600b6000848152602001908152602001600020905060005b81600601805490508110156113585760008260060182815481106112c0577f4e487b7100000000000000000000000000000000000000000000000000000000600052603260045260246000fd5b9060005260206000200160009054906101000a900473ffffffffffffffffffffffffffffffffffffffff1690506113378360050160008373ffffffffffffffffffffffffffffffffffffffff1673ffffffffffffffffffffffffffffffffffffffff168152602001908152602001600020546113fa565b846113429190612389565b93505080806113509061255a565b915050611273565b50600982836113679190612410565b90806001815401808255809150506001900390600052602060002001600090919091909150555050808061139a9061255a565b91505061124e565b5060098054806020026020016040519081016040528092919081815260200182805480156113ef57602002820191906000526020600020905b8154815260200190600101908083116113db575b505050505091505090565b60008060019050600083905060008290505b818310156114685760028383611422919061246a565b61142c91906123df565b836114379190612389565b90508481826114469190612410565b1061145357809150611463565b6001816114609190612389565b92505b61140c565b819350505050919050565b82805461147f90612528565b90600052602060002090601f0160209004810192826114a157600085556114e8565b82601f106114ba57805160ff19168380011785556114e8565b828001600101855582156114e8579182015b828111156114e75782518255916020019190600101906114cc565b5b5090506114f591906115a4565b5090565b828054828255906000526020600020906014028101928215611546579160200282015b82811115611545578251829060146115359291906115c1565b509160200191906014019061151c565b5b5090506115539190611614565b5090565b828054828255906000526020600020908101928215611593579160200282015b82811115611592578251825591602001919060010190611577565b5b5090506115a091906115a4565b5090565b5b808211156115bd5760008160009055506001016115a5565b5090565b8260148101928215611603579160200282015b828111156116025782518290805190602001906115f2929190611638565b50916020019190600101906115d4565b5b50905061161091906116be565b5090565b5b80821115611634576000818161162b91906116e2565b50601401611615565b5090565b82805461164490612528565b90600052602060002090601f01602090048101928261166657600085556116ad565b82601f1061167f57805160ff19168380011785556116ad565b828001600101855582156116ad579182015b828111156116ac578251825591602001919060010190611691565b5b5090506116ba91906115a4565b5090565b5b808211156116de57600081816116d591906116f5565b506001016116bf565b5090565b5080601401906116f291906116be565b50565b50805461170190612528565b6000825580601f106117135750611732565b601f01602090049060005260206000209081019061173191906115a4565b5b50565b600061174861174384612192565b612161565b9050808382526020820190508260005b85811015611788578135850161176e88826118a1565b845260208401935060208301925050600181019050611758565b5050509392505050565b60006117a56117a0846121be565b612161565b9050808260005b858110156117dc57813585016117c288826118c8565b8452602084019350602083019250506001810190506117ac565b5050509392505050565b60006117f96117f4846121e4565b612161565b90508281526020810184848401111561181157600080fd5b61181c8482856124e6565b509392505050565b600061183761183284612214565b612161565b90508281526020810184848401111561184f57600080fd5b61185a8482856124e6565b509392505050565b60008151905061187181612670565b92915050565b600082601f83011261188857600080fd5b8135611898848260208601611735565b91505092915050565b600082601f8301126118b257600080fd5b60146118bf848285611792565b91505092915050565b600082601f8301126118d957600080fd5b81356118e98482602086016117e6565b91505092915050565b600082601f83011261190357600080fd5b8135611913848260208601611824565b91505092915050565b60008135905061192b81612687565b92915050565b60006020828403121561194357600080fd5b600061195184828501611862565b91505092915050565b6000806000806080858703121561197057600080fd5b600085013567ffffffffffffffff81111561198a57600080fd5b611996878288016118f2565b945050602085013567ffffffffffffffff8111156119b357600080fd5b6119bf878288016118f2565b935050604085013567ffffffffffffffff8111156119dc57600080fd5b6119e8878288016118f2565b925050606085013567ffffffffffffffff811115611a0557600080fd5b611a1187828801611877565b91505092959194509250565b600060208284031215611a2f57600080fd5b6000611a3d8482850161191c565b91505092915050565b6000611a528383611ba6565b905092915050565b6000611a668383611c1b565b905092915050565b6000611a7a8383611cfc565b905092915050565b6000611a8e8383611d35565b905092915050565b6000611aa28383611f75565b60208301905092915050565b611ab78161249e565b82525050565b6000611ac8826122b7565b611ad2818561233a565b935083602082028501611ae485612244565b8060005b85811015611b205784840389528151611b018582611a46565b9450611b0c836122f9565b925060208a01995050600181019050611ae8565b50829750879550505050505092915050565b6000611b3d826122c2565b611b47818561233a565b935083602082028501611b5985612254565b8060005b85811015611b9457848403895281611b758582611a5a565b9450611b8083612306565b925060208a01995050600181019050611b5d565b50829750879550505050505092915050565b6000611bb1826122cd565b611bbb818561234b565b935083602082028501611bcd85612269565b8060005b85811015611c095784840389528151611bea8582611a6e565b9450611bf583612313565b925060208a01995050600181019050611bd1565b50829750879550505050505092915050565b6000611c26826122d8565b611c30818561234b565b935083602082028501611c4285612273565b8060005b85811015611c7d57848403895281611c5e8582611a82565b9450611c6983612320565b925060208a01995050600181019050611c46565b50829750879550505050505092915050565b6000611c9a826122e3565b611ca48185612356565b9350611caf8361227d565b8060005b83811015611ce0578151611cc78882611a96565b9750611cd28361232d565b925050600181019050611cb3565b5085935050505092915050565b611cf6816124b0565b82525050565b6000611d07826122ee565b611d118185612367565b9350611d218185602086016124f5565b611d2a8161265f565b840191505092915050565b60008154611d4281612528565b611d4c8186612367565b94506001821660008114611d675760018114611d7957611dac565b60ff1983168652602086019350611dac565b611d828561228d565b60005b83811015611da457815481890152600182019150602081019050611d85565b808801955050505b50505092915050565b60008154611dc281612528565b611dcc8186612378565b94506001821660008114611de75760018114611df957611e2c565b60ff1983168652602086019350611e2c565b611e02856122a2565b60005b83811015611e2457815481890152600182019150602081019050611e05565b808801955050505b50505092915050565b6000611e42601183612378565b91507f6f6e6c79206f7267616e697a6174696f6e0000000000000000000000000000006000830152602082019050919050565b6000611e82600e83612378565b91507f6f6e6c79206d6f64657261746f720000000000000000000000000000000000006000830152602082019050919050565b6000611ec2601583612378565b91507f4d6178696d756d206c696d6974207265616368656400000000000000000000006000830152602082019050919050565b6000611f02601683612378565b91507f7468652067616d6520686173206e6f7420656e646564000000000000000000006000830152602082019050919050565b6000611f42601683612378565b91507f496e73756666696369656e7420656e74727920666565000000000000000000006000830152602082019050919050565b611f7e816124dc565b82525050565b611f8d816124dc565b82525050565b6000602082019050611fa86000830184611aae565b92915050565b6000604082019050611fc36000830185611aae565b8181036020830152611fd58184611abd565b90509392505050565b60006020820190508181036000830152611ff88184611c8f565b905092915050565b60006020820190506120156000830184611ced565b92915050565b600060e0820190508181036000830152612035818a611db5565b905081810360208301526120498189611db5565b9050818103604083015261205d8188611db5565b905081810360608301526120718187611b32565b90506120806080830186611f84565b61208d60a0830185611f84565b61209a60c0830184611aae565b98975050505050505050565b600060208201905081810360008301526120bf81611e35565b9050919050565b600060208201905081810360008301526120df81611e75565b9050919050565b600060208201905081810360008301526120ff81611eb5565b9050919050565b6000602082019050818103600083015261211f81611ef5565b9050919050565b6000602082019050818103600083015261213f81611f35565b9050919050565b600060208201905061215b6000830184611f84565b92915050565b6000604051905081810181811067ffffffffffffffff8211171561218857612187612630565b5b8060405250919050565b600067ffffffffffffffff8211156121ad576121ac612630565b5b602082029050602081019050919050565b600067ffffffffffffffff8211156121d9576121d8612630565b5b602082029050919050565b600067ffffffffffffffff8211156121ff576121fe612630565b5b601f19601f8301169050602081019050919050565b600067ffffffffffffffff82111561222f5761222e612630565b5b601f19601f8301169050602081019050919050565b6000819050602082019050919050565b60008190508160005260206000209050919050565b6000819050919050565b6000819050919050565b6000819050602082019050919050565b60008190508160005260206000209050919050565b60008190508160005260206000209050919050565b600081519050919050565b600081549050919050565b600060149050919050565b600060149050919050565b600081519050919050565b600081519050919050565b6000602082019050919050565b6000601482019050919050565b6000602082019050919050565b6000600182019050919050565b6000602082019050919050565b600082825260208201905092915050565b600081905092915050565b600082825260208201905092915050565b600082825260208201905092915050565b600082825260208201905092915050565b6000612394826124dc565b915061239f836124dc565b9250827fffffffffffffffffffffffffffffffffffffffffffffffffffffffffffffffff038211156123d4576123d36125a3565b5b828201905092915050565b60006123ea826124dc565b91506123f5836124dc565b925082612405576124046125d2565b5b828204905092915050565b600061241b826124dc565b9150612426836124dc565b9250817fffffffffffffffffffffffffffffffffffffffffffffffffffffffffffffffff048311821515161561245f5761245e6125a3565b5b828202905092915050565b6000612475826124dc565b9150612480836124dc565b925082821015612493576124926125a3565b5b828203905092915050565b60006124a9826124bc565b9050919050565b60008115159050919050565b600073ffffffffffffffffffffffffffffffffffffffff82169050919050565b6000819050919050565b82818337600083830152505050565b60005b838110156125135780820151818401526020810190506124f8565b83811115612522576000848401525b50505050565b6000600282049050600182168061254057607f821691505b6020821081141561255457612553612601565b5b50919050565b6000612565826124dc565b91507fffffffffffffffffffffffffffffffffffffffffffffffffffffffffffffffff821415612598576125976125a3565b5b600182019050919050565b7f4e487b7100000000000000000000000000000000000000000000000000000000600052601160045260246000fd5b7f4e487b7100000000000000000000000000000000000000000000000000000000600052601260045260246000fd5b7f4e487b7100000000000000000000000000000000000000000000000000000000600052602260045260246000fd5b7f4e487b7100000000000000000000000000000000000000000000000000000000600052604160045260246000fd5b6000601f19601f8301169050919050565b6126798161249e565b811461268457600080fd5b50565b612690816124dc565b811461269b57600080fd5b5056fea26469706673582212205c4304f7f20daed89c8b3bb4acf1d88022a26f93691b7dbca3966f22725ad22364736f6c63430008000033a26469706673582212209644e1d7b8241209edce1ed953a9dda92ac967cf744408955ba6351d96d8c28b64736f6c63430008000033",
  "immutableReferences": {},
  "source": "// SPDX-License-Identifier: MIT\r\npragma solidity >=0.8.0;\r\n\r\nimport \"@openzeppelin/contracts/token/ERC721/extensions/ERC721URIStorage.sol\"; \r\nimport \"@openzeppelin/contracts/access/Ownable.sol\";\r\nimport \"@openzeppelin/contracts/utils/Counters.sol\";\r\n\r\n\r\nlibrary MyMathlib{\r\n    function sqrt(uint num) internal pure returns(uint){\r\n        uint start = 1;\r\n        uint end = num;\r\n        uint mid = start;\r\n        while(start < end){\r\n            mid = start + (end - start)/2;\r\n            if(mid * mid >= num){\r\n                end = mid;\r\n            }else{\r\n                start = mid+1;\r\n            }\r\n        }\r\n        return end;\r\n    }\r\n}\r\n\r\n\r\ncontract Knitts{\r\n    //organization address here\r\n    address organization = 0x79e6234Ff4E7DB556F916FeBcE9e52a68D0B8879;\r\n    mapping(address => uint) deposits;\r\n    address[] public Leagues;\r\n  \taddress[] Users;\r\n    uint maxDescLength = 1000;\r\n  \tmapping(address => address) idToUser; \r\n  \tmapping(address => bool) userExists;\r\n  \t\r\n    function depositMore() public payable{\r\n        require(msg.value > 0, \"You need to deposit some amount\");\r\n        deposits[msg.sender] += msg.value;\r\n    }\r\n\r\n    function createLeague(uint _entryFee, uint _numPlayers, uint _duration) public returns(address[] memory){\r\n        require(_entryFee * _numPlayers <= deposits[msg.sender], \"Insufficient deposit\");\r\n        League newLeague = new League(msg.sender, _entryFee, _numPlayers, _duration, address(this));\r\n        Leagues.push(address(newLeague));\r\n        return Leagues;\r\n    }\r\n\r\n    function getBalance(address _moderator) public view returns (uint){\r\n        return deposits[_moderator];\r\n    }\r\n\r\n  \r\n  \tfunction getUserContractAddress(address _id) public view returns(address) {\r\n        return idToUser[_id];\r\n    }\r\n}\r\n\r\ncontract League{\r\n    using  MyMathlib for uint;\r\n    address public organization;\r\n    uint public entryFee;\r\n    uint public maxParticipants;\r\n    uint public numProjects;\r\n    address [] public participants;\r\n    address public moderator;\r\n    uint public duration;\r\n    bool public started;\r\n    bool public ended;\r\n    bool public distributed;\r\n  \tuint public total_points=0;\r\n    uint [] public points;\r\n    address public knittsAddress;\r\n\r\n    struct project{\r\n        string title;\r\n        string url;\r\n        string image;\r\n        address owner;\r\n        bytes[20][] description;\r\n        mapping(address => uint)investments;\r\n        address[] investors;\r\n        uint total_fund;\r\n    }\r\n\t\t\r\n    mapping(uint => project) projects;\r\n\r\n    constructor(address _moderator, uint _entryFee, uint _maxParticipants, uint _duration, address _knittsAddress){\r\n        entryFee = _entryFee;\r\n        maxParticipants = _maxParticipants;\r\n        moderator = _moderator;\r\n        duration = _duration;\r\n        numProjects = 0;\r\n        started=false;\r\n        ended=false;\r\n        distributed=false;\r\n        //organization = 0x79e6234Ff4E7DB556F916FeBcE9e52a68D0B8879; //for public net\r\n        organization = _moderator; // for local testing\r\n        knittsAddress = _knittsAddress;\r\n    }\r\n\r\n    function submitIdea(string memory title, string memory url, string memory image, bytes[20][] memory description) public payable returns(uint){\r\n        require(msg.value >= entryFee, \"Insufficient entry fee\");\r\n        require(numProjects < maxParticipants, \"Maximum limit reached\");\r\n        project storage p = projects[numProjects++];\r\n        // p = project({title:title, url:url, image:image, owner: msg.sender, description});\r\n        p.title = title;\r\n        p.url = url;\r\n        p.image = image;\r\n        p.owner = msg.sender;\r\n        p.description = description;\r\n        return numProjects;\r\n    }\r\n\r\n    function invest(uint projectId) public payable{\r\n        // require(projectId < numProjects, \"Invalid project id\");\r\n        project storage p = projects[projectId];\r\n        if(p.investments[msg.sender] == 0){\r\n            p.investors.push(msg.sender);\r\n        }\r\n        p.total_fund += msg.value/1e12;\r\n        p.investments[msg.sender] += msg.value/1e12;\r\n        \r\n    }\r\n\r\n    function startLeague() public{\r\n        require(msg.sender == moderator, \"only moderator\");\r\n        started=true;\r\n    }\r\n\r\n    function endLeague() public returns(uint[] memory){\r\n        require(msg.sender == organization, \"only organization\");\r\n        ended=true;\r\n        getPoints();\r\n      \t\r\n      \tfor(uint i=0; i<numProjects; i++){\r\n            total_points += points[i];\r\n        }\r\n\r\n        uint averagePoints = total_points / numProjects;\r\n      \r\n      \tfor(uint i=0;i<numProjects; i++) {\r\n            Knitts _knitts = Knitts(knittsAddress);\r\n            address _userId = _knitts.getUserContractAddress(projects[i].owner);\r\n            User _user = User(_userId);\r\n            _user.addProject(projects[i].title, projects[i].url, projects[i].image, projects[i].description, points[i] , averagePoints, address(this) );\r\n        } \r\n\r\n        return points;\r\n    }\r\n\r\n    function getPoints() internal returns(uint[] memory){\r\n        require(ended = true, \"the game has not ended\");\r\n        uint [] memory empty_points;\r\n        points = empty_points;\r\n        for(uint i=0; i < numProjects; i++){\r\n            uint sum = 0;\r\n            project storage p = projects[i];\r\n            for(uint j=0; j< p.investors.length; j++){\r\n                address inv = p.investors[j];\r\n                sum += (p.investments[inv]).sqrt();\r\n            }\r\n            points.push(sum * sum);\r\n        }\r\n        \r\n        return points;\r\n    }\r\n\r\n    function distribute() public {\r\n        require(msg.sender == organization, \"only organization\");\r\n        uint total_balance = address(this).balance;\r\n        \r\n        for(uint i=0; i<numProjects; i++){\r\n            project storage p  =  projects[i];\r\n            \r\n            payable(p.owner).transfer( (3*points[i]*total_balance)/(10*total_points) );\r\n\r\n            for(uint j=0; j<p.investors.length; j++){\r\n                address investor = p.investors[j];\r\n                payable(investor).transfer( (6 * points[i] * total_balance * p.investments[investor]) / (10 * total_points * p.total_fund) );\r\n            }\r\n        }\r\n\r\n        payable(moderator).transfer(address(this).balance);\r\n\r\n    }\r\n\r\n\r\n    function submissionDetails(uint projectId) public view returns(\r\n        address, // project owner\r\n        bytes[20][] memory // description\r\n    )  {\r\n        return (projects[projectId].owner, projects[projectId].description);\r\n    }\r\n\r\n    \r\n}\r\n\r\n\r\ncontract User {\r\n    string name;\r\n  \taddress id; //metamask address of corresponding user\r\n  \tuint numProjects=0;\r\n    address[] public NFTs_created;\r\n    bool public pending_nfts = false;\r\n    constructor( address _id, string memory _name ) {\r\n        name = _name;\r\n        id = _id;\r\n    }\r\n\r\n    struct project{\r\n        string title;\r\n        string url;\r\n        string image;\r\n            bytes[20][] description;\r\n            // uint total_fund;\r\n            uint point;\r\n            uint average_point;\r\n            address submittedOn;\r\n    }\r\n        // mapping(uint => project) projects;\r\n\r\n        project[20] public projects;\r\n    \r\n    function addProject(string memory title, string memory url, string memory image, bytes[20][] memory description, uint point, uint average_point, address submittedOn) public {\r\n        project storage p = projects[numProjects++];\r\n        p.title = title;\r\n        p.url = url;\r\n        p.image = image;\r\n        p.description = description;\r\n        p.point = point;\r\n        p.average_point = average_point;\r\n        p.submittedOn = submittedOn;\r\n    }\r\n    \r\n\r\n    function createNFT(uint _bronze) public returns(address [] memory){\r\n        require(_bronze <= 10, \"You can create only 10 bronzes\");\r\n        require(pending_nfts == false, \"There are pending nfts still\");\r\n        require(msg.sender == id, \"wrong user account\");\r\n        for(uint i=0; i<_bronze; i++){\r\n            NFT new_nft = new NFT(\"Bronze\", \"B\", id, 'https://s3.envato.com/files/235568921/preview.jpg', 1);\r\n            NFTs_created.push(address(new_nft));\r\n        }\r\n        return NFTs_created;\r\n    }\r\n\r\n    function scratchNFTs() public returns(uint){\r\n        uint rem = 0;\r\n        for(uint i=0; i<NFTs_created.length; i++){\r\n            NFT new_nft =  NFT(NFTs_created[i]);\r\n            rem = new_nft.scratchCard();\r\n        }\r\n        if(rem == 0){\r\n            pending_nfts = false;\r\n            address [] memory temp;\r\n            NFTs_created = temp;\r\n        }\r\n        return rem;\r\n    }\r\n  \r\n}\r\n\r\ncontract NFT is ERC721URIStorage, Ownable{\r\n    using Counters for Counters.Counter;\r\n    Counters.Counter private _tokenIds;\r\n    address nft_creator;\r\n    address nft_owner;\r\n    uint leaguesMore;\r\n    constructor(string memory _name, string memory _symbol, address _player, string memory _tokenURI, uint _leaguesMore) ERC721(_name, _symbol){\r\n        nft_creator = msg.sender;\r\n        nft_owner = msg.sender;\r\n        leaguesMore = _leaguesMore;\r\n        _tokenIds.increment();\r\n        uint256 newItemId = _tokenIds.current();\r\n        _mint(_player, newItemId);\r\n        _setTokenURI(newItemId, _tokenURI);\r\n    }\r\n\r\n    function scratchCard() public returns (uint){\r\n        require(leaguesMore > 0, \"expired\");\r\n        leaguesMore -= 1;\r\n        if(leaguesMore == 0){\r\n            _burn(1);\r\n        }\r\n        return leaguesMore;\r\n    }\r\n    \r\n\r\n}\r\n\r\n",
  "sourcePath": "E:\\projects\\knitts\\back-end\\contracts\\League.sol",
  "compiler": {
    "name": "solc",
    "version": "0.8.0+commit.c7dfd78e.Emscripten.clang"
  },
  "schemaVersion": "3.4.3",
  "updatedAt": "2021-09-30T15:54:34.784Z",
  "networkType": "ethereum",
  "devdoc": {
    "kind": "dev",
    "methods": {},
    "version": 1
  },
  "userdoc": {
    "kind": "user",
    "methods": {},
    "version": 1
  }
}