{
  "contractName": "League",
  "abi": [
    {
      "inputs": [
        {
          "internalType": "address",
          "name": "_moderator",
          "type": "address"
        },
        {
          "internalType": "uint256",
          "name": "_entryFee",
          "type": "uint256"
        },
        {
          "internalType": "uint256",
          "name": "_maxParticipants",
          "type": "uint256"
        },
        {
          "internalType": "uint256",
          "name": "_duration",
          "type": "uint256"
        },
        {
          "internalType": "address",
          "name": "_knittsAddress",
          "type": "address"
        }
      ],
      "stateMutability": "nonpayable",
      "type": "constructor"
    },
    {
      "inputs": [
        {
          "internalType": "string",
          "name": "title",
          "type": "string"
        },
        {
          "internalType": "string",
          "name": "url",
          "type": "string"
        },
        {
          "internalType": "string",
          "name": "image",
          "type": "string"
        },
        {
          "internalType": "bytes[20][]",
          "name": "description",
          "type": "bytes[20][]"
        }
      ],
      "name": "submitIdea",
      "outputs": [
        {
          "internalType": "uint256",
          "name": "",
          "type": "uint256"
        }
      ],
      "stateMutability": "payable",
      "type": "function"
    },
    {
      "inputs": [
        {
          "internalType": "uint256",
          "name": "projectId",
          "type": "uint256"
        }
      ],
      "name": "invest",
      "outputs": [],
      "stateMutability": "payable",
      "type": "function"
    },
    {
      "inputs": [],
      "name": "startLeague",
      "outputs": [],
      "stateMutability": "nonpayable",
      "type": "function"
    },
    {
      "inputs": [],
      "name": "endLeague",
      "outputs": [
        {
          "internalType": "uint256[]",
          "name": "",
          "type": "uint256[]"
        }
      ],
      "stateMutability": "nonpayable",
      "type": "function"
    },
    {
      "inputs": [],
      "name": "distribute",
      "outputs": [],
      "stateMutability": "nonpayable",
      "type": "function"
    },
    {
      "inputs": [],
      "name": "getDetails",
      "outputs": [
        {
          "internalType": "address",
          "name": "",
          "type": "address"
        },
        {
          "internalType": "uint256",
          "name": "",
          "type": "uint256"
        },
        {
          "internalType": "uint256",
          "name": "",
          "type": "uint256"
        },
        {
          "internalType": "bool",
          "name": "",
          "type": "bool"
        },
        {
          "internalType": "bool",
          "name": "",
          "type": "bool"
        },
        {
          "internalType": "bool",
          "name": "",
          "type": "bool"
        }
      ],
      "stateMutability": "view",
      "type": "function"
    },
    {
      "inputs": [
        {
          "internalType": "uint256",
          "name": "projectId",
          "type": "uint256"
        }
      ],
      "name": "submissionDetails",
      "outputs": [
        {
          "internalType": "address",
          "name": "",
          "type": "address"
        },
        {
          "internalType": "bytes[20][]",
          "name": "",
          "type": "bytes[20][]"
        }
      ],
      "stateMutability": "view",
      "type": "function"
    },
    {
      "inputs": [
        {
          "internalType": "uint256",
          "name": "num",
          "type": "uint256"
        }
      ],
      "name": "sqrt",
      "outputs": [
        {
          "internalType": "uint256",
          "name": "",
          "type": "uint256"
        }
      ],
      "stateMutability": "pure",
      "type": "function"
    }
  ],
  "bytecode": "0x608060405260006008553480156200001657600080fd5b506040516200285a3803806200285a83398181016040528101906200003c9190620001a5565b836001819055508260028190555084600560006101000a81548173ffffffffffffffffffffffffffffffffffffffff021916908373ffffffffffffffffffffffffffffffffffffffff1602179055508160068190555060006003819055506000600760006101000a81548160ff0219169083151502179055506000600760016101000a81548160ff0219169083151502179055506000600760026101000a81548160ff021916908315150217905550846000806101000a81548173ffffffffffffffffffffffffffffffffffffffff021916908373ffffffffffffffffffffffffffffffffffffffff16021790555080600a60006101000a81548173ffffffffffffffffffffffffffffffffffffffff021916908373ffffffffffffffffffffffffffffffffffffffff160217905550505050505062000299565b600081519050620001888162000265565b92915050565b6000815190506200019f816200027f565b92915050565b600080600080600060a08688031215620001be57600080fd5b6000620001ce8882890162000177565b9550506020620001e1888289016200018e565b9450506040620001f4888289016200018e565b935050606062000207888289016200018e565b92505060806200021a8882890162000177565b9150509295509295909350565b600062000234826200023b565b9050919050565b600073ffffffffffffffffffffffffffffffffffffffff82169050919050565b6000819050919050565b620002708162000227565b81146200027c57600080fd5b50565b6200028a816200025b565b81146200029657600080fd5b50565b6125b180620002a96000396000f3fe60806040526004361061007b5760003560e01c8063c3b7a80f1161004e578063c3b7a80f14610134578063d235407b1461014b578063e4fc6b6d14610189578063fbbf93a0146101a05761007b565b80632185ce831461008057806324fd7918146100b05780632afcf480146100db578063677342ce146100f7575b600080fd5b61009a600480360381019061009591906116bf565b6101d0565b6040516100a79190612023565b60405180910390f35b3480156100bc57600080fd5b506100c561033f565b6040516100d29190611e96565b60405180910390f35b6100f560048036038101906100f09190611782565b6106fe565b005b34801561010357600080fd5b5061011e60048036038101906101199190611782565b6108d0565b60405161012b9190612023565b60405180910390f35b34801561014057600080fd5b50610149610949565b005b34801561015757600080fd5b50610172600480360381019061016d9190611782565b6109f6565b604051610180929190611e05565b60405180910390f35b34801561019557600080fd5b5061019e610b5c565b005b3480156101ac57600080fd5b506101b5610f1b565b6040516101c796959493929190611e35565b60405180910390f35b6000600154341015610217576040517f08c379a000000000000000000000000000000000000000000000000000000000815260040161020e90611fe3565b60405180910390fd5b6002546003541061025d576040517f08c379a000000000000000000000000000000000000000000000000000000000815260040161025490611f83565b60405180910390fd5b6000600b60006003600081548092919061027690612437565b9190505581526020019081526020016000209050858160000190805190602001906102a29291906111d8565b50848160010190805190602001906102bb9291906111d8565b50838160020190805190602001906102d49291906111d8565b50338160030160006101000a81548173ffffffffffffffffffffffffffffffffffffffff021916908373ffffffffffffffffffffffffffffffffffffffff1602179055508281600401908051906020019061033092919061125e565b50600354915050949350505050565b606060008054906101000a900473ffffffffffffffffffffffffffffffffffffffff1673ffffffffffffffffffffffffffffffffffffffff163373ffffffffffffffffffffffffffffffffffffffff16146103cf576040517f08c379a00000000000000000000000000000000000000000000000000000000081526004016103c690611fa3565b60405180910390fd5b6001600760016101000a81548160ff0219169083151502179055506103f2610f91565b5060005b600354811015610470576009818154811061043a577f4e487b7100000000000000000000000000000000000000000000000000000000600052603260045260246000fd5b9060005260206000200154600860008282546104569190612266565b92505081905550808061046890612437565b9150506103f6565b50600060035460085461048391906122bc565b905060005b6003548110156106a6576000600a60009054906101000a900473ffffffffffffffffffffffffffffffffffffffff16905060008173ffffffffffffffffffffffffffffffffffffffff1663a6e497b6600b600086815260200190815260200160002060030160009054906101000a900473ffffffffffffffffffffffffffffffffffffffff166040518263ffffffff1660e01b815260040161052a9190611dea565b60206040518083038186803b15801561054257600080fd5b505afa158015610556573d6000803e3d6000fd5b505050506040513d601f19601f8201168201806040525081019061057a9190611696565b905060008190508073ffffffffffffffffffffffffffffffffffffffff1663fbf7de84600b6000878152602001908152602001600020600001600b6000888152602001908152602001600020600101600b6000898152602001908152602001600020600201600b60008a815260200190815260200160002060040160098a8154811061062f577f4e487b7100000000000000000000000000000000000000000000000000000000600052603260045260246000fd5b90600052602060002001548b306040518863ffffffff1660e01b815260040161065e9796959493929190611eb8565b600060405180830381600087803b15801561067857600080fd5b505af115801561068c573d6000803e3d6000fd5b50505050505050808061069e90612437565b915050610488565b5060098054806020026020016040519081016040528092919081815260200182805480156106f357602002820191906000526020600020905b8154815260200190600101908083116106df575b505050505091505090565b6003548110610742576040517f08c379a000000000000000000000000000000000000000000000000000000000815260040161073990612003565b60405180910390fd5b6000600b600083815260200190815260200160002060050160003373ffffffffffffffffffffffffffffffffffffffff1673ffffffffffffffffffffffffffffffffffffffff16815260200190815260200160002054141561081657600b6000828152602001908152602001600020600601339080600181540180825580915050600190039060005260206000200160009091909190916101000a81548173ffffffffffffffffffffffffffffffffffffffff021916908373ffffffffffffffffffffffffffffffffffffffff1602179055505b64e8d4a510003461082791906122bc565b600b6000838152602001908152602001600020600701600082825461084c9190612266565b9250508190555064e8d4a510003461086491906122bc565b600b600083815260200190815260200160002060050160003373ffffffffffffffffffffffffffffffffffffffff1673ffffffffffffffffffffffffffffffffffffffff16815260200190815260200160002060008282546108c69190612266565b9250508190555050565b60008060019050600083905060008290505b8183101561093e57600283836108f89190612347565b61090291906122bc565b8361090d9190612266565b905084818261091c91906122ed565b1061092957809150610939565b6001816109369190612266565b92505b6108e2565b819350505050919050565b600560009054906101000a900473ffffffffffffffffffffffffffffffffffffffff1673ffffffffffffffffffffffffffffffffffffffff163373ffffffffffffffffffffffffffffffffffffffff16146109d9576040517f08c379a00000000000000000000000000000000000000000000000000000000081526004016109d090611f43565b60405180910390fd5b6001600760006101000a81548160ff021916908315150217905550565b60006060600b600084815260200190815260200160002060030160009054906101000a900473ffffffffffffffffffffffffffffffffffffffff16600b600085815260200190815260200160002060040180805480602002602001604051908101604052809291908181526020016000905b82821015610b4d5783829060005260206000209060140201601480602002604051908101604052809291906000905b82821015610b3a578382018054610aad90612405565b80601f0160208091040260200160405190810160405280929190818152602001828054610ad990612405565b8015610b265780601f10610afb57610100808354040283529160200191610b26565b820191906000526020600020905b815481529060010190602001808311610b0957829003601f168201915b505050505081526020019060010190610a97565b5050505081526020019060010190610a68565b50505050905091509150915091565b60008054906101000a900473ffffffffffffffffffffffffffffffffffffffff1673ffffffffffffffffffffffffffffffffffffffff163373ffffffffffffffffffffffffffffffffffffffff1614610bea576040517f08c379a0000000000000000000000000000000000000000000000000000000008152600401610be190611f63565b60405180910390fd5b600047905060005b600354811015610eae576000600b600083815260200190815260200160002090508060030160009054906101000a900473ffffffffffffffffffffffffffffffffffffffff1673ffffffffffffffffffffffffffffffffffffffff166108fc600854600a610c6091906122ed565b8560098681548110610c9b577f4e487b7100000000000000000000000000000000000000000000000000000000600052603260045260246000fd5b90600052602060002001546003610cb291906122ed565b610cbc91906122ed565b610cc691906122bc565b9081150290604051600060405180830381858888f19350505050158015610cf1573d6000803e3d6000fd5b5060005b8160060180549050811015610e99576000826006018281548110610d42577f4e487b7100000000000000000000000000000000000000000000000000000000600052603260045260246000fd5b9060005260206000200160009054906101000a900473ffffffffffffffffffffffffffffffffffffffff1690508073ffffffffffffffffffffffffffffffffffffffff166108fc8460070154600854600a610d9d91906122ed565b610da791906122ed565b8560050160008573ffffffffffffffffffffffffffffffffffffffff1673ffffffffffffffffffffffffffffffffffffffff168152602001908152602001600020548860098981548110610e24577f4e487b7100000000000000000000000000000000000000000000000000000000600052603260045260246000fd5b90600052602060002001546006610e3b91906122ed565b610e4591906122ed565b610e4f91906122ed565b610e5991906122bc565b9081150290604051600060405180830381858888f19350505050158015610e84573d6000803e3d6000fd5b50508080610e9190612437565b915050610cf5565b50508080610ea690612437565b915050610bf2565b50600560009054906101000a900473ffffffffffffffffffffffffffffffffffffffff1673ffffffffffffffffffffffffffffffffffffffff166108fc479081150290604051600060405180830381858888f19350505050158015610f17573d6000803e3d6000fd5b5050565b600080600080600080600560009054906101000a900473ffffffffffffffffffffffffffffffffffffffff16600154600254600760009054906101000a900460ff16600760019054906101000a900460ff16600760029054906101000a900460ff16955095509550955095509550909192939495565b60606001600760016101000a81548160ff0219169083151502179055610fec576040517f08c379a0000000000000000000000000000000000000000000000000000000008152600401610fe390611fc3565b60405180910390fd5b606080600990805190602001906110049291906112bc565b5060005b600354811015611180576000805b600b600084815260200190815260200160002060060180549050811015611131576000600b60008581526020019081526020016000206006018281548110611087577f4e487b7100000000000000000000000000000000000000000000000000000000600052603260045260246000fd5b9060005260206000200160009054906101000a900473ffffffffffffffffffffffffffffffffffffffff169050611110600b600086815260200190815260200160002060050160008373ffffffffffffffffffffffffffffffffffffffff1673ffffffffffffffffffffffffffffffffffffffff168152602001908152602001600020546108d0565b8361111b9190612266565b925050808061112990612437565b915050611016565b506000818261114091906122ed565b905060098190806001815401808255809150506001900390600052602060002001600090919091909150555050808061117890612437565b915050611008565b5060098054806020026020016040519081016040528092919081815260200182805480156111cd57602002820191906000526020600020905b8154815260200190600101908083116111b9575b505050505091505090565b8280546111e490612405565b90600052602060002090601f016020900481019282611206576000855561124d565b82601f1061121f57805160ff191683800117855561124d565b8280016001018555821561124d579182015b8281111561124c578251825591602001919060010190611231565b5b50905061125a9190611309565b5090565b8280548282559060005260206000209060140281019282156112ab579160200282015b828111156112aa5782518290601461129a929190611326565b5091602001919060140190611281565b5b5090506112b89190611379565b5090565b8280548282559060005260206000209081019282156112f8579160200282015b828111156112f75782518255916020019190600101906112dc565b5b5090506113059190611309565b5090565b5b8082111561132257600081600090555060010161130a565b5090565b8260148101928215611368579160200282015b8281111561136757825182908051906020019061135792919061139d565b5091602001919060010190611339565b5b5090506113759190611423565b5090565b5b8082111561139957600081816113909190611447565b5060140161137a565b5090565b8280546113a990612405565b90600052602060002090601f0160209004810192826113cb5760008555611412565b82601f106113e457805160ff1916838001178555611412565b82800160010185558215611412579182015b828111156114115782518255916020019190600101906113f6565b5b50905061141f9190611309565b5090565b5b80821115611443576000818161143a919061145a565b50600101611424565b5090565b5080601401906114579190611423565b50565b50805461146690612405565b6000825580601f106114785750611497565b601f0160209004906000526020600020908101906114969190611309565b5b50565b60006114ad6114a88461206f565b61203e565b9050808382526020820190508260005b858110156114ed57813585016114d38882611606565b8452602084019350602083019250506001810190506114bd565b5050509392505050565b600061150a6115058461209b565b61203e565b9050808260005b858110156115415781358501611527888261162d565b845260208401935060208301925050600181019050611511565b5050509392505050565b600061155e611559846120c1565b61203e565b90508281526020810184848401111561157657600080fd5b6115818482856123c3565b509392505050565b600061159c611597846120f1565b61203e565b9050828152602081018484840111156115b457600080fd5b6115bf8482856123c3565b509392505050565b6000815190506115d68161254d565b92915050565b600082601f8301126115ed57600080fd5b81356115fd84826020860161149a565b91505092915050565b600082601f83011261161757600080fd5b60146116248482856114f7565b91505092915050565b600082601f83011261163e57600080fd5b813561164e84826020860161154b565b91505092915050565b600082601f83011261166857600080fd5b8135611678848260208601611589565b91505092915050565b60008135905061169081612564565b92915050565b6000602082840312156116a857600080fd5b60006116b6848285016115c7565b91505092915050565b600080600080608085870312156116d557600080fd5b600085013567ffffffffffffffff8111156116ef57600080fd5b6116fb87828801611657565b945050602085013567ffffffffffffffff81111561171857600080fd5b61172487828801611657565b935050604085013567ffffffffffffffff81111561174157600080fd5b61174d87828801611657565b925050606085013567ffffffffffffffff81111561176a57600080fd5b611776878288016115dc565b91505092959194509250565b60006020828403121561179457600080fd5b60006117a284828501611681565b91505092915050565b60006117b7838361190b565b905092915050565b60006117cb8383611980565b905092915050565b60006117df8383611a61565b905092915050565b60006117f38383611a9a565b905092915050565b60006118078383611dcc565b60208301905092915050565b61181c8161237b565b82525050565b600061182d82612194565b6118378185612217565b93508360208202850161184985612121565b8060005b85811015611885578484038952815161186685826117ab565b9450611871836121d6565b925060208a0199505060018101905061184d565b50829750879550505050505092915050565b60006118a28261219f565b6118ac8185612217565b9350836020820285016118be85612131565b8060005b858110156118f9578484038952816118da85826117bf565b94506118e5836121e3565b925060208a019950506001810190506118c2565b50829750879550505050505092915050565b6000611916826121aa565b6119208185612228565b93508360208202850161193285612146565b8060005b8581101561196e578484038952815161194f85826117d3565b945061195a836121f0565b925060208a01995050600181019050611936565b50829750879550505050505092915050565b600061198b826121b5565b6119958185612228565b9350836020820285016119a785612150565b8060005b858110156119e2578484038952816119c385826117e7565b94506119ce836121fd565b925060208a019950506001810190506119ab565b50829750879550505050505092915050565b60006119ff826121c0565b611a098185612233565b9350611a148361215a565b8060005b83811015611a45578151611a2c88826117fb565b9750611a378361220a565b925050600181019050611a18565b5085935050505092915050565b611a5b8161238d565b82525050565b6000611a6c826121cb565b611a768185612244565b9350611a868185602086016123d2565b611a8f8161253c565b840191505092915050565b60008154611aa781612405565b611ab18186612244565b94506001821660008114611acc5760018114611ade57611b11565b60ff1983168652602086019350611b11565b611ae78561216a565b60005b83811015611b0957815481890152600182019150602081019050611aea565b808801955050505b50505092915050565b60008154611b2781612405565b611b318186612255565b94506001821660008114611b4c5760018114611b5e57611b91565b60ff1983168652602086019350611b91565b611b678561217f565b60005b83811015611b8957815481890152600182019150602081019050611b6a565b808801955050505b50505092915050565b6000611ba7602383612255565b91507f6f6e6c79206d6f64657261746f722063616e20737461727420746865206c656160008301527f67756500000000000000000000000000000000000000000000000000000000006020830152604082019050919050565b6000611c0d602783612255565b91507f6f6e6c79206f7267616e697a6174696f6e2063616e206469737472696275746560008301527f207072697a6573000000000000000000000000000000000000000000000000006020830152604082019050919050565b6000611c73601583612255565b91507f4d6178696d756d206c696d6974207265616368656400000000000000000000006000830152602082019050919050565b6000611cb3602483612255565b91507f6f6e6c79206f7267616e697a6174696f6e2063616e20656e6420746865206c6560008301527f61677565000000000000000000000000000000000000000000000000000000006020830152604082019050919050565b6000611d19601683612255565b91507f7468652067616d6520686173206e6f7420656e646564000000000000000000006000830152602082019050919050565b6000611d59601683612255565b91507f496e73756666696369656e7420656e74727920666565000000000000000000006000830152602082019050919050565b6000611d99601283612255565b91507f496e76616c69642070726f6a65637420696400000000000000000000000000006000830152602082019050919050565b611dd5816123b9565b82525050565b611de4816123b9565b82525050565b6000602082019050611dff6000830184611813565b92915050565b6000604082019050611e1a6000830185611813565b8181036020830152611e2c8184611822565b90509392505050565b600060c082019050611e4a6000830189611813565b611e576020830188611ddb565b611e646040830187611ddb565b611e716060830186611a52565b611e7e6080830185611a52565b611e8b60a0830184611a52565b979650505050505050565b60006020820190508181036000830152611eb081846119f4565b905092915050565b600060e0820190508181036000830152611ed2818a611b1a565b90508181036020830152611ee68189611b1a565b90508181036040830152611efa8188611b1a565b90508181036060830152611f0e8187611897565b9050611f1d6080830186611ddb565b611f2a60a0830185611ddb565b611f3760c0830184611813565b98975050505050505050565b60006020820190508181036000830152611f5c81611b9a565b9050919050565b60006020820190508181036000830152611f7c81611c00565b9050919050565b60006020820190508181036000830152611f9c81611c66565b9050919050565b60006020820190508181036000830152611fbc81611ca6565b9050919050565b60006020820190508181036000830152611fdc81611d0c565b9050919050565b60006020820190508181036000830152611ffc81611d4c565b9050919050565b6000602082019050818103600083015261201c81611d8c565b9050919050565b60006020820190506120386000830184611ddb565b92915050565b6000604051905081810181811067ffffffffffffffff821117156120655761206461250d565b5b8060405250919050565b600067ffffffffffffffff82111561208a5761208961250d565b5b602082029050602081019050919050565b600067ffffffffffffffff8211156120b6576120b561250d565b5b602082029050919050565b600067ffffffffffffffff8211156120dc576120db61250d565b5b601f19601f8301169050602081019050919050565b600067ffffffffffffffff82111561210c5761210b61250d565b5b601f19601f8301169050602081019050919050565b6000819050602082019050919050565b60008190508160005260206000209050919050565b6000819050919050565b6000819050919050565b6000819050602082019050919050565b60008190508160005260206000209050919050565b60008190508160005260206000209050919050565b600081519050919050565b600081549050919050565b600060149050919050565b600060149050919050565b600081519050919050565b600081519050919050565b6000602082019050919050565b6000601482019050919050565b6000602082019050919050565b6000600182019050919050565b6000602082019050919050565b600082825260208201905092915050565b600081905092915050565b600082825260208201905092915050565b600082825260208201905092915050565b600082825260208201905092915050565b6000612271826123b9565b915061227c836123b9565b9250827fffffffffffffffffffffffffffffffffffffffffffffffffffffffffffffffff038211156122b1576122b0612480565b5b828201905092915050565b60006122c7826123b9565b91506122d2836123b9565b9250826122e2576122e16124af565b5b828204905092915050565b60006122f8826123b9565b9150612303836123b9565b9250817fffffffffffffffffffffffffffffffffffffffffffffffffffffffffffffffff048311821515161561233c5761233b612480565b5b828202905092915050565b6000612352826123b9565b915061235d836123b9565b9250828210156123705761236f612480565b5b828203905092915050565b600061238682612399565b9050919050565b60008115159050919050565b600073ffffffffffffffffffffffffffffffffffffffff82169050919050565b6000819050919050565b82818337600083830152505050565b60005b838110156123f05780820151818401526020810190506123d5565b838111156123ff576000848401525b50505050565b6000600282049050600182168061241d57607f821691505b60208210811415612431576124306124de565b5b50919050565b6000612442826123b9565b91507fffffffffffffffffffffffffffffffffffffffffffffffffffffffffffffffff82141561247557612474612480565b5b600182019050919050565b7f4e487b7100000000000000000000000000000000000000000000000000000000600052601160045260246000fd5b7f4e487b7100000000000000000000000000000000000000000000000000000000600052601260045260246000fd5b7f4e487b7100000000000000000000000000000000000000000000000000000000600052602260045260246000fd5b7f4e487b7100000000000000000000000000000000000000000000000000000000600052604160045260246000fd5b6000601f19601f8301169050919050565b6125568161237b565b811461256157600080fd5b50565b61256d816123b9565b811461257857600080fd5b5056fea2646970667358221220664d65d03bc6247d418bffc71131b1f588f47e6e835c6692af8e30867693fcd564736f6c63430008000033",
  "immutableReferences": {},
  "source": "// SPDX-License-Identifier: MIT\r\npragma solidity >=0.8.0;\r\n\r\n\r\ncontract Knitts{\r\n    //organization address here\r\n    address organization = 0x79e6234Ff4E7DB556F916FeBcE9e52a68D0B8879;\r\n    address[] moderators;//change this to mapping mapping(address=>bool)\r\n    mapping(address=>bool) valid;\r\n    mapping(address => uint) deposits;\r\n    address[] Leagues;\r\n  \taddress[] Users;\r\n    uint maxDescLength = 1000;\r\n  \tmapping(address => address) idToUser; \r\n  \tmapping(address => bool) userExists;\r\n  \t\r\n    function addModerator() public payable{\r\n        require(msg.value > 0, \"You should deposit some amount\");\r\n        moderators.push(msg.sender);\r\n        deposits[msg.sender] = msg.value;\r\n        valid[msg.sender]=true;\r\n    }\r\n\r\n    function depositMore() public payable{\r\n        require(msg.value > 0, \"You need to deposit some amount\");\r\n        deposits[msg.sender] += msg.value;\r\n    }\r\n\r\n    function createLeague(uint _entryFee, uint _numPlayers, uint _duration) public returns(address[] memory){\r\n        require(_entryFee * _numPlayers <= deposits[msg.sender], \"Insufficient deposit\");\r\n        League newLeague = new League(msg.sender, _entryFee, _numPlayers, _duration, address(this));\r\n        Leagues.push(address(newLeague));\r\n        return Leagues;\r\n    }\r\n\r\n    function getBalance(address _moderator) public view returns (uint){\r\n        return deposits[_moderator];\r\n    }\r\n\r\n    function getDetails() public view returns (address [] memory, address [] memory){\r\n        return (moderators, Leagues);\r\n    }\r\n\r\n    function removeModerator(address _moderator) public {\r\n        valid[_moderator] = false;\r\n    }\r\n  \r\n  \tfunction register(string memory _name) public returns (address) {\r\n        User newUser = new User(msg.sender, _name);\r\n        userExists[msg.sender] = true;\r\n        idToUser[msg.sender] = address(newUser);\r\n        return address(newUser);\r\n    }\r\n  \r\n  \tfunction getUserContractAddress(address _id) public view returns(address) {\r\n        require(userExists[_id] == true,\"The user should exist\");\r\n        return idToUser[_id];\r\n    }\r\n}\r\n\r\ncontract League{\r\n    \r\n    address organization;\r\n    uint entryFee;\r\n    uint maxParticipants;\r\n    uint numProjects;\r\n    address [] participants;\r\n    address moderator;\r\n    uint duration;\r\n    bool started;\r\n    bool ended;\r\n    bool distributed;\r\n  \tuint total_points=0;\r\n    uint [] points;\r\n    address knittsAddress;\r\n\r\n    struct project{\r\n        string title;\r\n        string url;\r\n        string image;\r\n        address owner;\r\n        bytes[20][] description;\r\n        mapping(address => uint)investments;\r\n        address[] investors;\r\n        uint total_fund;\r\n    }\r\n\t\t\r\n    mapping(uint => project) projects;\r\n\r\n    constructor(address _moderator, uint _entryFee, uint _maxParticipants, uint _duration, address _knittsAddress){\r\n        entryFee = _entryFee;\r\n        maxParticipants = _maxParticipants;\r\n        moderator = _moderator;\r\n        duration = _duration;\r\n        numProjects = 0;\r\n        started=false;\r\n        ended=false;\r\n        distributed=false;\r\n        //organization = 0x79e6234Ff4E7DB556F916FeBcE9e52a68D0B8879; //for public net\r\n        organization = _moderator; // for local testing\r\n        knittsAddress = _knittsAddress;\r\n    }\r\n\r\n    function submitIdea(string memory title, string memory url, string memory image, bytes[20][] memory description) public payable returns(uint){\r\n        require(msg.value >= entryFee, \"Insufficient entry fee\");\r\n        require(numProjects < maxParticipants, \"Maximum limit reached\");\r\n        project storage p = projects[numProjects++];\r\n        p.title = title;\r\n        p.url = url;\r\n        p.image = image;\r\n        p.owner = msg.sender;\r\n        p.description = description;\r\n        return numProjects;\r\n    }\r\n\r\n    function invest(uint projectId) public payable{\r\n        require(projectId < numProjects, \"Invalid project id\");\r\n        if(projects[projectId].investments[msg.sender] == 0){\r\n            projects[projectId].investors.push(msg.sender);\r\n        }\r\n        projects[projectId].total_fund += msg.value/1e12;\r\n        projects[projectId].investments[msg.sender] += msg.value/1e12;\r\n        \r\n    }\r\n\r\n    function startLeague() public{\r\n        require(msg.sender == moderator, \"only moderator can start the league\");\r\n        started=true;\r\n    }\r\n\r\n    function endLeague() public returns(uint[] memory){\r\n        require(msg.sender == organization, \"only organization can end the league\");\r\n        ended=true;\r\n        getPoints();\r\n      \t\r\n      \tfor(uint i=0; i<numProjects; i++){\r\n            total_points += points[i];\r\n        }\r\n\r\n        uint averagePoints = total_points / numProjects;\r\n      \r\n      \tfor(uint i=0;i<numProjects; i++) {\r\n            Knitts _knitts = Knitts(knittsAddress);\r\n            address _userId = _knitts.getUserContractAddress(projects[i].owner);\r\n            User _user = User(_userId);\r\n            _user.addProject(projects[i].title, projects[i].url, projects[i].image, projects[i].description, points[i] , averagePoints, address(this) );\r\n        } \r\n\r\n        return points;\r\n    }\r\n\r\n    function getPoints() private returns(uint[] memory){\r\n        require(ended = true, \"the game has not ended\");\r\n        uint [] memory empty_points;\r\n        points = empty_points;\r\n        // require(msg.sender == organization, \"only organization get the points\");\r\n        // write quadratic funding code here\r\n        for(uint i=0; i < numProjects; i++){\r\n            uint sum = 0;\r\n            for(uint j=0; j<projects[i].investors.length; j++){\r\n                address investor = projects[i].investors[j];\r\n                sum += sqrt(projects[i].investments[investor]);\r\n            }\r\n            uint point = sum * sum;\r\n            points.push(point);\r\n        }\r\n      \t\r\n        \r\n        return points;\r\n    }\r\n\r\n    function distribute() public {\r\n        require(msg.sender == organization, \"only organization can distribute prizes\");\r\n        uint total_balance = address(this).balance;\r\n        \r\n        for(uint i=0; i<numProjects; i++){\r\n            project storage p  =  projects[i];\r\n            \r\n            payable(p.owner).transfer( (3*points[i]*total_balance)/(10*total_points) );\r\n\r\n            for(uint j=0; j<p.investors.length; j++){\r\n                address investor = p.investors[j];\r\n                payable(investor).transfer( (6 * points[i] * total_balance * p.investments[investor]) / (10 * total_points * p.total_fund) );\r\n            }\r\n        }\r\n\r\n        payable(moderator).transfer(address(this).balance);\r\n\r\n    }\r\n\r\n    function getDetails() public view returns(\r\n        address,//moderator\r\n        uint,//entry fee\r\n        uint,//maxParticipants\r\n        bool, //started\r\n        bool, //ended\r\n        bool //distributed\r\n    ){\r\n        return (moderator, entryFee, maxParticipants, started, ended, distributed);\r\n    }\r\n\r\n    function submissionDetails(uint projectId) public view returns(\r\n        address, // project owner\r\n        bytes[20][] memory // description\r\n    )  {\r\n        return (projects[projectId].owner, projects[projectId].description);\r\n    }\r\n\r\n    function sqrt(uint num) public pure returns(uint){\r\n        uint start = 1;\r\n        uint end = num;\r\n        uint mid = start;\r\n        while(start < end){\r\n            mid = start + (end - start)/2;\r\n            if(mid * mid >= num){\r\n                end = mid;\r\n            }else{\r\n                start = mid+1;\r\n            }\r\n        }\r\n        return end;\r\n    }\r\n}\r\n\r\n\r\ncontract User {\r\n    string name;\r\n  \taddress id; //metamask address of corresponding user\r\n  \tuint numProjects=0;\r\n  \r\n  constructor( address _id, string memory _name ) {\r\n  \tname = _name;\r\n    id = _id;\r\n  }\r\n  \r\n  \r\n  struct project{\r\n      string title;\r\n      string url;\r\n      string image;\r\n        bytes[20][] description;\r\n        // uint total_fund;\r\n        uint point;\r\n        uint average_point;\r\n        address submittedOn;\r\n  }\r\n\t// mapping(uint => project) projects;\r\n\r\n    project[20] projects;\r\n  \r\n  function addProject(string memory title, string memory url, string memory image, bytes[20][] memory description, uint point, uint average_point, address submittedOn) public {\r\n    project storage p = projects[numProjects++];\r\n    p.title = title;\r\n    p.url = url;\r\n    p.image = image;\r\n    p.description = description;\r\n    p.point = point;\r\n    p.average_point = average_point;\r\n    p.submittedOn = submittedOn;\r\n  }\r\n  \r\n  function getDetails() public view returns (project[20] memory){\r\n    \treturn projects;\r\n  }\r\n  \r\n}\r\n\r\n\r\n\r\n\r\n\r\n\r\n\r\n\r\n\r\n\r\n\r\n\r\n\r\n\r\n\r\n\r\n",
  "sourcePath": "E:\\projects\\knitts\\back-end\\contracts\\League.sol",
  "compiler": {
    "name": "solc",
    "version": "0.8.0+commit.c7dfd78e.Emscripten.clang"
  },
  "schemaVersion": "3.4.3",
  "updatedAt": "2021-09-30T12:55:25.108Z",
  "networkType": "ethereum",
  "devdoc": {
    "kind": "dev",
    "methods": {},
    "version": 1
  },
  "userdoc": {
    "kind": "user",
    "methods": {},
    "version": 1
  }
}