{
  "contractName": "League",
  "abi": [
    {
      "inputs": [
        {
          "internalType": "address",
          "name": "_moderator",
          "type": "address"
        },
        {
          "internalType": "uint256",
          "name": "_entryFee",
          "type": "uint256"
        },
        {
          "internalType": "uint256",
          "name": "_maxParticipants",
          "type": "uint256"
        },
        {
          "internalType": "uint256",
          "name": "_duration",
          "type": "uint256"
        },
        {
          "internalType": "address",
          "name": "_knittsAddress",
          "type": "address"
        }
      ],
      "stateMutability": "nonpayable",
      "type": "constructor"
    },
    {
      "inputs": [
        {
          "internalType": "string",
          "name": "title",
          "type": "string"
        },
        {
          "internalType": "string",
          "name": "url",
          "type": "string"
        },
        {
          "internalType": "string",
          "name": "image",
          "type": "string"
        },
        {
          "internalType": "bytes[20][]",
          "name": "description",
          "type": "bytes[20][]"
        }
      ],
      "name": "submitIdea",
      "outputs": [
        {
          "internalType": "uint256",
          "name": "",
          "type": "uint256"
        }
      ],
      "stateMutability": "payable",
      "type": "function"
    },
    {
      "inputs": [
        {
          "internalType": "uint256",
          "name": "projectId",
          "type": "uint256"
        }
      ],
      "name": "invest",
      "outputs": [],
      "stateMutability": "payable",
      "type": "function"
    },
    {
      "inputs": [],
      "name": "startLeague",
      "outputs": [],
      "stateMutability": "nonpayable",
      "type": "function"
    },
    {
      "inputs": [],
      "name": "endLeague",
      "outputs": [
        {
          "internalType": "uint256[]",
          "name": "",
          "type": "uint256[]"
        }
      ],
      "stateMutability": "nonpayable",
      "type": "function"
    },
    {
      "inputs": [],
      "name": "distribute",
      "outputs": [],
      "stateMutability": "nonpayable",
      "type": "function"
    },
    {
      "inputs": [],
      "name": "getDetails",
      "outputs": [
        {
          "internalType": "address",
          "name": "",
          "type": "address"
        },
        {
          "internalType": "uint256",
          "name": "",
          "type": "uint256"
        },
        {
          "internalType": "uint256",
          "name": "",
          "type": "uint256"
        },
        {
          "internalType": "bool",
          "name": "",
          "type": "bool"
        },
        {
          "internalType": "bool",
          "name": "",
          "type": "bool"
        },
        {
          "internalType": "bool",
          "name": "",
          "type": "bool"
        }
      ],
      "stateMutability": "view",
      "type": "function"
    },
    {
      "inputs": [
        {
          "internalType": "uint256",
          "name": "projectId",
          "type": "uint256"
        }
      ],
      "name": "submissionDetails",
      "outputs": [
        {
          "internalType": "address",
          "name": "",
          "type": "address"
        },
        {
          "internalType": "bytes[20][]",
          "name": "",
          "type": "bytes[20][]"
        }
      ],
      "stateMutability": "view",
      "type": "function"
    },
    {
      "inputs": [
        {
          "internalType": "uint256",
          "name": "num",
          "type": "uint256"
        }
      ],
      "name": "sqrt",
      "outputs": [
        {
          "internalType": "uint256",
          "name": "",
          "type": "uint256"
        }
      ],
      "stateMutability": "pure",
      "type": "function"
    }
  ],
  "bytecode": "0x608060405260006008553480156200001657600080fd5b5060405162002e0938038062002e0983398181016040528101906200003c9190620001a5565b836001819055508260028190555084600560006101000a81548173ffffffffffffffffffffffffffffffffffffffff021916908373ffffffffffffffffffffffffffffffffffffffff1602179055508160068190555060006003819055506000600760006101000a81548160ff0219169083151502179055506000600760016101000a81548160ff0219169083151502179055506000600760026101000a81548160ff021916908315150217905550846000806101000a81548173ffffffffffffffffffffffffffffffffffffffff021916908373ffffffffffffffffffffffffffffffffffffffff16021790555080600a60006101000a81548173ffffffffffffffffffffffffffffffffffffffff021916908373ffffffffffffffffffffffffffffffffffffffff160217905550505050505062000299565b600081519050620001888162000265565b92915050565b6000815190506200019f816200027f565b92915050565b600080600080600060a08688031215620001be57600080fd5b6000620001ce8882890162000177565b9550506020620001e1888289016200018e565b9450506040620001f4888289016200018e565b935050606062000207888289016200018e565b92505060806200021a8882890162000177565b9150509295509295909350565b600062000234826200023b565b9050919050565b600073ffffffffffffffffffffffffffffffffffffffff82169050919050565b6000819050919050565b620002708162000227565b81146200027c57600080fd5b50565b6200028a816200025b565b81146200029657600080fd5b50565b612b6080620002a96000396000f3fe60806040526004361061007b5760003560e01c8063c3b7a80f1161004e578063c3b7a80f14610134578063d235407b1461014b578063e4fc6b6d14610189578063fbbf93a0146101a05761007b565b80632185ce831461008057806324fd7918146100b05780632afcf480146100db578063677342ce146100f7575b600080fd5b61009a60048036038101906100959190611c19565b6101d0565b6040516100a791906125a6565b60405180910390f35b3480156100bc57600080fd5b506100c561033f565b6040516100d29190612419565b60405180910390f35b6100f560048036038101906100f09190611cdc565b6106fe565b005b34801561010357600080fd5b5061011e60048036038101906101199190611cdc565b6108d0565b60405161012b91906125a6565b60405180910390f35b34801561014057600080fd5b50610149610949565b005b34801561015757600080fd5b50610172600480360381019061016d9190611cdc565b6109f6565b604051610180929190612388565b60405180910390f35b34801561019557600080fd5b5061019e610b5c565b005b3480156101ac57600080fd5b506101b5611389565b6040516101c7969594939291906123b8565b60405180910390f35b6000600154341015610217576040517f08c379a000000000000000000000000000000000000000000000000000000000815260040161020e90612566565b60405180910390fd5b6002546003541061025d576040517f08c379a000000000000000000000000000000000000000000000000000000000815260040161025490612506565b60405180910390fd5b6000600b600060036000815480929190610276906129e6565b9190505581526020019081526020016000209050858160000190805190602001906102a2929190611646565b50848160010190805190602001906102bb929190611646565b50838160020190805190602001906102d4929190611646565b50338160030160006101000a81548173ffffffffffffffffffffffffffffffffffffffff021916908373ffffffffffffffffffffffffffffffffffffffff160217905550828160040190805190602001906103309291906116cc565b50600354915050949350505050565b606060008054906101000a900473ffffffffffffffffffffffffffffffffffffffff1673ffffffffffffffffffffffffffffffffffffffff163373ffffffffffffffffffffffffffffffffffffffff16146103cf576040517f08c379a00000000000000000000000000000000000000000000000000000000081526004016103c690612526565b60405180910390fd5b6001600760016101000a81548160ff0219169083151502179055506103f26113ff565b5060005b600354811015610470576009818154811061043a577f4e487b7100000000000000000000000000000000000000000000000000000000600052603260045260246000fd5b9060005260206000200154600860008282546104569190612815565b925050819055508080610468906129e6565b9150506103f6565b506000600354600854610483919061286b565b905060005b6003548110156106a6576000600a60009054906101000a900473ffffffffffffffffffffffffffffffffffffffff16905060008173ffffffffffffffffffffffffffffffffffffffff1663a6e497b6600b600086815260200190815260200160002060030160009054906101000a900473ffffffffffffffffffffffffffffffffffffffff166040518263ffffffff1660e01b815260040161052a919061236d565b60206040518083038186803b15801561054257600080fd5b505afa158015610556573d6000803e3d6000fd5b505050506040513d601f19601f8201168201806040525081019061057a9190611baf565b905060008190508073ffffffffffffffffffffffffffffffffffffffff1663fbf7de84600b6000878152602001908152602001600020600001600b6000888152602001908152602001600020600101600b6000898152602001908152602001600020600201600b60008a815260200190815260200160002060040160098a8154811061062f577f4e487b7100000000000000000000000000000000000000000000000000000000600052603260045260246000fd5b90600052602060002001548b306040518863ffffffff1660e01b815260040161065e979695949392919061243b565b600060405180830381600087803b15801561067857600080fd5b505af115801561068c573d6000803e3d6000fd5b50505050505050808061069e906129e6565b915050610488565b5060098054806020026020016040519081016040528092919081815260200182805480156106f357602002820191906000526020600020905b8154815260200190600101908083116106df575b505050505091505090565b6003548110610742576040517f08c379a000000000000000000000000000000000000000000000000000000000815260040161073990612586565b60405180910390fd5b6000600b600083815260200190815260200160002060050160003373ffffffffffffffffffffffffffffffffffffffff1673ffffffffffffffffffffffffffffffffffffffff16815260200190815260200160002054141561081657600b6000828152602001908152602001600020600601339080600181540180825580915050600190039060005260206000200160009091909190916101000a81548173ffffffffffffffffffffffffffffffffffffffff021916908373ffffffffffffffffffffffffffffffffffffffff1602179055505b64e8d4a5100034610827919061286b565b600b6000838152602001908152602001600020600701600082825461084c9190612815565b9250508190555064e8d4a5100034610864919061286b565b600b600083815260200190815260200160002060050160003373ffffffffffffffffffffffffffffffffffffffff1673ffffffffffffffffffffffffffffffffffffffff16815260200190815260200160002060008282546108c69190612815565b9250508190555050565b60008060019050600083905060008290505b8183101561093e57600283836108f891906128f6565b610902919061286b565b8361090d9190612815565b905084818261091c919061289c565b1061092957809150610939565b6001816109369190612815565b92505b6108e2565b819350505050919050565b600560009054906101000a900473ffffffffffffffffffffffffffffffffffffffff1673ffffffffffffffffffffffffffffffffffffffff163373ffffffffffffffffffffffffffffffffffffffff16146109d9576040517f08c379a00000000000000000000000000000000000000000000000000000000081526004016109d0906124c6565b60405180910390fd5b6001600760006101000a81548160ff021916908315150217905550565b60006060600b600084815260200190815260200160002060030160009054906101000a900473ffffffffffffffffffffffffffffffffffffffff16600b600085815260200190815260200160002060040180805480602002602001604051908101604052809291908181526020016000905b82821015610b4d5783829060005260206000209060140201601480602002604051908101604052809291906000905b82821015610b3a578382018054610aad906129b4565b80601f0160208091040260200160405190810160405280929190818152602001828054610ad9906129b4565b8015610b265780601f10610afb57610100808354040283529160200191610b26565b820191906000526020600020905b815481529060010190602001808311610b0957829003601f168201915b505050505081526020019060010190610a97565b5050505081526020019060010190610a68565b50505050905091509150915091565b60008054906101000a900473ffffffffffffffffffffffffffffffffffffffff1673ffffffffffffffffffffffffffffffffffffffff163373ffffffffffffffffffffffffffffffffffffffff1614610bea576040517f08c379a0000000000000000000000000000000000000000000000000000000008152600401610be1906124e6565b60405180910390fd5b600047905060005b60035481101561131c576000600b600083815260200190815260200160002090508060030160009054906101000a900473ffffffffffffffffffffffffffffffffffffffff1673ffffffffffffffffffffffffffffffffffffffff166108fc600854600a610c60919061289c565b8560098681548110610c9b577f4e487b7100000000000000000000000000000000000000000000000000000000600052603260045260246000fd5b90600052602060002001546003610cb2919061289c565b610cbc919061289c565b610cc6919061286b565b9081150290604051600060405180830381858888f19350505050158015610cf1573d6000803e3d6000fd5b5060005b8160060180549050811015611307576000826006018281548110610d42577f4e487b7100000000000000000000000000000000000000000000000000000000600052603260045260246000fd5b9060005260206000200160009054906101000a900473ffffffffffffffffffffffffffffffffffffffff1690506000600a60009054906101000a900473ffffffffffffffffffffffffffffffffffffffff16905060008173ffffffffffffffffffffffffffffffffffffffff1663a6e497b6846040518263ffffffff1660e01b8152600401610dd1919061236d565b60206040518083038186803b158015610de957600080fd5b505afa158015610dfd573d6000803e3d6000fd5b505050506040513d601f19601f82011682018060405250810190610e219190611baf565b9050600081905060008173ffffffffffffffffffffffffffffffffffffffff1663227212f26040518163ffffffff1660e01b815260040160006040518083038186803b158015610e7057600080fd5b505afa158015610e84573d6000803e3d6000fd5b505050506040513d6000823e3d601f19601f82011682018060405250810190610ead9190611bd8565b9050600081511415610fda5760008760070154600854600a610ecf919061289c565b610ed9919061289c565b8860050160008873ffffffffffffffffffffffffffffffffffffffff1673ffffffffffffffffffffffffffffffffffffffff168152602001908152602001600020548b60098c81548110610f56577f4e487b7100000000000000000000000000000000000000000000000000000000600052603260045260246000fd5b90600052602060002001546006610f6d919061289c565b610f77919061289c565b610f81919061289c565b610f8b919061286b565b90508573ffffffffffffffffffffffffffffffffffffffff166108fc829081150290604051600060405180830381858888f19350505050158015610fd3573d6000803e3d6000fd5b50506112ef565b60005b81518110156112ed576000828281518110611021577f4e487b7100000000000000000000000000000000000000000000000000000000600052603260045260246000fd5b60200260200101519050600060648a60070154600854600a611043919061289c565b61104d919061289c565b611057919061289c565b8273ffffffffffffffffffffffffffffffffffffffff1663c78ad77f6040518163ffffffff1660e01b815260040160206040518083038186803b15801561109d57600080fd5b505afa1580156110b1573d6000803e3d6000fd5b505050506040513d601f19601f820116820180604052508101906110d59190611d05565b8b60050160008b73ffffffffffffffffffffffffffffffffffffffff1673ffffffffffffffffffffffffffffffffffffffff168152602001908152602001600020548e60098f81548110611152577f4e487b7100000000000000000000000000000000000000000000000000000000600052603260045260246000fd5b90600052602060002001546006611169919061289c565b611173919061289c565b61117d919061289c565b611187919061289c565b611191919061286b565b90508173ffffffffffffffffffffffffffffffffffffffff16638da5cb5b6040518163ffffffff1660e01b815260040160206040518083038186803b1580156111d957600080fd5b505afa1580156111ed573d6000803e3d6000fd5b505050506040513d601f19601f820116820180604052508101906112119190611baf565b73ffffffffffffffffffffffffffffffffffffffff166108fc829081150290604051600060405180830381858888f19350505050158015611256573d6000803e3d6000fd5b508173ffffffffffffffffffffffffffffffffffffffff1663d05ad2b46040518163ffffffff1660e01b8152600401602060405180830381600087803b15801561129f57600080fd5b505af11580156112b3573d6000803e3d6000fd5b505050506040513d601f19601f820116820180604052508101906112d79190611d05565b50505080806112e5906129e6565b915050610fdd565b505b505050505080806112ff906129e6565b915050610cf5565b50508080611314906129e6565b915050610bf2565b50600560009054906101000a900473ffffffffffffffffffffffffffffffffffffffff1673ffffffffffffffffffffffffffffffffffffffff166108fc479081150290604051600060405180830381858888f19350505050158015611385573d6000803e3d6000fd5b5050565b600080600080600080600560009054906101000a900473ffffffffffffffffffffffffffffffffffffffff16600154600254600760009054906101000a900460ff16600760019054906101000a900460ff16600760029054906101000a900460ff16955095509550955095509550909192939495565b60606001600760016101000a81548160ff021916908315150217905561145a576040517f08c379a000000000000000000000000000000000000000000000000000000000815260040161145190612546565b60405180910390fd5b6060806009908051906020019061147292919061172a565b5060005b6003548110156115ee576000805b600b60008481526020019081526020016000206006018054905081101561159f576000600b600085815260200190815260200160002060060182815481106114f5577f4e487b7100000000000000000000000000000000000000000000000000000000600052603260045260246000fd5b9060005260206000200160009054906101000a900473ffffffffffffffffffffffffffffffffffffffff16905061157e600b600086815260200190815260200160002060050160008373ffffffffffffffffffffffffffffffffffffffff1673ffffffffffffffffffffffffffffffffffffffff168152602001908152602001600020546108d0565b836115899190612815565b9250508080611597906129e6565b915050611484565b50600081826115ae919061289c565b90506009819080600181540180825580915050600190039060005260206000200160009091909190915055505080806115e6906129e6565b915050611476565b50600980548060200260200160405190810160405280929190818152602001828054801561163b57602002820191906000526020600020905b815481526020019060010190808311611627575b505050505091505090565b828054611652906129b4565b90600052602060002090601f01602090048101928261167457600085556116bb565b82601f1061168d57805160ff19168380011785556116bb565b828001600101855582156116bb579182015b828111156116ba57825182559160200191906001019061169f565b5b5090506116c89190611777565b5090565b828054828255906000526020600020906014028101928215611719579160200282015b8281111561171857825182906014611708929190611794565b50916020019190601401906116ef565b5b50905061172691906117e7565b5090565b828054828255906000526020600020908101928215611766579160200282015b8281111561176557825182559160200191906001019061174a565b5b5090506117739190611777565b5090565b5b80821115611790576000816000905550600101611778565b5090565b82601481019282156117d6579160200282015b828111156117d55782518290805190602001906117c592919061180b565b50916020019190600101906117a7565b5b5090506117e39190611891565b5090565b5b8082111561180757600081816117fe91906118b5565b506014016117e8565b5090565b828054611817906129b4565b90600052602060002090601f0160209004810192826118395760008555611880565b82601f1061185257805160ff1916838001178555611880565b82800160010185558215611880579182015b8281111561187f578251825591602001919060010190611864565b5b50905061188d9190611777565b5090565b5b808211156118b157600081816118a891906118c8565b50600101611892565b5090565b5080601401906118c59190611891565b50565b5080546118d4906129b4565b6000825580601f106118e65750611905565b601f0160209004906000526020600020908101906119049190611777565b5b50565b600061191b611916846125f2565b6125c1565b9050808382526020820190508285602086028201111561193a57600080fd5b60005b8581101561196a57816119508882611aa1565b84526020840193506020830192505060018101905061193d565b5050509392505050565b60006119876119828461261e565b6125c1565b9050808382526020820190508260005b858110156119c757813585016119ad8882611b0a565b845260208401935060208301925050600181019050611997565b5050509392505050565b60006119e46119df8461264a565b6125c1565b9050808260005b85811015611a1b5781358501611a018882611b31565b8452602084019350602083019250506001810190506119eb565b5050509392505050565b6000611a38611a3384612670565b6125c1565b905082815260208101848484011115611a5057600080fd5b611a5b848285612972565b509392505050565b6000611a76611a71846126a0565b6125c1565b905082815260208101848484011115611a8e57600080fd5b611a99848285612972565b509392505050565b600081519050611ab081612afc565b92915050565b600082601f830112611ac757600080fd5b8151611ad7848260208601611908565b91505092915050565b600082601f830112611af157600080fd5b8135611b01848260208601611974565b91505092915050565b600082601f830112611b1b57600080fd5b6014611b288482856119d1565b91505092915050565b600082601f830112611b4257600080fd5b8135611b52848260208601611a25565b91505092915050565b600082601f830112611b6c57600080fd5b8135611b7c848260208601611a63565b91505092915050565b600081359050611b9481612b13565b92915050565b600081519050611ba981612b13565b92915050565b600060208284031215611bc157600080fd5b6000611bcf84828501611aa1565b91505092915050565b600060208284031215611bea57600080fd5b600082015167ffffffffffffffff811115611c0457600080fd5b611c1084828501611ab6565b91505092915050565b60008060008060808587031215611c2f57600080fd5b600085013567ffffffffffffffff811115611c4957600080fd5b611c5587828801611b5b565b945050602085013567ffffffffffffffff811115611c7257600080fd5b611c7e87828801611b5b565b935050604085013567ffffffffffffffff811115611c9b57600080fd5b611ca787828801611b5b565b925050606085013567ffffffffffffffff811115611cc457600080fd5b611cd087828801611ae0565b91505092959194509250565b600060208284031215611cee57600080fd5b6000611cfc84828501611b85565b91505092915050565b600060208284031215611d1757600080fd5b6000611d2584828501611b9a565b91505092915050565b6000611d3a8383611e8e565b905092915050565b6000611d4e8383611f03565b905092915050565b6000611d628383611fe4565b905092915050565b6000611d76838361201d565b905092915050565b6000611d8a838361234f565b60208301905092915050565b611d9f8161292a565b82525050565b6000611db082612743565b611dba81856127c6565b935083602082028501611dcc856126d0565b8060005b85811015611e085784840389528151611de98582611d2e565b9450611df483612785565b925060208a01995050600181019050611dd0565b50829750879550505050505092915050565b6000611e258261274e565b611e2f81856127c6565b935083602082028501611e41856126e0565b8060005b85811015611e7c57848403895281611e5d8582611d42565b9450611e6883612792565b925060208a01995050600181019050611e45565b50829750879550505050505092915050565b6000611e9982612759565b611ea381856127d7565b935083602082028501611eb5856126f5565b8060005b85811015611ef15784840389528151611ed28582611d56565b9450611edd8361279f565b925060208a01995050600181019050611eb9565b50829750879550505050505092915050565b6000611f0e82612764565b611f1881856127d7565b935083602082028501611f2a856126ff565b8060005b85811015611f6557848403895281611f468582611d6a565b9450611f51836127ac565b925060208a01995050600181019050611f2e565b50829750879550505050505092915050565b6000611f828261276f565b611f8c81856127e2565b9350611f9783612709565b8060005b83811015611fc8578151611faf8882611d7e565b9750611fba836127b9565b925050600181019050611f9b565b5085935050505092915050565b611fde8161293c565b82525050565b6000611fef8261277a565b611ff981856127f3565b9350612009818560208601612981565b61201281612aeb565b840191505092915050565b6000815461202a816129b4565b61203481866127f3565b9450600182166000811461204f576001811461206157612094565b60ff1983168652602086019350612094565b61206a85612719565b60005b8381101561208c5781548189015260018201915060208101905061206d565b808801955050505b50505092915050565b600081546120aa816129b4565b6120b48186612804565b945060018216600081146120cf57600181146120e157612114565b60ff1983168652602086019350612114565b6120ea8561272e565b60005b8381101561210c578154818901526001820191506020810190506120ed565b808801955050505b50505092915050565b600061212a602383612804565b91507f6f6e6c79206d6f64657261746f722063616e20737461727420746865206c656160008301527f67756500000000000000000000000000000000000000000000000000000000006020830152604082019050919050565b6000612190602783612804565b91507f6f6e6c79206f7267616e697a6174696f6e2063616e206469737472696275746560008301527f207072697a6573000000000000000000000000000000000000000000000000006020830152604082019050919050565b60006121f6601583612804565b91507f4d6178696d756d206c696d6974207265616368656400000000000000000000006000830152602082019050919050565b6000612236602483612804565b91507f6f6e6c79206f7267616e697a6174696f6e2063616e20656e6420746865206c6560008301527f61677565000000000000000000000000000000000000000000000000000000006020830152604082019050919050565b600061229c601683612804565b91507f7468652067616d6520686173206e6f7420656e646564000000000000000000006000830152602082019050919050565b60006122dc601683612804565b91507f496e73756666696369656e7420656e74727920666565000000000000000000006000830152602082019050919050565b600061231c601283612804565b91507f496e76616c69642070726f6a65637420696400000000000000000000000000006000830152602082019050919050565b61235881612968565b82525050565b61236781612968565b82525050565b60006020820190506123826000830184611d96565b92915050565b600060408201905061239d6000830185611d96565b81810360208301526123af8184611da5565b90509392505050565b600060c0820190506123cd6000830189611d96565b6123da602083018861235e565b6123e7604083018761235e565b6123f46060830186611fd5565b6124016080830185611fd5565b61240e60a0830184611fd5565b979650505050505050565b600060208201905081810360008301526124338184611f77565b905092915050565b600060e0820190508181036000830152612455818a61209d565b90508181036020830152612469818961209d565b9050818103604083015261247d818861209d565b905081810360608301526124918187611e1a565b90506124a0608083018661235e565b6124ad60a083018561235e565b6124ba60c0830184611d96565b98975050505050505050565b600060208201905081810360008301526124df8161211d565b9050919050565b600060208201905081810360008301526124ff81612183565b9050919050565b6000602082019050818103600083015261251f816121e9565b9050919050565b6000602082019050818103600083015261253f81612229565b9050919050565b6000602082019050818103600083015261255f8161228f565b9050919050565b6000602082019050818103600083015261257f816122cf565b9050919050565b6000602082019050818103600083015261259f8161230f565b9050919050565b60006020820190506125bb600083018461235e565b92915050565b6000604051905081810181811067ffffffffffffffff821117156125e8576125e7612abc565b5b8060405250919050565b600067ffffffffffffffff82111561260d5761260c612abc565b5b602082029050602081019050919050565b600067ffffffffffffffff82111561263957612638612abc565b5b602082029050602081019050919050565b600067ffffffffffffffff82111561266557612664612abc565b5b602082029050919050565b600067ffffffffffffffff82111561268b5761268a612abc565b5b601f19601f8301169050602081019050919050565b600067ffffffffffffffff8211156126bb576126ba612abc565b5b601f19601f8301169050602081019050919050565b6000819050602082019050919050565b60008190508160005260206000209050919050565b6000819050919050565b6000819050919050565b6000819050602082019050919050565b60008190508160005260206000209050919050565b60008190508160005260206000209050919050565b600081519050919050565b600081549050919050565b600060149050919050565b600060149050919050565b600081519050919050565b600081519050919050565b6000602082019050919050565b6000601482019050919050565b6000602082019050919050565b6000600182019050919050565b6000602082019050919050565b600082825260208201905092915050565b600081905092915050565b600082825260208201905092915050565b600082825260208201905092915050565b600082825260208201905092915050565b600061282082612968565b915061282b83612968565b9250827fffffffffffffffffffffffffffffffffffffffffffffffffffffffffffffffff038211156128605761285f612a2f565b5b828201905092915050565b600061287682612968565b915061288183612968565b92508261289157612890612a5e565b5b828204905092915050565b60006128a782612968565b91506128b283612968565b9250817fffffffffffffffffffffffffffffffffffffffffffffffffffffffffffffffff04831182151516156128eb576128ea612a2f565b5b828202905092915050565b600061290182612968565b915061290c83612968565b92508282101561291f5761291e612a2f565b5b828203905092915050565b600061293582612948565b9050919050565b60008115159050919050565b600073ffffffffffffffffffffffffffffffffffffffff82169050919050565b6000819050919050565b82818337600083830152505050565b60005b8381101561299f578082015181840152602081019050612984565b838111156129ae576000848401525b50505050565b600060028204905060018216806129cc57607f821691505b602082108114156129e0576129df612a8d565b5b50919050565b60006129f182612968565b91507fffffffffffffffffffffffffffffffffffffffffffffffffffffffffffffffff821415612a2457612a23612a2f565b5b600182019050919050565b7f4e487b7100000000000000000000000000000000000000000000000000000000600052601160045260246000fd5b7f4e487b7100000000000000000000000000000000000000000000000000000000600052601260045260246000fd5b7f4e487b7100000000000000000000000000000000000000000000000000000000600052602260045260246000fd5b7f4e487b7100000000000000000000000000000000000000000000000000000000600052604160045260246000fd5b6000601f19601f8301169050919050565b612b058161292a565b8114612b1057600080fd5b50565b612b1c81612968565b8114612b2757600080fd5b5056fea2646970667358221220269d2fd63f1a60ce03c1a240cb369dd8440c38191be738f2621e64b5041ac12b64736f6c63430008000033",
  "immutableReferences": {},
  "source": "// SPDX-License-Identifier: MIT\r\npragma solidity >=0.8.0;\r\n\r\ncontract Knitts{\r\n    address organization = 0x79e6234Ff4E7DB556F916FeBcE9e52a68D0B8879;\r\n    address[] moderators;//change this to mapping mapping(address=>bool)\r\n    mapping(address=>bool) valid;\r\n    mapping(address => uint) deposits;\r\n    address[] Leagues;\r\n  \taddress[] Users;\r\n    uint maxDescLength = 1000;\r\n  \tmapping(address => address) idToUser; \r\n  \tmapping(address => bool) userExists;\r\n    function addModerator() public payable{\r\n        require(msg.value > 0, \"You should deposit some amount\");\r\n        moderators.push(msg.sender);\r\n        deposits[msg.sender] = msg.value;\r\n        valid[msg.sender]=true;\r\n    }\r\n\r\n    function depositMore() public payable{\r\n        require(msg.value > 0, \"You need to deposit some amount\");\r\n        deposits[msg.sender] += msg.value;\r\n    }\r\n\r\n    function createLeague(uint _entryFee, uint _numPlayers, uint _duration) public returns(address[] memory){\r\n        require(_entryFee * _numPlayers <= deposits[msg.sender], \"Insufficient deposit\");\r\n        League newLeague = new League(msg.sender, _entryFee, _numPlayers, _duration, address(this));\r\n        Leagues.push(address(newLeague));\r\n        return Leagues;\r\n    }\r\n\r\n    function getBalance(address _moderator) public view returns (uint){\r\n        return deposits[_moderator];\r\n    }\r\n\r\n    function getDetails() public view returns (address [] memory, address [] memory){\r\n        return (moderators, Leagues);\r\n    }\r\n\r\n    function removeModerator(address _moderator) public {\r\n        valid[_moderator] = false;\r\n    }\r\n  \r\n  \tfunction register(string memory _name) public returns (address) {\r\n        User newUser = new User(msg.sender, _name, organization);\r\n        userExists[msg.sender] = true;\r\n        idToUser[msg.sender] = address(newUser);\r\n        return address(newUser);\r\n    }\r\n  \r\n  \tfunction getUserContractAddress(address _id) public view returns(address) {\r\n        require(userExists[_id] == true,\"The user should exist\");\r\n        return idToUser[_id];\r\n    }\r\n}\r\n\r\ncontract League{\r\n    \r\n    address organization;\r\n    uint entryFee;\r\n    uint maxParticipants;\r\n    uint numProjects;\r\n    address [] participants;\r\n    address moderator;\r\n    uint duration;\r\n    bool started;\r\n    bool ended;\r\n    bool distributed;\r\n  \tuint total_points=0;\r\n    uint [] points;\r\n    address knittsAddress;\r\n\r\n    struct project{\r\n        string title;\r\n        string url;\r\n        string image;\r\n        address owner;\r\n        bytes[20][] description;\r\n        mapping(address => uint)investments;\r\n        address[] investors;\r\n        uint total_fund;\r\n    }\r\n\t\t\r\n    mapping(uint => project) projects;\r\n\r\n    constructor(address _moderator, uint _entryFee, uint _maxParticipants, uint _duration, address _knittsAddress){\r\n        entryFee = _entryFee;\r\n        maxParticipants = _maxParticipants;\r\n        moderator = _moderator;\r\n        duration = _duration;\r\n        numProjects = 0;\r\n        started=false;\r\n        ended=false;\r\n        distributed=false;\r\n        //organization = 0x79e6234Ff4E7DB556F916FeBcE9e52a68D0B8879; //for public net\r\n        organization = _moderator; // for local testing\r\n        knittsAddress = _knittsAddress;\r\n    }\r\n\r\n    function submitIdea(string memory title, string memory url, string memory image, bytes[20][] memory description) public payable returns(uint){\r\n        require(msg.value >= entryFee, \"Insufficient entry fee\");\r\n        require(numProjects < maxParticipants, \"Maximum limit reached\");\r\n        project storage p = projects[numProjects++];\r\n        p.title = title;\r\n        p.url = url;\r\n        p.image = image;\r\n        p.owner = msg.sender;\r\n        p.description = description;\r\n        return numProjects;\r\n    }\r\n\r\n    function invest(uint projectId) public payable{\r\n        require(projectId < numProjects, \"Invalid project id\");\r\n        if(projects[projectId].investments[msg.sender] == 0){\r\n            projects[projectId].investors.push(msg.sender);\r\n        }\r\n        projects[projectId].total_fund += msg.value/1e12;\r\n        projects[projectId].investments[msg.sender] += msg.value/1e12;\r\n        \r\n    }\r\n\r\n    function startLeague() public{\r\n        require(msg.sender == moderator, \"only moderator can start the league\");\r\n        started=true;\r\n    }\r\n\r\n    function endLeague() public returns(uint[] memory){\r\n        require(msg.sender == organization, \"only organization can end the league\");\r\n        ended=true;\r\n        getPoints();\r\n      \t\r\n      \tfor(uint i=0; i<numProjects; i++){\r\n            total_points += points[i];\r\n        }\r\n\r\n        uint averagePoints = total_points / numProjects;\r\n      \r\n      \tfor(uint i=0;i<numProjects; i++) {\r\n            Knitts _knitts = Knitts(knittsAddress);\r\n            address _userId = _knitts.getUserContractAddress(projects[i].owner);\r\n            User _user = User(_userId);\r\n            _user.addProject(projects[i].title, projects[i].url, projects[i].image, projects[i].description, points[i] , averagePoints, address(this) );\r\n        } \r\n\r\n        return points;\r\n    }\r\n\r\n    function getPoints() private returns(uint[] memory){\r\n        require(ended = true, \"the game has not ended\");\r\n        uint [] memory empty_points;\r\n        points = empty_points;\r\n        // require(msg.sender == organization, \"only organization get the points\");\r\n        // write quadratic funding code here\r\n        for(uint i=0; i < numProjects; i++){\r\n            uint sum = 0;\r\n            for(uint j=0; j<projects[i].investors.length; j++){\r\n                address investor = projects[i].investors[j];\r\n                sum += sqrt(projects[i].investments[investor]);\r\n            }\r\n            uint point = sum * sum;\r\n            points.push(point);\r\n        }\r\n      \t\r\n        \r\n        return points;\r\n    }\r\n\r\n    function distribute() public {\r\n        require(msg.sender == organization, \"only organization can distribute prizes\");\r\n        uint total_balance = address(this).balance;\r\n        \r\n        for(uint i=0; i<numProjects; i++){\r\n            project storage p  =  projects[i];\r\n            \r\n            payable(p.owner).transfer( (3*points[i]*total_balance)/(10*total_points) );\r\n\r\n            for(uint j=0; j<p.investors.length; j++){\r\n                address investor = p.investors[j];\r\n                 Knitts _knitts = Knitts(knittsAddress);\r\n                address _userId = _knitts.getUserContractAddress(investor);\r\n                User _user = User(_userId);\r\n                address [] memory NFTs = _user.getNFTs();\r\n                \r\n                if(NFTs.length == 0){\r\n                    uint value = (6 * points[i] * total_balance * p.investments[investor]) / (10 * total_points * p.total_fund);\r\n                    payable(investor).transfer( value );\r\n                }\r\n                else{\r\n                    for(uint k = 0; k < NFTs.length; k++){\r\n                        NFT nft = NFT(NFTs[k]);\r\n                        uint value = (6 * points[i] * total_balance * p.investments[investor] * nft.percentage()) / (10 * total_points * p.total_fund * 100);\r\n                        payable(nft.owner()).transfer(value);\r\n                        nft.strikeNFT();\r\n                    }\r\n                }\r\n                \r\n            }\r\n        }\r\n\r\n        payable(moderator).transfer(address(this).balance);\r\n\r\n    }\r\n\r\n    function getDetails() public view returns(\r\n        address,//moderator\r\n        uint,//entry fee\r\n        uint,//maxParticipants\r\n        bool, //started\r\n        bool, //ended\r\n        bool //distributed\r\n    ){\r\n        return (moderator, entryFee, maxParticipants, started, ended, distributed);\r\n    }\r\n\r\n    function submissionDetails(uint projectId) public view returns(\r\n        address, // project owner\r\n        bytes[20][] memory // description\r\n    )  {\r\n        return (projects[projectId].owner, projects[projectId].description);\r\n    }\r\n\r\n    function sqrt(uint num) public pure returns(uint){\r\n        uint start = 1;\r\n        uint end = num;\r\n        uint mid = start;\r\n        while(start < end){\r\n            mid = start + (end - start)/2;\r\n            if(mid * mid >= num){\r\n                end = mid;\r\n            }else{\r\n                start = mid+1;\r\n            }\r\n        }\r\n        return end;\r\n    }\r\n}\r\n\r\n\r\ncontract User {\r\n  string name;\r\n  address id; //metamask address of corresponding user\r\n  uint numProjects=0;\r\n  uint percentageNFTSold;\r\n  uint NFTsPending = 0;\r\n  address organization;\r\n  mapping(address=>bool) validNFT;\r\n\r\n  address[] NFTs;\r\n  constructor( address _id, string memory _name, address _organization ) {\r\n  \tname = _name;\r\n    id = _id;\r\n    organization = _organization;\r\n  }\r\n  \r\n  \r\n  struct project{\r\n      string title;\r\n      string url;\r\n      string image;\r\n        bytes[20][] description;\r\n        uint point;\r\n        uint average_point;\r\n        address submittedOn;\r\n  }\r\n\t// mapping(uint => project) projects;\r\n\r\n    project[20] projects;\r\n  \r\n  function addProject(string memory title, string memory url, string memory image, bytes[20][] memory description, uint point, uint average_point, address submittedOn) public {\r\n    project storage p = projects[numProjects++];\r\n    p.title = title;\r\n    p.url = url;\r\n    p.image = image;\r\n    p.description = description;\r\n    p.point = point;\r\n    p.average_point = average_point;\r\n    p.submittedOn = submittedOn;\r\n  }\r\n\r\n  function updateNFT(uint value, bool increase, bool deactivate) public {\r\n      require(validNFT[msg.sender] == true, \"Not valid NFT\");\r\n      if(increase){\r\n          require(percentageNFTSold + value <= 100, \"Maximum proportion sold\");\r\n          percentageNFTSold += value;\r\n      }else{\r\n          require(percentageNFTSold >= value, \"Not enough proportion\");\r\n          percentageNFTSold -= value;\r\n      }\r\n      if(deactivate){\r\n          validNFT[msg.sender] = false;\r\n          NFTsPending-=1;\r\n          if(NFTsPending ==0){\r\n            address [] memory NFTsUtil;\r\n            NFTs = NFTsUtil;\r\n          }\r\n          \r\n      }\r\n  }\r\n\r\n  function mintNFT(uint shares, uint numLeagues) public returns (address[] memory){\r\n      uint percentageEachShare = 100/shares;\r\n      require(shares * percentageEachShare != 100, \"shares can only be a factor of 100\");\r\n      require(NFTsPending > 0, \"You have unsold minted NFTs left\");\r\n      require(msg.sender == id);\r\n      for(uint i=0; i<shares; i++){\r\n          NFT newNFT = new NFT(organization, address(this), address(this), id, id, percentageEachShare, numLeagues);\r\n          NFTs.push(address(newNFT));\r\n      }\r\n      return NFTs;\r\n  }\r\n\r\n  function getNFTs() public view returns (address[] memory){\r\n      return NFTs;\r\n  }\r\n  \r\n  function getDetails() public view returns (project[20] memory){\r\n    \treturn projects;\r\n  }\r\n  \r\n}\r\n\r\n\r\ncontract NFT{\r\n    address public organization;\r\n    address public creater;\r\n    address public owner;\r\n    uint public percentage;\r\n    uint public gamesRemaining;\r\n    bool public expired;\r\n    address public createrContractId;\r\n    address public ownerContractId;\r\n\r\n    constructor(address _organization, address _createrContractId, address _ownerContractId, address _creater, address _owner, uint _percentage, uint _gamesRemaining){\r\n        organization = _organization;\r\n        creater = _creater;\r\n        owner = _owner;\r\n        percentage = _percentage;\r\n        gamesRemaining = _gamesRemaining;\r\n        expired = false;\r\n        createrContractId = _createrContractId;\r\n        ownerContractId = _ownerContractId;\r\n    }\r\n\r\n    function getDetails() public view returns(address, address, uint, uint, bool){\r\n        return (creater, owner, percentage, gamesRemaining, expired);\r\n    }\r\n\r\n    function strikeNFT() public returns (uint){\r\n        // require(msg.sender == organization, \"only organization can strikeNFT\");\r\n        require(expired == false, \"The card has expired\");\r\n        require(gamesRemaining > 0, \"The maximum number of games has been reached\");\r\n        gamesRemaining = gamesRemaining-1;\r\n        if(gamesRemaining == 0){\r\n            expired = true;\r\n            User(createrContractId).updateNFT(percentage, true, true);\r\n        }else{\r\n            User(createrContractId).updateNFT(percentage, true, false);\r\n        }\r\n        return percentage;\r\n    }\r\n\r\n}\r\n\r\n\r\n\r\n\r\n\r\n\r\n\r\n\r\n\r\n\r\n\r\n\r\n\r\n\r\n",
  "sourcePath": "E:\\projects\\knitts\\back-end\\contracts\\League.sol",
  "compiler": {
    "name": "solc",
    "version": "0.8.0+commit.c7dfd78e.Emscripten.clang"
  },
  "schemaVersion": "3.4.3",
  "updatedAt": "2021-09-30T10:09:33.607Z",
  "devdoc": {
    "kind": "dev",
    "methods": {},
    "version": 1
  },
  "userdoc": {
    "kind": "user",
    "methods": {},
    "version": 1
  }
}