{
  "contractName": "League",
  "abi": [
    {
      "inputs": [
        {
          "internalType": "address",
          "name": "_moderator",
          "type": "address"
        },
        {
          "internalType": "uint256",
          "name": "_entryFee",
          "type": "uint256"
        },
        {
          "internalType": "uint256",
          "name": "_maxParticipants",
          "type": "uint256"
        },
        {
          "internalType": "uint256",
          "name": "_duration",
          "type": "uint256"
        }
      ],
      "stateMutability": "nonpayable",
      "type": "constructor"
    },
    {
      "inputs": [
        {
          "internalType": "bytes[]",
          "name": "description",
          "type": "bytes[]"
        }
      ],
      "name": "submitIdea",
      "outputs": [
        {
          "internalType": "uint256",
          "name": "",
          "type": "uint256"
        }
      ],
      "stateMutability": "payable",
      "type": "function",
      "payable": true
    },
    {
      "inputs": [
        {
          "internalType": "uint256",
          "name": "projectId",
          "type": "uint256"
        }
      ],
      "name": "invest",
      "outputs": [],
      "stateMutability": "payable",
      "type": "function",
      "payable": true
    },
    {
      "inputs": [],
      "name": "startLeague",
      "outputs": [],
      "stateMutability": "nonpayable",
      "type": "function"
    },
    {
      "inputs": [],
      "name": "endLeague",
      "outputs": [],
      "stateMutability": "nonpayable",
      "type": "function"
    },
    {
      "inputs": [],
      "name": "getPoints",
      "outputs": [
        {
          "internalType": "uint256[]",
          "name": "",
          "type": "uint256[]"
        }
      ],
      "stateMutability": "nonpayable",
      "type": "function"
    },
    {
      "inputs": [],
      "name": "distribute",
      "outputs": [],
      "stateMutability": "nonpayable",
      "type": "function"
    },
    {
      "inputs": [],
      "name": "getDetails",
      "outputs": [
        {
          "internalType": "address",
          "name": "",
          "type": "address"
        },
        {
          "internalType": "uint256",
          "name": "",
          "type": "uint256"
        },
        {
          "internalType": "uint256",
          "name": "",
          "type": "uint256"
        },
        {
          "internalType": "bool",
          "name": "",
          "type": "bool"
        },
        {
          "internalType": "bool",
          "name": "",
          "type": "bool"
        },
        {
          "internalType": "bool",
          "name": "",
          "type": "bool"
        }
      ],
      "stateMutability": "view",
      "type": "function",
      "constant": true
    },
    {
      "inputs": [
        {
          "internalType": "uint256",
          "name": "projectId",
          "type": "uint256"
        }
      ],
      "name": "submissionDetails",
      "outputs": [
        {
          "internalType": "address",
          "name": "",
          "type": "address"
        },
        {
          "internalType": "bytes[]",
          "name": "",
          "type": "bytes[]"
        }
      ],
      "stateMutability": "view",
      "type": "function",
      "constant": true
    }
  ],
  "bytecode": "0x60806040527379e6234ff4e7db556f916febce9e52a68d0b88796000806101000a81548173ffffffffffffffffffffffffffffffffffffffff021916908373ffffffffffffffffffffffffffffffffffffffff1602179055503480156200006557600080fd5b50604051620016aa380380620016aa83398181016040528101906200008b919062000172565b826001819055508160028190555083600560006101000a81548173ffffffffffffffffffffffffffffffffffffffff021916908373ffffffffffffffffffffffffffffffffffffffff1602179055508060068190555060006003819055506000600760006101000a81548160ff0219169083151502179055506000600760016101000a81548160ff0219169083151502179055506000600760026101000a81548160ff0219169083151502179055505050505062000250565b60008151905062000155816200021c565b92915050565b6000815190506200016c8162000236565b92915050565b600080600080608085870312156200018957600080fd5b6000620001998782880162000144565b9450506020620001ac878288016200015b565b9350506040620001bf878288016200015b565b9250506060620001d2878288016200015b565b91505092959194509250565b6000620001eb82620001f2565b9050919050565b600073ffffffffffffffffffffffffffffffffffffffff82169050919050565b6000819050919050565b6200022781620001de565b81146200023357600080fd5b50565b620002418162000212565b81146200024d57600080fd5b50565b61144a80620002606000396000f3fe60806040526004361061007b5760003560e01c8063d235407b1161004e578063d235407b146100fa578063e4fc6b6d14610138578063f4b7095b1461014f578063fbbf93a01461017a5761007b565b806324fd7918146100805780632afcf48014610097578063997df39a146100b3578063c3b7a80f146100e3575b600080fd5b34801561008c57600080fd5b506100956101aa565b005b6100b160048036038101906100ac9190610afb565b61025e565b005b6100cd60048036038101906100c89190610aba565b61030f565b6040516100da91906110bd565b60405180910390f35b3480156100ef57600080fd5b506100f8610430565b005b34801561010657600080fd5b50610121600480360381019061011c9190610afb565b6104dd565b60405161012f929190610f0a565b60405180910390f35b34801561014457600080fd5b5061014d61060a565b005b34801561015b57600080fd5b5061016461069a565b6040516101719190610f9b565b60405180910390f35b34801561018657600080fd5b5061018f6107d9565b6040516101a196959493929190610f3a565b60405180910390f35b60008054906101000a900473ffffffffffffffffffffffffffffffffffffffff1673ffffffffffffffffffffffffffffffffffffffff163373ffffffffffffffffffffffffffffffffffffffff1614610238576040517f08c379a000000000000000000000000000000000000000000000000000000000815260040161022f9061101d565b60405180910390fd5b6001600760016101000a81548160ff02191690831515021790555061025b61069a565b50565b60035481106102a2576040517f08c379a00000000000000000000000000000000000000000000000000000000081526004016102999061109d565b60405180910390fd5b346009600083815260200190815260200160002060020160003373ffffffffffffffffffffffffffffffffffffffff1673ffffffffffffffffffffffffffffffffffffffff16815260200190815260200160002060008282546103059190611204565b9250508190555050565b6000600154341015610356576040517f08c379a000000000000000000000000000000000000000000000000000000000815260040161034d9061105d565b60405180910390fd5b6002546003541061039c576040517f08c379a000000000000000000000000000000000000000000000000000000000815260040161039390610ffd565b60405180910390fd5b600060096000600360008154809291906103b590611316565b9190505581526020019081526020016000209050338160000160006101000a81548173ffffffffffffffffffffffffffffffffffffffff021916908373ffffffffffffffffffffffffffffffffffffffff1602179055508281600101908051906020019061042492919061084f565b50600354915050919050565b600560009054906101000a900473ffffffffffffffffffffffffffffffffffffffff1673ffffffffffffffffffffffffffffffffffffffff163373ffffffffffffffffffffffffffffffffffffffff16146104c0576040517f08c379a00000000000000000000000000000000000000000000000000000000081526004016104b790610fbd565b60405180910390fd5b6001600760006101000a81548160ff021916908315150217905550565b600060606009600084815260200190815260200160002060000160009054906101000a900473ffffffffffffffffffffffffffffffffffffffff166009600085815260200190815260200160002060010180805480602002602001604051908101604052809291908181526020016000905b828210156105fb57838290600052602060002001805461056e906112e4565b80601f016020809104026020016040519081016040528092919081815260200182805461059a906112e4565b80156105e75780601f106105bc576101008083540402835291602001916105e7565b820191906000526020600020905b8154815290600101906020018083116105ca57829003601f168201915b50505050508152602001906001019061054f565b50505050905091509150915091565b60008054906101000a900473ffffffffffffffffffffffffffffffffffffffff1673ffffffffffffffffffffffffffffffffffffffff163373ffffffffffffffffffffffffffffffffffffffff1614610698576040517f08c379a000000000000000000000000000000000000000000000000000000000815260040161068f90610fdd565b60405180910390fd5b565b60606001600760016101000a81548160ff02191690831515021790556106f5576040517f08c379a00000000000000000000000000000000000000000000000000000000081526004016106ec9061103d565b60405180910390fd5b60008054906101000a900473ffffffffffffffffffffffffffffffffffffffff1673ffffffffffffffffffffffffffffffffffffffff163373ffffffffffffffffffffffffffffffffffffffff1614610783576040517f08c379a000000000000000000000000000000000000000000000000000000000815260040161077a9061107d565b60405180910390fd5b60088054806020026020016040519081016040528092919081815260200182805480156107cf57602002820191906000526020600020905b8154815260200190600101908083116107bb575b5050505050905090565b600080600080600080600560009054906101000a900473ffffffffffffffffffffffffffffffffffffffff16600154600254600760009054906101000a900460ff16600760019054906101000a900460ff16600760029054906101000a900460ff16955095509550955095509550909192939495565b82805482825590600052602060002090810192821561089e579160200282015b8281111561089d57825182908051906020019061088d9291906108af565b509160200191906001019061086f565b5b5090506108ab9190610935565b5090565b8280546108bb906112e4565b90600052602060002090601f0160209004810192826108dd5760008555610924565b82601f106108f657805160ff1916838001178555610924565b82800160010185558215610924579182015b82811115610923578251825591602001919060010190610908565b5b5090506109319190610959565b5090565b5b80821115610955576000818161094c9190610976565b50600101610936565b5090565b5b8082111561097257600081600090555060010161095a565b5090565b508054610982906112e4565b6000825580601f1061099457506109b3565b601f0160209004906000526020600020908101906109b29190610959565b5b50565b60006109c96109c484611109565b6110d8565b9050808382526020820190508260005b85811015610a0957813585016109ef8882610a7b565b8452602084019350602083019250506001810190506109d9565b5050509392505050565b6000610a26610a2184611135565b6110d8565b905082815260208101848484011115610a3e57600080fd5b610a498482856112a2565b509392505050565b600082601f830112610a6257600080fd5b8135610a728482602086016109b6565b91505092915050565b600082601f830112610a8c57600080fd5b8135610a9c848260208601610a13565b91505092915050565b600081359050610ab4816113fd565b92915050565b600060208284031215610acc57600080fd5b600082013567ffffffffffffffff811115610ae657600080fd5b610af284828501610a51565b91505092915050565b600060208284031215610b0d57600080fd5b6000610b1b84828501610aa5565b91505092915050565b6000610b308383610c41565b905092915050565b6000610b448383610eec565b60208301905092915050565b610b598161125a565b82525050565b6000610b6a82611185565b610b7481856111c0565b935083602082028501610b8685611165565b8060005b85811015610bc25784840389528151610ba38582610b24565b9450610bae836111a6565b925060208a01995050600181019050610b8a565b50829750879550505050505092915050565b6000610bdf82611190565b610be981856111d1565b9350610bf483611175565b8060005b83811015610c25578151610c0c8882610b38565b9750610c17836111b3565b925050600181019050610bf8565b5085935050505092915050565b610c3b8161126c565b82525050565b6000610c4c8261119b565b610c5681856111e2565b9350610c668185602086016112b1565b610c6f816113ec565b840191505092915050565b6000610c876023836111f3565b91507f6f6e6c79206d6f64657261746f722063616e20737461727420746865206c656160008301527f67756500000000000000000000000000000000000000000000000000000000006020830152604082019050919050565b6000610ced6027836111f3565b91507f6f6e6c79206f7267616e697a6174696f6e2063616e206469737472696275746560008301527f207072697a6573000000000000000000000000000000000000000000000000006020830152604082019050919050565b6000610d536015836111f3565b91507f4d6178696d756d206c696d6974207265616368656400000000000000000000006000830152602082019050919050565b6000610d936024836111f3565b91507f6f6e6c79206f7267616e697a6174696f6e2063616e20656e6420746865206c6560008301527f61677565000000000000000000000000000000000000000000000000000000006020830152604082019050919050565b6000610df96016836111f3565b91507f7468652067616d6520686173206e6f7420656e646564000000000000000000006000830152602082019050919050565b6000610e396016836111f3565b91507f496e73756666696369656e7420656e74727920666565000000000000000000006000830152602082019050919050565b6000610e796020836111f3565b91507f6f6e6c79206f7267616e697a6174696f6e206765742074686520706f696e74736000830152602082019050919050565b6000610eb96012836111f3565b91507f496e76616c69642070726f6a65637420696400000000000000000000000000006000830152602082019050919050565b610ef581611298565b82525050565b610f0481611298565b82525050565b6000604082019050610f1f6000830185610b50565b8181036020830152610f318184610b5f565b90509392505050565b600060c082019050610f4f6000830189610b50565b610f5c6020830188610efb565b610f696040830187610efb565b610f766060830186610c32565b610f836080830185610c32565b610f9060a0830184610c32565b979650505050505050565b60006020820190508181036000830152610fb58184610bd4565b905092915050565b60006020820190508181036000830152610fd681610c7a565b9050919050565b60006020820190508181036000830152610ff681610ce0565b9050919050565b6000602082019050818103600083015261101681610d46565b9050919050565b6000602082019050818103600083015261103681610d86565b9050919050565b6000602082019050818103600083015261105681610dec565b9050919050565b6000602082019050818103600083015261107681610e2c565b9050919050565b6000602082019050818103600083015261109681610e6c565b9050919050565b600060208201905081810360008301526110b681610eac565b9050919050565b60006020820190506110d26000830184610efb565b92915050565b6000604051905081810181811067ffffffffffffffff821117156110ff576110fe6113bd565b5b8060405250919050565b600067ffffffffffffffff821115611124576111236113bd565b5b602082029050602081019050919050565b600067ffffffffffffffff8211156111505761114f6113bd565b5b601f19601f8301169050602081019050919050565b6000819050602082019050919050565b6000819050602082019050919050565b600081519050919050565b600081519050919050565b600081519050919050565b6000602082019050919050565b6000602082019050919050565b600082825260208201905092915050565b600082825260208201905092915050565b600082825260208201905092915050565b600082825260208201905092915050565b600061120f82611298565b915061121a83611298565b9250827fffffffffffffffffffffffffffffffffffffffffffffffffffffffffffffffff0382111561124f5761124e61135f565b5b828201905092915050565b600061126582611278565b9050919050565b60008115159050919050565b600073ffffffffffffffffffffffffffffffffffffffff82169050919050565b6000819050919050565b82818337600083830152505050565b60005b838110156112cf5780820151818401526020810190506112b4565b838111156112de576000848401525b50505050565b600060028204905060018216806112fc57607f821691505b602082108114156113105761130f61138e565b5b50919050565b600061132182611298565b91507fffffffffffffffffffffffffffffffffffffffffffffffffffffffffffffffff8214156113545761135361135f565b5b600182019050919050565b7f4e487b7100000000000000000000000000000000000000000000000000000000600052601160045260246000fd5b7f4e487b7100000000000000000000000000000000000000000000000000000000600052602260045260246000fd5b7f4e487b7100000000000000000000000000000000000000000000000000000000600052604160045260246000fd5b6000601f19601f8301169050919050565b61140681611298565b811461141157600080fd5b5056fea264697066735822122093002d03f38bc8dfe409a3e7407fd88f82e9064906c57bb873a98a6e710bb79f64736f6c63430008000033",
  "immutableReferences": {},
  "source": "// SPDX-License-Identifier: MIT\r\npragma solidity >=0.8.0;\r\n\r\ncontract Knitts{\r\n    //organization address here\r\n    address organization = 0x79e6234Ff4E7DB556F916FeBcE9e52a68D0B8879;\r\n    address[] moderators;\r\n    mapping(address => uint) deposits;\r\n    address[] Leagues;\r\n    uint maxDescLength = 1000;\r\n    function addModerator() public payable{\r\n        require(msg.value > 0, \"You should deposit some amount\");\r\n        moderators.push(msg.sender);\r\n        deposits[msg.sender] = msg.value;\r\n    }\r\n\r\n    function depositMore() public payable{\r\n        require(msg.value >= 0, \"You need to deposit some amount\");\r\n        deposits[msg.sender] += msg.value;\r\n    }\r\n\r\n    function createLeague(uint _entryFee, uint _numPlayers, uint _duration) public returns(address[] memory){\r\n        require(_entryFee * _numPlayers <= deposits[msg.sender], \"Insufficient deposit\");\r\n        League newLeague = new League(msg.sender, _entryFee, _numPlayers, _duration);\r\n        Leagues.push(address(newLeague));\r\n        return Leagues;\r\n    }\r\n\r\n    function getBalance(address _moderator) public view returns (uint){\r\n        return deposits[_moderator];\r\n    }\r\n\r\n    function getDetails() public view returns (address [] memory, address [] memory){\r\n        return (moderators, Leagues);\r\n    }\r\n    \r\n}\r\n\r\ncontract League{\r\n    address organization = 0x79e6234Ff4E7DB556F916FeBcE9e52a68D0B8879;\r\n    uint entryFee;\r\n    uint maxParticipants;\r\n    uint numProjects;\r\n    address [] participants;\r\n    address moderator;\r\n    uint duration;\r\n    bool started;\r\n    bool ended;\r\n    bool distributed;\r\n    uint [] points;\r\n    struct project{\r\n        address owner;\r\n        bytes[] description;\r\n        mapping(address => uint)investments;\r\n    }\r\n\r\n    mapping(uint => project) projects;\r\n\r\n    constructor(address _moderator, uint _entryFee, uint _maxParticipants, uint _duration){\r\n        entryFee = _entryFee;\r\n        maxParticipants = _maxParticipants;\r\n        moderator = _moderator;\r\n        duration = _duration;\r\n        numProjects = 0;\r\n        started=false;\r\n        ended=false;\r\n        distributed=false;\r\n    }\r\n\r\n    function submitIdea(bytes[] memory description) public payable returns(uint){\r\n        require(msg.value >= entryFee, \"Insufficient entry fee\");\r\n        require(numProjects < maxParticipants, \"Maximum limit reached\");\r\n        project storage p = projects[numProjects++];\r\n        p.owner = msg.sender;\r\n        p.description = description;\r\n        return numProjects;\r\n    }\r\n\r\n    function invest(uint projectId) public payable{\r\n        require(projectId < numProjects, \"Invalid project id\");\r\n        projects[projectId].investments[msg.sender] += msg.value;\r\n    }\r\n\r\n    function startLeague() public{\r\n        require(msg.sender == moderator, \"only moderator can start the league\");\r\n        started=true;\r\n    }\r\n\r\n    function endLeague() public{\r\n        require(msg.sender == organization, \"only organization can end the league\");\r\n        ended=true;\r\n        getPoints();\r\n    }\r\n\r\n    function getPoints() public returns(uint[] memory){\r\n        require(ended = true, \"the game has not ended\");\r\n        require(msg.sender == organization, \"only organization get the points\");\r\n        //write quadratic funding code here\r\n        return points;\r\n    }\r\n\r\n    function distribute() public{\r\n        require(msg.sender == organization, \"only organization can distribute prizes\");\r\n        //write the quadratic function\r\n    }\r\n\r\n    function getDetails() public view returns(\r\n        address,//moderator\r\n        uint,//entry fee\r\n        uint,//maxParticipants\r\n        bool, //started\r\n        bool, //ended\r\n        bool //distributed\r\n    ){\r\n        return (moderator, entryFee, maxParticipants, started, ended, distributed);\r\n    }\r\n\r\n    function submissionDetails(uint projectId) public view returns(\r\n        address, // project owner\r\n        bytes[] memory // description\r\n    )  {\r\n        return (projects[projectId].owner, projects[projectId].description);\r\n    }\r\n}",
  "sourcePath": "E:\\projects\\knitts\\back-end\\contracts\\League.sol",
  "compiler": {
    "name": "solc",
    "version": "0.8.0+commit.c7dfd78e.Emscripten.clang"
  },
  "schemaVersion": "3.4.3",
  "updatedAt": "2021-09-18T09:34:34.840Z",
  "networkType": "ethereum",
  "devdoc": {
    "kind": "dev",
    "methods": {},
    "version": 1
  },
  "userdoc": {
    "kind": "user",
    "methods": {},
    "version": 1
  }
}