{
  "contractName": "League",
  "abi": [
    {
      "inputs": [
        {
          "internalType": "address",
          "name": "_moderator",
          "type": "address"
        },
        {
          "internalType": "uint256",
          "name": "_entryFee",
          "type": "uint256"
        },
        {
          "internalType": "uint256",
          "name": "_maxParticipants",
          "type": "uint256"
        },
        {
          "internalType": "uint256",
          "name": "_duration",
          "type": "uint256"
        }
      ],
      "stateMutability": "nonpayable",
      "type": "constructor"
    },
    {
      "inputs": [
        {
          "internalType": "bytes[20][]",
          "name": "description",
          "type": "bytes[20][]"
        }
      ],
      "name": "submitIdea",
      "outputs": [
        {
          "internalType": "uint256",
          "name": "",
          "type": "uint256"
        }
      ],
      "stateMutability": "payable",
      "type": "function",
      "payable": true
    },
    {
      "inputs": [
        {
          "internalType": "uint256",
          "name": "projectId",
          "type": "uint256"
        }
      ],
      "name": "invest",
      "outputs": [],
      "stateMutability": "payable",
      "type": "function",
      "payable": true
    },
    {
      "inputs": [],
      "name": "startLeague",
      "outputs": [],
      "stateMutability": "nonpayable",
      "type": "function"
    },
    {
      "inputs": [],
      "name": "endLeague",
      "outputs": [],
      "stateMutability": "nonpayable",
      "type": "function"
    },
    {
      "inputs": [],
      "name": "getPoints",
      "outputs": [
        {
          "internalType": "uint256[]",
          "name": "",
          "type": "uint256[]"
        }
      ],
      "stateMutability": "nonpayable",
      "type": "function"
    },
    {
      "inputs": [],
      "name": "distribute",
      "outputs": [],
      "stateMutability": "nonpayable",
      "type": "function"
    },
    {
      "inputs": [],
      "name": "getDetails",
      "outputs": [
        {
          "internalType": "address",
          "name": "",
          "type": "address"
        },
        {
          "internalType": "uint256",
          "name": "",
          "type": "uint256"
        },
        {
          "internalType": "uint256",
          "name": "",
          "type": "uint256"
        },
        {
          "internalType": "bool",
          "name": "",
          "type": "bool"
        },
        {
          "internalType": "bool",
          "name": "",
          "type": "bool"
        },
        {
          "internalType": "bool",
          "name": "",
          "type": "bool"
        }
      ],
      "stateMutability": "view",
      "type": "function",
      "constant": true
    },
    {
      "inputs": [
        {
          "internalType": "uint256",
          "name": "projectId",
          "type": "uint256"
        }
      ],
      "name": "submissionDetails",
      "outputs": [
        {
          "internalType": "address",
          "name": "",
          "type": "address"
        },
        {
          "internalType": "bytes[20][]",
          "name": "",
          "type": "bytes[20][]"
        }
      ],
      "stateMutability": "view",
      "type": "function",
      "constant": true
    }
  ],
  "bytecode": "0x60806040527379e6234ff4e7db556f916febce9e52a68d0b88796000806101000a81548173ffffffffffffffffffffffffffffffffffffffff021916908373ffffffffffffffffffffffffffffffffffffffff1602179055503480156200006557600080fd5b50604051620018c2380380620018c283398181016040528101906200008b919062000172565b826001819055508160028190555083600560006101000a81548173ffffffffffffffffffffffffffffffffffffffff021916908373ffffffffffffffffffffffffffffffffffffffff1602179055508060068190555060006003819055506000600760006101000a81548160ff0219169083151502179055506000600760016101000a81548160ff0219169083151502179055506000600760026101000a81548160ff0219169083151502179055505050505062000250565b60008151905062000155816200021c565b92915050565b6000815190506200016c8162000236565b92915050565b600080600080608085870312156200018957600080fd5b6000620001998782880162000144565b9450506020620001ac878288016200015b565b9350506040620001bf878288016200015b565b9250506060620001d2878288016200015b565b91505092959194509250565b6000620001eb82620001f2565b9050919050565b600073ffffffffffffffffffffffffffffffffffffffff82169050919050565b6000819050919050565b6200022781620001de565b81146200023357600080fd5b50565b620002418162000212565b81146200024d57600080fd5b50565b61166280620002606000396000f3fe60806040526004361061007b5760003560e01c8063d235407b1161004e578063d235407b146100fa578063e4fc6b6d14610138578063f4b7095b1461014f578063fbbf93a01461017a5761007b565b806324fd7918146100805780632afcf4801461009757806341aaf46d146100b3578063c3b7a80f146100e3575b600080fd5b34801561008c57600080fd5b506100956101aa565b005b6100b160048036038101906100ac9190610c37565b61025e565b005b6100cd60048036038101906100c89190610bf6565b61030f565b6040516100da9190611282565b60405180910390f35b3480156100ef57600080fd5b506100f8610430565b005b34801561010657600080fd5b50610121600480360381019061011c9190610c37565b6104dd565b60405161012f9291906110cf565b60405180910390f35b34801561014457600080fd5b5061014d610643565b005b34801561015b57600080fd5b506101646106d3565b6040516101719190611160565b60405180910390f35b34801561018657600080fd5b5061018f610812565b6040516101a1969594939291906110ff565b60405180910390f35b60008054906101000a900473ffffffffffffffffffffffffffffffffffffffff1673ffffffffffffffffffffffffffffffffffffffff163373ffffffffffffffffffffffffffffffffffffffff1614610238576040517f08c379a000000000000000000000000000000000000000000000000000000000815260040161022f906111e2565b60405180910390fd5b6001600760016101000a81548160ff02191690831515021790555061025b6106d3565b50565b60035481106102a2576040517f08c379a000000000000000000000000000000000000000000000000000000000815260040161029990611262565b60405180910390fd5b346009600083815260200190815260200160002060020160003373ffffffffffffffffffffffffffffffffffffffff1673ffffffffffffffffffffffffffffffffffffffff1681526020019081526020016000206000828254610305919061141c565b9250508190555050565b6000600154341015610356576040517f08c379a000000000000000000000000000000000000000000000000000000000815260040161034d90611222565b60405180910390fd5b6002546003541061039c576040517f08c379a0000000000000000000000000000000000000000000000000000000008152600401610393906111c2565b60405180910390fd5b600060096000600360008154809291906103b59061152e565b9190505581526020019081526020016000209050338160000160006101000a81548173ffffffffffffffffffffffffffffffffffffffff021916908373ffffffffffffffffffffffffffffffffffffffff16021790555082816001019080519060200190610424929190610888565b50600354915050919050565b600560009054906101000a900473ffffffffffffffffffffffffffffffffffffffff1673ffffffffffffffffffffffffffffffffffffffff163373ffffffffffffffffffffffffffffffffffffffff16146104c0576040517f08c379a00000000000000000000000000000000000000000000000000000000081526004016104b790611182565b60405180910390fd5b6001600760006101000a81548160ff021916908315150217905550565b600060606009600084815260200190815260200160002060000160009054906101000a900473ffffffffffffffffffffffffffffffffffffffff166009600085815260200190815260200160002060010180805480602002602001604051908101604052809291908181526020016000905b828210156106345783829060005260206000209060140201601480602002604051908101604052809291906000905b82821015610621578382018054610594906114fc565b80601f01602080910402602001604051908101604052809291908181526020018280546105c0906114fc565b801561060d5780601f106105e25761010080835404028352916020019161060d565b820191906000526020600020905b8154815290600101906020018083116105f057829003601f168201915b50505050508152602001906001019061057e565b505050508152602001906001019061054f565b50505050905091509150915091565b60008054906101000a900473ffffffffffffffffffffffffffffffffffffffff1673ffffffffffffffffffffffffffffffffffffffff163373ffffffffffffffffffffffffffffffffffffffff16146106d1576040517f08c379a00000000000000000000000000000000000000000000000000000000081526004016106c8906111a2565b60405180910390fd5b565b60606001600760016101000a81548160ff021916908315150217905561072e576040517f08c379a000000000000000000000000000000000000000000000000000000000815260040161072590611202565b60405180910390fd5b60008054906101000a900473ffffffffffffffffffffffffffffffffffffffff1673ffffffffffffffffffffffffffffffffffffffff163373ffffffffffffffffffffffffffffffffffffffff16146107bc576040517f08c379a00000000000000000000000000000000000000000000000000000000081526004016107b390611242565b60405180910390fd5b600880548060200260200160405190810160405280929190818152602001828054801561080857602002820191906000526020600020905b8154815260200190600101908083116107f4575b5050505050905090565b600080600080600080600560009054906101000a900473ffffffffffffffffffffffffffffffffffffffff16600154600254600760009054906101000a900460ff16600760019054906101000a900460ff16600760029054906101000a900460ff16955095509550955095509550909192939495565b8280548282559060005260206000209060140281019282156108d5579160200282015b828111156108d4578251829060146108c49291906108e6565b50916020019190601401906108ab565b5b5090506108e29190610939565b5090565b8260148101928215610928579160200282015b8281111561092757825182908051906020019061091792919061095d565b50916020019190600101906108f9565b5b50905061093591906109e3565b5090565b5b8082111561095957600081816109509190610a07565b5060140161093a565b5090565b828054610969906114fc565b90600052602060002090601f01602090048101928261098b57600085556109d2565b82601f106109a457805160ff19168380011785556109d2565b828001600101855582156109d2579182015b828111156109d15782518255916020019190600101906109b6565b5b5090506109df9190610a1a565b5090565b5b80821115610a0357600081816109fa9190610a37565b506001016109e4565b5090565b508060140190610a1791906109e3565b50565b5b80821115610a33576000816000905550600101610a1b565b5090565b508054610a43906114fc565b6000825580601f10610a555750610a74565b601f016020900490600052602060002090810190610a739190610a1a565b5b50565b6000610a8a610a85846112ce565b61129d565b9050808382526020820190508260005b85811015610aca5781358501610ab08882610b90565b845260208401935060208301925050600181019050610a9a565b5050509392505050565b6000610ae7610ae2846112fa565b61129d565b9050808260005b85811015610b1e5781358501610b048882610bb7565b845260208401935060208301925050600181019050610aee565b5050509392505050565b6000610b3b610b3684611320565b61129d565b905082815260208101848484011115610b5357600080fd5b610b5e8482856114ba565b509392505050565b600082601f830112610b7757600080fd5b8135610b87848260208601610a77565b91505092915050565b600082601f830112610ba157600080fd5b6014610bae848285610ad4565b91505092915050565b600082601f830112610bc857600080fd5b8135610bd8848260208601610b28565b91505092915050565b600081359050610bf081611615565b92915050565b600060208284031215610c0857600080fd5b600082013567ffffffffffffffff811115610c2257600080fd5b610c2e84828501610b66565b91505092915050565b600060208284031215610c4957600080fd5b6000610c5784828501610be1565b91505092915050565b6000610c6c8383610d24565b905092915050565b6000610c808383610e06565b905092915050565b6000610c9483836110b1565b60208301905092915050565b610ca981611472565b82525050565b6000610cba8261137a565b610cc481856113cd565b935083602082028501610cd685611350565b8060005b85811015610d125784840389528151610cf38582610c60565b9450610cfe836113a6565b925060208a01995050600181019050610cda565b50829750879550505050505092915050565b6000610d2f82611385565b610d3981856113de565b935083602082028501610d4b85611360565b8060005b85811015610d875784840389528151610d688582610c74565b9450610d73836113b3565b925060208a01995050600181019050610d4f565b50829750879550505050505092915050565b6000610da482611390565b610dae81856113e9565b9350610db98361136a565b8060005b83811015610dea578151610dd18882610c88565b9750610ddc836113c0565b925050600181019050610dbd565b5085935050505092915050565b610e0081611484565b82525050565b6000610e118261139b565b610e1b81856113fa565b9350610e2b8185602086016114c9565b610e3481611604565b840191505092915050565b6000610e4c60238361140b565b91507f6f6e6c79206d6f64657261746f722063616e20737461727420746865206c656160008301527f67756500000000000000000000000000000000000000000000000000000000006020830152604082019050919050565b6000610eb260278361140b565b91507f6f6e6c79206f7267616e697a6174696f6e2063616e206469737472696275746560008301527f207072697a6573000000000000000000000000000000000000000000000000006020830152604082019050919050565b6000610f1860158361140b565b91507f4d6178696d756d206c696d6974207265616368656400000000000000000000006000830152602082019050919050565b6000610f5860248361140b565b91507f6f6e6c79206f7267616e697a6174696f6e2063616e20656e6420746865206c6560008301527f61677565000000000000000000000000000000000000000000000000000000006020830152604082019050919050565b6000610fbe60168361140b565b91507f7468652067616d6520686173206e6f7420656e646564000000000000000000006000830152602082019050919050565b6000610ffe60168361140b565b91507f496e73756666696369656e7420656e74727920666565000000000000000000006000830152602082019050919050565b600061103e60208361140b565b91507f6f6e6c79206f7267616e697a6174696f6e206765742074686520706f696e74736000830152602082019050919050565b600061107e60128361140b565b91507f496e76616c69642070726f6a65637420696400000000000000000000000000006000830152602082019050919050565b6110ba816114b0565b82525050565b6110c9816114b0565b82525050565b60006040820190506110e46000830185610ca0565b81810360208301526110f68184610caf565b90509392505050565b600060c0820190506111146000830189610ca0565b61112160208301886110c0565b61112e60408301876110c0565b61113b6060830186610df7565b6111486080830185610df7565b61115560a0830184610df7565b979650505050505050565b6000602082019050818103600083015261117a8184610d99565b905092915050565b6000602082019050818103600083015261119b81610e3f565b9050919050565b600060208201905081810360008301526111bb81610ea5565b9050919050565b600060208201905081810360008301526111db81610f0b565b9050919050565b600060208201905081810360008301526111fb81610f4b565b9050919050565b6000602082019050818103600083015261121b81610fb1565b9050919050565b6000602082019050818103600083015261123b81610ff1565b9050919050565b6000602082019050818103600083015261125b81611031565b9050919050565b6000602082019050818103600083015261127b81611071565b9050919050565b600060208201905061129760008301846110c0565b92915050565b6000604051905081810181811067ffffffffffffffff821117156112c4576112c36115d5565b5b8060405250919050565b600067ffffffffffffffff8211156112e9576112e86115d5565b5b602082029050602081019050919050565b600067ffffffffffffffff821115611315576113146115d5565b5b602082029050919050565b600067ffffffffffffffff82111561133b5761133a6115d5565b5b601f19601f8301169050602081019050919050565b6000819050602082019050919050565b6000819050919050565b6000819050602082019050919050565b600081519050919050565b600060149050919050565b600081519050919050565b600081519050919050565b6000602082019050919050565b6000602082019050919050565b6000602082019050919050565b600082825260208201905092915050565b600081905092915050565b600082825260208201905092915050565b600082825260208201905092915050565b600082825260208201905092915050565b6000611427826114b0565b9150611432836114b0565b9250827fffffffffffffffffffffffffffffffffffffffffffffffffffffffffffffffff0382111561146757611466611577565b5b828201905092915050565b600061147d82611490565b9050919050565b60008115159050919050565b600073ffffffffffffffffffffffffffffffffffffffff82169050919050565b6000819050919050565b82818337600083830152505050565b60005b838110156114e75780820151818401526020810190506114cc565b838111156114f6576000848401525b50505050565b6000600282049050600182168061151457607f821691505b60208210811415611528576115276115a6565b5b50919050565b6000611539826114b0565b91507fffffffffffffffffffffffffffffffffffffffffffffffffffffffffffffffff82141561156c5761156b611577565b5b600182019050919050565b7f4e487b7100000000000000000000000000000000000000000000000000000000600052601160045260246000fd5b7f4e487b7100000000000000000000000000000000000000000000000000000000600052602260045260246000fd5b7f4e487b7100000000000000000000000000000000000000000000000000000000600052604160045260246000fd5b6000601f19601f8301169050919050565b61161e816114b0565b811461162957600080fd5b5056fea2646970667358221220a1692e407ee6c6752dc733098df2bd31f5240637ab7d6f1441a30c9bb290fdcb64736f6c63430008000033",
  "immutableReferences": {},
  "source": "// SPDX-License-Identifier: MIT\r\npragma solidity >=0.8.0;\r\n\r\ncontract Knitts{\r\n    //organization address here\r\n    address organization = 0x79e6234Ff4E7DB556F916FeBcE9e52a68D0B8879;\r\n    address[] moderators;\r\n    mapping(address => uint) deposits;\r\n    address[] Leagues;\r\n    uint maxDescLength = 1000;\r\n    function addModerator() public payable{\r\n        require(msg.value > 0, \"You should deposit some amount\");\r\n        moderators.push(msg.sender);\r\n        deposits[msg.sender] = msg.value;\r\n    }\r\n\r\n    function depositMore() public payable{\r\n        require(msg.value >= 0, \"You need to deposit some amount\");\r\n        deposits[msg.sender] += msg.value;\r\n    }\r\n\r\n    function createLeague(uint _entryFee, uint _numPlayers, uint _duration) public returns(address[] memory){\r\n        require(_entryFee * _numPlayers <= deposits[msg.sender], \"Insufficient deposit\");\r\n        League newLeague = new League(msg.sender, _entryFee, _numPlayers, _duration);\r\n        Leagues.push(address(newLeague));\r\n        return Leagues;\r\n    }\r\n\r\n    function getBalance(address _moderator) public view returns (uint){\r\n        return deposits[_moderator];\r\n    }\r\n\r\n    function getDetails() public view returns (address [] memory, address [] memory){\r\n        return (moderators, Leagues);\r\n    }\r\n    \r\n}\r\n\r\ncontract League{\r\n    address organization = 0x79e6234Ff4E7DB556F916FeBcE9e52a68D0B8879;\r\n    uint entryFee;\r\n    uint maxParticipants;\r\n    uint numProjects;\r\n    address [] participants;\r\n    address moderator;\r\n    uint duration;\r\n    bool started;\r\n    bool ended;\r\n    bool distributed;\r\n    uint [] points;\r\n    struct project{\r\n        address owner;\r\n        bytes[20][] description;\r\n        mapping(address => uint)investments;\r\n    }\r\n\r\n    mapping(uint => project) projects;\r\n\r\n    constructor(address _moderator, uint _entryFee, uint _maxParticipants, uint _duration){\r\n        entryFee = _entryFee;\r\n        maxParticipants = _maxParticipants;\r\n        moderator = _moderator;\r\n        duration = _duration;\r\n        numProjects = 0;\r\n        started=false;\r\n        ended=false;\r\n        distributed=false;\r\n    }\r\n\r\n    function submitIdea(bytes[20][] memory description) public payable returns(uint){\r\n        require(msg.value >= entryFee, \"Insufficient entry fee\");\r\n        require(numProjects < maxParticipants, \"Maximum limit reached\");\r\n        project storage p = projects[numProjects++];\r\n        p.owner = msg.sender;\r\n        p.description = description;\r\n        return numProjects;\r\n    }\r\n\r\n    function invest(uint projectId) public payable{\r\n        require(projectId < numProjects, \"Invalid project id\");\r\n        projects[projectId].investments[msg.sender] += msg.value;\r\n    }\r\n\r\n    function startLeague() public{\r\n        require(msg.sender == moderator, \"only moderator can start the league\");\r\n        started=true;\r\n    }\r\n\r\n    function endLeague() public{\r\n        require(msg.sender == organization, \"only organization can end the league\");\r\n        ended=true;\r\n        getPoints();\r\n    }\r\n\r\n    function getPoints() public returns(uint[] memory){\r\n        require(ended = true, \"the game has not ended\");\r\n        require(msg.sender == organization, \"only organization get the points\");\r\n        //write quadratic funding code here\r\n        return points;\r\n    }\r\n\r\n    function distribute() public{\r\n        require(msg.sender == organization, \"only organization can distribute prizes\");\r\n        //write the quadratic function\r\n    }\r\n\r\n    function getDetails() public view returns(\r\n        address,//moderator\r\n        uint,//entry fee\r\n        uint,//maxParticipants\r\n        bool, //started\r\n        bool, //ended\r\n        bool //distributed\r\n    ){\r\n        return (moderator, entryFee, maxParticipants, started, ended, distributed);\r\n    }\r\n\r\n    function submissionDetails(uint projectId) public view returns(\r\n        address, // project owner\r\n        bytes[20][] memory // description\r\n    )  {\r\n        return (projects[projectId].owner, projects[projectId].description);\r\n    }\r\n}",
  "sourcePath": "E:\\projects\\knitts\\back-end\\contracts\\League.sol",
  "compiler": {
    "name": "solc",
    "version": "0.8.0+commit.c7dfd78e.Emscripten.clang"
  },
  "schemaVersion": "3.4.3",
  "updatedAt": "2021-09-18T10:01:51.613Z",
  "networkType": "ethereum",
  "devdoc": {
    "kind": "dev",
    "methods": {},
    "version": 1
  },
  "userdoc": {
    "kind": "user",
    "methods": {},
    "version": 1
  }
}