{
  "contractName": "League",
  "abi": [
    {
      "inputs": [
        {
          "internalType": "address",
          "name": "_moderator",
          "type": "address"
        },
        {
          "internalType": "uint256",
          "name": "_entryFee",
          "type": "uint256"
        },
        {
          "internalType": "uint256",
          "name": "_maxParticipants",
          "type": "uint256"
        },
        {
          "internalType": "uint256",
          "name": "_duration",
          "type": "uint256"
        }
      ],
      "stateMutability": "nonpayable",
      "type": "constructor"
    },
    {
      "inputs": [
        {
          "internalType": "bytes[20][]",
          "name": "description",
          "type": "bytes[20][]"
        }
      ],
      "name": "submitIdea",
      "outputs": [
        {
          "internalType": "uint256",
          "name": "",
          "type": "uint256"
        }
      ],
      "stateMutability": "payable",
      "type": "function",
      "payable": true
    },
    {
      "inputs": [
        {
          "internalType": "uint256",
          "name": "projectId",
          "type": "uint256"
        }
      ],
      "name": "invest",
      "outputs": [],
      "stateMutability": "payable",
      "type": "function",
      "payable": true
    },
    {
      "inputs": [],
      "name": "startLeague",
      "outputs": [],
      "stateMutability": "nonpayable",
      "type": "function"
    },
    {
      "inputs": [],
      "name": "endLeague",
      "outputs": [
        {
          "internalType": "uint256[]",
          "name": "",
          "type": "uint256[]"
        }
      ],
      "stateMutability": "nonpayable",
      "type": "function"
    },
    {
      "inputs": [],
      "name": "distribute",
      "outputs": [],
      "stateMutability": "nonpayable",
      "type": "function"
    },
    {
      "inputs": [],
      "name": "getDetails",
      "outputs": [
        {
          "internalType": "address",
          "name": "",
          "type": "address"
        },
        {
          "internalType": "uint256",
          "name": "",
          "type": "uint256"
        },
        {
          "internalType": "uint256",
          "name": "",
          "type": "uint256"
        },
        {
          "internalType": "bool",
          "name": "",
          "type": "bool"
        },
        {
          "internalType": "bool",
          "name": "",
          "type": "bool"
        },
        {
          "internalType": "bool",
          "name": "",
          "type": "bool"
        }
      ],
      "stateMutability": "view",
      "type": "function",
      "constant": true
    },
    {
      "inputs": [
        {
          "internalType": "uint256",
          "name": "projectId",
          "type": "uint256"
        }
      ],
      "name": "submissionDetails",
      "outputs": [
        {
          "internalType": "address",
          "name": "",
          "type": "address"
        },
        {
          "internalType": "bytes[20][]",
          "name": "",
          "type": "bytes[20][]"
        }
      ],
      "stateMutability": "view",
      "type": "function",
      "constant": true
    },
    {
      "inputs": [
        {
          "internalType": "uint256",
          "name": "num",
          "type": "uint256"
        }
      ],
      "name": "sqrt",
      "outputs": [
        {
          "internalType": "uint256",
          "name": "",
          "type": "uint256"
        }
      ],
      "stateMutability": "pure",
      "type": "function",
      "constant": true
    }
  ],
  "bytecode": "0x60806040523480156200001157600080fd5b50604051620020473803806200204783398181016040528101906200003791906200015e565b826001819055508160028190555083600560006101000a81548173ffffffffffffffffffffffffffffffffffffffff021916908373ffffffffffffffffffffffffffffffffffffffff1602179055508060068190555060006003819055506000600760006101000a81548160ff0219169083151502179055506000600760016101000a81548160ff0219169083151502179055506000600760026101000a81548160ff021916908315150217905550836000806101000a81548173ffffffffffffffffffffffffffffffffffffffff021916908373ffffffffffffffffffffffffffffffffffffffff160217905550505050506200023c565b600081519050620001418162000208565b92915050565b600081519050620001588162000222565b92915050565b600080600080608085870312156200017557600080fd5b6000620001858782880162000130565b9450506020620001988782880162000147565b9350506040620001ab8782880162000147565b9250506060620001be8782880162000147565b91505092959194509250565b6000620001d782620001de565b9050919050565b600073ffffffffffffffffffffffffffffffffffffffff82169050919050565b6000819050919050565b6200021381620001ca565b81146200021f57600080fd5b50565b6200022d81620001fe565b81146200023957600080fd5b50565b611dfb806200024c6000396000f3fe60806040526004361061007b5760003560e01c8063c3b7a80f1161004e578063c3b7a80f14610134578063d235407b1461014b578063e4fc6b6d14610189578063fbbf93a0146101a05761007b565b806324fd7918146100805780632afcf480146100ab57806341aaf46d146100c7578063677342ce146100f7575b600080fd5b34801561008c57600080fd5b506100956101d0565b6040516100a2919061182b565b60405180910390f35b6100c560048036038101906100c09190611342565b6102da565b005b6100e160048036038101906100dc9190611301565b6104ac565b6040516100ee919061192d565b60405180910390f35b34801561010357600080fd5b5061011e60048036038101906101199190611342565b6105cd565b60405161012b919061192d565b60405180910390f35b34801561014057600080fd5b50610149610646565b005b34801561015757600080fd5b50610172600480360381019061016d9190611342565b6106f3565b60405161018092919061179a565b60405180910390f35b34801561019557600080fd5b5061019e610859565b005b3480156101ac57600080fd5b506101b5610c89565b6040516101c7969594939291906117ca565b60405180910390f35b606060008054906101000a900473ffffffffffffffffffffffffffffffffffffffff1673ffffffffffffffffffffffffffffffffffffffff163373ffffffffffffffffffffffffffffffffffffffff1614610260576040517f08c379a0000000000000000000000000000000000000000000000000000000008152600401610257906118ad565b60405180910390fd5b6001600760016101000a81548160ff021916908315150217905550610283610cff565b5060088054806020026020016040519081016040528092919081815260200182805480156102d057602002820191906000526020600020905b8154815260200190600101908083116102bc575b5050505050905090565b600354811061031e576040517f08c379a00000000000000000000000000000000000000000000000000000000081526004016103159061190d565b60405180910390fd5b60006009600083815260200190815260200160002060020160003373ffffffffffffffffffffffffffffffffffffffff1673ffffffffffffffffffffffffffffffffffffffff1681526020019081526020016000205414156103f25760096000828152602001908152602001600020600301339080600181540180825580915050600190039060005260206000200160009091909190916101000a81548173ffffffffffffffffffffffffffffffffffffffff021916908373ffffffffffffffffffffffffffffffffffffffff1602179055505b64e8d4a51000346104039190611b1d565b6009600083815260200190815260200160002060040160008282546104289190611ac7565b9250508190555064e8d4a51000346104409190611b1d565b6009600083815260200190815260200160002060020160003373ffffffffffffffffffffffffffffffffffffffff1673ffffffffffffffffffffffffffffffffffffffff16815260200190815260200160002060008282546104a29190611ac7565b9250508190555050565b60006001543410156104f3576040517f08c379a00000000000000000000000000000000000000000000000000000000081526004016104ea906118ed565b60405180910390fd5b60025460035410610539576040517f08c379a00000000000000000000000000000000000000000000000000000000081526004016105309061188d565b60405180910390fd5b6000600960006003600081548092919061055290611c98565b9190505581526020019081526020016000209050338160000160006101000a81548173ffffffffffffffffffffffffffffffffffffffff021916908373ffffffffffffffffffffffffffffffffffffffff160217905550828160010190805190602001906105c1929190610f46565b50600354915050919050565b60008060019050600083905060008290505b8183101561063b57600283836105f59190611ba8565b6105ff9190611b1d565b8361060a9190611ac7565b90508481826106199190611b4e565b1061062657809150610636565b6001816106339190611ac7565b92505b6105df565b819350505050919050565b600560009054906101000a900473ffffffffffffffffffffffffffffffffffffffff1673ffffffffffffffffffffffffffffffffffffffff163373ffffffffffffffffffffffffffffffffffffffff16146106d6576040517f08c379a00000000000000000000000000000000000000000000000000000000081526004016106cd9061184d565b60405180910390fd5b6001600760006101000a81548160ff021916908315150217905550565b600060606009600084815260200190815260200160002060000160009054906101000a900473ffffffffffffffffffffffffffffffffffffffff166009600085815260200190815260200160002060010180805480602002602001604051908101604052809291908181526020016000905b8282101561084a5783829060005260206000209060140201601480602002604051908101604052809291906000905b828210156108375783820180546107aa90611c66565b80601f01602080910402602001604051908101604052809291908181526020018280546107d690611c66565b80156108235780601f106107f857610100808354040283529160200191610823565b820191906000526020600020905b81548152906001019060200180831161080657829003601f168201915b505050505081526020019060010190610794565b5050505081526020019060010190610765565b50505050905091509150915091565b60008054906101000a900473ffffffffffffffffffffffffffffffffffffffff1673ffffffffffffffffffffffffffffffffffffffff163373ffffffffffffffffffffffffffffffffffffffff16146108e7576040517f08c379a00000000000000000000000000000000000000000000000000000000081526004016108de9061186d565b60405180910390fd5b60004790506000805b60035481101561095f5760088181548110610934577f4e487b7100000000000000000000000000000000000000000000000000000000600052603260045260246000fd5b90600052602060002001548261094a9190611ac7565b9150808061095790611c98565b9150506108f0565b5060005b600354811015610c1b5760006009600083815260200190815260200160002090508060000160009054906101000a900473ffffffffffffffffffffffffffffffffffffffff1673ffffffffffffffffffffffffffffffffffffffff166108fc84600a6109cf9190611b4e565b8660088681548110610a0a577f4e487b7100000000000000000000000000000000000000000000000000000000600052603260045260246000fd5b90600052602060002001546003610a219190611b4e565b610a2b9190611b4e565b610a359190611b1d565b9081150290604051600060405180830381858888f19350505050158015610a60573d6000803e3d6000fd5b5060005b8160030180549050811015610c06576000826003018281548110610ab1577f4e487b7100000000000000000000000000000000000000000000000000000000600052603260045260246000fd5b9060005260206000200160009054906101000a900473ffffffffffffffffffffffffffffffffffffffff1690508073ffffffffffffffffffffffffffffffffffffffff166108fc846004015487600a610b0a9190611b4e565b610b149190611b4e565b8560020160008573ffffffffffffffffffffffffffffffffffffffff1673ffffffffffffffffffffffffffffffffffffffff168152602001908152602001600020548960088981548110610b91577f4e487b7100000000000000000000000000000000000000000000000000000000600052603260045260246000fd5b90600052602060002001546006610ba89190611b4e565b610bb29190611b4e565b610bbc9190611b4e565b610bc69190611b1d565b9081150290604051600060405180830381858888f19350505050158015610bf1573d6000803e3d6000fd5b50508080610bfe90611c98565b915050610a64565b50508080610c1390611c98565b915050610963565b50600560009054906101000a900473ffffffffffffffffffffffffffffffffffffffff1673ffffffffffffffffffffffffffffffffffffffff166108fc479081150290604051600060405180830381858888f19350505050158015610c84573d6000803e3d6000fd5b505050565b600080600080600080600560009054906101000a900473ffffffffffffffffffffffffffffffffffffffff16600154600254600760009054906101000a900460ff16600760019054906101000a900460ff16600760029054906101000a900460ff16955095509550955095509550909192939495565b60606001600760016101000a81548160ff0219169083151502179055610d5a576040517f08c379a0000000000000000000000000000000000000000000000000000000008152600401610d51906118cd565b60405180910390fd5b60608060089080519060200190610d72929190610fa4565b5060005b600354811015610eee576000805b6009600084815260200190815260200160002060030180549050811015610e9f576000600960008581526020019081526020016000206003018281548110610df5577f4e487b7100000000000000000000000000000000000000000000000000000000600052603260045260246000fd5b9060005260206000200160009054906101000a900473ffffffffffffffffffffffffffffffffffffffff169050610e7e6009600086815260200190815260200160002060020160008373ffffffffffffffffffffffffffffffffffffffff1673ffffffffffffffffffffffffffffffffffffffff168152602001908152602001600020546105cd565b83610e899190611ac7565b9250508080610e9790611c98565b915050610d84565b5060008182610eae9190611b4e565b9050600881908060018154018082558091505060019003906000526020600020016000909190919091505550508080610ee690611c98565b915050610d76565b506008805480602002602001604051908101604052809291908181526020018280548015610f3b57602002820191906000526020600020905b815481526020019060010190808311610f27575b505050505091505090565b828054828255906000526020600020906014028101928215610f93579160200282015b82811115610f9257825182906014610f82929190610ff1565b5091602001919060140190610f69565b5b509050610fa09190611044565b5090565b828054828255906000526020600020908101928215610fe0579160200282015b82811115610fdf578251825591602001919060010190610fc4565b5b509050610fed9190611068565b5090565b8260148101928215611033579160200282015b82811115611032578251829080519060200190611022929190611085565b5091602001919060010190611004565b5b509050611040919061110b565b5090565b5b80821115611064576000818161105b919061112f565b50601401611045565b5090565b5b80821115611081576000816000905550600101611069565b5090565b82805461109190611c66565b90600052602060002090601f0160209004810192826110b357600085556110fa565b82601f106110cc57805160ff19168380011785556110fa565b828001600101855582156110fa579182015b828111156110f95782518255916020019190600101906110de565b5b5090506111079190611068565b5090565b5b8082111561112b57600081816111229190611142565b5060010161110c565b5090565b50806014019061113f919061110b565b50565b50805461114e90611c66565b6000825580601f10611160575061117f565b601f01602090049060005260206000209081019061117e9190611068565b5b50565b600061119561119084611979565b611948565b9050808382526020820190508260005b858110156111d557813585016111bb888261129b565b8452602084019350602083019250506001810190506111a5565b5050509392505050565b60006111f26111ed846119a5565b611948565b9050808260005b85811015611229578135850161120f88826112c2565b8452602084019350602083019250506001810190506111f9565b5050509392505050565b6000611246611241846119cb565b611948565b90508281526020810184848401111561125e57600080fd5b611269848285611c24565b509392505050565b600082601f83011261128257600080fd5b8135611292848260208601611182565b91505092915050565b600082601f8301126112ac57600080fd5b60146112b98482856111df565b91505092915050565b600082601f8301126112d357600080fd5b81356112e3848260208601611233565b91505092915050565b6000813590506112fb81611dae565b92915050565b60006020828403121561131357600080fd5b600082013567ffffffffffffffff81111561132d57600080fd5b61133984828501611271565b91505092915050565b60006020828403121561135457600080fd5b6000611362848285016112ec565b91505092915050565b6000611377838361142f565b905092915050565b600061138b8383611511565b905092915050565b600061139f838361177c565b60208301905092915050565b6113b481611bdc565b82525050565b60006113c582611a25565b6113cf8185611a78565b9350836020820285016113e1856119fb565b8060005b8581101561141d57848403895281516113fe858261136b565b945061140983611a51565b925060208a019950506001810190506113e5565b50829750879550505050505092915050565b600061143a82611a30565b6114448185611a89565b93508360208202850161145685611a0b565b8060005b858110156114925784840389528151611473858261137f565b945061147e83611a5e565b925060208a0199505060018101905061145a565b50829750879550505050505092915050565b60006114af82611a3b565b6114b98185611a94565b93506114c483611a15565b8060005b838110156114f55781516114dc8882611393565b97506114e783611a6b565b9250506001810190506114c8565b5085935050505092915050565b61150b81611bee565b82525050565b600061151c82611a46565b6115268185611aa5565b9350611536818560208601611c33565b61153f81611d9d565b840191505092915050565b6000611557602383611ab6565b91507f6f6e6c79206d6f64657261746f722063616e20737461727420746865206c656160008301527f67756500000000000000000000000000000000000000000000000000000000006020830152604082019050919050565b60006115bd602783611ab6565b91507f6f6e6c79206f7267616e697a6174696f6e2063616e206469737472696275746560008301527f207072697a6573000000000000000000000000000000000000000000000000006020830152604082019050919050565b6000611623601583611ab6565b91507f4d6178696d756d206c696d6974207265616368656400000000000000000000006000830152602082019050919050565b6000611663602483611ab6565b91507f6f6e6c79206f7267616e697a6174696f6e2063616e20656e6420746865206c6560008301527f61677565000000000000000000000000000000000000000000000000000000006020830152604082019050919050565b60006116c9601683611ab6565b91507f7468652067616d6520686173206e6f7420656e646564000000000000000000006000830152602082019050919050565b6000611709601683611ab6565b91507f496e73756666696369656e7420656e74727920666565000000000000000000006000830152602082019050919050565b6000611749601283611ab6565b91507f496e76616c69642070726f6a65637420696400000000000000000000000000006000830152602082019050919050565b61178581611c1a565b82525050565b61179481611c1a565b82525050565b60006040820190506117af60008301856113ab565b81810360208301526117c181846113ba565b90509392505050565b600060c0820190506117df60008301896113ab565b6117ec602083018861178b565b6117f9604083018761178b565b6118066060830186611502565b6118136080830185611502565b61182060a0830184611502565b979650505050505050565b6000602082019050818103600083015261184581846114a4565b905092915050565b600060208201905081810360008301526118668161154a565b9050919050565b60006020820190508181036000830152611886816115b0565b9050919050565b600060208201905081810360008301526118a681611616565b9050919050565b600060208201905081810360008301526118c681611656565b9050919050565b600060208201905081810360008301526118e6816116bc565b9050919050565b60006020820190508181036000830152611906816116fc565b9050919050565b600060208201905081810360008301526119268161173c565b9050919050565b6000602082019050611942600083018461178b565b92915050565b6000604051905081810181811067ffffffffffffffff8211171561196f5761196e611d6e565b5b8060405250919050565b600067ffffffffffffffff82111561199457611993611d6e565b5b602082029050602081019050919050565b600067ffffffffffffffff8211156119c0576119bf611d6e565b5b602082029050919050565b600067ffffffffffffffff8211156119e6576119e5611d6e565b5b601f19601f8301169050602081019050919050565b6000819050602082019050919050565b6000819050919050565b6000819050602082019050919050565b600081519050919050565b600060149050919050565b600081519050919050565b600081519050919050565b6000602082019050919050565b6000602082019050919050565b6000602082019050919050565b600082825260208201905092915050565b600081905092915050565b600082825260208201905092915050565b600082825260208201905092915050565b600082825260208201905092915050565b6000611ad282611c1a565b9150611add83611c1a565b9250827fffffffffffffffffffffffffffffffffffffffffffffffffffffffffffffffff03821115611b1257611b11611ce1565b5b828201905092915050565b6000611b2882611c1a565b9150611b3383611c1a565b925082611b4357611b42611d10565b5b828204905092915050565b6000611b5982611c1a565b9150611b6483611c1a565b9250817fffffffffffffffffffffffffffffffffffffffffffffffffffffffffffffffff0483118215151615611b9d57611b9c611ce1565b5b828202905092915050565b6000611bb382611c1a565b9150611bbe83611c1a565b925082821015611bd157611bd0611ce1565b5b828203905092915050565b6000611be782611bfa565b9050919050565b60008115159050919050565b600073ffffffffffffffffffffffffffffffffffffffff82169050919050565b6000819050919050565b82818337600083830152505050565b60005b83811015611c51578082015181840152602081019050611c36565b83811115611c60576000848401525b50505050565b60006002820490506001821680611c7e57607f821691505b60208210811415611c9257611c91611d3f565b5b50919050565b6000611ca382611c1a565b91507fffffffffffffffffffffffffffffffffffffffffffffffffffffffffffffffff821415611cd657611cd5611ce1565b5b600182019050919050565b7f4e487b7100000000000000000000000000000000000000000000000000000000600052601160045260246000fd5b7f4e487b7100000000000000000000000000000000000000000000000000000000600052601260045260246000fd5b7f4e487b7100000000000000000000000000000000000000000000000000000000600052602260045260246000fd5b7f4e487b7100000000000000000000000000000000000000000000000000000000600052604160045260246000fd5b6000601f19601f8301169050919050565b611db781611c1a565b8114611dc257600080fd5b5056fea2646970667358221220664c91b478775db936e45eba4a8e4e91a2355facd60fca2fac67b7dbed5fb52664736f6c63430008000033",
  "immutableReferences": {},
  "source": "// SPDX-License-Identifier: MIT\r\npragma solidity >=0.8.0;\r\n\r\ncontract Knitts{\r\n    //organization address here\r\n    address organization = 0x79e6234Ff4E7DB556F916FeBcE9e52a68D0B8879;\r\n    address[] moderators;//change this to mapping mapping(address=>bool)\r\n    mapping(address=>bool) valid;\r\n    mapping(address => uint) deposits;\r\n    address[] Leagues;\r\n    uint maxDescLength = 1000;\r\n    function addModerator() public payable{\r\n        require(msg.value > 0, \"You should deposit some amount\");\r\n        moderators.push(msg.sender);\r\n        deposits[msg.sender] = msg.value;\r\n        valid[msg.sender]=true;\r\n    }\r\n\r\n    function depositMore() public payable{\r\n        require(msg.value > 0, \"You need to deposit some amount\");\r\n        deposits[msg.sender] += msg.value;\r\n    }\r\n\r\n    function createLeague(uint _entryFee, uint _numPlayers, uint _duration) public returns(address[] memory){\r\n        require(_entryFee * _numPlayers <= deposits[msg.sender], \"Insufficient deposit\");\r\n        League newLeague = new League(msg.sender, _entryFee, _numPlayers, _duration);\r\n        Leagues.push(address(newLeague));\r\n        return Leagues;\r\n    }\r\n\r\n    function getBalance(address _moderator) public view returns (uint){\r\n        return deposits[_moderator];\r\n    }\r\n\r\n    function getDetails() public view returns (address [] memory, address [] memory){\r\n        return (moderators, Leagues);\r\n    }\r\n    \r\n\r\n    function removeModerator(address _moderator) public {\r\n        valid[_moderator] = false;\r\n    }\r\n}\r\n\r\ncontract League{\r\n    \r\n    address organization;\r\n    uint entryFee;\r\n    uint maxParticipants;\r\n    uint numProjects;\r\n    address [] participants;\r\n    address moderator;\r\n    uint duration;\r\n    bool started;\r\n    bool ended;\r\n    bool distributed;\r\n    uint [] points;\r\n    struct project{\r\n        address owner;\r\n        bytes[20][] description;\r\n        mapping(address => uint)investments;\r\n        address[] investors;\r\n        uint total_fund;\r\n    }\r\n\r\n    mapping(uint => project) projects;\r\n\r\n    constructor(address _moderator, uint _entryFee, uint _maxParticipants, uint _duration){\r\n        entryFee = _entryFee;\r\n        maxParticipants = _maxParticipants;\r\n        moderator = _moderator;\r\n        duration = _duration;\r\n        numProjects = 0;\r\n        started=false;\r\n        ended=false;\r\n        distributed=false;\r\n        //organization = 0x79e6234Ff4E7DB556F916FeBcE9e52a68D0B8879; //for public net\r\n        organization = _moderator; // for local testing\r\n    }\r\n\r\n    function submitIdea(bytes[20][] memory description) public payable returns(uint){\r\n        require(msg.value >= entryFee, \"Insufficient entry fee\");\r\n        require(numProjects < maxParticipants, \"Maximum limit reached\");\r\n        project storage p = projects[numProjects++];\r\n        p.owner = msg.sender;\r\n        p.description = description;\r\n        return numProjects;\r\n    }\r\n\r\n    function invest(uint projectId) public payable{\r\n        require(projectId < numProjects, \"Invalid project id\");\r\n        if(projects[projectId].investments[msg.sender] == 0){\r\n            projects[projectId].investors.push(msg.sender);\r\n        }\r\n        projects[projectId].total_fund += msg.value/1e12;\r\n        projects[projectId].investments[msg.sender] += msg.value/1e12;\r\n        \r\n    }\r\n\r\n    function startLeague() public{\r\n        require(msg.sender == moderator, \"only moderator can start the league\");\r\n        started=true;\r\n    }\r\n\r\n    function endLeague() public returns(uint[] memory){\r\n        require(msg.sender == organization, \"only organization can end the league\");\r\n        ended=true;\r\n        getPoints();\r\n        return points;\r\n    }\r\n\r\n    function getPoints() private returns(uint[] memory){\r\n        require(ended = true, \"the game has not ended\");\r\n        uint [] memory empty_points;\r\n        points = empty_points;\r\n        // require(msg.sender == organization, \"only organization get the points\");\r\n        // write quadratic funding code here\r\n        for(uint i=0; i < numProjects; i++){\r\n            uint sum = 0;\r\n            for(uint j=0; j<projects[i].investors.length; j++){\r\n                address investor = projects[i].investors[j];\r\n                sum += sqrt(projects[i].investments[investor]);\r\n            }\r\n            uint point = sum * sum;\r\n            points.push(point);\r\n        }\r\n        return points;\r\n    }\r\n\r\n    function distribute() public {\r\n        require(msg.sender == organization, \"only organization can distribute prizes\");\r\n        uint total_balance = address(this).balance;\r\n        uint total_points=0;\r\n        for(uint i=0; i<numProjects; i++){\r\n            total_points += points[i];\r\n        }\r\n        for(uint i=0; i<numProjects; i++){\r\n            project storage p  =  projects[i];\r\n            \r\n            payable(p.owner).transfer( (3*points[i]*total_balance)/(10*total_points) );\r\n\r\n            for(uint j=0; j<p.investors.length; j++){\r\n                address investor = p.investors[j];\r\n                payable(investor).transfer( (6 * points[i] * total_balance * p.investments[investor]) / (10 * total_points * p.total_fund) );\r\n            }\r\n        }\r\n\r\n        payable(moderator).transfer(address(this).balance);\r\n\r\n    }\r\n\r\n    function getDetails() public view returns(\r\n        address,//moderator\r\n        uint,//entry fee\r\n        uint,//maxParticipants\r\n        bool, //started\r\n        bool, //ended\r\n        bool //distributed\r\n    ){\r\n        return (moderator, entryFee, maxParticipants, started, ended, distributed);\r\n    }\r\n\r\n    function submissionDetails(uint projectId) public view returns(\r\n        address, // project owner\r\n        bytes[20][] memory // description\r\n    )  {\r\n        return (projects[projectId].owner, projects[projectId].description);\r\n    }\r\n\r\n    function sqrt(uint num) public pure returns(uint){\r\n        uint start = 1;\r\n        uint end = num;\r\n        uint mid = start;\r\n        while(start < end){\r\n            mid = start + (end - start)/2;\r\n            if(mid * mid >= num){\r\n                end = mid;\r\n            }else{\r\n                start = mid+1;\r\n            }\r\n        }\r\n        return end;\r\n    }\r\n}",
  "sourcePath": "E:\\projects\\knitts\\back-end\\contracts\\League.sol",
  "compiler": {
    "name": "solc",
    "version": "0.8.0+commit.c7dfd78e.Emscripten.clang"
  },
  "schemaVersion": "3.4.3",
  "updatedAt": "2021-09-28T16:41:43.681Z",
  "networkType": "ethereum",
  "devdoc": {
    "kind": "dev",
    "methods": {},
    "version": 1
  },
  "userdoc": {
    "kind": "user",
    "methods": {},
    "version": 1
  }
}