{
  "contractName": "League",
  "abi": [
    {
      "inputs": [
        {
          "internalType": "address",
          "name": "_moderator",
          "type": "address"
        },
        {
          "internalType": "uint256",
          "name": "_entryFee",
          "type": "uint256"
        },
        {
          "internalType": "uint256",
          "name": "_maxParticipants",
          "type": "uint256"
        },
        {
          "internalType": "uint256",
          "name": "_duration",
          "type": "uint256"
        }
      ],
      "stateMutability": "nonpayable",
      "type": "constructor"
    },
    {
      "inputs": [
        {
          "internalType": "bytes[20][]",
          "name": "description",
          "type": "bytes[20][]"
        }
      ],
      "name": "submitIdea",
      "outputs": [
        {
          "internalType": "uint256",
          "name": "",
          "type": "uint256"
        }
      ],
      "stateMutability": "payable",
      "type": "function",
      "payable": true
    },
    {
      "inputs": [
        {
          "internalType": "uint256",
          "name": "projectId",
          "type": "uint256"
        }
      ],
      "name": "invest",
      "outputs": [],
      "stateMutability": "payable",
      "type": "function",
      "payable": true
    },
    {
      "inputs": [],
      "name": "startLeague",
      "outputs": [],
      "stateMutability": "nonpayable",
      "type": "function"
    },
    {
      "inputs": [],
      "name": "endLeague",
      "outputs": [
        {
          "internalType": "uint256[]",
          "name": "",
          "type": "uint256[]"
        }
      ],
      "stateMutability": "nonpayable",
      "type": "function"
    },
    {
      "inputs": [],
      "name": "distribute",
      "outputs": [],
      "stateMutability": "nonpayable",
      "type": "function"
    },
    {
      "inputs": [],
      "name": "getDetails",
      "outputs": [
        {
          "internalType": "address",
          "name": "",
          "type": "address"
        },
        {
          "internalType": "uint256",
          "name": "",
          "type": "uint256"
        },
        {
          "internalType": "uint256",
          "name": "",
          "type": "uint256"
        },
        {
          "internalType": "bool",
          "name": "",
          "type": "bool"
        },
        {
          "internalType": "bool",
          "name": "",
          "type": "bool"
        },
        {
          "internalType": "bool",
          "name": "",
          "type": "bool"
        }
      ],
      "stateMutability": "view",
      "type": "function",
      "constant": true
    },
    {
      "inputs": [
        {
          "internalType": "uint256",
          "name": "projectId",
          "type": "uint256"
        }
      ],
      "name": "submissionDetails",
      "outputs": [
        {
          "internalType": "address",
          "name": "",
          "type": "address"
        },
        {
          "internalType": "bytes[20][]",
          "name": "",
          "type": "bytes[20][]"
        }
      ],
      "stateMutability": "view",
      "type": "function",
      "constant": true
    },
    {
      "inputs": [
        {
          "internalType": "uint256",
          "name": "num",
          "type": "uint256"
        }
      ],
      "name": "sqrt",
      "outputs": [
        {
          "internalType": "uint256",
          "name": "",
          "type": "uint256"
        }
      ],
      "stateMutability": "pure",
      "type": "function",
      "constant": true
    }
  ],
  "bytecode": "0x60806040523480156200001157600080fd5b5060405162001ba138038062001ba183398181016040528101906200003791906200015e565b826001819055508160028190555083600560006101000a81548173ffffffffffffffffffffffffffffffffffffffff021916908373ffffffffffffffffffffffffffffffffffffffff1602179055508060068190555060006003819055506000600760006101000a81548160ff0219169083151502179055506000600760016101000a81548160ff0219169083151502179055506000600760026101000a81548160ff021916908315150217905550836000806101000a81548173ffffffffffffffffffffffffffffffffffffffff021916908373ffffffffffffffffffffffffffffffffffffffff160217905550505050506200023c565b600081519050620001418162000208565b92915050565b600081519050620001588162000222565b92915050565b600080600080608085870312156200017557600080fd5b6000620001858782880162000130565b9450506020620001988782880162000147565b9350506040620001ab8782880162000147565b9250506060620001be8782880162000147565b91505092959194509250565b6000620001d782620001de565b9050919050565b600073ffffffffffffffffffffffffffffffffffffffff82169050919050565b6000819050919050565b6200021381620001ca565b81146200021f57600080fd5b50565b6200022d81620001fe565b81146200023957600080fd5b50565b611955806200024c6000396000f3fe60806040526004361061007b5760003560e01c8063c3b7a80f1161004e578063c3b7a80f14610134578063d235407b1461014b578063e4fc6b6d14610189578063fbbf93a0146101a05761007b565b806324fd7918146100805780632afcf480146100ab57806341aaf46d146100c7578063677342ce146100f7575b600080fd5b34801561008c57600080fd5b506100956101d0565b6040516100a29190611385565b60405180910390f35b6100c560048036038101906100c09190610e9c565b610288565b005b6100e160048036038101906100dc9190610e5b565b61040d565b6040516100ee9190611487565b60405180910390f35b34801561010357600080fd5b5061011e60048036038101906101199190610e9c565b61052e565b60405161012b9190611487565b60405180910390f35b34801561014057600080fd5b506101496105a7565b005b34801561015757600080fd5b50610172600480360381019061016d9190610e9c565b610654565b6040516101809291906112f4565b60405180910390f35b34801561019557600080fd5b5061019e6107ba565b005b3480156101ac57600080fd5b506101b561084a565b6040516101c796959493929190611324565b60405180910390f35b606060008054906101000a900473ffffffffffffffffffffffffffffffffffffffff1673ffffffffffffffffffffffffffffffffffffffff163373ffffffffffffffffffffffffffffffffffffffff1614610260576040517f08c379a000000000000000000000000000000000000000000000000000000000815260040161025790611407565b60405180910390fd5b6001600760016101000a81548160ff0219169083151502179055506102836108c0565b905090565b60035481106102cc576040517f08c379a00000000000000000000000000000000000000000000000000000000081526004016102c390611467565b60405180910390fd5b60006009600083815260200190815260200160002060020160003373ffffffffffffffffffffffffffffffffffffffff1673ffffffffffffffffffffffffffffffffffffffff1681526020019081526020016000205414156103a05760096000828152602001908152602001600020600301339080600181540180825580915050600190039060005260206000200160009091909190916101000a81548173ffffffffffffffffffffffffffffffffffffffff021916908373ffffffffffffffffffffffffffffffffffffffff1602179055505b346009600083815260200190815260200160002060020160003373ffffffffffffffffffffffffffffffffffffffff1673ffffffffffffffffffffffffffffffffffffffff16815260200190815260200160002060008282546104039190611621565b9250508190555050565b6000600154341015610454576040517f08c379a000000000000000000000000000000000000000000000000000000000815260040161044b90611447565b60405180910390fd5b6002546003541061049a576040517f08c379a0000000000000000000000000000000000000000000000000000000008152600401610491906113e7565b60405180910390fd5b600060096000600360008154809291906104b3906117f2565b9190505581526020019081526020016000209050338160000160006101000a81548173ffffffffffffffffffffffffffffffffffffffff021916908373ffffffffffffffffffffffffffffffffffffffff16021790555082816001019080519060200190610522929190610aed565b50600354915050919050565b60008060019050600083905060008290505b8183101561059c57600283836105569190611702565b6105609190611677565b8361056b9190611621565b905084818261057a91906116a8565b1061058757809150610597565b6001816105949190611621565b92505b610540565b819350505050919050565b600560009054906101000a900473ffffffffffffffffffffffffffffffffffffffff1673ffffffffffffffffffffffffffffffffffffffff163373ffffffffffffffffffffffffffffffffffffffff1614610637576040517f08c379a000000000000000000000000000000000000000000000000000000000815260040161062e906113a7565b60405180910390fd5b6001600760006101000a81548160ff021916908315150217905550565b600060606009600084815260200190815260200160002060000160009054906101000a900473ffffffffffffffffffffffffffffffffffffffff166009600085815260200190815260200160002060010180805480602002602001604051908101604052809291908181526020016000905b828210156107ab5783829060005260206000209060140201601480602002604051908101604052809291906000905b8282101561079857838201805461070b906117c0565b80601f0160208091040260200160405190810160405280929190818152602001828054610737906117c0565b80156107845780601f1061075957610100808354040283529160200191610784565b820191906000526020600020905b81548152906001019060200180831161076757829003601f168201915b5050505050815260200190600101906106f5565b50505050815260200190600101906106c6565b50505050905091509150915091565b60008054906101000a900473ffffffffffffffffffffffffffffffffffffffff1673ffffffffffffffffffffffffffffffffffffffff163373ffffffffffffffffffffffffffffffffffffffff1614610848576040517f08c379a000000000000000000000000000000000000000000000000000000000815260040161083f906113c7565b60405180910390fd5b565b600080600080600080600560009054906101000a900473ffffffffffffffffffffffffffffffffffffffff16600154600254600760009054906101000a900460ff16600760019054906101000a900460ff16600760029054906101000a900460ff16955095509550955095509550909192939495565b60606001600760016101000a81548160ff021916908315150217905561091b576040517f08c379a000000000000000000000000000000000000000000000000000000000815260040161091290611427565b60405180910390fd5b60005b600354811015610a96576000805b6009600084815260200190815260200160002060030180549050811015610a4757600060096000858152602001908152602001600020600301828154811061099d577f4e487b7100000000000000000000000000000000000000000000000000000000600052603260045260246000fd5b9060005260206000200160009054906101000a900473ffffffffffffffffffffffffffffffffffffffff169050610a266009600086815260200190815260200160002060020160008373ffffffffffffffffffffffffffffffffffffffff1673ffffffffffffffffffffffffffffffffffffffff1681526020019081526020016000205461052e565b83610a319190611621565b9250508080610a3f906117f2565b91505061092c565b5060008182610a5691906116a8565b9050600881908060018154018082558091505060019003906000526020600020016000909190919091505550508080610a8e906117f2565b91505061091e565b506008805480602002602001604051908101604052809291908181526020018280548015610ae357602002820191906000526020600020905b815481526020019060010190808311610acf575b5050505050905090565b828054828255906000526020600020906014028101928215610b3a579160200282015b82811115610b3957825182906014610b29929190610b4b565b5091602001919060140190610b10565b5b509050610b479190610b9e565b5090565b8260148101928215610b8d579160200282015b82811115610b8c578251829080519060200190610b7c929190610bc2565b5091602001919060010190610b5e565b5b509050610b9a9190610c48565b5090565b5b80821115610bbe5760008181610bb59190610c6c565b50601401610b9f565b5090565b828054610bce906117c0565b90600052602060002090601f016020900481019282610bf05760008555610c37565b82601f10610c0957805160ff1916838001178555610c37565b82800160010185558215610c37579182015b82811115610c36578251825591602001919060010190610c1b565b5b509050610c449190610c7f565b5090565b5b80821115610c685760008181610c5f9190610c9c565b50600101610c49565b5090565b508060140190610c7c9190610c48565b50565b5b80821115610c98576000816000905550600101610c80565b5090565b508054610ca8906117c0565b6000825580601f10610cba5750610cd9565b601f016020900490600052602060002090810190610cd89190610c7f565b5b50565b6000610cef610cea846114d3565b6114a2565b9050808382526020820190508260005b85811015610d2f5781358501610d158882610df5565b845260208401935060208301925050600181019050610cff565b5050509392505050565b6000610d4c610d47846114ff565b6114a2565b9050808260005b85811015610d835781358501610d698882610e1c565b845260208401935060208301925050600181019050610d53565b5050509392505050565b6000610da0610d9b84611525565b6114a2565b905082815260208101848484011115610db857600080fd5b610dc384828561177e565b509392505050565b600082601f830112610ddc57600080fd5b8135610dec848260208601610cdc565b91505092915050565b600082601f830112610e0657600080fd5b6014610e13848285610d39565b91505092915050565b600082601f830112610e2d57600080fd5b8135610e3d848260208601610d8d565b91505092915050565b600081359050610e5581611908565b92915050565b600060208284031215610e6d57600080fd5b600082013567ffffffffffffffff811115610e8757600080fd5b610e9384828501610dcb565b91505092915050565b600060208284031215610eae57600080fd5b6000610ebc84828501610e46565b91505092915050565b6000610ed18383610f89565b905092915050565b6000610ee5838361106b565b905092915050565b6000610ef983836112d6565b60208301905092915050565b610f0e81611736565b82525050565b6000610f1f8261157f565b610f2981856115d2565b935083602082028501610f3b85611555565b8060005b85811015610f775784840389528151610f588582610ec5565b9450610f63836115ab565b925060208a01995050600181019050610f3f565b50829750879550505050505092915050565b6000610f948261158a565b610f9e81856115e3565b935083602082028501610fb085611565565b8060005b85811015610fec5784840389528151610fcd8582610ed9565b9450610fd8836115b8565b925060208a01995050600181019050610fb4565b50829750879550505050505092915050565b600061100982611595565b61101381856115ee565b935061101e8361156f565b8060005b8381101561104f5781516110368882610eed565b9750611041836115c5565b925050600181019050611022565b5085935050505092915050565b61106581611748565b82525050565b6000611076826115a0565b61108081856115ff565b935061109081856020860161178d565b611099816118f7565b840191505092915050565b60006110b1602383611610565b91507f6f6e6c79206d6f64657261746f722063616e20737461727420746865206c656160008301527f67756500000000000000000000000000000000000000000000000000000000006020830152604082019050919050565b6000611117602783611610565b91507f6f6e6c79206f7267616e697a6174696f6e2063616e206469737472696275746560008301527f207072697a6573000000000000000000000000000000000000000000000000006020830152604082019050919050565b600061117d601583611610565b91507f4d6178696d756d206c696d6974207265616368656400000000000000000000006000830152602082019050919050565b60006111bd602483611610565b91507f6f6e6c79206f7267616e697a6174696f6e2063616e20656e6420746865206c6560008301527f61677565000000000000000000000000000000000000000000000000000000006020830152604082019050919050565b6000611223601683611610565b91507f7468652067616d6520686173206e6f7420656e646564000000000000000000006000830152602082019050919050565b6000611263601683611610565b91507f496e73756666696369656e7420656e74727920666565000000000000000000006000830152602082019050919050565b60006112a3601283611610565b91507f496e76616c69642070726f6a65637420696400000000000000000000000000006000830152602082019050919050565b6112df81611774565b82525050565b6112ee81611774565b82525050565b60006040820190506113096000830185610f05565b818103602083015261131b8184610f14565b90509392505050565b600060c0820190506113396000830189610f05565b61134660208301886112e5565b61135360408301876112e5565b611360606083018661105c565b61136d608083018561105c565b61137a60a083018461105c565b979650505050505050565b6000602082019050818103600083015261139f8184610ffe565b905092915050565b600060208201905081810360008301526113c0816110a4565b9050919050565b600060208201905081810360008301526113e08161110a565b9050919050565b6000602082019050818103600083015261140081611170565b9050919050565b60006020820190508181036000830152611420816111b0565b9050919050565b6000602082019050818103600083015261144081611216565b9050919050565b6000602082019050818103600083015261146081611256565b9050919050565b6000602082019050818103600083015261148081611296565b9050919050565b600060208201905061149c60008301846112e5565b92915050565b6000604051905081810181811067ffffffffffffffff821117156114c9576114c86118c8565b5b8060405250919050565b600067ffffffffffffffff8211156114ee576114ed6118c8565b5b602082029050602081019050919050565b600067ffffffffffffffff82111561151a576115196118c8565b5b602082029050919050565b600067ffffffffffffffff8211156115405761153f6118c8565b5b601f19601f8301169050602081019050919050565b6000819050602082019050919050565b6000819050919050565b6000819050602082019050919050565b600081519050919050565b600060149050919050565b600081519050919050565b600081519050919050565b6000602082019050919050565b6000602082019050919050565b6000602082019050919050565b600082825260208201905092915050565b600081905092915050565b600082825260208201905092915050565b600082825260208201905092915050565b600082825260208201905092915050565b600061162c82611774565b915061163783611774565b9250827fffffffffffffffffffffffffffffffffffffffffffffffffffffffffffffffff0382111561166c5761166b61183b565b5b828201905092915050565b600061168282611774565b915061168d83611774565b92508261169d5761169c61186a565b5b828204905092915050565b60006116b382611774565b91506116be83611774565b9250817fffffffffffffffffffffffffffffffffffffffffffffffffffffffffffffffff04831182151516156116f7576116f661183b565b5b828202905092915050565b600061170d82611774565b915061171883611774565b92508282101561172b5761172a61183b565b5b828203905092915050565b600061174182611754565b9050919050565b60008115159050919050565b600073ffffffffffffffffffffffffffffffffffffffff82169050919050565b6000819050919050565b82818337600083830152505050565b60005b838110156117ab578082015181840152602081019050611790565b838111156117ba576000848401525b50505050565b600060028204905060018216806117d857607f821691505b602082108114156117ec576117eb611899565b5b50919050565b60006117fd82611774565b91507fffffffffffffffffffffffffffffffffffffffffffffffffffffffffffffffff8214156118305761182f61183b565b5b600182019050919050565b7f4e487b7100000000000000000000000000000000000000000000000000000000600052601160045260246000fd5b7f4e487b7100000000000000000000000000000000000000000000000000000000600052601260045260246000fd5b7f4e487b7100000000000000000000000000000000000000000000000000000000600052602260045260246000fd5b7f4e487b7100000000000000000000000000000000000000000000000000000000600052604160045260246000fd5b6000601f19601f8301169050919050565b61191181611774565b811461191c57600080fd5b5056fea2646970667358221220a8bfb0cc2d0c834959775eb764b7ca0e7db34f3cbe16a259abcb4acb14cc911f64736f6c63430008000033",
  "immutableReferences": {},
  "source": "// SPDX-License-Identifier: MIT\r\npragma solidity >=0.8.0;\r\n\r\ncontract Knitts{\r\n    //organization address here\r\n    address organization = 0x79e6234Ff4E7DB556F916FeBcE9e52a68D0B8879;\r\n    address[] moderators;//change this to mapping mapping(address=>bool)\r\n    mapping(address=>bool) valid;\r\n    mapping(address => uint) deposits;\r\n    address[] Leagues;\r\n    uint maxDescLength = 1000;\r\n    function addModerator() public payable{\r\n        require(msg.value > 0, \"You should deposit some amount\");\r\n        moderators.push(msg.sender);\r\n        deposits[msg.sender] = msg.value;\r\n        valid[msg.sender]=true;\r\n    }\r\n\r\n    function depositMore() public payable{\r\n        require(msg.value > 0, \"You need to deposit some amount\");\r\n        deposits[msg.sender] += msg.value;\r\n    }\r\n\r\n    function createLeague(uint _entryFee, uint _numPlayers, uint _duration) public returns(address[] memory){\r\n        require(_entryFee * _numPlayers <= deposits[msg.sender], \"Insufficient deposit\");\r\n        League newLeague = new League(msg.sender, _entryFee, _numPlayers, _duration);\r\n        Leagues.push(address(newLeague));\r\n        return Leagues;\r\n    }\r\n\r\n    function getBalance(address _moderator) public view returns (uint){\r\n        return deposits[_moderator];\r\n    }\r\n\r\n    function getDetails() public view returns (address [] memory, address [] memory){\r\n        return (moderators, Leagues);\r\n    }\r\n    \r\n\r\n    function removeModerator(address _moderator) public {\r\n        valid[_moderator] = false;\r\n    }\r\n}\r\n\r\ncontract League{\r\n    \r\n    address organization;\r\n    uint entryFee;\r\n    uint maxParticipants;\r\n    uint numProjects;\r\n    address [] participants;\r\n    address moderator;\r\n    uint duration;\r\n    bool started;\r\n    bool ended;\r\n    bool distributed;\r\n    uint [] points;\r\n    struct project{\r\n        address owner;\r\n        bytes[20][] description;\r\n        mapping(address => uint)investments;\r\n        address[] investors;\r\n    }\r\n\r\n    mapping(uint => project) projects;\r\n\r\n    constructor(address _moderator, uint _entryFee, uint _maxParticipants, uint _duration){\r\n        entryFee = _entryFee;\r\n        maxParticipants = _maxParticipants;\r\n        moderator = _moderator;\r\n        duration = _duration;\r\n        numProjects = 0;\r\n        started=false;\r\n        ended=false;\r\n        distributed=false;\r\n        //organization = 0x79e6234Ff4E7DB556F916FeBcE9e52a68D0B8879; //for public net\r\n        organization = _moderator; // for local testing\r\n    }\r\n\r\n    function submitIdea(bytes[20][] memory description) public payable returns(uint){\r\n        require(msg.value >= entryFee, \"Insufficient entry fee\");\r\n        require(numProjects < maxParticipants, \"Maximum limit reached\");\r\n        project storage p = projects[numProjects++];\r\n        p.owner = msg.sender;\r\n        p.description = description;\r\n        return numProjects;\r\n    }\r\n\r\n    function invest(uint projectId) public payable{\r\n        require(projectId < numProjects, \"Invalid project id\");\r\n        if(projects[projectId].investments[msg.sender] == 0){\r\n            projects[projectId].investors.push(msg.sender);\r\n        }\r\n\r\n        projects[projectId].investments[msg.sender] += msg.value;\r\n        \r\n    }\r\n\r\n    function startLeague() public{\r\n        require(msg.sender == moderator, \"only moderator can start the league\");\r\n        started=true;\r\n    }\r\n\r\n    function endLeague() public returns(uint[] memory){\r\n        require(msg.sender == organization, \"only organization can end the league\");\r\n        ended=true;\r\n        return getPoints();\r\n    }\r\n\r\n    function getPoints() private returns(uint[] memory){\r\n        require(ended = true, \"the game has not ended\");\r\n        // require(msg.sender == organization, \"only organization get the points\");\r\n        // write quadratic funding code here\r\n        for(uint i=0; i < numProjects; i++){\r\n            uint sum = 0;\r\n            for(uint j=0; j<projects[i].investors.length; j++){\r\n                address investor = projects[i].investors[j];\r\n                sum += sqrt(projects[i].investments[investor]);\r\n            }\r\n            uint point = sum * sum;\r\n            points.push(point);\r\n        }\r\n        return points;\r\n    }\r\n\r\n    function distribute() public{\r\n        require(msg.sender == organization, \"only organization can distribute prizes\");\r\n        //write the quadratic function\r\n    }\r\n\r\n    function getDetails() public view returns(\r\n        address,//moderator\r\n        uint,//entry fee\r\n        uint,//maxParticipants\r\n        bool, //started\r\n        bool, //ended\r\n        bool //distributed\r\n    ){\r\n        return (moderator, entryFee, maxParticipants, started, ended, distributed);\r\n    }\r\n\r\n    function submissionDetails(uint projectId) public view returns(\r\n        address, // project owner\r\n        bytes[20][] memory // description\r\n    )  {\r\n        return (projects[projectId].owner, projects[projectId].description);\r\n    }\r\n\r\n    function sqrt(uint num) public pure returns(uint){\r\n        uint start = 1;\r\n        uint end = num;\r\n        uint mid = start;\r\n        while(start < end){\r\n            mid = start + (end - start)/2;\r\n            if(mid * mid >= num){\r\n                end = mid;\r\n            }else{\r\n                start = mid+1;\r\n            }\r\n        }\r\n        return end;\r\n    }\r\n}",
  "sourcePath": "E:\\projects\\knitts\\back-end\\contracts\\League.sol",
  "compiler": {
    "name": "solc",
    "version": "0.8.0+commit.c7dfd78e.Emscripten.clang"
  },
  "schemaVersion": "3.4.3",
  "updatedAt": "2021-09-19T19:28:10.954Z",
  "networkType": "ethereum",
  "devdoc": {
    "kind": "dev",
    "methods": {},
    "version": 1
  },
  "userdoc": {
    "kind": "user",
    "methods": {},
    "version": 1
  }
}