{
  "contractName": "League",
  "abi": [
    {
      "inputs": [
        {
          "internalType": "address",
          "name": "_moderator",
          "type": "address"
        },
        {
          "internalType": "uint256",
          "name": "_entryFee",
          "type": "uint256"
        },
        {
          "internalType": "uint256",
          "name": "_maxParticipants",
          "type": "uint256"
        },
        {
          "internalType": "uint256",
          "name": "_duration",
          "type": "uint256"
        },
        {
          "internalType": "address",
          "name": "_knittsAddress",
          "type": "address"
        }
      ],
      "stateMutability": "nonpayable",
      "type": "constructor"
    },
    {
      "inputs": [],
      "name": "deposit",
      "outputs": [
        {
          "internalType": "uint256",
          "name": "",
          "type": "uint256"
        }
      ],
      "stateMutability": "view",
      "type": "function"
    },
    {
      "inputs": [],
      "name": "distributed",
      "outputs": [
        {
          "internalType": "bool",
          "name": "",
          "type": "bool"
        }
      ],
      "stateMutability": "view",
      "type": "function"
    },
    {
      "inputs": [],
      "name": "duration",
      "outputs": [
        {
          "internalType": "uint256",
          "name": "",
          "type": "uint256"
        }
      ],
      "stateMutability": "view",
      "type": "function"
    },
    {
      "inputs": [],
      "name": "ended",
      "outputs": [
        {
          "internalType": "bool",
          "name": "",
          "type": "bool"
        }
      ],
      "stateMutability": "view",
      "type": "function"
    },
    {
      "inputs": [],
      "name": "entryFee",
      "outputs": [
        {
          "internalType": "uint256",
          "name": "",
          "type": "uint256"
        }
      ],
      "stateMutability": "view",
      "type": "function"
    },
    {
      "inputs": [],
      "name": "knittsAddress",
      "outputs": [
        {
          "internalType": "address",
          "name": "",
          "type": "address"
        }
      ],
      "stateMutability": "view",
      "type": "function"
    },
    {
      "inputs": [],
      "name": "maxParticipants",
      "outputs": [
        {
          "internalType": "uint256",
          "name": "",
          "type": "uint256"
        }
      ],
      "stateMutability": "view",
      "type": "function"
    },
    {
      "inputs": [],
      "name": "moderator",
      "outputs": [
        {
          "internalType": "address",
          "name": "",
          "type": "address"
        }
      ],
      "stateMutability": "view",
      "type": "function"
    },
    {
      "inputs": [],
      "name": "numProjects",
      "outputs": [
        {
          "internalType": "uint256",
          "name": "",
          "type": "uint256"
        }
      ],
      "stateMutability": "view",
      "type": "function"
    },
    {
      "inputs": [],
      "name": "organization",
      "outputs": [
        {
          "internalType": "address",
          "name": "",
          "type": "address"
        }
      ],
      "stateMutability": "view",
      "type": "function"
    },
    {
      "inputs": [
        {
          "internalType": "uint256",
          "name": "",
          "type": "uint256"
        }
      ],
      "name": "participants",
      "outputs": [
        {
          "internalType": "address",
          "name": "",
          "type": "address"
        }
      ],
      "stateMutability": "view",
      "type": "function"
    },
    {
      "inputs": [
        {
          "internalType": "uint256",
          "name": "",
          "type": "uint256"
        }
      ],
      "name": "points",
      "outputs": [
        {
          "internalType": "uint256",
          "name": "",
          "type": "uint256"
        }
      ],
      "stateMutability": "view",
      "type": "function"
    },
    {
      "inputs": [],
      "name": "started",
      "outputs": [
        {
          "internalType": "bool",
          "name": "",
          "type": "bool"
        }
      ],
      "stateMutability": "view",
      "type": "function"
    },
    {
      "inputs": [],
      "name": "total_points",
      "outputs": [
        {
          "internalType": "uint256",
          "name": "",
          "type": "uint256"
        }
      ],
      "stateMutability": "view",
      "type": "function"
    },
    {
      "inputs": [
        {
          "internalType": "string",
          "name": "title",
          "type": "string"
        },
        {
          "internalType": "string",
          "name": "url",
          "type": "string"
        },
        {
          "internalType": "string",
          "name": "image",
          "type": "string"
        },
        {
          "internalType": "bytes[20][]",
          "name": "description",
          "type": "bytes[20][]"
        }
      ],
      "name": "submitIdea",
      "outputs": [
        {
          "internalType": "uint256",
          "name": "",
          "type": "uint256"
        }
      ],
      "stateMutability": "payable",
      "type": "function"
    },
    {
      "inputs": [
        {
          "internalType": "uint256",
          "name": "projectId",
          "type": "uint256"
        }
      ],
      "name": "invest",
      "outputs": [],
      "stateMutability": "payable",
      "type": "function"
    },
    {
      "inputs": [],
      "name": "startLeague",
      "outputs": [],
      "stateMutability": "nonpayable",
      "type": "function"
    },
    {
      "inputs": [],
      "name": "endLeague",
      "outputs": [
        {
          "internalType": "uint256[]",
          "name": "",
          "type": "uint256[]"
        }
      ],
      "stateMutability": "nonpayable",
      "type": "function"
    },
    {
      "inputs": [],
      "name": "distribute",
      "outputs": [],
      "stateMutability": "nonpayable",
      "type": "function"
    },
    {
      "inputs": [
        {
          "internalType": "uint256",
          "name": "projectId",
          "type": "uint256"
        }
      ],
      "name": "submissionDetails",
      "outputs": [
        {
          "internalType": "address",
          "name": "",
          "type": "address"
        },
        {
          "internalType": "bytes[20][]",
          "name": "",
          "type": "bytes[20][]"
        }
      ],
      "stateMutability": "view",
      "type": "function"
    }
  ],
  "bytecode": "0x608060405260006008553480156200001657600080fd5b5060405162002ca938038062002ca983398181016040528101906200003c9190620001a5565b836001819055508260028190555084600560006101000a81548173ffffffffffffffffffffffffffffffffffffffff021916908373ffffffffffffffffffffffffffffffffffffffff1602179055508160068190555060006003819055506000600760006101000a81548160ff0219169083151502179055506000600760016101000a81548160ff0219169083151502179055506000600760026101000a81548160ff021916908315150217905550846000806101000a81548173ffffffffffffffffffffffffffffffffffffffff021916908373ffffffffffffffffffffffffffffffffffffffff16021790555080600a60006101000a81548173ffffffffffffffffffffffffffffffffffffffff021916908373ffffffffffffffffffffffffffffffffffffffff160217905550505050505062000299565b600081519050620001888162000265565b92915050565b6000815190506200019f816200027f565b92915050565b600080600080600060a08688031215620001be57600080fd5b6000620001ce8882890162000177565b9550506020620001e1888289016200018e565b9450506040620001f4888289016200018e565b935050606062000207888289016200018e565b92505060806200021a8882890162000177565b9150509295509295909350565b600062000234826200023b565b9050919050565b600073ffffffffffffffffffffffffffffffffffffffff82169050919050565b6000819050919050565b620002708162000227565b81146200027c57600080fd5b50565b6200028a816200025b565b81146200029657600080fd5b50565b612a0080620002a96000396000f3fe60806040526004361061011f5760003560e01c806335c1d349116100a0578063c3b7a80f11610064578063c3b7a80f146103c3578063d0e30db0146103da578063d235407b14610405578063e4fc6b6d14610443578063f84b903e1461045a5761011f565b806335c1d349146102c857806338743904146103055780635a067baa146103305780639799b4e71461035b578063a19eb3c6146103985761011f565b806323bd4d7a116100e757806323bd4d7a1461020057806324924bf71461022b57806324fd79181461025657806325d5eafa146102815780632afcf480146102ac5761011f565b8063072ea61c146101245780630fb5a6b41461014f57806312fa6feb1461017a5780631f2698ab146101a55780632185ce83146101d0575b600080fd5b34801561013057600080fd5b50610139610485565b6040516101469190612495565b60405180910390f35b34801561015b57600080fd5b5061016461048b565b6040516101719190612495565b60405180910390f35b34801561018657600080fd5b5061018f610491565b60405161019c9190612314565b60405180910390f35b3480156101b157600080fd5b506101ba6104a4565b6040516101c79190612314565b60405180910390f35b6101ea60048036038101906101e59190611b4f565b6104b7565b6040516101f79190612495565b60405180910390f35b34801561020c57600080fd5b50610215610626565b6040516102229190612285565b60405180910390f35b34801561023757600080fd5b5061024061064a565b60405161024d9190612495565b60405180910390f35b34801561026257600080fd5b5061026b610650565b60405161027891906122f2565b60405180910390f35b34801561028d57600080fd5b50610296610a72565b6040516102a39190612495565b60405180910390f35b6102c660048036038101906102c19190611c12565b610a78565b005b3480156102d457600080fd5b506102ef60048036038101906102ea9190611c12565b610bd6565b6040516102fc9190612285565b60405180910390f35b34801561031157600080fd5b5061031a610c15565b6040516103279190612285565b60405180910390f35b34801561033c57600080fd5b50610345610c3b565b6040516103529190612495565b60405180910390f35b34801561036757600080fd5b50610382600480360381019061037d9190611c12565b610c41565b60405161038f9190612495565b60405180910390f35b3480156103a457600080fd5b506103ad610c65565b6040516103ba9190612285565b60405180910390f35b3480156103cf57600080fd5b506103d8610c8b565b005b3480156103e657600080fd5b506103ef610d36565b6040516103fc9190612495565b60405180910390f35b34801561041157600080fd5b5061042c60048036038101906104279190611c12565b610d3c565b60405161043a9291906122a0565b60405180910390f35b34801561044f57600080fd5b50610458610ea2565b005b34801561046657600080fd5b5061046f61139d565b60405161047c9190612314565b60405180910390f35b60015481565b60065481565b600760019054906101000a900460ff1681565b600760009054906101000a900460ff1681565b60006001543410156104fe576040517f08c379a00000000000000000000000000000000000000000000000000000000081526004016104f59061245a565b60405180910390fd5b60025460035410610544576040517f08c379a000000000000000000000000000000000000000000000000000000000815260040161053b906123fa565b60405180910390fd5b6000600c60006003600081548092919061055d90612886565b919050558152602001908152602001600020905085816000019080519060200190610589929190611653565b50848160010190805190602001906105a2929190611653565b50838160020190805190602001906105bb929190611653565b50338160030160006101000a81548173ffffffffffffffffffffffffffffffffffffffff021916908373ffffffffffffffffffffffffffffffffffffffff160217905550828160040190805190602001906106179291906116d9565b50600354915050949350505050565b60008054906101000a900473ffffffffffffffffffffffffffffffffffffffff1681565b60025481565b6060600a60009054906101000a900473ffffffffffffffffffffffffffffffffffffffff1673ffffffffffffffffffffffffffffffffffffffff163373ffffffffffffffffffffffffffffffffffffffff16146106e2576040517f08c379a00000000000000000000000000000000000000000000000000000000081526004016106d99061241a565b60405180910390fd5b6001600760016101000a81548160ff0219169083151502179055506107056113b0565b50600980548060200260200160405190810160405280929190818152602001828054801561075257602002820191906000526020600020905b81548152602001906001019080831161073e575b505050505073__MyMathlib_____________________________630194db8e90916040518263ffffffff1660e01b815260040161078f91906122d0565b60206040518083038186803b1580156107a757600080fd5b505af41580156107bb573d6000803e3d6000fd5b505050506040513d601f19601f820116820180604052508101906107df9190611c3b565b60088190555060006003546008546107f7919061273f565b905060005b600354811015610a1a576000600a60009054906101000a900473ffffffffffffffffffffffffffffffffffffffff16905060008173ffffffffffffffffffffffffffffffffffffffff1663a6e497b6600c600086815260200190815260200160002060030160009054906101000a900473ffffffffffffffffffffffffffffffffffffffff166040518263ffffffff1660e01b815260040161089e9190612285565b60206040518083038186803b1580156108b657600080fd5b505afa1580156108ca573d6000803e3d6000fd5b505050506040513d601f19601f820116820180604052508101906108ee9190611b26565b905060008190508073ffffffffffffffffffffffffffffffffffffffff1663fbf7de84600c6000878152602001908152602001600020600001600c6000888152602001908152602001600020600101600c6000898152602001908152602001600020600201600c60008a815260200190815260200160002060040160098a815481106109a3577f4e487b7100000000000000000000000000000000000000000000000000000000600052603260045260246000fd5b90600052602060002001548b306040518863ffffffff1660e01b81526004016109d2979695949392919061232f565b600060405180830381600087803b1580156109ec57600080fd5b505af1158015610a00573d6000803e3d6000fd5b505050505050508080610a1290612886565b9150506107fc565b506009805480602002602001604051908101604052809291908181526020018280548015610a6757602002820191906000526020600020905b815481526020019060010190808311610a53575b505050505091505090565b60085481565b6000600c6000838152602001908152602001600020905060008160050160003373ffffffffffffffffffffffffffffffffffffffff1673ffffffffffffffffffffffffffffffffffffffff168152602001908152602001600020541415610b3f5780600601339080600181540180825580915050600190039060005260206000200160009091909190916101000a81548173ffffffffffffffffffffffffffffffffffffffff021916908373ffffffffffffffffffffffffffffffffffffffff1602179055505b64e8d4a5100034610b50919061273f565b816007016000828254610b6391906126e9565b9250508190555064e8d4a5100034610b7b919061273f565b8160050160003373ffffffffffffffffffffffffffffffffffffffff1673ffffffffffffffffffffffffffffffffffffffff1681526020019081526020016000206000828254610bcb91906126e9565b925050819055505050565b60048181548110610be657600080fd5b906000526020600020016000915054906101000a900473ffffffffffffffffffffffffffffffffffffffff1681565b600560009054906101000a900473ffffffffffffffffffffffffffffffffffffffff1681565b60035481565b60098181548110610c5157600080fd5b906000526020600020016000915090505481565b600a60009054906101000a900473ffffffffffffffffffffffffffffffffffffffff1681565b60008054906101000a900473ffffffffffffffffffffffffffffffffffffffff1673ffffffffffffffffffffffffffffffffffffffff163373ffffffffffffffffffffffffffffffffffffffff1614610d19576040517f08c379a0000000000000000000000000000000000000000000000000000000008152600401610d10906123da565b60405180910390fd5b6001600760006101000a81548160ff021916908315150217905550565b600b5481565b60006060600c600084815260200190815260200160002060030160009054906101000a900473ffffffffffffffffffffffffffffffffffffffff16600c600085815260200190815260200160002060040180805480602002602001604051908101604052809291908181526020016000905b82821015610e935783829060005260206000209060140201601480602002604051908101604052809291906000905b82821015610e80578382018054610df390612854565b80601f0160208091040260200160405190810160405280929190818152602001828054610e1f90612854565b8015610e6c5780601f10610e4157610100808354040283529160200191610e6c565b820191906000526020600020905b815481529060010190602001808311610e4f57829003601f168201915b505050505081526020019060010190610ddd565b5050505081526020019060010190610dae565b50505050905091509150915091565b60008054906101000a900473ffffffffffffffffffffffffffffffffffffffff1673ffffffffffffffffffffffffffffffffffffffff163373ffffffffffffffffffffffffffffffffffffffff1614610f30576040517f08c379a0000000000000000000000000000000000000000000000000000000008152600401610f27906123ba565b60405180910390fd5b600047905060005b600354811015611330576000600c600083815260200190815260200160002090508060030160009054906101000a900473ffffffffffffffffffffffffffffffffffffffff1673ffffffffffffffffffffffffffffffffffffffff166108fc600854600a610fa69190612770565b8560098681548110610fe1577f4e487b7100000000000000000000000000000000000000000000000000000000600052603260045260246000fd5b90600052602060002001546003610ff89190612770565b6110029190612770565b61100c919061273f565b9081150290604051600060405180830381858888f19350505050158015611037573d6000803e3d6000fd5b5060005b816006018054905081101561131b576000826006018281548110611088577f4e487b7100000000000000000000000000000000000000000000000000000000600052603260045260246000fd5b9060005260206000200160009054906101000a900473ffffffffffffffffffffffffffffffffffffffff1690506000600a60009054906101000a900473ffffffffffffffffffffffffffffffffffffffff16905060008173ffffffffffffffffffffffffffffffffffffffff1663a6e497b6866006018681548110611136577f4e487b7100000000000000000000000000000000000000000000000000000000600052603260045260246000fd5b9060005260206000200160009054906101000a900473ffffffffffffffffffffffffffffffffffffffff166040518263ffffffff1660e01b815260040161117d9190612285565b60206040518083038186803b15801561119557600080fd5b505afa1580156111a9573d6000803e3d6000fd5b505050506040513d601f19601f820116820180604052508101906111cd9190611b26565b905060008190508073ffffffffffffffffffffffffffffffffffffffff1663f76541768760070154600854600a6112049190612770565b61120e9190612770565b8860050160008873ffffffffffffffffffffffffffffffffffffffff1673ffffffffffffffffffffffffffffffffffffffff168152602001908152602001600020548b60098c8154811061128b577f4e487b7100000000000000000000000000000000000000000000000000000000600052603260045260246000fd5b906000526020600020015460066112a29190612770565b6112ac9190612770565b6112b69190612770565b6112c0919061273f565b6040518263ffffffff1660e01b81526004016000604051808303818588803b1580156112eb57600080fd5b505af11580156112ff573d6000803e3d6000fd5b505050505050505050808061131390612886565b91505061103b565b5050808061132890612886565b915050610f38565b50600560009054906101000a900473ffffffffffffffffffffffffffffffffffffffff1673ffffffffffffffffffffffffffffffffffffffff166108fc479081150290604051600060405180830381858888f19350505050158015611399573d6000803e3d6000fd5b5050565b600760029054906101000a900460ff1681565b60606001600760016101000a81548160ff021916908315150217905561140b576040517f08c379a00000000000000000000000000000000000000000000000000000000081526004016114029061243a565b60405180910390fd5b60608060099080519060200190611423929190611737565b5060005b6003548110156115fb57600080600c6000848152602001908152602001600020905060005b81600601805490508110156115b1576000826006018281548110611499577f4e487b7100000000000000000000000000000000000000000000000000000000600052603260045260246000fd5b9060005260206000200160009054906101000a900473ffffffffffffffffffffffffffffffffffffffff1690508260050160008273ffffffffffffffffffffffffffffffffffffffff1673ffffffffffffffffffffffffffffffffffffffff1681526020019081526020016000205473__MyMathlib_____________________________63677342ce90916040518263ffffffff1660e01b8152600401611540919061247a565b60206040518083038186803b15801561155857600080fd5b505af415801561156c573d6000803e3d6000fd5b505050506040513d601f19601f820116820180604052508101906115909190611c3b565b8461159b91906126e9565b93505080806115a990612886565b91505061144c565b50600982836115c09190612770565b9080600181540180825580915050600190039060005260206000200160009091909190915055505080806115f390612886565b915050611427565b50600980548060200260200160405190810160405280929190818152602001828054801561164857602002820191906000526020600020905b815481526020019060010190808311611634575b505050505091505090565b82805461165f90612854565b90600052602060002090601f01602090048101928261168157600085556116c8565b82601f1061169a57805160ff19168380011785556116c8565b828001600101855582156116c8579182015b828111156116c75782518255916020019190600101906116ac565b5b5090506116d59190611784565b5090565b828054828255906000526020600020906014028101928215611726579160200282015b82811115611725578251829060146117159291906117a1565b50916020019190601401906116fc565b5b50905061173391906117f4565b5090565b828054828255906000526020600020908101928215611773579160200282015b82811115611772578251825591602001919060010190611757565b5b5090506117809190611784565b5090565b5b8082111561179d576000816000905550600101611785565b5090565b82601481019282156117e3579160200282015b828111156117e25782518290805190602001906117d2929190611818565b50916020019190600101906117b4565b5b5090506117f0919061189e565b5090565b5b80821115611814576000818161180b91906118c2565b506014016117f5565b5090565b82805461182490612854565b90600052602060002090601f016020900481019282611846576000855561188d565b82601f1061185f57805160ff191683800117855561188d565b8280016001018555821561188d579182015b8281111561188c578251825591602001919060010190611871565b5b50905061189a9190611784565b5090565b5b808211156118be57600081816118b591906118d5565b5060010161189f565b5090565b5080601401906118d2919061189e565b50565b5080546118e190612854565b6000825580601f106118f35750611912565b601f0160209004906000526020600020908101906119119190611784565b5b50565b6000611928611923846124e1565b6124b0565b9050808382526020820190508260005b85811015611968578135850161194e8882611a81565b845260208401935060208301925050600181019050611938565b5050509392505050565b60006119856119808461250d565b6124b0565b9050808260005b858110156119bc57813585016119a28882611aa8565b84526020840193506020830192505060018101905061198c565b5050509392505050565b60006119d96119d484612533565b6124b0565b9050828152602081018484840111156119f157600080fd5b6119fc848285612812565b509392505050565b6000611a17611a1284612563565b6124b0565b905082815260208101848484011115611a2f57600080fd5b611a3a848285612812565b509392505050565b600081519050611a518161299c565b92915050565b600082601f830112611a6857600080fd5b8135611a78848260208601611915565b91505092915050565b600082601f830112611a9257600080fd5b6014611a9f848285611972565b91505092915050565b600082601f830112611ab957600080fd5b8135611ac98482602086016119c6565b91505092915050565b600082601f830112611ae357600080fd5b8135611af3848260208601611a04565b91505092915050565b600081359050611b0b816129b3565b92915050565b600081519050611b20816129b3565b92915050565b600060208284031215611b3857600080fd5b6000611b4684828501611a42565b91505092915050565b60008060008060808587031215611b6557600080fd5b600085013567ffffffffffffffff811115611b7f57600080fd5b611b8b87828801611ad2565b945050602085013567ffffffffffffffff811115611ba857600080fd5b611bb487828801611ad2565b935050604085013567ffffffffffffffff811115611bd157600080fd5b611bdd87828801611ad2565b925050606085013567ffffffffffffffff811115611bfa57600080fd5b611c0687828801611a57565b91505092959194509250565b600060208284031215611c2457600080fd5b6000611c3284828501611afc565b91505092915050565b600060208284031215611c4d57600080fd5b6000611c5b84828501611b11565b91505092915050565b6000611c708383611ddc565b905092915050565b6000611c848383611e51565b905092915050565b6000611c988383611f90565b905092915050565b6000611cac8383611fc9565b905092915050565b6000611cc08383612249565b60208301905092915050565b6000611cd88383612276565b60208301905092915050565b611ced816127ca565b82525050565b6000611cfe82612606565b611d088185612689565b935083602082028501611d1a85612593565b8060005b85811015611d565784840389528151611d378582611c64565b9450611d4283612648565b925060208a01995050600181019050611d1e565b50829750879550505050505092915050565b6000611d7382612611565b611d7d8185612689565b935083602082028501611d8f856125a3565b8060005b85811015611dca57848403895281611dab8582611c78565b9450611db683612655565b925060208a01995050600181019050611d93565b50829750879550505050505092915050565b6000611de78261261c565b611df1818561269a565b935083602082028501611e03856125b8565b8060005b85811015611e3f5784840389528151611e208582611c8c565b9450611e2b83612662565b925060208a01995050600181019050611e07565b50829750879550505050505092915050565b6000611e5c82612627565b611e66818561269a565b935083602082028501611e78856125c2565b8060005b85811015611eb357848403895281611e948582611ca0565b9450611e9f8361266f565b925060208a01995050600181019050611e7c565b50829750879550505050505092915050565b6000611ed082612632565b611eda81856126a5565b9350611ee5836125cc565b8060005b83811015611f16578151611efd8882611cb4565b9750611f088361267c565b925050600181019050611ee9565b5085935050505092915050565b6000611f2e82612632565b611f3881856126b6565b9350611f43836125cc565b8060005b83811015611f74578151611f5b8882611ccc565b9750611f668361267c565b925050600181019050611f47565b5085935050505092915050565b611f8a816127dc565b82525050565b6000611f9b8261263d565b611fa581856126c7565b9350611fb5818560208601612821565b611fbe8161298b565b840191505092915050565b60008154611fd681612854565b611fe081866126c7565b94506001821660008114611ffb576001811461200d57612040565b60ff1983168652602086019350612040565b612016856125dc565b60005b8381101561203857815481890152600182019150602081019050612019565b808801955050505b50505092915050565b6000815461205681612854565b61206081866126d8565b9450600182166000811461207b576001811461208d576120c0565b60ff19831686526020860193506120c0565b612096856125f1565b60005b838110156120b857815481890152600182019150602081019050612099565b808801955050505b50505092915050565b60006120d66011836126d8565b91507f6f6e6c79206f7267616e697a6174696f6e0000000000000000000000000000006000830152602082019050919050565b6000612116600e836126d8565b91507f6f6e6c79206d6f64657261746f720000000000000000000000000000000000006000830152602082019050919050565b60006121566015836126d8565b91507f4d6178696d756d206c696d6974207265616368656400000000000000000000006000830152602082019050919050565b6000612196600b836126d8565b91507f6f6e6c79206b6e697474730000000000000000000000000000000000000000006000830152602082019050919050565b60006121d66016836126d8565b91507f7468652067616d6520686173206e6f7420656e646564000000000000000000006000830152602082019050919050565b60006122166016836126d8565b91507f496e73756666696369656e7420656e74727920666565000000000000000000006000830152602082019050919050565b61225281612808565b82525050565b61226181612808565b82525050565b61227081612808565b82525050565b61227f81612808565b82525050565b600060208201905061229a6000830184611ce4565b92915050565b60006040820190506122b56000830185611ce4565b81810360208301526122c78184611cf3565b90509392505050565b600060208201905081810360008301526122ea8184611f23565b905092915050565b6000602082019050818103600083015261230c8184611ec5565b905092915050565b60006020820190506123296000830184611f81565b92915050565b600060e0820190508181036000830152612349818a612049565b9050818103602083015261235d8189612049565b905081810360408301526123718188612049565b905081810360608301526123858187611d68565b90506123946080830186612258565b6123a160a0830185612258565b6123ae60c0830184611ce4565b98975050505050505050565b600060208201905081810360008301526123d3816120c9565b9050919050565b600060208201905081810360008301526123f381612109565b9050919050565b6000602082019050818103600083015261241381612149565b9050919050565b6000602082019050818103600083015261243381612189565b9050919050565b60006020820190508181036000830152612453816121c9565b9050919050565b6000602082019050818103600083015261247381612209565b9050919050565b600060208201905061248f6000830184612267565b92915050565b60006020820190506124aa6000830184612258565b92915050565b6000604051905081810181811067ffffffffffffffff821117156124d7576124d661295c565b5b8060405250919050565b600067ffffffffffffffff8211156124fc576124fb61295c565b5b602082029050602081019050919050565b600067ffffffffffffffff8211156125285761252761295c565b5b602082029050919050565b600067ffffffffffffffff82111561254e5761254d61295c565b5b601f19601f8301169050602081019050919050565b600067ffffffffffffffff82111561257e5761257d61295c565b5b601f19601f8301169050602081019050919050565b6000819050602082019050919050565b60008190508160005260206000209050919050565b6000819050919050565b6000819050919050565b6000819050602082019050919050565b60008190508160005260206000209050919050565b60008190508160005260206000209050919050565b600081519050919050565b600081549050919050565b600060149050919050565b600060149050919050565b600081519050919050565b600081519050919050565b6000602082019050919050565b6000601482019050919050565b6000602082019050919050565b6000600182019050919050565b6000602082019050919050565b600082825260208201905092915050565b600081905092915050565b600082825260208201905092915050565b600082825260208201905092915050565b600082825260208201905092915050565b600082825260208201905092915050565b60006126f482612808565b91506126ff83612808565b9250827fffffffffffffffffffffffffffffffffffffffffffffffffffffffffffffffff03821115612734576127336128cf565b5b828201905092915050565b600061274a82612808565b915061275583612808565b925082612765576127646128fe565b5b828204905092915050565b600061277b82612808565b915061278683612808565b9250817fffffffffffffffffffffffffffffffffffffffffffffffffffffffffffffffff04831182151516156127bf576127be6128cf565b5b828202905092915050565b60006127d5826127e8565b9050919050565b60008115159050919050565b600073ffffffffffffffffffffffffffffffffffffffff82169050919050565b6000819050919050565b82818337600083830152505050565b60005b8381101561283f578082015181840152602081019050612824565b8381111561284e576000848401525b50505050565b6000600282049050600182168061286c57607f821691505b602082108114156128805761287f61292d565b5b50919050565b600061289182612808565b91507fffffffffffffffffffffffffffffffffffffffffffffffffffffffffffffffff8214156128c4576128c36128cf565b5b600182019050919050565b7f4e487b7100000000000000000000000000000000000000000000000000000000600052601160045260246000fd5b7f4e487b7100000000000000000000000000000000000000000000000000000000600052601260045260246000fd5b7f4e487b7100000000000000000000000000000000000000000000000000000000600052602260045260246000fd5b7f4e487b7100000000000000000000000000000000000000000000000000000000600052604160045260246000fd5b6000601f19601f8301169050919050565b6129a5816127ca565b81146129b057600080fd5b50565b6129bc81612808565b81146129c757600080fd5b5056fea2646970667358221220f246c142de4bc3d29a17fc15b955599d69eb202583e606a94391d1d4fa3d3ef964736f6c63430008000033",
  "immutableReferences": {},
  "source": "// SPDX-License-Identifier: MIT\r\npragma solidity >=0.8.0;\r\n\r\nimport \"@openzeppelin/contracts/token/ERC721/extensions/ERC721URIStorage.sol\"; \r\nimport \"@openzeppelin/contracts/access/Ownable.sol\";\r\nimport \"@openzeppelin/contracts/utils/Counters.sol\";\r\n\r\n\r\nlibrary MyMathlib{\r\n    function sqrt(uint num) public pure returns(uint){\r\n        uint start = 1;\r\n        uint end = num;\r\n        uint mid = start;\r\n        while(start < end){\r\n            mid = start + (end - start)/2;\r\n            if(mid * mid >= num){\r\n                end = mid;\r\n            }else{\r\n                start = mid+1;\r\n            }\r\n        }\r\n        return end;\r\n    }\r\n\r\n    function sum(uint[] memory arr) public pure returns (uint){\r\n        uint buf = 0;\r\n        for(uint i=0; i<arr.length; i++){\r\n            buf += arr[i];\r\n        }\r\n        return buf;\r\n    }\r\n}\r\n\r\n\r\ncontract Knitts{\r\n    address public organization = 0x79e6234Ff4E7DB556F916FeBcE9e52a68D0B8879;\r\n    mapping(address => uint) public deposits;\r\n    address[] public Leagues;\r\n    uint public numLeagues=0;\r\n  \taddress[] public Users;\r\n  \tmapping(address => address) public idToUser; \r\n  \t\r\n    // function depositMore() public payable{\r\n    //     require(msg.value > 0, \"You need to deposit some amount\");\r\n    //     deposits[msg.sender] += msg.value;\r\n    // }\r\n\r\n    function createLeague(uint _entryFee, uint _numPlayers, uint _duration) public payable returns (address[] memory){\r\n        deposits[msg.sender] += msg.value;\r\n        require(_entryFee * _numPlayers <= deposits[msg.sender], \"Insufficient deposit\");\r\n        League newLeague = new League(msg.sender, _entryFee, _numPlayers, _duration, address(this));\r\n        numLeagues += 1;\r\n        Leagues.push(address(newLeague));\r\n        return Leagues;\r\n    }\r\n\r\n\r\n    function getBalance(address _moderator) public view returns (uint){\r\n        return deposits[_moderator];\r\n    }\r\n\r\n  \r\n  \tfunction getUserContractAddress(address _id) public view returns(address) {\r\n        return idToUser[_id];\r\n    }\r\n\r\n    function register(address id, address userContract) public {\r\n        idToUser[id] = userContract;\r\n    }\r\n}\r\n\r\ncontract League{\r\n    using  MyMathlib for *;\r\n    address public organization;\r\n    uint public entryFee;\r\n    uint public maxParticipants;\r\n    uint public numProjects;\r\n    address [] public participants;\r\n    address public moderator;\r\n    uint public duration;\r\n    bool public started;\r\n    bool public ended;\r\n    bool public distributed;\r\n  \tuint public total_points=0;\r\n    uint [] public points;\r\n    address public knittsAddress;\r\n    uint public deposit;\r\n\r\n    struct project{\r\n        string title;\r\n        string url;\r\n        string image;\r\n        address owner;\r\n        bytes[20][] description;\r\n        mapping(address => uint)investments;\r\n        address[] investors;\r\n        uint total_fund;\r\n    }\r\n\t\t\r\n    mapping(uint => project) projects;\r\n\r\n    constructor(address _moderator, uint _entryFee, uint _maxParticipants, uint _duration, address _knittsAddress){\r\n        entryFee = _entryFee;\r\n        maxParticipants = _maxParticipants;\r\n        moderator = _moderator;\r\n        duration = _duration;\r\n        numProjects = 0;\r\n        started=false;\r\n        ended=false;\r\n        distributed=false;\r\n        organization = _moderator; // for local testing\r\n        knittsAddress = _knittsAddress;\r\n    }\r\n\r\n    function submitIdea(string memory title, string memory url, string memory image, bytes[20][] memory description) external payable returns(uint){\r\n        require(msg.value >= entryFee, \"Insufficient entry fee\");\r\n        require(numProjects < maxParticipants, \"Maximum limit reached\");\r\n        project storage p = projects[numProjects++];\r\n        p.title = title;\r\n        p.url = url;\r\n        p.image = image;\r\n        p.owner = msg.sender;\r\n        p.description = description;\r\n        return numProjects;\r\n    }\r\n\r\n    function invest(uint projectId) external payable{\r\n        project storage p = projects[projectId];\r\n        if(p.investments[msg.sender] == 0){\r\n            p.investors.push(msg.sender);\r\n        }\r\n        p.total_fund += msg.value/1e12;\r\n        p.investments[msg.sender] += msg.value/1e12;\r\n        \r\n    }\r\n\r\n    function startLeague() external {\r\n        require(msg.sender == organization, \"only moderator\");\r\n        started=true;\r\n    }\r\n\r\n    function endLeague() external returns(uint[] memory){\r\n        require(msg.sender == knittsAddress, \"only knitts\");\r\n        ended=true;\r\n        getPoints();\r\n      \ttotal_points = points.sum();\r\n        uint averagePoints = total_points / numProjects;\r\n      \r\n      \tfor(uint i=0;i<numProjects; i++) {\r\n            Knitts _knitts = Knitts(knittsAddress);\r\n            address _userId = _knitts.getUserContractAddress(projects[i].owner);\r\n            User _user = User(_userId);\r\n            _user.addProject(projects[i].title, projects[i].url, projects[i].image, projects[i].description, points[i] , averagePoints, address(this) );\r\n        } \r\n\r\n        return points;\r\n    }\r\n\r\n    function getPoints() internal returns(uint[] memory){\r\n        require(ended = true, \"the game has not ended\");\r\n        uint [] memory empty_points;\r\n        points = empty_points;\r\n        for(uint i=0; i < numProjects; i++){\r\n            uint buf = 0;\r\n            project storage p = projects[i];\r\n            for(uint j=0; j< p.investors.length; j++){\r\n                address inv = p.investors[j];\r\n                buf += (p.investments[inv]).sqrt();\r\n            }\r\n            points.push(buf * buf);\r\n        }\r\n        \r\n        return points;\r\n    }\r\n\r\n    function distribute() external {\r\n        require(msg.sender == organization, \"only organization\");\r\n        uint total_balance = address(this).balance;\r\n        \r\n        for(uint i=0; i<numProjects; i++){\r\n            project storage p  =  projects[i];\r\n            \r\n            payable(p.owner).transfer( (3*points[i]*total_balance)/(10*total_points) );\r\n\r\n            for(uint j=0; j<p.investors.length; j++){\r\n                address investor = p.investors[j];\r\n                Knitts _knitts = Knitts(knittsAddress);\r\n                address _userId = _knitts.getUserContractAddress(p.investors[j]);\r\n                User _user = User(_userId);\r\n                _user.split{value:(6 * points[i] * total_balance * p.investments[investor]) / (10 * total_points * p.total_fund)}();\r\n            }\r\n        }\r\n\r\n        payable(moderator).transfer(address(this).balance);\r\n\r\n    }\r\n\r\n    function submissionDetails(uint projectId) external view returns(\r\n        address, // project owner\r\n        bytes[20][] memory // description\r\n    )  {\r\n        return (projects[projectId].owner, projects[projectId].description);\r\n    }\r\n\r\n    \r\n}\r\n\r\n\r\ncontract User {\r\n    string name;\r\n  \taddress id; //metamask address of corresponding user\r\n  \tuint numProjects=0;\r\n    address[] public NFTs_created;\r\n    bool public pending_nfts = false;\r\n    constructor( address _id, string memory _name ) {\r\n        name = _name;\r\n        id = _id;\r\n    }\r\n\r\n    struct project{\r\n        string title;\r\n        string url;\r\n        string image;\r\n            bytes[20][] description;\r\n            uint point;\r\n            uint average_point;\r\n            address submittedOn;\r\n    }\r\n\r\n        project[20] public projects;\r\n    \r\n    function addProject(string memory title, string memory url, string memory image, bytes[20][] memory description, uint point, uint average_point, address submittedOn) public {\r\n        project storage p = projects[numProjects++];\r\n        p.title = title;\r\n        p.url = url;\r\n        p.image = image;\r\n        p.description = description;\r\n        p.point = point;\r\n        p.average_point = average_point;\r\n        p.submittedOn = submittedOn;\r\n    }\r\n    \r\n\r\n    function createNFT(uint _bronze, uint price) public returns(address [] memory){\r\n        require(_bronze <= 10, \"You can create only 10 bronzes\");\r\n        require(pending_nfts == false, \"There are pending nfts still\");\r\n        require(msg.sender == id, \"wrong user account\");\r\n        for(uint i=0; i<_bronze; i++){\r\n            NFT new_nft = new NFT(id, \"Bronze\", \"B\", id, 'https://s3.envato.com/files/235568921/preview.jpg', 1, price);\r\n            NFTs_created.push(address(new_nft));\r\n        }\r\n        pending_nfts = true;\r\n        return NFTs_created;\r\n    }\r\n\r\n    function split() public payable {\r\n        uint value = (msg.value * 95) / 100;\r\n        if(pending_nfts){\r\n            for(uint i=0; i<NFTs_created.length; i++){\r\n                NFT nft = NFT(NFTs_created[i]);\r\n                payable(nft.ownerOf(1)).transfer((value)/10);\r\n            }\r\n            scratchNFTs();\r\n        }\r\n        \r\n        payable(id).transfer(address(this).balance);\r\n    }\r\n\r\n    function scratchNFTs() internal returns(uint){\r\n        uint rem = 0;\r\n        for(uint i=0; i<NFTs_created.length; i++){\r\n            NFT new_nft =  NFT(NFTs_created[i]);\r\n            rem = new_nft.scratchCard();\r\n        }\r\n        if(rem == 0){\r\n            pending_nfts = false;\r\n            address [] memory temp;\r\n            NFTs_created = temp;\r\n        }\r\n        return rem;\r\n    }\r\n  \r\n}\r\n\r\ncontract NFT is ERC721URIStorage, Ownable{\r\n    using Counters for Counters.Counter;\r\n    Counters.Counter private _tokenIds;\r\n    address nft_creator;\r\n    uint leaguesMore;\r\n    uint price;\r\n    uint newItemId;\r\n    constructor(address _creator, string memory _name, string memory _symbol, address _player, string memory _tokenURI, uint _leaguesMore, uint _price) ERC721(_name, _symbol){\r\n        nft_creator = _creator;\r\n        leaguesMore = _leaguesMore;\r\n        _tokenIds.increment();\r\n        newItemId = _tokenIds.current();\r\n        _mint(_player, newItemId);\r\n        _setTokenURI(newItemId, _tokenURI);\r\n        _approve(address(this), newItemId);\r\n        price = _price;\r\n    }\r\n\r\n    function scratchCard() public returns (uint){\r\n        require(leaguesMore > 0, \"expired\");\r\n        leaguesMore -= 1;\r\n        if(leaguesMore == 0){\r\n            _burn(1);\r\n        }\r\n        return leaguesMore;\r\n    }\r\n\r\n    function updatePrice(uint _price) external onlyOwner {\r\n        price = _price;\r\n    }\r\n\r\n    function buy() external payable {\r\n        require(msg.value >= price, \"costs more\");\r\n        address old_owner = ownerOf(newItemId);\r\n        _transfer(old_owner, address(this), newItemId);\r\n        _approve(msg.sender, newItemId);\r\n        payable(old_owner).transfer(address(this).balance);\r\n    } \r\n\r\n}\r\n\r\n",
  "sourcePath": "E:\\projects\\knitts\\back-end\\contracts\\League.sol",
  "compiler": {
    "name": "solc",
    "version": "0.8.0+commit.c7dfd78e.Emscripten.clang"
  },
  "schemaVersion": "3.4.3",
  "updatedAt": "2021-10-03T05:43:16.444Z",
  "devdoc": {
    "kind": "dev",
    "methods": {},
    "version": 1
  },
  "userdoc": {
    "kind": "user",
    "methods": {},
    "version": 1
  }
}