{
  "contractName": "League",
  "abi": [
    {
      "inputs": [
        {
          "internalType": "address",
          "name": "_moderator",
          "type": "address"
        },
        {
          "internalType": "uint256",
          "name": "_entryFee",
          "type": "uint256"
        },
        {
          "internalType": "uint256",
          "name": "_maxParticipants",
          "type": "uint256"
        },
        {
          "internalType": "uint256",
          "name": "_duration",
          "type": "uint256"
        },
        {
          "internalType": "address",
          "name": "_knittsAddress",
          "type": "address"
        }
      ],
      "stateMutability": "nonpayable",
      "type": "constructor"
    },
    {
      "inputs": [],
      "name": "distributed",
      "outputs": [
        {
          "internalType": "bool",
          "name": "",
          "type": "bool"
        }
      ],
      "stateMutability": "view",
      "type": "function",
      "constant": true
    },
    {
      "inputs": [],
      "name": "duration",
      "outputs": [
        {
          "internalType": "uint256",
          "name": "",
          "type": "uint256"
        }
      ],
      "stateMutability": "view",
      "type": "function",
      "constant": true
    },
    {
      "inputs": [],
      "name": "ended",
      "outputs": [
        {
          "internalType": "bool",
          "name": "",
          "type": "bool"
        }
      ],
      "stateMutability": "view",
      "type": "function",
      "constant": true
    },
    {
      "inputs": [],
      "name": "entryFee",
      "outputs": [
        {
          "internalType": "uint256",
          "name": "",
          "type": "uint256"
        }
      ],
      "stateMutability": "view",
      "type": "function",
      "constant": true
    },
    {
      "inputs": [],
      "name": "knittsAddress",
      "outputs": [
        {
          "internalType": "address",
          "name": "",
          "type": "address"
        }
      ],
      "stateMutability": "view",
      "type": "function",
      "constant": true
    },
    {
      "inputs": [],
      "name": "maxParticipants",
      "outputs": [
        {
          "internalType": "uint256",
          "name": "",
          "type": "uint256"
        }
      ],
      "stateMutability": "view",
      "type": "function",
      "constant": true
    },
    {
      "inputs": [],
      "name": "moderator",
      "outputs": [
        {
          "internalType": "address",
          "name": "",
          "type": "address"
        }
      ],
      "stateMutability": "view",
      "type": "function",
      "constant": true
    },
    {
      "inputs": [],
      "name": "numProjects",
      "outputs": [
        {
          "internalType": "uint256",
          "name": "",
          "type": "uint256"
        }
      ],
      "stateMutability": "view",
      "type": "function",
      "constant": true
    },
    {
      "inputs": [],
      "name": "organization",
      "outputs": [
        {
          "internalType": "address",
          "name": "",
          "type": "address"
        }
      ],
      "stateMutability": "view",
      "type": "function",
      "constant": true
    },
    {
      "inputs": [
        {
          "internalType": "uint256",
          "name": "",
          "type": "uint256"
        }
      ],
      "name": "participants",
      "outputs": [
        {
          "internalType": "address",
          "name": "",
          "type": "address"
        }
      ],
      "stateMutability": "view",
      "type": "function",
      "constant": true
    },
    {
      "inputs": [
        {
          "internalType": "uint256",
          "name": "",
          "type": "uint256"
        }
      ],
      "name": "points",
      "outputs": [
        {
          "internalType": "uint256",
          "name": "",
          "type": "uint256"
        }
      ],
      "stateMutability": "view",
      "type": "function",
      "constant": true
    },
    {
      "inputs": [],
      "name": "started",
      "outputs": [
        {
          "internalType": "bool",
          "name": "",
          "type": "bool"
        }
      ],
      "stateMutability": "view",
      "type": "function",
      "constant": true
    },
    {
      "inputs": [],
      "name": "total_points",
      "outputs": [
        {
          "internalType": "uint256",
          "name": "",
          "type": "uint256"
        }
      ],
      "stateMutability": "view",
      "type": "function",
      "constant": true
    },
    {
      "inputs": [
        {
          "internalType": "string",
          "name": "title",
          "type": "string"
        },
        {
          "internalType": "string",
          "name": "url",
          "type": "string"
        },
        {
          "internalType": "string",
          "name": "image",
          "type": "string"
        },
        {
          "internalType": "bytes[20][]",
          "name": "description",
          "type": "bytes[20][]"
        }
      ],
      "name": "submitIdea",
      "outputs": [
        {
          "internalType": "uint256",
          "name": "",
          "type": "uint256"
        }
      ],
      "stateMutability": "payable",
      "type": "function",
      "payable": true
    },
    {
      "inputs": [
        {
          "internalType": "uint256",
          "name": "projectId",
          "type": "uint256"
        }
      ],
      "name": "invest",
      "outputs": [],
      "stateMutability": "payable",
      "type": "function",
      "payable": true
    },
    {
      "inputs": [],
      "name": "startLeague",
      "outputs": [],
      "stateMutability": "nonpayable",
      "type": "function"
    },
    {
      "inputs": [],
      "name": "endLeague",
      "outputs": [
        {
          "internalType": "uint256[]",
          "name": "",
          "type": "uint256[]"
        }
      ],
      "stateMutability": "nonpayable",
      "type": "function"
    },
    {
      "inputs": [],
      "name": "distribute",
      "outputs": [],
      "stateMutability": "nonpayable",
      "type": "function"
    },
    {
      "inputs": [
        {
          "internalType": "uint256",
          "name": "projectId",
          "type": "uint256"
        }
      ],
      "name": "submissionDetails",
      "outputs": [
        {
          "internalType": "address",
          "name": "",
          "type": "address"
        },
        {
          "internalType": "bytes[20][]",
          "name": "",
          "type": "bytes[20][]"
        }
      ],
      "stateMutability": "view",
      "type": "function",
      "constant": true
    }
  ],
  "bytecode": "0x608060405260006008553480156200001657600080fd5b50604051620029da380380620029da83398181016040528101906200003c9190620001a5565b836001819055508260028190555084600560006101000a81548173ffffffffffffffffffffffffffffffffffffffff021916908373ffffffffffffffffffffffffffffffffffffffff1602179055508160068190555060006003819055506000600760006101000a81548160ff0219169083151502179055506000600760016101000a81548160ff0219169083151502179055506000600760026101000a81548160ff021916908315150217905550846000806101000a81548173ffffffffffffffffffffffffffffffffffffffff021916908373ffffffffffffffffffffffffffffffffffffffff16021790555080600a60006101000a81548173ffffffffffffffffffffffffffffffffffffffff021916908373ffffffffffffffffffffffffffffffffffffffff160217905550505050505062000299565b600081519050620001888162000265565b92915050565b6000815190506200019f816200027f565b92915050565b600080600080600060a08688031215620001be57600080fd5b6000620001ce8882890162000177565b9550506020620001e1888289016200018e565b9450506040620001f4888289016200018e565b935050606062000207888289016200018e565b92505060806200021a8882890162000177565b9150509295509295909350565b600062000234826200023b565b9050919050565b600073ffffffffffffffffffffffffffffffffffffffff82169050919050565b6000819050919050565b620002708162000227565b81146200027c57600080fd5b50565b6200028a816200025b565b81146200029657600080fd5b50565b61273180620002a96000396000f3fe6080604052600436106101145760003560e01c80632afcf480116100a0578063a19eb3c611610064578063a19eb3c61461038d578063c3b7a80f146103b8578063d235407b146103cf578063e4fc6b6d1461040d578063f84b903e1461042457610114565b80632afcf480146102a157806335c1d349146102bd57806338743904146102fa5780635a067baa146103255780639799b4e71461035057610114565b80632185ce83116100e75780632185ce83146101c557806323bd4d7a146101f557806324924bf71461022057806324fd79181461024b57806325d5eafa1461027657610114565b8063072ea61c146101195780630fb5a6b41461014457806312fa6feb1461016f5780631f2698ab1461019a575b600080fd5b34801561012557600080fd5b5061012e61044f565b60405161013b91906121a3565b60405180910390f35b34801561015057600080fd5b50610159610455565b60405161016691906121a3565b60405180910390f35b34801561017b57600080fd5b5061018461045b565b604051610191919061205d565b60405180910390f35b3480156101a657600080fd5b506101af61046e565b6040516101bc919061205d565b60405180910390f35b6101df60048036038101906101da91906119b7565b610481565b6040516101ec91906121a3565b60405180910390f35b34801561020157600080fd5b5061020a6105f0565b6040516102179190611ff0565b60405180910390f35b34801561022c57600080fd5b50610235610614565b60405161024291906121a3565b60405180910390f35b34801561025757600080fd5b5061026061061a565b60405161026d919061203b565b60405180910390f35b34801561028257600080fd5b5061028b6109ba565b60405161029891906121a3565b60405180910390f35b6102bb60048036038101906102b69190611a7a565b6109c0565b005b3480156102c957600080fd5b506102e460048036038101906102df9190611a7a565b610b1e565b6040516102f19190611ff0565b60405180910390f35b34801561030657600080fd5b5061030f610b5d565b60405161031c9190611ff0565b60405180910390f35b34801561033157600080fd5b5061033a610b83565b60405161034791906121a3565b60405180910390f35b34801561035c57600080fd5b5061037760048036038101906103729190611a7a565b610b89565b60405161038491906121a3565b60405180910390f35b34801561039957600080fd5b506103a2610bad565b6040516103af9190611ff0565b60405180910390f35b3480156103c457600080fd5b506103cd610bd3565b005b3480156103db57600080fd5b506103f660048036038101906103f19190611a7a565b610c7e565b60405161040492919061200b565b60405180910390f35b34801561041957600080fd5b50610422610de4565b005b34801561043057600080fd5b506104396111a3565b604051610446919061205d565b60405180910390f35b60015481565b60065481565b600760019054906101000a900460ff1681565b600760009054906101000a900460ff1681565b60006001543410156104c8576040517f08c379a00000000000000000000000000000000000000000000000000000000081526004016104bf90612183565b60405180910390fd5b6002546003541061050e576040517f08c379a000000000000000000000000000000000000000000000000000000000815260040161050590612143565b60405180910390fd5b6000600b600060036000815480929190610527906125b7565b9190505581526020019081526020016000209050858160000190805190602001906105539291906114d0565b508481600101908051906020019061056c9291906114d0565b50838160020190805190602001906105859291906114d0565b50338160030160006101000a81548173ffffffffffffffffffffffffffffffffffffffff021916908373ffffffffffffffffffffffffffffffffffffffff160217905550828160040190805190602001906105e1929190611556565b50600354915050949350505050565b60008054906101000a900473ffffffffffffffffffffffffffffffffffffffff1681565b60025481565b606060008054906101000a900473ffffffffffffffffffffffffffffffffffffffff1673ffffffffffffffffffffffffffffffffffffffff163373ffffffffffffffffffffffffffffffffffffffff16146106aa576040517f08c379a00000000000000000000000000000000000000000000000000000000081526004016106a190612103565b60405180910390fd5b6001600760016101000a81548160ff0219169083151502179055506106cd6111b6565b50610727600980548060200260200160405190810160405280929190818152602001828054801561071d57602002820191906000526020600020905b815481526020019060010190808311610709575b50505050506113d9565b600881905550600060035460085461073f919061243c565b905060005b600354811015610962576000600a60009054906101000a900473ffffffffffffffffffffffffffffffffffffffff16905060008173ffffffffffffffffffffffffffffffffffffffff1663a6e497b6600b600086815260200190815260200160002060030160009054906101000a900473ffffffffffffffffffffffffffffffffffffffff166040518263ffffffff1660e01b81526004016107e69190611ff0565b60206040518083038186803b1580156107fe57600080fd5b505afa158015610812573d6000803e3d6000fd5b505050506040513d601f19601f82011682018060405250810190610836919061198e565b905060008190508073ffffffffffffffffffffffffffffffffffffffff1663fbf7de84600b6000878152602001908152602001600020600001600b6000888152602001908152602001600020600101600b6000898152602001908152602001600020600201600b60008a815260200190815260200160002060040160098a815481106108eb577f4e487b7100000000000000000000000000000000000000000000000000000000600052603260045260246000fd5b90600052602060002001548b306040518863ffffffff1660e01b815260040161091a9796959493929190612078565b600060405180830381600087803b15801561093457600080fd5b505af1158015610948573d6000803e3d6000fd5b50505050505050808061095a906125b7565b915050610744565b5060098054806020026020016040519081016040528092919081815260200182805480156109af57602002820191906000526020600020905b81548152602001906001019080831161099b575b505050505091505090565b60085481565b6000600b6000838152602001908152602001600020905060008160050160003373ffffffffffffffffffffffffffffffffffffffff1673ffffffffffffffffffffffffffffffffffffffff168152602001908152602001600020541415610a875780600601339080600181540180825580915050600190039060005260206000200160009091909190916101000a81548173ffffffffffffffffffffffffffffffffffffffff021916908373ffffffffffffffffffffffffffffffffffffffff1602179055505b64e8d4a5100034610a98919061243c565b816007016000828254610aab91906123e6565b9250508190555064e8d4a5100034610ac3919061243c565b8160050160003373ffffffffffffffffffffffffffffffffffffffff1673ffffffffffffffffffffffffffffffffffffffff1681526020019081526020016000206000828254610b1391906123e6565b925050819055505050565b60048181548110610b2e57600080fd5b906000526020600020016000915054906101000a900473ffffffffffffffffffffffffffffffffffffffff1681565b600560009054906101000a900473ffffffffffffffffffffffffffffffffffffffff1681565b60035481565b60098181548110610b9957600080fd5b906000526020600020016000915090505481565b600a60009054906101000a900473ffffffffffffffffffffffffffffffffffffffff1681565b60008054906101000a900473ffffffffffffffffffffffffffffffffffffffff1673ffffffffffffffffffffffffffffffffffffffff163373ffffffffffffffffffffffffffffffffffffffff1614610c61576040517f08c379a0000000000000000000000000000000000000000000000000000000008152600401610c5890612123565b60405180910390fd5b6001600760006101000a81548160ff021916908315150217905550565b60006060600b600084815260200190815260200160002060030160009054906101000a900473ffffffffffffffffffffffffffffffffffffffff16600b600085815260200190815260200160002060040180805480602002602001604051908101604052809291908181526020016000905b82821015610dd55783829060005260206000209060140201601480602002604051908101604052809291906000905b82821015610dc2578382018054610d3590612585565b80601f0160208091040260200160405190810160405280929190818152602001828054610d6190612585565b8015610dae5780601f10610d8357610100808354040283529160200191610dae565b820191906000526020600020905b815481529060010190602001808311610d9157829003601f168201915b505050505081526020019060010190610d1f565b5050505081526020019060010190610cf0565b50505050905091509150915091565b60008054906101000a900473ffffffffffffffffffffffffffffffffffffffff1673ffffffffffffffffffffffffffffffffffffffff163373ffffffffffffffffffffffffffffffffffffffff1614610e72576040517f08c379a0000000000000000000000000000000000000000000000000000000008152600401610e6990612103565b60405180910390fd5b600047905060005b600354811015611136576000600b600083815260200190815260200160002090508060030160009054906101000a900473ffffffffffffffffffffffffffffffffffffffff1673ffffffffffffffffffffffffffffffffffffffff166108fc600854600a610ee8919061246d565b8560098681548110610f23577f4e487b7100000000000000000000000000000000000000000000000000000000600052603260045260246000fd5b90600052602060002001546003610f3a919061246d565b610f44919061246d565b610f4e919061243c565b9081150290604051600060405180830381858888f19350505050158015610f79573d6000803e3d6000fd5b5060005b8160060180549050811015611121576000826006018281548110610fca577f4e487b7100000000000000000000000000000000000000000000000000000000600052603260045260246000fd5b9060005260206000200160009054906101000a900473ffffffffffffffffffffffffffffffffffffffff1690508073ffffffffffffffffffffffffffffffffffffffff166108fc8460070154600854600a611025919061246d565b61102f919061246d565b8560050160008573ffffffffffffffffffffffffffffffffffffffff1673ffffffffffffffffffffffffffffffffffffffff1681526020019081526020016000205488600989815481106110ac577f4e487b7100000000000000000000000000000000000000000000000000000000600052603260045260246000fd5b906000526020600020015460066110c3919061246d565b6110cd919061246d565b6110d7919061246d565b6110e1919061243c565b9081150290604051600060405180830381858888f1935050505015801561110c573d6000803e3d6000fd5b50508080611119906125b7565b915050610f7d565b5050808061112e906125b7565b915050610e7a565b50600560009054906101000a900473ffffffffffffffffffffffffffffffffffffffff1673ffffffffffffffffffffffffffffffffffffffff166108fc479081150290604051600060405180830381858888f1935050505015801561119f573d6000803e3d6000fd5b5050565b600760029054906101000a900460ff1681565b60606001600760016101000a81548160ff0219169083151502179055611211576040517f08c379a000000000000000000000000000000000000000000000000000000000815260040161120890612163565b60405180910390fd5b606080600990805190602001906112299291906115b4565b5060005b60035481101561138157600080600b6000848152602001908152602001600020905060005b816006018054905081101561133757600082600601828154811061129f577f4e487b7100000000000000000000000000000000000000000000000000000000600052603260045260246000fd5b9060005260206000200160009054906101000a900473ffffffffffffffffffffffffffffffffffffffff1690506113168360050160008373ffffffffffffffffffffffffffffffffffffffff1673ffffffffffffffffffffffffffffffffffffffff16815260200190815260200160002054611457565b8461132191906123e6565b935050808061132f906125b7565b915050611252565b5060098283611346919061246d565b908060018154018082558091505060019003906000526020600020016000909190919091505550508080611379906125b7565b91505061122d565b5060098054806020026020016040519081016040528092919081815260200182805480156113ce57602002820191906000526020600020905b8154815260200190600101908083116113ba575b505050505091505090565b6000806000905060005b835181101561144d57838181518110611425577f4e487b7100000000000000000000000000000000000000000000000000000000600052603260045260246000fd5b60200260200101518261143891906123e6565b91508080611445906125b7565b9150506113e3565b5080915050919050565b60008060019050600083905060008290505b818310156114c5576002838361147f91906124c7565b611489919061243c565b8361149491906123e6565b90508481826114a3919061246d565b106114b0578091506114c0565b6001816114bd91906123e6565b92505b611469565b819350505050919050565b8280546114dc90612585565b90600052602060002090601f0160209004810192826114fe5760008555611545565b82601f1061151757805160ff1916838001178555611545565b82800160010185558215611545579182015b82811115611544578251825591602001919060010190611529565b5b5090506115529190611601565b5090565b8280548282559060005260206000209060140281019282156115a3579160200282015b828111156115a25782518290601461159292919061161e565b5091602001919060140190611579565b5b5090506115b09190611671565b5090565b8280548282559060005260206000209081019282156115f0579160200282015b828111156115ef5782518255916020019190600101906115d4565b5b5090506115fd9190611601565b5090565b5b8082111561161a576000816000905550600101611602565b5090565b8260148101928215611660579160200282015b8281111561165f57825182908051906020019061164f929190611695565b5091602001919060010190611631565b5b50905061166d919061171b565b5090565b5b808211156116915760008181611688919061173f565b50601401611672565b5090565b8280546116a190612585565b90600052602060002090601f0160209004810192826116c3576000855561170a565b82601f106116dc57805160ff191683800117855561170a565b8280016001018555821561170a579182015b828111156117095782518255916020019190600101906116ee565b5b5090506117179190611601565b5090565b5b8082111561173b57600081816117329190611752565b5060010161171c565b5090565b50806014019061174f919061171b565b50565b50805461175e90612585565b6000825580601f10611770575061178f565b601f01602090049060005260206000209081019061178e9190611601565b5b50565b60006117a56117a0846121ef565b6121be565b9050808382526020820190508260005b858110156117e557813585016117cb88826118fe565b8452602084019350602083019250506001810190506117b5565b5050509392505050565b60006118026117fd8461221b565b6121be565b9050808260005b85811015611839578135850161181f8882611925565b845260208401935060208301925050600181019050611809565b5050509392505050565b600061185661185184612241565b6121be565b90508281526020810184848401111561186e57600080fd5b611879848285612543565b509392505050565b600061189461188f84612271565b6121be565b9050828152602081018484840111156118ac57600080fd5b6118b7848285612543565b509392505050565b6000815190506118ce816126cd565b92915050565b600082601f8301126118e557600080fd5b81356118f5848260208601611792565b91505092915050565b600082601f83011261190f57600080fd5b601461191c8482856117ef565b91505092915050565b600082601f83011261193657600080fd5b8135611946848260208601611843565b91505092915050565b600082601f83011261196057600080fd5b8135611970848260208601611881565b91505092915050565b600081359050611988816126e4565b92915050565b6000602082840312156119a057600080fd5b60006119ae848285016118bf565b91505092915050565b600080600080608085870312156119cd57600080fd5b600085013567ffffffffffffffff8111156119e757600080fd5b6119f38782880161194f565b945050602085013567ffffffffffffffff811115611a1057600080fd5b611a1c8782880161194f565b935050604085013567ffffffffffffffff811115611a3957600080fd5b611a458782880161194f565b925050606085013567ffffffffffffffff811115611a6257600080fd5b611a6e878288016118d4565b91505092959194509250565b600060208284031215611a8c57600080fd5b6000611a9a84828501611979565b91505092915050565b6000611aaf8383611c03565b905092915050565b6000611ac38383611c78565b905092915050565b6000611ad78383611d59565b905092915050565b6000611aeb8383611d92565b905092915050565b6000611aff8383611fd2565b60208301905092915050565b611b14816124fb565b82525050565b6000611b2582612314565b611b2f8185612397565b935083602082028501611b41856122a1565b8060005b85811015611b7d5784840389528151611b5e8582611aa3565b9450611b6983612356565b925060208a01995050600181019050611b45565b50829750879550505050505092915050565b6000611b9a8261231f565b611ba48185612397565b935083602082028501611bb6856122b1565b8060005b85811015611bf157848403895281611bd28582611ab7565b9450611bdd83612363565b925060208a01995050600181019050611bba565b50829750879550505050505092915050565b6000611c0e8261232a565b611c1881856123a8565b935083602082028501611c2a856122c6565b8060005b85811015611c665784840389528151611c478582611acb565b9450611c5283612370565b925060208a01995050600181019050611c2e565b50829750879550505050505092915050565b6000611c8382612335565b611c8d81856123a8565b935083602082028501611c9f856122d0565b8060005b85811015611cda57848403895281611cbb8582611adf565b9450611cc68361237d565b925060208a01995050600181019050611ca3565b50829750879550505050505092915050565b6000611cf782612340565b611d0181856123b3565b9350611d0c836122da565b8060005b83811015611d3d578151611d248882611af3565b9750611d2f8361238a565b925050600181019050611d10565b5085935050505092915050565b611d538161250d565b82525050565b6000611d648261234b565b611d6e81856123c4565b9350611d7e818560208601612552565b611d87816126bc565b840191505092915050565b60008154611d9f81612585565b611da981866123c4565b94506001821660008114611dc45760018114611dd657611e09565b60ff1983168652602086019350611e09565b611ddf856122ea565b60005b83811015611e0157815481890152600182019150602081019050611de2565b808801955050505b50505092915050565b60008154611e1f81612585565b611e2981866123d5565b94506001821660008114611e445760018114611e5657611e89565b60ff1983168652602086019350611e89565b611e5f856122ff565b60005b83811015611e8157815481890152600182019150602081019050611e62565b808801955050505b50505092915050565b6000611e9f6011836123d5565b91507f6f6e6c79206f7267616e697a6174696f6e0000000000000000000000000000006000830152602082019050919050565b6000611edf600e836123d5565b91507f6f6e6c79206d6f64657261746f720000000000000000000000000000000000006000830152602082019050919050565b6000611f1f6015836123d5565b91507f4d6178696d756d206c696d6974207265616368656400000000000000000000006000830152602082019050919050565b6000611f5f6016836123d5565b91507f7468652067616d6520686173206e6f7420656e646564000000000000000000006000830152602082019050919050565b6000611f9f6016836123d5565b91507f496e73756666696369656e7420656e74727920666565000000000000000000006000830152602082019050919050565b611fdb81612539565b82525050565b611fea81612539565b82525050565b60006020820190506120056000830184611b0b565b92915050565b60006040820190506120206000830185611b0b565b81810360208301526120328184611b1a565b90509392505050565b600060208201905081810360008301526120558184611cec565b905092915050565b60006020820190506120726000830184611d4a565b92915050565b600060e0820190508181036000830152612092818a611e12565b905081810360208301526120a68189611e12565b905081810360408301526120ba8188611e12565b905081810360608301526120ce8187611b8f565b90506120dd6080830186611fe1565b6120ea60a0830185611fe1565b6120f760c0830184611b0b565b98975050505050505050565b6000602082019050818103600083015261211c81611e92565b9050919050565b6000602082019050818103600083015261213c81611ed2565b9050919050565b6000602082019050818103600083015261215c81611f12565b9050919050565b6000602082019050818103600083015261217c81611f52565b9050919050565b6000602082019050818103600083015261219c81611f92565b9050919050565b60006020820190506121b86000830184611fe1565b92915050565b6000604051905081810181811067ffffffffffffffff821117156121e5576121e461268d565b5b8060405250919050565b600067ffffffffffffffff82111561220a5761220961268d565b5b602082029050602081019050919050565b600067ffffffffffffffff8211156122365761223561268d565b5b602082029050919050565b600067ffffffffffffffff82111561225c5761225b61268d565b5b601f19601f8301169050602081019050919050565b600067ffffffffffffffff82111561228c5761228b61268d565b5b601f19601f8301169050602081019050919050565b6000819050602082019050919050565b60008190508160005260206000209050919050565b6000819050919050565b6000819050919050565b6000819050602082019050919050565b60008190508160005260206000209050919050565b60008190508160005260206000209050919050565b600081519050919050565b600081549050919050565b600060149050919050565b600060149050919050565b600081519050919050565b600081519050919050565b6000602082019050919050565b6000601482019050919050565b6000602082019050919050565b6000600182019050919050565b6000602082019050919050565b600082825260208201905092915050565b600081905092915050565b600082825260208201905092915050565b600082825260208201905092915050565b600082825260208201905092915050565b60006123f182612539565b91506123fc83612539565b9250827fffffffffffffffffffffffffffffffffffffffffffffffffffffffffffffffff0382111561243157612430612600565b5b828201905092915050565b600061244782612539565b915061245283612539565b9250826124625761246161262f565b5b828204905092915050565b600061247882612539565b915061248383612539565b9250817fffffffffffffffffffffffffffffffffffffffffffffffffffffffffffffffff04831182151516156124bc576124bb612600565b5b828202905092915050565b60006124d282612539565b91506124dd83612539565b9250828210156124f0576124ef612600565b5b828203905092915050565b600061250682612519565b9050919050565b60008115159050919050565b600073ffffffffffffffffffffffffffffffffffffffff82169050919050565b6000819050919050565b82818337600083830152505050565b60005b83811015612570578082015181840152602081019050612555565b8381111561257f576000848401525b50505050565b6000600282049050600182168061259d57607f821691505b602082108114156125b1576125b061265e565b5b50919050565b60006125c282612539565b91507fffffffffffffffffffffffffffffffffffffffffffffffffffffffffffffffff8214156125f5576125f4612600565b5b600182019050919050565b7f4e487b7100000000000000000000000000000000000000000000000000000000600052601160045260246000fd5b7f4e487b7100000000000000000000000000000000000000000000000000000000600052601260045260246000fd5b7f4e487b7100000000000000000000000000000000000000000000000000000000600052602260045260246000fd5b7f4e487b7100000000000000000000000000000000000000000000000000000000600052604160045260246000fd5b6000601f19601f8301169050919050565b6126d6816124fb565b81146126e157600080fd5b50565b6126ed81612539565b81146126f857600080fd5b5056fea2646970667358221220a9432986cd35e2a49dad09556fd192595cd16b2e364b950a5f18acf75319484b64736f6c63430008000033",
  "immutableReferences": {},
  "source": "// SPDX-License-Identifier: MIT\r\npragma solidity >=0.8.0;\r\n\r\nimport \"@openzeppelin/contracts/token/ERC721/extensions/ERC721URIStorage.sol\"; \r\nimport \"@openzeppelin/contracts/access/Ownable.sol\";\r\nimport \"@openzeppelin/contracts/utils/Counters.sol\";\r\n\r\n\r\nlibrary MyMathlib{\r\n    function sqrt(uint num) internal pure returns(uint){\r\n        uint start = 1;\r\n        uint end = num;\r\n        uint mid = start;\r\n        while(start < end){\r\n            mid = start + (end - start)/2;\r\n            if(mid * mid >= num){\r\n                end = mid;\r\n            }else{\r\n                start = mid+1;\r\n            }\r\n        }\r\n        return end;\r\n    }\r\n\r\n    function sum(uint[] memory arr) internal pure returns (uint){\r\n        uint buf = 0;\r\n        for(uint i=0; i<arr.length; i++){\r\n            buf += arr[i];\r\n        }\r\n        return buf;\r\n    }\r\n}\r\n\r\n\r\ncontract Knitts{\r\n    // using  MyMathlib for *;\r\n    //organization address here\r\n    address organization = 0x79e6234Ff4E7DB556F916FeBcE9e52a68D0B8879;\r\n    mapping(address => uint) deposits;\r\n    address[] public Leagues;\r\n  \taddress[] Users;\r\n  \tmapping(address => address) idToUser; \r\n  \t\r\n    function depositMore() public payable{\r\n        require(msg.value > 0, \"You need to deposit some amount\");\r\n        deposits[msg.sender] += msg.value;\r\n    }\r\n\r\n    function createLeague(uint _entryFee, uint _numPlayers, uint _duration) public returns(address[] memory){\r\n        require(_entryFee * _numPlayers <= deposits[msg.sender], \"Insufficient deposit\");\r\n        League newLeague = new League(msg.sender, _entryFee, _numPlayers, _duration, address(this));\r\n        Leagues.push(address(newLeague));\r\n        return Leagues;\r\n    }\r\n\r\n    function getBalance(address _moderator) public view returns (uint){\r\n        return deposits[_moderator];\r\n    }\r\n\r\n  \r\n  \tfunction getUserContractAddress(address _id) public view returns(address) {\r\n        return idToUser[_id];\r\n    }\r\n}\r\n\r\ncontract League{\r\n    using  MyMathlib for *;\r\n    address public organization;\r\n    uint public entryFee;\r\n    uint public maxParticipants;\r\n    uint public numProjects;\r\n    address [] public participants;\r\n    address public moderator;\r\n    uint public duration;\r\n    bool public started;\r\n    bool public ended;\r\n    bool public distributed;\r\n  \tuint public total_points=0;\r\n    uint [] public points;\r\n    address public knittsAddress;\r\n\r\n    struct project{\r\n        string title;\r\n        string url;\r\n        string image;\r\n        address owner;\r\n        bytes[20][] description;\r\n        mapping(address => uint)investments;\r\n        address[] investors;\r\n        uint total_fund;\r\n    }\r\n\t\t\r\n    mapping(uint => project) projects;\r\n\r\n    constructor(address _moderator, uint _entryFee, uint _maxParticipants, uint _duration, address _knittsAddress){\r\n        entryFee = _entryFee;\r\n        maxParticipants = _maxParticipants;\r\n        moderator = _moderator;\r\n        duration = _duration;\r\n        numProjects = 0;\r\n        started=false;\r\n        ended=false;\r\n        distributed=false;\r\n        organization = _moderator; // for local testing\r\n        knittsAddress = _knittsAddress;\r\n    }\r\n\r\n    function submitIdea(string memory title, string memory url, string memory image, bytes[20][] memory description) external payable returns(uint){\r\n        require(msg.value >= entryFee, \"Insufficient entry fee\");\r\n        require(numProjects < maxParticipants, \"Maximum limit reached\");\r\n        project storage p = projects[numProjects++];\r\n        p.title = title;\r\n        p.url = url;\r\n        p.image = image;\r\n        p.owner = msg.sender;\r\n        p.description = description;\r\n        return numProjects;\r\n    }\r\n\r\n    function invest(uint projectId) external payable{\r\n        project storage p = projects[projectId];\r\n        if(p.investments[msg.sender] == 0){\r\n            p.investors.push(msg.sender);\r\n        }\r\n        p.total_fund += msg.value/1e12;\r\n        p.investments[msg.sender] += msg.value/1e12;\r\n        \r\n    }\r\n\r\n    function startLeague() external {\r\n        require(msg.sender == organization, \"only moderator\");\r\n        started=true;\r\n    }\r\n\r\n    function endLeague() external returns(uint[] memory){\r\n        require(msg.sender == organization, \"only organization\");\r\n        ended=true;\r\n        getPoints();\r\n      \ttotal_points = points.sum();\r\n        uint averagePoints = total_points / numProjects;\r\n      \r\n      \tfor(uint i=0;i<numProjects; i++) {\r\n            Knitts _knitts = Knitts(knittsAddress);\r\n            address _userId = _knitts.getUserContractAddress(projects[i].owner);\r\n            User _user = User(_userId);\r\n            _user.addProject(projects[i].title, projects[i].url, projects[i].image, projects[i].description, points[i] , averagePoints, address(this) );\r\n        } \r\n\r\n        return points;\r\n    }\r\n\r\n    function getPoints() internal returns(uint[] memory){\r\n        require(ended = true, \"the game has not ended\");\r\n        uint [] memory empty_points;\r\n        points = empty_points;\r\n        for(uint i=0; i < numProjects; i++){\r\n            uint buf = 0;\r\n            project storage p = projects[i];\r\n            for(uint j=0; j< p.investors.length; j++){\r\n                address inv = p.investors[j];\r\n                buf += (p.investments[inv]).sqrt();\r\n            }\r\n            points.push(buf * buf);\r\n        }\r\n        \r\n        return points;\r\n    }\r\n\r\n    function distribute() external {\r\n        require(msg.sender == organization, \"only organization\");\r\n        uint total_balance = address(this).balance;\r\n        \r\n        for(uint i=0; i<numProjects; i++){\r\n            project storage p  =  projects[i];\r\n            \r\n            payable(p.owner).transfer( (3*points[i]*total_balance)/(10*total_points) );\r\n\r\n            for(uint j=0; j<p.investors.length; j++){\r\n                address investor = p.investors[j];\r\n                payable(investor).transfer( (6 * points[i] * total_balance * p.investments[investor]) / (10 * total_points * p.total_fund) );\r\n            }\r\n        }\r\n\r\n        payable(moderator).transfer(address(this).balance);\r\n\r\n    }\r\n\r\n    function submissionDetails(uint projectId) external view returns(\r\n        address, // project owner\r\n        bytes[20][] memory // description\r\n    )  {\r\n        return (projects[projectId].owner, projects[projectId].description);\r\n    }\r\n\r\n    \r\n}\r\n\r\n\r\ncontract User {\r\n    string name;\r\n  \taddress id; //metamask address of corresponding user\r\n  \tuint numProjects=0;\r\n    address[] public NFTs_created;\r\n    bool public pending_nfts = false;\r\n    constructor( address _id, string memory _name ) {\r\n        name = _name;\r\n        id = _id;\r\n    }\r\n\r\n    struct project{\r\n        string title;\r\n        string url;\r\n        string image;\r\n            bytes[20][] description;\r\n            uint point;\r\n            uint average_point;\r\n            address submittedOn;\r\n    }\r\n\r\n        project[20] public projects;\r\n    \r\n    function addProject(string memory title, string memory url, string memory image, bytes[20][] memory description, uint point, uint average_point, address submittedOn) public {\r\n        project storage p = projects[numProjects++];\r\n        p.title = title;\r\n        p.url = url;\r\n        p.image = image;\r\n        p.description = description;\r\n        p.point = point;\r\n        p.average_point = average_point;\r\n        p.submittedOn = submittedOn;\r\n    }\r\n    \r\n\r\n    function createNFT(uint _bronze) public returns(address [] memory){\r\n        require(_bronze <= 10, \"You can create only 10 bronzes\");\r\n        require(pending_nfts == false, \"There are pending nfts still\");\r\n        require(msg.sender == id, \"wrong user account\");\r\n        for(uint i=0; i<_bronze; i++){\r\n            NFT new_nft = new NFT(\"Bronze\", \"B\", id, 'https://s3.envato.com/files/235568921/preview.jpg', 1);\r\n            NFTs_created.push(address(new_nft));\r\n        }\r\n        return NFTs_created;\r\n    }\r\n\r\n    function scratchNFTs() public returns(uint){\r\n        uint rem = 0;\r\n        for(uint i=0; i<NFTs_created.length; i++){\r\n            NFT new_nft =  NFT(NFTs_created[i]);\r\n            rem = new_nft.scratchCard();\r\n        }\r\n        if(rem == 0){\r\n            pending_nfts = false;\r\n            address [] memory temp;\r\n            NFTs_created = temp;\r\n        }\r\n        return rem;\r\n    }\r\n  \r\n}\r\n\r\ncontract NFT is ERC721URIStorage, Ownable{\r\n    using Counters for Counters.Counter;\r\n    Counters.Counter private _tokenIds;\r\n    address nft_creator;\r\n    address nft_owner;\r\n    uint leaguesMore;\r\n    constructor(string memory _name, string memory _symbol, address _player, string memory _tokenURI, uint _leaguesMore) ERC721(_name, _symbol){\r\n        nft_creator = msg.sender;\r\n        nft_owner = msg.sender;\r\n        leaguesMore = _leaguesMore;\r\n        _tokenIds.increment();\r\n        uint256 newItemId = _tokenIds.current();\r\n        _mint(_player, newItemId);\r\n        _setTokenURI(newItemId, _tokenURI);\r\n    }\r\n\r\n    function scratchCard() public returns (uint){\r\n        require(leaguesMore > 0, \"expired\");\r\n        leaguesMore -= 1;\r\n        if(leaguesMore == 0){\r\n            _burn(1);\r\n        }\r\n        return leaguesMore;\r\n    }\r\n    \r\n\r\n}\r\n\r\n",
  "sourcePath": "E:\\projects\\knitts\\back-end\\contracts\\League.sol",
  "compiler": {
    "name": "solc",
    "version": "0.8.0+commit.c7dfd78e.Emscripten.clang"
  },
  "schemaVersion": "3.4.3",
  "updatedAt": "2021-09-30T16:16:52.737Z",
  "networkType": "ethereum",
  "devdoc": {
    "kind": "dev",
    "methods": {},
    "version": 1
  },
  "userdoc": {
    "kind": "user",
    "methods": {},
    "version": 1
  }
}