{
  "contractName": "League",
  "abi": [
    {
      "inputs": [
        {
          "internalType": "address",
          "name": "_moderator",
          "type": "address"
        },
        {
          "internalType": "uint256",
          "name": "_deposit",
          "type": "uint256"
        },
        {
          "internalType": "uint256",
          "name": "_entryFee",
          "type": "uint256"
        },
        {
          "internalType": "uint256",
          "name": "_maxParticipants",
          "type": "uint256"
        },
        {
          "internalType": "uint256",
          "name": "_duration",
          "type": "uint256"
        },
        {
          "internalType": "address",
          "name": "_knittsAddress",
          "type": "address"
        }
      ],
      "stateMutability": "nonpayable",
      "type": "constructor"
    },
    {
      "inputs": [],
      "name": "deposit",
      "outputs": [
        {
          "internalType": "uint256",
          "name": "",
          "type": "uint256"
        }
      ],
      "stateMutability": "view",
      "type": "function"
    },
    {
      "inputs": [],
      "name": "distributed",
      "outputs": [
        {
          "internalType": "bool",
          "name": "",
          "type": "bool"
        }
      ],
      "stateMutability": "view",
      "type": "function"
    },
    {
      "inputs": [],
      "name": "duration",
      "outputs": [
        {
          "internalType": "uint256",
          "name": "",
          "type": "uint256"
        }
      ],
      "stateMutability": "view",
      "type": "function"
    },
    {
      "inputs": [],
      "name": "ended",
      "outputs": [
        {
          "internalType": "bool",
          "name": "",
          "type": "bool"
        }
      ],
      "stateMutability": "view",
      "type": "function"
    },
    {
      "inputs": [],
      "name": "entryFee",
      "outputs": [
        {
          "internalType": "uint256",
          "name": "",
          "type": "uint256"
        }
      ],
      "stateMutability": "view",
      "type": "function"
    },
    {
      "inputs": [],
      "name": "knittsAddress",
      "outputs": [
        {
          "internalType": "address",
          "name": "",
          "type": "address"
        }
      ],
      "stateMutability": "view",
      "type": "function"
    },
    {
      "inputs": [],
      "name": "maxParticipants",
      "outputs": [
        {
          "internalType": "uint256",
          "name": "",
          "type": "uint256"
        }
      ],
      "stateMutability": "view",
      "type": "function"
    },
    {
      "inputs": [],
      "name": "moderator",
      "outputs": [
        {
          "internalType": "address",
          "name": "",
          "type": "address"
        }
      ],
      "stateMutability": "view",
      "type": "function"
    },
    {
      "inputs": [],
      "name": "numProjects",
      "outputs": [
        {
          "internalType": "uint256",
          "name": "",
          "type": "uint256"
        }
      ],
      "stateMutability": "view",
      "type": "function"
    },
    {
      "inputs": [],
      "name": "organization",
      "outputs": [
        {
          "internalType": "address",
          "name": "",
          "type": "address"
        }
      ],
      "stateMutability": "view",
      "type": "function"
    },
    {
      "inputs": [
        {
          "internalType": "uint256",
          "name": "",
          "type": "uint256"
        }
      ],
      "name": "participants",
      "outputs": [
        {
          "internalType": "address",
          "name": "",
          "type": "address"
        }
      ],
      "stateMutability": "view",
      "type": "function"
    },
    {
      "inputs": [
        {
          "internalType": "uint256",
          "name": "",
          "type": "uint256"
        }
      ],
      "name": "points",
      "outputs": [
        {
          "internalType": "uint256",
          "name": "",
          "type": "uint256"
        }
      ],
      "stateMutability": "view",
      "type": "function"
    },
    {
      "inputs": [],
      "name": "started",
      "outputs": [
        {
          "internalType": "bool",
          "name": "",
          "type": "bool"
        }
      ],
      "stateMutability": "view",
      "type": "function"
    },
    {
      "inputs": [
        {
          "internalType": "string",
          "name": "title",
          "type": "string"
        },
        {
          "internalType": "string",
          "name": "url",
          "type": "string"
        },
        {
          "internalType": "string",
          "name": "image",
          "type": "string"
        },
        {
          "internalType": "bytes[20][]",
          "name": "description",
          "type": "bytes[20][]"
        }
      ],
      "name": "submitIdea",
      "outputs": [
        {
          "internalType": "uint256",
          "name": "",
          "type": "uint256"
        }
      ],
      "stateMutability": "payable",
      "type": "function"
    },
    {
      "inputs": [
        {
          "internalType": "uint256",
          "name": "projectId",
          "type": "uint256"
        }
      ],
      "name": "invest",
      "outputs": [],
      "stateMutability": "payable",
      "type": "function"
    },
    {
      "inputs": [],
      "name": "startLeague",
      "outputs": [],
      "stateMutability": "nonpayable",
      "type": "function"
    },
    {
      "inputs": [],
      "name": "endLeague",
      "outputs": [
        {
          "internalType": "uint256[]",
          "name": "",
          "type": "uint256[]"
        }
      ],
      "stateMutability": "nonpayable",
      "type": "function"
    },
    {
      "inputs": [
        {
          "internalType": "uint256",
          "name": "projectId",
          "type": "uint256"
        }
      ],
      "name": "submissionDetails",
      "outputs": [
        {
          "internalType": "string",
          "name": "",
          "type": "string"
        },
        {
          "internalType": "string",
          "name": "",
          "type": "string"
        },
        {
          "internalType": "string",
          "name": "",
          "type": "string"
        },
        {
          "internalType": "address",
          "name": "",
          "type": "address"
        },
        {
          "internalType": "bytes[20][]",
          "name": "",
          "type": "bytes[20][]"
        }
      ],
      "stateMutability": "view",
      "type": "function"
    }
  ],
  "bytecode": "0x608060405260006007556000600960006101000a81548160ff0219169083151502179055506000600960016101000a81548160ff0219169083151502179055506000600960026101000a81548160ff0219169083151502179055503480156200006757600080fd5b5060405162002ea438038062002ea483398181016040528101906200008d9190620001a5565b836002819055508260038190555085600460006101000a81548173ffffffffffffffffffffffffffffffffffffffff021916908373ffffffffffffffffffffffffffffffffffffffff16021790555081600581905550856000806101000a81548173ffffffffffffffffffffffffffffffffffffffff021916908373ffffffffffffffffffffffffffffffffffffffff16021790555080600160006101000a81548173ffffffffffffffffffffffffffffffffffffffff021916908373ffffffffffffffffffffffffffffffffffffffff16021790555084600681905550505050505050620002ad565b600081519050620001888162000279565b92915050565b6000815190506200019f8162000293565b92915050565b60008060008060008060c08789031215620001bf57600080fd5b6000620001cf89828a0162000177565b9650506020620001e289828a016200018e565b9550506040620001f589828a016200018e565b94505060606200020889828a016200018e565b93505060806200021b89828a016200018e565b92505060a06200022e89828a0162000177565b9150509295509295509295565b600062000248826200024f565b9050919050565b600073ffffffffffffffffffffffffffffffffffffffff82169050919050565b6000819050919050565b62000284816200023b565b81146200029057600080fd5b50565b6200029e816200026f565b8114620002aa57600080fd5b50565b612be780620002bd6000396000f3fe6080604052600436106101095760003560e01c806335c1d34911610095578063a19eb3c611610064578063a19eb3c614610357578063c3b7a80f14610382578063d0e30db014610399578063d235407b146103c4578063f84b903e1461040557610109565b806335c1d3491461028757806338743904146102c45780635a067baa146102ef5780639799b4e71461031a57610109565b80632185ce83116100dc5780632185ce83146101ba57806323bd4d7a146101ea57806324924bf71461021557806324fd7918146102405780632afcf4801461026b57610109565b8063072ea61c1461010e5780630fb5a6b41461013957806312fa6feb146101645780631f2698ab1461018f575b600080fd5b34801561011a57600080fd5b50610123610430565b6040516101309190612671565b60405180910390f35b34801561014557600080fd5b5061014e610436565b60405161015b9190612671565b60405180910390f35b34801561017057600080fd5b5061017961043c565b60405161018691906124a1565b60405180910390f35b34801561019b57600080fd5b506101a461044f565b6040516101b191906124a1565b60405180910390f35b6101d460048036038101906101cf9190611d13565b610462565b6040516101e19190612671565b60405180910390f35b3480156101f657600080fd5b506101ff6105d1565b60405161020c9190612442565b60405180910390f35b34801561022157600080fd5b5061022a6105f5565b6040516102379190612671565b60405180910390f35b34801561024c57600080fd5b506102556105fb565b604051610262919061247f565b60405180910390f35b61028560048036038101906102809190611dd6565b610a8c565b005b34801561029357600080fd5b506102ae60048036038101906102a99190611dd6565b610bea565b6040516102bb9190612442565b60405180910390f35b3480156102d057600080fd5b506102d9610c29565b6040516102e69190612442565b60405180910390f35b3480156102fb57600080fd5b50610304610c4f565b6040516103119190612671565b60405180910390f35b34801561032657600080fd5b50610341600480360381019061033c9190611dd6565b610c55565b60405161034e9190612671565b60405180910390f35b34801561036357600080fd5b5061036c610c79565b6040516103799190612442565b60405180910390f35b34801561038e57600080fd5b50610397610c9f565b005b3480156103a557600080fd5b506103ae610d4a565b6040516103bb9190612671565b60405180910390f35b3480156103d057600080fd5b506103eb60048036038101906103e69190611dd6565b610d50565b6040516103fc9594939291906124bc565b60405180910390f35b34801561041157600080fd5b5061041a611069565b60405161042791906124a1565b60405180910390f35b60025481565b60055481565b600960019054906101000a900460ff1681565b600960009054906101000a900460ff1681565b60006002543410156104a9576040517f08c379a00000000000000000000000000000000000000000000000000000000081526004016104a090612636565b60405180910390fd5b600354600754106104ef576040517f08c379a00000000000000000000000000000000000000000000000000000000081526004016104e6906125d6565b60405180910390fd5b6000600b60006007600081548092919061050890612a6d565b919050558152602001908152602001600020905085816000019080519060200190610534929190611817565b508481600101908051906020019061054d929190611817565b5083816002019080519060200190610566929190611817565b50338160030160006101000a81548173ffffffffffffffffffffffffffffffffffffffff021916908373ffffffffffffffffffffffffffffffffffffffff160217905550828160040190805190602001906105c292919061189d565b50600754915050949350505050565b60008054906101000a900473ffffffffffffffffffffffffffffffffffffffff1681565b60035481565b606060008054906101000a900473ffffffffffffffffffffffffffffffffffffffff1673ffffffffffffffffffffffffffffffffffffffff163373ffffffffffffffffffffffffffffffffffffffff161461068b576040517f08c379a0000000000000000000000000000000000000000000000000000000008152600401610682906125f6565b60405180910390fd5b6001600960016101000a81548160ff021916908315150217905550600460009054906101000a900473ffffffffffffffffffffffffffffffffffffffff1673ffffffffffffffffffffffffffffffffffffffff166108fc6006549081150290604051600060405180830381858888f19350505050158015610710573d6000803e3d6000fd5b5061071961107c565b506000600a80548060200260200160405190810160405280929190818152602001828054801561076857602002820191906000526020600020905b815481526020019060010190808311610754575b505050505073__MyMathlib_____________________________630194db8e90916040518263ffffffff1660e01b81526004016107a5919061245d565b60206040518083038186803b1580156107bd57600080fd5b505af41580156107d1573d6000803e3d6000fd5b505050506040513d601f19601f820116820180604052508101906107f59190611dff565b90506000600754826108079190612926565b905060005b600754811015610a2a576000600160009054906101000a900473ffffffffffffffffffffffffffffffffffffffff16905060008173ffffffffffffffffffffffffffffffffffffffff1663e623cc9f600b600086815260200190815260200160002060030160009054906101000a900473ffffffffffffffffffffffffffffffffffffffff166040518263ffffffff1660e01b81526004016108ae9190612442565b60206040518083038186803b1580156108c657600080fd5b505afa1580156108da573d6000803e3d6000fd5b505050506040513d601f19601f820116820180604052508101906108fe9190611cea565b905060008190508073ffffffffffffffffffffffffffffffffffffffff1663fbf7de84600b6000878152602001908152602001600020600001600b6000888152602001908152602001600020600101600b6000898152602001908152602001600020600201600b60008a8152602001908152602001600020600401600a8a815481106109b3577f4e487b7100000000000000000000000000000000000000000000000000000000600052603260045260246000fd5b90600052602060002001548b306040518863ffffffff1660e01b81526004016109e2979695949392919061252b565b600060405180830381600087803b1580156109fc57600080fd5b505af1158015610a10573d6000803e3d6000fd5b505050505050508080610a2290612a6d565b91505061080c565b50610a348261131f565b600a805480602002602001604051908101604052809291908181526020018280548015610a8057602002820191906000526020600020905b815481526020019060010190808311610a6c575b50505050509250505090565b6000600b6000838152602001908152602001600020905060008160050160003373ffffffffffffffffffffffffffffffffffffffff1673ffffffffffffffffffffffffffffffffffffffff168152602001908152602001600020541415610b535780600601339080600181540180825580915050600190039060005260206000200160009091909190916101000a81548173ffffffffffffffffffffffffffffffffffffffff021916908373ffffffffffffffffffffffffffffffffffffffff1602179055505b64e8d4a5100034610b649190612926565b816007016000828254610b7791906128d0565b9250508190555064e8d4a5100034610b8f9190612926565b8160050160003373ffffffffffffffffffffffffffffffffffffffff1673ffffffffffffffffffffffffffffffffffffffff1681526020019081526020016000206000828254610bdf91906128d0565b925050819055505050565b60088181548110610bfa57600080fd5b906000526020600020016000915054906101000a900473ffffffffffffffffffffffffffffffffffffffff1681565b600460009054906101000a900473ffffffffffffffffffffffffffffffffffffffff1681565b60075481565b600a8181548110610c6557600080fd5b906000526020600020016000915090505481565b600160009054906101000a900473ffffffffffffffffffffffffffffffffffffffff1681565b60008054906101000a900473ffffffffffffffffffffffffffffffffffffffff1673ffffffffffffffffffffffffffffffffffffffff163373ffffffffffffffffffffffffffffffffffffffff1614610d2d576040517f08c379a0000000000000000000000000000000000000000000000000000000008152600401610d24906125f6565b60405180910390fd5b6001600960006101000a81548160ff021916908315150217905550565b60065481565b6060806060600060606000600b600088815260200190815260200160002090508060000181600101826002018360030160009054906101000a900473ffffffffffffffffffffffffffffffffffffffff1684600401848054610db190612a3b565b80601f0160208091040260200160405190810160405280929190818152602001828054610ddd90612a3b565b8015610e2a5780601f10610dff57610100808354040283529160200191610e2a565b820191906000526020600020905b815481529060010190602001808311610e0d57829003601f168201915b50505050509450838054610e3d90612a3b565b80601f0160208091040260200160405190810160405280929190818152602001828054610e6990612a3b565b8015610eb65780601f10610e8b57610100808354040283529160200191610eb6565b820191906000526020600020905b815481529060010190602001808311610e9957829003601f168201915b50505050509350828054610ec990612a3b565b80601f0160208091040260200160405190810160405280929190818152602001828054610ef590612a3b565b8015610f425780601f10610f1757610100808354040283529160200191610f42565b820191906000526020600020905b815481529060010190602001808311610f2557829003601f168201915b5050505050925080805480602002602001604051908101604052809291908181526020016000905b8282101561104f5783829060005260206000209060140201601480602002604051908101604052809291906000905b8282101561103c578382018054610faf90612a3b565b80601f0160208091040260200160405190810160405280929190818152602001828054610fdb90612a3b565b80156110285780601f10610ffd57610100808354040283529160200191611028565b820191906000526020600020905b81548152906001019060200180831161100b57829003601f168201915b505050505081526020019060010190610f99565b5050505081526020019060010190610f6a565b505050509050955095509550955095505091939590929450565b600960029054906101000a900460ff1681565b60606001600960016101000a81548160ff02191690831515021790556110d7576040517f08c379a00000000000000000000000000000000000000000000000000000000081526004016110ce90612616565b60405180910390fd5b606080600a90805190602001906110ef9291906118fb565b5060005b6007548110156112c757600080600b6000848152602001908152602001600020905060005b816006018054905081101561127d576000826006018281548110611165577f4e487b7100000000000000000000000000000000000000000000000000000000600052603260045260246000fd5b9060005260206000200160009054906101000a900473ffffffffffffffffffffffffffffffffffffffff1690508260050160008273ffffffffffffffffffffffffffffffffffffffff1673ffffffffffffffffffffffffffffffffffffffff1681526020019081526020016000205473__MyMathlib_____________________________63677342ce90916040518263ffffffff1660e01b815260040161120c9190612656565b60206040518083038186803b15801561122457600080fd5b505af4158015611238573d6000803e3d6000fd5b505050506040513d601f19601f8201168201806040525081019061125c9190611dff565b8461126791906128d0565b935050808061127590612a6d565b915050611118565b50600a828361128c9190612957565b9080600181540180825580915050600190039060005260206000200160009091909190915055505080806112bf90612a6d565b9150506110f3565b50600a80548060200260200160405190810160405280929190818152602001828054801561131457602002820191906000526020600020905b815481526020019060010190808311611300575b505050505091505090565b60008054906101000a900473ffffffffffffffffffffffffffffffffffffffff1673ffffffffffffffffffffffffffffffffffffffff163373ffffffffffffffffffffffffffffffffffffffff16146113ad576040517f08c379a00000000000000000000000000000000000000000000000000000000081526004016113a4906125b6565b60405180910390fd5b600047905060005b6007548110156117a9576000600b600083815260200190815260200160002090508060030160009054906101000a900473ffffffffffffffffffffffffffffffffffffffff1673ffffffffffffffffffffffffffffffffffffffff166108fc85600a6114219190612957565b85600a868154811061145c577f4e487b7100000000000000000000000000000000000000000000000000000000600052603260045260246000fd5b906000526020600020015460036114739190612957565b61147d9190612957565b6114879190612926565b9081150290604051600060405180830381858888f193505050501580156114b2573d6000803e3d6000fd5b5060005b8160060180549050811015611794576000826006018281548110611503577f4e487b7100000000000000000000000000000000000000000000000000000000600052603260045260246000fd5b9060005260206000200160009054906101000a900473ffffffffffffffffffffffffffffffffffffffff1690506000600160009054906101000a900473ffffffffffffffffffffffffffffffffffffffff16905060008173ffffffffffffffffffffffffffffffffffffffff1663e623cc9f8660060186815481106115b1577f4e487b7100000000000000000000000000000000000000000000000000000000600052603260045260246000fd5b9060005260206000200160009054906101000a900473ffffffffffffffffffffffffffffffffffffffff166040518263ffffffff1660e01b81526004016115f89190612442565b60206040518083038186803b15801561161057600080fd5b505afa158015611624573d6000803e3d6000fd5b505050506040513d601f19601f820116820180604052508101906116489190611cea565b905060008190508073ffffffffffffffffffffffffffffffffffffffff1663f765417687600701548b600a61167d9190612957565b6116879190612957565b8860050160008873ffffffffffffffffffffffffffffffffffffffff1673ffffffffffffffffffffffffffffffffffffffff168152602001908152602001600020548b600a8c81548110611704577f4e487b7100000000000000000000000000000000000000000000000000000000600052603260045260246000fd5b9060005260206000200154600661171b9190612957565b6117259190612957565b61172f9190612957565b6117399190612926565b6040518263ffffffff1660e01b81526004016000604051808303818588803b15801561176457600080fd5b505af1158015611778573d6000803e3d6000fd5b505050505050505050808061178c90612a6d565b9150506114b6565b505080806117a190612a6d565b9150506113b5565b50600460009054906101000a900473ffffffffffffffffffffffffffffffffffffffff1673ffffffffffffffffffffffffffffffffffffffff166108fc479081150290604051600060405180830381858888f19350505050158015611812573d6000803e3d6000fd5b505050565b82805461182390612a3b565b90600052602060002090601f016020900481019282611845576000855561188c565b82601f1061185e57805160ff191683800117855561188c565b8280016001018555821561188c579182015b8281111561188b578251825591602001919060010190611870565b5b5090506118999190611948565b5090565b8280548282559060005260206000209060140281019282156118ea579160200282015b828111156118e9578251829060146118d9929190611965565b50916020019190601401906118c0565b5b5090506118f791906119b8565b5090565b828054828255906000526020600020908101928215611937579160200282015b8281111561193657825182559160200191906001019061191b565b5b5090506119449190611948565b5090565b5b80821115611961576000816000905550600101611949565b5090565b82601481019282156119a7579160200282015b828111156119a65782518290805190602001906119969291906119dc565b5091602001919060010190611978565b5b5090506119b49190611a62565b5090565b5b808211156119d857600081816119cf9190611a86565b506014016119b9565b5090565b8280546119e890612a3b565b90600052602060002090601f016020900481019282611a0a5760008555611a51565b82601f10611a2357805160ff1916838001178555611a51565b82800160010185558215611a51579182015b82811115611a50578251825591602001919060010190611a35565b5b509050611a5e9190611948565b5090565b5b80821115611a825760008181611a799190611a99565b50600101611a63565b5090565b508060140190611a969190611a62565b50565b508054611aa590612a3b565b6000825580601f10611ab75750611ad6565b601f016020900490600052602060002090810190611ad59190611948565b5b50565b6000611aec611ae7846126bd565b61268c565b9050808382526020820190508260005b85811015611b2c5781358501611b128882611c45565b845260208401935060208301925050600181019050611afc565b5050509392505050565b6000611b49611b44846126e9565b61268c565b9050808260005b85811015611b805781358501611b668882611c6c565b845260208401935060208301925050600181019050611b50565b5050509392505050565b6000611b9d611b988461270f565b61268c565b905082815260208101848484011115611bb557600080fd5b611bc08482856129f9565b509392505050565b6000611bdb611bd68461273f565b61268c565b905082815260208101848484011115611bf357600080fd5b611bfe8482856129f9565b509392505050565b600081519050611c1581612b83565b92915050565b600082601f830112611c2c57600080fd5b8135611c3c848260208601611ad9565b91505092915050565b600082601f830112611c5657600080fd5b6014611c63848285611b36565b91505092915050565b600082601f830112611c7d57600080fd5b8135611c8d848260208601611b8a565b91505092915050565b600082601f830112611ca757600080fd5b8135611cb7848260208601611bc8565b91505092915050565b600081359050611ccf81612b9a565b92915050565b600081519050611ce481612b9a565b92915050565b600060208284031215611cfc57600080fd5b6000611d0a84828501611c06565b91505092915050565b60008060008060808587031215611d2957600080fd5b600085013567ffffffffffffffff811115611d4357600080fd5b611d4f87828801611c96565b945050602085013567ffffffffffffffff811115611d6c57600080fd5b611d7887828801611c96565b935050604085013567ffffffffffffffff811115611d9557600080fd5b611da187828801611c96565b925050606085013567ffffffffffffffff811115611dbe57600080fd5b611dca87828801611c1b565b91505092959194509250565b600060208284031215611de857600080fd5b6000611df684828501611cc0565b91505092915050565b600060208284031215611e1157600080fd5b6000611e1f84828501611cd5565b91505092915050565b6000611e348383611fa0565b905092915050565b6000611e488383612015565b905092915050565b6000611e5c8383612154565b905092915050565b6000611e70838361218d565b905092915050565b6000611e848383612406565b60208301905092915050565b6000611e9c8383612433565b60208301905092915050565b611eb1816129b1565b82525050565b6000611ec2826127e2565b611ecc8185612870565b935083602082028501611ede8561276f565b8060005b85811015611f1a5784840389528151611efb8582611e28565b9450611f068361282f565b925060208a01995050600181019050611ee2565b50829750879550505050505092915050565b6000611f37826127ed565b611f418185612870565b935083602082028501611f538561277f565b8060005b85811015611f8e57848403895281611f6f8582611e3c565b9450611f7a8361283c565b925060208a01995050600181019050611f57565b50829750879550505050505092915050565b6000611fab826127f8565b611fb58185612881565b935083602082028501611fc785612794565b8060005b858110156120035784840389528151611fe48582611e50565b9450611fef83612849565b925060208a01995050600181019050611fcb565b50829750879550505050505092915050565b600061202082612803565b61202a8185612881565b93508360208202850161203c8561279e565b8060005b85811015612077578484038952816120588582611e64565b945061206383612856565b925060208a01995050600181019050612040565b50829750879550505050505092915050565b60006120948261280e565b61209e818561288c565b93506120a9836127a8565b8060005b838110156120da5781516120c18882611e78565b97506120cc83612863565b9250506001810190506120ad565b5085935050505092915050565b60006120f28261280e565b6120fc818561289d565b9350612107836127a8565b8060005b8381101561213857815161211f8882611e90565b975061212a83612863565b92505060018101905061210b565b5085935050505092915050565b61214e816129c3565b82525050565b600061215f82612819565b61216981856128ae565b9350612179818560208601612a08565b61218281612b72565b840191505092915050565b6000815461219a81612a3b565b6121a481866128ae565b945060018216600081146121bf57600181146121d157612204565b60ff1983168652602086019350612204565b6121da856127b8565b60005b838110156121fc578154818901526001820191506020810190506121dd565b808801955050505b50505092915050565b600061221882612824565b61222281856128bf565b9350612232818560208601612a08565b61223b81612b72565b840191505092915050565b6000815461225381612a3b565b61225d81866128bf565b94506001821660008114612278576001811461228a576122bd565b60ff19831686526020860193506122bd565b612293856127cd565b60005b838110156122b557815481890152600182019150602081019050612296565b808801955050505b50505092915050565b60006122d36011836128bf565b91507f6f6e6c79206f7267616e697a6174696f6e0000000000000000000000000000006000830152602082019050919050565b60006123136015836128bf565b91507f4d6178696d756d206c696d6974207265616368656400000000000000000000006000830152602082019050919050565b60006123536008836128bf565b91507f6f6e6c79206f72670000000000000000000000000000000000000000000000006000830152602082019050919050565b60006123936016836128bf565b91507f7468652067616d6520686173206e6f7420656e646564000000000000000000006000830152602082019050919050565b60006123d36016836128bf565b91507f496e73756666696369656e7420656e74727920666565000000000000000000006000830152602082019050919050565b61240f816129ef565b82525050565b61241e816129ef565b82525050565b61242d816129ef565b82525050565b61243c816129ef565b82525050565b60006020820190506124576000830184611ea8565b92915050565b6000602082019050818103600083015261247781846120e7565b905092915050565b600060208201905081810360008301526124998184612089565b905092915050565b60006020820190506124b66000830184612145565b92915050565b600060a08201905081810360008301526124d6818861220d565b905081810360208301526124ea818761220d565b905081810360408301526124fe818661220d565b905061250d6060830185611ea8565b818103608083015261251f8184611eb7565b90509695505050505050565b600060e0820190508181036000830152612545818a612246565b905081810360208301526125598189612246565b9050818103604083015261256d8188612246565b905081810360608301526125818187611f2c565b90506125906080830186612415565b61259d60a0830185612415565b6125aa60c0830184611ea8565b98975050505050505050565b600060208201905081810360008301526125cf816122c6565b9050919050565b600060208201905081810360008301526125ef81612306565b9050919050565b6000602082019050818103600083015261260f81612346565b9050919050565b6000602082019050818103600083015261262f81612386565b9050919050565b6000602082019050818103600083015261264f816123c6565b9050919050565b600060208201905061266b6000830184612424565b92915050565b60006020820190506126866000830184612415565b92915050565b6000604051905081810181811067ffffffffffffffff821117156126b3576126b2612b43565b5b8060405250919050565b600067ffffffffffffffff8211156126d8576126d7612b43565b5b602082029050602081019050919050565b600067ffffffffffffffff82111561270457612703612b43565b5b602082029050919050565b600067ffffffffffffffff82111561272a57612729612b43565b5b601f19601f8301169050602081019050919050565b600067ffffffffffffffff82111561275a57612759612b43565b5b601f19601f8301169050602081019050919050565b6000819050602082019050919050565b60008190508160005260206000209050919050565b6000819050919050565b6000819050919050565b6000819050602082019050919050565b60008190508160005260206000209050919050565b60008190508160005260206000209050919050565b600081519050919050565b600081549050919050565b600060149050919050565b600060149050919050565b600081519050919050565b600081519050919050565b600081519050919050565b6000602082019050919050565b6000601482019050919050565b6000602082019050919050565b6000600182019050919050565b6000602082019050919050565b600082825260208201905092915050565b600081905092915050565b600082825260208201905092915050565b600082825260208201905092915050565b600082825260208201905092915050565b600082825260208201905092915050565b60006128db826129ef565b91506128e6836129ef565b9250827fffffffffffffffffffffffffffffffffffffffffffffffffffffffffffffffff0382111561291b5761291a612ab6565b5b828201905092915050565b6000612931826129ef565b915061293c836129ef565b92508261294c5761294b612ae5565b5b828204905092915050565b6000612962826129ef565b915061296d836129ef565b9250817fffffffffffffffffffffffffffffffffffffffffffffffffffffffffffffffff04831182151516156129a6576129a5612ab6565b5b828202905092915050565b60006129bc826129cf565b9050919050565b60008115159050919050565b600073ffffffffffffffffffffffffffffffffffffffff82169050919050565b6000819050919050565b82818337600083830152505050565b60005b83811015612a26578082015181840152602081019050612a0b565b83811115612a35576000848401525b50505050565b60006002820490506001821680612a5357607f821691505b60208210811415612a6757612a66612b14565b5b50919050565b6000612a78826129ef565b91507fffffffffffffffffffffffffffffffffffffffffffffffffffffffffffffffff821415612aab57612aaa612ab6565b5b600182019050919050565b7f4e487b7100000000000000000000000000000000000000000000000000000000600052601160045260246000fd5b7f4e487b7100000000000000000000000000000000000000000000000000000000600052601260045260246000fd5b7f4e487b7100000000000000000000000000000000000000000000000000000000600052602260045260246000fd5b7f4e487b7100000000000000000000000000000000000000000000000000000000600052604160045260246000fd5b6000601f19601f8301169050919050565b612b8c816129b1565b8114612b9757600080fd5b50565b612ba3816129ef565b8114612bae57600080fd5b5056fea2646970667358221220c84119aea154b419f3e9b2d04c2550f8e0cb5b618d64333d8ae110aff7241bf064736f6c63430008000033",
  "immutableReferences": {},
  "source": "// SPDX-License-Identifier: MIT\r\npragma solidity >=0.8.0;\r\n\r\nimport \"@openzeppelin/contracts/token/ERC721/extensions/ERC721URIStorage.sol\"; \r\nimport \"@openzeppelin/contracts/access/Ownable.sol\";\r\nimport \"@openzeppelin/contracts/utils/Counters.sol\";\r\n\r\n\r\nlibrary MyMathlib{\r\n    function sqrt(uint num) public pure returns(uint){\r\n        uint start = 1;\r\n        uint end = num;\r\n        uint mid = start;\r\n        while(start < end){\r\n            mid = start + (end - start)/2;\r\n            if(mid * mid >= num){\r\n                end = mid;\r\n            }else{\r\n                start = mid+1;\r\n            }\r\n        }\r\n        return end;\r\n    }\r\n\r\n    function sum(uint[] memory arr) public pure returns (uint){\r\n        uint buf = 0;\r\n        for(uint i=0; i<arr.length; i++){\r\n            buf += arr[i];\r\n        }\r\n        return buf;\r\n    }\r\n}\r\n\r\n\r\ncontract Knitts{\r\n    address public organization = 0x79e6234Ff4E7DB556F916FeBcE9e52a68D0B8879;\r\n    address[] public Leagues;\r\n    uint public numLeagues=0;\r\n  \tmapping(address => address) public idToUser; \r\n\r\n    function createLeague(uint _entryFee, uint _numPlayers, uint _duration) public payable returns (address[] memory){\r\n        League newLeague = new League(msg.sender, msg.value, _entryFee, _numPlayers, _duration, address(this));\r\n        numLeagues += 1;\r\n        Leagues.push(address(newLeague));\r\n        return Leagues;\r\n    }\r\n\r\n\r\n    function register(address id, address userContract) public {\r\n        idToUser[id] = userContract;\r\n    }\r\n}\r\n\r\ncontract League{\r\n    using  MyMathlib for *;\r\n\r\n    //constant variables\r\n    address public organization;\r\n    address public knittsAddress;\r\n\r\n    //parameters\r\n    uint public entryFee;\r\n    uint public maxParticipants;\r\n    address public moderator;\r\n    uint public duration;\r\n    uint public deposit;\r\n\r\n    //contract variables\r\n    uint public numProjects=0;\r\n    address [] public participants;\r\n    bool public started=false;\r\n    bool public ended=false;\r\n    bool public distributed=false;\r\n    uint [] public points;\r\n    \r\n\r\n    struct project{\r\n\r\n        //parameters\r\n        string title;\r\n        string url;\r\n        string image;\r\n        address owner;\r\n        bytes[20][] description;\r\n\r\n        //variables\r\n        mapping(address => uint)investments;\r\n        address[] investors;\r\n        uint total_fund;\r\n    }\r\n\t\t\r\n    mapping(uint => project) projects;\r\n\r\n    constructor(address _moderator, uint _deposit, uint _entryFee, uint _maxParticipants, uint _duration, address _knittsAddress){\r\n        entryFee = _entryFee;\r\n        maxParticipants = _maxParticipants;\r\n        moderator = _moderator;\r\n        duration = _duration;\r\n        organization = _moderator; // for local testing\r\n        knittsAddress = _knittsAddress;\r\n        deposit = _deposit;\r\n    }\r\n\r\n    function submitIdea(string memory title, string memory url, string memory image, bytes[20][] memory description) external payable returns(uint){\r\n        require(msg.value >= entryFee, \"Insufficient entry fee\");\r\n        require(numProjects < maxParticipants, \"Maximum limit reached\");\r\n        project storage p = projects[numProjects++];\r\n        p.title = title;\r\n        p.url = url;\r\n        p.image = image;\r\n        p.owner = msg.sender;\r\n        p.description = description;\r\n        return numProjects;\r\n    }\r\n\r\n    function invest(uint projectId) external payable{\r\n        project storage p = projects[projectId];\r\n        if(p.investments[msg.sender] == 0){\r\n            p.investors.push(msg.sender);\r\n        }\r\n        p.total_fund += msg.value/1e12;\r\n        p.investments[msg.sender] += msg.value/1e12;\r\n        \r\n    }\r\n\r\n    function startLeague() external {\r\n        require(msg.sender == organization, \"only org\");\r\n        started=true;\r\n    }\r\n\r\n    function endLeague() external returns(uint[] memory){\r\n        require(msg.sender == organization, \"only org\");\r\n        ended=true;\r\n        payable(moderator).transfer(deposit);\r\n        getPoints();\r\n      \tuint total_points = points.sum();\r\n        uint averagePoints = total_points / numProjects;\r\n      \r\n      \tfor(uint i=0;i<numProjects; i++) {\r\n            Knitts _knitts = Knitts(knittsAddress);\r\n            address _userId = _knitts.idToUser(projects[i].owner);\r\n            User _user = User(_userId);\r\n            _user.addProject(projects[i].title, projects[i].url, projects[i].image, projects[i].description, points[i] , averagePoints, address(this) );\r\n        } \r\n        distribute(total_points);\r\n        return points;\r\n    }\r\n\r\n\r\n    function submissionDetails(uint projectId) external view returns(\r\n        string memory,\r\n        string memory,\r\n        string memory,\r\n        address, \r\n        bytes[20][] memory\r\n    )  {\r\n        project storage p  = projects[projectId];\r\n        return (p.title, p.url, p.image, p.owner, p.description);\r\n    }\r\n\r\n\r\n    function getPoints() internal returns(uint[] memory){\r\n        require(ended = true, \"the game has not ended\");\r\n        uint [] memory empty_points;\r\n        points = empty_points;\r\n        for(uint i=0; i < numProjects; i++){\r\n            uint buf = 0;\r\n            project storage p = projects[i];\r\n            for(uint j=0; j< p.investors.length; j++){\r\n                address inv = p.investors[j];\r\n                buf += (p.investments[inv]).sqrt();\r\n            }\r\n            points.push(buf * buf);\r\n        }\r\n        return points;\r\n    }\r\n\r\n    function distribute(uint total_points) internal {\r\n        require(msg.sender == organization, \"only organization\");\r\n        uint total_balance = address(this).balance;\r\n        \r\n        for(uint i=0; i<numProjects; i++){\r\n            project storage p  =  projects[i];\r\n            \r\n            payable(p.owner).transfer( (3*points[i]*total_balance)/(10*total_points) );\r\n\r\n            for(uint j=0; j<p.investors.length; j++){\r\n                address investor = p.investors[j];\r\n                Knitts _knitts = Knitts(knittsAddress);\r\n                address _userId = _knitts.idToUser(p.investors[j]);\r\n                User _user = User(_userId);\r\n                _user.split{value:(6 * points[i] * total_balance * p.investments[investor]) / (10 * total_points * p.total_fund)}();\r\n            }\r\n        }\r\n\r\n        payable(moderator).transfer(address(this).balance);\r\n\r\n    }\r\n\r\n    \r\n}\r\n\r\n\r\ncontract User {\r\n\r\n    //parameters\r\n    string public name;\r\n  \taddress public id; //metamask address of corresponding user\r\n\r\n    //contract variables\r\n  \tuint public numProjects=0;\r\n    address[] public NFTs_created;\r\n    uint public pending_nfts = 0;\r\n\r\n\r\n    constructor( address _id, string memory _name ) {\r\n        name = _name;\r\n        id = _id;\r\n    }\r\n\r\n    struct project{\r\n        string title;\r\n        string url;\r\n        string image;\r\n        bytes[20][] description;\r\n        uint point;\r\n        uint average_point;\r\n        address submittedOn;\r\n    }\r\n\r\n    project[20] public projects;\r\n    \r\n    function addProject(string memory _title, string memory _url, string memory _image, bytes[20][] memory _description, uint _point, uint _average_point, address _submittedOn) external {\r\n        projects[numProjects++] = project({title:_title, url:_url, image:_image, description:_description, point:_point, average_point:_average_point, submittedOn:_submittedOn});\r\n    }\r\n    \r\n\r\n    function createNFT(uint _bronze, uint price) external returns(address [] memory){\r\n        require(_bronze <= 10, \"You can create only 10 bronzes\");\r\n        require(pending_nfts == 0, \"There are pending nfts still\");\r\n        require(msg.sender == id, \"wrong user account\");\r\n\r\n        for(uint i=0; i<_bronze; i++){\r\n            NFT new_nft = new NFT(id, \"Bronze\", \"B\", id, 'https://s3.envato.com/files/235568921/preview.jpg', 1, price);\r\n            NFTs_created.push(address(new_nft));\r\n        }\r\n\r\n        pending_nfts = _bronze;\r\n        return NFTs_created;\r\n    }\r\n\r\n    function split() external payable {\r\n        uint value = (msg.value * 95) / 100;\r\n        if(pending_nfts > 0){\r\n            for(uint i=0; i<NFTs_created.length; i++){\r\n                NFT nft = NFT(NFTs_created[i]);\r\n                payable(nft.ownerOf(1)).transfer((value)/10);\r\n            }\r\n            scratchNFTs();\r\n        }\r\n        \r\n        payable(id).transfer(address(this).balance);\r\n    }\r\n\r\n    function scratchNFTs() internal returns(uint){\r\n        uint rem = 0;\r\n        for(uint i=0; i<NFTs_created.length; i++){\r\n            NFT new_nft =  NFT(NFTs_created[i]);\r\n            rem = new_nft.scratchCard();\r\n        }\r\n        if(rem == 0){\r\n            pending_nfts = 0;\r\n            address [] memory temp;\r\n            NFTs_created = temp;\r\n        }\r\n        return rem;\r\n    }\r\n  \r\n}\r\n\r\ncontract NFT is ERC721URIStorage, Ownable{\r\n    using Counters for Counters.Counter;\r\n    Counters.Counter private _tokenIds;\r\n    address public nft_creator;\r\n    uint public leaguesMore;\r\n    uint public price;\r\n    uint public newItemId;\r\n    constructor(address _creator, string memory _name, string memory _symbol, address _player, string memory _tokenURI, uint _leaguesMore, uint _price) ERC721(_name, _symbol){\r\n        nft_creator = _creator;\r\n        leaguesMore = _leaguesMore;\r\n        _tokenIds.increment();\r\n        newItemId = _tokenIds.current();\r\n        _mint(_player, newItemId);\r\n        _setTokenURI(newItemId, _tokenURI);\r\n        _approve(address(this), newItemId);\r\n        price = _price;\r\n    }\r\n\r\n    function scratchCard() public returns (uint){\r\n        require(leaguesMore > 0, \"expired\");\r\n        leaguesMore -= 1;\r\n        if(leaguesMore == 0){\r\n            _burn(1);\r\n        }\r\n        return leaguesMore;\r\n    }\r\n\r\n    function updatePrice(uint _price) external onlyOwner {\r\n        price = _price;\r\n    }\r\n\r\n    function buy() external payable {\r\n        require(msg.value >= price, \"costs more\");\r\n        address old_owner = ownerOf(newItemId);\r\n        _transfer(old_owner, address(this), newItemId);\r\n        _approve(msg.sender, newItemId);\r\n        payable(old_owner).transfer(address(this).balance);\r\n    } \r\n\r\n}\r\n\r\n",
  "sourcePath": "E:\\projects\\knitts\\back-end\\contracts\\League.sol",
  "compiler": {
    "name": "solc",
    "version": "0.8.0+commit.c7dfd78e.Emscripten.clang"
  },
  "schemaVersion": "3.4.3",
  "updatedAt": "2021-10-03T11:46:32.072Z",
  "devdoc": {
    "kind": "dev",
    "methods": {},
    "version": 1
  },
  "userdoc": {
    "kind": "user",
    "methods": {},
    "version": 1
  }
}