{
  "contractName": "League",
  "abi": [
    {
      "inputs": [
        {
          "internalType": "address",
          "name": "_moderator",
          "type": "address"
        },
        {
          "internalType": "uint256",
          "name": "_entryFee",
          "type": "uint256"
        },
        {
          "internalType": "uint256",
          "name": "_maxParticipants",
          "type": "uint256"
        },
        {
          "internalType": "uint256",
          "name": "_duration",
          "type": "uint256"
        }
      ],
      "stateMutability": "nonpayable",
      "type": "constructor"
    },
    {
      "inputs": [
        {
          "internalType": "string",
          "name": "description",
          "type": "string"
        }
      ],
      "name": "submitIdea",
      "outputs": [
        {
          "internalType": "uint256",
          "name": "",
          "type": "uint256"
        }
      ],
      "stateMutability": "payable",
      "type": "function",
      "payable": true
    },
    {
      "inputs": [
        {
          "internalType": "uint256",
          "name": "projectId",
          "type": "uint256"
        }
      ],
      "name": "invest",
      "outputs": [],
      "stateMutability": "payable",
      "type": "function",
      "payable": true
    },
    {
      "inputs": [],
      "name": "startLeague",
      "outputs": [],
      "stateMutability": "nonpayable",
      "type": "function"
    },
    {
      "inputs": [],
      "name": "endLeague",
      "outputs": [],
      "stateMutability": "nonpayable",
      "type": "function"
    },
    {
      "inputs": [],
      "name": "getPoints",
      "outputs": [
        {
          "internalType": "uint256[]",
          "name": "",
          "type": "uint256[]"
        }
      ],
      "stateMutability": "nonpayable",
      "type": "function"
    },
    {
      "inputs": [],
      "name": "distribute",
      "outputs": [],
      "stateMutability": "nonpayable",
      "type": "function"
    },
    {
      "inputs": [],
      "name": "getDetails",
      "outputs": [
        {
          "internalType": "address",
          "name": "",
          "type": "address"
        },
        {
          "internalType": "uint256",
          "name": "",
          "type": "uint256"
        },
        {
          "internalType": "uint256",
          "name": "",
          "type": "uint256"
        },
        {
          "internalType": "bool",
          "name": "",
          "type": "bool"
        },
        {
          "internalType": "bool",
          "name": "",
          "type": "bool"
        },
        {
          "internalType": "bool",
          "name": "",
          "type": "bool"
        }
      ],
      "stateMutability": "view",
      "type": "function",
      "constant": true
    }
  ],
  "bytecode": "0x60806040527379e6234ff4e7db556f916febce9e52a68d0b88796000806101000a81548173ffffffffffffffffffffffffffffffffffffffff021916908373ffffffffffffffffffffffffffffffffffffffff1602179055503480156200006557600080fd5b50604051620012323803806200123283398181016040528101906200008b919062000172565b826001819055508160028190555083600560006101000a81548173ffffffffffffffffffffffffffffffffffffffff021916908373ffffffffffffffffffffffffffffffffffffffff1602179055508060068190555060006003819055506000600760006101000a81548160ff0219169083151502179055506000600760016101000a81548160ff0219169083151502179055506000600760026101000a81548160ff0219169083151502179055505050505062000250565b60008151905062000155816200021c565b92915050565b6000815190506200016c8162000236565b92915050565b600080600080608085870312156200018957600080fd5b6000620001998782880162000144565b9450506020620001ac878288016200015b565b9350506040620001bf878288016200015b565b9250506060620001d2878288016200015b565b91505092959194509250565b6000620001eb82620001f2565b9050919050565b600073ffffffffffffffffffffffffffffffffffffffff82169050919050565b6000819050919050565b6200022781620001de565b81146200023357600080fd5b50565b620002418162000212565b81146200024d57600080fd5b50565b610fd280620002606000396000f3fe6080604052600436106100705760003560e01c8063c3b7a80f1161004e578063c3b7a80f146100d8578063e4fc6b6d146100ef578063f4b7095b14610106578063fbbf93a01461013157610070565b806324fd7918146100755780632afcf4801461008c578063b5a820ed146100a8575b600080fd5b34801561008157600080fd5b5061008a610161565b005b6100a660048036038101906100a1919061083a565b610215565b005b6100c260048036038101906100bd91906107f9565b6102c6565b6040516100cf9190610d0a565b60405180910390f35b3480156100e457600080fd5b506100ed6103e7565b005b3480156100fb57600080fd5b50610104610494565b005b34801561011257600080fd5b5061011b610524565b6040516101289190610be8565b60405180910390f35b34801561013d57600080fd5b50610146610663565b60405161015896959493929190610b87565b60405180910390f35b60008054906101000a900473ffffffffffffffffffffffffffffffffffffffff1673ffffffffffffffffffffffffffffffffffffffff163373ffffffffffffffffffffffffffffffffffffffff16146101ef576040517f08c379a00000000000000000000000000000000000000000000000000000000081526004016101e690610c6a565b60405180910390fd5b6001600760016101000a81548160ff021916908315150217905550610212610524565b50565b6003548110610259576040517f08c379a000000000000000000000000000000000000000000000000000000000815260040161025090610cea565b60405180910390fd5b346009600083815260200190815260200160002060020160003373ffffffffffffffffffffffffffffffffffffffff1673ffffffffffffffffffffffffffffffffffffffff16815260200190815260200160002060008282546102bc9190610dd0565b9250508190555050565b600060015434101561030d576040517f08c379a000000000000000000000000000000000000000000000000000000000815260040161030490610caa565b60405180910390fd5b60025460035410610353576040517f08c379a000000000000000000000000000000000000000000000000000000000815260040161034a90610c4a565b60405180910390fd5b6000600960006003600081548092919061036c90610eaf565b9190505581526020019081526020016000209050338160000160006101000a81548173ffffffffffffffffffffffffffffffffffffffff021916908373ffffffffffffffffffffffffffffffffffffffff160217905550828160010190805190602001906103db9291906106d9565b50600354915050919050565b600560009054906101000a900473ffffffffffffffffffffffffffffffffffffffff1673ffffffffffffffffffffffffffffffffffffffff163373ffffffffffffffffffffffffffffffffffffffff1614610477576040517f08c379a000000000000000000000000000000000000000000000000000000000815260040161046e90610c0a565b60405180910390fd5b6001600760006101000a81548160ff021916908315150217905550565b60008054906101000a900473ffffffffffffffffffffffffffffffffffffffff1673ffffffffffffffffffffffffffffffffffffffff163373ffffffffffffffffffffffffffffffffffffffff1614610522576040517f08c379a000000000000000000000000000000000000000000000000000000000815260040161051990610c2a565b60405180910390fd5b565b60606001600760016101000a81548160ff021916908315150217905561057f576040517f08c379a000000000000000000000000000000000000000000000000000000000815260040161057690610c8a565b60405180910390fd5b60008054906101000a900473ffffffffffffffffffffffffffffffffffffffff1673ffffffffffffffffffffffffffffffffffffffff163373ffffffffffffffffffffffffffffffffffffffff161461060d576040517f08c379a000000000000000000000000000000000000000000000000000000000815260040161060490610cca565b60405180910390fd5b600880548060200260200160405190810160405280929190818152602001828054801561065957602002820191906000526020600020905b815481526020019060010190808311610645575b5050505050905090565b600080600080600080600560009054906101000a900473ffffffffffffffffffffffffffffffffffffffff16600154600254600760009054906101000a900460ff16600760019054906101000a900460ff16600760029054906101000a900460ff16955095509550955095509550909192939495565b8280546106e590610e7d565b90600052602060002090601f016020900481019282610707576000855561074e565b82601f1061072057805160ff191683800117855561074e565b8280016001018555821561074e579182015b8281111561074d578251825591602001919060010190610732565b5b50905061075b919061075f565b5090565b5b80821115610778576000816000905550600101610760565b5090565b600061078f61078a84610d56565b610d25565b9050828152602081018484840111156107a757600080fd5b6107b2848285610e6e565b509392505050565b600082601f8301126107cb57600080fd5b81356107db84826020860161077c565b91505092915050565b6000813590506107f381610f85565b92915050565b60006020828403121561080b57600080fd5b600082013567ffffffffffffffff81111561082557600080fd5b610831848285016107ba565b91505092915050565b60006020828403121561084c57600080fd5b600061085a848285016107e4565b91505092915050565b600061086f8383610b69565b60208301905092915050565b61088481610e26565b82525050565b600061089582610d96565b61089f8185610dae565b93506108aa83610d86565b8060005b838110156108db5781516108c28882610863565b97506108cd83610da1565b9250506001810190506108ae565b5085935050505092915050565b6108f181610e38565b82525050565b6000610904602383610dbf565b91507f6f6e6c79206d6f64657261746f722063616e20737461727420746865206c656160008301527f67756500000000000000000000000000000000000000000000000000000000006020830152604082019050919050565b600061096a602783610dbf565b91507f6f6e6c79206f7267616e697a6174696f6e2063616e206469737472696275746560008301527f207072697a6573000000000000000000000000000000000000000000000000006020830152604082019050919050565b60006109d0601583610dbf565b91507f4d6178696d756d206c696d6974207265616368656400000000000000000000006000830152602082019050919050565b6000610a10602483610dbf565b91507f6f6e6c79206f7267616e697a6174696f6e2063616e20656e6420746865206c6560008301527f61677565000000000000000000000000000000000000000000000000000000006020830152604082019050919050565b6000610a76601683610dbf565b91507f7468652067616d6520686173206e6f7420656e646564000000000000000000006000830152602082019050919050565b6000610ab6601683610dbf565b91507f496e73756666696369656e7420656e74727920666565000000000000000000006000830152602082019050919050565b6000610af6602083610dbf565b91507f6f6e6c79206f7267616e697a6174696f6e206765742074686520706f696e74736000830152602082019050919050565b6000610b36601283610dbf565b91507f496e76616c69642070726f6a65637420696400000000000000000000000000006000830152602082019050919050565b610b7281610e64565b82525050565b610b8181610e64565b82525050565b600060c082019050610b9c600083018961087b565b610ba96020830188610b78565b610bb66040830187610b78565b610bc360608301866108e8565b610bd060808301856108e8565b610bdd60a08301846108e8565b979650505050505050565b60006020820190508181036000830152610c02818461088a565b905092915050565b60006020820190508181036000830152610c23816108f7565b9050919050565b60006020820190508181036000830152610c438161095d565b9050919050565b60006020820190508181036000830152610c63816109c3565b9050919050565b60006020820190508181036000830152610c8381610a03565b9050919050565b60006020820190508181036000830152610ca381610a69565b9050919050565b60006020820190508181036000830152610cc381610aa9565b9050919050565b60006020820190508181036000830152610ce381610ae9565b9050919050565b60006020820190508181036000830152610d0381610b29565b9050919050565b6000602082019050610d1f6000830184610b78565b92915050565b6000604051905081810181811067ffffffffffffffff82111715610d4c57610d4b610f56565b5b8060405250919050565b600067ffffffffffffffff821115610d7157610d70610f56565b5b601f19601f8301169050602081019050919050565b6000819050602082019050919050565b600081519050919050565b6000602082019050919050565b600082825260208201905092915050565b600082825260208201905092915050565b6000610ddb82610e64565b9150610de683610e64565b9250827fffffffffffffffffffffffffffffffffffffffffffffffffffffffffffffffff03821115610e1b57610e1a610ef8565b5b828201905092915050565b6000610e3182610e44565b9050919050565b60008115159050919050565b600073ffffffffffffffffffffffffffffffffffffffff82169050919050565b6000819050919050565b82818337600083830152505050565b60006002820490506001821680610e9557607f821691505b60208210811415610ea957610ea8610f27565b5b50919050565b6000610eba82610e64565b91507fffffffffffffffffffffffffffffffffffffffffffffffffffffffffffffffff821415610eed57610eec610ef8565b5b600182019050919050565b7f4e487b7100000000000000000000000000000000000000000000000000000000600052601160045260246000fd5b7f4e487b7100000000000000000000000000000000000000000000000000000000600052602260045260246000fd5b7f4e487b7100000000000000000000000000000000000000000000000000000000600052604160045260246000fd5b610f8e81610e64565b8114610f9957600080fd5b5056fea264697066735822122022c12ff3ef2bf1ddee4569331d186d6d286a46f891062841fad8a1233119a3b664736f6c63430008000033",
  "immutableReferences": {},
  "source": "// SPDX-License-Identifier: MIT\r\npragma solidity >=0.8.0;\r\n\r\ncontract Knitts{\r\n    //organization address here\r\n    address organization = 0x79e6234Ff4E7DB556F916FeBcE9e52a68D0B8879;\r\n    address[] moderators;\r\n    mapping(address => uint) deposits;\r\n    address[] Leagues;\r\n    function addModerator() public payable{\r\n        require(msg.value > 0, \"You should deposit some amount\");\r\n        moderators.push(msg.sender);\r\n        deposits[msg.sender] = msg.value;\r\n    }\r\n\r\n    function depositMore() public payable{\r\n        require(msg.value >= 0, \"You need to deposit some amount\");\r\n        deposits[msg.sender] += msg.value;\r\n    }\r\n\r\n    function createLeague(uint _entryFee, uint _numPlayers, uint _duration) public returns(address[] memory){\r\n        require(_entryFee * _numPlayers <= deposits[msg.sender], \"Insufficient deposit\");\r\n        League newLeague = new League(msg.sender, _entryFee, _numPlayers, _duration);\r\n        Leagues.push(address(newLeague));\r\n        return Leagues;\r\n    }\r\n\r\n    function getBalance(address _moderator) public view returns (uint){\r\n        return deposits[_moderator];\r\n    }\r\n\r\n    function getDetails() public view returns (address [] memory, address [] memory){\r\n        return (moderators, Leagues);\r\n    }\r\n    \r\n}\r\n\r\ncontract League{\r\n    address organization = 0x79e6234Ff4E7DB556F916FeBcE9e52a68D0B8879;\r\n    uint entryFee;\r\n    uint maxParticipants;\r\n    uint numProjects;\r\n    address [] participants;\r\n    address moderator;\r\n    uint duration;\r\n    bool started;\r\n    bool ended;\r\n    bool distributed;\r\n    uint [] points;\r\n    struct project{\r\n        address owner;\r\n        string description;\r\n        mapping(address => uint)investments;\r\n    }\r\n\r\n    mapping(uint => project) projects;\r\n\r\n    constructor(address _moderator, uint _entryFee, uint _maxParticipants, uint _duration){\r\n        entryFee = _entryFee;\r\n        maxParticipants = _maxParticipants;\r\n        moderator = _moderator;\r\n        duration = _duration;\r\n        numProjects = 0;\r\n        started=false;\r\n        ended=false;\r\n        distributed=false;\r\n    }\r\n\r\n    function submitIdea(string memory description) public payable returns(uint){\r\n        require(msg.value >= entryFee, \"Insufficient entry fee\");\r\n        require(numProjects < maxParticipants, \"Maximum limit reached\");\r\n        project storage p = projects[numProjects++];\r\n        p.owner = msg.sender;\r\n        p.description = description;\r\n        return numProjects;\r\n    }\r\n\r\n    function invest(uint projectId) public payable{\r\n        require(projectId < numProjects, \"Invalid project id\");\r\n        projects[projectId].investments[msg.sender] += msg.value;\r\n    }\r\n\r\n    function startLeague() public{\r\n        require(msg.sender == moderator, \"only moderator can start the league\");\r\n        started=true;\r\n    }\r\n\r\n    function endLeague() public{\r\n        require(msg.sender == organization, \"only organization can end the league\");\r\n        ended=true;\r\n        getPoints();\r\n    }\r\n\r\n    function getPoints() public returns(uint[] memory){\r\n        require(ended = true, \"the game has not ended\");\r\n        require(msg.sender == organization, \"only organization get the points\");\r\n        //write quadratic funding code here\r\n        return points;\r\n    }\r\n\r\n    function distribute() public{\r\n        require(msg.sender == organization, \"only organization can distribute prizes\");\r\n        //write the quadratic function\r\n    }\r\n\r\n    function getDetails() public view returns(\r\n        address,//moderator\r\n        uint,//entry fee\r\n        uint,//maxParticipants\r\n        bool, //started\r\n        bool, //ended\r\n        bool //distributed\r\n    ){\r\n        return (moderator, entryFee, maxParticipants, started, ended, distributed);\r\n    }\r\n}",
  "sourcePath": "E:\\projects\\knitts\\back-end\\contracts\\League.sol",
  "compiler": {
    "name": "solc",
    "version": "0.8.0+commit.c7dfd78e.Emscripten.clang"
  },
  "schemaVersion": "3.4.3",
  "updatedAt": "2021-09-17T16:40:11.138Z",
  "networkType": "ethereum",
  "devdoc": {
    "kind": "dev",
    "methods": {},
    "version": 1
  },
  "userdoc": {
    "kind": "user",
    "methods": {},
    "version": 1
  }
}