{
  "contractName": "MyMathlib",
  "abi": [
    {
      "inputs": [
        {
          "internalType": "uint256",
          "name": "num",
          "type": "uint256"
        }
      ],
      "name": "sqrt",
      "outputs": [
        {
          "internalType": "uint256",
          "name": "",
          "type": "uint256"
        }
      ],
      "stateMutability": "pure",
      "type": "function"
    },
    {
      "inputs": [
        {
          "internalType": "uint256[]",
          "name": "arr",
          "type": "uint256[]"
        }
      ],
      "name": "sum",
      "outputs": [
        {
          "internalType": "uint256",
          "name": "",
          "type": "uint256"
        }
      ],
      "stateMutability": "pure",
      "type": "function"
    }
  ],
  "bytecode": "0x61057a610053600b82828239805160001a607314610046577f4e487b7100000000000000000000000000000000000000000000000000000000600052600060045260246000fd5b30600052607381538281f3fe73000000000000000000000000000000000000000030146080604052600436106100405760003560e01c80630194db8e14610045578063677342ce14610075575b600080fd5b61005f600480360381019061005a9190610247565b6100a5565b60405161006c91906102c0565b60405180910390f35b61008f600480360381019061008a9190610288565b610123565b60405161009c91906102c0565b60405180910390f35b6000806000905060005b8351811015610119578381815181106100f1577f4e487b7100000000000000000000000000000000000000000000000000000000600052603260045260246000fd5b6020026020010151826101049190610338565b9150808061011190610457565b9150506100af565b5080915050919050565b60008060019050600083905060008290505b81831015610191576002838361014b9190610419565b610155919061038e565b836101609190610338565b905084818261016f91906103bf565b1061017c5780915061018c565b6001816101899190610338565b92505b610135565b819350505050919050565b60006101af6101aa8461030c565b6102db565b905080838252602082019050828560208602820111156101ce57600080fd5b60005b858110156101fe57816101e48882610232565b8452602084019350602083019250506001810190506101d1565b5050509392505050565b600082601f83011261021957600080fd5b813561022984826020860161019c565b91505092915050565b6000813590506102418161052d565b92915050565b60006020828403121561025957600080fd5b600082013567ffffffffffffffff81111561027357600080fd5b61027f84828501610208565b91505092915050565b60006020828403121561029a57600080fd5b60006102a884828501610232565b91505092915050565b6102ba8161044d565b82525050565b60006020820190506102d560008301846102b1565b92915050565b6000604051905081810181811067ffffffffffffffff82111715610302576103016104fe565b5b8060405250919050565b600067ffffffffffffffff821115610327576103266104fe565b5b602082029050602081019050919050565b60006103438261044d565b915061034e8361044d565b9250827fffffffffffffffffffffffffffffffffffffffffffffffffffffffffffffffff03821115610383576103826104a0565b5b828201905092915050565b60006103998261044d565b91506103a48361044d565b9250826103b4576103b36104cf565b5b828204905092915050565b60006103ca8261044d565b91506103d58361044d565b9250817fffffffffffffffffffffffffffffffffffffffffffffffffffffffffffffffff048311821515161561040e5761040d6104a0565b5b828202905092915050565b60006104248261044d565b915061042f8361044d565b925082821015610442576104416104a0565b5b828203905092915050565b6000819050919050565b60006104628261044d565b91507fffffffffffffffffffffffffffffffffffffffffffffffffffffffffffffffff821415610495576104946104a0565b5b600182019050919050565b7f4e487b7100000000000000000000000000000000000000000000000000000000600052601160045260246000fd5b7f4e487b7100000000000000000000000000000000000000000000000000000000600052601260045260246000fd5b7f4e487b7100000000000000000000000000000000000000000000000000000000600052604160045260246000fd5b6105368161044d565b811461054157600080fd5b5056fea2646970667358221220bc498a610a245c92073f3203e1d444e92152e822de4843584a766dfc8c75e49164736f6c63430008000033",
  "immutableReferences": {},
  "source": "// SPDX-License-Identifier: MIT\r\npragma solidity >=0.8.0;\r\n\r\nimport \"@openzeppelin/contracts/token/ERC721/extensions/ERC721URIStorage.sol\"; \r\nimport \"@openzeppelin/contracts/access/Ownable.sol\";\r\nimport \"@openzeppelin/contracts/utils/Counters.sol\";\r\n\r\n\r\nlibrary MyMathlib{\r\n    function sqrt(uint num) public pure returns(uint){\r\n        uint start = 1;\r\n        uint end = num;\r\n        uint mid = start;\r\n        while(start < end){\r\n            mid = start + (end - start)/2;\r\n            if(mid * mid >= num){\r\n                end = mid;\r\n            }else{\r\n                start = mid+1;\r\n            }\r\n        }\r\n        return end;\r\n    }\r\n\r\n    function sum(uint[] memory arr) public pure returns (uint){\r\n        uint buf = 0;\r\n        for(uint i=0; i<arr.length; i++){\r\n            buf += arr[i];\r\n        }\r\n        return buf;\r\n    }\r\n}\r\n\r\n\r\ncontract Knitts{\r\n    address public organization = 0x79e6234Ff4E7DB556F916FeBcE9e52a68D0B8879;\r\n    address[] public Leagues;\r\n    uint public numLeagues=0;\r\n  \tmapping(address => address) public idToUser; \r\n\r\n    function createLeague(uint _entryFee, uint _numPlayers, uint _duration) public payable returns (address[] memory){\r\n        require(_entryFee * _numPlayers <= msg.value, \"Insufficient deposit\");\r\n        League newLeague = new League(msg.sender, msg.value, _entryFee, _numPlayers, _duration, address(this));\r\n        numLeagues += 1;\r\n        Leagues.push(address(newLeague));\r\n        return Leagues;\r\n    }\r\n\r\n\r\n    function register(address id, address userContract) public {\r\n        idToUser[id] = userContract;\r\n    }\r\n}\r\n\r\ncontract League{\r\n    using  MyMathlib for *;\r\n\r\n    //constant variables\r\n    address public organization;\r\n    address public knittsAddress;\r\n\r\n    //parameters\r\n    uint public entryFee;\r\n    uint public maxParticipants;\r\n    address public moderator;\r\n    uint public duration;\r\n    uint public deposit;\r\n\r\n    //contract variables\r\n    uint public numProjects=0;\r\n    address [] public participants;\r\n    bool public started=false;\r\n    bool public ended=false;\r\n    bool public distributed=false;\r\n    uint [] public points;\r\n    \r\n\r\n    struct project{\r\n\r\n        //parameters\r\n        string title;\r\n        string url;\r\n        string image;\r\n        address owner;\r\n        bytes[20][] description;\r\n\r\n        //variables\r\n        mapping(address => uint)investments;\r\n        address[] investors;\r\n        uint total_fund;\r\n    }\r\n\t\t\r\n    mapping(uint => project) projects;\r\n\r\n    constructor(address _moderator, uint _deposit, uint _entryFee, uint _maxParticipants, uint _duration, address _knittsAddress){\r\n        entryFee = _entryFee;\r\n        maxParticipants = _maxParticipants;\r\n        moderator = _moderator;\r\n        duration = _duration;\r\n        organization = _moderator; // for local testing\r\n        knittsAddress = _knittsAddress;\r\n        deposit = _deposit;\r\n    }\r\n\r\n    function submitIdea(string memory title, string memory url, string memory image, bytes[20][] memory description) external payable returns(uint){\r\n        require(msg.value >= entryFee, \"Insufficient entry fee\");\r\n        require(numProjects < maxParticipants, \"Maximum limit reached\");\r\n        project storage p = projects[numProjects++];\r\n        p.title = title;\r\n        p.url = url;\r\n        p.image = image;\r\n        p.owner = msg.sender;\r\n        p.description = description;\r\n        return numProjects;\r\n    }\r\n\r\n    function invest(uint projectId) external payable{\r\n        project storage p = projects[projectId];\r\n        if(p.investments[msg.sender] == 0){\r\n            p.investors.push(msg.sender);\r\n        }\r\n        p.total_fund += msg.value/1e12;\r\n        p.investments[msg.sender] += msg.value/1e12;\r\n        \r\n    }\r\n\r\n    function startLeague() external {\r\n        require(msg.sender == organization, \"only org\");\r\n        started=true;\r\n    }\r\n\r\n    function endLeague() external returns(uint[] memory){\r\n        require(msg.sender == organization, \"only org\");\r\n        ended=true;\r\n        payable(moderator).transfer(deposit);\r\n        getPoints();\r\n      \tuint total_points = points.sum();\r\n        uint averagePoints = total_points / numProjects;\r\n      \r\n      \tfor(uint i=0;i<numProjects; i++) {\r\n            Knitts _knitts = Knitts(knittsAddress);\r\n            address _userId = _knitts.idToUser(projects[i].owner);\r\n            User _user = User(_userId);\r\n            _user.addProject(projects[i].title, projects[i].url, projects[i].image, projects[i].description, points[i] , averagePoints, address(this) );\r\n        } \r\n        distribute(total_points);\r\n        return points;\r\n    }\r\n\r\n\r\n    function submissionDetails(uint projectId) external view returns(\r\n        string memory,\r\n        string memory,\r\n        string memory,\r\n        address, \r\n        bytes[20][] memory\r\n    )  {\r\n        project storage p  = projects[projectId];\r\n        return (p.title, p.url, p.image, p.owner, p.description);\r\n    }\r\n\r\n\r\n    function getPoints() internal returns(uint[] memory){\r\n        require(ended = true, \"the game has not ended\");\r\n        uint [] memory empty_points;\r\n        points = empty_points;\r\n        for(uint i=0; i < numProjects; i++){\r\n            uint buf = 0;\r\n            project storage p = projects[i];\r\n            for(uint j=0; j< p.investors.length; j++){\r\n                address inv = p.investors[j];\r\n                buf += (p.investments[inv]).sqrt();\r\n            }\r\n            points.push(buf * buf);\r\n        }\r\n        return points;\r\n    }\r\n\r\n    function distribute(uint total_points) internal {\r\n        require(msg.sender == organization, \"only organization\");\r\n        uint total_balance = address(this).balance;\r\n        \r\n        for(uint i=0; i<numProjects; i++){\r\n            project storage p  =  projects[i];\r\n            \r\n            payable(p.owner).transfer( (3*points[i]*total_balance)/(10*total_points) );\r\n\r\n            for(uint j=0; j<p.investors.length; j++){\r\n                address investor = p.investors[j];\r\n                Knitts _knitts = Knitts(knittsAddress);\r\n                address _userId = _knitts.idToUser(p.investors[j]);\r\n                User _user = User(_userId);\r\n                _user.split{value:(6 * points[i] * total_balance * p.investments[investor]) / (10 * total_points * p.total_fund)}();\r\n            }\r\n        }\r\n\r\n        payable(moderator).transfer(address(this).balance);\r\n\r\n    }\r\n\r\n    \r\n}\r\n\r\n\r\ncontract User {\r\n\r\n    //parameters\r\n    string public name;\r\n  \taddress public id; //metamask address of corresponding user\r\n\r\n    //contract variables\r\n  \tuint public numProjects=0;\r\n    address[] public NFTs_created;\r\n    uint public pending_nfts = 0;\r\n\r\n\r\n    constructor( address _id, string memory _name ) {\r\n        name = _name;\r\n        id = _id;\r\n    }\r\n\r\n    struct project{\r\n        string title;\r\n        string url;\r\n        string image;\r\n        bytes[20][] description;\r\n        uint point;\r\n        uint average_point;\r\n        address submittedOn;\r\n    }\r\n\r\n    project[20] public projects;\r\n    \r\n    function addProject(string memory _title, string memory _url, string memory _image, bytes[20][] memory _description, uint _point, uint _average_point, address _submittedOn) external {\r\n        projects[numProjects++] = project({title:_title, url:_url, image:_image, description:_description, point:_point, average_point:_average_point, submittedOn:_submittedOn});\r\n    }\r\n    \r\n\r\n    function createNFT(uint _bronze, uint price) external returns(address [] memory){\r\n        require(_bronze <= 10, \"You can create only 10 bronzes\");\r\n        require(pending_nfts == 0, \"There are pending nfts still\");\r\n        require(msg.sender == id, \"wrong user account\");\r\n\r\n        for(uint i=0; i<_bronze; i++){\r\n            NFT new_nft = new NFT(id, \"Bronze\", \"B\", id, 'https://s3.envato.com/files/235568921/preview.jpg', 1, price);\r\n            NFTs_created.push(address(new_nft));\r\n        }\r\n\r\n        pending_nfts = _bronze;\r\n        return NFTs_created;\r\n    }\r\n\r\n    function split() external payable {\r\n        uint value = (msg.value * 95) / 100;\r\n        if(pending_nfts > 0){\r\n            for(uint i=0; i<NFTs_created.length; i++){\r\n                NFT nft = NFT(NFTs_created[i]);\r\n                payable(nft.ownerOf(1)).transfer((value)/10);\r\n            }\r\n            scratchNFTs();\r\n        }\r\n        \r\n        payable(id).transfer(address(this).balance);\r\n    }\r\n\r\n    function scratchNFTs() internal returns(uint){\r\n        uint rem = 0;\r\n        for(uint i=0; i<NFTs_created.length; i++){\r\n            NFT new_nft =  NFT(NFTs_created[i]);\r\n            rem = new_nft.scratchCard();\r\n        }\r\n        if(rem == 0){\r\n            pending_nfts = 0;\r\n            address [] memory temp;\r\n            NFTs_created = temp;\r\n        }\r\n        return rem;\r\n    }\r\n  \r\n}\r\n\r\ncontract NFT is ERC721URIStorage, Ownable{\r\n    using Counters for Counters.Counter;\r\n    Counters.Counter private _tokenIds;\r\n    address public nft_creator;\r\n    uint public leaguesMore;\r\n    uint public price;\r\n    uint public newItemId;\r\n    constructor(address _creator, string memory _name, string memory _symbol, address _player, string memory _tokenURI, uint _leaguesMore, uint _price) ERC721(_name, _symbol){\r\n        nft_creator = _creator;\r\n        leaguesMore = _leaguesMore;\r\n        _tokenIds.increment();\r\n        newItemId = _tokenIds.current();\r\n        _mint(_player, newItemId);\r\n        _setTokenURI(newItemId, _tokenURI);\r\n        _approve(address(this), newItemId);\r\n        price = _price;\r\n    }\r\n\r\n    function scratchCard() public returns (uint){\r\n        require(leaguesMore > 0, \"expired\");\r\n        leaguesMore -= 1;\r\n        if(leaguesMore == 0){\r\n            _burn(1);\r\n        }\r\n        return leaguesMore;\r\n    }\r\n\r\n    function updatePrice(uint _price) external onlyOwner {\r\n        price = _price;\r\n    }\r\n\r\n    function buy() external payable {\r\n        require(msg.value >= price, \"costs more\");\r\n        address old_owner = ownerOf(newItemId);\r\n        _transfer(old_owner, address(this), newItemId);\r\n        _approve(msg.sender, newItemId);\r\n        payable(old_owner).transfer(address(this).balance);\r\n    } \r\n\r\n}\r\n\r\n",
  "sourcePath": "E:\\projects\\knitts\\back-end\\contracts\\League.sol",
  "compiler": {
    "name": "solc",
    "version": "0.8.0+commit.c7dfd78e.Emscripten.clang"
  },
  "schemaVersion": "3.4.3",
  "updatedAt": "2021-10-03T08:11:20.286Z",
  "devdoc": {
    "kind": "dev",
    "methods": {},
    "version": 1
  },
  "userdoc": {
    "kind": "user",
    "methods": {},
    "version": 1
  }
}