{
  "contractName": "NFT",
  "abi": [
    {
      "inputs": [
        {
          "internalType": "address",
          "name": "_organization",
          "type": "address"
        },
        {
          "internalType": "address",
          "name": "_createrContractId",
          "type": "address"
        },
        {
          "internalType": "address",
          "name": "_ownerContractId",
          "type": "address"
        },
        {
          "internalType": "address",
          "name": "_creater",
          "type": "address"
        },
        {
          "internalType": "address",
          "name": "_owner",
          "type": "address"
        },
        {
          "internalType": "uint256",
          "name": "_percentage",
          "type": "uint256"
        },
        {
          "internalType": "uint256",
          "name": "_gamesRemaining",
          "type": "uint256"
        }
      ],
      "stateMutability": "nonpayable",
      "type": "constructor"
    },
    {
      "inputs": [],
      "name": "creater",
      "outputs": [
        {
          "internalType": "address",
          "name": "",
          "type": "address"
        }
      ],
      "stateMutability": "view",
      "type": "function"
    },
    {
      "inputs": [],
      "name": "createrContractId",
      "outputs": [
        {
          "internalType": "address",
          "name": "",
          "type": "address"
        }
      ],
      "stateMutability": "view",
      "type": "function"
    },
    {
      "inputs": [],
      "name": "expired",
      "outputs": [
        {
          "internalType": "bool",
          "name": "",
          "type": "bool"
        }
      ],
      "stateMutability": "view",
      "type": "function"
    },
    {
      "inputs": [],
      "name": "gamesRemaining",
      "outputs": [
        {
          "internalType": "uint256",
          "name": "",
          "type": "uint256"
        }
      ],
      "stateMutability": "view",
      "type": "function"
    },
    {
      "inputs": [],
      "name": "organization",
      "outputs": [
        {
          "internalType": "address",
          "name": "",
          "type": "address"
        }
      ],
      "stateMutability": "view",
      "type": "function"
    },
    {
      "inputs": [],
      "name": "owner",
      "outputs": [
        {
          "internalType": "address",
          "name": "",
          "type": "address"
        }
      ],
      "stateMutability": "view",
      "type": "function"
    },
    {
      "inputs": [],
      "name": "ownerContractId",
      "outputs": [
        {
          "internalType": "address",
          "name": "",
          "type": "address"
        }
      ],
      "stateMutability": "view",
      "type": "function"
    },
    {
      "inputs": [],
      "name": "percentage",
      "outputs": [
        {
          "internalType": "uint256",
          "name": "",
          "type": "uint256"
        }
      ],
      "stateMutability": "view",
      "type": "function"
    },
    {
      "inputs": [],
      "name": "getDetails",
      "outputs": [
        {
          "internalType": "address",
          "name": "",
          "type": "address"
        },
        {
          "internalType": "address",
          "name": "",
          "type": "address"
        },
        {
          "internalType": "uint256",
          "name": "",
          "type": "uint256"
        },
        {
          "internalType": "uint256",
          "name": "",
          "type": "uint256"
        },
        {
          "internalType": "bool",
          "name": "",
          "type": "bool"
        }
      ],
      "stateMutability": "view",
      "type": "function"
    },
    {
      "inputs": [],
      "name": "strikeNFT",
      "outputs": [
        {
          "internalType": "uint256",
          "name": "",
          "type": "uint256"
        }
      ],
      "stateMutability": "nonpayable",
      "type": "function"
    }
  ],
  "bytecode": "0x608060405234801561001057600080fd5b5060405162000b0038038062000b00833981810160405281019061003491906101d7565b866000806101000a81548173ffffffffffffffffffffffffffffffffffffffff021916908373ffffffffffffffffffffffffffffffffffffffff16021790555083600160006101000a81548173ffffffffffffffffffffffffffffffffffffffff021916908373ffffffffffffffffffffffffffffffffffffffff16021790555082600260006101000a81548173ffffffffffffffffffffffffffffffffffffffff021916908373ffffffffffffffffffffffffffffffffffffffff16021790555081600381905550806004819055506000600560006101000a81548160ff02191690831515021790555085600560016101000a81548173ffffffffffffffffffffffffffffffffffffffff021916908373ffffffffffffffffffffffffffffffffffffffff16021790555084600660006101000a81548173ffffffffffffffffffffffffffffffffffffffff021916908373ffffffffffffffffffffffffffffffffffffffff160217905550505050505050506102df565b6000815190506101bc816102b1565b92915050565b6000815190506101d1816102c8565b92915050565b600080600080600080600060e0888a0312156101f257600080fd5b60006102008a828b016101ad565b97505060206102118a828b016101ad565b96505060406102228a828b016101ad565b95505060606102338a828b016101ad565b94505060806102448a828b016101ad565b93505060a06102558a828b016101c2565b92505060c06102668a828b016101c2565b91505092959891949750929550565b600061028082610287565b9050919050565b600073ffffffffffffffffffffffffffffffffffffffff82169050919050565b6000819050919050565b6102ba81610275565b81146102c557600080fd5b50565b6102d1816102a7565b81146102dc57600080fd5b50565b61081180620002ef6000396000f3fe608060405234801561001057600080fd5b506004361061009e5760003560e01c80638da5cb5b116100665780638da5cb5b14610139578063c78ad77f14610157578063d05ad2b414610175578063eacaec2d14610193578063fbbf93a0146101b15761009e565b8063204de7a6146100a357806323bd4d7a146100c157806345653a6d146100df5780634c2067c7146100fd5780638c1867fe1461011b575b600080fd5b6100ab6101d3565b6040516100b89190610604565b60405180910390f35b6100c96101f9565b6040516100d69190610604565b60405180910390f35b6100e761021d565b6040516100f49190610604565b60405180910390f35b610105610243565b6040516101129190610672565b60405180910390f35b610123610256565b6040516101309190610604565b60405180910390f35b61014161027c565b60405161014e9190610604565b60405180910390f35b61015f6102a2565b60405161016c91906106cd565b60405180910390f35b61017d6102a8565b60405161018a91906106cd565b60405180910390f35b61019b6104b6565b6040516101a891906106cd565b60405180910390f35b6101b96104bc565b6040516101ca95949392919061061f565b60405180910390f35b600560019054906101000a900473ffffffffffffffffffffffffffffffffffffffff1681565b60008054906101000a900473ffffffffffffffffffffffffffffffffffffffff1681565b600160009054906101000a900473ffffffffffffffffffffffffffffffffffffffff1681565b600560009054906101000a900460ff1681565b600660009054906101000a900473ffffffffffffffffffffffffffffffffffffffff1681565b600260009054906101000a900473ffffffffffffffffffffffffffffffffffffffff1681565b60035481565b6000801515600560009054906101000a900460ff161515146102ff576040517f08c379a00000000000000000000000000000000000000000000000000000000081526004016102f6906106ad565b60405180910390fd5b600060045411610344576040517f08c379a000000000000000000000000000000000000000000000000000000000815260040161033b9061068d565b60405180910390fd5b60016004546103539190610730565b60048190555060006004541415610418576001600560006101000a81548160ff021916908315150217905550600560019054906101000a900473ffffffffffffffffffffffffffffffffffffffff1673ffffffffffffffffffffffffffffffffffffffff16632b8bd3346003546001806040518463ffffffff1660e01b81526004016103e1939291906106e8565b600060405180830381600087803b1580156103fb57600080fd5b505af115801561040f573d6000803e3d6000fd5b505050506104ae565b600560019054906101000a900473ffffffffffffffffffffffffffffffffffffffff1673ffffffffffffffffffffffffffffffffffffffff16632b8bd334600354600160006040518463ffffffff1660e01b815260040161047b939291906106e8565b600060405180830381600087803b15801561049557600080fd5b505af11580156104a9573d6000803e3d6000fd5b505050505b600354905090565b60045481565b6000806000806000600160009054906101000a900473ffffffffffffffffffffffffffffffffffffffff16600260009054906101000a900473ffffffffffffffffffffffffffffffffffffffff16600354600454600560009054906101000a900460ff16945094509450945094509091929394565b61053a81610764565b82525050565b61054981610776565b82525050565b600061055c602c8361071f565b91507f546865206d6178696d756d206e756d626572206f662067616d6573206861732060008301527f6265656e207265616368656400000000000000000000000000000000000000006020830152604082019050919050565b60006105c260148361071f565b91507f54686520636172642068617320657870697265640000000000000000000000006000830152602082019050919050565b6105fe816107a2565b82525050565b60006020820190506106196000830184610531565b92915050565b600060a0820190506106346000830188610531565b6106416020830187610531565b61064e60408301866105f5565b61065b60608301856105f5565b6106686080830184610540565b9695505050505050565b60006020820190506106876000830184610540565b92915050565b600060208201905081810360008301526106a68161054f565b9050919050565b600060208201905081810360008301526106c6816105b5565b9050919050565b60006020820190506106e260008301846105f5565b92915050565b60006060820190506106fd60008301866105f5565b61070a6020830185610540565b6107176040830184610540565b949350505050565b600082825260208201905092915050565b600061073b826107a2565b9150610746836107a2565b925082821015610759576107586107ac565b5b828203905092915050565b600061076f82610782565b9050919050565b60008115159050919050565b600073ffffffffffffffffffffffffffffffffffffffff82169050919050565b6000819050919050565b7f4e487b7100000000000000000000000000000000000000000000000000000000600052601160045260246000fdfea26469706673582212205d8fc18cfed12068e51261aff990d98d1bd88ef670012640146e3ec195df0b0d64736f6c63430008000033",
  "immutableReferences": {},
  "source": "// SPDX-License-Identifier: MIT\r\npragma solidity >=0.8.0;\r\n\r\ncontract Knitts{\r\n    address organization = 0x79e6234Ff4E7DB556F916FeBcE9e52a68D0B8879;\r\n    address[] moderators;//change this to mapping mapping(address=>bool)\r\n    mapping(address=>bool) valid;\r\n    mapping(address => uint) deposits;\r\n    address[] Leagues;\r\n  \taddress[] Users;\r\n    uint maxDescLength = 1000;\r\n  \tmapping(address => address) idToUser; \r\n  \tmapping(address => bool) userExists;\r\n    function addModerator() public payable{\r\n        require(msg.value > 0, \"You should deposit some amount\");\r\n        moderators.push(msg.sender);\r\n        deposits[msg.sender] = msg.value;\r\n        valid[msg.sender]=true;\r\n    }\r\n\r\n    function depositMore() public payable{\r\n        require(msg.value > 0, \"You need to deposit some amount\");\r\n        deposits[msg.sender] += msg.value;\r\n    }\r\n\r\n    function createLeague(uint _entryFee, uint _numPlayers, uint _duration) public returns(address[] memory){\r\n        require(_entryFee * _numPlayers <= deposits[msg.sender], \"Insufficient deposit\");\r\n        League newLeague = new League(msg.sender, _entryFee, _numPlayers, _duration, address(this));\r\n        Leagues.push(address(newLeague));\r\n        return Leagues;\r\n    }\r\n\r\n    function getBalance(address _moderator) public view returns (uint){\r\n        return deposits[_moderator];\r\n    }\r\n\r\n    function getDetails() public view returns (address [] memory, address [] memory){\r\n        return (moderators, Leagues);\r\n    }\r\n\r\n    function removeModerator(address _moderator) public {\r\n        valid[_moderator] = false;\r\n    }\r\n  \r\n  \tfunction register(string memory _name) public returns (address) {\r\n        User newUser = new User(msg.sender, _name, organization);\r\n        userExists[msg.sender] = true;\r\n        idToUser[msg.sender] = address(newUser);\r\n        return address(newUser);\r\n    }\r\n  \r\n  \tfunction getUserContractAddress(address _id) public view returns(address) {\r\n        require(userExists[_id] == true,\"The user should exist\");\r\n        return idToUser[_id];\r\n    }\r\n}\r\n\r\ncontract League{\r\n    \r\n    address organization;\r\n    uint entryFee;\r\n    uint maxParticipants;\r\n    uint numProjects;\r\n    address [] participants;\r\n    address moderator;\r\n    uint duration;\r\n    bool started;\r\n    bool ended;\r\n    bool distributed;\r\n  \tuint total_points=0;\r\n    uint [] points;\r\n    address knittsAddress;\r\n\r\n    struct project{\r\n        string title;\r\n        string url;\r\n        string image;\r\n        address owner;\r\n        bytes[20][] description;\r\n        mapping(address => uint)investments;\r\n        address[] investors;\r\n        uint total_fund;\r\n    }\r\n\t\t\r\n    mapping(uint => project) projects;\r\n\r\n    constructor(address _moderator, uint _entryFee, uint _maxParticipants, uint _duration, address _knittsAddress){\r\n        entryFee = _entryFee;\r\n        maxParticipants = _maxParticipants;\r\n        moderator = _moderator;\r\n        duration = _duration;\r\n        numProjects = 0;\r\n        started=false;\r\n        ended=false;\r\n        distributed=false;\r\n        //organization = 0x79e6234Ff4E7DB556F916FeBcE9e52a68D0B8879; //for public net\r\n        organization = _moderator; // for local testing\r\n        knittsAddress = _knittsAddress;\r\n    }\r\n\r\n    function submitIdea(string memory title, string memory url, string memory image, bytes[20][] memory description) public payable returns(uint){\r\n        require(msg.value >= entryFee, \"Insufficient entry fee\");\r\n        require(numProjects < maxParticipants, \"Maximum limit reached\");\r\n        project storage p = projects[numProjects++];\r\n        p.title = title;\r\n        p.url = url;\r\n        p.image = image;\r\n        p.owner = msg.sender;\r\n        p.description = description;\r\n        return numProjects;\r\n    }\r\n\r\n    function invest(uint projectId) public payable{\r\n        require(projectId < numProjects, \"Invalid project id\");\r\n        if(projects[projectId].investments[msg.sender] == 0){\r\n            projects[projectId].investors.push(msg.sender);\r\n        }\r\n        projects[projectId].total_fund += msg.value/1e12;\r\n        projects[projectId].investments[msg.sender] += msg.value/1e12;\r\n        \r\n    }\r\n\r\n    function startLeague() public{\r\n        require(msg.sender == moderator, \"only moderator can start the league\");\r\n        started=true;\r\n    }\r\n\r\n    function endLeague() public returns(uint[] memory){\r\n        require(msg.sender == organization, \"only organization can end the league\");\r\n        ended=true;\r\n        getPoints();\r\n      \t\r\n      \tfor(uint i=0; i<numProjects; i++){\r\n            total_points += points[i];\r\n        }\r\n\r\n        uint averagePoints = total_points / numProjects;\r\n      \r\n      \tfor(uint i=0;i<numProjects; i++) {\r\n            Knitts _knitts = Knitts(knittsAddress);\r\n            address _userId = _knitts.getUserContractAddress(projects[i].owner);\r\n            User _user = User(_userId);\r\n            _user.addProject(projects[i].title, projects[i].url, projects[i].image, projects[i].description, points[i] , averagePoints, address(this) );\r\n        } \r\n\r\n        return points;\r\n    }\r\n\r\n    function getPoints() private returns(uint[] memory){\r\n        require(ended = true, \"the game has not ended\");\r\n        uint [] memory empty_points;\r\n        points = empty_points;\r\n        // require(msg.sender == organization, \"only organization get the points\");\r\n        // write quadratic funding code here\r\n        for(uint i=0; i < numProjects; i++){\r\n            uint sum = 0;\r\n            for(uint j=0; j<projects[i].investors.length; j++){\r\n                address investor = projects[i].investors[j];\r\n                sum += sqrt(projects[i].investments[investor]);\r\n            }\r\n            uint point = sum * sum;\r\n            points.push(point);\r\n        }\r\n      \t\r\n        \r\n        return points;\r\n    }\r\n\r\n    function distribute() public {\r\n        require(msg.sender == organization, \"only organization can distribute prizes\");\r\n        uint total_balance = address(this).balance;\r\n        \r\n        for(uint i=0; i<numProjects; i++){\r\n            project storage p  =  projects[i];\r\n            \r\n            payable(p.owner).transfer( (3*points[i]*total_balance)/(10*total_points) );\r\n\r\n            for(uint j=0; j<p.investors.length; j++){\r\n                address investor = p.investors[j];\r\n                 Knitts _knitts = Knitts(knittsAddress);\r\n                address _userId = _knitts.getUserContractAddress(investor);\r\n                User _user = User(_userId);\r\n                address [] memory NFTs = _user.getNFTs();\r\n                \r\n                if(NFTs.length == 0){\r\n                    uint value = (6 * points[i] * total_balance * p.investments[investor]) / (10 * total_points * p.total_fund);\r\n                    payable(investor).transfer( value );\r\n                }\r\n                else{\r\n                    for(uint k = 0; k < NFTs.length; k++){\r\n                        NFT nft = NFT(NFTs[k]);\r\n                        uint value = (6 * points[i] * total_balance * p.investments[investor] * nft.percentage()) / (10 * total_points * p.total_fund * 100);\r\n                        payable(nft.owner()).transfer(value);\r\n                        nft.strikeNFT();\r\n                    }\r\n                }\r\n                \r\n            }\r\n        }\r\n\r\n        payable(moderator).transfer(address(this).balance);\r\n\r\n    }\r\n\r\n    function getDetails() public view returns(\r\n        address,//moderator\r\n        uint,//entry fee\r\n        uint,//maxParticipants\r\n        bool, //started\r\n        bool, //ended\r\n        bool //distributed\r\n    ){\r\n        return (moderator, entryFee, maxParticipants, started, ended, distributed);\r\n    }\r\n\r\n    function submissionDetails(uint projectId) public view returns(\r\n        address, // project owner\r\n        bytes[20][] memory // description\r\n    )  {\r\n        return (projects[projectId].owner, projects[projectId].description);\r\n    }\r\n\r\n    function sqrt(uint num) public pure returns(uint){\r\n        uint start = 1;\r\n        uint end = num;\r\n        uint mid = start;\r\n        while(start < end){\r\n            mid = start + (end - start)/2;\r\n            if(mid * mid >= num){\r\n                end = mid;\r\n            }else{\r\n                start = mid+1;\r\n            }\r\n        }\r\n        return end;\r\n    }\r\n}\r\n\r\n\r\ncontract User {\r\n  string name;\r\n  address id; //metamask address of corresponding user\r\n  uint numProjects=0;\r\n  uint percentageNFTSold;\r\n  uint NFTsPending = 0;\r\n  address organization;\r\n  mapping(address=>bool) validNFT;\r\n\r\n  address[] NFTs;\r\n  constructor( address _id, string memory _name, address _organization ) {\r\n  \tname = _name;\r\n    id = _id;\r\n    organization = _organization;\r\n  }\r\n  \r\n  \r\n  struct project{\r\n      string title;\r\n      string url;\r\n      string image;\r\n        bytes[20][] description;\r\n        uint point;\r\n        uint average_point;\r\n        address submittedOn;\r\n  }\r\n\t// mapping(uint => project) projects;\r\n\r\n    project[20] projects;\r\n  \r\n  function addProject(string memory title, string memory url, string memory image, bytes[20][] memory description, uint point, uint average_point, address submittedOn) public {\r\n    project storage p = projects[numProjects++];\r\n    p.title = title;\r\n    p.url = url;\r\n    p.image = image;\r\n    p.description = description;\r\n    p.point = point;\r\n    p.average_point = average_point;\r\n    p.submittedOn = submittedOn;\r\n  }\r\n\r\n  function updateNFT(uint value, bool increase, bool deactivate) public {\r\n      require(validNFT[msg.sender] == true, \"Not valid NFT\");\r\n      if(increase){\r\n          require(percentageNFTSold + value <= 100, \"Maximum proportion sold\");\r\n          percentageNFTSold += value;\r\n      }else{\r\n          require(percentageNFTSold >= value, \"Not enough proportion\");\r\n          percentageNFTSold -= value;\r\n      }\r\n      if(deactivate){\r\n          validNFT[msg.sender] = false;\r\n          NFTsPending-=1;\r\n          if(NFTsPending ==0){\r\n            address [] memory NFTsUtil;\r\n            NFTs = NFTsUtil;\r\n          }\r\n          \r\n      }\r\n  }\r\n\r\n  function mintNFT(uint shares, uint numLeagues) public returns (address[] memory){\r\n      uint percentageEachShare = 100/shares;\r\n      require(shares * percentageEachShare != 100, \"shares can only be a factor of 100\");\r\n      require(NFTsPending > 0, \"You have unsold minted NFTs left\");\r\n      require(msg.sender == id);\r\n      for(uint i=0; i<shares; i++){\r\n          NFT newNFT = new NFT(organization, address(this), address(this), id, id, percentageEachShare, numLeagues);\r\n          NFTs.push(address(newNFT));\r\n      }\r\n      return NFTs;\r\n  }\r\n\r\n  function getNFTs() public view returns (address[] memory){\r\n      return NFTs;\r\n  }\r\n  \r\n  function getDetails() public view returns (project[20] memory){\r\n    \treturn projects;\r\n  }\r\n  \r\n}\r\n\r\n\r\ncontract NFT{\r\n    address public organization;\r\n    address public creater;\r\n    address public owner;\r\n    uint public percentage;\r\n    uint public gamesRemaining;\r\n    bool public expired;\r\n    address public createrContractId;\r\n    address public ownerContractId;\r\n\r\n    constructor(address _organization, address _createrContractId, address _ownerContractId, address _creater, address _owner, uint _percentage, uint _gamesRemaining){\r\n        organization = _organization;\r\n        creater = _creater;\r\n        owner = _owner;\r\n        percentage = _percentage;\r\n        gamesRemaining = _gamesRemaining;\r\n        expired = false;\r\n        createrContractId = _createrContractId;\r\n        ownerContractId = _ownerContractId;\r\n    }\r\n\r\n    function getDetails() public view returns(address, address, uint, uint, bool){\r\n        return (creater, owner, percentage, gamesRemaining, expired);\r\n    }\r\n\r\n    function strikeNFT() public returns (uint){\r\n        // require(msg.sender == organization, \"only organization can strikeNFT\");\r\n        require(expired == false, \"The card has expired\");\r\n        require(gamesRemaining > 0, \"The maximum number of games has been reached\");\r\n        gamesRemaining = gamesRemaining-1;\r\n        if(gamesRemaining == 0){\r\n            expired = true;\r\n            User(createrContractId).updateNFT(percentage, true, true);\r\n        }else{\r\n            User(createrContractId).updateNFT(percentage, true, false);\r\n        }\r\n        return percentage;\r\n    }\r\n\r\n}\r\n\r\n\r\n\r\n\r\n\r\n\r\n\r\n\r\n\r\n\r\n\r\n\r\n\r\n\r\n",
  "sourcePath": "E:\\projects\\knitts\\back-end\\contracts\\League.sol",
  "compiler": {
    "name": "solc",
    "version": "0.8.0+commit.c7dfd78e.Emscripten.clang"
  },
  "schemaVersion": "3.4.3",
  "updatedAt": "2021-09-30T10:09:34.140Z",
  "devdoc": {
    "kind": "dev",
    "methods": {},
    "version": 1
  },
  "userdoc": {
    "kind": "user",
    "methods": {},
    "version": 1
  }
}