{
  "contractName": "NFT",
  "abi": [
    {
      "inputs": [
        {
          "internalType": "string",
          "name": "_name",
          "type": "string"
        },
        {
          "internalType": "string",
          "name": "_symbol",
          "type": "string"
        }
      ],
      "stateMutability": "nonpayable",
      "type": "constructor"
    },
    {
      "anonymous": false,
      "inputs": [
        {
          "indexed": true,
          "internalType": "address",
          "name": "owner",
          "type": "address"
        },
        {
          "indexed": true,
          "internalType": "address",
          "name": "approved",
          "type": "address"
        },
        {
          "indexed": true,
          "internalType": "uint256",
          "name": "tokenId",
          "type": "uint256"
        }
      ],
      "name": "Approval",
      "type": "event"
    },
    {
      "anonymous": false,
      "inputs": [
        {
          "indexed": true,
          "internalType": "address",
          "name": "owner",
          "type": "address"
        },
        {
          "indexed": true,
          "internalType": "address",
          "name": "operator",
          "type": "address"
        },
        {
          "indexed": false,
          "internalType": "bool",
          "name": "approved",
          "type": "bool"
        }
      ],
      "name": "ApprovalForAll",
      "type": "event"
    },
    {
      "anonymous": false,
      "inputs": [
        {
          "indexed": true,
          "internalType": "address",
          "name": "previousOwner",
          "type": "address"
        },
        {
          "indexed": true,
          "internalType": "address",
          "name": "newOwner",
          "type": "address"
        }
      ],
      "name": "OwnershipTransferred",
      "type": "event"
    },
    {
      "anonymous": false,
      "inputs": [
        {
          "indexed": true,
          "internalType": "address",
          "name": "from",
          "type": "address"
        },
        {
          "indexed": true,
          "internalType": "address",
          "name": "to",
          "type": "address"
        },
        {
          "indexed": true,
          "internalType": "uint256",
          "name": "tokenId",
          "type": "uint256"
        }
      ],
      "name": "Transfer",
      "type": "event"
    },
    {
      "inputs": [
        {
          "internalType": "address",
          "name": "to",
          "type": "address"
        },
        {
          "internalType": "uint256",
          "name": "tokenId",
          "type": "uint256"
        }
      ],
      "name": "approve",
      "outputs": [],
      "stateMutability": "nonpayable",
      "type": "function"
    },
    {
      "inputs": [
        {
          "internalType": "address",
          "name": "owner",
          "type": "address"
        }
      ],
      "name": "balanceOf",
      "outputs": [
        {
          "internalType": "uint256",
          "name": "",
          "type": "uint256"
        }
      ],
      "stateMutability": "view",
      "type": "function",
      "constant": true
    },
    {
      "inputs": [
        {
          "internalType": "uint256",
          "name": "tokenId",
          "type": "uint256"
        }
      ],
      "name": "getApproved",
      "outputs": [
        {
          "internalType": "address",
          "name": "",
          "type": "address"
        }
      ],
      "stateMutability": "view",
      "type": "function",
      "constant": true
    },
    {
      "inputs": [
        {
          "internalType": "address",
          "name": "owner",
          "type": "address"
        },
        {
          "internalType": "address",
          "name": "operator",
          "type": "address"
        }
      ],
      "name": "isApprovedForAll",
      "outputs": [
        {
          "internalType": "bool",
          "name": "",
          "type": "bool"
        }
      ],
      "stateMutability": "view",
      "type": "function",
      "constant": true
    },
    {
      "inputs": [],
      "name": "name",
      "outputs": [
        {
          "internalType": "string",
          "name": "",
          "type": "string"
        }
      ],
      "stateMutability": "view",
      "type": "function",
      "constant": true
    },
    {
      "inputs": [],
      "name": "owner",
      "outputs": [
        {
          "internalType": "address",
          "name": "",
          "type": "address"
        }
      ],
      "stateMutability": "view",
      "type": "function",
      "constant": true
    },
    {
      "inputs": [
        {
          "internalType": "uint256",
          "name": "tokenId",
          "type": "uint256"
        }
      ],
      "name": "ownerOf",
      "outputs": [
        {
          "internalType": "address",
          "name": "",
          "type": "address"
        }
      ],
      "stateMutability": "view",
      "type": "function",
      "constant": true
    },
    {
      "inputs": [],
      "name": "renounceOwnership",
      "outputs": [],
      "stateMutability": "nonpayable",
      "type": "function"
    },
    {
      "inputs": [
        {
          "internalType": "address",
          "name": "from",
          "type": "address"
        },
        {
          "internalType": "address",
          "name": "to",
          "type": "address"
        },
        {
          "internalType": "uint256",
          "name": "tokenId",
          "type": "uint256"
        }
      ],
      "name": "safeTransferFrom",
      "outputs": [],
      "stateMutability": "nonpayable",
      "type": "function"
    },
    {
      "inputs": [
        {
          "internalType": "address",
          "name": "from",
          "type": "address"
        },
        {
          "internalType": "address",
          "name": "to",
          "type": "address"
        },
        {
          "internalType": "uint256",
          "name": "tokenId",
          "type": "uint256"
        },
        {
          "internalType": "bytes",
          "name": "_data",
          "type": "bytes"
        }
      ],
      "name": "safeTransferFrom",
      "outputs": [],
      "stateMutability": "nonpayable",
      "type": "function"
    },
    {
      "inputs": [
        {
          "internalType": "address",
          "name": "operator",
          "type": "address"
        },
        {
          "internalType": "bool",
          "name": "approved",
          "type": "bool"
        }
      ],
      "name": "setApprovalForAll",
      "outputs": [],
      "stateMutability": "nonpayable",
      "type": "function"
    },
    {
      "inputs": [
        {
          "internalType": "bytes4",
          "name": "interfaceId",
          "type": "bytes4"
        }
      ],
      "name": "supportsInterface",
      "outputs": [
        {
          "internalType": "bool",
          "name": "",
          "type": "bool"
        }
      ],
      "stateMutability": "view",
      "type": "function",
      "constant": true
    },
    {
      "inputs": [],
      "name": "symbol",
      "outputs": [
        {
          "internalType": "string",
          "name": "",
          "type": "string"
        }
      ],
      "stateMutability": "view",
      "type": "function",
      "constant": true
    },
    {
      "inputs": [
        {
          "internalType": "uint256",
          "name": "tokenId",
          "type": "uint256"
        }
      ],
      "name": "tokenURI",
      "outputs": [
        {
          "internalType": "string",
          "name": "",
          "type": "string"
        }
      ],
      "stateMutability": "view",
      "type": "function",
      "constant": true
    },
    {
      "inputs": [
        {
          "internalType": "address",
          "name": "from",
          "type": "address"
        },
        {
          "internalType": "address",
          "name": "to",
          "type": "address"
        },
        {
          "internalType": "uint256",
          "name": "tokenId",
          "type": "uint256"
        }
      ],
      "name": "transferFrom",
      "outputs": [],
      "stateMutability": "nonpayable",
      "type": "function"
    },
    {
      "inputs": [
        {
          "internalType": "address",
          "name": "newOwner",
          "type": "address"
        }
      ],
      "name": "transferOwnership",
      "outputs": [],
      "stateMutability": "nonpayable",
      "type": "function"
    },
    {
      "inputs": [
        {
          "internalType": "address",
          "name": "player",
          "type": "address"
        },
        {
          "internalType": "string",
          "name": "tokenURI",
          "type": "string"
        }
      ],
      "name": "awardItem",
      "outputs": [
        {
          "internalType": "uint256",
          "name": "",
          "type": "uint256"
        }
      ],
      "stateMutability": "nonpayable",
      "type": "function"
    }
  ],
  "bytecode": "0x60806040523480156200001157600080fd5b506040516200327938038062003279833981810160405281019062000037919062000285565b818181600090805190602001906200005192919062000163565b5080600190805190602001906200006a92919062000163565b5050506200008d620000816200009560201b60201c565b6200009d60201b60201c565b505062000429565b600033905090565b6000600760009054906101000a900473ffffffffffffffffffffffffffffffffffffffff16905081600760006101000a81548173ffffffffffffffffffffffffffffffffffffffff021916908373ffffffffffffffffffffffffffffffffffffffff1602179055508173ffffffffffffffffffffffffffffffffffffffff168173ffffffffffffffffffffffffffffffffffffffff167f8be0079c531659141344cd1fd0a4f28419497f9722a3daafe3b4186f6b6457e060405160405180910390a35050565b828054620001719062000395565b90600052602060002090601f016020900481019282620001955760008555620001e1565b82601f10620001b057805160ff1916838001178555620001e1565b82800160010185558215620001e1579182015b82811115620001e0578251825591602001919060010190620001c3565b5b509050620001f09190620001f4565b5090565b5b808211156200020f576000816000905550600101620001f5565b5090565b60006200022a62000224846200032c565b620002f8565b9050828152602081018484840111156200024357600080fd5b620002508482856200035f565b509392505050565b600082601f8301126200026a57600080fd5b81516200027c84826020860162000213565b91505092915050565b600080604083850312156200029957600080fd5b600083015167ffffffffffffffff811115620002b457600080fd5b620002c28582860162000258565b925050602083015167ffffffffffffffff811115620002e057600080fd5b620002ee8582860162000258565b9150509250929050565b6000604051905081810181811067ffffffffffffffff82111715620003225762000321620003fa565b5b8060405250919050565b600067ffffffffffffffff8211156200034a5762000349620003fa565b5b601f19601f8301169050602081019050919050565b60005b838110156200037f57808201518184015260208101905062000362565b838111156200038f576000848401525b50505050565b60006002820490506001821680620003ae57607f821691505b60208210811415620003c557620003c4620003cb565b5b50919050565b7f4e487b7100000000000000000000000000000000000000000000000000000000600052602260045260246000fd5b7f4e487b7100000000000000000000000000000000000000000000000000000000600052604160045260246000fd5b612e4080620004396000396000f3fe608060405234801561001057600080fd5b506004361061010b5760003560e01c8063715018a6116100a2578063b88d4fde11610071578063b88d4fde146102a4578063c87b56dd146102c0578063cf378343146102f0578063e985e9c514610320578063f2fde38b146103505761010b565b8063715018a6146102425780638da5cb5b1461024c57806395d89b411461026a578063a22cb465146102885761010b565b806323b872dd116100de57806323b872dd146101aa57806342842e0e146101c65780636352211e146101e257806370a08231146102125761010b565b806301ffc9a71461011057806306fdde0314610140578063081812fc1461015e578063095ea7b31461018e575b600080fd5b61012a60048036038101906101259190611eee565b61036c565b6040516101379190612758565b60405180910390f35b61014861044e565b6040516101559190612773565b60405180910390f35b61017860048036038101906101739190611f40565b6104e0565b60405161018591906126f1565b60405180910390f35b6101a860048036038101906101a39190611eb2565b610565565b005b6101c460048036038101906101bf9190611d58565b61067d565b005b6101e060048036038101906101db9190611d58565b6106dd565b005b6101fc60048036038101906101f79190611f40565b6106fd565b60405161020991906126f1565b60405180910390f35b61022c60048036038101906102279190611cf3565b6107af565b60405161023991906129d5565b60405180910390f35b61024a610867565b005b6102546108ef565b60405161026191906126f1565b60405180910390f35b610272610919565b60405161027f9190612773565b60405180910390f35b6102a2600480360381019061029d9190611e22565b6109ab565b005b6102be60048036038101906102b99190611da7565b610b2c565b005b6102da60048036038101906102d59190611f40565b610b8e565b6040516102e79190612773565b60405180910390f35b61030a60048036038101906103059190611e5e565b610ce0565b60405161031791906129d5565b60405180910390f35b61033a60048036038101906103359190611d1c565b610d18565b6040516103479190612758565b60405180910390f35b61036a60048036038101906103659190611cf3565b610dac565b005b60007f80ac58cd000000000000000000000000000000000000000000000000000000007bffffffffffffffffffffffffffffffffffffffffffffffffffffffff1916827bffffffffffffffffffffffffffffffffffffffffffffffffffffffff1916148061043757507f5b5e139f000000000000000000000000000000000000000000000000000000007bffffffffffffffffffffffffffffffffffffffffffffffffffffffff1916827bffffffffffffffffffffffffffffffffffffffffffffffffffffffff1916145b80610447575061044682610ea4565b5b9050919050565b60606000805461045d90612c35565b80601f016020809104026020016040519081016040528092919081815260200182805461048990612c35565b80156104d65780601f106104ab576101008083540402835291602001916104d6565b820191906000526020600020905b8154815290600101906020018083116104b957829003601f168201915b5050505050905090565b60006104eb82610f0e565b61052a576040517f08c379a000000000000000000000000000000000000000000000000000000000815260040161052190612915565b60405180910390fd5b6004600083815260200190815260200160002060009054906101000a900473ffffffffffffffffffffffffffffffffffffffff169050919050565b6000610570826106fd565b90508073ffffffffffffffffffffffffffffffffffffffff168373ffffffffffffffffffffffffffffffffffffffff1614156105e1576040517f08c379a00000000000000000000000000000000000000000000000000000000081526004016105d890612995565b60405180910390fd5b8073ffffffffffffffffffffffffffffffffffffffff16610600610f7a565b73ffffffffffffffffffffffffffffffffffffffff16148061062f575061062e81610629610f7a565b610d18565b5b61066e576040517f08c379a000000000000000000000000000000000000000000000000000000000815260040161066590612855565b60405180910390fd5b6106788383610f82565b505050565b61068e610688610f7a565b8261103b565b6106cd576040517f08c379a00000000000000000000000000000000000000000000000000000000081526004016106c4906129b5565b60405180910390fd5b6106d8838383611119565b505050565b6106f883838360405180602001604052806000815250610b2c565b505050565b6000806002600084815260200190815260200160002060009054906101000a900473ffffffffffffffffffffffffffffffffffffffff169050600073ffffffffffffffffffffffffffffffffffffffff168173ffffffffffffffffffffffffffffffffffffffff1614156107a6576040517f08c379a000000000000000000000000000000000000000000000000000000000815260040161079d90612895565b60405180910390fd5b80915050919050565b60008073ffffffffffffffffffffffffffffffffffffffff168273ffffffffffffffffffffffffffffffffffffffff161415610820576040517f08c379a000000000000000000000000000000000000000000000000000000000815260040161081790612875565b60405180910390fd5b600360008373ffffffffffffffffffffffffffffffffffffffff1673ffffffffffffffffffffffffffffffffffffffff168152602001908152602001600020549050919050565b61086f610f7a565b73ffffffffffffffffffffffffffffffffffffffff1661088d6108ef565b73ffffffffffffffffffffffffffffffffffffffff16146108e3576040517f08c379a00000000000000000000000000000000000000000000000000000000081526004016108da90612935565b60405180910390fd5b6108ed6000611375565b565b6000600760009054906101000a900473ffffffffffffffffffffffffffffffffffffffff16905090565b60606001805461092890612c35565b80601f016020809104026020016040519081016040528092919081815260200182805461095490612c35565b80156109a15780601f10610976576101008083540402835291602001916109a1565b820191906000526020600020905b81548152906001019060200180831161098457829003601f168201915b5050505050905090565b6109b3610f7a565b73ffffffffffffffffffffffffffffffffffffffff168273ffffffffffffffffffffffffffffffffffffffff161415610a21576040517f08c379a0000000000000000000000000000000000000000000000000000000008152600401610a1890612815565b60405180910390fd5b8060056000610a2e610f7a565b73ffffffffffffffffffffffffffffffffffffffff1673ffffffffffffffffffffffffffffffffffffffff16815260200190815260200160002060008473ffffffffffffffffffffffffffffffffffffffff1673ffffffffffffffffffffffffffffffffffffffff16815260200190815260200160002060006101000a81548160ff0219169083151502179055508173ffffffffffffffffffffffffffffffffffffffff16610adb610f7a565b73ffffffffffffffffffffffffffffffffffffffff167f17307eab39ab6107e8899845ad3d59bd9653f200f220920489ca2b5937696c3183604051610b209190612758565b60405180910390a35050565b610b3d610b37610f7a565b8361103b565b610b7c576040517f08c379a0000000000000000000000000000000000000000000000000000000008152600401610b73906129b5565b60405180910390fd5b610b888484848461143b565b50505050565b6060610b9982610f0e565b610bd8576040517f08c379a0000000000000000000000000000000000000000000000000000000008152600401610bcf906128f5565b60405180910390fd5b6000600660008481526020019081526020016000208054610bf890612c35565b80601f0160208091040260200160405190810160405280929190818152602001828054610c2490612c35565b8015610c715780601f10610c4657610100808354040283529160200191610c71565b820191906000526020600020905b815481529060010190602001808311610c5457829003601f168201915b505050505090506000610c82611497565b9050600081511415610c98578192505050610cdb565b600082511115610ccd578082604051602001610cb59291906126cd565b60405160208183030381529060405292505050610cdb565b610cd6846114ae565b925050505b919050565b6000610cec6008611555565b6000610cf8600861156b565b9050610d048482611579565b610d0e8184611747565b8091505092915050565b6000600560008473ffffffffffffffffffffffffffffffffffffffff1673ffffffffffffffffffffffffffffffffffffffff16815260200190815260200160002060008373ffffffffffffffffffffffffffffffffffffffff1673ffffffffffffffffffffffffffffffffffffffff16815260200190815260200160002060009054906101000a900460ff16905092915050565b610db4610f7a565b73ffffffffffffffffffffffffffffffffffffffff16610dd26108ef565b73ffffffffffffffffffffffffffffffffffffffff1614610e28576040517f08c379a0000000000000000000000000000000000000000000000000000000008152600401610e1f90612935565b60405180910390fd5b600073ffffffffffffffffffffffffffffffffffffffff168173ffffffffffffffffffffffffffffffffffffffff161415610e98576040517f08c379a0000000000000000000000000000000000000000000000000000000008152600401610e8f906127b5565b60405180910390fd5b610ea181611375565b50565b60007f01ffc9a7000000000000000000000000000000000000000000000000000000007bffffffffffffffffffffffffffffffffffffffffffffffffffffffff1916827bffffffffffffffffffffffffffffffffffffffffffffffffffffffff1916149050919050565b60008073ffffffffffffffffffffffffffffffffffffffff166002600084815260200190815260200160002060009054906101000a900473ffffffffffffffffffffffffffffffffffffffff1673ffffffffffffffffffffffffffffffffffffffff1614159050919050565b600033905090565b816004600083815260200190815260200160002060006101000a81548173ffffffffffffffffffffffffffffffffffffffff021916908373ffffffffffffffffffffffffffffffffffffffff160217905550808273ffffffffffffffffffffffffffffffffffffffff16610ff5836106fd565b73ffffffffffffffffffffffffffffffffffffffff167f8c5be1e5ebec7d5bd14f71427d1e84f3dd0314c0f7b2291e5b200ac8c7c3b92560405160405180910390a45050565b600061104682610f0e565b611085576040517f08c379a000000000000000000000000000000000000000000000000000000000815260040161107c90612835565b60405180910390fd5b6000611090836106fd565b90508073ffffffffffffffffffffffffffffffffffffffff168473ffffffffffffffffffffffffffffffffffffffff1614806110ff57508373ffffffffffffffffffffffffffffffffffffffff166110e7846104e0565b73ffffffffffffffffffffffffffffffffffffffff16145b80611110575061110f8185610d18565b5b91505092915050565b8273ffffffffffffffffffffffffffffffffffffffff16611139826106fd565b73ffffffffffffffffffffffffffffffffffffffff161461118f576040517f08c379a000000000000000000000000000000000000000000000000000000000815260040161118690612955565b60405180910390fd5b600073ffffffffffffffffffffffffffffffffffffffff168273ffffffffffffffffffffffffffffffffffffffff1614156111ff576040517f08c379a00000000000000000000000000000000000000000000000000000000081526004016111f6906127f5565b60405180910390fd5b61120a8383836117bb565b611215600082610f82565b6001600360008573ffffffffffffffffffffffffffffffffffffffff1673ffffffffffffffffffffffffffffffffffffffff16815260200190815260200160002060008282546112659190612b4b565b925050819055506001600360008473ffffffffffffffffffffffffffffffffffffffff1673ffffffffffffffffffffffffffffffffffffffff16815260200190815260200160002060008282546112bc9190612ac4565b92505081905550816002600083815260200190815260200160002060006101000a81548173ffffffffffffffffffffffffffffffffffffffff021916908373ffffffffffffffffffffffffffffffffffffffff160217905550808273ffffffffffffffffffffffffffffffffffffffff168473ffffffffffffffffffffffffffffffffffffffff167fddf252ad1be2c89b69c2b068fc378daa952ba7f163c4a11628f55a4df523b3ef60405160405180910390a4505050565b6000600760009054906101000a900473ffffffffffffffffffffffffffffffffffffffff16905081600760006101000a81548173ffffffffffffffffffffffffffffffffffffffff021916908373ffffffffffffffffffffffffffffffffffffffff1602179055508173ffffffffffffffffffffffffffffffffffffffff168173ffffffffffffffffffffffffffffffffffffffff167f8be0079c531659141344cd1fd0a4f28419497f9722a3daafe3b4186f6b6457e060405160405180910390a35050565b611446848484611119565b611452848484846117c0565b611491576040517f08c379a000000000000000000000000000000000000000000000000000000000815260040161148890612795565b60405180910390fd5b50505050565b606060405180602001604052806000815250905090565b60606114b982610f0e565b6114f8576040517f08c379a00000000000000000000000000000000000000000000000000000000081526004016114ef90612975565b60405180910390fd5b6000611502611497565b90506000815111611522576040518060200160405280600081525061154d565b8061152c84611957565b60405160200161153d9291906126cd565b6040516020818303038152906040525b915050919050565b6001816000016000828254019250508190555050565b600081600001549050919050565b600073ffffffffffffffffffffffffffffffffffffffff168273ffffffffffffffffffffffffffffffffffffffff1614156115e9576040517f08c379a00000000000000000000000000000000000000000000000000000000081526004016115e0906128d5565b60405180910390fd5b6115f281610f0e565b15611632576040517f08c379a0000000000000000000000000000000000000000000000000000000008152600401611629906127d5565b60405180910390fd5b61163e600083836117bb565b6001600360008473ffffffffffffffffffffffffffffffffffffffff1673ffffffffffffffffffffffffffffffffffffffff168152602001908152602001600020600082825461168e9190612ac4565b92505081905550816002600083815260200190815260200160002060006101000a81548173ffffffffffffffffffffffffffffffffffffffff021916908373ffffffffffffffffffffffffffffffffffffffff160217905550808273ffffffffffffffffffffffffffffffffffffffff16600073ffffffffffffffffffffffffffffffffffffffff167fddf252ad1be2c89b69c2b068fc378daa952ba7f163c4a11628f55a4df523b3ef60405160405180910390a45050565b61175082610f0e565b61178f576040517f08c379a0000000000000000000000000000000000000000000000000000000008152600401611786906128b5565b60405180910390fd5b806006600084815260200190815260200160002090805190602001906117b6929190611b17565b505050565b505050565b60006117e18473ffffffffffffffffffffffffffffffffffffffff16611b04565b1561194a578373ffffffffffffffffffffffffffffffffffffffff1663150b7a0261180a610f7a565b8786866040518563ffffffff1660e01b815260040161182c949392919061270c565b602060405180830381600087803b15801561184657600080fd5b505af192505050801561187757506040513d601f19601f820116820180604052508101906118749190611f17565b60015b6118fa573d80600081146118a7576040519150601f19603f3d011682016040523d82523d6000602084013e6118ac565b606091505b506000815114156118f2576040517f08c379a00000000000000000000000000000000000000000000000000000000081526004016118e990612795565b60405180910390fd5b805181602001fd5b63150b7a0260e01b7bffffffffffffffffffffffffffffffffffffffffffffffffffffffff1916817bffffffffffffffffffffffffffffffffffffffffffffffffffffffff19161491505061194f565b600190505b949350505050565b6060600082141561199f576040518060400160405280600181526020017f30000000000000000000000000000000000000000000000000000000000000008152509050611aff565b600082905060005b600082146119d15780806119ba90612c67565b915050600a826119ca9190612b1a565b91506119a7565b60008167ffffffffffffffff811115611a13577f4e487b7100000000000000000000000000000000000000000000000000000000600052604160045260246000fd5b6040519080825280601f01601f191660200182016040528015611a455781602001600182028036833780820191505090505b5090505b60008514611af857600182611a5e9190612b4b565b9150600a85611a6d9190612cb0565b6030611a799190612ac4565b60f81b818381518110611ab5577f4e487b7100000000000000000000000000000000000000000000000000000000600052603260045260246000fd5b60200101907effffffffffffffffffffffffffffffffffffffffffffffffffffffffffffff1916908160001a905350600a85611af19190612b1a565b9450611a49565b8093505050505b919050565b600080823b905060008111915050919050565b828054611b2390612c35565b90600052602060002090601f016020900481019282611b455760008555611b8c565b82601f10611b5e57805160ff1916838001178555611b8c565b82800160010185558215611b8c579182015b82811115611b8b578251825591602001919060010190611b70565b5b509050611b999190611b9d565b5090565b5b80821115611bb6576000816000905550600101611b9e565b5090565b6000611bcd611bc884612a21565b6129f0565b905082815260208101848484011115611be557600080fd5b611bf0848285612bf3565b509392505050565b6000611c0b611c0684612a51565b6129f0565b905082815260208101848484011115611c2357600080fd5b611c2e848285612bf3565b509392505050565b600081359050611c4581612dae565b92915050565b600081359050611c5a81612dc5565b92915050565b600081359050611c6f81612ddc565b92915050565b600081519050611c8481612ddc565b92915050565b600082601f830112611c9b57600080fd5b8135611cab848260208601611bba565b91505092915050565b600082601f830112611cc557600080fd5b8135611cd5848260208601611bf8565b91505092915050565b600081359050611ced81612df3565b92915050565b600060208284031215611d0557600080fd5b6000611d1384828501611c36565b91505092915050565b60008060408385031215611d2f57600080fd5b6000611d3d85828601611c36565b9250506020611d4e85828601611c36565b9150509250929050565b600080600060608486031215611d6d57600080fd5b6000611d7b86828701611c36565b9350506020611d8c86828701611c36565b9250506040611d9d86828701611cde565b9150509250925092565b60008060008060808587031215611dbd57600080fd5b6000611dcb87828801611c36565b9450506020611ddc87828801611c36565b9350506040611ded87828801611cde565b925050606085013567ffffffffffffffff811115611e0a57600080fd5b611e1687828801611c8a565b91505092959194509250565b60008060408385031215611e3557600080fd5b6000611e4385828601611c36565b9250506020611e5485828601611c4b565b9150509250929050565b60008060408385031215611e7157600080fd5b6000611e7f85828601611c36565b925050602083013567ffffffffffffffff811115611e9c57600080fd5b611ea885828601611cb4565b9150509250929050565b60008060408385031215611ec557600080fd5b6000611ed385828601611c36565b9250506020611ee485828601611cde565b9150509250929050565b600060208284031215611f0057600080fd5b6000611f0e84828501611c60565b91505092915050565b600060208284031215611f2957600080fd5b6000611f3784828501611c75565b91505092915050565b600060208284031215611f5257600080fd5b6000611f6084828501611cde565b91505092915050565b611f7281612b7f565b82525050565b611f8181612b91565b82525050565b6000611f9282612a81565b611f9c8185612a97565b9350611fac818560208601612c02565b611fb581612d9d565b840191505092915050565b6000611fcb82612a8c565b611fd58185612aa8565b9350611fe5818560208601612c02565b611fee81612d9d565b840191505092915050565b600061200482612a8c565b61200e8185612ab9565b935061201e818560208601612c02565b80840191505092915050565b6000612037603283612aa8565b91507f4552433732313a207472616e7366657220746f206e6f6e20455243373231526560008301527f63656976657220696d706c656d656e74657200000000000000000000000000006020830152604082019050919050565b600061209d602683612aa8565b91507f4f776e61626c653a206e6577206f776e657220697320746865207a65726f206160008301527f64647265737300000000000000000000000000000000000000000000000000006020830152604082019050919050565b6000612103601c83612aa8565b91507f4552433732313a20746f6b656e20616c7265616479206d696e746564000000006000830152602082019050919050565b6000612143602483612aa8565b91507f4552433732313a207472616e7366657220746f20746865207a65726f2061646460008301527f72657373000000000000000000000000000000000000000000000000000000006020830152604082019050919050565b60006121a9601983612aa8565b91507f4552433732313a20617070726f766520746f2063616c6c6572000000000000006000830152602082019050919050565b60006121e9602c83612aa8565b91507f4552433732313a206f70657261746f7220717565727920666f72206e6f6e657860008301527f697374656e7420746f6b656e00000000000000000000000000000000000000006020830152604082019050919050565b600061224f603883612aa8565b91507f4552433732313a20617070726f76652063616c6c6572206973206e6f74206f7760008301527f6e6572206e6f7220617070726f76656420666f7220616c6c00000000000000006020830152604082019050919050565b60006122b5602a83612aa8565b91507f4552433732313a2062616c616e636520717565727920666f7220746865207a6560008301527f726f2061646472657373000000000000000000000000000000000000000000006020830152604082019050919050565b600061231b602983612aa8565b91507f4552433732313a206f776e657220717565727920666f72206e6f6e657869737460008301527f656e7420746f6b656e00000000000000000000000000000000000000000000006020830152604082019050919050565b6000612381602e83612aa8565b91507f45524337323155524953746f726167653a2055524920736574206f66206e6f6e60008301527f6578697374656e7420746f6b656e0000000000000000000000000000000000006020830152604082019050919050565b60006123e7602083612aa8565b91507f4552433732313a206d696e7420746f20746865207a65726f20616464726573736000830152602082019050919050565b6000612427603183612aa8565b91507f45524337323155524953746f726167653a2055524920717565727920666f722060008301527f6e6f6e6578697374656e7420746f6b656e0000000000000000000000000000006020830152604082019050919050565b600061248d602c83612aa8565b91507f4552433732313a20617070726f76656420717565727920666f72206e6f6e657860008301527f697374656e7420746f6b656e00000000000000000000000000000000000000006020830152604082019050919050565b60006124f3602083612aa8565b91507f4f776e61626c653a2063616c6c6572206973206e6f7420746865206f776e65726000830152602082019050919050565b6000612533602983612aa8565b91507f4552433732313a207472616e73666572206f6620746f6b656e2074686174206960008301527f73206e6f74206f776e00000000000000000000000000000000000000000000006020830152604082019050919050565b6000612599602f83612aa8565b91507f4552433732314d657461646174613a2055524920717565727920666f72206e6f60008301527f6e6578697374656e7420746f6b656e00000000000000000000000000000000006020830152604082019050919050565b60006125ff602183612aa8565b91507f4552433732313a20617070726f76616c20746f2063757272656e74206f776e6560008301527f72000000000000000000000000000000000000000000000000000000000000006020830152604082019050919050565b6000612665603183612aa8565b91507f4552433732313a207472616e736665722063616c6c6572206973206e6f74206f60008301527f776e6572206e6f7220617070726f7665640000000000000000000000000000006020830152604082019050919050565b6126c781612be9565b82525050565b60006126d98285611ff9565b91506126e58284611ff9565b91508190509392505050565b60006020820190506127066000830184611f69565b92915050565b60006080820190506127216000830187611f69565b61272e6020830186611f69565b61273b60408301856126be565b818103606083015261274d8184611f87565b905095945050505050565b600060208201905061276d6000830184611f78565b92915050565b6000602082019050818103600083015261278d8184611fc0565b905092915050565b600060208201905081810360008301526127ae8161202a565b9050919050565b600060208201905081810360008301526127ce81612090565b9050919050565b600060208201905081810360008301526127ee816120f6565b9050919050565b6000602082019050818103600083015261280e81612136565b9050919050565b6000602082019050818103600083015261282e8161219c565b9050919050565b6000602082019050818103600083015261284e816121dc565b9050919050565b6000602082019050818103600083015261286e81612242565b9050919050565b6000602082019050818103600083015261288e816122a8565b9050919050565b600060208201905081810360008301526128ae8161230e565b9050919050565b600060208201905081810360008301526128ce81612374565b9050919050565b600060208201905081810360008301526128ee816123da565b9050919050565b6000602082019050818103600083015261290e8161241a565b9050919050565b6000602082019050818103600083015261292e81612480565b9050919050565b6000602082019050818103600083015261294e816124e6565b9050919050565b6000602082019050818103600083015261296e81612526565b9050919050565b6000602082019050818103600083015261298e8161258c565b9050919050565b600060208201905081810360008301526129ae816125f2565b9050919050565b600060208201905081810360008301526129ce81612658565b9050919050565b60006020820190506129ea60008301846126be565b92915050565b6000604051905081810181811067ffffffffffffffff82111715612a1757612a16612d6e565b5b8060405250919050565b600067ffffffffffffffff821115612a3c57612a3b612d6e565b5b601f19601f8301169050602081019050919050565b600067ffffffffffffffff821115612a6c57612a6b612d6e565b5b601f19601f8301169050602081019050919050565b600081519050919050565b600081519050919050565b600082825260208201905092915050565b600082825260208201905092915050565b600081905092915050565b6000612acf82612be9565b9150612ada83612be9565b9250827fffffffffffffffffffffffffffffffffffffffffffffffffffffffffffffffff03821115612b0f57612b0e612ce1565b5b828201905092915050565b6000612b2582612be9565b9150612b3083612be9565b925082612b4057612b3f612d10565b5b828204905092915050565b6000612b5682612be9565b9150612b6183612be9565b925082821015612b7457612b73612ce1565b5b828203905092915050565b6000612b8a82612bc9565b9050919050565b60008115159050919050565b60007fffffffff0000000000000000000000000000000000000000000000000000000082169050919050565b600073ffffffffffffffffffffffffffffffffffffffff82169050919050565b6000819050919050565b82818337600083830152505050565b60005b83811015612c20578082015181840152602081019050612c05565b83811115612c2f576000848401525b50505050565b60006002820490506001821680612c4d57607f821691505b60208210811415612c6157612c60612d3f565b5b50919050565b6000612c7282612be9565b91507fffffffffffffffffffffffffffffffffffffffffffffffffffffffffffffffff821415612ca557612ca4612ce1565b5b600182019050919050565b6000612cbb82612be9565b9150612cc683612be9565b925082612cd657612cd5612d10565b5b828206905092915050565b7f4e487b7100000000000000000000000000000000000000000000000000000000600052601160045260246000fd5b7f4e487b7100000000000000000000000000000000000000000000000000000000600052601260045260246000fd5b7f4e487b7100000000000000000000000000000000000000000000000000000000600052602260045260246000fd5b7f4e487b7100000000000000000000000000000000000000000000000000000000600052604160045260246000fd5b6000601f19601f8301169050919050565b612db781612b7f565b8114612dc257600080fd5b50565b612dce81612b91565b8114612dd957600080fd5b50565b612de581612b9d565b8114612df057600080fd5b50565b612dfc81612be9565b8114612e0757600080fd5b5056fea2646970667358221220fdc1c52dc0f75bd5ff5abe0fc3546094120396280c41d0ef934b518822efb49164736f6c63430008000033",
  "immutableReferences": {},
  "source": "// SPDX-License-Identifier: MIT\r\npragma solidity ^0.8;\r\n\r\nimport \"@openzeppelin/contracts/token/ERC721/extensions/ERC721URIStorage.sol\"; \r\nimport \"@openzeppelin/contracts/access/Ownable.sol\";\r\nimport \"@openzeppelin/contracts/utils/Counters.sol\";\r\n\r\ncontract NFT is ERC721URIStorage, Ownable{\r\n    using Counters for Counters.Counter;\r\n    Counters.Counter private _tokenIds;\r\n    constructor(string memory _name, string memory _symbol) ERC721(_name, _symbol){\r\n\r\n    }\r\n\r\n    function awardItem(address player, string memory tokenURI)\r\n        public\r\n        returns (uint256)\r\n    {\r\n        _tokenIds.increment();\r\n\r\n        uint256 newItemId = _tokenIds.current();\r\n        _mint(player, newItemId);\r\n        _setTokenURI(newItemId, tokenURI);\r\n\r\n        return newItemId;\r\n    }\r\n    \r\n\r\n}",
  "sourcePath": "E:\\projects\\knitts\\back-end\\contracts\\NFT.sol",
  "compiler": {
    "name": "solc",
    "version": "0.8.0+commit.c7dfd78e.Emscripten.clang"
  },
  "schemaVersion": "3.4.3",
  "updatedAt": "2021-09-30T12:55:25.237Z",
  "networkType": "ethereum",
  "devdoc": {
    "kind": "dev",
    "methods": {
      "approve(address,uint256)": {
        "details": "See {IERC721-approve}."
      },
      "balanceOf(address)": {
        "details": "See {IERC721-balanceOf}."
      },
      "getApproved(uint256)": {
        "details": "See {IERC721-getApproved}."
      },
      "isApprovedForAll(address,address)": {
        "details": "See {IERC721-isApprovedForAll}."
      },
      "name()": {
        "details": "See {IERC721Metadata-name}."
      },
      "owner()": {
        "details": "Returns the address of the current owner."
      },
      "ownerOf(uint256)": {
        "details": "See {IERC721-ownerOf}."
      },
      "renounceOwnership()": {
        "details": "Leaves the contract without owner. It will not be possible to call `onlyOwner` functions anymore. Can only be called by the current owner. NOTE: Renouncing ownership will leave the contract without an owner, thereby removing any functionality that is only available to the owner."
      },
      "safeTransferFrom(address,address,uint256)": {
        "details": "See {IERC721-safeTransferFrom}."
      },
      "safeTransferFrom(address,address,uint256,bytes)": {
        "details": "See {IERC721-safeTransferFrom}."
      },
      "setApprovalForAll(address,bool)": {
        "details": "See {IERC721-setApprovalForAll}."
      },
      "supportsInterface(bytes4)": {
        "details": "See {IERC165-supportsInterface}."
      },
      "symbol()": {
        "details": "See {IERC721Metadata-symbol}."
      },
      "tokenURI(uint256)": {
        "details": "See {IERC721Metadata-tokenURI}."
      },
      "transferFrom(address,address,uint256)": {
        "details": "See {IERC721-transferFrom}."
      },
      "transferOwnership(address)": {
        "details": "Transfers ownership of the contract to a new account (`newOwner`). Can only be called by the current owner."
      }
    },
    "version": 1
  },
  "userdoc": {
    "kind": "user",
    "methods": {},
    "version": 1
  }
}