{
  "contractName": "User",
  "abi": [
    {
      "inputs": [
        {
          "internalType": "address",
          "name": "_id",
          "type": "address"
        },
        {
          "internalType": "string",
          "name": "_name",
          "type": "string"
        }
      ],
      "stateMutability": "nonpayable",
      "type": "constructor"
    },
    {
      "inputs": [
        {
          "internalType": "uint256",
          "name": "",
          "type": "uint256"
        }
      ],
      "name": "NFTs_created",
      "outputs": [
        {
          "internalType": "address",
          "name": "",
          "type": "address"
        }
      ],
      "stateMutability": "view",
      "type": "function"
    },
    {
      "inputs": [],
      "name": "pending_nfts",
      "outputs": [
        {
          "internalType": "bool",
          "name": "",
          "type": "bool"
        }
      ],
      "stateMutability": "view",
      "type": "function"
    },
    {
      "inputs": [
        {
          "internalType": "uint256",
          "name": "",
          "type": "uint256"
        }
      ],
      "name": "projects",
      "outputs": [
        {
          "internalType": "string",
          "name": "title",
          "type": "string"
        },
        {
          "internalType": "string",
          "name": "url",
          "type": "string"
        },
        {
          "internalType": "string",
          "name": "image",
          "type": "string"
        },
        {
          "internalType": "uint256",
          "name": "point",
          "type": "uint256"
        },
        {
          "internalType": "uint256",
          "name": "average_point",
          "type": "uint256"
        },
        {
          "internalType": "address",
          "name": "submittedOn",
          "type": "address"
        }
      ],
      "stateMutability": "view",
      "type": "function"
    },
    {
      "inputs": [
        {
          "internalType": "string",
          "name": "title",
          "type": "string"
        },
        {
          "internalType": "string",
          "name": "url",
          "type": "string"
        },
        {
          "internalType": "string",
          "name": "image",
          "type": "string"
        },
        {
          "internalType": "bytes[20][]",
          "name": "description",
          "type": "bytes[20][]"
        },
        {
          "internalType": "uint256",
          "name": "point",
          "type": "uint256"
        },
        {
          "internalType": "uint256",
          "name": "average_point",
          "type": "uint256"
        },
        {
          "internalType": "address",
          "name": "submittedOn",
          "type": "address"
        }
      ],
      "name": "addProject",
      "outputs": [],
      "stateMutability": "nonpayable",
      "type": "function"
    },
    {
      "inputs": [
        {
          "internalType": "uint256",
          "name": "_bronze",
          "type": "uint256"
        },
        {
          "internalType": "uint256",
          "name": "price",
          "type": "uint256"
        }
      ],
      "name": "createNFT",
      "outputs": [
        {
          "internalType": "address[]",
          "name": "",
          "type": "address[]"
        }
      ],
      "stateMutability": "nonpayable",
      "type": "function"
    },
    {
      "inputs": [],
      "name": "split",
      "outputs": [],
      "stateMutability": "payable",
      "type": "function"
    }
  ],
  "bytecode": "0x608060405260006002556000600460006101000a81548160ff0219169083151502179055503480156200003157600080fd5b5060405162005b3938038062005b398339818101604052810190620000579190620001f2565b80600090805190602001906200006f929190620000b9565b5081600160006101000a81548173ffffffffffffffffffffffffffffffffffffffff021916908373ffffffffffffffffffffffffffffffffffffffff1602179055505050620003cb565b828054620000c7906200031d565b90600052602060002090601f016020900481019282620000eb576000855562000137565b82601f106200010657805160ff191683800117855562000137565b8280016001018555821562000137579182015b828111156200013657825182559160200191906001019062000119565b5b5090506200014691906200014a565b5090565b5b80821115620001655760008160009055506001016200014b565b5090565b6000620001806200017a8462000280565b6200024c565b9050828152602081018484840111156200019957600080fd5b620001a6848285620002e7565b509392505050565b600081519050620001bf81620003b1565b92915050565b600082601f830112620001d757600080fd5b8151620001e984826020860162000169565b91505092915050565b600080604083850312156200020657600080fd5b60006200021685828601620001ae565b925050602083015167ffffffffffffffff8111156200023457600080fd5b6200024285828601620001c5565b9150509250929050565b6000604051905081810181811067ffffffffffffffff8211171562000276576200027562000382565b5b8060405250919050565b600067ffffffffffffffff8211156200029e576200029d62000382565b5b601f19601f8301169050602081019050919050565b6000620002c082620002c7565b9050919050565b600073ffffffffffffffffffffffffffffffffffffffff82169050919050565b60005b8381101562000307578082015181840152602081019050620002ea565b8381111562000317576000848401525b50505050565b600060028204905060018216806200033657607f821691505b602082108114156200034d576200034c62000353565b5b50919050565b7f4e487b7100000000000000000000000000000000000000000000000000000000600052602260045260246000fd5b7f4e487b7100000000000000000000000000000000000000000000000000000000600052604160045260246000fd5b620003bc81620002b3565b8114620003c857600080fd5b50565b61575e80620003db6000396000f3fe6080604052600436106200005c5760003560e01c806309a19f221462000061578063107046bd14620000a5578063f765417614620000ee578063f8d3bc3b14620000fa578063fbf7de84146200012a578063fd9de1771462000158575b600080fd5b3480156200006e57600080fd5b506200008d6004803603810190620000879190620012de565b6200019c565b6040516200009c919062001694565b60405180910390f35b348015620000b257600080fd5b50620000d16004803603810190620000cb919062001286565b6200048c565b604051620000e596959493929190620016f2565b60405180910390f35b620000f86200069f565b005b3480156200010757600080fd5b5062000112620008c7565b604051620001219190620016b8565b60405180910390f35b3480156200013757600080fd5b5062000156600480360381019062000150919062001175565b620008da565b005b3480156200016557600080fd5b506200018460048036038101906200017e919062001286565b62000a00565b604051620001939190620015eb565b60405180910390f35b6060600a831115620001e5576040517f08c379a0000000000000000000000000000000000000000000000000000000008152600401620001dc90620017b8565b60405180910390fd5b60001515600460009054906101000a900460ff161515146200023e576040517f08c379a0000000000000000000000000000000000000000000000000000000008152600401620002359062001796565b60405180910390fd5b600160009054906101000a900473ffffffffffffffffffffffffffffffffffffffff1673ffffffffffffffffffffffffffffffffffffffff163373ffffffffffffffffffffffffffffffffffffffff1614620002d1576040517f08c379a0000000000000000000000000000000000000000000000000000000008152600401620002c89062001774565b60405180910390fd5b60005b83811015620003df576000600160009054906101000a900473ffffffffffffffffffffffffffffffffffffffff16600160009054906101000a900473ffffffffffffffffffffffffffffffffffffffff16600186604051620003369062000ba9565b62000345949392919062001608565b604051809103906000f08015801562000362573d6000803e3d6000fd5b5090506003819080600181540180825580915050600190039060005260206000200160009091909190916101000a81548173ffffffffffffffffffffffffffffffffffffffff021916908373ffffffffffffffffffffffffffffffffffffffff160217905550508080620003d69062001a93565b915050620002d4565b506001600460006101000a81548160ff02191690831515021790555060038054806020026020016040519081016040528092919081815260200182805480156200047f57602002820191906000526020600020905b8160009054906101000a900473ffffffffffffffffffffffffffffffffffffffff1673ffffffffffffffffffffffffffffffffffffffff168152602001906001019080831162000434575b5050505050905092915050565b600581601481106200049d57600080fd5b60070201600091509050806000018054620004b89062001a5d565b80601f0160208091040260200160405190810160405280929190818152602001828054620004e69062001a5d565b8015620005375780601f106200050b5761010080835404028352916020019162000537565b820191906000526020600020905b8154815290600101906020018083116200051957829003601f168201915b5050505050908060010180546200054e9062001a5d565b80601f01602080910402602001604051908101604052809291908181526020018280546200057c9062001a5d565b8015620005cd5780601f10620005a157610100808354040283529160200191620005cd565b820191906000526020600020905b815481529060010190602001808311620005af57829003601f168201915b505050505090806002018054620005e49062001a5d565b80601f0160208091040260200160405190810160405280929190818152602001828054620006129062001a5d565b8015620006635780601f10620006375761010080835404028352916020019162000663565b820191906000526020600020905b8154815290600101906020018083116200064557829003601f168201915b5050505050908060040154908060050154908060060160009054906101000a900473ffffffffffffffffffffffffffffffffffffffff16905086565b60006064605f34620006b2919062001959565b620006be919062001921565b9050600460009054906101000a900460ff16156200085a5760005b6003805490508110156200084d5760006003828154811062000724577f4e487b7100000000000000000000000000000000000000000000000000000000600052603260045260246000fd5b9060005260206000200160009054906101000a900473ffffffffffffffffffffffffffffffffffffffff1690508073ffffffffffffffffffffffffffffffffffffffff16636352211e60016040518263ffffffff1660e01b81526004016200078d9190620016d5565b60206040518083038186803b158015620007a657600080fd5b505afa158015620007bb573d6000803e3d6000fd5b505050506040513d601f19601f82011682018060405250810190620007e1919062001149565b73ffffffffffffffffffffffffffffffffffffffff166108fc600a8562000809919062001921565b9081150290604051600060405180830381858888f1935050505015801562000835573d6000803e3d6000fd5b50508080620008449062001a93565b915050620006d9565b506200085862000a40565b505b600160009054906101000a900473ffffffffffffffffffffffffffffffffffffffff1673ffffffffffffffffffffffffffffffffffffffff166108fc479081150290604051600060405180830381858888f19350505050158015620008c3573d6000803e3d6000fd5b5050565b600460009054906101000a900460ff1681565b6000600560026000815480929190620008f39062001a93565b91905055601481106200092f577f4e487b7100000000000000000000000000000000000000000000000000000000600052603260045260246000fd5b600702019050878160000190805190602001906200094f92919062000bb7565b50868160010190805190602001906200096a92919062000bb7565b50858160020190805190602001906200098592919062000bb7565b5084816003019080519060200190620009a092919062000c48565b50838160040181905550828160050181905550818160060160006101000a81548173ffffffffffffffffffffffffffffffffffffffff021916908373ffffffffffffffffffffffffffffffffffffffff1602179055505050505050505050565b6003818154811062000a1157600080fd5b906000526020600020016000915054906101000a900473ffffffffffffffffffffffffffffffffffffffff1681565b6000806000905060005b60038054905081101562000b5f5760006003828154811062000a95577f4e487b7100000000000000000000000000000000000000000000000000000000600052603260045260246000fd5b9060005260206000200160009054906101000a900473ffffffffffffffffffffffffffffffffffffffff1690508073ffffffffffffffffffffffffffffffffffffffff1663991a409b6040518163ffffffff1660e01b8152600401602060405180830381600087803b15801562000b0b57600080fd5b505af115801562000b20573d6000803e3d6000fd5b505050506040513d601f19601f8201168201806040525081019062000b469190620012b2565b925050808062000b569062001a93565b91505062000a4a565b50600081141562000ba2576000600460006101000a81548160ff0219169083151502179055506060806003908051906020019062000b9f92919062000cad565b50505b8091505090565b613b468062001be383390190565b82805462000bc59062001a5d565b90600052602060002090601f01602090048101928262000be9576000855562000c35565b82601f1062000c0457805160ff191683800117855562000c35565b8280016001018555821562000c35579182015b8281111562000c3457825182559160200191906001019062000c17565b5b50905062000c44919062000d3c565b5090565b82805482825590600052602060002090601402810192821562000c9a579160200282015b8281111562000c995782518290601462000c8892919062000d5b565b509160200191906014019062000c6c565b5b50905062000ca9919062000db5565b5090565b82805482825590600052602060002090810192821562000d29579160200282015b8281111562000d285782518260006101000a81548173ffffffffffffffffffffffffffffffffffffffff021916908373ffffffffffffffffffffffffffffffffffffffff1602179055509160200191906001019062000cce565b5b50905062000d38919062000d3c565b5090565b5b8082111562000d5757600081600090555060010162000d3d565b5090565b826014810192821562000da2579160200282015b8281111562000da157825182908051906020019062000d9092919062000ddd565b509160200191906001019062000d6f565b5b50905062000db1919062000e6e565b5090565b5b8082111562000dd9576000818162000dcf919062000e96565b5060140162000db6565b5090565b82805462000deb9062001a5d565b90600052602060002090601f01602090048101928262000e0f576000855562000e5b565b82601f1062000e2a57805160ff191683800117855562000e5b565b8280016001018555821562000e5b579182015b8281111562000e5a57825182559160200191906001019062000e3d565b5b50905062000e6a919062000d3c565b5090565b5b8082111562000e92576000818162000e88919062000eab565b5060010162000e6f565b5090565b50806014019062000ea8919062000e6e565b50565b50805462000eb99062001a5d565b6000825580601f1062000ecd575062000eee565b601f01602090049060005260206000209081019062000eed919062000d3c565b5b50565b600062000f0862000f02846200180e565b620017da565b9050808382526020820190508260005b8581101562000f4c578135850162000f31888262001097565b84526020840193506020830192505060018101905062000f18565b5050509392505050565b600062000f6d62000f67846200183d565b620017da565b9050808260005b8581101562000fa8578135850162000f8d8882620010c1565b84526020840193506020830192505060018101905062000f74565b5050509392505050565b600062000fc962000fc38462001866565b620017da565b90508281526020810184848401111562000fe257600080fd5b62000fef84828562001a18565b509392505050565b60006200100e620010088462001899565b620017da565b9050828152602081018484840111156200102757600080fd5b6200103484828562001a18565b509392505050565b6000813590506200104d8162001bae565b92915050565b600081519050620010648162001bae565b92915050565b600082601f8301126200107c57600080fd5b81356200108e84826020860162000ef1565b91505092915050565b600082601f830112620010a957600080fd5b6014620010b884828562000f56565b91505092915050565b600082601f830112620010d357600080fd5b8135620010e584826020860162000fb2565b91505092915050565b600082601f8301126200110057600080fd5b81356200111284826020860162000ff7565b91505092915050565b6000813590506200112c8162001bc8565b92915050565b600081519050620011438162001bc8565b92915050565b6000602082840312156200115c57600080fd5b60006200116c8482850162001053565b91505092915050565b600080600080600080600060e0888a0312156200119157600080fd5b600088013567ffffffffffffffff811115620011ac57600080fd5b620011ba8a828b01620010ee565b975050602088013567ffffffffffffffff811115620011d857600080fd5b620011e68a828b01620010ee565b965050604088013567ffffffffffffffff8111156200120457600080fd5b620012128a828b01620010ee565b955050606088013567ffffffffffffffff8111156200123057600080fd5b6200123e8a828b016200106a565b9450506080620012518a828b016200111b565b93505060a0620012648a828b016200111b565b92505060c0620012778a828b016200103c565b91505092959891949750929550565b6000602082840312156200129957600080fd5b6000620012a9848285016200111b565b91505092915050565b600060208284031215620012c557600080fd5b6000620012d58482850162001132565b91505092915050565b60008060408385031215620012f257600080fd5b600062001302858286016200111b565b925050602062001315858286016200111b565b9150509250929050565b60006200132d838362001339565b60208301905092915050565b6200134481620019ba565b82525050565b6200135581620019ba565b82525050565b60006200136882620018dc565b620013748185620018ff565b93506200138183620018cc565b8060005b83811015620013b85781516200139c88826200131f565b9750620013a983620018f2565b92505060018101905062001385565b5085935050505092915050565b620013d081620019ce565b82525050565b620013e18162001a04565b82525050565b6000620013f482620018e7565b62001400818562001910565b93506200141281856020860162001a27565b6200141d8162001b9d565b840191505092915050565b60006200143760018362001910565b91507f42000000000000000000000000000000000000000000000000000000000000006000830152602082019050919050565b60006200147960068362001910565b91507f42726f6e7a6500000000000000000000000000000000000000000000000000006000830152602082019050919050565b6000620014bb60128362001910565b91507f77726f6e672075736572206163636f756e7400000000000000000000000000006000830152602082019050919050565b6000620014fd60318362001910565b91507f68747470733a2f2f73332e656e7661746f2e636f6d2f66696c65732f3233353560008301527f36383932312f707265766965772e6a70670000000000000000000000000000006020830152604082019050919050565b600062001565601c8362001910565b91507f5468657265206172652070656e64696e67206e667473207374696c6c000000006000830152602082019050919050565b6000620015a7601e8362001910565b91507f596f752063616e20637265617465206f6e6c792031302062726f6e7a657300006000830152602082019050919050565b620015e581620019fa565b82525050565b60006020820190506200160260008301846200134a565b92915050565b600060e0820190506200161f60008301876200134a565b818103602083015262001632816200146a565b90508181036040830152620016478162001428565b90506200165860608301866200134a565b81810360808301526200166b81620014ee565b90506200167c60a0830185620013d6565b6200168b60c0830184620015da565b95945050505050565b60006020820190508181036000830152620016b081846200135b565b905092915050565b6000602082019050620016cf6000830184620013c5565b92915050565b6000602082019050620016ec6000830184620013d6565b92915050565b600060c08201905081810360008301526200170e8189620013e7565b90508181036020830152620017248188620013e7565b905081810360408301526200173a8187620013e7565b90506200174b6060830186620015da565b6200175a6080830185620015da565b6200176960a08301846200134a565b979650505050505050565b600060208201905081810360008301526200178f81620014ac565b9050919050565b60006020820190508181036000830152620017b18162001556565b9050919050565b60006020820190508181036000830152620017d38162001598565b9050919050565b6000604051905081810181811067ffffffffffffffff8211171562001804576200180362001b6e565b5b8060405250919050565b600067ffffffffffffffff8211156200182c576200182b62001b6e565b5b602082029050602081019050919050565b600067ffffffffffffffff8211156200185b576200185a62001b6e565b5b602082029050919050565b600067ffffffffffffffff82111562001884576200188362001b6e565b5b601f19601f8301169050602081019050919050565b600067ffffffffffffffff821115620018b757620018b662001b6e565b5b601f19601f8301169050602081019050919050565b6000819050602082019050919050565b600081519050919050565b600081519050919050565b6000602082019050919050565b600082825260208201905092915050565b600082825260208201905092915050565b60006200192e82620019fa565b91506200193b83620019fa565b9250826200194e576200194d62001b10565b5b828204905092915050565b60006200196682620019fa565b91506200197383620019fa565b9250817fffffffffffffffffffffffffffffffffffffffffffffffffffffffffffffffff0483118215151615620019af57620019ae62001ae1565b5b828202905092915050565b6000620019c782620019da565b9050919050565b60008115159050919050565b600073ffffffffffffffffffffffffffffffffffffffff82169050919050565b6000819050919050565b600062001a1182620019fa565b9050919050565b82818337600083830152505050565b60005b8381101562001a4757808201518184015260208101905062001a2a565b8381111562001a57576000848401525b50505050565b6000600282049050600182168062001a7657607f821691505b6020821081141562001a8d5762001a8c62001b3f565b5b50919050565b600062001aa082620019fa565b91507fffffffffffffffffffffffffffffffffffffffffffffffffffffffffffffffff82141562001ad65762001ad562001ae1565b5b600182019050919050565b7f4e487b7100000000000000000000000000000000000000000000000000000000600052601160045260246000fd5b7f4e487b7100000000000000000000000000000000000000000000000000000000600052601260045260246000fd5b7f4e487b7100000000000000000000000000000000000000000000000000000000600052602260045260246000fd5b7f4e487b7100000000000000000000000000000000000000000000000000000000600052604160045260246000fd5b6000601f19601f8301169050919050565b62001bb981620019ba565b811462001bc557600080fd5b50565b62001bd381620019fa565b811462001bdf57600080fd5b5056fe60806040523480156200001157600080fd5b5060405162003b4638038062003b468339818101604052810190620000379190620007ee565b85858160009080519060200190620000519291906200069e565b5080600190805190602001906200006a9291906200069e565b5050506200008d620000816200015960201b60201c565b6200016160201b60201c565b86600960006101000a81548173ffffffffffffffffffffffffffffffffffffffff021916908373ffffffffffffffffffffffffffffffffffffffff16021790555081600a81905550620000ec60086200022760201b6200112e1760201c565b6200010360086200023d60201b620011441760201c565b600c819055506200011d84600c546200024b60201b60201c565b62000131600c54846200043160201b60201c565b6200014530600c54620004b260201b60201c565b80600b819055505050505050505062000d02565b600033905090565b6000600760009054906101000a900473ffffffffffffffffffffffffffffffffffffffff16905081600760006101000a81548173ffffffffffffffffffffffffffffffffffffffff021916908373ffffffffffffffffffffffffffffffffffffffff1602179055508173ffffffffffffffffffffffffffffffffffffffff168173ffffffffffffffffffffffffffffffffffffffff167f8be0079c531659141344cd1fd0a4f28419497f9722a3daafe3b4186f6b6457e060405160405180910390a35050565b6001816000016000828254019250508190555050565b600081600001549050919050565b600073ffffffffffffffffffffffffffffffffffffffff168273ffffffffffffffffffffffffffffffffffffffff161415620002be576040517f08c379a0000000000000000000000000000000000000000000000000000000008152600401620002b59062000aa0565b60405180910390fd5b620002cf816200057860201b60201c565b1562000312576040517f08c379a0000000000000000000000000000000000000000000000000000000008152600401620003099062000a3a565b60405180910390fd5b6200032660008383620005e460201b60201c565b6001600360008473ffffffffffffffffffffffffffffffffffffffff1673ffffffffffffffffffffffffffffffffffffffff168152602001908152602001600020600082825462000378919062000b3a565b92505081905550816002600083815260200190815260200160002060006101000a81548173ffffffffffffffffffffffffffffffffffffffff021916908373ffffffffffffffffffffffffffffffffffffffff160217905550808273ffffffffffffffffffffffffffffffffffffffff16600073ffffffffffffffffffffffffffffffffffffffff167fddf252ad1be2c89b69c2b068fc378daa952ba7f163c4a11628f55a4df523b3ef60405160405180910390a45050565b62000442826200057860201b60201c565b62000484576040517f08c379a00000000000000000000000000000000000000000000000000000000081526004016200047b9062000a7e565b60405180910390fd5b80600660008481526020019081526020016000209080519060200190620004ad9291906200069e565b505050565b816004600083815260200190815260200160002060006101000a81548173ffffffffffffffffffffffffffffffffffffffff021916908373ffffffffffffffffffffffffffffffffffffffff160217905550808273ffffffffffffffffffffffffffffffffffffffff166200053283620005e960201b620008041760201c565b73ffffffffffffffffffffffffffffffffffffffff167f8c5be1e5ebec7d5bd14f71427d1e84f3dd0314c0f7b2291e5b200ac8c7c3b92560405160405180910390a45050565b60008073ffffffffffffffffffffffffffffffffffffffff166002600084815260200190815260200160002060009054906101000a900473ffffffffffffffffffffffffffffffffffffffff1673ffffffffffffffffffffffffffffffffffffffff1614159050919050565b505050565b6000806002600084815260200190815260200160002060009054906101000a900473ffffffffffffffffffffffffffffffffffffffff169050600073ffffffffffffffffffffffffffffffffffffffff168173ffffffffffffffffffffffffffffffffffffffff16141562000695576040517f08c379a00000000000000000000000000000000000000000000000000000000081526004016200068c9062000a5c565b60405180910390fd5b80915050919050565b828054620006ac9062000c0b565b90600052602060002090601f016020900481019282620006d057600085556200071c565b82601f10620006eb57805160ff19168380011785556200071c565b828001600101855582156200071c579182015b828111156200071b578251825591602001919060010190620006fe565b5b5090506200072b91906200072f565b5090565b5b808211156200074a57600081600090555060010162000730565b5090565b6000620007656200075f8462000af6565b62000ac2565b9050828152602081018484840111156200077e57600080fd5b6200078b84828562000bd5565b509392505050565b600081519050620007a48162000cce565b92915050565b600082601f830112620007bc57600080fd5b8151620007ce8482602086016200074e565b91505092915050565b600081519050620007e88162000ce8565b92915050565b600080600080600080600060e0888a0312156200080a57600080fd5b60006200081a8a828b0162000793565b975050602088015167ffffffffffffffff8111156200083857600080fd5b620008468a828b01620007aa565b965050604088015167ffffffffffffffff8111156200086457600080fd5b620008728a828b01620007aa565b9550506060620008858a828b0162000793565b945050608088015167ffffffffffffffff811115620008a357600080fd5b620008b18a828b01620007aa565b93505060a0620008c48a828b01620007d7565b92505060c0620008d78a828b01620007d7565b91505092959891949750929550565b6000620008f5601c8362000b29565b91507f4552433732313a20746f6b656e20616c7265616479206d696e746564000000006000830152602082019050919050565b60006200093760298362000b29565b91507f4552433732313a206f776e657220717565727920666f72206e6f6e657869737460008301527f656e7420746f6b656e00000000000000000000000000000000000000000000006020830152604082019050919050565b60006200099f602e8362000b29565b91507f45524337323155524953746f726167653a2055524920736574206f66206e6f6e60008301527f6578697374656e7420746f6b656e0000000000000000000000000000000000006020830152604082019050919050565b600062000a0760208362000b29565b91507f4552433732313a206d696e7420746f20746865207a65726f20616464726573736000830152602082019050919050565b6000602082019050818103600083015262000a5581620008e6565b9050919050565b6000602082019050818103600083015262000a778162000928565b9050919050565b6000602082019050818103600083015262000a998162000990565b9050919050565b6000602082019050818103600083015262000abb81620009f8565b9050919050565b6000604051905081810181811067ffffffffffffffff8211171562000aec5762000aeb62000c9f565b5b8060405250919050565b600067ffffffffffffffff82111562000b145762000b1362000c9f565b5b601f19601f8301169050602081019050919050565b600082825260208201905092915050565b600062000b478262000bcb565b915062000b548362000bcb565b9250827fffffffffffffffffffffffffffffffffffffffffffffffffffffffffffffffff0382111562000b8c5762000b8b62000c41565b5b828201905092915050565b600062000ba48262000bab565b9050919050565b600073ffffffffffffffffffffffffffffffffffffffff82169050919050565b6000819050919050565b60005b8381101562000bf557808201518184015260208101905062000bd8565b8381111562000c05576000848401525b50505050565b6000600282049050600182168062000c2457607f821691505b6020821081141562000c3b5762000c3a62000c70565b5b50919050565b7f4e487b7100000000000000000000000000000000000000000000000000000000600052601160045260246000fd5b7f4e487b7100000000000000000000000000000000000000000000000000000000600052602260045260246000fd5b7f4e487b7100000000000000000000000000000000000000000000000000000000600052604160045260246000fd5b62000cd98162000b97565b811462000ce557600080fd5b50565b62000cf38162000bcb565b811462000cff57600080fd5b50565b612e348062000d126000396000f3fe6080604052600436106101145760003560e01c80638d6cc56d116100a0578063a6f2ae3a11610064578063a6f2ae3a1461039d578063b88d4fde146103a7578063c87b56dd146103d0578063e985e9c51461040d578063f2fde38b1461044a57610114565b80638d6cc56d146102ca5780638da5cb5b146102f357806395d89b411461031e578063991a409b14610349578063a22cb4651461037457610114565b806323b872dd116100e757806323b872dd146101e757806342842e0e146102105780636352211e1461023957806370a0823114610276578063715018a6146102b357610114565b806301ffc9a71461011957806306fdde0314610156578063081812fc14610181578063095ea7b3146101be575b600080fd5b34801561012557600080fd5b50610140600480360381019061013b9190611f98565b610473565b60405161014d919061279c565b60405180910390f35b34801561016257600080fd5b5061016b610555565b60405161017891906127b7565b60405180910390f35b34801561018d57600080fd5b506101a860048036038101906101a39190611fea565b6105e7565b6040516101b59190612735565b60405180910390f35b3480156101ca57600080fd5b506101e560048036038101906101e09190611f5c565b61066c565b005b3480156101f357600080fd5b5061020e60048036038101906102099190611e56565b610784565b005b34801561021c57600080fd5b5061023760048036038101906102329190611e56565b6107e4565b005b34801561024557600080fd5b50610260600480360381019061025b9190611fea565b610804565b60405161026d9190612735565b60405180910390f35b34801561028257600080fd5b5061029d60048036038101906102989190611df1565b6108b6565b6040516102aa91906129f9565b60405180910390f35b3480156102bf57600080fd5b506102c861096e565b005b3480156102d657600080fd5b506102f160048036038101906102ec9190611fea565b6109f6565b005b3480156102ff57600080fd5b50610308610a7c565b6040516103159190612735565b60405180910390f35b34801561032a57600080fd5b50610333610aa6565b60405161034091906127b7565b60405180910390f35b34801561035557600080fd5b5061035e610b38565b60405161036b91906129f9565b60405180910390f35b34801561038057600080fd5b5061039b60048036038101906103969190611f20565b610bb6565b005b6103a5610d37565b005b3480156103b357600080fd5b506103ce60048036038101906103c99190611ea5565b610dee565b005b3480156103dc57600080fd5b506103f760048036038101906103f29190611fea565b610e50565b60405161040491906127b7565b60405180910390f35b34801561041957600080fd5b50610434600480360381019061042f9190611e1a565b610fa2565b604051610441919061279c565b60405180910390f35b34801561045657600080fd5b50610471600480360381019061046c9190611df1565b611036565b005b60007f80ac58cd000000000000000000000000000000000000000000000000000000007bffffffffffffffffffffffffffffffffffffffffffffffffffffffff1916827bffffffffffffffffffffffffffffffffffffffffffffffffffffffff1916148061053e57507f5b5e139f000000000000000000000000000000000000000000000000000000007bffffffffffffffffffffffffffffffffffffffffffffffffffffffff1916827bffffffffffffffffffffffffffffffffffffffffffffffffffffffff1916145b8061054e575061054d82611152565b5b9050919050565b60606000805461056490612c29565b80601f016020809104026020016040519081016040528092919081815260200182805461059090612c29565b80156105dd5780601f106105b2576101008083540402835291602001916105dd565b820191906000526020600020905b8154815290600101906020018083116105c057829003601f168201915b5050505050905090565b60006105f2826111bc565b610631576040517f08c379a000000000000000000000000000000000000000000000000000000000815260040161062890612919565b60405180910390fd5b6004600083815260200190815260200160002060009054906101000a900473ffffffffffffffffffffffffffffffffffffffff169050919050565b600061067782610804565b90508073ffffffffffffffffffffffffffffffffffffffff168373ffffffffffffffffffffffffffffffffffffffff1614156106e8576040517f08c379a00000000000000000000000000000000000000000000000000000000081526004016106df90612999565b60405180910390fd5b8073ffffffffffffffffffffffffffffffffffffffff16610707611228565b73ffffffffffffffffffffffffffffffffffffffff161480610736575061073581610730611228565b610fa2565b5b610775576040517f08c379a000000000000000000000000000000000000000000000000000000000815260040161076c90612899565b60405180910390fd5b61077f8383611230565b505050565b61079561078f611228565b826112e9565b6107d4576040517f08c379a00000000000000000000000000000000000000000000000000000000081526004016107cb906129d9565b60405180910390fd5b6107df8383836113c7565b505050565b6107ff83838360405180602001604052806000815250610dee565b505050565b6000806002600084815260200190815260200160002060009054906101000a900473ffffffffffffffffffffffffffffffffffffffff169050600073ffffffffffffffffffffffffffffffffffffffff168173ffffffffffffffffffffffffffffffffffffffff1614156108ad576040517f08c379a00000000000000000000000000000000000000000000000000000000081526004016108a4906128d9565b60405180910390fd5b80915050919050565b60008073ffffffffffffffffffffffffffffffffffffffff168273ffffffffffffffffffffffffffffffffffffffff161415610927576040517f08c379a000000000000000000000000000000000000000000000000000000000815260040161091e906128b9565b60405180910390fd5b600360008373ffffffffffffffffffffffffffffffffffffffff1673ffffffffffffffffffffffffffffffffffffffff168152602001908152602001600020549050919050565b610976611228565b73ffffffffffffffffffffffffffffffffffffffff16610994610a7c565b73ffffffffffffffffffffffffffffffffffffffff16146109ea576040517f08c379a00000000000000000000000000000000000000000000000000000000081526004016109e190612939565b60405180910390fd5b6109f46000611623565b565b6109fe611228565b73ffffffffffffffffffffffffffffffffffffffff16610a1c610a7c565b73ffffffffffffffffffffffffffffffffffffffff1614610a72576040517f08c379a0000000000000000000000000000000000000000000000000000000008152600401610a6990612939565b60405180910390fd5b80600b8190555050565b6000600760009054906101000a900473ffffffffffffffffffffffffffffffffffffffff16905090565b606060018054610ab590612c29565b80601f0160208091040260200160405190810160405280929190818152602001828054610ae190612c29565b8015610b2e5780601f10610b0357610100808354040283529160200191610b2e565b820191906000526020600020905b815481529060010190602001808311610b1157829003601f168201915b5050505050905090565b600080600a5411610b7e576040517f08c379a0000000000000000000000000000000000000000000000000000000008152600401610b7590612879565b60405180910390fd5b6001600a6000828254610b919190612b3f565b925050819055506000600a541415610bae57610bad60016116e9565b5b600a54905090565b610bbe611228565b73ffffffffffffffffffffffffffffffffffffffff168273ffffffffffffffffffffffffffffffffffffffff161415610c2c576040517f08c379a0000000000000000000000000000000000000000000000000000000008152600401610c2390612839565b60405180910390fd5b8060056000610c39611228565b73ffffffffffffffffffffffffffffffffffffffff1673ffffffffffffffffffffffffffffffffffffffff16815260200190815260200160002060008473ffffffffffffffffffffffffffffffffffffffff1673ffffffffffffffffffffffffffffffffffffffff16815260200190815260200160002060006101000a81548160ff0219169083151502179055508173ffffffffffffffffffffffffffffffffffffffff16610ce6611228565b73ffffffffffffffffffffffffffffffffffffffff167f17307eab39ab6107e8899845ad3d59bd9653f200f220920489ca2b5937696c3183604051610d2b919061279c565b60405180910390a35050565b600b54341015610d7c576040517f08c379a0000000000000000000000000000000000000000000000000000000008152600401610d73906129b9565b60405180910390fd5b6000610d89600c54610804565b9050610d988130600c546113c7565b610da433600c54611230565b8073ffffffffffffffffffffffffffffffffffffffff166108fc479081150290604051600060405180830381858888f19350505050158015610dea573d6000803e3d6000fd5b5050565b610dff610df9611228565b836112e9565b610e3e576040517f08c379a0000000000000000000000000000000000000000000000000000000008152600401610e35906129d9565b60405180910390fd5b610e4a8484848461173c565b50505050565b6060610e5b826111bc565b610e9a576040517f08c379a0000000000000000000000000000000000000000000000000000000008152600401610e91906128f9565b60405180910390fd5b6000600660008481526020019081526020016000208054610eba90612c29565b80601f0160208091040260200160405190810160405280929190818152602001828054610ee690612c29565b8015610f335780601f10610f0857610100808354040283529160200191610f33565b820191906000526020600020905b815481529060010190602001808311610f1657829003601f168201915b505050505090506000610f44611798565b9050600081511415610f5a578192505050610f9d565b600082511115610f8f578082604051602001610f77929190612711565b60405160208183030381529060405292505050610f9d565b610f98846117af565b925050505b919050565b6000600560008473ffffffffffffffffffffffffffffffffffffffff1673ffffffffffffffffffffffffffffffffffffffff16815260200190815260200160002060008373ffffffffffffffffffffffffffffffffffffffff1673ffffffffffffffffffffffffffffffffffffffff16815260200190815260200160002060009054906101000a900460ff16905092915050565b61103e611228565b73ffffffffffffffffffffffffffffffffffffffff1661105c610a7c565b73ffffffffffffffffffffffffffffffffffffffff16146110b2576040517f08c379a00000000000000000000000000000000000000000000000000000000081526004016110a990612939565b60405180910390fd5b600073ffffffffffffffffffffffffffffffffffffffff168173ffffffffffffffffffffffffffffffffffffffff161415611122576040517f08c379a0000000000000000000000000000000000000000000000000000000008152600401611119906127f9565b60405180910390fd5b61112b81611623565b50565b6001816000016000828254019250508190555050565b600081600001549050919050565b60007f01ffc9a7000000000000000000000000000000000000000000000000000000007bffffffffffffffffffffffffffffffffffffffffffffffffffffffff1916827bffffffffffffffffffffffffffffffffffffffffffffffffffffffff1916149050919050565b60008073ffffffffffffffffffffffffffffffffffffffff166002600084815260200190815260200160002060009054906101000a900473ffffffffffffffffffffffffffffffffffffffff1673ffffffffffffffffffffffffffffffffffffffff1614159050919050565b600033905090565b816004600083815260200190815260200160002060006101000a81548173ffffffffffffffffffffffffffffffffffffffff021916908373ffffffffffffffffffffffffffffffffffffffff160217905550808273ffffffffffffffffffffffffffffffffffffffff166112a383610804565b73ffffffffffffffffffffffffffffffffffffffff167f8c5be1e5ebec7d5bd14f71427d1e84f3dd0314c0f7b2291e5b200ac8c7c3b92560405160405180910390a45050565b60006112f4826111bc565b611333576040517f08c379a000000000000000000000000000000000000000000000000000000000815260040161132a90612859565b60405180910390fd5b600061133e83610804565b90508073ffffffffffffffffffffffffffffffffffffffff168473ffffffffffffffffffffffffffffffffffffffff1614806113ad57508373ffffffffffffffffffffffffffffffffffffffff16611395846105e7565b73ffffffffffffffffffffffffffffffffffffffff16145b806113be57506113bd8185610fa2565b5b91505092915050565b8273ffffffffffffffffffffffffffffffffffffffff166113e782610804565b73ffffffffffffffffffffffffffffffffffffffff161461143d576040517f08c379a000000000000000000000000000000000000000000000000000000000815260040161143490612959565b60405180910390fd5b600073ffffffffffffffffffffffffffffffffffffffff168273ffffffffffffffffffffffffffffffffffffffff1614156114ad576040517f08c379a00000000000000000000000000000000000000000000000000000000081526004016114a490612819565b60405180910390fd5b6114b8838383611856565b6114c3600082611230565b6001600360008573ffffffffffffffffffffffffffffffffffffffff1673ffffffffffffffffffffffffffffffffffffffff16815260200190815260200160002060008282546115139190612b3f565b925050819055506001600360008473ffffffffffffffffffffffffffffffffffffffff1673ffffffffffffffffffffffffffffffffffffffff168152602001908152602001600020600082825461156a9190612ab8565b92505081905550816002600083815260200190815260200160002060006101000a81548173ffffffffffffffffffffffffffffffffffffffff021916908373ffffffffffffffffffffffffffffffffffffffff160217905550808273ffffffffffffffffffffffffffffffffffffffff168473ffffffffffffffffffffffffffffffffffffffff167fddf252ad1be2c89b69c2b068fc378daa952ba7f163c4a11628f55a4df523b3ef60405160405180910390a4505050565b6000600760009054906101000a900473ffffffffffffffffffffffffffffffffffffffff16905081600760006101000a81548173ffffffffffffffffffffffffffffffffffffffff021916908373ffffffffffffffffffffffffffffffffffffffff1602179055508173ffffffffffffffffffffffffffffffffffffffff168173ffffffffffffffffffffffffffffffffffffffff167f8be0079c531659141344cd1fd0a4f28419497f9722a3daafe3b4186f6b6457e060405160405180910390a35050565b6116f28161185b565b600060066000838152602001908152602001600020805461171290612c29565b905014611739576006600082815260200190815260200160002060006117389190611cc3565b5b50565b6117478484846113c7565b6117538484848461196c565b611792576040517f08c379a0000000000000000000000000000000000000000000000000000000008152600401611789906127d9565b60405180910390fd5b50505050565b606060405180602001604052806000815250905090565b60606117ba826111bc565b6117f9576040517f08c379a00000000000000000000000000000000000000000000000000000000081526004016117f090612979565b60405180910390fd5b6000611803611798565b90506000815111611823576040518060200160405280600081525061184e565b8061182d84611b03565b60405160200161183e929190612711565b6040516020818303038152906040525b915050919050565b505050565b600061186682610804565b905061187481600084611856565b61187f600083611230565b6001600360008373ffffffffffffffffffffffffffffffffffffffff1673ffffffffffffffffffffffffffffffffffffffff16815260200190815260200160002060008282546118cf9190612b3f565b925050819055506002600083815260200190815260200160002060006101000a81549073ffffffffffffffffffffffffffffffffffffffff021916905581600073ffffffffffffffffffffffffffffffffffffffff168273ffffffffffffffffffffffffffffffffffffffff167fddf252ad1be2c89b69c2b068fc378daa952ba7f163c4a11628f55a4df523b3ef60405160405180910390a45050565b600061198d8473ffffffffffffffffffffffffffffffffffffffff16611cb0565b15611af6578373ffffffffffffffffffffffffffffffffffffffff1663150b7a026119b6611228565b8786866040518563ffffffff1660e01b81526004016119d89493929190612750565b602060405180830381600087803b1580156119f257600080fd5b505af1925050508015611a2357506040513d601f19601f82011682018060405250810190611a209190611fc1565b60015b611aa6573d8060008114611a53576040519150601f19603f3d011682016040523d82523d6000602084013e611a58565b606091505b50600081511415611a9e576040517f08c379a0000000000000000000000000000000000000000000000000000000008152600401611a95906127d9565b60405180910390fd5b805181602001fd5b63150b7a0260e01b7bffffffffffffffffffffffffffffffffffffffffffffffffffffffff1916817bffffffffffffffffffffffffffffffffffffffffffffffffffffffff191614915050611afb565b600190505b949350505050565b60606000821415611b4b576040518060400160405280600181526020017f30000000000000000000000000000000000000000000000000000000000000008152509050611cab565b600082905060005b60008214611b7d578080611b6690612c5b565b915050600a82611b769190612b0e565b9150611b53565b60008167ffffffffffffffff811115611bbf577f4e487b7100000000000000000000000000000000000000000000000000000000600052604160045260246000fd5b6040519080825280601f01601f191660200182016040528015611bf15781602001600182028036833780820191505090505b5090505b60008514611ca457600182611c0a9190612b3f565b9150600a85611c199190612ca4565b6030611c259190612ab8565b60f81b818381518110611c61577f4e487b7100000000000000000000000000000000000000000000000000000000600052603260045260246000fd5b60200101907effffffffffffffffffffffffffffffffffffffffffffffffffffffffffffff1916908160001a905350600a85611c9d9190612b0e565b9450611bf5565b8093505050505b919050565b600080823b905060008111915050919050565b508054611ccf90612c29565b6000825580601f10611ce15750611d00565b601f016020900490600052602060002090810190611cff9190611d03565b5b50565b5b80821115611d1c576000816000905550600101611d04565b5090565b6000611d33611d2e84612a45565b612a14565b905082815260208101848484011115611d4b57600080fd5b611d56848285612be7565b509392505050565b600081359050611d6d81612da2565b92915050565b600081359050611d8281612db9565b92915050565b600081359050611d9781612dd0565b92915050565b600081519050611dac81612dd0565b92915050565b600082601f830112611dc357600080fd5b8135611dd3848260208601611d20565b91505092915050565b600081359050611deb81612de7565b92915050565b600060208284031215611e0357600080fd5b6000611e1184828501611d5e565b91505092915050565b60008060408385031215611e2d57600080fd5b6000611e3b85828601611d5e565b9250506020611e4c85828601611d5e565b9150509250929050565b600080600060608486031215611e6b57600080fd5b6000611e7986828701611d5e565b9350506020611e8a86828701611d5e565b9250506040611e9b86828701611ddc565b9150509250925092565b60008060008060808587031215611ebb57600080fd5b6000611ec987828801611d5e565b9450506020611eda87828801611d5e565b9350506040611eeb87828801611ddc565b925050606085013567ffffffffffffffff811115611f0857600080fd5b611f1487828801611db2565b91505092959194509250565b60008060408385031215611f3357600080fd5b6000611f4185828601611d5e565b9250506020611f5285828601611d73565b9150509250929050565b60008060408385031215611f6f57600080fd5b6000611f7d85828601611d5e565b9250506020611f8e85828601611ddc565b9150509250929050565b600060208284031215611faa57600080fd5b6000611fb884828501611d88565b91505092915050565b600060208284031215611fd357600080fd5b6000611fe184828501611d9d565b91505092915050565b600060208284031215611ffc57600080fd5b600061200a84828501611ddc565b91505092915050565b61201c81612b73565b82525050565b61202b81612b85565b82525050565b600061203c82612a75565b6120468185612a8b565b9350612056818560208601612bf6565b61205f81612d91565b840191505092915050565b600061207582612a80565b61207f8185612a9c565b935061208f818560208601612bf6565b61209881612d91565b840191505092915050565b60006120ae82612a80565b6120b88185612aad565b93506120c8818560208601612bf6565b80840191505092915050565b60006120e1603283612a9c565b91507f4552433732313a207472616e7366657220746f206e6f6e20455243373231526560008301527f63656976657220696d706c656d656e74657200000000000000000000000000006020830152604082019050919050565b6000612147602683612a9c565b91507f4f776e61626c653a206e6577206f776e657220697320746865207a65726f206160008301527f64647265737300000000000000000000000000000000000000000000000000006020830152604082019050919050565b60006121ad602483612a9c565b91507f4552433732313a207472616e7366657220746f20746865207a65726f2061646460008301527f72657373000000000000000000000000000000000000000000000000000000006020830152604082019050919050565b6000612213601983612a9c565b91507f4552433732313a20617070726f766520746f2063616c6c6572000000000000006000830152602082019050919050565b6000612253602c83612a9c565b91507f4552433732313a206f70657261746f7220717565727920666f72206e6f6e657860008301527f697374656e7420746f6b656e00000000000000000000000000000000000000006020830152604082019050919050565b60006122b9600783612a9c565b91507f65787069726564000000000000000000000000000000000000000000000000006000830152602082019050919050565b60006122f9603883612a9c565b91507f4552433732313a20617070726f76652063616c6c6572206973206e6f74206f7760008301527f6e6572206e6f7220617070726f76656420666f7220616c6c00000000000000006020830152604082019050919050565b600061235f602a83612a9c565b91507f4552433732313a2062616c616e636520717565727920666f7220746865207a6560008301527f726f2061646472657373000000000000000000000000000000000000000000006020830152604082019050919050565b60006123c5602983612a9c565b91507f4552433732313a206f776e657220717565727920666f72206e6f6e657869737460008301527f656e7420746f6b656e00000000000000000000000000000000000000000000006020830152604082019050919050565b600061242b603183612a9c565b91507f45524337323155524953746f726167653a2055524920717565727920666f722060008301527f6e6f6e6578697374656e7420746f6b656e0000000000000000000000000000006020830152604082019050919050565b6000612491602c83612a9c565b91507f4552433732313a20617070726f76656420717565727920666f72206e6f6e657860008301527f697374656e7420746f6b656e00000000000000000000000000000000000000006020830152604082019050919050565b60006124f7602083612a9c565b91507f4f776e61626c653a2063616c6c6572206973206e6f7420746865206f776e65726000830152602082019050919050565b6000612537602983612a9c565b91507f4552433732313a207472616e73666572206f6620746f6b656e2074686174206960008301527f73206e6f74206f776e00000000000000000000000000000000000000000000006020830152604082019050919050565b600061259d602f83612a9c565b91507f4552433732314d657461646174613a2055524920717565727920666f72206e6f60008301527f6e6578697374656e7420746f6b656e00000000000000000000000000000000006020830152604082019050919050565b6000612603602183612a9c565b91507f4552433732313a20617070726f76616c20746f2063757272656e74206f776e6560008301527f72000000000000000000000000000000000000000000000000000000000000006020830152604082019050919050565b6000612669600a83612a9c565b91507f636f737473206d6f7265000000000000000000000000000000000000000000006000830152602082019050919050565b60006126a9603183612a9c565b91507f4552433732313a207472616e736665722063616c6c6572206973206e6f74206f60008301527f776e6572206e6f7220617070726f7665640000000000000000000000000000006020830152604082019050919050565b61270b81612bdd565b82525050565b600061271d82856120a3565b915061272982846120a3565b91508190509392505050565b600060208201905061274a6000830184612013565b92915050565b60006080820190506127656000830187612013565b6127726020830186612013565b61277f6040830185612702565b81810360608301526127918184612031565b905095945050505050565b60006020820190506127b16000830184612022565b92915050565b600060208201905081810360008301526127d1818461206a565b905092915050565b600060208201905081810360008301526127f2816120d4565b9050919050565b600060208201905081810360008301526128128161213a565b9050919050565b60006020820190508181036000830152612832816121a0565b9050919050565b6000602082019050818103600083015261285281612206565b9050919050565b6000602082019050818103600083015261287281612246565b9050919050565b60006020820190508181036000830152612892816122ac565b9050919050565b600060208201905081810360008301526128b2816122ec565b9050919050565b600060208201905081810360008301526128d281612352565b9050919050565b600060208201905081810360008301526128f2816123b8565b9050919050565b600060208201905081810360008301526129128161241e565b9050919050565b6000602082019050818103600083015261293281612484565b9050919050565b60006020820190508181036000830152612952816124ea565b9050919050565b600060208201905081810360008301526129728161252a565b9050919050565b6000602082019050818103600083015261299281612590565b9050919050565b600060208201905081810360008301526129b2816125f6565b9050919050565b600060208201905081810360008301526129d28161265c565b9050919050565b600060208201905081810360008301526129f28161269c565b9050919050565b6000602082019050612a0e6000830184612702565b92915050565b6000604051905081810181811067ffffffffffffffff82111715612a3b57612a3a612d62565b5b8060405250919050565b600067ffffffffffffffff821115612a6057612a5f612d62565b5b601f19601f8301169050602081019050919050565b600081519050919050565b600081519050919050565b600082825260208201905092915050565b600082825260208201905092915050565b600081905092915050565b6000612ac382612bdd565b9150612ace83612bdd565b9250827fffffffffffffffffffffffffffffffffffffffffffffffffffffffffffffffff03821115612b0357612b02612cd5565b5b828201905092915050565b6000612b1982612bdd565b9150612b2483612bdd565b925082612b3457612b33612d04565b5b828204905092915050565b6000612b4a82612bdd565b9150612b5583612bdd565b925082821015612b6857612b67612cd5565b5b828203905092915050565b6000612b7e82612bbd565b9050919050565b60008115159050919050565b60007fffffffff0000000000000000000000000000000000000000000000000000000082169050919050565b600073ffffffffffffffffffffffffffffffffffffffff82169050919050565b6000819050919050565b82818337600083830152505050565b60005b83811015612c14578082015181840152602081019050612bf9565b83811115612c23576000848401525b50505050565b60006002820490506001821680612c4157607f821691505b60208210811415612c5557612c54612d33565b5b50919050565b6000612c6682612bdd565b91507fffffffffffffffffffffffffffffffffffffffffffffffffffffffffffffffff821415612c9957612c98612cd5565b5b600182019050919050565b6000612caf82612bdd565b9150612cba83612bdd565b925082612cca57612cc9612d04565b5b828206905092915050565b7f4e487b7100000000000000000000000000000000000000000000000000000000600052601160045260246000fd5b7f4e487b7100000000000000000000000000000000000000000000000000000000600052601260045260246000fd5b7f4e487b7100000000000000000000000000000000000000000000000000000000600052602260045260246000fd5b7f4e487b7100000000000000000000000000000000000000000000000000000000600052604160045260246000fd5b6000601f19601f8301169050919050565b612dab81612b73565b8114612db657600080fd5b50565b612dc281612b85565b8114612dcd57600080fd5b50565b612dd981612b91565b8114612de457600080fd5b50565b612df081612bdd565b8114612dfb57600080fd5b5056fea2646970667358221220ef422ae9404a5b37ba4779f7333925fca144550107d353d515c95df07866004464736f6c63430008000033a264697066735822122052c8946cf122aba3f342cf65fc07d56e79a7eb06b205b93e96cf361a6a817c2e64736f6c63430008000033",
  "immutableReferences": {},
  "source": "// SPDX-License-Identifier: MIT\r\npragma solidity >=0.8.0;\r\n\r\nimport \"@openzeppelin/contracts/token/ERC721/extensions/ERC721URIStorage.sol\"; \r\nimport \"@openzeppelin/contracts/access/Ownable.sol\";\r\nimport \"@openzeppelin/contracts/utils/Counters.sol\";\r\n\r\n\r\nlibrary MyMathlib{\r\n    function sqrt(uint num) public pure returns(uint){\r\n        uint start = 1;\r\n        uint end = num;\r\n        uint mid = start;\r\n        while(start < end){\r\n            mid = start + (end - start)/2;\r\n            if(mid * mid >= num){\r\n                end = mid;\r\n            }else{\r\n                start = mid+1;\r\n            }\r\n        }\r\n        return end;\r\n    }\r\n\r\n    function sum(uint[] memory arr) public pure returns (uint){\r\n        uint buf = 0;\r\n        for(uint i=0; i<arr.length; i++){\r\n            buf += arr[i];\r\n        }\r\n        return buf;\r\n    }\r\n}\r\n\r\n\r\ncontract Knitts{\r\n    address public organization = 0x79e6234Ff4E7DB556F916FeBcE9e52a68D0B8879;\r\n    address[] public Leagues;\r\n    uint public numLeagues=0;\r\n  \tmapping(address => address) public idToUser; \r\n\r\n    function createLeague(uint _entryFee, uint _numPlayers, uint _duration) public payable returns (address[] memory){\r\n        require(_entryFee * _numPlayers <= msg.value, \"Insufficient deposit\");\r\n        League newLeague = new League(msg.sender, msg.value, _entryFee, _numPlayers, _duration, address(this));\r\n        numLeagues += 1;\r\n        Leagues.push(address(newLeague));\r\n        return Leagues;\r\n    }\r\n\r\n\r\n    function register(address id, address userContract) public {\r\n        idToUser[id] = userContract;\r\n    }\r\n}\r\n\r\ncontract League{\r\n    using  MyMathlib for *;\r\n\r\n    //constant variables\r\n    address public organization;\r\n    address public knittsAddress;\r\n\r\n    //parameters\r\n    uint public entryFee;\r\n    uint public maxParticipants;\r\n    address public moderator;\r\n    uint public duration;\r\n    uint public deposit;\r\n\r\n    //contract variables\r\n    uint public numProjects=0;\r\n    address [] public participants;\r\n    bool public started=false;\r\n    bool public ended=false;\r\n    bool public distributed=false;\r\n    uint [] public points;\r\n    \r\n\r\n    struct project{\r\n\r\n        //parameters\r\n        string title;\r\n        string url;\r\n        string image;\r\n        address owner;\r\n        bytes[20][] description;\r\n\r\n        //variables\r\n        mapping(address => uint)investments;\r\n        address[] investors;\r\n        uint total_fund;\r\n    }\r\n\t\t\r\n    mapping(uint => project) projects;\r\n\r\n    constructor(address _moderator, uint _deposit, uint _entryFee, uint _maxParticipants, uint _duration, address _knittsAddress){\r\n        entryFee = _entryFee;\r\n        maxParticipants = _maxParticipants;\r\n        moderator = _moderator;\r\n        duration = _duration;\r\n        organization = _moderator; // for local testing\r\n        knittsAddress = _knittsAddress;\r\n        deposit = _deposit;\r\n    }\r\n\r\n    function submitIdea(string memory title, string memory url, string memory image, bytes[20][] memory description) external payable returns(uint){\r\n        require(msg.value >= entryFee, \"Insufficient entry fee\");\r\n        require(numProjects < maxParticipants, \"Maximum limit reached\");\r\n        project storage p = projects[numProjects++];\r\n        p.title = title;\r\n        p.url = url;\r\n        p.image = image;\r\n        p.owner = msg.sender;\r\n        p.description = description;\r\n        return numProjects;\r\n    }\r\n\r\n    function invest(uint projectId) external payable{\r\n        project storage p = projects[projectId];\r\n        if(p.investments[msg.sender] == 0){\r\n            p.investors.push(msg.sender);\r\n        }\r\n        p.total_fund += msg.value/1e12;\r\n        p.investments[msg.sender] += msg.value/1e12;\r\n        \r\n    }\r\n\r\n    function startLeague() external {\r\n        require(msg.sender == organization, \"only org\");\r\n        started=true;\r\n    }\r\n\r\n    function endLeague() external returns(uint[] memory){\r\n        require(msg.sender == organization, \"only org\");\r\n        ended=true;\r\n        payable(moderator).transfer(deposit);\r\n        getPoints();\r\n      \tuint total_points = points.sum();\r\n        uint averagePoints = total_points / numProjects;\r\n      \r\n      \tfor(uint i=0;i<numProjects; i++) {\r\n            Knitts _knitts = Knitts(knittsAddress);\r\n            address _userId = _knitts.idToUser(projects[i].owner);\r\n            User _user = User(_userId);\r\n            _user.addProject(projects[i].title, projects[i].url, projects[i].image, projects[i].description, points[i] , averagePoints, address(this) );\r\n        } \r\n        distribute(total_points);\r\n        return points;\r\n    }\r\n\r\n\r\n    function submissionDetails(uint projectId) external view returns(\r\n        string memory,\r\n        string memory,\r\n        string memory,\r\n        address, \r\n        bytes[20][] memory\r\n    )  {\r\n        project storage p  = projects[projectId];\r\n        return (p.title, p.url, p.image, p.owner, p.description);\r\n    }\r\n\r\n\r\n    function getPoints() internal returns(uint[] memory){\r\n        require(ended = true, \"the game has not ended\");\r\n        uint [] memory empty_points;\r\n        points = empty_points;\r\n        for(uint i=0; i < numProjects; i++){\r\n            uint buf = 0;\r\n            project storage p = projects[i];\r\n            for(uint j=0; j< p.investors.length; j++){\r\n                address inv = p.investors[j];\r\n                buf += (p.investments[inv]).sqrt();\r\n            }\r\n            points.push(buf * buf);\r\n        }\r\n        return points;\r\n    }\r\n\r\n    function distribute(uint total_points) internal {\r\n        require(msg.sender == organization, \"only organization\");\r\n        uint total_balance = address(this).balance;\r\n        \r\n        for(uint i=0; i<numProjects; i++){\r\n            project storage p  =  projects[i];\r\n            \r\n            payable(p.owner).transfer( (3*points[i]*total_balance)/(10*total_points) );\r\n\r\n            for(uint j=0; j<p.investors.length; j++){\r\n                address investor = p.investors[j];\r\n                Knitts _knitts = Knitts(knittsAddress);\r\n                address _userId = _knitts.idToUser(p.investors[j]);\r\n                User _user = User(_userId);\r\n                _user.split{value:(6 * points[i] * total_balance * p.investments[investor]) / (10 * total_points * p.total_fund)}();\r\n            }\r\n        }\r\n\r\n        payable(moderator).transfer(address(this).balance);\r\n\r\n    }\r\n\r\n    \r\n}\r\n\r\n\r\ncontract User {\r\n    string name;\r\n  \taddress id; //metamask address of corresponding user\r\n  \tuint numProjects=0;\r\n    address[] public NFTs_created;\r\n    bool public pending_nfts = false;\r\n    constructor( address _id, string memory _name ) {\r\n        name = _name;\r\n        id = _id;\r\n    }\r\n\r\n    struct project{\r\n        string title;\r\n        string url;\r\n        string image;\r\n            bytes[20][] description;\r\n            uint point;\r\n            uint average_point;\r\n            address submittedOn;\r\n    }\r\n\r\n        project[20] public projects;\r\n    \r\n    function addProject(string memory title, string memory url, string memory image, bytes[20][] memory description, uint point, uint average_point, address submittedOn) public {\r\n        project storage p = projects[numProjects++];\r\n        p.title = title;\r\n        p.url = url;\r\n        p.image = image;\r\n        p.description = description;\r\n        p.point = point;\r\n        p.average_point = average_point;\r\n        p.submittedOn = submittedOn;\r\n    }\r\n    \r\n\r\n    function createNFT(uint _bronze, uint price) public returns(address [] memory){\r\n        require(_bronze <= 10, \"You can create only 10 bronzes\");\r\n        require(pending_nfts == false, \"There are pending nfts still\");\r\n        require(msg.sender == id, \"wrong user account\");\r\n        for(uint i=0; i<_bronze; i++){\r\n            NFT new_nft = new NFT(id, \"Bronze\", \"B\", id, 'https://s3.envato.com/files/235568921/preview.jpg', 1, price);\r\n            NFTs_created.push(address(new_nft));\r\n        }\r\n        pending_nfts = true;\r\n        return NFTs_created;\r\n    }\r\n\r\n    function split() public payable {\r\n        uint value = (msg.value * 95) / 100;\r\n        if(pending_nfts){\r\n            for(uint i=0; i<NFTs_created.length; i++){\r\n                NFT nft = NFT(NFTs_created[i]);\r\n                payable(nft.ownerOf(1)).transfer((value)/10);\r\n            }\r\n            scratchNFTs();\r\n        }\r\n        \r\n        payable(id).transfer(address(this).balance);\r\n    }\r\n\r\n    function scratchNFTs() internal returns(uint){\r\n        uint rem = 0;\r\n        for(uint i=0; i<NFTs_created.length; i++){\r\n            NFT new_nft =  NFT(NFTs_created[i]);\r\n            rem = new_nft.scratchCard();\r\n        }\r\n        if(rem == 0){\r\n            pending_nfts = false;\r\n            address [] memory temp;\r\n            NFTs_created = temp;\r\n        }\r\n        return rem;\r\n    }\r\n  \r\n}\r\n\r\ncontract NFT is ERC721URIStorage, Ownable{\r\n    using Counters for Counters.Counter;\r\n    Counters.Counter private _tokenIds;\r\n    address nft_creator;\r\n    uint leaguesMore;\r\n    uint price;\r\n    uint newItemId;\r\n    constructor(address _creator, string memory _name, string memory _symbol, address _player, string memory _tokenURI, uint _leaguesMore, uint _price) ERC721(_name, _symbol){\r\n        nft_creator = _creator;\r\n        leaguesMore = _leaguesMore;\r\n        _tokenIds.increment();\r\n        newItemId = _tokenIds.current();\r\n        _mint(_player, newItemId);\r\n        _setTokenURI(newItemId, _tokenURI);\r\n        _approve(address(this), newItemId);\r\n        price = _price;\r\n    }\r\n\r\n    function scratchCard() public returns (uint){\r\n        require(leaguesMore > 0, \"expired\");\r\n        leaguesMore -= 1;\r\n        if(leaguesMore == 0){\r\n            _burn(1);\r\n        }\r\n        return leaguesMore;\r\n    }\r\n\r\n    function updatePrice(uint _price) external onlyOwner {\r\n        price = _price;\r\n    }\r\n\r\n    function buy() external payable {\r\n        require(msg.value >= price, \"costs more\");\r\n        address old_owner = ownerOf(newItemId);\r\n        _transfer(old_owner, address(this), newItemId);\r\n        _approve(msg.sender, newItemId);\r\n        payable(old_owner).transfer(address(this).balance);\r\n    } \r\n\r\n}\r\n\r\n",
  "sourcePath": "E:\\projects\\knitts\\back-end\\contracts\\League.sol",
  "compiler": {
    "name": "solc",
    "version": "0.8.0+commit.c7dfd78e.Emscripten.clang"
  },
  "schemaVersion": "3.4.3",
  "updatedAt": "2021-10-03T07:26:18.926Z",
  "devdoc": {
    "kind": "dev",
    "methods": {},
    "version": 1
  },
  "userdoc": {
    "kind": "user",
    "methods": {},
    "version": 1
  }
}