{
  "contractName": "User",
  "abi": [
    {
      "inputs": [
        {
          "internalType": "address",
          "name": "_id",
          "type": "address"
        },
        {
          "internalType": "string",
          "name": "_name",
          "type": "string"
        },
        {
          "internalType": "address",
          "name": "_organization",
          "type": "address"
        }
      ],
      "stateMutability": "nonpayable",
      "type": "constructor"
    },
    {
      "inputs": [
        {
          "internalType": "string",
          "name": "title",
          "type": "string"
        },
        {
          "internalType": "string",
          "name": "url",
          "type": "string"
        },
        {
          "internalType": "string",
          "name": "image",
          "type": "string"
        },
        {
          "internalType": "bytes[20][]",
          "name": "description",
          "type": "bytes[20][]"
        },
        {
          "internalType": "uint256",
          "name": "point",
          "type": "uint256"
        },
        {
          "internalType": "uint256",
          "name": "average_point",
          "type": "uint256"
        },
        {
          "internalType": "address",
          "name": "submittedOn",
          "type": "address"
        }
      ],
      "name": "addProject",
      "outputs": [],
      "stateMutability": "nonpayable",
      "type": "function"
    },
    {
      "inputs": [
        {
          "internalType": "uint256",
          "name": "value",
          "type": "uint256"
        },
        {
          "internalType": "bool",
          "name": "increase",
          "type": "bool"
        },
        {
          "internalType": "bool",
          "name": "deactivate",
          "type": "bool"
        }
      ],
      "name": "updateNFT",
      "outputs": [],
      "stateMutability": "nonpayable",
      "type": "function"
    },
    {
      "inputs": [
        {
          "internalType": "uint256",
          "name": "shares",
          "type": "uint256"
        },
        {
          "internalType": "uint256",
          "name": "numLeagues",
          "type": "uint256"
        }
      ],
      "name": "mintNFT",
      "outputs": [
        {
          "internalType": "address[]",
          "name": "",
          "type": "address[]"
        }
      ],
      "stateMutability": "nonpayable",
      "type": "function"
    },
    {
      "inputs": [],
      "name": "getNFTs",
      "outputs": [
        {
          "internalType": "address[]",
          "name": "",
          "type": "address[]"
        }
      ],
      "stateMutability": "view",
      "type": "function"
    },
    {
      "inputs": [],
      "name": "getDetails",
      "outputs": [
        {
          "components": [
            {
              "internalType": "string",
              "name": "title",
              "type": "string"
            },
            {
              "internalType": "string",
              "name": "url",
              "type": "string"
            },
            {
              "internalType": "string",
              "name": "image",
              "type": "string"
            },
            {
              "internalType": "bytes[20][]",
              "name": "description",
              "type": "bytes[20][]"
            },
            {
              "internalType": "uint256",
              "name": "point",
              "type": "uint256"
            },
            {
              "internalType": "uint256",
              "name": "average_point",
              "type": "uint256"
            },
            {
              "internalType": "address",
              "name": "submittedOn",
              "type": "address"
            }
          ],
          "internalType": "struct User.project[20]",
          "name": "",
          "type": "tuple[20]"
        }
      ],
      "stateMutability": "view",
      "type": "function"
    }
  ],
  "bytecode": "0x6080604052600060025560006004553480156200001b57600080fd5b5060405162002e8f38038062002e8f83398181016040528101906200004191906200021e565b816000908051906020019062000059929190620000e5565b5082600160006101000a81548173ffffffffffffffffffffffffffffffffffffffff021916908373ffffffffffffffffffffffffffffffffffffffff16021790555080600560006101000a81548173ffffffffffffffffffffffffffffffffffffffff021916908373ffffffffffffffffffffffffffffffffffffffff1602179055505050506200040c565b828054620000f3906200035e565b90600052602060002090601f01602090048101928262000117576000855562000163565b82601f106200013257805160ff191683800117855562000163565b8280016001018555821562000163579182015b828111156200016257825182559160200191906001019062000145565b5b50905062000172919062000176565b5090565b5b808211156200019157600081600090555060010162000177565b5090565b6000620001ac620001a684620002c1565b6200028d565b905082815260208101848484011115620001c557600080fd5b620001d284828562000328565b509392505050565b600081519050620001eb81620003f2565b92915050565b600082601f8301126200020357600080fd5b81516200021584826020860162000195565b91505092915050565b6000806000606084860312156200023457600080fd5b60006200024486828701620001da565b935050602084015167ffffffffffffffff8111156200026257600080fd5b6200027086828701620001f1565b92505060406200028386828701620001da565b9150509250925092565b6000604051905081810181811067ffffffffffffffff82111715620002b757620002b6620003c3565b5b8060405250919050565b600067ffffffffffffffff821115620002df57620002de620003c3565b5b601f19601f8301169050602081019050919050565b6000620003018262000308565b9050919050565b600073ffffffffffffffffffffffffffffffffffffffff82169050919050565b60005b83811015620003485780820151818401526020810190506200032b565b8381111562000358576000848401525b50505050565b600060028204905060018216806200037757607f821691505b602082108114156200038e576200038d62000394565b5b50919050565b7f4e487b7100000000000000000000000000000000000000000000000000000000600052602260045260246000fd5b7f4e487b7100000000000000000000000000000000000000000000000000000000600052604160045260246000fd5b620003fd81620002f4565b81146200040957600080fd5b50565b612a73806200041c6000396000f3fe60806040523480156200001157600080fd5b50600436106200005e5760003560e01c8063227212f214620000635780632b8bd3341462000085578063c48283ff14620000a5578063fbbf93a014620000db578063fbf7de8414620000fd575b600080fd5b6200006d6200011d565b6040516200007c9190620018e5565b60405180910390f35b620000a360048036038101906200009d919062001293565b620001ad565b005b620000c36004803603810190620000bd9190620012e9565b620003cf565b604051620000d29190620018e5565b60405180910390f35b620000e5620006a3565b604051620000f4919062001909565b60405180910390f35b6200011b600480360381019062000115919062001182565b62000a4f565b005b60606007805480602002602001604051908101604052809291908181526020018280548015620001a357602002820191906000526020600020905b8160009054906101000a900473ffffffffffffffffffffffffffffffffffffffff1673ffffffffffffffffffffffffffffffffffffffff168152602001906001019080831162000158575b5050505050905090565b60011515600660003373ffffffffffffffffffffffffffffffffffffffff1673ffffffffffffffffffffffffffffffffffffffff16815260200190815260200160002060009054906101000a900460ff1615151462000243576040517f08c379a00000000000000000000000000000000000000000000000000000000081526004016200023a906200194f565b60405180910390fd5b8115620002c1576064836003546200025c919062001bde565b1115620002a0576040517f08c379a0000000000000000000000000000000000000000000000000000000008152600401620002979062001993565b60405180910390fd5b8260036000828254620002b4919062001bde565b9250508190555062000325565b82600354101562000309576040517f08c379a00000000000000000000000000000000000000000000000000000000081526004016200030090620019b5565b60405180910390fd5b82600360008282546200031d919062001cd4565b925050819055505b8015620003ca576000600660003373ffffffffffffffffffffffffffffffffffffffff1673ffffffffffffffffffffffffffffffffffffffff16815260200190815260200160002060006101000a81548160ff02191690831515021790555060016004600082825462000399919062001cd4565b9250508190555060006004541415620003c95760608060079080519060200190620003c692919062000b75565b50505b5b505050565b60606000836064620003e2919062001c3b565b905060648185620003f4919062001c73565b141562000438576040517f08c379a00000000000000000000000000000000000000000000000000000000081526004016200042f906200192d565b60405180910390fd5b60006004541162000480576040517f08c379a0000000000000000000000000000000000000000000000000000000008152600401620004779062001971565b60405180910390fd5b600160009054906101000a900473ffffffffffffffffffffffffffffffffffffffff1673ffffffffffffffffffffffffffffffffffffffff163373ffffffffffffffffffffffffffffffffffffffff1614620004db57600080fd5b60005b8481101562000610576000600560009054906101000a900473ffffffffffffffffffffffffffffffffffffffff163030600160009054906101000a900473ffffffffffffffffffffffffffffffffffffffff16600160009054906101000a900473ffffffffffffffffffffffffffffffffffffffff16878a604051620005649062000c04565b62000576979695949392919062001868565b604051809103906000f08015801562000593573d6000803e3d6000fd5b5090506007819080600181540180825580915050600190039060005260206000200160009091909190916101000a81548173ffffffffffffffffffffffffffffffffffffffff021916908373ffffffffffffffffffffffffffffffffffffffff160217905550508080620006079062001dd4565b915050620004de565b5060078054806020026020016040519081016040528092919081815260200182805480156200069557602002820191906000526020600020905b8160009054906101000a900473ffffffffffffffffffffffffffffffffffffffff1673ffffffffffffffffffffffffffffffffffffffff16815260200190600101908083116200064a575b505050505091505092915050565b620006ad62000c12565b6008601480602002604051908101604052809291906000905b8282101562000a46578382600702016040518060e0016040529081600082018054620006f29062001d9e565b80601f0160208091040260200160405190810160405280929190818152602001828054620007209062001d9e565b8015620007715780601f10620007455761010080835404028352916020019162000771565b820191906000526020600020905b8154815290600101906020018083116200075357829003601f168201915b505050505081526020016001820180546200078c9062001d9e565b80601f0160208091040260200160405190810160405280929190818152602001828054620007ba9062001d9e565b80156200080b5780601f10620007df576101008083540402835291602001916200080b565b820191906000526020600020905b815481529060010190602001808311620007ed57829003601f168201915b50505050508152602001600282018054620008269062001d9e565b80601f0160208091040260200160405190810160405280929190818152602001828054620008549062001d9e565b8015620008a55780601f106200087957610100808354040283529160200191620008a5565b820191906000526020600020905b8154815290600101906020018083116200088757829003601f168201915b5050505050815260200160038201805480602002602001604051908101604052809291908181526020016000905b82821015620009c45783829060005260206000209060140201601480602002604051908101604052809291906000905b82821015620009b05783820180546200091c9062001d9e565b80601f01602080910402602001604051908101604052809291908181526020018280546200094a9062001d9e565b80156200099b5780601f106200096f576101008083540402835291602001916200099b565b820191906000526020600020905b8154815290600101906020018083116200097d57829003601f168201915b50505050508152602001906001019062000903565b5050505081526020019060010190620008d3565b50505050815260200160048201548152602001600582015481526020016006820160009054906101000a900473ffffffffffffffffffffffffffffffffffffffff1673ffffffffffffffffffffffffffffffffffffffff1673ffffffffffffffffffffffffffffffffffffffff168152505081526020019060010190620006c6565b50505050905090565b600060086002600081548092919062000a689062001dd4565b919050556014811062000aa4577f4e487b7100000000000000000000000000000000000000000000000000000000600052603260045260246000fd5b6007020190508781600001908051906020019062000ac492919062000c43565b508681600101908051906020019062000adf92919062000c43565b508581600201908051906020019062000afa92919062000c43565b508481600301908051906020019062000b1592919062000cd4565b50838160040181905550828160050181905550818160060160006101000a81548173ffffffffffffffffffffffffffffffffffffffff021916908373ffffffffffffffffffffffffffffffffffffffff1602179055505050505050505050565b82805482825590600052602060002090810192821562000bf1579160200282015b8281111562000bf05782518260006101000a81548173ffffffffffffffffffffffffffffffffffffffff021916908373ffffffffffffffffffffffffffffffffffffffff1602179055509160200191906001019062000b96565b5b50905062000c00919062000d39565b5090565b610b008062001f3e83390190565b6040518061028001604052806014905b62000c2c62000d58565b81526020019060019003908162000c225790505090565b82805462000c519062001d9e565b90600052602060002090601f01602090048101928262000c75576000855562000cc1565b82601f1062000c9057805160ff191683800117855562000cc1565b8280016001018555821562000cc1579182015b8281111562000cc057825182559160200191906001019062000ca3565b5b50905062000cd0919062000d39565b5090565b82805482825590600052602060002090601402810192821562000d26579160200282015b8281111562000d255782518290601462000d1492919062000dab565b509160200191906014019062000cf8565b5b50905062000d35919062000e05565b5090565b5b8082111562000d5457600081600090555060010162000d3a565b5090565b6040518060e00160405280606081526020016060815260200160608152602001606081526020016000815260200160008152602001600073ffffffffffffffffffffffffffffffffffffffff1681525090565b826014810192821562000df2579160200282015b8281111562000df157825182908051906020019062000de092919062000e2d565b509160200191906001019062000dbf565b5b50905062000e01919062000ebe565b5090565b5b8082111562000e29576000818162000e1f919062000ee6565b5060140162000e06565b5090565b82805462000e3b9062001d9e565b90600052602060002090601f01602090048101928262000e5f576000855562000eab565b82601f1062000e7a57805160ff191683800117855562000eab565b8280016001018555821562000eab579182015b8281111562000eaa57825182559160200191906001019062000e8d565b5b50905062000eba919062000d39565b5090565b5b8082111562000ee2576000818162000ed8919062000efb565b5060010162000ebf565b5090565b50806014019062000ef8919062000ebe565b50565b50805462000f099062001d9e565b6000825580601f1062000f1d575062000f3e565b601f01602090049060005260206000209081019062000f3d919062000d39565b5b50565b600062000f5862000f528462001a0b565b620019d7565b9050808382526020820190508260005b8581101562000f9c578135850162000f818882620010d0565b84526020840193506020830192505060018101905062000f68565b5050509392505050565b600062000fbd62000fb78462001a3a565b620019d7565b9050808260005b8581101562000ff8578135850162000fdd888262001111565b84526020840193506020830192505060018101905062000fc4565b5050509392505050565b600062001019620010138462001a63565b620019d7565b9050828152602081018484840111156200103257600080fd5b6200103f84828562001d59565b509392505050565b60006200105e620010588462001a96565b620019d7565b9050828152602081018484840111156200107757600080fd5b6200108484828562001d59565b509392505050565b6000813590506200109d8162001eef565b92915050565b600082601f830112620010b557600080fd5b8135620010c784826020860162000f41565b91505092915050565b600082601f830112620010e257600080fd5b6014620010f184828562000fa6565b91505092915050565b6000813590506200110b8162001f09565b92915050565b600082601f8301126200112357600080fd5b81356200113584826020860162001002565b91505092915050565b600082601f8301126200115057600080fd5b81356200116284826020860162001047565b91505092915050565b6000813590506200117c8162001f23565b92915050565b600080600080600080600060e0888a0312156200119e57600080fd5b600088013567ffffffffffffffff811115620011b957600080fd5b620011c78a828b016200113e565b975050602088013567ffffffffffffffff811115620011e557600080fd5b620011f38a828b016200113e565b965050604088013567ffffffffffffffff8111156200121157600080fd5b6200121f8a828b016200113e565b955050606088013567ffffffffffffffff8111156200123d57600080fd5b6200124b8a828b01620010a3565b94505060806200125e8a828b016200116b565b93505060a0620012718a828b016200116b565b92505060c0620012848a828b016200108c565b91505092959891949750929550565b600080600060608486031215620012a957600080fd5b6000620012b9868287016200116b565b9350506020620012cc86828701620010fa565b9250506040620012df86828701620010fa565b9150509250925092565b60008060408385031215620012fd57600080fd5b60006200130d858286016200116b565b925050602062001320858286016200116b565b9150509250929050565b600062001338838362001386565b60208301905092915050565b600062001352838362001493565b905092915050565b600062001368838362001595565b905092915050565b60006200137e838362001787565b905092915050565b620013918162001d0f565b82525050565b620013a28162001d0f565b82525050565b6000620013b58262001afd565b620013c1818562001b73565b9350620013ce8362001ac9565b8060005b8381101562001405578151620013e988826200132a565b9750620013f68362001b3f565b925050600181019050620013d2565b5085935050505092915050565b60006200141f8262001b08565b6200142b818562001b84565b9350836020820285016200143f8562001ad9565b8060005b858110156200148157848403895281516200145f858262001344565b94506200146c8362001b4c565b925060208a0199505060018101905062001443565b50829750879550505050505092915050565b6000620014a08262001b13565b620014ac818562001b95565b935083602082028501620014c08562001ae9565b8060005b85811015620015025784840389528151620014e085826200135a565b9450620014ed8362001b59565b925060208a01995050600181019050620014c4565b50829750879550505050505092915050565b6000620015218262001b1e565b6200152d818562001ba0565b935083602082028501620015418562001af3565b8060005b8581101562001583578484038952815162001561858262001370565b94506200156e8362001b66565b925060208a0199505060018101905062001545565b50829750879550505050505092915050565b6000620015a28262001b29565b620015ae818562001bab565b9350620015c081856020860162001d68565b620015cb8162001ede565b840191505092915050565b6000620015e38262001b34565b620015ef818562001bbc565b93506200160181856020860162001d68565b6200160c8162001ede565b840191505092915050565b60006200162660228362001bcd565b91507f7368617265732063616e206f6e6c79206265206120666163746f72206f66203160008301527f30300000000000000000000000000000000000000000000000000000000000006020830152604082019050919050565b60006200168e600d8362001bcd565b91507f4e6f742076616c6964204e4654000000000000000000000000000000000000006000830152602082019050919050565b6000620016d060208362001bcd565b91507f596f75206861766520756e736f6c64206d696e746564204e465473206c6566746000830152602082019050919050565b60006200171260178362001bcd565b91507f4d6178696d756d2070726f706f7274696f6e20736f6c640000000000000000006000830152602082019050919050565b60006200175460158362001bcd565b91507f4e6f7420656e6f7567682070726f706f7274696f6e00000000000000000000006000830152602082019050919050565b600060e0830160008301518482036000860152620017a68282620015d6565b91505060208301518482036020860152620017c28282620015d6565b91505060408301518482036040860152620017de8282620015d6565b91505060608301518482036060860152620017fa828262001412565b915050608083015162001811608086018262001846565b5060a08301516200182660a086018262001846565b5060c08301516200183b60c086018262001386565b508091505092915050565b620018518162001d4f565b82525050565b620018628162001d4f565b82525050565b600060e0820190506200187f600083018a62001397565b6200188e602083018962001397565b6200189d604083018862001397565b620018ac606083018762001397565b620018bb608083018662001397565b620018ca60a083018562001857565b620018d960c083018462001857565b98975050505050505050565b60006020820190508181036000830152620019018184620013a8565b905092915050565b6000602082019050818103600083015262001925818462001514565b905092915050565b60006020820190508181036000830152620019488162001617565b9050919050565b600060208201905081810360008301526200196a816200167f565b9050919050565b600060208201905081810360008301526200198c81620016c1565b9050919050565b60006020820190508181036000830152620019ae8162001703565b9050919050565b60006020820190508181036000830152620019d08162001745565b9050919050565b6000604051905081810181811067ffffffffffffffff8211171562001a015762001a0062001eaf565b5b8060405250919050565b600067ffffffffffffffff82111562001a295762001a2862001eaf565b5b602082029050602081019050919050565b600067ffffffffffffffff82111562001a585762001a5762001eaf565b5b602082029050919050565b600067ffffffffffffffff82111562001a815762001a8062001eaf565b5b601f19601f8301169050602081019050919050565b600067ffffffffffffffff82111562001ab45762001ab362001eaf565b5b601f19601f8301169050602081019050919050565b6000819050602082019050919050565b6000819050602082019050919050565b6000819050919050565b6000819050919050565b600081519050919050565b600081519050919050565b600060149050919050565b600060149050919050565b600081519050919050565b600081519050919050565b6000602082019050919050565b6000602082019050919050565b6000602082019050919050565b6000602082019050919050565b600082825260208201905092915050565b600082825260208201905092915050565b600081905092915050565b600081905092915050565b600082825260208201905092915050565b600082825260208201905092915050565b600082825260208201905092915050565b600062001beb8262001d4f565b915062001bf88362001d4f565b9250827fffffffffffffffffffffffffffffffffffffffffffffffffffffffffffffffff0382111562001c305762001c2f62001e22565b5b828201905092915050565b600062001c488262001d4f565b915062001c558362001d4f565b92508262001c685762001c6762001e51565b5b828204905092915050565b600062001c808262001d4f565b915062001c8d8362001d4f565b9250817fffffffffffffffffffffffffffffffffffffffffffffffffffffffffffffffff048311821515161562001cc95762001cc862001e22565b5b828202905092915050565b600062001ce18262001d4f565b915062001cee8362001d4f565b92508282101562001d045762001d0362001e22565b5b828203905092915050565b600062001d1c8262001d2f565b9050919050565b60008115159050919050565b600073ffffffffffffffffffffffffffffffffffffffff82169050919050565b6000819050919050565b82818337600083830152505050565b60005b8381101562001d8857808201518184015260208101905062001d6b565b8381111562001d98576000848401525b50505050565b6000600282049050600182168062001db757607f821691505b6020821081141562001dce5762001dcd62001e80565b5b50919050565b600062001de18262001d4f565b91507fffffffffffffffffffffffffffffffffffffffffffffffffffffffffffffffff82141562001e175762001e1662001e22565b5b600182019050919050565b7f4e487b7100000000000000000000000000000000000000000000000000000000600052601160045260246000fd5b7f4e487b7100000000000000000000000000000000000000000000000000000000600052601260045260246000fd5b7f4e487b7100000000000000000000000000000000000000000000000000000000600052602260045260246000fd5b7f4e487b7100000000000000000000000000000000000000000000000000000000600052604160045260246000fd5b6000601f19601f8301169050919050565b62001efa8162001d0f565b811462001f0657600080fd5b50565b62001f148162001d23565b811462001f2057600080fd5b50565b62001f2e8162001d4f565b811462001f3a57600080fd5b5056fe608060405234801561001057600080fd5b5060405162000b0038038062000b00833981810160405281019061003491906101d7565b866000806101000a81548173ffffffffffffffffffffffffffffffffffffffff021916908373ffffffffffffffffffffffffffffffffffffffff16021790555083600160006101000a81548173ffffffffffffffffffffffffffffffffffffffff021916908373ffffffffffffffffffffffffffffffffffffffff16021790555082600260006101000a81548173ffffffffffffffffffffffffffffffffffffffff021916908373ffffffffffffffffffffffffffffffffffffffff16021790555081600381905550806004819055506000600560006101000a81548160ff02191690831515021790555085600560016101000a81548173ffffffffffffffffffffffffffffffffffffffff021916908373ffffffffffffffffffffffffffffffffffffffff16021790555084600660006101000a81548173ffffffffffffffffffffffffffffffffffffffff021916908373ffffffffffffffffffffffffffffffffffffffff160217905550505050505050506102df565b6000815190506101bc816102b1565b92915050565b6000815190506101d1816102c8565b92915050565b600080600080600080600060e0888a0312156101f257600080fd5b60006102008a828b016101ad565b97505060206102118a828b016101ad565b96505060406102228a828b016101ad565b95505060606102338a828b016101ad565b94505060806102448a828b016101ad565b93505060a06102558a828b016101c2565b92505060c06102668a828b016101c2565b91505092959891949750929550565b600061028082610287565b9050919050565b600073ffffffffffffffffffffffffffffffffffffffff82169050919050565b6000819050919050565b6102ba81610275565b81146102c557600080fd5b50565b6102d1816102a7565b81146102dc57600080fd5b50565b61081180620002ef6000396000f3fe608060405234801561001057600080fd5b506004361061009e5760003560e01c80638da5cb5b116100665780638da5cb5b14610139578063c78ad77f14610157578063d05ad2b414610175578063eacaec2d14610193578063fbbf93a0146101b15761009e565b8063204de7a6146100a357806323bd4d7a146100c157806345653a6d146100df5780634c2067c7146100fd5780638c1867fe1461011b575b600080fd5b6100ab6101d3565b6040516100b89190610604565b60405180910390f35b6100c96101f9565b6040516100d69190610604565b60405180910390f35b6100e761021d565b6040516100f49190610604565b60405180910390f35b610105610243565b6040516101129190610672565b60405180910390f35b610123610256565b6040516101309190610604565b60405180910390f35b61014161027c565b60405161014e9190610604565b60405180910390f35b61015f6102a2565b60405161016c91906106cd565b60405180910390f35b61017d6102a8565b60405161018a91906106cd565b60405180910390f35b61019b6104b6565b6040516101a891906106cd565b60405180910390f35b6101b96104bc565b6040516101ca95949392919061061f565b60405180910390f35b600560019054906101000a900473ffffffffffffffffffffffffffffffffffffffff1681565b60008054906101000a900473ffffffffffffffffffffffffffffffffffffffff1681565b600160009054906101000a900473ffffffffffffffffffffffffffffffffffffffff1681565b600560009054906101000a900460ff1681565b600660009054906101000a900473ffffffffffffffffffffffffffffffffffffffff1681565b600260009054906101000a900473ffffffffffffffffffffffffffffffffffffffff1681565b60035481565b6000801515600560009054906101000a900460ff161515146102ff576040517f08c379a00000000000000000000000000000000000000000000000000000000081526004016102f6906106ad565b60405180910390fd5b600060045411610344576040517f08c379a000000000000000000000000000000000000000000000000000000000815260040161033b9061068d565b60405180910390fd5b60016004546103539190610730565b60048190555060006004541415610418576001600560006101000a81548160ff021916908315150217905550600560019054906101000a900473ffffffffffffffffffffffffffffffffffffffff1673ffffffffffffffffffffffffffffffffffffffff16632b8bd3346003546001806040518463ffffffff1660e01b81526004016103e1939291906106e8565b600060405180830381600087803b1580156103fb57600080fd5b505af115801561040f573d6000803e3d6000fd5b505050506104ae565b600560019054906101000a900473ffffffffffffffffffffffffffffffffffffffff1673ffffffffffffffffffffffffffffffffffffffff16632b8bd334600354600160006040518463ffffffff1660e01b815260040161047b939291906106e8565b600060405180830381600087803b15801561049557600080fd5b505af11580156104a9573d6000803e3d6000fd5b505050505b600354905090565b60045481565b6000806000806000600160009054906101000a900473ffffffffffffffffffffffffffffffffffffffff16600260009054906101000a900473ffffffffffffffffffffffffffffffffffffffff16600354600454600560009054906101000a900460ff16945094509450945094509091929394565b61053a81610764565b82525050565b61054981610776565b82525050565b600061055c602c8361071f565b91507f546865206d6178696d756d206e756d626572206f662067616d6573206861732060008301527f6265656e207265616368656400000000000000000000000000000000000000006020830152604082019050919050565b60006105c260148361071f565b91507f54686520636172642068617320657870697265640000000000000000000000006000830152602082019050919050565b6105fe816107a2565b82525050565b60006020820190506106196000830184610531565b92915050565b600060a0820190506106346000830188610531565b6106416020830187610531565b61064e60408301866105f5565b61065b60608301856105f5565b6106686080830184610540565b9695505050505050565b60006020820190506106876000830184610540565b92915050565b600060208201905081810360008301526106a68161054f565b9050919050565b600060208201905081810360008301526106c6816105b5565b9050919050565b60006020820190506106e260008301846105f5565b92915050565b60006060820190506106fd60008301866105f5565b61070a6020830185610540565b6107176040830184610540565b949350505050565b600082825260208201905092915050565b600061073b826107a2565b9150610746836107a2565b925082821015610759576107586107ac565b5b828203905092915050565b600061076f82610782565b9050919050565b60008115159050919050565b600073ffffffffffffffffffffffffffffffffffffffff82169050919050565b6000819050919050565b7f4e487b7100000000000000000000000000000000000000000000000000000000600052601160045260246000fdfea26469706673582212205d8fc18cfed12068e51261aff990d98d1bd88ef670012640146e3ec195df0b0d64736f6c63430008000033a2646970667358221220877a2273a607c30dc7a84232c47401b2dc6bdb21937829bac55582516c4104f264736f6c63430008000033",
  "immutableReferences": {},
  "source": "// SPDX-License-Identifier: MIT\r\npragma solidity >=0.8.0;\r\n\r\ncontract Knitts{\r\n    address organization = 0x79e6234Ff4E7DB556F916FeBcE9e52a68D0B8879;\r\n    address[] moderators;//change this to mapping mapping(address=>bool)\r\n    mapping(address=>bool) valid;\r\n    mapping(address => uint) deposits;\r\n    address[] Leagues;\r\n  \taddress[] Users;\r\n    uint maxDescLength = 1000;\r\n  \tmapping(address => address) idToUser; \r\n  \tmapping(address => bool) userExists;\r\n    function addModerator() public payable{\r\n        require(msg.value > 0, \"You should deposit some amount\");\r\n        moderators.push(msg.sender);\r\n        deposits[msg.sender] = msg.value;\r\n        valid[msg.sender]=true;\r\n    }\r\n\r\n    function depositMore() public payable{\r\n        require(msg.value > 0, \"You need to deposit some amount\");\r\n        deposits[msg.sender] += msg.value;\r\n    }\r\n\r\n    function createLeague(uint _entryFee, uint _numPlayers, uint _duration) public returns(address[] memory){\r\n        require(_entryFee * _numPlayers <= deposits[msg.sender], \"Insufficient deposit\");\r\n        League newLeague = new League(msg.sender, _entryFee, _numPlayers, _duration, address(this));\r\n        Leagues.push(address(newLeague));\r\n        return Leagues;\r\n    }\r\n\r\n    function getBalance(address _moderator) public view returns (uint){\r\n        return deposits[_moderator];\r\n    }\r\n\r\n    function getDetails() public view returns (address [] memory, address [] memory){\r\n        return (moderators, Leagues);\r\n    }\r\n\r\n    function removeModerator(address _moderator) public {\r\n        valid[_moderator] = false;\r\n    }\r\n  \r\n  \tfunction register(string memory _name) public returns (address) {\r\n        User newUser = new User(msg.sender, _name, organization);\r\n        userExists[msg.sender] = true;\r\n        idToUser[msg.sender] = address(newUser);\r\n        return address(newUser);\r\n    }\r\n  \r\n  \tfunction getUserContractAddress(address _id) public view returns(address) {\r\n        require(userExists[_id] == true,\"The user should exist\");\r\n        return idToUser[_id];\r\n    }\r\n}\r\n\r\ncontract League{\r\n    \r\n    address organization;\r\n    uint entryFee;\r\n    uint maxParticipants;\r\n    uint numProjects;\r\n    address [] participants;\r\n    address moderator;\r\n    uint duration;\r\n    bool started;\r\n    bool ended;\r\n    bool distributed;\r\n  \tuint total_points=0;\r\n    uint [] points;\r\n    address knittsAddress;\r\n\r\n    struct project{\r\n        string title;\r\n        string url;\r\n        string image;\r\n        address owner;\r\n        bytes[20][] description;\r\n        mapping(address => uint)investments;\r\n        address[] investors;\r\n        uint total_fund;\r\n    }\r\n\t\t\r\n    mapping(uint => project) projects;\r\n\r\n    constructor(address _moderator, uint _entryFee, uint _maxParticipants, uint _duration, address _knittsAddress){\r\n        entryFee = _entryFee;\r\n        maxParticipants = _maxParticipants;\r\n        moderator = _moderator;\r\n        duration = _duration;\r\n        numProjects = 0;\r\n        started=false;\r\n        ended=false;\r\n        distributed=false;\r\n        //organization = 0x79e6234Ff4E7DB556F916FeBcE9e52a68D0B8879; //for public net\r\n        organization = _moderator; // for local testing\r\n        knittsAddress = _knittsAddress;\r\n    }\r\n\r\n    function submitIdea(string memory title, string memory url, string memory image, bytes[20][] memory description) public payable returns(uint){\r\n        require(msg.value >= entryFee, \"Insufficient entry fee\");\r\n        require(numProjects < maxParticipants, \"Maximum limit reached\");\r\n        project storage p = projects[numProjects++];\r\n        p.title = title;\r\n        p.url = url;\r\n        p.image = image;\r\n        p.owner = msg.sender;\r\n        p.description = description;\r\n        return numProjects;\r\n    }\r\n\r\n    function invest(uint projectId) public payable{\r\n        require(projectId < numProjects, \"Invalid project id\");\r\n        if(projects[projectId].investments[msg.sender] == 0){\r\n            projects[projectId].investors.push(msg.sender);\r\n        }\r\n        projects[projectId].total_fund += msg.value/1e12;\r\n        projects[projectId].investments[msg.sender] += msg.value/1e12;\r\n        \r\n    }\r\n\r\n    function startLeague() public{\r\n        require(msg.sender == moderator, \"only moderator can start the league\");\r\n        started=true;\r\n    }\r\n\r\n    function endLeague() public returns(uint[] memory){\r\n        require(msg.sender == organization, \"only organization can end the league\");\r\n        ended=true;\r\n        getPoints();\r\n      \t\r\n      \tfor(uint i=0; i<numProjects; i++){\r\n            total_points += points[i];\r\n        }\r\n\r\n        uint averagePoints = total_points / numProjects;\r\n      \r\n      \tfor(uint i=0;i<numProjects; i++) {\r\n            Knitts _knitts = Knitts(knittsAddress);\r\n            address _userId = _knitts.getUserContractAddress(projects[i].owner);\r\n            User _user = User(_userId);\r\n            _user.addProject(projects[i].title, projects[i].url, projects[i].image, projects[i].description, points[i] , averagePoints, address(this) );\r\n        } \r\n\r\n        return points;\r\n    }\r\n\r\n    function getPoints() private returns(uint[] memory){\r\n        require(ended = true, \"the game has not ended\");\r\n        uint [] memory empty_points;\r\n        points = empty_points;\r\n        // require(msg.sender == organization, \"only organization get the points\");\r\n        // write quadratic funding code here\r\n        for(uint i=0; i < numProjects; i++){\r\n            uint sum = 0;\r\n            for(uint j=0; j<projects[i].investors.length; j++){\r\n                address investor = projects[i].investors[j];\r\n                sum += sqrt(projects[i].investments[investor]);\r\n            }\r\n            uint point = sum * sum;\r\n            points.push(point);\r\n        }\r\n      \t\r\n        \r\n        return points;\r\n    }\r\n\r\n    function distribute() public {\r\n        require(msg.sender == organization, \"only organization can distribute prizes\");\r\n        uint total_balance = address(this).balance;\r\n        \r\n        for(uint i=0; i<numProjects; i++){\r\n            project storage p  =  projects[i];\r\n            \r\n            payable(p.owner).transfer( (3*points[i]*total_balance)/(10*total_points) );\r\n\r\n            for(uint j=0; j<p.investors.length; j++){\r\n                address investor = p.investors[j];\r\n                 Knitts _knitts = Knitts(knittsAddress);\r\n                address _userId = _knitts.getUserContractAddress(investor);\r\n                User _user = User(_userId);\r\n                address [] memory NFTs = _user.getNFTs();\r\n                \r\n                if(NFTs.length == 0){\r\n                    uint value = (6 * points[i] * total_balance * p.investments[investor]) / (10 * total_points * p.total_fund);\r\n                    payable(investor).transfer( value );\r\n                }\r\n                else{\r\n                    for(uint k = 0; k < NFTs.length; k++){\r\n                        NFT nft = NFT(NFTs[k]);\r\n                        uint value = (6 * points[i] * total_balance * p.investments[investor] * nft.percentage()) / (10 * total_points * p.total_fund * 100);\r\n                        payable(nft.owner()).transfer(value);\r\n                        nft.strikeNFT();\r\n                    }\r\n                }\r\n                \r\n            }\r\n        }\r\n\r\n        payable(moderator).transfer(address(this).balance);\r\n\r\n    }\r\n\r\n    function getDetails() public view returns(\r\n        address,//moderator\r\n        uint,//entry fee\r\n        uint,//maxParticipants\r\n        bool, //started\r\n        bool, //ended\r\n        bool //distributed\r\n    ){\r\n        return (moderator, entryFee, maxParticipants, started, ended, distributed);\r\n    }\r\n\r\n    function submissionDetails(uint projectId) public view returns(\r\n        address, // project owner\r\n        bytes[20][] memory // description\r\n    )  {\r\n        return (projects[projectId].owner, projects[projectId].description);\r\n    }\r\n\r\n    function sqrt(uint num) public pure returns(uint){\r\n        uint start = 1;\r\n        uint end = num;\r\n        uint mid = start;\r\n        while(start < end){\r\n            mid = start + (end - start)/2;\r\n            if(mid * mid >= num){\r\n                end = mid;\r\n            }else{\r\n                start = mid+1;\r\n            }\r\n        }\r\n        return end;\r\n    }\r\n}\r\n\r\n\r\ncontract User {\r\n  string name;\r\n  address id; //metamask address of corresponding user\r\n  uint numProjects=0;\r\n  uint percentageNFTSold;\r\n  uint NFTsPending = 0;\r\n  address organization;\r\n  mapping(address=>bool) validNFT;\r\n\r\n  address[] NFTs;\r\n  constructor( address _id, string memory _name, address _organization ) {\r\n  \tname = _name;\r\n    id = _id;\r\n    organization = _organization;\r\n  }\r\n  \r\n  \r\n  struct project{\r\n      string title;\r\n      string url;\r\n      string image;\r\n        bytes[20][] description;\r\n        uint point;\r\n        uint average_point;\r\n        address submittedOn;\r\n  }\r\n\t// mapping(uint => project) projects;\r\n\r\n    project[20] projects;\r\n  \r\n  function addProject(string memory title, string memory url, string memory image, bytes[20][] memory description, uint point, uint average_point, address submittedOn) public {\r\n    project storage p = projects[numProjects++];\r\n    p.title = title;\r\n    p.url = url;\r\n    p.image = image;\r\n    p.description = description;\r\n    p.point = point;\r\n    p.average_point = average_point;\r\n    p.submittedOn = submittedOn;\r\n  }\r\n\r\n  function updateNFT(uint value, bool increase, bool deactivate) public {\r\n      require(validNFT[msg.sender] == true, \"Not valid NFT\");\r\n      if(increase){\r\n          require(percentageNFTSold + value <= 100, \"Maximum proportion sold\");\r\n          percentageNFTSold += value;\r\n      }else{\r\n          require(percentageNFTSold >= value, \"Not enough proportion\");\r\n          percentageNFTSold -= value;\r\n      }\r\n      if(deactivate){\r\n          validNFT[msg.sender] = false;\r\n          NFTsPending-=1;\r\n          if(NFTsPending ==0){\r\n            address [] memory NFTsUtil;\r\n            NFTs = NFTsUtil;\r\n          }\r\n          \r\n      }\r\n  }\r\n\r\n  function mintNFT(uint shares, uint numLeagues) public returns (address[] memory){\r\n      uint percentageEachShare = 100/shares;\r\n      require(shares * percentageEachShare != 100, \"shares can only be a factor of 100\");\r\n      require(NFTsPending > 0, \"You have unsold minted NFTs left\");\r\n      require(msg.sender == id);\r\n      for(uint i=0; i<shares; i++){\r\n          NFT newNFT = new NFT(organization, address(this), address(this), id, id, percentageEachShare, numLeagues);\r\n          NFTs.push(address(newNFT));\r\n      }\r\n      return NFTs;\r\n  }\r\n\r\n  function getNFTs() public view returns (address[] memory){\r\n      return NFTs;\r\n  }\r\n  \r\n  function getDetails() public view returns (project[20] memory){\r\n    \treturn projects;\r\n  }\r\n  \r\n}\r\n\r\n\r\ncontract NFT{\r\n    address public organization;\r\n    address public creater;\r\n    address public owner;\r\n    uint public percentage;\r\n    uint public gamesRemaining;\r\n    bool public expired;\r\n    address public createrContractId;\r\n    address public ownerContractId;\r\n\r\n    constructor(address _organization, address _createrContractId, address _ownerContractId, address _creater, address _owner, uint _percentage, uint _gamesRemaining){\r\n        organization = _organization;\r\n        creater = _creater;\r\n        owner = _owner;\r\n        percentage = _percentage;\r\n        gamesRemaining = _gamesRemaining;\r\n        expired = false;\r\n        createrContractId = _createrContractId;\r\n        ownerContractId = _ownerContractId;\r\n    }\r\n\r\n    function getDetails() public view returns(address, address, uint, uint, bool){\r\n        return (creater, owner, percentage, gamesRemaining, expired);\r\n    }\r\n\r\n    function strikeNFT() public returns (uint){\r\n        // require(msg.sender == organization, \"only organization can strikeNFT\");\r\n        require(expired == false, \"The card has expired\");\r\n        require(gamesRemaining > 0, \"The maximum number of games has been reached\");\r\n        gamesRemaining = gamesRemaining-1;\r\n        if(gamesRemaining == 0){\r\n            expired = true;\r\n            User(createrContractId).updateNFT(percentage, true, true);\r\n        }else{\r\n            User(createrContractId).updateNFT(percentage, true, false);\r\n        }\r\n        return percentage;\r\n    }\r\n\r\n}\r\n\r\n\r\n\r\n\r\n\r\n\r\n\r\n\r\n\r\n\r\n\r\n\r\n\r\n\r\n",
  "sourcePath": "E:\\projects\\knitts\\back-end\\contracts\\League.sol",
  "compiler": {
    "name": "solc",
    "version": "0.8.0+commit.c7dfd78e.Emscripten.clang"
  },
  "schemaVersion": "3.4.3",
  "updatedAt": "2021-09-30T10:09:34.325Z",
  "devdoc": {
    "kind": "dev",
    "methods": {},
    "version": 1
  },
  "userdoc": {
    "kind": "user",
    "methods": {},
    "version": 1
  }
}