{
  "contractName": "User",
  "abi": [
    {
      "inputs": [
        {
          "internalType": "address",
          "name": "_id",
          "type": "address"
        },
        {
          "internalType": "string",
          "name": "_name",
          "type": "string"
        }
      ],
      "stateMutability": "nonpayable",
      "type": "constructor"
    },
    {
      "inputs": [
        {
          "internalType": "uint256",
          "name": "",
          "type": "uint256"
        }
      ],
      "name": "NFTs_created",
      "outputs": [
        {
          "internalType": "address",
          "name": "",
          "type": "address"
        }
      ],
      "stateMutability": "view",
      "type": "function",
      "constant": true
    },
    {
      "inputs": [],
      "name": "pending_nfts",
      "outputs": [
        {
          "internalType": "bool",
          "name": "",
          "type": "bool"
        }
      ],
      "stateMutability": "view",
      "type": "function",
      "constant": true
    },
    {
      "inputs": [
        {
          "internalType": "uint256",
          "name": "",
          "type": "uint256"
        }
      ],
      "name": "projects",
      "outputs": [
        {
          "internalType": "string",
          "name": "title",
          "type": "string"
        },
        {
          "internalType": "string",
          "name": "url",
          "type": "string"
        },
        {
          "internalType": "string",
          "name": "image",
          "type": "string"
        },
        {
          "internalType": "uint256",
          "name": "point",
          "type": "uint256"
        },
        {
          "internalType": "uint256",
          "name": "average_point",
          "type": "uint256"
        },
        {
          "internalType": "address",
          "name": "submittedOn",
          "type": "address"
        }
      ],
      "stateMutability": "view",
      "type": "function",
      "constant": true
    },
    {
      "inputs": [
        {
          "internalType": "string",
          "name": "title",
          "type": "string"
        },
        {
          "internalType": "string",
          "name": "url",
          "type": "string"
        },
        {
          "internalType": "string",
          "name": "image",
          "type": "string"
        },
        {
          "internalType": "bytes[20][]",
          "name": "description",
          "type": "bytes[20][]"
        },
        {
          "internalType": "uint256",
          "name": "point",
          "type": "uint256"
        },
        {
          "internalType": "uint256",
          "name": "average_point",
          "type": "uint256"
        },
        {
          "internalType": "address",
          "name": "submittedOn",
          "type": "address"
        }
      ],
      "name": "addProject",
      "outputs": [],
      "stateMutability": "nonpayable",
      "type": "function"
    },
    {
      "inputs": [
        {
          "internalType": "uint256",
          "name": "_bronze",
          "type": "uint256"
        }
      ],
      "name": "createNFT",
      "outputs": [
        {
          "internalType": "address[]",
          "name": "",
          "type": "address[]"
        }
      ],
      "stateMutability": "nonpayable",
      "type": "function"
    },
    {
      "inputs": [],
      "name": "split",
      "outputs": [],
      "stateMutability": "payable",
      "type": "function",
      "payable": true
    }
  ],
  "bytecode": "0x608060405260006002556000600460006101000a81548160ff0219169083151502179055503480156200003157600080fd5b5060405162005633380380620056338339818101604052810190620000579190620001f2565b80600090805190602001906200006f929190620000b9565b5081600160006101000a81548173ffffffffffffffffffffffffffffffffffffffff021916908373ffffffffffffffffffffffffffffffffffffffff1602179055505050620003cb565b828054620000c7906200031d565b90600052602060002090601f016020900481019282620000eb576000855562000137565b82601f106200010657805160ff191683800117855562000137565b8280016001018555821562000137579182015b828111156200013657825182559160200191906001019062000119565b5b5090506200014691906200014a565b5090565b5b80821115620001655760008160009055506001016200014b565b5090565b6000620001806200017a8462000280565b6200024c565b9050828152602081018484840111156200019957600080fd5b620001a6848285620002e7565b509392505050565b600081519050620001bf81620003b1565b92915050565b600082601f830112620001d757600080fd5b8151620001e984826020860162000169565b91505092915050565b600080604083850312156200020657600080fd5b60006200021685828601620001ae565b925050602083015167ffffffffffffffff8111156200023457600080fd5b6200024285828601620001c5565b9150509250929050565b6000604051905081810181811067ffffffffffffffff8211171562000276576200027562000382565b5b8060405250919050565b600067ffffffffffffffff8211156200029e576200029d62000382565b5b601f19601f8301169050602081019050919050565b6000620002c082620002c7565b9050919050565b600073ffffffffffffffffffffffffffffffffffffffff82169050919050565b60005b8381101562000307578082015181840152602081019050620002ea565b8381111562000317576000848401525b50505050565b600060028204905060018216806200033657607f821691505b602082108114156200034d576200034c62000353565b5b50919050565b7f4e487b7100000000000000000000000000000000000000000000000000000000600052602260045260246000fd5b7f4e487b7100000000000000000000000000000000000000000000000000000000600052604160045260246000fd5b620003bc81620002b3565b8114620003c857600080fd5b50565b61525880620003db6000396000f3fe6080604052600436106200005c5760003560e01c8063107046bd14620000615780639649215514620000aa578063f765417614620000ee578063f8d3bc3b14620000fa578063fbf7de84146200012a578063fd9de1771462000158575b600080fd5b3480156200006e57600080fd5b506200008d600480360381019062000087919062001283565b6200019c565b604051620000a1969594939291906200169e565b60405180910390f35b348015620000b757600080fd5b50620000d66004803603810190620000d0919062001283565b620003af565b604051620000e5919062001640565b60405180910390f35b620000f86200069c565b005b3480156200010757600080fd5b5062000112620008c4565b60405162000121919062001664565b60405180910390f35b3480156200013757600080fd5b5062000156600480360381019062000150919062001172565b620008d7565b005b3480156200016557600080fd5b506200018460048036038101906200017e919062001283565b620009fd565b604051620001939190620015a7565b60405180910390f35b60058160148110620001ad57600080fd5b60070201600091509050806000018054620001c89062001a09565b80601f0160208091040260200160405190810160405280929190818152602001828054620001f69062001a09565b8015620002475780601f106200021b5761010080835404028352916020019162000247565b820191906000526020600020905b8154815290600101906020018083116200022957829003601f168201915b5050505050908060010180546200025e9062001a09565b80601f01602080910402602001604051908101604052809291908181526020018280546200028c9062001a09565b8015620002dd5780601f10620002b157610100808354040283529160200191620002dd565b820191906000526020600020905b815481529060010190602001808311620002bf57829003601f168201915b505050505090806002018054620002f49062001a09565b80601f0160208091040260200160405190810160405280929190818152602001828054620003229062001a09565b8015620003735780601f10620003475761010080835404028352916020019162000373565b820191906000526020600020905b8154815290600101906020018083116200035557829003601f168201915b5050505050908060040154908060050154908060060160009054906101000a900473ffffffffffffffffffffffffffffffffffffffff16905086565b6060600a821115620003f8576040517f08c379a0000000000000000000000000000000000000000000000000000000008152600401620003ef9062001764565b60405180910390fd5b60001515600460009054906101000a900460ff1615151462000451576040517f08c379a0000000000000000000000000000000000000000000000000000000008152600401620004489062001742565b60405180910390fd5b600160009054906101000a900473ffffffffffffffffffffffffffffffffffffffff1673ffffffffffffffffffffffffffffffffffffffff163373ffffffffffffffffffffffffffffffffffffffff1614620004e4576040517f08c379a0000000000000000000000000000000000000000000000000000000008152600401620004db9062001720565b60405180910390fd5b60005b82811015620005f0576000600160009054906101000a900473ffffffffffffffffffffffffffffffffffffffff16600160009054906101000a900473ffffffffffffffffffffffffffffffffffffffff166001604051620005489062000ba6565b6200055693929190620015c4565b604051809103906000f08015801562000573573d6000803e3d6000fd5b5090506003819080600181540180825580915050600190039060005260206000200160009091909190916101000a81548173ffffffffffffffffffffffffffffffffffffffff021916908373ffffffffffffffffffffffffffffffffffffffff160217905550508080620005e79062001a3f565b915050620004e7565b506001600460006101000a81548160ff02191690831515021790555060038054806020026020016040519081016040528092919081815260200182805480156200069057602002820191906000526020600020905b8160009054906101000a900473ffffffffffffffffffffffffffffffffffffffff1673ffffffffffffffffffffffffffffffffffffffff168152602001906001019080831162000645575b50505050509050919050565b60006064605f34620006af919062001905565b620006bb9190620018cd565b9050600460009054906101000a900460ff1615620008575760005b6003805490508110156200084a5760006003828154811062000721577f4e487b7100000000000000000000000000000000000000000000000000000000600052603260045260246000fd5b9060005260206000200160009054906101000a900473ffffffffffffffffffffffffffffffffffffffff1690508073ffffffffffffffffffffffffffffffffffffffff16636352211e60016040518263ffffffff1660e01b81526004016200078a919062001681565b60206040518083038186803b158015620007a357600080fd5b505afa158015620007b8573d6000803e3d6000fd5b505050506040513d601f19601f82011682018060405250810190620007de919062001146565b73ffffffffffffffffffffffffffffffffffffffff166108fc600a85620008069190620018cd565b9081150290604051600060405180830381858888f1935050505015801562000832573d6000803e3d6000fd5b50508080620008419062001a3f565b915050620006d6565b506200085562000a3d565b505b600160009054906101000a900473ffffffffffffffffffffffffffffffffffffffff1673ffffffffffffffffffffffffffffffffffffffff166108fc479081150290604051600060405180830381858888f19350505050158015620008c0573d6000803e3d6000fd5b5050565b600460009054906101000a900460ff1681565b6000600560026000815480929190620008f09062001a3f565b91905055601481106200092c577f4e487b7100000000000000000000000000000000000000000000000000000000600052603260045260246000fd5b600702019050878160000190805190602001906200094c92919062000bb4565b50868160010190805190602001906200096792919062000bb4565b50858160020190805190602001906200098292919062000bb4565b50848160030190805190602001906200099d92919062000c45565b50838160040181905550828160050181905550818160060160006101000a81548173ffffffffffffffffffffffffffffffffffffffff021916908373ffffffffffffffffffffffffffffffffffffffff1602179055505050505050505050565b6003818154811062000a0e57600080fd5b906000526020600020016000915054906101000a900473ffffffffffffffffffffffffffffffffffffffff1681565b6000806000905060005b60038054905081101562000b5c5760006003828154811062000a92577f4e487b7100000000000000000000000000000000000000000000000000000000600052603260045260246000fd5b9060005260206000200160009054906101000a900473ffffffffffffffffffffffffffffffffffffffff1690508073ffffffffffffffffffffffffffffffffffffffff1663991a409b6040518163ffffffff1660e01b8152600401602060405180830381600087803b15801562000b0857600080fd5b505af115801562000b1d573d6000803e3d6000fd5b505050506040513d601f19601f8201168201806040525081019062000b439190620012af565b925050808062000b539062001a3f565b91505062000a47565b50600081141562000b9f576000600460006101000a81548160ff0219169083151502179055506060806003908051906020019062000b9c92919062000caa565b50505b8091505090565b6136948062001b8f83390190565b82805462000bc29062001a09565b90600052602060002090601f01602090048101928262000be6576000855562000c32565b82601f1062000c0157805160ff191683800117855562000c32565b8280016001018555821562000c32579182015b8281111562000c3157825182559160200191906001019062000c14565b5b50905062000c41919062000d39565b5090565b82805482825590600052602060002090601402810192821562000c97579160200282015b8281111562000c965782518290601462000c8592919062000d58565b509160200191906014019062000c69565b5b50905062000ca6919062000db2565b5090565b82805482825590600052602060002090810192821562000d26579160200282015b8281111562000d255782518260006101000a81548173ffffffffffffffffffffffffffffffffffffffff021916908373ffffffffffffffffffffffffffffffffffffffff1602179055509160200191906001019062000ccb565b5b50905062000d35919062000d39565b5090565b5b8082111562000d5457600081600090555060010162000d3a565b5090565b826014810192821562000d9f579160200282015b8281111562000d9e57825182908051906020019062000d8d92919062000dda565b509160200191906001019062000d6c565b5b50905062000dae919062000e6b565b5090565b5b8082111562000dd6576000818162000dcc919062000e93565b5060140162000db3565b5090565b82805462000de89062001a09565b90600052602060002090601f01602090048101928262000e0c576000855562000e58565b82601f1062000e2757805160ff191683800117855562000e58565b8280016001018555821562000e58579182015b8281111562000e5757825182559160200191906001019062000e3a565b5b50905062000e67919062000d39565b5090565b5b8082111562000e8f576000818162000e85919062000ea8565b5060010162000e6c565b5090565b50806014019062000ea5919062000e6b565b50565b50805462000eb69062001a09565b6000825580601f1062000eca575062000eeb565b601f01602090049060005260206000209081019062000eea919062000d39565b5b50565b600062000f0562000eff84620017ba565b62001786565b9050808382526020820190508260005b8581101562000f49578135850162000f2e888262001094565b84526020840193506020830192505060018101905062000f15565b5050509392505050565b600062000f6a62000f6484620017e9565b62001786565b9050808260005b8581101562000fa5578135850162000f8a8882620010be565b84526020840193506020830192505060018101905062000f71565b5050509392505050565b600062000fc662000fc08462001812565b62001786565b90508281526020810184848401111562000fdf57600080fd5b62000fec848285620019c4565b509392505050565b60006200100b620010058462001845565b62001786565b9050828152602081018484840111156200102457600080fd5b62001031848285620019c4565b509392505050565b6000813590506200104a8162001b5a565b92915050565b600081519050620010618162001b5a565b92915050565b600082601f8301126200107957600080fd5b81356200108b84826020860162000eee565b91505092915050565b600082601f830112620010a657600080fd5b6014620010b584828562000f53565b91505092915050565b600082601f830112620010d057600080fd5b8135620010e284826020860162000faf565b91505092915050565b600082601f830112620010fd57600080fd5b81356200110f84826020860162000ff4565b91505092915050565b600081359050620011298162001b74565b92915050565b600081519050620011408162001b74565b92915050565b6000602082840312156200115957600080fd5b6000620011698482850162001050565b91505092915050565b600080600080600080600060e0888a0312156200118e57600080fd5b600088013567ffffffffffffffff811115620011a957600080fd5b620011b78a828b01620010eb565b975050602088013567ffffffffffffffff811115620011d557600080fd5b620011e38a828b01620010eb565b965050604088013567ffffffffffffffff8111156200120157600080fd5b6200120f8a828b01620010eb565b955050606088013567ffffffffffffffff8111156200122d57600080fd5b6200123b8a828b0162001067565b94505060806200124e8a828b0162001118565b93505060a0620012618a828b0162001118565b92505060c0620012748a828b0162001039565b91505092959891949750929550565b6000602082840312156200129657600080fd5b6000620012a68482850162001118565b91505092915050565b600060208284031215620012c257600080fd5b6000620012d2848285016200112f565b91505092915050565b6000620012e98383620012f5565b60208301905092915050565b620013008162001966565b82525050565b620013118162001966565b82525050565b6000620013248262001888565b620013308185620018ab565b93506200133d8362001878565b8060005b8381101562001374578151620013588882620012db565b975062001365836200189e565b92505060018101905062001341565b5085935050505092915050565b6200138c816200197a565b82525050565b6200139d81620019b0565b82525050565b6000620013b08262001893565b620013bc8185620018bc565b9350620013ce818560208601620019d3565b620013d98162001b49565b840191505092915050565b6000620013f3600183620018bc565b91507f42000000000000000000000000000000000000000000000000000000000000006000830152602082019050919050565b600062001435600683620018bc565b91507f42726f6e7a6500000000000000000000000000000000000000000000000000006000830152602082019050919050565b600062001477601283620018bc565b91507f77726f6e672075736572206163636f756e7400000000000000000000000000006000830152602082019050919050565b6000620014b9603183620018bc565b91507f68747470733a2f2f73332e656e7661746f2e636f6d2f66696c65732f3233353560008301527f36383932312f707265766965772e6a70670000000000000000000000000000006020830152604082019050919050565b600062001521601c83620018bc565b91507f5468657265206172652070656e64696e67206e667473207374696c6c000000006000830152602082019050919050565b600062001563601e83620018bc565b91507f596f752063616e20637265617465206f6e6c792031302062726f6e7a657300006000830152602082019050919050565b620015a181620019a6565b82525050565b6000602082019050620015be600083018462001306565b92915050565b600060c082019050620015db600083018662001306565b8181036020830152620015ee8162001426565b905081810360408301526200160381620013e4565b905062001614606083018562001306565b81810360808301526200162781620014aa565b90506200163860a083018462001392565b949350505050565b600060208201905081810360008301526200165c818462001317565b905092915050565b60006020820190506200167b600083018462001381565b92915050565b600060208201905062001698600083018462001392565b92915050565b600060c0820190508181036000830152620016ba8189620013a3565b90508181036020830152620016d08188620013a3565b90508181036040830152620016e68187620013a3565b9050620016f7606083018662001596565b62001706608083018562001596565b6200171560a083018462001306565b979650505050505050565b600060208201905081810360008301526200173b8162001468565b9050919050565b600060208201905081810360008301526200175d8162001512565b9050919050565b600060208201905081810360008301526200177f8162001554565b9050919050565b6000604051905081810181811067ffffffffffffffff82111715620017b057620017af62001b1a565b5b8060405250919050565b600067ffffffffffffffff821115620017d857620017d762001b1a565b5b602082029050602081019050919050565b600067ffffffffffffffff82111562001807576200180662001b1a565b5b602082029050919050565b600067ffffffffffffffff82111562001830576200182f62001b1a565b5b601f19601f8301169050602081019050919050565b600067ffffffffffffffff82111562001863576200186262001b1a565b5b601f19601f8301169050602081019050919050565b6000819050602082019050919050565b600081519050919050565b600081519050919050565b6000602082019050919050565b600082825260208201905092915050565b600082825260208201905092915050565b6000620018da82620019a6565b9150620018e783620019a6565b925082620018fa57620018f962001abc565b5b828204905092915050565b60006200191282620019a6565b91506200191f83620019a6565b9250817fffffffffffffffffffffffffffffffffffffffffffffffffffffffffffffffff04831182151516156200195b576200195a62001a8d565b5b828202905092915050565b6000620019738262001986565b9050919050565b60008115159050919050565b600073ffffffffffffffffffffffffffffffffffffffff82169050919050565b6000819050919050565b6000620019bd82620019a6565b9050919050565b82818337600083830152505050565b60005b83811015620019f3578082015181840152602081019050620019d6565b8381111562001a03576000848401525b50505050565b6000600282049050600182168062001a2257607f821691505b6020821081141562001a395762001a3862001aeb565b5b50919050565b600062001a4c82620019a6565b91507fffffffffffffffffffffffffffffffffffffffffffffffffffffffffffffffff82141562001a825762001a8162001a8d565b5b600182019050919050565b7f4e487b7100000000000000000000000000000000000000000000000000000000600052601160045260246000fd5b7f4e487b7100000000000000000000000000000000000000000000000000000000600052601260045260246000fd5b7f4e487b7100000000000000000000000000000000000000000000000000000000600052602260045260246000fd5b7f4e487b7100000000000000000000000000000000000000000000000000000000600052604160045260246000fd5b6000601f19601f8301169050919050565b62001b658162001966565b811462001b7157600080fd5b50565b62001b7f81620019a6565b811462001b8b57600080fd5b5056fe60806040523480156200001157600080fd5b506040516200369438038062003694833981810160405281019062000037919062000693565b848481600090805190602001906200005192919062000543565b5080600190805190602001906200006a92919062000543565b5050506200008d620000816200017960201b60201c565b6200018160201b60201c565b85600960006101000a81548173ffffffffffffffffffffffffffffffffffffffff021916908373ffffffffffffffffffffffffffffffffffffffff16021790555085600a60006101000a81548173ffffffffffffffffffffffffffffffffffffffff021916908373ffffffffffffffffffffffffffffffffffffffff16021790555080600b819055506200012d60086200024760201b62000ed81760201c565b60006200014660086200025d60201b62000eee1760201c565b90506200015a84826200026b60201b60201c565b6200016c81846200045160201b60201c565b5050505050505062000b06565b600033905090565b6000600760009054906101000a900473ffffffffffffffffffffffffffffffffffffffff16905081600760006101000a81548173ffffffffffffffffffffffffffffffffffffffff021916908373ffffffffffffffffffffffffffffffffffffffff1602179055508173ffffffffffffffffffffffffffffffffffffffff168173ffffffffffffffffffffffffffffffffffffffff167f8be0079c531659141344cd1fd0a4f28419497f9722a3daafe3b4186f6b6457e060405160405180910390a35050565b6001816000016000828254019250508190555050565b600081600001549050919050565b600073ffffffffffffffffffffffffffffffffffffffff168273ffffffffffffffffffffffffffffffffffffffff161415620002de576040517f08c379a0000000000000000000000000000000000000000000000000000000008152600401620002d590620008a4565b60405180910390fd5b620002ef81620004d260201b60201c565b1562000332576040517f08c379a0000000000000000000000000000000000000000000000000000000008152600401620003299062000860565b60405180910390fd5b62000346600083836200053e60201b60201c565b6001600360008473ffffffffffffffffffffffffffffffffffffffff1673ffffffffffffffffffffffffffffffffffffffff16815260200190815260200160002060008282546200039891906200093e565b92505081905550816002600083815260200190815260200160002060006101000a81548173ffffffffffffffffffffffffffffffffffffffff021916908373ffffffffffffffffffffffffffffffffffffffff160217905550808273ffffffffffffffffffffffffffffffffffffffff16600073ffffffffffffffffffffffffffffffffffffffff167fddf252ad1be2c89b69c2b068fc378daa952ba7f163c4a11628f55a4df523b3ef60405160405180910390a45050565b6200046282620004d260201b60201c565b620004a4576040517f08c379a00000000000000000000000000000000000000000000000000000000081526004016200049b9062000882565b60405180910390fd5b80600660008481526020019081526020016000209080519060200190620004cd92919062000543565b505050565b60008073ffffffffffffffffffffffffffffffffffffffff166002600084815260200190815260200160002060009054906101000a900473ffffffffffffffffffffffffffffffffffffffff1673ffffffffffffffffffffffffffffffffffffffff1614159050919050565b505050565b828054620005519062000a0f565b90600052602060002090601f016020900481019282620005755760008555620005c1565b82601f106200059057805160ff1916838001178555620005c1565b82800160010185558215620005c1579182015b82811115620005c0578251825591602001919060010190620005a3565b5b509050620005d09190620005d4565b5090565b5b80821115620005ef576000816000905550600101620005d5565b5090565b60006200060a6200060484620008fa565b620008c6565b9050828152602081018484840111156200062357600080fd5b62000630848285620009d9565b509392505050565b600081519050620006498162000ad2565b92915050565b600082601f8301126200066157600080fd5b815162000673848260208601620005f3565b91505092915050565b6000815190506200068d8162000aec565b92915050565b60008060008060008060c08789031215620006ad57600080fd5b6000620006bd89828a0162000638565b965050602087015167ffffffffffffffff811115620006db57600080fd5b620006e989828a016200064f565b955050604087015167ffffffffffffffff8111156200070757600080fd5b6200071589828a016200064f565b94505060606200072889828a0162000638565b935050608087015167ffffffffffffffff8111156200074657600080fd5b6200075489828a016200064f565b92505060a06200076789828a016200067c565b9150509295509295509295565b600062000783601c836200092d565b91507f4552433732313a20746f6b656e20616c7265616479206d696e746564000000006000830152602082019050919050565b6000620007c5602e836200092d565b91507f45524337323155524953746f726167653a2055524920736574206f66206e6f6e60008301527f6578697374656e7420746f6b656e0000000000000000000000000000000000006020830152604082019050919050565b60006200082d6020836200092d565b91507f4552433732313a206d696e7420746f20746865207a65726f20616464726573736000830152602082019050919050565b600060208201905081810360008301526200087b8162000774565b9050919050565b600060208201905081810360008301526200089d81620007b6565b9050919050565b60006020820190508181036000830152620008bf816200081e565b9050919050565b6000604051905081810181811067ffffffffffffffff82111715620008f057620008ef62000aa3565b5b8060405250919050565b600067ffffffffffffffff82111562000918576200091762000aa3565b5b601f19601f8301169050602081019050919050565b600082825260208201905092915050565b60006200094b82620009cf565b91506200095883620009cf565b9250827fffffffffffffffffffffffffffffffffffffffffffffffffffffffffffffffff0382111562000990576200098f62000a45565b5b828201905092915050565b6000620009a882620009af565b9050919050565b600073ffffffffffffffffffffffffffffffffffffffff82169050919050565b6000819050919050565b60005b83811015620009f9578082015181840152602081019050620009dc565b8381111562000a09576000848401525b50505050565b6000600282049050600182168062000a2857607f821691505b6020821081141562000a3f5762000a3e62000a74565b5b50919050565b7f4e487b7100000000000000000000000000000000000000000000000000000000600052601160045260246000fd5b7f4e487b7100000000000000000000000000000000000000000000000000000000600052602260045260246000fd5b7f4e487b7100000000000000000000000000000000000000000000000000000000600052604160045260246000fd5b62000add816200099b565b811462000ae957600080fd5b50565b62000af781620009cf565b811462000b0357600080fd5b50565b612b7e8062000b166000396000f3fe608060405234801561001057600080fd5b506004361061010b5760003560e01c8063715018a6116100a2578063a22cb46511610071578063a22cb465146102a6578063b88d4fde146102c2578063c87b56dd146102de578063e985e9c51461030e578063f2fde38b1461033e5761010b565b8063715018a6146102425780638da5cb5b1461024c57806395d89b411461026a578063991a409b146102885761010b565b806323b872dd116100de57806323b872dd146101aa57806342842e0e146101c65780636352211e146101e257806370a08231146102125761010b565b806301ffc9a71461011057806306fdde0314610140578063081812fc1461015e578063095ea7b31461018e575b600080fd5b61012a60048036038101906101259190611d42565b61035a565b6040516101379190612506565b60405180910390f35b61014861043c565b6040516101559190612521565b60405180910390f35b61017860048036038101906101739190611d94565b6104ce565b604051610185919061249f565b60405180910390f35b6101a860048036038101906101a39190611d06565b610553565b005b6101c460048036038101906101bf9190611c00565b61066b565b005b6101e060048036038101906101db9190611c00565b6106cb565b005b6101fc60048036038101906101f79190611d94565b6106eb565b604051610209919061249f565b60405180910390f35b61022c60048036038101906102279190611b9b565b61079d565b6040516102399190612743565b60405180910390f35b61024a610855565b005b6102546108dd565b604051610261919061249f565b60405180910390f35b610272610907565b60405161027f9190612521565b60405180910390f35b610290610999565b60405161029d9190612743565b60405180910390f35b6102c060048036038101906102bb9190611cca565b610a17565b005b6102dc60048036038101906102d79190611c4f565b610b98565b005b6102f860048036038101906102f39190611d94565b610bfa565b6040516103059190612521565b60405180910390f35b61032860048036038101906103239190611bc4565b610d4c565b6040516103359190612506565b60405180910390f35b61035860048036038101906103539190611b9b565b610de0565b005b60007f80ac58cd000000000000000000000000000000000000000000000000000000007bffffffffffffffffffffffffffffffffffffffffffffffffffffffff1916827bffffffffffffffffffffffffffffffffffffffffffffffffffffffff1916148061042557507f5b5e139f000000000000000000000000000000000000000000000000000000007bffffffffffffffffffffffffffffffffffffffffffffffffffffffff1916827bffffffffffffffffffffffffffffffffffffffffffffffffffffffff1916145b80610435575061043482610efc565b5b9050919050565b60606000805461044b90612973565b80601f016020809104026020016040519081016040528092919081815260200182805461047790612973565b80156104c45780601f10610499576101008083540402835291602001916104c4565b820191906000526020600020905b8154815290600101906020018083116104a757829003601f168201915b5050505050905090565b60006104d982610f66565b610518576040517f08c379a000000000000000000000000000000000000000000000000000000000815260040161050f90612683565b60405180910390fd5b6004600083815260200190815260200160002060009054906101000a900473ffffffffffffffffffffffffffffffffffffffff169050919050565b600061055e826106eb565b90508073ffffffffffffffffffffffffffffffffffffffff168373ffffffffffffffffffffffffffffffffffffffff1614156105cf576040517f08c379a00000000000000000000000000000000000000000000000000000000081526004016105c690612703565b60405180910390fd5b8073ffffffffffffffffffffffffffffffffffffffff166105ee610fd2565b73ffffffffffffffffffffffffffffffffffffffff16148061061d575061061c81610617610fd2565b610d4c565b5b61065c576040517f08c379a000000000000000000000000000000000000000000000000000000000815260040161065390612603565b60405180910390fd5b6106668383610fda565b505050565b61067c610676610fd2565b82611093565b6106bb576040517f08c379a00000000000000000000000000000000000000000000000000000000081526004016106b290612723565b60405180910390fd5b6106c6838383611171565b505050565b6106e683838360405180602001604052806000815250610b98565b505050565b6000806002600084815260200190815260200160002060009054906101000a900473ffffffffffffffffffffffffffffffffffffffff169050600073ffffffffffffffffffffffffffffffffffffffff168173ffffffffffffffffffffffffffffffffffffffff161415610794576040517f08c379a000000000000000000000000000000000000000000000000000000000815260040161078b90612643565b60405180910390fd5b80915050919050565b60008073ffffffffffffffffffffffffffffffffffffffff168273ffffffffffffffffffffffffffffffffffffffff16141561080e576040517f08c379a000000000000000000000000000000000000000000000000000000000815260040161080590612623565b60405180910390fd5b600360008373ffffffffffffffffffffffffffffffffffffffff1673ffffffffffffffffffffffffffffffffffffffff168152602001908152602001600020549050919050565b61085d610fd2565b73ffffffffffffffffffffffffffffffffffffffff1661087b6108dd565b73ffffffffffffffffffffffffffffffffffffffff16146108d1576040517f08c379a00000000000000000000000000000000000000000000000000000000081526004016108c8906126a3565b60405180910390fd5b6108db60006113cd565b565b6000600760009054906101000a900473ffffffffffffffffffffffffffffffffffffffff16905090565b60606001805461091690612973565b80601f016020809104026020016040519081016040528092919081815260200182805461094290612973565b801561098f5780601f106109645761010080835404028352916020019161098f565b820191906000526020600020905b81548152906001019060200180831161097257829003601f168201915b5050505050905090565b600080600b54116109df576040517f08c379a00000000000000000000000000000000000000000000000000000000081526004016109d6906125e3565b60405180910390fd5b6001600b60008282546109f29190612889565b925050819055506000600b541415610a0f57610a0e6001611493565b5b600b54905090565b610a1f610fd2565b73ffffffffffffffffffffffffffffffffffffffff168273ffffffffffffffffffffffffffffffffffffffff161415610a8d576040517f08c379a0000000000000000000000000000000000000000000000000000000008152600401610a84906125a3565b60405180910390fd5b8060056000610a9a610fd2565b73ffffffffffffffffffffffffffffffffffffffff1673ffffffffffffffffffffffffffffffffffffffff16815260200190815260200160002060008473ffffffffffffffffffffffffffffffffffffffff1673ffffffffffffffffffffffffffffffffffffffff16815260200190815260200160002060006101000a81548160ff0219169083151502179055508173ffffffffffffffffffffffffffffffffffffffff16610b47610fd2565b73ffffffffffffffffffffffffffffffffffffffff167f17307eab39ab6107e8899845ad3d59bd9653f200f220920489ca2b5937696c3183604051610b8c9190612506565b60405180910390a35050565b610ba9610ba3610fd2565b83611093565b610be8576040517f08c379a0000000000000000000000000000000000000000000000000000000008152600401610bdf90612723565b60405180910390fd5b610bf4848484846114e6565b50505050565b6060610c0582610f66565b610c44576040517f08c379a0000000000000000000000000000000000000000000000000000000008152600401610c3b90612663565b60405180910390fd5b6000600660008481526020019081526020016000208054610c6490612973565b80601f0160208091040260200160405190810160405280929190818152602001828054610c9090612973565b8015610cdd5780601f10610cb257610100808354040283529160200191610cdd565b820191906000526020600020905b815481529060010190602001808311610cc057829003601f168201915b505050505090506000610cee611542565b9050600081511415610d04578192505050610d47565b600082511115610d39578082604051602001610d2192919061247b565b60405160208183030381529060405292505050610d47565b610d4284611559565b925050505b919050565b6000600560008473ffffffffffffffffffffffffffffffffffffffff1673ffffffffffffffffffffffffffffffffffffffff16815260200190815260200160002060008373ffffffffffffffffffffffffffffffffffffffff1673ffffffffffffffffffffffffffffffffffffffff16815260200190815260200160002060009054906101000a900460ff16905092915050565b610de8610fd2565b73ffffffffffffffffffffffffffffffffffffffff16610e066108dd565b73ffffffffffffffffffffffffffffffffffffffff1614610e5c576040517f08c379a0000000000000000000000000000000000000000000000000000000008152600401610e53906126a3565b60405180910390fd5b600073ffffffffffffffffffffffffffffffffffffffff168173ffffffffffffffffffffffffffffffffffffffff161415610ecc576040517f08c379a0000000000000000000000000000000000000000000000000000000008152600401610ec390612563565b60405180910390fd5b610ed5816113cd565b50565b6001816000016000828254019250508190555050565b600081600001549050919050565b60007f01ffc9a7000000000000000000000000000000000000000000000000000000007bffffffffffffffffffffffffffffffffffffffffffffffffffffffff1916827bffffffffffffffffffffffffffffffffffffffffffffffffffffffff1916149050919050565b60008073ffffffffffffffffffffffffffffffffffffffff166002600084815260200190815260200160002060009054906101000a900473ffffffffffffffffffffffffffffffffffffffff1673ffffffffffffffffffffffffffffffffffffffff1614159050919050565b600033905090565b816004600083815260200190815260200160002060006101000a81548173ffffffffffffffffffffffffffffffffffffffff021916908373ffffffffffffffffffffffffffffffffffffffff160217905550808273ffffffffffffffffffffffffffffffffffffffff1661104d836106eb565b73ffffffffffffffffffffffffffffffffffffffff167f8c5be1e5ebec7d5bd14f71427d1e84f3dd0314c0f7b2291e5b200ac8c7c3b92560405160405180910390a45050565b600061109e82610f66565b6110dd576040517f08c379a00000000000000000000000000000000000000000000000000000000081526004016110d4906125c3565b60405180910390fd5b60006110e8836106eb565b90508073ffffffffffffffffffffffffffffffffffffffff168473ffffffffffffffffffffffffffffffffffffffff16148061115757508373ffffffffffffffffffffffffffffffffffffffff1661113f846104ce565b73ffffffffffffffffffffffffffffffffffffffff16145b8061116857506111678185610d4c565b5b91505092915050565b8273ffffffffffffffffffffffffffffffffffffffff16611191826106eb565b73ffffffffffffffffffffffffffffffffffffffff16146111e7576040517f08c379a00000000000000000000000000000000000000000000000000000000081526004016111de906126c3565b60405180910390fd5b600073ffffffffffffffffffffffffffffffffffffffff168273ffffffffffffffffffffffffffffffffffffffff161415611257576040517f08c379a000000000000000000000000000000000000000000000000000000000815260040161124e90612583565b60405180910390fd5b611262838383611600565b61126d600082610fda565b6001600360008573ffffffffffffffffffffffffffffffffffffffff1673ffffffffffffffffffffffffffffffffffffffff16815260200190815260200160002060008282546112bd9190612889565b925050819055506001600360008473ffffffffffffffffffffffffffffffffffffffff1673ffffffffffffffffffffffffffffffffffffffff16815260200190815260200160002060008282546113149190612802565b92505081905550816002600083815260200190815260200160002060006101000a81548173ffffffffffffffffffffffffffffffffffffffff021916908373ffffffffffffffffffffffffffffffffffffffff160217905550808273ffffffffffffffffffffffffffffffffffffffff168473ffffffffffffffffffffffffffffffffffffffff167fddf252ad1be2c89b69c2b068fc378daa952ba7f163c4a11628f55a4df523b3ef60405160405180910390a4505050565b6000600760009054906101000a900473ffffffffffffffffffffffffffffffffffffffff16905081600760006101000a81548173ffffffffffffffffffffffffffffffffffffffff021916908373ffffffffffffffffffffffffffffffffffffffff1602179055508173ffffffffffffffffffffffffffffffffffffffff168173ffffffffffffffffffffffffffffffffffffffff167f8be0079c531659141344cd1fd0a4f28419497f9722a3daafe3b4186f6b6457e060405160405180910390a35050565b61149c81611605565b60006006600083815260200190815260200160002080546114bc90612973565b9050146114e3576006600082815260200190815260200160002060006114e29190611a6d565b5b50565b6114f1848484611171565b6114fd84848484611716565b61153c576040517f08c379a000000000000000000000000000000000000000000000000000000000815260040161153390612543565b60405180910390fd5b50505050565b606060405180602001604052806000815250905090565b606061156482610f66565b6115a3576040517f08c379a000000000000000000000000000000000000000000000000000000000815260040161159a906126e3565b60405180910390fd5b60006115ad611542565b905060008151116115cd57604051806020016040528060008152506115f8565b806115d7846118ad565b6040516020016115e892919061247b565b6040516020818303038152906040525b915050919050565b505050565b6000611610826106eb565b905061161e81600084611600565b611629600083610fda565b6001600360008373ffffffffffffffffffffffffffffffffffffffff1673ffffffffffffffffffffffffffffffffffffffff16815260200190815260200160002060008282546116799190612889565b925050819055506002600083815260200190815260200160002060006101000a81549073ffffffffffffffffffffffffffffffffffffffff021916905581600073ffffffffffffffffffffffffffffffffffffffff168273ffffffffffffffffffffffffffffffffffffffff167fddf252ad1be2c89b69c2b068fc378daa952ba7f163c4a11628f55a4df523b3ef60405160405180910390a45050565b60006117378473ffffffffffffffffffffffffffffffffffffffff16611a5a565b156118a0578373ffffffffffffffffffffffffffffffffffffffff1663150b7a02611760610fd2565b8786866040518563ffffffff1660e01b815260040161178294939291906124ba565b602060405180830381600087803b15801561179c57600080fd5b505af19250505080156117cd57506040513d601f19601f820116820180604052508101906117ca9190611d6b565b60015b611850573d80600081146117fd576040519150601f19603f3d011682016040523d82523d6000602084013e611802565b606091505b50600081511415611848576040517f08c379a000000000000000000000000000000000000000000000000000000000815260040161183f90612543565b60405180910390fd5b805181602001fd5b63150b7a0260e01b7bffffffffffffffffffffffffffffffffffffffffffffffffffffffff1916817bffffffffffffffffffffffffffffffffffffffffffffffffffffffff1916149150506118a5565b600190505b949350505050565b606060008214156118f5576040518060400160405280600181526020017f30000000000000000000000000000000000000000000000000000000000000008152509050611a55565b600082905060005b60008214611927578080611910906129a5565b915050600a826119209190612858565b91506118fd565b60008167ffffffffffffffff811115611969577f4e487b7100000000000000000000000000000000000000000000000000000000600052604160045260246000fd5b6040519080825280601f01601f19166020018201604052801561199b5781602001600182028036833780820191505090505b5090505b60008514611a4e576001826119b49190612889565b9150600a856119c391906129ee565b60306119cf9190612802565b60f81b818381518110611a0b577f4e487b7100000000000000000000000000000000000000000000000000000000600052603260045260246000fd5b60200101907effffffffffffffffffffffffffffffffffffffffffffffffffffffffffffff1916908160001a905350600a85611a479190612858565b945061199f565b8093505050505b919050565b600080823b905060008111915050919050565b508054611a7990612973565b6000825580601f10611a8b5750611aaa565b601f016020900490600052602060002090810190611aa99190611aad565b5b50565b5b80821115611ac6576000816000905550600101611aae565b5090565b6000611add611ad88461278f565b61275e565b905082815260208101848484011115611af557600080fd5b611b00848285612931565b509392505050565b600081359050611b1781612aec565b92915050565b600081359050611b2c81612b03565b92915050565b600081359050611b4181612b1a565b92915050565b600081519050611b5681612b1a565b92915050565b600082601f830112611b6d57600080fd5b8135611b7d848260208601611aca565b91505092915050565b600081359050611b9581612b31565b92915050565b600060208284031215611bad57600080fd5b6000611bbb84828501611b08565b91505092915050565b60008060408385031215611bd757600080fd5b6000611be585828601611b08565b9250506020611bf685828601611b08565b9150509250929050565b600080600060608486031215611c1557600080fd5b6000611c2386828701611b08565b9350506020611c3486828701611b08565b9250506040611c4586828701611b86565b9150509250925092565b60008060008060808587031215611c6557600080fd5b6000611c7387828801611b08565b9450506020611c8487828801611b08565b9350506040611c9587828801611b86565b925050606085013567ffffffffffffffff811115611cb257600080fd5b611cbe87828801611b5c565b91505092959194509250565b60008060408385031215611cdd57600080fd5b6000611ceb85828601611b08565b9250506020611cfc85828601611b1d565b9150509250929050565b60008060408385031215611d1957600080fd5b6000611d2785828601611b08565b9250506020611d3885828601611b86565b9150509250929050565b600060208284031215611d5457600080fd5b6000611d6284828501611b32565b91505092915050565b600060208284031215611d7d57600080fd5b6000611d8b84828501611b47565b91505092915050565b600060208284031215611da657600080fd5b6000611db484828501611b86565b91505092915050565b611dc6816128bd565b82525050565b611dd5816128cf565b82525050565b6000611de6826127bf565b611df081856127d5565b9350611e00818560208601612940565b611e0981612adb565b840191505092915050565b6000611e1f826127ca565b611e2981856127e6565b9350611e39818560208601612940565b611e4281612adb565b840191505092915050565b6000611e58826127ca565b611e6281856127f7565b9350611e72818560208601612940565b80840191505092915050565b6000611e8b6032836127e6565b91507f4552433732313a207472616e7366657220746f206e6f6e20455243373231526560008301527f63656976657220696d706c656d656e74657200000000000000000000000000006020830152604082019050919050565b6000611ef16026836127e6565b91507f4f776e61626c653a206e6577206f776e657220697320746865207a65726f206160008301527f64647265737300000000000000000000000000000000000000000000000000006020830152604082019050919050565b6000611f576024836127e6565b91507f4552433732313a207472616e7366657220746f20746865207a65726f2061646460008301527f72657373000000000000000000000000000000000000000000000000000000006020830152604082019050919050565b6000611fbd6019836127e6565b91507f4552433732313a20617070726f766520746f2063616c6c6572000000000000006000830152602082019050919050565b6000611ffd602c836127e6565b91507f4552433732313a206f70657261746f7220717565727920666f72206e6f6e657860008301527f697374656e7420746f6b656e00000000000000000000000000000000000000006020830152604082019050919050565b60006120636007836127e6565b91507f65787069726564000000000000000000000000000000000000000000000000006000830152602082019050919050565b60006120a36038836127e6565b91507f4552433732313a20617070726f76652063616c6c6572206973206e6f74206f7760008301527f6e6572206e6f7220617070726f76656420666f7220616c6c00000000000000006020830152604082019050919050565b6000612109602a836127e6565b91507f4552433732313a2062616c616e636520717565727920666f7220746865207a6560008301527f726f2061646472657373000000000000000000000000000000000000000000006020830152604082019050919050565b600061216f6029836127e6565b91507f4552433732313a206f776e657220717565727920666f72206e6f6e657869737460008301527f656e7420746f6b656e00000000000000000000000000000000000000000000006020830152604082019050919050565b60006121d56031836127e6565b91507f45524337323155524953746f726167653a2055524920717565727920666f722060008301527f6e6f6e6578697374656e7420746f6b656e0000000000000000000000000000006020830152604082019050919050565b600061223b602c836127e6565b91507f4552433732313a20617070726f76656420717565727920666f72206e6f6e657860008301527f697374656e7420746f6b656e00000000000000000000000000000000000000006020830152604082019050919050565b60006122a16020836127e6565b91507f4f776e61626c653a2063616c6c6572206973206e6f7420746865206f776e65726000830152602082019050919050565b60006122e16029836127e6565b91507f4552433732313a207472616e73666572206f6620746f6b656e2074686174206960008301527f73206e6f74206f776e00000000000000000000000000000000000000000000006020830152604082019050919050565b6000612347602f836127e6565b91507f4552433732314d657461646174613a2055524920717565727920666f72206e6f60008301527f6e6578697374656e7420746f6b656e00000000000000000000000000000000006020830152604082019050919050565b60006123ad6021836127e6565b91507f4552433732313a20617070726f76616c20746f2063757272656e74206f776e6560008301527f72000000000000000000000000000000000000000000000000000000000000006020830152604082019050919050565b60006124136031836127e6565b91507f4552433732313a207472616e736665722063616c6c6572206973206e6f74206f60008301527f776e6572206e6f7220617070726f7665640000000000000000000000000000006020830152604082019050919050565b61247581612927565b82525050565b60006124878285611e4d565b91506124938284611e4d565b91508190509392505050565b60006020820190506124b46000830184611dbd565b92915050565b60006080820190506124cf6000830187611dbd565b6124dc6020830186611dbd565b6124e9604083018561246c565b81810360608301526124fb8184611ddb565b905095945050505050565b600060208201905061251b6000830184611dcc565b92915050565b6000602082019050818103600083015261253b8184611e14565b905092915050565b6000602082019050818103600083015261255c81611e7e565b9050919050565b6000602082019050818103600083015261257c81611ee4565b9050919050565b6000602082019050818103600083015261259c81611f4a565b9050919050565b600060208201905081810360008301526125bc81611fb0565b9050919050565b600060208201905081810360008301526125dc81611ff0565b9050919050565b600060208201905081810360008301526125fc81612056565b9050919050565b6000602082019050818103600083015261261c81612096565b9050919050565b6000602082019050818103600083015261263c816120fc565b9050919050565b6000602082019050818103600083015261265c81612162565b9050919050565b6000602082019050818103600083015261267c816121c8565b9050919050565b6000602082019050818103600083015261269c8161222e565b9050919050565b600060208201905081810360008301526126bc81612294565b9050919050565b600060208201905081810360008301526126dc816122d4565b9050919050565b600060208201905081810360008301526126fc8161233a565b9050919050565b6000602082019050818103600083015261271c816123a0565b9050919050565b6000602082019050818103600083015261273c81612406565b9050919050565b6000602082019050612758600083018461246c565b92915050565b6000604051905081810181811067ffffffffffffffff8211171561278557612784612aac565b5b8060405250919050565b600067ffffffffffffffff8211156127aa576127a9612aac565b5b601f19601f8301169050602081019050919050565b600081519050919050565b600081519050919050565b600082825260208201905092915050565b600082825260208201905092915050565b600081905092915050565b600061280d82612927565b915061281883612927565b9250827fffffffffffffffffffffffffffffffffffffffffffffffffffffffffffffffff0382111561284d5761284c612a1f565b5b828201905092915050565b600061286382612927565b915061286e83612927565b92508261287e5761287d612a4e565b5b828204905092915050565b600061289482612927565b915061289f83612927565b9250828210156128b2576128b1612a1f565b5b828203905092915050565b60006128c882612907565b9050919050565b60008115159050919050565b60007fffffffff0000000000000000000000000000000000000000000000000000000082169050919050565b600073ffffffffffffffffffffffffffffffffffffffff82169050919050565b6000819050919050565b82818337600083830152505050565b60005b8381101561295e578082015181840152602081019050612943565b8381111561296d576000848401525b50505050565b6000600282049050600182168061298b57607f821691505b6020821081141561299f5761299e612a7d565b5b50919050565b60006129b082612927565b91507fffffffffffffffffffffffffffffffffffffffffffffffffffffffffffffffff8214156129e3576129e2612a1f565b5b600182019050919050565b60006129f982612927565b9150612a0483612927565b925082612a1457612a13612a4e565b5b828206905092915050565b7f4e487b7100000000000000000000000000000000000000000000000000000000600052601160045260246000fd5b7f4e487b7100000000000000000000000000000000000000000000000000000000600052601260045260246000fd5b7f4e487b7100000000000000000000000000000000000000000000000000000000600052602260045260246000fd5b7f4e487b7100000000000000000000000000000000000000000000000000000000600052604160045260246000fd5b6000601f19601f8301169050919050565b612af5816128bd565b8114612b0057600080fd5b50565b612b0c816128cf565b8114612b1757600080fd5b50565b612b23816128db565b8114612b2e57600080fd5b50565b612b3a81612927565b8114612b4557600080fd5b5056fea2646970667358221220ec98a14bd01330dbe011876b52b482bd83c329103559736ef7553d02f649a9db64736f6c63430008000033a26469706673582212208f25976e3c2fd76f0e3e762b8f64bf654cd8b781f372c54a29038e98d7f4100264736f6c63430008000033",
  "immutableReferences": {},
  "source": "// SPDX-License-Identifier: MIT\r\npragma solidity >=0.8.0;\r\n\r\nimport \"@openzeppelin/contracts/token/ERC721/extensions/ERC721URIStorage.sol\"; \r\nimport \"@openzeppelin/contracts/access/Ownable.sol\";\r\nimport \"@openzeppelin/contracts/utils/Counters.sol\";\r\n\r\n\r\nlibrary MyMathlib{\r\n    function sqrt(uint num) public pure returns(uint){\r\n        uint start = 1;\r\n        uint end = num;\r\n        uint mid = start;\r\n        while(start < end){\r\n            mid = start + (end - start)/2;\r\n            if(mid * mid >= num){\r\n                end = mid;\r\n            }else{\r\n                start = mid+1;\r\n            }\r\n        }\r\n        return end;\r\n    }\r\n\r\n    function sum(uint[] memory arr) public pure returns (uint){\r\n        uint buf = 0;\r\n        for(uint i=0; i<arr.length; i++){\r\n            buf += arr[i];\r\n        }\r\n        return buf;\r\n    }\r\n}\r\n\r\n\r\ncontract Knitts{\r\n    // using  MyMathlib for *;\r\n    //organization address here\r\n    address organization = 0x79e6234Ff4E7DB556F916FeBcE9e52a68D0B8879;\r\n    mapping(address => uint) deposits;\r\n    address[] public Leagues;\r\n  \taddress[] Users;\r\n  \tmapping(address => address) idToUser; \r\n  \t\r\n    function depositMore() public payable{\r\n        require(msg.value > 0, \"You need to deposit some amount\");\r\n        deposits[msg.sender] += msg.value;\r\n    }\r\n\r\n    function createLeague(uint _entryFee, uint _numPlayers, uint _duration) public returns(address[] memory){\r\n        require(_entryFee * _numPlayers <= deposits[msg.sender], \"Insufficient deposit\");\r\n        League newLeague = new League(msg.sender, _entryFee, _numPlayers, _duration, address(this));\r\n        Leagues.push(address(newLeague));\r\n        return Leagues;\r\n    }\r\n\r\n    function getBalance(address _moderator) public view returns (uint){\r\n        return deposits[_moderator];\r\n    }\r\n\r\n  \r\n  \tfunction getUserContractAddress(address _id) public view returns(address) {\r\n        return idToUser[_id];\r\n    }\r\n\r\n    function register(address id, address userContract) public {\r\n        idToUser[id] = userContract;\r\n    }\r\n}\r\n\r\ncontract League{\r\n    using  MyMathlib for *;\r\n    address public organization;\r\n    uint public entryFee;\r\n    uint public maxParticipants;\r\n    uint public numProjects;\r\n    address [] public participants;\r\n    address public moderator;\r\n    uint public duration;\r\n    bool public started;\r\n    bool public ended;\r\n    bool public distributed;\r\n  \tuint public total_points=0;\r\n    uint [] public points;\r\n    address public knittsAddress;\r\n\r\n    struct project{\r\n        string title;\r\n        string url;\r\n        string image;\r\n        address owner;\r\n        bytes[20][] description;\r\n        mapping(address => uint)investments;\r\n        address[] investors;\r\n        uint total_fund;\r\n    }\r\n\t\t\r\n    mapping(uint => project) projects;\r\n\r\n    constructor(address _moderator, uint _entryFee, uint _maxParticipants, uint _duration, address _knittsAddress){\r\n        entryFee = _entryFee;\r\n        maxParticipants = _maxParticipants;\r\n        moderator = _moderator;\r\n        duration = _duration;\r\n        numProjects = 0;\r\n        started=false;\r\n        ended=false;\r\n        distributed=false;\r\n        organization = _moderator; // for local testing\r\n        knittsAddress = _knittsAddress;\r\n    }\r\n\r\n    function submitIdea(string memory title, string memory url, string memory image, bytes[20][] memory description) external payable returns(uint){\r\n        require(msg.value >= entryFee, \"Insufficient entry fee\");\r\n        require(numProjects < maxParticipants, \"Maximum limit reached\");\r\n        project storage p = projects[numProjects++];\r\n        p.title = title;\r\n        p.url = url;\r\n        p.image = image;\r\n        p.owner = msg.sender;\r\n        p.description = description;\r\n        return numProjects;\r\n    }\r\n\r\n    function invest(uint projectId) external payable{\r\n        project storage p = projects[projectId];\r\n        if(p.investments[msg.sender] == 0){\r\n            p.investors.push(msg.sender);\r\n        }\r\n        p.total_fund += msg.value/1e12;\r\n        p.investments[msg.sender] += msg.value/1e12;\r\n        \r\n    }\r\n\r\n    function startLeague() external {\r\n        require(msg.sender == organization, \"only moderator\");\r\n        started=true;\r\n    }\r\n\r\n    function endLeague() external returns(uint[] memory){\r\n        require(msg.sender == organization, \"only organization\");\r\n        ended=true;\r\n        getPoints();\r\n      \ttotal_points = points.sum();\r\n        uint averagePoints = total_points / numProjects;\r\n      \r\n      \tfor(uint i=0;i<numProjects; i++) {\r\n            Knitts _knitts = Knitts(knittsAddress);\r\n            address _userId = _knitts.getUserContractAddress(projects[i].owner);\r\n            User _user = User(_userId);\r\n            _user.addProject(projects[i].title, projects[i].url, projects[i].image, projects[i].description, points[i] , averagePoints, address(this) );\r\n        } \r\n\r\n        return points;\r\n    }\r\n\r\n    function getPoints() internal returns(uint[] memory){\r\n        require(ended = true, \"the game has not ended\");\r\n        uint [] memory empty_points;\r\n        points = empty_points;\r\n        for(uint i=0; i < numProjects; i++){\r\n            uint buf = 0;\r\n            project storage p = projects[i];\r\n            for(uint j=0; j< p.investors.length; j++){\r\n                address inv = p.investors[j];\r\n                buf += (p.investments[inv]).sqrt();\r\n            }\r\n            points.push(buf * buf);\r\n        }\r\n        \r\n        return points;\r\n    }\r\n\r\n    function distribute() external {\r\n        require(msg.sender == organization, \"only organization\");\r\n        uint total_balance = address(this).balance;\r\n        \r\n        for(uint i=0; i<numProjects; i++){\r\n            project storage p  =  projects[i];\r\n            \r\n            payable(p.owner).transfer( (3*points[i]*total_balance)/(10*total_points) );\r\n\r\n            for(uint j=0; j<p.investors.length; j++){\r\n                address investor = p.investors[j];\r\n                Knitts _knitts = Knitts(knittsAddress);\r\n                address _userId = _knitts.getUserContractAddress(p.investors[j]);\r\n                User _user = User(_userId);\r\n                _user.split{value:(6 * points[i] * total_balance * p.investments[investor]) / (10 * total_points * p.total_fund)}();\r\n            }\r\n        }\r\n\r\n        payable(moderator).transfer(address(this).balance);\r\n\r\n    }\r\n\r\n    function submissionDetails(uint projectId) external view returns(\r\n        address, // project owner\r\n        bytes[20][] memory // description\r\n    )  {\r\n        return (projects[projectId].owner, projects[projectId].description);\r\n    }\r\n\r\n    \r\n}\r\n\r\n\r\ncontract User {\r\n    string name;\r\n  \taddress id; //metamask address of corresponding user\r\n  \tuint numProjects=0;\r\n    address[] public NFTs_created;\r\n    bool public pending_nfts = false;\r\n    constructor( address _id, string memory _name ) {\r\n        name = _name;\r\n        id = _id;\r\n    }\r\n\r\n    struct project{\r\n        string title;\r\n        string url;\r\n        string image;\r\n            bytes[20][] description;\r\n            uint point;\r\n            uint average_point;\r\n            address submittedOn;\r\n    }\r\n\r\n        project[20] public projects;\r\n    \r\n    function addProject(string memory title, string memory url, string memory image, bytes[20][] memory description, uint point, uint average_point, address submittedOn) public {\r\n        project storage p = projects[numProjects++];\r\n        p.title = title;\r\n        p.url = url;\r\n        p.image = image;\r\n        p.description = description;\r\n        p.point = point;\r\n        p.average_point = average_point;\r\n        p.submittedOn = submittedOn;\r\n    }\r\n    \r\n\r\n    function createNFT(uint _bronze) public returns(address [] memory){\r\n        require(_bronze <= 10, \"You can create only 10 bronzes\");\r\n        require(pending_nfts == false, \"There are pending nfts still\");\r\n        require(msg.sender == id, \"wrong user account\");\r\n        for(uint i=0; i<_bronze; i++){\r\n            NFT new_nft = new NFT(id, \"Bronze\", \"B\", id, 'https://s3.envato.com/files/235568921/preview.jpg', 1);\r\n            NFTs_created.push(address(new_nft));\r\n        }\r\n        pending_nfts = true;\r\n        return NFTs_created;\r\n    }\r\n\r\n    function split() public payable {\r\n        uint value = (msg.value * 95) / 100;\r\n        if(pending_nfts){\r\n            for(uint i=0; i<NFTs_created.length; i++){\r\n                NFT nft = NFT(NFTs_created[i]);\r\n                payable(nft.ownerOf(1)).transfer((value)/10);\r\n            }\r\n            scratchNFTs();\r\n        }\r\n        \r\n        payable(id).transfer(address(this).balance);\r\n    }\r\n\r\n    function scratchNFTs() internal returns(uint){\r\n        uint rem = 0;\r\n        for(uint i=0; i<NFTs_created.length; i++){\r\n            NFT new_nft =  NFT(NFTs_created[i]);\r\n            rem = new_nft.scratchCard();\r\n        }\r\n        if(rem == 0){\r\n            pending_nfts = false;\r\n            address [] memory temp;\r\n            NFTs_created = temp;\r\n        }\r\n        return rem;\r\n    }\r\n  \r\n}\r\n\r\ncontract NFT is ERC721URIStorage, Ownable{\r\n    using Counters for Counters.Counter;\r\n    Counters.Counter private _tokenIds;\r\n    address nft_creator;\r\n    address nft_owner;\r\n    uint leaguesMore;\r\n    constructor(address _creator, string memory _name, string memory _symbol, address _player, string memory _tokenURI, uint _leaguesMore) ERC721(_name, _symbol){\r\n        nft_creator = _creator;\r\n        nft_owner = _creator;\r\n        leaguesMore = _leaguesMore;\r\n        _tokenIds.increment();\r\n        uint256 newItemId = _tokenIds.current();\r\n        _mint(_player, newItemId);\r\n        _setTokenURI(newItemId, _tokenURI);\r\n    }\r\n\r\n    function scratchCard() public returns (uint){\r\n        require(leaguesMore > 0, \"expired\");\r\n        leaguesMore -= 1;\r\n        if(leaguesMore == 0){\r\n            _burn(1);\r\n        }\r\n        return leaguesMore;\r\n    }\r\n    \r\n\r\n}\r\n\r\n",
  "sourcePath": "E:\\projects\\knitts\\back-end\\contracts\\League.sol",
  "compiler": {
    "name": "solc",
    "version": "0.8.0+commit.c7dfd78e.Emscripten.clang"
  },
  "schemaVersion": "3.4.3",
  "updatedAt": "2021-09-30T18:40:43.719Z",
  "networkType": "ethereum",
  "devdoc": {
    "kind": "dev",
    "methods": {},
    "version": 1
  },
  "userdoc": {
    "kind": "user",
    "methods": {},
    "version": 1
  }
}