{
  "contractName": "User",
  "abi": [
    {
      "inputs": [
        {
          "internalType": "address",
          "name": "_id",
          "type": "address"
        },
        {
          "internalType": "string",
          "name": "_name",
          "type": "string"
        },
        {
          "internalType": "address",
          "name": "_organization",
          "type": "address"
        }
      ],
      "stateMutability": "nonpayable",
      "type": "constructor"
    },
    {
      "inputs": [
        {
          "internalType": "string",
          "name": "title",
          "type": "string"
        },
        {
          "internalType": "string",
          "name": "url",
          "type": "string"
        },
        {
          "internalType": "bytes[20][]",
          "name": "description",
          "type": "bytes[20][]"
        },
        {
          "internalType": "uint256",
          "name": "point",
          "type": "uint256"
        },
        {
          "internalType": "uint256",
          "name": "average_point",
          "type": "uint256"
        },
        {
          "internalType": "address",
          "name": "submittedOn",
          "type": "address"
        }
      ],
      "name": "addProject",
      "outputs": [],
      "stateMutability": "nonpayable",
      "type": "function"
    },
    {
      "inputs": [
        {
          "internalType": "uint256",
          "name": "value",
          "type": "uint256"
        },
        {
          "internalType": "bool",
          "name": "increase",
          "type": "bool"
        },
        {
          "internalType": "bool",
          "name": "deactivate",
          "type": "bool"
        }
      ],
      "name": "updateNFT",
      "outputs": [],
      "stateMutability": "nonpayable",
      "type": "function"
    },
    {
      "inputs": [
        {
          "internalType": "uint256",
          "name": "shares",
          "type": "uint256"
        },
        {
          "internalType": "uint256",
          "name": "numLeagues",
          "type": "uint256"
        }
      ],
      "name": "mintNFT",
      "outputs": [
        {
          "internalType": "address[]",
          "name": "",
          "type": "address[]"
        }
      ],
      "stateMutability": "nonpayable",
      "type": "function"
    },
    {
      "inputs": [],
      "name": "getNFTs",
      "outputs": [
        {
          "internalType": "address[]",
          "name": "",
          "type": "address[]"
        }
      ],
      "stateMutability": "view",
      "type": "function"
    },
    {
      "inputs": [],
      "name": "getDetails",
      "outputs": [
        {
          "components": [
            {
              "internalType": "string",
              "name": "title",
              "type": "string"
            },
            {
              "internalType": "string",
              "name": "url",
              "type": "string"
            },
            {
              "internalType": "bytes[20][]",
              "name": "description",
              "type": "bytes[20][]"
            },
            {
              "internalType": "uint256",
              "name": "point",
              "type": "uint256"
            },
            {
              "internalType": "uint256",
              "name": "average_point",
              "type": "uint256"
            },
            {
              "internalType": "address",
              "name": "submittedOn",
              "type": "address"
            }
          ],
          "internalType": "struct User.project[20]",
          "name": "",
          "type": "tuple[20]"
        }
      ],
      "stateMutability": "view",
      "type": "function"
    }
  ],
  "bytecode": "0x6080604052600060025560006004553480156200001b57600080fd5b5060405162002d8638038062002d8683398181016040528101906200004191906200021e565b816000908051906020019062000059929190620000e5565b5082600160006101000a81548173ffffffffffffffffffffffffffffffffffffffff021916908373ffffffffffffffffffffffffffffffffffffffff16021790555080600560006101000a81548173ffffffffffffffffffffffffffffffffffffffff021916908373ffffffffffffffffffffffffffffffffffffffff1602179055505050506200040c565b828054620000f3906200035e565b90600052602060002090601f01602090048101928262000117576000855562000163565b82601f106200013257805160ff191683800117855562000163565b8280016001018555821562000163579182015b828111156200016257825182559160200191906001019062000145565b5b50905062000172919062000176565b5090565b5b808211156200019157600081600090555060010162000177565b5090565b6000620001ac620001a684620002c1565b6200028d565b905082815260208101848484011115620001c557600080fd5b620001d284828562000328565b509392505050565b600081519050620001eb81620003f2565b92915050565b600082601f8301126200020357600080fd5b81516200021584826020860162000195565b91505092915050565b6000806000606084860312156200023457600080fd5b60006200024486828701620001da565b935050602084015167ffffffffffffffff8111156200026257600080fd5b6200027086828701620001f1565b92505060406200028386828701620001da565b9150509250925092565b6000604051905081810181811067ffffffffffffffff82111715620002b757620002b6620003c3565b5b8060405250919050565b600067ffffffffffffffff821115620002df57620002de620003c3565b5b601f19601f8301169050602081019050919050565b6000620003018262000308565b9050919050565b600073ffffffffffffffffffffffffffffffffffffffff82169050919050565b60005b83811015620003485780820151818401526020810190506200032b565b8381111562000358576000848401525b50505050565b600060028204905060018216806200037757607f821691505b602082108114156200038e576200038d62000394565b5b50919050565b7f4e487b7100000000000000000000000000000000000000000000000000000000600052602260045260246000fd5b7f4e487b7100000000000000000000000000000000000000000000000000000000600052604160045260246000fd5b620003fd81620002f4565b81146200040957600080fd5b50565b61296a806200041c6000396000f3fe60806040523480156200001157600080fd5b50600436106200005e5760003560e01c8063227212f214620000635780632b8bd334146200008557806350038c9c14620000a5578063c48283ff14620000c5578063fbbf93a014620000fb575b600080fd5b6200006d6200011d565b6040516200007c9190620017dc565b60405180910390f35b620000a360048036038101906200009d9190620011a6565b620001ad565b005b620000c36004803603810190620000bd9190620010c5565b620003cf565b005b620000e36004803603810190620000dd9190620011fc565b620004d9565b604051620000f29190620017dc565b60405180910390f35b62000105620007ad565b60405162000114919062001800565b60405180910390f35b60606007805480602002602001604051908101604052809291908181526020018280548015620001a357602002820191906000526020600020905b8160009054906101000a900473ffffffffffffffffffffffffffffffffffffffff1673ffffffffffffffffffffffffffffffffffffffff168152602001906001019080831162000158575b5050505050905090565b60011515600660003373ffffffffffffffffffffffffffffffffffffffff1673ffffffffffffffffffffffffffffffffffffffff16815260200190815260200160002060009054906101000a900460ff1615151462000243576040517f08c379a00000000000000000000000000000000000000000000000000000000081526004016200023a9062001846565b60405180910390fd5b8115620002c1576064836003546200025c919062001ad5565b1115620002a0576040517f08c379a000000000000000000000000000000000000000000000000000000000815260040162000297906200188a565b60405180910390fd5b8260036000828254620002b4919062001ad5565b9250508190555062000325565b82600354101562000309576040517f08c379a00000000000000000000000000000000000000000000000000000000081526004016200030090620018ac565b60405180910390fd5b82600360008282546200031d919062001bcb565b925050819055505b8015620003ca576000600660003373ffffffffffffffffffffffffffffffffffffffff1673ffffffffffffffffffffffffffffffffffffffff16815260200190815260200160002060006101000a81548160ff02191690831515021790555060016004600082825462000399919062001bcb565b9250508190555060006004541415620003c95760608060079080519060200190620003c692919062000abf565b50505b5b505050565b6000600860026000815480929190620003e89062001ccb565b919050556014811062000424577f4e487b7100000000000000000000000000000000000000000000000000000000600052603260045260246000fd5b600602019050868160000190805190602001906200044492919062000b4e565b50858160010190805190602001906200045f92919062000b4e565b50848160020190805190602001906200047a92919062000bdf565b50838160030181905550828160040181905550818160050160006101000a81548173ffffffffffffffffffffffffffffffffffffffff021916908373ffffffffffffffffffffffffffffffffffffffff16021790555050505050505050565b60606000836064620004ec919062001b32565b905060648185620004fe919062001b6a565b141562000542576040517f08c379a0000000000000000000000000000000000000000000000000000000008152600401620005399062001824565b60405180910390fd5b6000600454116200058a576040517f08c379a0000000000000000000000000000000000000000000000000000000008152600401620005819062001868565b60405180910390fd5b600160009054906101000a900473ffffffffffffffffffffffffffffffffffffffff1673ffffffffffffffffffffffffffffffffffffffff163373ffffffffffffffffffffffffffffffffffffffff1614620005e557600080fd5b60005b848110156200071a576000600560009054906101000a900473ffffffffffffffffffffffffffffffffffffffff163030600160009054906101000a900473ffffffffffffffffffffffffffffffffffffffff16600160009054906101000a900473ffffffffffffffffffffffffffffffffffffffff16878a6040516200066e9062000c44565b6200068097969594939291906200175f565b604051809103906000f0801580156200069d573d6000803e3d6000fd5b5090506007819080600181540180825580915050600190039060005260206000200160009091909190916101000a81548173ffffffffffffffffffffffffffffffffffffffff021916908373ffffffffffffffffffffffffffffffffffffffff160217905550508080620007119062001ccb565b915050620005e8565b5060078054806020026020016040519081016040528092919081815260200182805480156200079f57602002820191906000526020600020905b8160009054906101000a900473ffffffffffffffffffffffffffffffffffffffff1673ffffffffffffffffffffffffffffffffffffffff168152602001906001019080831162000754575b505050505091505092915050565b620007b762000c52565b6008601480602002604051908101604052809291906000905b8282101562000ab6578382600602016040518060c0016040529081600082018054620007fc9062001c95565b80601f01602080910402602001604051908101604052809291908181526020018280546200082a9062001c95565b80156200087b5780601f106200084f576101008083540402835291602001916200087b565b820191906000526020600020905b8154815290600101906020018083116200085d57829003601f168201915b50505050508152602001600182018054620008969062001c95565b80601f0160208091040260200160405190810160405280929190818152602001828054620008c49062001c95565b8015620009155780601f10620008e95761010080835404028352916020019162000915565b820191906000526020600020905b815481529060010190602001808311620008f757829003601f168201915b5050505050815260200160028201805480602002602001604051908101604052809291908181526020016000905b8282101562000a345783829060005260206000209060140201601480602002604051908101604052809291906000905b8282101562000a205783820180546200098c9062001c95565b80601f0160208091040260200160405190810160405280929190818152602001828054620009ba9062001c95565b801562000a0b5780601f10620009df5761010080835404028352916020019162000a0b565b820191906000526020600020905b815481529060010190602001808311620009ed57829003601f168201915b50505050508152602001906001019062000973565b505050508152602001906001019062000943565b50505050815260200160038201548152602001600482015481526020016005820160009054906101000a900473ffffffffffffffffffffffffffffffffffffffff1673ffffffffffffffffffffffffffffffffffffffff1673ffffffffffffffffffffffffffffffffffffffff168152505081526020019060010190620007d0565b50505050905090565b82805482825590600052602060002090810192821562000b3b579160200282015b8281111562000b3a5782518260006101000a81548173ffffffffffffffffffffffffffffffffffffffff021916908373ffffffffffffffffffffffffffffffffffffffff1602179055509160200191906001019062000ae0565b5b50905062000b4a919062000c83565b5090565b82805462000b5c9062001c95565b90600052602060002090601f01602090048101928262000b80576000855562000bcc565b82601f1062000b9b57805160ff191683800117855562000bcc565b8280016001018555821562000bcc579182015b8281111562000bcb57825182559160200191906001019062000bae565b5b50905062000bdb919062000c83565b5090565b82805482825590600052602060002090601402810192821562000c31579160200282015b8281111562000c305782518290601462000c1f92919062000ca2565b509160200191906014019062000c03565b5b50905062000c40919062000cfc565b5090565b610b008062001e3583390190565b6040518061028001604052806014905b62000c6c62000d24565b81526020019060019003908162000c625790505090565b5b8082111562000c9e57600081600090555060010162000c84565b5090565b826014810192821562000ce9579160200282015b8281111562000ce857825182908051906020019062000cd792919062000d70565b509160200191906001019062000cb6565b5b50905062000cf8919062000e01565b5090565b5b8082111562000d20576000818162000d16919062000e29565b5060140162000cfd565b5090565b6040518060c001604052806060815260200160608152602001606081526020016000815260200160008152602001600073ffffffffffffffffffffffffffffffffffffffff1681525090565b82805462000d7e9062001c95565b90600052602060002090601f01602090048101928262000da2576000855562000dee565b82601f1062000dbd57805160ff191683800117855562000dee565b8280016001018555821562000dee579182015b8281111562000ded57825182559160200191906001019062000dd0565b5b50905062000dfd919062000c83565b5090565b5b8082111562000e25576000818162000e1b919062000e3e565b5060010162000e02565b5090565b50806014019062000e3b919062000e01565b50565b50805462000e4c9062001c95565b6000825580601f1062000e60575062000e81565b601f01602090049060005260206000209081019062000e80919062000c83565b5b50565b600062000e9b62000e958462001902565b620018ce565b9050808382526020820190508260005b8581101562000edf578135850162000ec4888262001013565b84526020840193506020830192505060018101905062000eab565b5050509392505050565b600062000f0062000efa8462001931565b620018ce565b9050808260005b8581101562000f3b578135850162000f20888262001054565b84526020840193506020830192505060018101905062000f07565b5050509392505050565b600062000f5c62000f56846200195a565b620018ce565b90508281526020810184848401111562000f7557600080fd5b62000f8284828562001c50565b509392505050565b600062000fa162000f9b846200198d565b620018ce565b90508281526020810184848401111562000fba57600080fd5b62000fc784828562001c50565b509392505050565b60008135905062000fe08162001de6565b92915050565b600082601f83011262000ff857600080fd5b81356200100a84826020860162000e84565b91505092915050565b600082601f8301126200102557600080fd5b60146200103484828562000ee9565b91505092915050565b6000813590506200104e8162001e00565b92915050565b600082601f8301126200106657600080fd5b81356200107884826020860162000f45565b91505092915050565b600082601f8301126200109357600080fd5b8135620010a584826020860162000f8a565b91505092915050565b600081359050620010bf8162001e1a565b92915050565b60008060008060008060c08789031215620010df57600080fd5b600087013567ffffffffffffffff811115620010fa57600080fd5b6200110889828a0162001081565b965050602087013567ffffffffffffffff8111156200112657600080fd5b6200113489828a0162001081565b955050604087013567ffffffffffffffff8111156200115257600080fd5b6200116089828a0162000fe6565b94505060606200117389828a01620010ae565b93505060806200118689828a01620010ae565b92505060a06200119989828a0162000fcf565b9150509295509295509295565b600080600060608486031215620011bc57600080fd5b6000620011cc86828701620010ae565b9350506020620011df868287016200103d565b9250506040620011f2868287016200103d565b9150509250925092565b600080604083850312156200121057600080fd5b60006200122085828601620010ae565b92505060206200123385828601620010ae565b9150509250929050565b60006200124b838362001299565b60208301905092915050565b6000620012658383620013a6565b905092915050565b60006200127b8383620014a8565b905092915050565b60006200129183836200169a565b905092915050565b620012a48162001c06565b82525050565b620012b58162001c06565b82525050565b6000620012c882620019f4565b620012d4818562001a6a565b9350620012e183620019c0565b8060005b8381101562001318578151620012fc88826200123d565b9750620013098362001a36565b925050600181019050620012e5565b5085935050505092915050565b60006200133282620019ff565b6200133e818562001a7b565b9350836020820285016200135285620019d0565b8060005b8581101562001394578484038952815162001372858262001257565b94506200137f8362001a43565b925060208a0199505060018101905062001356565b50829750879550505050505092915050565b6000620013b38262001a0a565b620013bf818562001a8c565b935083602082028501620013d385620019e0565b8060005b85811015620014155784840389528151620013f385826200126d565b9450620014008362001a50565b925060208a01995050600181019050620013d7565b50829750879550505050505092915050565b6000620014348262001a15565b62001440818562001a97565b9350836020820285016200145485620019ea565b8060005b8581101562001496578484038952815162001474858262001283565b9450620014818362001a5d565b925060208a0199505060018101905062001458565b50829750879550505050505092915050565b6000620014b58262001a20565b620014c1818562001aa2565b9350620014d381856020860162001c5f565b620014de8162001dd5565b840191505092915050565b6000620014f68262001a2b565b62001502818562001ab3565b93506200151481856020860162001c5f565b6200151f8162001dd5565b840191505092915050565b60006200153960228362001ac4565b91507f7368617265732063616e206f6e6c79206265206120666163746f72206f66203160008301527f30300000000000000000000000000000000000000000000000000000000000006020830152604082019050919050565b6000620015a1600d8362001ac4565b91507f4e6f742076616c6964204e4654000000000000000000000000000000000000006000830152602082019050919050565b6000620015e360208362001ac4565b91507f596f75206861766520756e736f6c64206d696e746564204e465473206c6566746000830152602082019050919050565b60006200162560178362001ac4565b91507f4d6178696d756d2070726f706f7274696f6e20736f6c640000000000000000006000830152602082019050919050565b60006200166760158362001ac4565b91507f4e6f7420656e6f7567682070726f706f7274696f6e00000000000000000000006000830152602082019050919050565b600060c0830160008301518482036000860152620016b98282620014e9565b91505060208301518482036020860152620016d58282620014e9565b91505060408301518482036040860152620016f1828262001325565b91505060608301516200170860608601826200173d565b5060808301516200171d60808601826200173d565b5060a08301516200173260a086018262001299565b508091505092915050565b620017488162001c46565b82525050565b620017598162001c46565b82525050565b600060e08201905062001776600083018a620012aa565b620017856020830189620012aa565b620017946040830188620012aa565b620017a36060830187620012aa565b620017b26080830186620012aa565b620017c160a08301856200174e565b620017d060c08301846200174e565b98975050505050505050565b60006020820190508181036000830152620017f88184620012bb565b905092915050565b600060208201905081810360008301526200181c818462001427565b905092915050565b600060208201905081810360008301526200183f816200152a565b9050919050565b60006020820190508181036000830152620018618162001592565b9050919050565b600060208201905081810360008301526200188381620015d4565b9050919050565b60006020820190508181036000830152620018a58162001616565b9050919050565b60006020820190508181036000830152620018c78162001658565b9050919050565b6000604051905081810181811067ffffffffffffffff82111715620018f857620018f762001da6565b5b8060405250919050565b600067ffffffffffffffff82111562001920576200191f62001da6565b5b602082029050602081019050919050565b600067ffffffffffffffff8211156200194f576200194e62001da6565b5b602082029050919050565b600067ffffffffffffffff82111562001978576200197762001da6565b5b601f19601f8301169050602081019050919050565b600067ffffffffffffffff821115620019ab57620019aa62001da6565b5b601f19601f8301169050602081019050919050565b6000819050602082019050919050565b6000819050602082019050919050565b6000819050919050565b6000819050919050565b600081519050919050565b600081519050919050565b600060149050919050565b600060149050919050565b600081519050919050565b600081519050919050565b6000602082019050919050565b6000602082019050919050565b6000602082019050919050565b6000602082019050919050565b600082825260208201905092915050565b600082825260208201905092915050565b600081905092915050565b600081905092915050565b600082825260208201905092915050565b600082825260208201905092915050565b600082825260208201905092915050565b600062001ae28262001c46565b915062001aef8362001c46565b9250827fffffffffffffffffffffffffffffffffffffffffffffffffffffffffffffffff0382111562001b275762001b2662001d19565b5b828201905092915050565b600062001b3f8262001c46565b915062001b4c8362001c46565b92508262001b5f5762001b5e62001d48565b5b828204905092915050565b600062001b778262001c46565b915062001b848362001c46565b9250817fffffffffffffffffffffffffffffffffffffffffffffffffffffffffffffffff048311821515161562001bc05762001bbf62001d19565b5b828202905092915050565b600062001bd88262001c46565b915062001be58362001c46565b92508282101562001bfb5762001bfa62001d19565b5b828203905092915050565b600062001c138262001c26565b9050919050565b60008115159050919050565b600073ffffffffffffffffffffffffffffffffffffffff82169050919050565b6000819050919050565b82818337600083830152505050565b60005b8381101562001c7f57808201518184015260208101905062001c62565b8381111562001c8f576000848401525b50505050565b6000600282049050600182168062001cae57607f821691505b6020821081141562001cc55762001cc462001d77565b5b50919050565b600062001cd88262001c46565b91507fffffffffffffffffffffffffffffffffffffffffffffffffffffffffffffffff82141562001d0e5762001d0d62001d19565b5b600182019050919050565b7f4e487b7100000000000000000000000000000000000000000000000000000000600052601160045260246000fd5b7f4e487b7100000000000000000000000000000000000000000000000000000000600052601260045260246000fd5b7f4e487b7100000000000000000000000000000000000000000000000000000000600052602260045260246000fd5b7f4e487b7100000000000000000000000000000000000000000000000000000000600052604160045260246000fd5b6000601f19601f8301169050919050565b62001df18162001c06565b811462001dfd57600080fd5b50565b62001e0b8162001c1a565b811462001e1757600080fd5b50565b62001e258162001c46565b811462001e3157600080fd5b5056fe608060405234801561001057600080fd5b5060405162000b0038038062000b00833981810160405281019061003491906101d7565b866000806101000a81548173ffffffffffffffffffffffffffffffffffffffff021916908373ffffffffffffffffffffffffffffffffffffffff16021790555083600160006101000a81548173ffffffffffffffffffffffffffffffffffffffff021916908373ffffffffffffffffffffffffffffffffffffffff16021790555082600260006101000a81548173ffffffffffffffffffffffffffffffffffffffff021916908373ffffffffffffffffffffffffffffffffffffffff16021790555081600381905550806004819055506000600560006101000a81548160ff02191690831515021790555085600560016101000a81548173ffffffffffffffffffffffffffffffffffffffff021916908373ffffffffffffffffffffffffffffffffffffffff16021790555084600660006101000a81548173ffffffffffffffffffffffffffffffffffffffff021916908373ffffffffffffffffffffffffffffffffffffffff160217905550505050505050506102df565b6000815190506101bc816102b1565b92915050565b6000815190506101d1816102c8565b92915050565b600080600080600080600060e0888a0312156101f257600080fd5b60006102008a828b016101ad565b97505060206102118a828b016101ad565b96505060406102228a828b016101ad565b95505060606102338a828b016101ad565b94505060806102448a828b016101ad565b93505060a06102558a828b016101c2565b92505060c06102668a828b016101c2565b91505092959891949750929550565b600061028082610287565b9050919050565b600073ffffffffffffffffffffffffffffffffffffffff82169050919050565b6000819050919050565b6102ba81610275565b81146102c557600080fd5b50565b6102d1816102a7565b81146102dc57600080fd5b50565b61081180620002ef6000396000f3fe608060405234801561001057600080fd5b506004361061009e5760003560e01c80638da5cb5b116100665780638da5cb5b14610139578063c78ad77f14610157578063d05ad2b414610175578063eacaec2d14610193578063fbbf93a0146101b15761009e565b8063204de7a6146100a357806323bd4d7a146100c157806345653a6d146100df5780634c2067c7146100fd5780638c1867fe1461011b575b600080fd5b6100ab6101d3565b6040516100b89190610604565b60405180910390f35b6100c96101f9565b6040516100d69190610604565b60405180910390f35b6100e761021d565b6040516100f49190610604565b60405180910390f35b610105610243565b6040516101129190610672565b60405180910390f35b610123610256565b6040516101309190610604565b60405180910390f35b61014161027c565b60405161014e9190610604565b60405180910390f35b61015f6102a2565b60405161016c91906106cd565b60405180910390f35b61017d6102a8565b60405161018a91906106cd565b60405180910390f35b61019b6104b6565b6040516101a891906106cd565b60405180910390f35b6101b96104bc565b6040516101ca95949392919061061f565b60405180910390f35b600560019054906101000a900473ffffffffffffffffffffffffffffffffffffffff1681565b60008054906101000a900473ffffffffffffffffffffffffffffffffffffffff1681565b600160009054906101000a900473ffffffffffffffffffffffffffffffffffffffff1681565b600560009054906101000a900460ff1681565b600660009054906101000a900473ffffffffffffffffffffffffffffffffffffffff1681565b600260009054906101000a900473ffffffffffffffffffffffffffffffffffffffff1681565b60035481565b6000801515600560009054906101000a900460ff161515146102ff576040517f08c379a00000000000000000000000000000000000000000000000000000000081526004016102f6906106ad565b60405180910390fd5b600060045411610344576040517f08c379a000000000000000000000000000000000000000000000000000000000815260040161033b9061068d565b60405180910390fd5b60016004546103539190610730565b60048190555060006004541415610418576001600560006101000a81548160ff021916908315150217905550600560019054906101000a900473ffffffffffffffffffffffffffffffffffffffff1673ffffffffffffffffffffffffffffffffffffffff16632b8bd3346003546001806040518463ffffffff1660e01b81526004016103e1939291906106e8565b600060405180830381600087803b1580156103fb57600080fd5b505af115801561040f573d6000803e3d6000fd5b505050506104ae565b600560019054906101000a900473ffffffffffffffffffffffffffffffffffffffff1673ffffffffffffffffffffffffffffffffffffffff16632b8bd334600354600160006040518463ffffffff1660e01b815260040161047b939291906106e8565b600060405180830381600087803b15801561049557600080fd5b505af11580156104a9573d6000803e3d6000fd5b505050505b600354905090565b60045481565b6000806000806000600160009054906101000a900473ffffffffffffffffffffffffffffffffffffffff16600260009054906101000a900473ffffffffffffffffffffffffffffffffffffffff16600354600454600560009054906101000a900460ff16945094509450945094509091929394565b61053a81610764565b82525050565b61054981610776565b82525050565b600061055c602c8361071f565b91507f546865206d6178696d756d206e756d626572206f662067616d6573206861732060008301527f6265656e207265616368656400000000000000000000000000000000000000006020830152604082019050919050565b60006105c260148361071f565b91507f54686520636172642068617320657870697265640000000000000000000000006000830152602082019050919050565b6105fe816107a2565b82525050565b60006020820190506106196000830184610531565b92915050565b600060a0820190506106346000830188610531565b6106416020830187610531565b61064e60408301866105f5565b61065b60608301856105f5565b6106686080830184610540565b9695505050505050565b60006020820190506106876000830184610540565b92915050565b600060208201905081810360008301526106a68161054f565b9050919050565b600060208201905081810360008301526106c6816105b5565b9050919050565b60006020820190506106e260008301846105f5565b92915050565b60006060820190506106fd60008301866105f5565b61070a6020830185610540565b6107176040830184610540565b949350505050565b600082825260208201905092915050565b600061073b826107a2565b9150610746836107a2565b925082821015610759576107586107ac565b5b828203905092915050565b600061076f82610782565b9050919050565b60008115159050919050565b600073ffffffffffffffffffffffffffffffffffffffff82169050919050565b6000819050919050565b7f4e487b7100000000000000000000000000000000000000000000000000000000600052601160045260246000fdfea2646970667358221220ba0dd0c3221c1361ea65f0a64a90aaab3ebd715a9d8947d4e918f9e56544bb2264736f6c63430008000033a2646970667358221220a49a7aa07ad28e656a03ffca20a78a766a2e4da82027680532166af1e93d0fd964736f6c63430008000033",
  "immutableReferences": {},
  "source": "// SPDX-License-Identifier: MIT\r\npragma solidity >=0.8.0;\r\n\r\ncontract Knitts{\r\n    //organization address here\r\n    address organization = 0x79e6234Ff4E7DB556F916FeBcE9e52a68D0B8879;\r\n    address[] moderators;//change this to mapping mapping(address=>bool)\r\n    mapping(address=>bool) valid;\r\n    mapping(address => uint) deposits;\r\n    address[] Leagues;\r\n  \taddress[] Users;\r\n    uint maxDescLength = 1000;\r\n  \tmapping(address => address) idToUser; \r\n  \tmapping(address => bool) userExists;\r\n    function addModerator() public payable{\r\n        require(msg.value > 0, \"You should deposit some amount\");\r\n        moderators.push(msg.sender);\r\n        deposits[msg.sender] = msg.value;\r\n        valid[msg.sender]=true;\r\n    }\r\n\r\n    function depositMore() public payable{\r\n        require(msg.value > 0, \"You need to deposit some amount\");\r\n        deposits[msg.sender] += msg.value;\r\n    }\r\n\r\n    function createLeague(uint _entryFee, uint _numPlayers, uint _duration) public returns(address[] memory){\r\n        require(_entryFee * _numPlayers <= deposits[msg.sender], \"Insufficient deposit\");\r\n        League newLeague = new League(msg.sender, _entryFee, _numPlayers, _duration, address(this));\r\n        Leagues.push(address(newLeague));\r\n        return Leagues;\r\n    }\r\n\r\n    function getBalance(address _moderator) public view returns (uint){\r\n        return deposits[_moderator];\r\n    }\r\n\r\n    function getDetails() public view returns (address [] memory, address [] memory){\r\n        return (moderators, Leagues);\r\n    }\r\n\r\n    function removeModerator(address _moderator) public {\r\n        valid[_moderator] = false;\r\n    }\r\n  \r\n  \tfunction register(string memory _name) public returns (address) {\r\n        User newUser = new User(msg.sender, _name, organization);\r\n        userExists[msg.sender] = true;\r\n        idToUser[msg.sender] = address(newUser);\r\n        return address(newUser);\r\n    }\r\n  \r\n  \tfunction getUserContractAddress(address _id) public view returns(address) {\r\n        require(userExists[_id] == true,\"The user should exist\");\r\n        return idToUser[_id];\r\n    }\r\n}\r\n\r\ncontract League{\r\n    \r\n    address organization;\r\n    uint entryFee;\r\n    uint maxParticipants;\r\n    uint numProjects;\r\n    address [] participants;\r\n    address moderator;\r\n    uint duration;\r\n    bool started;\r\n    bool ended;\r\n    bool distributed;\r\n  \tuint total_points=0;\r\n    uint [] points;\r\n    address knittsAddress;\r\n\r\n    struct project{\r\n        string title;\r\n        string url;\r\n        address owner;\r\n        bytes[20][] description;\r\n        mapping(address => uint)investments;\r\n        address[] investors;\r\n        uint total_fund;\r\n    }\r\n\t\t\r\n    mapping(uint => project) projects;\r\n\r\n    constructor(address _moderator, uint _entryFee, uint _maxParticipants, uint _duration, address _knittsAddress){\r\n        entryFee = _entryFee;\r\n        maxParticipants = _maxParticipants;\r\n        moderator = _moderator;\r\n        duration = _duration;\r\n        numProjects = 0;\r\n        started=false;\r\n        ended=false;\r\n        distributed=false;\r\n        //organization = 0x79e6234Ff4E7DB556F916FeBcE9e52a68D0B8879; //for public net\r\n        organization = _moderator; // for local testing\r\n        knittsAddress = _knittsAddress;\r\n    }\r\n\r\n    function submitIdea(string memory title, string memory url, bytes[20][] memory description) public payable returns(uint){\r\n        require(msg.value >= entryFee, \"Insufficient entry fee\");\r\n        require(numProjects < maxParticipants, \"Maximum limit reached\");\r\n        project storage p = projects[numProjects++];\r\n        p.title = title;\r\n        p.url = url;\r\n        p.owner = msg.sender;\r\n        p.description = description;\r\n        return numProjects;\r\n    }\r\n\r\n    function invest(uint projectId) public payable{\r\n        require(projectId < numProjects, \"Invalid project id\");\r\n        if(projects[projectId].investments[msg.sender] == 0){\r\n            projects[projectId].investors.push(msg.sender);\r\n        }\r\n        projects[projectId].total_fund += msg.value/1e12;\r\n        projects[projectId].investments[msg.sender] += msg.value/1e12;\r\n        \r\n    }\r\n\r\n    function startLeague() public{\r\n        require(msg.sender == moderator, \"only moderator can start the league\");\r\n        started=true;\r\n    }\r\n\r\n    function endLeague() public returns(uint[] memory){\r\n        require(msg.sender == organization, \"only organization can end the league\");\r\n        ended=true;\r\n        getPoints();\r\n      \t\r\n      \tfor(uint i=0; i<numProjects; i++){\r\n            total_points += points[i];\r\n        }\r\n\r\n        uint averagePoints = total_points / numProjects;\r\n      \r\n      \tfor(uint i=0;i<numProjects; i++) {\r\n            Knitts _knitts = Knitts(knittsAddress);\r\n            address _userId = _knitts.getUserContractAddress(projects[i].owner);\r\n            User _user = User(_userId);\r\n            _user.addProject(projects[i].title, projects[i].url, projects[i].description, points[i] , averagePoints, address(this) );\r\n        } \r\n\r\n        return points;\r\n    }\r\n\r\n    function getPoints() private returns(uint[] memory){\r\n        require(ended = true, \"the game has not ended\");\r\n        uint [] memory empty_points;\r\n        points = empty_points;\r\n        // require(msg.sender == organization, \"only organization get the points\");\r\n        // write quadratic funding code here\r\n        for(uint i=0; i < numProjects; i++){\r\n            uint sum = 0;\r\n            for(uint j=0; j<projects[i].investors.length; j++){\r\n                address investor = projects[i].investors[j];\r\n                sum += sqrt(projects[i].investments[investor]);\r\n            }\r\n            uint point = sum * sum;\r\n            points.push(point);\r\n        }\r\n      \t\r\n        \r\n        return points;\r\n    }\r\n\r\n    function distribute() public {\r\n        require(msg.sender == organization, \"only organization can distribute prizes\");\r\n        uint total_balance = address(this).balance;\r\n        \r\n        for(uint i=0; i<numProjects; i++){\r\n            project storage p  =  projects[i];\r\n            \r\n            payable(p.owner).transfer( (3*points[i]*total_balance)/(10*total_points) );\r\n\r\n            for(uint j=0; j<p.investors.length; j++){\r\n                address investor = p.investors[j];\r\n                 Knitts _knitts = Knitts(knittsAddress);\r\n                address _userId = _knitts.getUserContractAddress(investor);\r\n                User _user = User(_userId);\r\n                address [] memory NFTs = _user.getNFTs();\r\n                \r\n                if(NFTs.length == 0){\r\n                    uint value = (6 * points[i] * total_balance * p.investments[investor]) / (10 * total_points * p.total_fund);\r\n                    payable(investor).transfer( value );\r\n                }\r\n                else{\r\n                    for(uint k = 0; k < NFTs.length; k++){\r\n                        NFT nft = NFT(NFTs[k]);\r\n                        uint value = (6 * points[i] * total_balance * p.investments[investor] * nft.percentage()) / (10 * total_points * p.total_fund * 100);\r\n                        payable(nft.owner()).transfer(value);\r\n                        nft.strikeNFT();\r\n                    }\r\n                }\r\n                \r\n            }\r\n        }\r\n\r\n        payable(moderator).transfer(address(this).balance);\r\n\r\n    }\r\n\r\n    function getDetails() public view returns(\r\n        address,//moderator\r\n        uint,//entry fee\r\n        uint,//maxParticipants\r\n        bool, //started\r\n        bool, //ended\r\n        bool //distributed\r\n    ){\r\n        return (moderator, entryFee, maxParticipants, started, ended, distributed);\r\n    }\r\n\r\n    function submissionDetails(uint projectId) public view returns(\r\n        address, // project owner\r\n        bytes[20][] memory // description\r\n    )  {\r\n        return (projects[projectId].owner, projects[projectId].description);\r\n    }\r\n\r\n    function sqrt(uint num) public pure returns(uint){\r\n        uint start = 1;\r\n        uint end = num;\r\n        uint mid = start;\r\n        while(start < end){\r\n            mid = start + (end - start)/2;\r\n            if(mid * mid >= num){\r\n                end = mid;\r\n            }else{\r\n                start = mid+1;\r\n            }\r\n        }\r\n        return end;\r\n    }\r\n}\r\n\r\n\r\ncontract User {\r\n  string name;\r\n  address id; //metamask address of corresponding user\r\n  uint numProjects=0;\r\n  uint percentageNFTSold;\r\n  uint NFTsPending = 0;\r\n  address organization;\r\n  mapping(address=>bool) validNFT;\r\n\r\n  address[] NFTs;\r\n  constructor( address _id, string memory _name, address _organization ) {\r\n  \tname = _name;\r\n    id = _id;\r\n    organization = _organization;\r\n  }\r\n  \r\n  \r\n  struct project{\r\n      string title;\r\n      string url;\r\n        bytes[20][] description;\r\n        uint point;\r\n        uint average_point;\r\n        address submittedOn;\r\n  }\r\n\t// mapping(uint => project) projects;\r\n\r\n    project[20] projects;\r\n  \r\n  function addProject(string memory title, string memory url, bytes[20][] memory description, uint point, uint average_point, address submittedOn) public {\r\n    project storage p = projects[numProjects++];\r\n    p.title = title;\r\n    p.url = url;\r\n    p.description = description;\r\n    p.point = point;\r\n    p.average_point = average_point;\r\n    p.submittedOn = submittedOn;\r\n  }\r\n\r\n  function updateNFT(uint value, bool increase, bool deactivate) public {\r\n      require(validNFT[msg.sender] == true, \"Not valid NFT\");\r\n      if(increase){\r\n          require(percentageNFTSold + value <= 100, \"Maximum proportion sold\");\r\n          percentageNFTSold += value;\r\n      }else{\r\n          require(percentageNFTSold >= value, \"Not enough proportion\");\r\n          percentageNFTSold -= value;\r\n      }\r\n      if(deactivate){\r\n          validNFT[msg.sender] = false;\r\n          NFTsPending-=1;\r\n          if(NFTsPending ==0){\r\n            address [] memory NFTsUtil;\r\n            NFTs = NFTsUtil;\r\n          }\r\n          \r\n      }\r\n  }\r\n\r\n  function mintNFT(uint shares, uint numLeagues) public returns (address[] memory){\r\n      uint percentageEachShare = 100/shares;\r\n      require(shares * percentageEachShare != 100, \"shares can only be a factor of 100\");\r\n      require(NFTsPending > 0, \"You have unsold minted NFTs left\");\r\n      require(msg.sender == id);\r\n      for(uint i=0; i<shares; i++){\r\n          NFT newNFT = new NFT(organization, address(this), address(this), id, id, percentageEachShare, numLeagues);\r\n          NFTs.push(address(newNFT));\r\n      }\r\n      return NFTs;\r\n  }\r\n\r\n  function getNFTs() public view returns (address[] memory){\r\n      return NFTs;\r\n  }\r\n  \r\n  function getDetails() public view returns (project[20] memory){\r\n    \treturn projects;\r\n  }\r\n  \r\n}\r\n\r\n\r\ncontract NFT{\r\n    address public organization;\r\n    address public creater;\r\n    address public owner;\r\n    uint public percentage;\r\n    uint public gamesRemaining;\r\n    bool public expired;\r\n    address public createrContractId;\r\n    address public ownerContractId;\r\n\r\n    constructor(address _organization, address _createrContractId, address _ownerContractId, address _creater, address _owner, uint _percentage, uint _gamesRemaining){\r\n        organization = _organization;\r\n        creater = _creater;\r\n        owner = _owner;\r\n        percentage = _percentage;\r\n        gamesRemaining = _gamesRemaining;\r\n        expired = false;\r\n        createrContractId = _createrContractId;\r\n        ownerContractId = _ownerContractId;\r\n    }\r\n\r\n    function getDetails() public view returns(address, address, uint, uint, bool){\r\n        return (creater, owner, percentage, gamesRemaining, expired);\r\n    }\r\n\r\n    function strikeNFT() public returns (uint){\r\n        // require(msg.sender == organization, \"only organization can strikeNFT\");\r\n        require(expired == false, \"The card has expired\");\r\n        require(gamesRemaining > 0, \"The maximum number of games has been reached\");\r\n        gamesRemaining = gamesRemaining-1;\r\n        if(gamesRemaining == 0){\r\n            expired = true;\r\n            User(createrContractId).updateNFT(percentage, true, true);\r\n        }else{\r\n            User(createrContractId).updateNFT(percentage, true, false);\r\n        }\r\n        return percentage;\r\n    }\r\n\r\n    \r\n\r\n}\r\n\r\n\r\n\r\n\r\n\r\n\r\n\r\n\r\n\r\n\r\n\r\n\r\n\r\n\r\n",
  "sourcePath": "E:\\projects\\knitts\\back-end\\contracts\\League.sol",
  "compiler": {
    "name": "solc",
    "version": "0.8.0+commit.c7dfd78e.Emscripten.clang"
  },
  "schemaVersion": "3.4.3",
  "updatedAt": "2021-09-30T07:05:08.704Z",
  "devdoc": {
    "kind": "dev",
    "methods": {},
    "version": 1
  },
  "userdoc": {
    "kind": "user",
    "methods": {},
    "version": 1
  }
}