{
  "contractName": "User",
  "abi": [
    {
      "inputs": [
        {
          "internalType": "address",
          "name": "_id",
          "type": "address"
        },
        {
          "internalType": "string",
          "name": "_name",
          "type": "string"
        }
      ],
      "stateMutability": "nonpayable",
      "type": "constructor"
    },
    {
      "inputs": [
        {
          "internalType": "uint256",
          "name": "",
          "type": "uint256"
        }
      ],
      "name": "NFTs_created",
      "outputs": [
        {
          "internalType": "address",
          "name": "",
          "type": "address"
        }
      ],
      "stateMutability": "view",
      "type": "function"
    },
    {
      "inputs": [],
      "name": "id",
      "outputs": [
        {
          "internalType": "address",
          "name": "",
          "type": "address"
        }
      ],
      "stateMutability": "view",
      "type": "function"
    },
    {
      "inputs": [],
      "name": "name",
      "outputs": [
        {
          "internalType": "string",
          "name": "",
          "type": "string"
        }
      ],
      "stateMutability": "view",
      "type": "function"
    },
    {
      "inputs": [],
      "name": "numProjects",
      "outputs": [
        {
          "internalType": "uint256",
          "name": "",
          "type": "uint256"
        }
      ],
      "stateMutability": "view",
      "type": "function"
    },
    {
      "inputs": [],
      "name": "pending_nfts",
      "outputs": [
        {
          "internalType": "uint256",
          "name": "",
          "type": "uint256"
        }
      ],
      "stateMutability": "view",
      "type": "function"
    },
    {
      "inputs": [
        {
          "internalType": "uint256",
          "name": "",
          "type": "uint256"
        }
      ],
      "name": "projects",
      "outputs": [
        {
          "internalType": "string",
          "name": "title",
          "type": "string"
        },
        {
          "internalType": "string",
          "name": "url",
          "type": "string"
        },
        {
          "internalType": "string",
          "name": "image",
          "type": "string"
        },
        {
          "internalType": "uint256",
          "name": "point",
          "type": "uint256"
        },
        {
          "internalType": "uint256",
          "name": "average_point",
          "type": "uint256"
        },
        {
          "internalType": "address",
          "name": "submittedOn",
          "type": "address"
        }
      ],
      "stateMutability": "view",
      "type": "function"
    },
    {
      "inputs": [
        {
          "internalType": "string",
          "name": "_title",
          "type": "string"
        },
        {
          "internalType": "string",
          "name": "_url",
          "type": "string"
        },
        {
          "internalType": "string",
          "name": "_image",
          "type": "string"
        },
        {
          "internalType": "bytes[20][]",
          "name": "_description",
          "type": "bytes[20][]"
        },
        {
          "internalType": "uint256",
          "name": "_point",
          "type": "uint256"
        },
        {
          "internalType": "uint256",
          "name": "_average_point",
          "type": "uint256"
        },
        {
          "internalType": "address",
          "name": "_submittedOn",
          "type": "address"
        }
      ],
      "name": "addProject",
      "outputs": [],
      "stateMutability": "nonpayable",
      "type": "function"
    },
    {
      "inputs": [
        {
          "internalType": "uint256",
          "name": "_bronze",
          "type": "uint256"
        },
        {
          "internalType": "uint256",
          "name": "price",
          "type": "uint256"
        }
      ],
      "name": "createNFT",
      "outputs": [
        {
          "internalType": "address[]",
          "name": "",
          "type": "address[]"
        }
      ],
      "stateMutability": "nonpayable",
      "type": "function"
    },
    {
      "inputs": [],
      "name": "split",
      "outputs": [],
      "stateMutability": "payable",
      "type": "function"
    }
  ],
  "bytecode": "0x6080604052600060025560006004553480156200001b57600080fd5b5060405162005dcf38038062005dcf8339818101604052810190620000419190620001dc565b806000908051906020019062000059929190620000a3565b5081600160006101000a81548173ffffffffffffffffffffffffffffffffffffffff021916908373ffffffffffffffffffffffffffffffffffffffff1602179055505050620003b5565b828054620000b19062000307565b90600052602060002090601f016020900481019282620000d5576000855562000121565b82601f10620000f057805160ff191683800117855562000121565b8280016001018555821562000121579182015b828111156200012057825182559160200191906001019062000103565b5b50905062000130919062000134565b5090565b5b808211156200014f57600081600090555060010162000135565b5090565b60006200016a62000164846200026a565b62000236565b9050828152602081018484840111156200018357600080fd5b62000190848285620002d1565b509392505050565b600081519050620001a9816200039b565b92915050565b600082601f830112620001c157600080fd5b8151620001d384826020860162000153565b91505092915050565b60008060408385031215620001f057600080fd5b6000620002008582860162000198565b925050602083015167ffffffffffffffff8111156200021e57600080fd5b6200022c85828601620001af565b9150509250929050565b6000604051905081810181811067ffffffffffffffff8211171562000260576200025f6200036c565b5b8060405250919050565b600067ffffffffffffffff8211156200028857620002876200036c565b5b601f19601f8301169050602081019050919050565b6000620002aa82620002b1565b9050919050565b600073ffffffffffffffffffffffffffffffffffffffff82169050919050565b60005b83811015620002f1578082015181840152602081019050620002d4565b8381111562000301576000848401525b50505050565b600060028204905060018216806200032057607f821691505b602082108114156200033757620003366200033d565b5b50919050565b7f4e487b7100000000000000000000000000000000000000000000000000000000600052602260045260246000fd5b7f4e487b7100000000000000000000000000000000000000000000000000000000600052604160045260246000fd5b620003a6816200029d565b8114620003b257600080fd5b50565b615a0a80620003c56000396000f3fe608060405260043610620000925760003560e01c8063af640d0f1162000061578063af640d0f1462000184578063f765417614620001b4578063f8d3bc3b14620001c0578063fbf7de8414620001f0578063fd9de177146200021e5762000092565b806306fdde03146200009757806309a19f2214620000c7578063107046bd146200010b5780635a067baa1462000154575b600080fd5b348015620000a457600080fd5b50620000af62000262565b604051620000be91906200185a565b60405180910390f35b348015620000d457600080fd5b50620000f36004803603810190620000ed919062001474565b620002f8565b60405162000102919062001819565b60405180910390f35b3480156200011857600080fd5b506200013760048036038101906200013191906200141c565b620005c3565b6040516200014b969594939291906200187e565b60405180910390f35b3480156200016157600080fd5b506200016c620007d6565b6040516200017b919062001966565b60405180910390f35b3480156200019157600080fd5b506200019c620007dc565b604051620001ab919062001770565b60405180910390f35b620001be62000802565b005b348015620001cd57600080fd5b50620001d862000a20565b604051620001e7919062001966565b60405180910390f35b348015620001fd57600080fd5b506200021c60048036038101906200021691906200130b565b62000a26565b005b3480156200022b57600080fd5b506200024a60048036038101906200024491906200141c565b62000ba9565b60405162000259919062001770565b60405180910390f35b60008054620002719062001bfa565b80601f01602080910402602001604051908101604052809291908181526020018280546200029f9062001bfa565b8015620002f05780601f10620002c457610100808354040283529160200191620002f0565b820191906000526020600020905b815481529060010190602001808311620002d257829003601f168201915b505050505081565b6060600a83111562000341576040517f08c379a0000000000000000000000000000000000000000000000000000000008152600401620003389062001944565b60405180910390fd5b60006004541462000389576040517f08c379a0000000000000000000000000000000000000000000000000000000008152600401620003809062001922565b60405180910390fd5b600160009054906101000a900473ffffffffffffffffffffffffffffffffffffffff1673ffffffffffffffffffffffffffffffffffffffff163373ffffffffffffffffffffffffffffffffffffffff16146200041c576040517f08c379a0000000000000000000000000000000000000000000000000000000008152600401620004139062001900565b60405180910390fd5b60005b838110156200052a576000600160009054906101000a900473ffffffffffffffffffffffffffffffffffffffff16600160009054906101000a900473ffffffffffffffffffffffffffffffffffffffff16600186604051620004819062000d3f565b6200049094939291906200178d565b604051809103906000f080158015620004ad573d6000803e3d6000fd5b5090506003819080600181540180825580915050600190039060005260206000200160009091909190916101000a81548173ffffffffffffffffffffffffffffffffffffffff021916908373ffffffffffffffffffffffffffffffffffffffff160217905550508080620005219062001c30565b9150506200041f565b50826004819055506003805480602002602001604051908101604052809291908181526020018280548015620005b657602002820191906000526020600020905b8160009054906101000a900473ffffffffffffffffffffffffffffffffffffffff1673ffffffffffffffffffffffffffffffffffffffff16815260200190600101908083116200056b575b5050505050905092915050565b60058160148110620005d457600080fd5b60070201600091509050806000018054620005ef9062001bfa565b80601f01602080910402602001604051908101604052809291908181526020018280546200061d9062001bfa565b80156200066e5780601f1062000642576101008083540402835291602001916200066e565b820191906000526020600020905b8154815290600101906020018083116200065057829003601f168201915b505050505090806001018054620006859062001bfa565b80601f0160208091040260200160405190810160405280929190818152602001828054620006b39062001bfa565b8015620007045780601f10620006d85761010080835404028352916020019162000704565b820191906000526020600020905b815481529060010190602001808311620006e657829003601f168201915b5050505050908060020180546200071b9062001bfa565b80601f0160208091040260200160405190810160405280929190818152602001828054620007499062001bfa565b80156200079a5780601f106200076e576101008083540402835291602001916200079a565b820191906000526020600020905b8154815290600101906020018083116200077c57829003601f168201915b5050505050908060040154908060050154908060060160009054906101000a900473ffffffffffffffffffffffffffffffffffffffff16905086565b60025481565b600160009054906101000a900473ffffffffffffffffffffffffffffffffffffffff1681565b60006064605f3462000815919062001b02565b62000821919062001aca565b905060006004541115620009b35760005b600380549050811015620009a6576000600382815481106200087d577f4e487b7100000000000000000000000000000000000000000000000000000000600052603260045260246000fd5b9060005260206000200160009054906101000a900473ffffffffffffffffffffffffffffffffffffffff1690508073ffffffffffffffffffffffffffffffffffffffff16636352211e60016040518263ffffffff1660e01b8152600401620008e691906200183d565b60206040518083038186803b158015620008ff57600080fd5b505afa15801562000914573d6000803e3d6000fd5b505050506040513d601f19601f820116820180604052508101906200093a9190620012df565b73ffffffffffffffffffffffffffffffffffffffff166108fc600a8562000962919062001aca565b9081150290604051600060405180830381858888f193505050501580156200098e573d6000803e3d6000fd5b505080806200099d9062001c30565b91505062000832565b50620009b162000be9565b505b600160009054906101000a900473ffffffffffffffffffffffffffffffffffffffff1673ffffffffffffffffffffffffffffffffffffffff166108fc479081150290604051600060405180830381858888f1935050505015801562000a1c573d6000803e3d6000fd5b5050565b60045481565b6040518060e001604052808881526020018781526020018681526020018581526020018481526020018381526020018273ffffffffffffffffffffffffffffffffffffffff1681525060056002600081548092919062000a869062001c30565b919050556014811062000ac2577f4e487b7100000000000000000000000000000000000000000000000000000000600052603260045260246000fd5b60070201600082015181600001908051906020019062000ae492919062000d4d565b50602082015181600101908051906020019062000b0392919062000d4d565b50604082015181600201908051906020019062000b2292919062000d4d565b50606082015181600301908051906020019062000b4192919062000dde565b506080820151816004015560a0820151816005015560c08201518160060160006101000a81548173ffffffffffffffffffffffffffffffffffffffff021916908373ffffffffffffffffffffffffffffffffffffffff16021790555090505050505050505050565b6003818154811062000bba57600080fd5b906000526020600020016000915054906101000a900473ffffffffffffffffffffffffffffffffffffffff1681565b6000806000905060005b60038054905081101562000d085760006003828154811062000c3e577f4e487b7100000000000000000000000000000000000000000000000000000000600052603260045260246000fd5b9060005260206000200160009054906101000a900473ffffffffffffffffffffffffffffffffffffffff1690508073ffffffffffffffffffffffffffffffffffffffff1663991a409b6040518163ffffffff1660e01b8152600401602060405180830381600087803b15801562000cb457600080fd5b505af115801562000cc9573d6000803e3d6000fd5b505050506040513d601f19601f8201168201806040525081019062000cef919062001448565b925050808062000cff9062001c30565b91505062000bf3565b50600081141562000d385760006004819055506060806003908051906020019062000d3592919062000e43565b50505b8091505090565b613c558062001d8083390190565b82805462000d5b9062001bfa565b90600052602060002090601f01602090048101928262000d7f576000855562000dcb565b82601f1062000d9a57805160ff191683800117855562000dcb565b8280016001018555821562000dcb579182015b8281111562000dca57825182559160200191906001019062000dad565b5b50905062000dda919062000ed2565b5090565b82805482825590600052602060002090601402810192821562000e30579160200282015b8281111562000e2f5782518290601462000e1e92919062000ef1565b509160200191906014019062000e02565b5b50905062000e3f919062000f4b565b5090565b82805482825590600052602060002090810192821562000ebf579160200282015b8281111562000ebe5782518260006101000a81548173ffffffffffffffffffffffffffffffffffffffff021916908373ffffffffffffffffffffffffffffffffffffffff1602179055509160200191906001019062000e64565b5b50905062000ece919062000ed2565b5090565b5b8082111562000eed57600081600090555060010162000ed3565b5090565b826014810192821562000f38579160200282015b8281111562000f3757825182908051906020019062000f2692919062000f73565b509160200191906001019062000f05565b5b50905062000f47919062001004565b5090565b5b8082111562000f6f576000818162000f6591906200102c565b5060140162000f4c565b5090565b82805462000f819062001bfa565b90600052602060002090601f01602090048101928262000fa5576000855562000ff1565b82601f1062000fc057805160ff191683800117855562000ff1565b8280016001018555821562000ff1579182015b8281111562000ff057825182559160200191906001019062000fd3565b5b50905062001000919062000ed2565b5090565b5b808211156200102857600081816200101e919062001041565b5060010162001005565b5090565b5080601401906200103e919062001004565b50565b5080546200104f9062001bfa565b6000825580601f1062001063575062001084565b601f01602090049060005260206000209081019062001083919062000ed2565b5b50565b60006200109e6200109884620019b7565b62001983565b9050808382526020820190508260005b85811015620010e25781358501620010c788826200122d565b845260208401935060208301925050600181019050620010ae565b5050509392505050565b600062001103620010fd84620019e6565b62001983565b9050808260005b858110156200113e578135850162001123888262001257565b8452602084019350602083019250506001810190506200110a565b5050509392505050565b60006200115f620011598462001a0f565b62001983565b9050828152602081018484840111156200117857600080fd5b6200118584828562001bb5565b509392505050565b6000620011a46200119e8462001a42565b62001983565b905082815260208101848484011115620011bd57600080fd5b620011ca84828562001bb5565b509392505050565b600081359050620011e38162001d4b565b92915050565b600081519050620011fa8162001d4b565b92915050565b600082601f8301126200121257600080fd5b81356200122484826020860162001087565b91505092915050565b600082601f8301126200123f57600080fd5b60146200124e848285620010ec565b91505092915050565b600082601f8301126200126957600080fd5b81356200127b84826020860162001148565b91505092915050565b600082601f8301126200129657600080fd5b8135620012a88482602086016200118d565b91505092915050565b600081359050620012c28162001d65565b92915050565b600081519050620012d98162001d65565b92915050565b600060208284031215620012f257600080fd5b60006200130284828501620011e9565b91505092915050565b600080600080600080600060e0888a0312156200132757600080fd5b600088013567ffffffffffffffff8111156200134257600080fd5b620013508a828b0162001284565b975050602088013567ffffffffffffffff8111156200136e57600080fd5b6200137c8a828b0162001284565b965050604088013567ffffffffffffffff8111156200139a57600080fd5b620013a88a828b0162001284565b955050606088013567ffffffffffffffff811115620013c657600080fd5b620013d48a828b0162001200565b9450506080620013e78a828b01620012b1565b93505060a0620013fa8a828b01620012b1565b92505060c06200140d8a828b01620011d2565b91505092959891949750929550565b6000602082840312156200142f57600080fd5b60006200143f84828501620012b1565b91505092915050565b6000602082840312156200145b57600080fd5b60006200146b84828501620012c8565b91505092915050565b600080604083850312156200148857600080fd5b60006200149885828601620012b1565b9250506020620014ab85828601620012b1565b9150509250929050565b6000620014c38383620014cf565b60208301905092915050565b620014da8162001b63565b82525050565b620014eb8162001b63565b82525050565b6000620014fe8262001a85565b6200150a818562001aa8565b9350620015178362001a75565b8060005b838110156200154e578151620015328882620014b5565b97506200153f8362001a9b565b9250506001810190506200151b565b5085935050505092915050565b620015668162001ba1565b82525050565b6000620015798262001a90565b62001585818562001ab9565b93506200159781856020860162001bc4565b620015a28162001d3a565b840191505092915050565b6000620015bc60018362001ab9565b91507f42000000000000000000000000000000000000000000000000000000000000006000830152602082019050919050565b6000620015fe60068362001ab9565b91507f42726f6e7a6500000000000000000000000000000000000000000000000000006000830152602082019050919050565b60006200164060128362001ab9565b91507f77726f6e672075736572206163636f756e7400000000000000000000000000006000830152602082019050919050565b60006200168260318362001ab9565b91507f68747470733a2f2f73332e656e7661746f2e636f6d2f66696c65732f3233353560008301527f36383932312f707265766965772e6a70670000000000000000000000000000006020830152604082019050919050565b6000620016ea601c8362001ab9565b91507f5468657265206172652070656e64696e67206e667473207374696c6c000000006000830152602082019050919050565b60006200172c601e8362001ab9565b91507f596f752063616e20637265617465206f6e6c792031302062726f6e7a657300006000830152602082019050919050565b6200176a8162001b97565b82525050565b6000602082019050620017876000830184620014e0565b92915050565b600060e082019050620017a46000830187620014e0565b8181036020830152620017b781620015ef565b90508181036040830152620017cc81620015ad565b9050620017dd6060830186620014e0565b8181036080830152620017f08162001673565b90506200180160a08301856200155b565b6200181060c08301846200175f565b95945050505050565b60006020820190508181036000830152620018358184620014f1565b905092915050565b60006020820190506200185460008301846200155b565b92915050565b600060208201905081810360008301526200187681846200156c565b905092915050565b600060c08201905081810360008301526200189a81896200156c565b90508181036020830152620018b081886200156c565b90508181036040830152620018c681876200156c565b9050620018d760608301866200175f565b620018e660808301856200175f565b620018f560a0830184620014e0565b979650505050505050565b600060208201905081810360008301526200191b8162001631565b9050919050565b600060208201905081810360008301526200193d81620016db565b9050919050565b600060208201905081810360008301526200195f816200171d565b9050919050565b60006020820190506200197d60008301846200175f565b92915050565b6000604051905081810181811067ffffffffffffffff82111715620019ad57620019ac62001d0b565b5b8060405250919050565b600067ffffffffffffffff821115620019d557620019d462001d0b565b5b602082029050602081019050919050565b600067ffffffffffffffff82111562001a045762001a0362001d0b565b5b602082029050919050565b600067ffffffffffffffff82111562001a2d5762001a2c62001d0b565b5b601f19601f8301169050602081019050919050565b600067ffffffffffffffff82111562001a605762001a5f62001d0b565b5b601f19601f8301169050602081019050919050565b6000819050602082019050919050565b600081519050919050565b600081519050919050565b6000602082019050919050565b600082825260208201905092915050565b600082825260208201905092915050565b600062001ad78262001b97565b915062001ae48362001b97565b92508262001af75762001af662001cad565b5b828204905092915050565b600062001b0f8262001b97565b915062001b1c8362001b97565b9250817fffffffffffffffffffffffffffffffffffffffffffffffffffffffffffffffff048311821515161562001b585762001b5762001c7e565b5b828202905092915050565b600062001b708262001b77565b9050919050565b600073ffffffffffffffffffffffffffffffffffffffff82169050919050565b6000819050919050565b600062001bae8262001b97565b9050919050565b82818337600083830152505050565b60005b8381101562001be457808201518184015260208101905062001bc7565b8381111562001bf4576000848401525b50505050565b6000600282049050600182168062001c1357607f821691505b6020821081141562001c2a5762001c2962001cdc565b5b50919050565b600062001c3d8262001b97565b91507fffffffffffffffffffffffffffffffffffffffffffffffffffffffffffffffff82141562001c735762001c7262001c7e565b5b600182019050919050565b7f4e487b7100000000000000000000000000000000000000000000000000000000600052601160045260246000fd5b7f4e487b7100000000000000000000000000000000000000000000000000000000600052601260045260246000fd5b7f4e487b7100000000000000000000000000000000000000000000000000000000600052602260045260246000fd5b7f4e487b7100000000000000000000000000000000000000000000000000000000600052604160045260246000fd5b6000601f19601f8301169050919050565b62001d568162001b63565b811462001d6257600080fd5b50565b62001d708162001b97565b811462001d7c57600080fd5b5056fe60806040523480156200001157600080fd5b5060405162003c5538038062003c558339818101604052810190620000379190620007ee565b85858160009080519060200190620000519291906200069e565b5080600190805190602001906200006a9291906200069e565b5050506200008d620000816200015960201b60201c565b6200016160201b60201c565b86600960006101000a81548173ffffffffffffffffffffffffffffffffffffffff021916908373ffffffffffffffffffffffffffffffffffffffff16021790555081600a81905550620000ec60086200022760201b6200123d1760201c565b6200010360086200023d60201b620012531760201c565b600c819055506200011d84600c546200024b60201b60201c565b62000131600c54846200043160201b60201c565b6200014530600c54620004b260201b60201c565b80600b819055505050505050505062000d02565b600033905090565b6000600760009054906101000a900473ffffffffffffffffffffffffffffffffffffffff16905081600760006101000a81548173ffffffffffffffffffffffffffffffffffffffff021916908373ffffffffffffffffffffffffffffffffffffffff1602179055508173ffffffffffffffffffffffffffffffffffffffff168173ffffffffffffffffffffffffffffffffffffffff167f8be0079c531659141344cd1fd0a4f28419497f9722a3daafe3b4186f6b6457e060405160405180910390a35050565b6001816000016000828254019250508190555050565b600081600001549050919050565b600073ffffffffffffffffffffffffffffffffffffffff168273ffffffffffffffffffffffffffffffffffffffff161415620002be576040517f08c379a0000000000000000000000000000000000000000000000000000000008152600401620002b59062000aa0565b60405180910390fd5b620002cf816200057860201b60201c565b1562000312576040517f08c379a0000000000000000000000000000000000000000000000000000000008152600401620003099062000a3a565b60405180910390fd5b6200032660008383620005e460201b60201c565b6001600360008473ffffffffffffffffffffffffffffffffffffffff1673ffffffffffffffffffffffffffffffffffffffff168152602001908152602001600020600082825462000378919062000b3a565b92505081905550816002600083815260200190815260200160002060006101000a81548173ffffffffffffffffffffffffffffffffffffffff021916908373ffffffffffffffffffffffffffffffffffffffff160217905550808273ffffffffffffffffffffffffffffffffffffffff16600073ffffffffffffffffffffffffffffffffffffffff167fddf252ad1be2c89b69c2b068fc378daa952ba7f163c4a11628f55a4df523b3ef60405160405180910390a45050565b62000442826200057860201b60201c565b62000484576040517f08c379a00000000000000000000000000000000000000000000000000000000081526004016200047b9062000a7e565b60405180910390fd5b80600660008481526020019081526020016000209080519060200190620004ad9291906200069e565b505050565b816004600083815260200190815260200160002060006101000a81548173ffffffffffffffffffffffffffffffffffffffff021916908373ffffffffffffffffffffffffffffffffffffffff160217905550808273ffffffffffffffffffffffffffffffffffffffff166200053283620005e960201b6200090d1760201c565b73ffffffffffffffffffffffffffffffffffffffff167f8c5be1e5ebec7d5bd14f71427d1e84f3dd0314c0f7b2291e5b200ac8c7c3b92560405160405180910390a45050565b60008073ffffffffffffffffffffffffffffffffffffffff166002600084815260200190815260200160002060009054906101000a900473ffffffffffffffffffffffffffffffffffffffff1673ffffffffffffffffffffffffffffffffffffffff1614159050919050565b505050565b6000806002600084815260200190815260200160002060009054906101000a900473ffffffffffffffffffffffffffffffffffffffff169050600073ffffffffffffffffffffffffffffffffffffffff168173ffffffffffffffffffffffffffffffffffffffff16141562000695576040517f08c379a00000000000000000000000000000000000000000000000000000000081526004016200068c9062000a5c565b60405180910390fd5b80915050919050565b828054620006ac9062000c0b565b90600052602060002090601f016020900481019282620006d057600085556200071c565b82601f10620006eb57805160ff19168380011785556200071c565b828001600101855582156200071c579182015b828111156200071b578251825591602001919060010190620006fe565b5b5090506200072b91906200072f565b5090565b5b808211156200074a57600081600090555060010162000730565b5090565b6000620007656200075f8462000af6565b62000ac2565b9050828152602081018484840111156200077e57600080fd5b6200078b84828562000bd5565b509392505050565b600081519050620007a48162000cce565b92915050565b600082601f830112620007bc57600080fd5b8151620007ce8482602086016200074e565b91505092915050565b600081519050620007e88162000ce8565b92915050565b600080600080600080600060e0888a0312156200080a57600080fd5b60006200081a8a828b0162000793565b975050602088015167ffffffffffffffff8111156200083857600080fd5b620008468a828b01620007aa565b965050604088015167ffffffffffffffff8111156200086457600080fd5b620008728a828b01620007aa565b9550506060620008858a828b0162000793565b945050608088015167ffffffffffffffff811115620008a357600080fd5b620008b18a828b01620007aa565b93505060a0620008c48a828b01620007d7565b92505060c0620008d78a828b01620007d7565b91505092959891949750929550565b6000620008f5601c8362000b29565b91507f4552433732313a20746f6b656e20616c7265616479206d696e746564000000006000830152602082019050919050565b60006200093760298362000b29565b91507f4552433732313a206f776e657220717565727920666f72206e6f6e657869737460008301527f656e7420746f6b656e00000000000000000000000000000000000000000000006020830152604082019050919050565b60006200099f602e8362000b29565b91507f45524337323155524953746f726167653a2055524920736574206f66206e6f6e60008301527f6578697374656e7420746f6b656e0000000000000000000000000000000000006020830152604082019050919050565b600062000a0760208362000b29565b91507f4552433732313a206d696e7420746f20746865207a65726f20616464726573736000830152602082019050919050565b6000602082019050818103600083015262000a5581620008e6565b9050919050565b6000602082019050818103600083015262000a778162000928565b9050919050565b6000602082019050818103600083015262000a998162000990565b9050919050565b6000602082019050818103600083015262000abb81620009f8565b9050919050565b6000604051905081810181811067ffffffffffffffff8211171562000aec5762000aeb62000c9f565b5b8060405250919050565b600067ffffffffffffffff82111562000b145762000b1362000c9f565b5b601f19601f8301169050602081019050919050565b600082825260208201905092915050565b600062000b478262000bcb565b915062000b548362000bcb565b9250827fffffffffffffffffffffffffffffffffffffffffffffffffffffffffffffffff0382111562000b8c5762000b8b62000c41565b5b828201905092915050565b600062000ba48262000bab565b9050919050565b600073ffffffffffffffffffffffffffffffffffffffff82169050919050565b6000819050919050565b60005b8381101562000bf557808201518184015260208101905062000bd8565b8381111562000c05576000848401525b50505050565b6000600282049050600182168062000c2457607f821691505b6020821081141562000c3b5762000c3a62000c70565b5b50919050565b7f4e487b7100000000000000000000000000000000000000000000000000000000600052601160045260246000fd5b7f4e487b7100000000000000000000000000000000000000000000000000000000600052602260045260246000fd5b7f4e487b7100000000000000000000000000000000000000000000000000000000600052604160045260246000fd5b62000cd98162000b97565b811462000ce557600080fd5b50565b62000cf38162000bcb565b811462000cff57600080fd5b50565b612f438062000d126000396000f3fe60806040526004361061013f5760003560e01c8063715018a6116100b6578063a22cb4651161006f578063a22cb4651461044b578063a6f2ae3a14610474578063b88d4fde1461047e578063c87b56dd146104a7578063e985e9c5146104e4578063f2fde38b146105215761013f565b8063715018a61461035f5780638d6cc56d146103765780638da5cb5b1461039f57806395d89b41146103ca578063991a409b146103f5578063a035b1fe146104205761013f565b806323b872dd1161010857806323b872dd1461023d57806342842e0e1461026657806343661b2c1461028f578063486fa3f7146102ba5780636352211e146102e557806370a08231146103225761013f565b80620ed58f1461014457806301ffc9a71461016f57806306fdde03146101ac578063081812fc146101d7578063095ea7b314610214575b600080fd5b34801561015057600080fd5b5061015961054a565b6040516101669190612b08565b60405180910390f35b34801561017b57600080fd5b50610196600480360381019061019191906120a7565b610550565b6040516101a391906128ab565b60405180910390f35b3480156101b857600080fd5b506101c1610632565b6040516101ce91906128c6565b60405180910390f35b3480156101e357600080fd5b506101fe60048036038101906101f991906120f9565b6106c4565b60405161020b9190612844565b60405180910390f35b34801561022057600080fd5b5061023b6004803603810190610236919061206b565b610749565b005b34801561024957600080fd5b50610264600480360381019061025f9190611f65565b610861565b005b34801561027257600080fd5b5061028d60048036038101906102889190611f65565b6108c1565b005b34801561029b57600080fd5b506102a46108e1565b6040516102b19190612b08565b60405180910390f35b3480156102c657600080fd5b506102cf6108e7565b6040516102dc9190612844565b60405180910390f35b3480156102f157600080fd5b5061030c600480360381019061030791906120f9565b61090d565b6040516103199190612844565b60405180910390f35b34801561032e57600080fd5b5061034960048036038101906103449190611f00565b6109bf565b6040516103569190612b08565b60405180910390f35b34801561036b57600080fd5b50610374610a77565b005b34801561038257600080fd5b5061039d600480360381019061039891906120f9565b610aff565b005b3480156103ab57600080fd5b506103b4610b85565b6040516103c19190612844565b60405180910390f35b3480156103d657600080fd5b506103df610baf565b6040516103ec91906128c6565b60405180910390f35b34801561040157600080fd5b5061040a610c41565b6040516104179190612b08565b60405180910390f35b34801561042c57600080fd5b50610435610cbf565b6040516104429190612b08565b60405180910390f35b34801561045757600080fd5b50610472600480360381019061046d919061202f565b610cc5565b005b61047c610e46565b005b34801561048a57600080fd5b506104a560048036038101906104a09190611fb4565b610efd565b005b3480156104b357600080fd5b506104ce60048036038101906104c991906120f9565b610f5f565b6040516104db91906128c6565b60405180910390f35b3480156104f057600080fd5b5061050b60048036038101906105069190611f29565b6110b1565b60405161051891906128ab565b60405180910390f35b34801561052d57600080fd5b5061054860048036038101906105439190611f00565b611145565b005b600c5481565b60007f80ac58cd000000000000000000000000000000000000000000000000000000007bffffffffffffffffffffffffffffffffffffffffffffffffffffffff1916827bffffffffffffffffffffffffffffffffffffffffffffffffffffffff1916148061061b57507f5b5e139f000000000000000000000000000000000000000000000000000000007bffffffffffffffffffffffffffffffffffffffffffffffffffffffff1916827bffffffffffffffffffffffffffffffffffffffffffffffffffffffff1916145b8061062b575061062a82611261565b5b9050919050565b60606000805461064190612d38565b80601f016020809104026020016040519081016040528092919081815260200182805461066d90612d38565b80156106ba5780601f1061068f576101008083540402835291602001916106ba565b820191906000526020600020905b81548152906001019060200180831161069d57829003601f168201915b5050505050905090565b60006106cf826112cb565b61070e576040517f08c379a000000000000000000000000000000000000000000000000000000000815260040161070590612a28565b60405180910390fd5b6004600083815260200190815260200160002060009054906101000a900473ffffffffffffffffffffffffffffffffffffffff169050919050565b60006107548261090d565b90508073ffffffffffffffffffffffffffffffffffffffff168373ffffffffffffffffffffffffffffffffffffffff1614156107c5576040517f08c379a00000000000000000000000000000000000000000000000000000000081526004016107bc90612aa8565b60405180910390fd5b8073ffffffffffffffffffffffffffffffffffffffff166107e4611337565b73ffffffffffffffffffffffffffffffffffffffff16148061081357506108128161080d611337565b6110b1565b5b610852576040517f08c379a0000000000000000000000000000000000000000000000000000000008152600401610849906129a8565b60405180910390fd5b61085c838361133f565b505050565b61087261086c611337565b826113f8565b6108b1576040517f08c379a00000000000000000000000000000000000000000000000000000000081526004016108a890612ae8565b60405180910390fd5b6108bc8383836114d6565b505050565b6108dc83838360405180602001604052806000815250610efd565b505050565b600a5481565b600960009054906101000a900473ffffffffffffffffffffffffffffffffffffffff1681565b6000806002600084815260200190815260200160002060009054906101000a900473ffffffffffffffffffffffffffffffffffffffff169050600073ffffffffffffffffffffffffffffffffffffffff168173ffffffffffffffffffffffffffffffffffffffff1614156109b6576040517f08c379a00000000000000000000000000000000000000000000000000000000081526004016109ad906129e8565b60405180910390fd5b80915050919050565b60008073ffffffffffffffffffffffffffffffffffffffff168273ffffffffffffffffffffffffffffffffffffffff161415610a30576040517f08c379a0000000000000000000000000000000000000000000000000000000008152600401610a27906129c8565b60405180910390fd5b600360008373ffffffffffffffffffffffffffffffffffffffff1673ffffffffffffffffffffffffffffffffffffffff168152602001908152602001600020549050919050565b610a7f611337565b73ffffffffffffffffffffffffffffffffffffffff16610a9d610b85565b73ffffffffffffffffffffffffffffffffffffffff1614610af3576040517f08c379a0000000000000000000000000000000000000000000000000000000008152600401610aea90612a48565b60405180910390fd5b610afd6000611732565b565b610b07611337565b73ffffffffffffffffffffffffffffffffffffffff16610b25610b85565b73ffffffffffffffffffffffffffffffffffffffff1614610b7b576040517f08c379a0000000000000000000000000000000000000000000000000000000008152600401610b7290612a48565b60405180910390fd5b80600b8190555050565b6000600760009054906101000a900473ffffffffffffffffffffffffffffffffffffffff16905090565b606060018054610bbe90612d38565b80601f0160208091040260200160405190810160405280929190818152602001828054610bea90612d38565b8015610c375780601f10610c0c57610100808354040283529160200191610c37565b820191906000526020600020905b815481529060010190602001808311610c1a57829003601f168201915b5050505050905090565b600080600a5411610c87576040517f08c379a0000000000000000000000000000000000000000000000000000000008152600401610c7e90612988565b60405180910390fd5b6001600a6000828254610c9a9190612c4e565b925050819055506000600a541415610cb757610cb660016117f8565b5b600a54905090565b600b5481565b610ccd611337565b73ffffffffffffffffffffffffffffffffffffffff168273ffffffffffffffffffffffffffffffffffffffff161415610d3b576040517f08c379a0000000000000000000000000000000000000000000000000000000008152600401610d3290612948565b60405180910390fd5b8060056000610d48611337565b73ffffffffffffffffffffffffffffffffffffffff1673ffffffffffffffffffffffffffffffffffffffff16815260200190815260200160002060008473ffffffffffffffffffffffffffffffffffffffff1673ffffffffffffffffffffffffffffffffffffffff16815260200190815260200160002060006101000a81548160ff0219169083151502179055508173ffffffffffffffffffffffffffffffffffffffff16610df5611337565b73ffffffffffffffffffffffffffffffffffffffff167f17307eab39ab6107e8899845ad3d59bd9653f200f220920489ca2b5937696c3183604051610e3a91906128ab565b60405180910390a35050565b600b54341015610e8b576040517f08c379a0000000000000000000000000000000000000000000000000000000008152600401610e8290612ac8565b60405180910390fd5b6000610e98600c5461090d565b9050610ea78130600c546114d6565b610eb333600c5461133f565b8073ffffffffffffffffffffffffffffffffffffffff166108fc479081150290604051600060405180830381858888f19350505050158015610ef9573d6000803e3d6000fd5b5050565b610f0e610f08611337565b836113f8565b610f4d576040517f08c379a0000000000000000000000000000000000000000000000000000000008152600401610f4490612ae8565b60405180910390fd5b610f598484848461184b565b50505050565b6060610f6a826112cb565b610fa9576040517f08c379a0000000000000000000000000000000000000000000000000000000008152600401610fa090612a08565b60405180910390fd5b6000600660008481526020019081526020016000208054610fc990612d38565b80601f0160208091040260200160405190810160405280929190818152602001828054610ff590612d38565b80156110425780601f1061101757610100808354040283529160200191611042565b820191906000526020600020905b81548152906001019060200180831161102557829003601f168201915b5050505050905060006110536118a7565b90506000815114156110695781925050506110ac565b60008251111561109e578082604051602001611086929190612820565b604051602081830303815290604052925050506110ac565b6110a7846118be565b925050505b919050565b6000600560008473ffffffffffffffffffffffffffffffffffffffff1673ffffffffffffffffffffffffffffffffffffffff16815260200190815260200160002060008373ffffffffffffffffffffffffffffffffffffffff1673ffffffffffffffffffffffffffffffffffffffff16815260200190815260200160002060009054906101000a900460ff16905092915050565b61114d611337565b73ffffffffffffffffffffffffffffffffffffffff1661116b610b85565b73ffffffffffffffffffffffffffffffffffffffff16146111c1576040517f08c379a00000000000000000000000000000000000000000000000000000000081526004016111b890612a48565b60405180910390fd5b600073ffffffffffffffffffffffffffffffffffffffff168173ffffffffffffffffffffffffffffffffffffffff161415611231576040517f08c379a000000000000000000000000000000000000000000000000000000000815260040161122890612908565b60405180910390fd5b61123a81611732565b50565b6001816000016000828254019250508190555050565b600081600001549050919050565b60007f01ffc9a7000000000000000000000000000000000000000000000000000000007bffffffffffffffffffffffffffffffffffffffffffffffffffffffff1916827bffffffffffffffffffffffffffffffffffffffffffffffffffffffff1916149050919050565b60008073ffffffffffffffffffffffffffffffffffffffff166002600084815260200190815260200160002060009054906101000a900473ffffffffffffffffffffffffffffffffffffffff1673ffffffffffffffffffffffffffffffffffffffff1614159050919050565b600033905090565b816004600083815260200190815260200160002060006101000a81548173ffffffffffffffffffffffffffffffffffffffff021916908373ffffffffffffffffffffffffffffffffffffffff160217905550808273ffffffffffffffffffffffffffffffffffffffff166113b28361090d565b73ffffffffffffffffffffffffffffffffffffffff167f8c5be1e5ebec7d5bd14f71427d1e84f3dd0314c0f7b2291e5b200ac8c7c3b92560405160405180910390a45050565b6000611403826112cb565b611442576040517f08c379a000000000000000000000000000000000000000000000000000000000815260040161143990612968565b60405180910390fd5b600061144d8361090d565b90508073ffffffffffffffffffffffffffffffffffffffff168473ffffffffffffffffffffffffffffffffffffffff1614806114bc57508373ffffffffffffffffffffffffffffffffffffffff166114a4846106c4565b73ffffffffffffffffffffffffffffffffffffffff16145b806114cd57506114cc81856110b1565b5b91505092915050565b8273ffffffffffffffffffffffffffffffffffffffff166114f68261090d565b73ffffffffffffffffffffffffffffffffffffffff161461154c576040517f08c379a000000000000000000000000000000000000000000000000000000000815260040161154390612a68565b60405180910390fd5b600073ffffffffffffffffffffffffffffffffffffffff168273ffffffffffffffffffffffffffffffffffffffff1614156115bc576040517f08c379a00000000000000000000000000000000000000000000000000000000081526004016115b390612928565b60405180910390fd5b6115c7838383611965565b6115d260008261133f565b6001600360008573ffffffffffffffffffffffffffffffffffffffff1673ffffffffffffffffffffffffffffffffffffffff16815260200190815260200160002060008282546116229190612c4e565b925050819055506001600360008473ffffffffffffffffffffffffffffffffffffffff1673ffffffffffffffffffffffffffffffffffffffff16815260200190815260200160002060008282546116799190612bc7565b92505081905550816002600083815260200190815260200160002060006101000a81548173ffffffffffffffffffffffffffffffffffffffff021916908373ffffffffffffffffffffffffffffffffffffffff160217905550808273ffffffffffffffffffffffffffffffffffffffff168473ffffffffffffffffffffffffffffffffffffffff167fddf252ad1be2c89b69c2b068fc378daa952ba7f163c4a11628f55a4df523b3ef60405160405180910390a4505050565b6000600760009054906101000a900473ffffffffffffffffffffffffffffffffffffffff16905081600760006101000a81548173ffffffffffffffffffffffffffffffffffffffff021916908373ffffffffffffffffffffffffffffffffffffffff1602179055508173ffffffffffffffffffffffffffffffffffffffff168173ffffffffffffffffffffffffffffffffffffffff167f8be0079c531659141344cd1fd0a4f28419497f9722a3daafe3b4186f6b6457e060405160405180910390a35050565b6118018161196a565b600060066000838152602001908152602001600020805461182190612d38565b905014611848576006600082815260200190815260200160002060006118479190611dd2565b5b50565b6118568484846114d6565b61186284848484611a7b565b6118a1576040517f08c379a0000000000000000000000000000000000000000000000000000000008152600401611898906128e8565b60405180910390fd5b50505050565b606060405180602001604052806000815250905090565b60606118c9826112cb565b611908576040517f08c379a00000000000000000000000000000000000000000000000000000000081526004016118ff90612a88565b60405180910390fd5b60006119126118a7565b90506000815111611932576040518060200160405280600081525061195d565b8061193c84611c12565b60405160200161194d929190612820565b6040516020818303038152906040525b915050919050565b505050565b60006119758261090d565b905061198381600084611965565b61198e60008361133f565b6001600360008373ffffffffffffffffffffffffffffffffffffffff1673ffffffffffffffffffffffffffffffffffffffff16815260200190815260200160002060008282546119de9190612c4e565b925050819055506002600083815260200190815260200160002060006101000a81549073ffffffffffffffffffffffffffffffffffffffff021916905581600073ffffffffffffffffffffffffffffffffffffffff168273ffffffffffffffffffffffffffffffffffffffff167fddf252ad1be2c89b69c2b068fc378daa952ba7f163c4a11628f55a4df523b3ef60405160405180910390a45050565b6000611a9c8473ffffffffffffffffffffffffffffffffffffffff16611dbf565b15611c05578373ffffffffffffffffffffffffffffffffffffffff1663150b7a02611ac5611337565b8786866040518563ffffffff1660e01b8152600401611ae7949392919061285f565b602060405180830381600087803b158015611b0157600080fd5b505af1925050508015611b3257506040513d601f19601f82011682018060405250810190611b2f91906120d0565b60015b611bb5573d8060008114611b62576040519150601f19603f3d011682016040523d82523d6000602084013e611b67565b606091505b50600081511415611bad576040517f08c379a0000000000000000000000000000000000000000000000000000000008152600401611ba4906128e8565b60405180910390fd5b805181602001fd5b63150b7a0260e01b7bffffffffffffffffffffffffffffffffffffffffffffffffffffffff1916817bffffffffffffffffffffffffffffffffffffffffffffffffffffffff191614915050611c0a565b600190505b949350505050565b60606000821415611c5a576040518060400160405280600181526020017f30000000000000000000000000000000000000000000000000000000000000008152509050611dba565b600082905060005b60008214611c8c578080611c7590612d6a565b915050600a82611c859190612c1d565b9150611c62565b60008167ffffffffffffffff811115611cce577f4e487b7100000000000000000000000000000000000000000000000000000000600052604160045260246000fd5b6040519080825280601f01601f191660200182016040528015611d005781602001600182028036833780820191505090505b5090505b60008514611db357600182611d199190612c4e565b9150600a85611d289190612db3565b6030611d349190612bc7565b60f81b818381518110611d70577f4e487b7100000000000000000000000000000000000000000000000000000000600052603260045260246000fd5b60200101907effffffffffffffffffffffffffffffffffffffffffffffffffffffffffffff1916908160001a905350600a85611dac9190612c1d565b9450611d04565b8093505050505b919050565b600080823b905060008111915050919050565b508054611dde90612d38565b6000825580601f10611df05750611e0f565b601f016020900490600052602060002090810190611e0e9190611e12565b5b50565b5b80821115611e2b576000816000905550600101611e13565b5090565b6000611e42611e3d84612b54565b612b23565b905082815260208101848484011115611e5a57600080fd5b611e65848285612cf6565b509392505050565b600081359050611e7c81612eb1565b92915050565b600081359050611e9181612ec8565b92915050565b600081359050611ea681612edf565b92915050565b600081519050611ebb81612edf565b92915050565b600082601f830112611ed257600080fd5b8135611ee2848260208601611e2f565b91505092915050565b600081359050611efa81612ef6565b92915050565b600060208284031215611f1257600080fd5b6000611f2084828501611e6d565b91505092915050565b60008060408385031215611f3c57600080fd5b6000611f4a85828601611e6d565b9250506020611f5b85828601611e6d565b9150509250929050565b600080600060608486031215611f7a57600080fd5b6000611f8886828701611e6d565b9350506020611f9986828701611e6d565b9250506040611faa86828701611eeb565b9150509250925092565b60008060008060808587031215611fca57600080fd5b6000611fd887828801611e6d565b9450506020611fe987828801611e6d565b9350506040611ffa87828801611eeb565b925050606085013567ffffffffffffffff81111561201757600080fd5b61202387828801611ec1565b91505092959194509250565b6000806040838503121561204257600080fd5b600061205085828601611e6d565b925050602061206185828601611e82565b9150509250929050565b6000806040838503121561207e57600080fd5b600061208c85828601611e6d565b925050602061209d85828601611eeb565b9150509250929050565b6000602082840312156120b957600080fd5b60006120c784828501611e97565b91505092915050565b6000602082840312156120e257600080fd5b60006120f084828501611eac565b91505092915050565b60006020828403121561210b57600080fd5b600061211984828501611eeb565b91505092915050565b61212b81612c82565b82525050565b61213a81612c94565b82525050565b600061214b82612b84565b6121558185612b9a565b9350612165818560208601612d05565b61216e81612ea0565b840191505092915050565b600061218482612b8f565b61218e8185612bab565b935061219e818560208601612d05565b6121a781612ea0565b840191505092915050565b60006121bd82612b8f565b6121c78185612bbc565b93506121d7818560208601612d05565b80840191505092915050565b60006121f0603283612bab565b91507f4552433732313a207472616e7366657220746f206e6f6e20455243373231526560008301527f63656976657220696d706c656d656e74657200000000000000000000000000006020830152604082019050919050565b6000612256602683612bab565b91507f4f776e61626c653a206e6577206f776e657220697320746865207a65726f206160008301527f64647265737300000000000000000000000000000000000000000000000000006020830152604082019050919050565b60006122bc602483612bab565b91507f4552433732313a207472616e7366657220746f20746865207a65726f2061646460008301527f72657373000000000000000000000000000000000000000000000000000000006020830152604082019050919050565b6000612322601983612bab565b91507f4552433732313a20617070726f766520746f2063616c6c6572000000000000006000830152602082019050919050565b6000612362602c83612bab565b91507f4552433732313a206f70657261746f7220717565727920666f72206e6f6e657860008301527f697374656e7420746f6b656e00000000000000000000000000000000000000006020830152604082019050919050565b60006123c8600783612bab565b91507f65787069726564000000000000000000000000000000000000000000000000006000830152602082019050919050565b6000612408603883612bab565b91507f4552433732313a20617070726f76652063616c6c6572206973206e6f74206f7760008301527f6e6572206e6f7220617070726f76656420666f7220616c6c00000000000000006020830152604082019050919050565b600061246e602a83612bab565b91507f4552433732313a2062616c616e636520717565727920666f7220746865207a6560008301527f726f2061646472657373000000000000000000000000000000000000000000006020830152604082019050919050565b60006124d4602983612bab565b91507f4552433732313a206f776e657220717565727920666f72206e6f6e657869737460008301527f656e7420746f6b656e00000000000000000000000000000000000000000000006020830152604082019050919050565b600061253a603183612bab565b91507f45524337323155524953746f726167653a2055524920717565727920666f722060008301527f6e6f6e6578697374656e7420746f6b656e0000000000000000000000000000006020830152604082019050919050565b60006125a0602c83612bab565b91507f4552433732313a20617070726f76656420717565727920666f72206e6f6e657860008301527f697374656e7420746f6b656e00000000000000000000000000000000000000006020830152604082019050919050565b6000612606602083612bab565b91507f4f776e61626c653a2063616c6c6572206973206e6f7420746865206f776e65726000830152602082019050919050565b6000612646602983612bab565b91507f4552433732313a207472616e73666572206f6620746f6b656e2074686174206960008301527f73206e6f74206f776e00000000000000000000000000000000000000000000006020830152604082019050919050565b60006126ac602f83612bab565b91507f4552433732314d657461646174613a2055524920717565727920666f72206e6f60008301527f6e6578697374656e7420746f6b656e00000000000000000000000000000000006020830152604082019050919050565b6000612712602183612bab565b91507f4552433732313a20617070726f76616c20746f2063757272656e74206f776e6560008301527f72000000000000000000000000000000000000000000000000000000000000006020830152604082019050919050565b6000612778600a83612bab565b91507f636f737473206d6f7265000000000000000000000000000000000000000000006000830152602082019050919050565b60006127b8603183612bab565b91507f4552433732313a207472616e736665722063616c6c6572206973206e6f74206f60008301527f776e6572206e6f7220617070726f7665640000000000000000000000000000006020830152604082019050919050565b61281a81612cec565b82525050565b600061282c82856121b2565b915061283882846121b2565b91508190509392505050565b60006020820190506128596000830184612122565b92915050565b60006080820190506128746000830187612122565b6128816020830186612122565b61288e6040830185612811565b81810360608301526128a08184612140565b905095945050505050565b60006020820190506128c06000830184612131565b92915050565b600060208201905081810360008301526128e08184612179565b905092915050565b60006020820190508181036000830152612901816121e3565b9050919050565b6000602082019050818103600083015261292181612249565b9050919050565b60006020820190508181036000830152612941816122af565b9050919050565b6000602082019050818103600083015261296181612315565b9050919050565b6000602082019050818103600083015261298181612355565b9050919050565b600060208201905081810360008301526129a1816123bb565b9050919050565b600060208201905081810360008301526129c1816123fb565b9050919050565b600060208201905081810360008301526129e181612461565b9050919050565b60006020820190508181036000830152612a01816124c7565b9050919050565b60006020820190508181036000830152612a218161252d565b9050919050565b60006020820190508181036000830152612a4181612593565b9050919050565b60006020820190508181036000830152612a61816125f9565b9050919050565b60006020820190508181036000830152612a8181612639565b9050919050565b60006020820190508181036000830152612aa18161269f565b9050919050565b60006020820190508181036000830152612ac181612705565b9050919050565b60006020820190508181036000830152612ae18161276b565b9050919050565b60006020820190508181036000830152612b01816127ab565b9050919050565b6000602082019050612b1d6000830184612811565b92915050565b6000604051905081810181811067ffffffffffffffff82111715612b4a57612b49612e71565b5b8060405250919050565b600067ffffffffffffffff821115612b6f57612b6e612e71565b5b601f19601f8301169050602081019050919050565b600081519050919050565b600081519050919050565b600082825260208201905092915050565b600082825260208201905092915050565b600081905092915050565b6000612bd282612cec565b9150612bdd83612cec565b9250827fffffffffffffffffffffffffffffffffffffffffffffffffffffffffffffffff03821115612c1257612c11612de4565b5b828201905092915050565b6000612c2882612cec565b9150612c3383612cec565b925082612c4357612c42612e13565b5b828204905092915050565b6000612c5982612cec565b9150612c6483612cec565b925082821015612c7757612c76612de4565b5b828203905092915050565b6000612c8d82612ccc565b9050919050565b60008115159050919050565b60007fffffffff0000000000000000000000000000000000000000000000000000000082169050919050565b600073ffffffffffffffffffffffffffffffffffffffff82169050919050565b6000819050919050565b82818337600083830152505050565b60005b83811015612d23578082015181840152602081019050612d08565b83811115612d32576000848401525b50505050565b60006002820490506001821680612d5057607f821691505b60208210811415612d6457612d63612e42565b5b50919050565b6000612d7582612cec565b91507fffffffffffffffffffffffffffffffffffffffffffffffffffffffffffffffff821415612da857612da7612de4565b5b600182019050919050565b6000612dbe82612cec565b9150612dc983612cec565b925082612dd957612dd8612e13565b5b828206905092915050565b7f4e487b7100000000000000000000000000000000000000000000000000000000600052601160045260246000fd5b7f4e487b7100000000000000000000000000000000000000000000000000000000600052601260045260246000fd5b7f4e487b7100000000000000000000000000000000000000000000000000000000600052602260045260246000fd5b7f4e487b7100000000000000000000000000000000000000000000000000000000600052604160045260246000fd5b6000601f19601f8301169050919050565b612eba81612c82565b8114612ec557600080fd5b50565b612ed181612c94565b8114612edc57600080fd5b50565b612ee881612ca0565b8114612ef357600080fd5b50565b612eff81612cec565b8114612f0a57600080fd5b5056fea264697066735822122038775ec82903cf025241683477e508ee6c49e91259e3f1187aa19ac21903934364736f6c63430008000033a2646970667358221220ab9f844d254e4023c1c369affb2cec1b7c1659348e0403cd2c375a04cf70d52764736f6c63430008000033",
  "immutableReferences": {},
  "source": "// SPDX-License-Identifier: MIT\r\npragma solidity >=0.8.0;\r\n\r\nimport \"@openzeppelin/contracts/token/ERC721/extensions/ERC721URIStorage.sol\"; \r\nimport \"@openzeppelin/contracts/access/Ownable.sol\";\r\nimport \"@openzeppelin/contracts/utils/Counters.sol\";\r\n\r\n\r\nlibrary MyMathlib{\r\n    function sqrt(uint num) public pure returns(uint){\r\n        uint start = 1;\r\n        uint end = num;\r\n        uint mid = start;\r\n        while(start < end){\r\n            mid = start + (end - start)/2;\r\n            if(mid * mid >= num){\r\n                end = mid;\r\n            }else{\r\n                start = mid+1;\r\n            }\r\n        }\r\n        return end;\r\n    }\r\n\r\n    function sum(uint[] memory arr) public pure returns (uint){\r\n        uint buf = 0;\r\n        for(uint i=0; i<arr.length; i++){\r\n            buf += arr[i];\r\n        }\r\n        return buf;\r\n    }\r\n}\r\n\r\n\r\ncontract Knitts{\r\n    address public organization = 0x79e6234Ff4E7DB556F916FeBcE9e52a68D0B8879;\r\n    address[] public Leagues;\r\n    uint public numLeagues=0;\r\n  \tmapping(address => address) public idToUser; \r\n\r\n    function createLeague(uint _entryFee, uint _numPlayers, uint _duration) public payable returns (address[] memory){\r\n        League newLeague = new League(msg.sender, msg.value, _entryFee, _numPlayers, _duration, address(this));\r\n        numLeagues += 1;\r\n        Leagues.push(address(newLeague));\r\n        return Leagues;\r\n    }\r\n\r\n\r\n    function register(address id, address userContract) public {\r\n        idToUser[id] = userContract;\r\n    }\r\n}\r\n\r\ncontract League{\r\n    using  MyMathlib for *;\r\n\r\n    //constant variables\r\n    address public organization;\r\n    address public knittsAddress;\r\n\r\n    //parameters\r\n    uint public entryFee;\r\n    uint public maxParticipants;\r\n    address public moderator;\r\n    uint public duration;\r\n    uint public deposit;\r\n\r\n    //contract variables\r\n    uint public numProjects=0;\r\n    address [] public participants;\r\n    bool public started=false;\r\n    bool public ended=false;\r\n    bool public distributed=false;\r\n    uint [] public points;\r\n    \r\n\r\n    struct project{\r\n\r\n        //parameters\r\n        string title;\r\n        string url;\r\n        string image;\r\n        address owner;\r\n        bytes[20][] description;\r\n\r\n        //variables\r\n        mapping(address => uint)investments;\r\n        address[] investors;\r\n        uint total_fund;\r\n    }\r\n\t\t\r\n    mapping(uint => project) projects;\r\n\r\n    constructor(address _moderator, uint _deposit, uint _entryFee, uint _maxParticipants, uint _duration, address _knittsAddress){\r\n        entryFee = _entryFee;\r\n        maxParticipants = _maxParticipants;\r\n        moderator = _moderator;\r\n        duration = _duration;\r\n        organization = _moderator; // for local testing\r\n        knittsAddress = _knittsAddress;\r\n        deposit = _deposit;\r\n    }\r\n\r\n    function submitIdea(string memory title, string memory url, string memory image, bytes[20][] memory description) external payable returns(uint){\r\n        require(msg.value >= entryFee, \"Insufficient entry fee\");\r\n        require(numProjects < maxParticipants, \"Maximum limit reached\");\r\n        project storage p = projects[numProjects++];\r\n        p.title = title;\r\n        p.url = url;\r\n        p.image = image;\r\n        p.owner = msg.sender;\r\n        p.description = description;\r\n        return numProjects;\r\n    }\r\n\r\n    function invest(uint projectId) external payable{\r\n        project storage p = projects[projectId];\r\n        if(p.investments[msg.sender] == 0){\r\n            p.investors.push(msg.sender);\r\n        }\r\n        p.total_fund += msg.value/1e12;\r\n        p.investments[msg.sender] += msg.value/1e12;\r\n        \r\n    }\r\n\r\n    function startLeague() external {\r\n        require(msg.sender == organization, \"only org\");\r\n        started=true;\r\n    }\r\n\r\n    function endLeague() external returns(uint[] memory){\r\n        require(msg.sender == organization, \"only org\");\r\n        ended=true;\r\n        payable(moderator).transfer(deposit);\r\n        getPoints();\r\n      \tuint total_points = points.sum();\r\n        uint averagePoints = total_points / numProjects;\r\n      \r\n      \tfor(uint i=0;i<numProjects; i++) {\r\n            Knitts _knitts = Knitts(knittsAddress);\r\n            address _userId = _knitts.idToUser(projects[i].owner);\r\n            User _user = User(_userId);\r\n            _user.addProject(projects[i].title, projects[i].url, projects[i].image, projects[i].description, points[i] , averagePoints, address(this) );\r\n        } \r\n        distribute(total_points);\r\n        return points;\r\n    }\r\n\r\n\r\n    function submissionDetails(uint projectId) external view returns(\r\n        string memory,\r\n        string memory,\r\n        string memory,\r\n        address, \r\n        bytes[20][] memory\r\n    )  {\r\n        project storage p  = projects[projectId];\r\n        return (p.title, p.url, p.image, p.owner, p.description);\r\n    }\r\n\r\n\r\n    function getPoints() internal returns(uint[] memory){\r\n        require(ended = true, \"the game has not ended\");\r\n        uint [] memory empty_points;\r\n        points = empty_points;\r\n        for(uint i=0; i < numProjects; i++){\r\n            uint buf = 0;\r\n            project storage p = projects[i];\r\n            for(uint j=0; j< p.investors.length; j++){\r\n                address inv = p.investors[j];\r\n                buf += (p.investments[inv]).sqrt();\r\n            }\r\n            points.push(buf * buf);\r\n        }\r\n        return points;\r\n    }\r\n\r\n    function distribute(uint total_points) internal {\r\n        require(msg.sender == organization, \"only organization\");\r\n        uint total_balance = address(this).balance;\r\n        \r\n        for(uint i=0; i<numProjects; i++){\r\n            project storage p  =  projects[i];\r\n            \r\n            payable(p.owner).transfer( (3*points[i]*total_balance)/(10*total_points) );\r\n\r\n            for(uint j=0; j<p.investors.length; j++){\r\n                address investor = p.investors[j];\r\n                Knitts _knitts = Knitts(knittsAddress);\r\n                address _userId = _knitts.idToUser(p.investors[j]);\r\n                User _user = User(_userId);\r\n                _user.split{value:(6 * points[i] * total_balance * p.investments[investor]) / (10 * total_points * p.total_fund)}();\r\n            }\r\n        }\r\n\r\n        payable(moderator).transfer(address(this).balance);\r\n\r\n    }\r\n\r\n    \r\n}\r\n\r\n\r\ncontract User {\r\n\r\n    //parameters\r\n    string public name;\r\n  \taddress public id; //metamask address of corresponding user\r\n\r\n    //contract variables\r\n  \tuint public numProjects=0;\r\n    address[] public NFTs_created;\r\n    uint public pending_nfts = 0;\r\n\r\n\r\n    constructor( address _id, string memory _name ) {\r\n        name = _name;\r\n        id = _id;\r\n    }\r\n\r\n    struct project{\r\n        string title;\r\n        string url;\r\n        string image;\r\n        bytes[20][] description;\r\n        uint point;\r\n        uint average_point;\r\n        address submittedOn;\r\n    }\r\n\r\n    project[20] public projects;\r\n    \r\n    function addProject(string memory _title, string memory _url, string memory _image, bytes[20][] memory _description, uint _point, uint _average_point, address _submittedOn) external {\r\n        projects[numProjects++] = project({title:_title, url:_url, image:_image, description:_description, point:_point, average_point:_average_point, submittedOn:_submittedOn});\r\n    }\r\n    \r\n\r\n    function createNFT(uint _bronze, uint price) external returns(address [] memory){\r\n        require(_bronze <= 10, \"You can create only 10 bronzes\");\r\n        require(pending_nfts == 0, \"There are pending nfts still\");\r\n        require(msg.sender == id, \"wrong user account\");\r\n\r\n        for(uint i=0; i<_bronze; i++){\r\n            NFT new_nft = new NFT(id, \"Bronze\", \"B\", id, 'https://s3.envato.com/files/235568921/preview.jpg', 1, price);\r\n            NFTs_created.push(address(new_nft));\r\n        }\r\n\r\n        pending_nfts = _bronze;\r\n        return NFTs_created;\r\n    }\r\n\r\n    function split() external payable {\r\n        uint value = (msg.value * 95) / 100;\r\n        if(pending_nfts > 0){\r\n            for(uint i=0; i<NFTs_created.length; i++){\r\n                NFT nft = NFT(NFTs_created[i]);\r\n                payable(nft.ownerOf(1)).transfer((value)/10);\r\n            }\r\n            scratchNFTs();\r\n        }\r\n        \r\n        payable(id).transfer(address(this).balance);\r\n    }\r\n\r\n    function scratchNFTs() internal returns(uint){\r\n        uint rem = 0;\r\n        for(uint i=0; i<NFTs_created.length; i++){\r\n            NFT new_nft =  NFT(NFTs_created[i]);\r\n            rem = new_nft.scratchCard();\r\n        }\r\n        if(rem == 0){\r\n            pending_nfts = 0;\r\n            address [] memory temp;\r\n            NFTs_created = temp;\r\n        }\r\n        return rem;\r\n    }\r\n  \r\n}\r\n\r\ncontract NFT is ERC721URIStorage, Ownable{\r\n    using Counters for Counters.Counter;\r\n    Counters.Counter private _tokenIds;\r\n    address public nft_creator;\r\n    uint public leaguesMore;\r\n    uint public price;\r\n    uint public newItemId;\r\n    constructor(address _creator, string memory _name, string memory _symbol, address _player, string memory _tokenURI, uint _leaguesMore, uint _price) ERC721(_name, _symbol){\r\n        nft_creator = _creator;\r\n        leaguesMore = _leaguesMore;\r\n        _tokenIds.increment();\r\n        newItemId = _tokenIds.current();\r\n        _mint(_player, newItemId);\r\n        _setTokenURI(newItemId, _tokenURI);\r\n        _approve(address(this), newItemId);\r\n        price = _price;\r\n    }\r\n\r\n    function scratchCard() public returns (uint){\r\n        require(leaguesMore > 0, \"expired\");\r\n        leaguesMore -= 1;\r\n        if(leaguesMore == 0){\r\n            _burn(1);\r\n        }\r\n        return leaguesMore;\r\n    }\r\n\r\n    function updatePrice(uint _price) external onlyOwner {\r\n        price = _price;\r\n    }\r\n\r\n    function buy() external payable {\r\n        require(msg.value >= price, \"costs more\");\r\n        address old_owner = ownerOf(newItemId);\r\n        _transfer(old_owner, address(this), newItemId);\r\n        _approve(msg.sender, newItemId);\r\n        payable(old_owner).transfer(address(this).balance);\r\n    } \r\n\r\n}\r\n\r\n",
  "sourcePath": "E:\\projects\\knitts\\back-end\\contracts\\League.sol",
  "compiler": {
    "name": "solc",
    "version": "0.8.0+commit.c7dfd78e.Emscripten.clang"
  },
  "schemaVersion": "3.4.3",
  "updatedAt": "2021-10-03T11:46:32.256Z",
  "devdoc": {
    "kind": "dev",
    "methods": {},
    "version": 1
  },
  "userdoc": {
    "kind": "user",
    "methods": {},
    "version": 1
  }
}